{
  "_format": "hh-sol-artifact-1",
  "contractName": "AadharDID",
  "sourceName": "contracts/AadharDID.sol",
  "abi": [
    {
      "anonymous": false,
      "inputs": [
        {
          "indexed": true,
          "internalType": "address",
          "name": "owner",
          "type": "address"
        },
        {
          "indexed": false,
          "internalType": "string",
          "name": "identifier",
          "type": "string"
        },
        {
          "indexed": false,
          "internalType": "string",
          "name": "aadharNumber",
          "type": "string"
        }
      ],
      "name": "AadharCreated",
      "type": "event"
    },
    {
      "anonymous": false,
      "inputs": [
        {
          "indexed": true,
          "internalType": "address",
          "name": "to",
          "type": "address"
        },
        {
          "indexed": false,
          "internalType": "string",
          "name": "attribute",
          "type": "string"
        }
      ],
      "name": "AccessGranted",
      "type": "event"
    },
    {
      "anonymous": false,
      "inputs": [
        {
          "indexed": true,
          "internalType": "address",
          "name": "to",
          "type": "address"
        },
        {
          "indexed": false,
          "internalType": "string",
          "name": "attribute",
          "type": "string"
        }
      ],
      "name": "AccessRevoked",
      "type": "event"
    },
    {
      "anonymous": false,
      "inputs": [
        {
          "indexed": false,
          "internalType": "string",
          "name": "name",
          "type": "string"
        },
        {
          "indexed": false,
          "internalType": "string",
          "name": "value",
          "type": "string"
        }
      ],
      "name": "AttributeAdded",
      "type": "event"
    },
    {
      "anonymous": false,
      "inputs": [
        {
          "indexed": false,
          "internalType": "string",
          "name": "name",
          "type": "string"
        }
      ],
      "name": "AttributeRemoved",
      "type": "event"
    },
    {
      "anonymous": false,
      "inputs": [
        {
          "indexed": false,
          "internalType": "string",
          "name": "name",
          "type": "string"
        },
        {
          "indexed": true,
          "internalType": "address",
          "name": "verifier",
          "type": "address"
        }
      ],
      "name": "AttributeVerified",
      "type": "event"
    },
    {
      "anonymous": false,
      "inputs": [
        {
          "indexed": false,
          "internalType": "string",
          "name": "identifier",
          "type": "string"
        },
        {
          "indexed": true,
          "internalType": "address",
          "name": "owner",
          "type": "address"
        }
      ],
      "name": "DIDCreated",
      "type": "event"
    },
    {
      "anonymous": false,
      "inputs": [
        {
          "indexed": false,
          "internalType": "string",
          "name": "identifier",
          "type": "string"
        }
      ],
      "name": "DIDDeactivated",
      "type": "event"
    },
    {
      "anonymous": false,
      "inputs": [
        {
          "indexed": false,
          "internalType": "string",
          "name": "identifier",
          "type": "string"
        },
        {
          "indexed": false,
          "internalType": "string",
          "name": "reason",
          "type": "string"
        }
      ],
      "name": "DIDRevoked",
      "type": "event"
    },
    {
      "anonymous": false,
      "inputs": [
        {
          "indexed": true,
          "internalType": "address",
          "name": "previousOwner",
          "type": "address"
        },
        {
          "indexed": true,
          "internalType": "address",
          "name": "newOwner",
          "type": "address"
        }
      ],
      "name": "OwnershipTransferred",
      "type": "event"
    },
    {
      "anonymous": false,
      "inputs": [
        {
          "indexed": false,
          "internalType": "address",
          "name": "account",
          "type": "address"
        }
      ],
      "name": "Paused",
      "type": "event"
    },
    {
      "anonymous": false,
      "inputs": [
        {
          "indexed": false,
          "internalType": "address",
          "name": "account",
          "type": "address"
        }
      ],
      "name": "Unpaused",
      "type": "event"
    },
    {
      "inputs": [],
      "name": "MAX_ATTRIBUTES",
      "outputs": [
        {
          "internalType": "uint256",
          "name": "",
          "type": "uint256"
        }
      ],
      "stateMutability": "view",
      "type": "function"
    },
    {
      "inputs": [],
      "name": "MAX_ATTRIBUTE_LENGTH",
      "outputs": [
        {
          "internalType": "uint256",
          "name": "",
          "type": "uint256"
        }
      ],
      "stateMutability": "view",
      "type": "function"
    },
    {
      "inputs": [],
      "name": "MAX_IDENTIFIER_LENGTH",
      "outputs": [
        {
          "internalType": "uint256",
          "name": "",
          "type": "uint256"
        }
      ],
      "stateMutability": "view",
      "type": "function"
    },
    {
      "inputs": [
        {
          "internalType": "uint256",
          "name": "",
          "type": "uint256"
        }
      ],
      "name": "aadharDetails",
      "outputs": [
        {
          "internalType": "string",
          "name": "name",
          "type": "string"
        },
        {
          "internalType": "string",
          "name": "dateOfBirth",
          "type": "string"
        },
        {
          "internalType": "string",
          "name": "gender",
          "type": "string"
        },
        {
          "internalType": "string",
          "name": "addr",
          "type": "string"
        },
        {
          "internalType": "string",
          "name": "photoHash",
          "type": "string"
        },
        {
          "internalType": "string",
          "name": "aadharNumber",
          "type": "string"
        }
      ],
      "stateMutability": "view",
      "type": "function"
    },
    {
      "inputs": [
        {
          "internalType": "string",
          "name": "name",
          "type": "string"
        },
        {
          "internalType": "string",
          "name": "value",
          "type": "string"
        }
      ],
      "name": "addAttribute",
      "outputs": [
        {
          "internalType": "bool",
          "name": "",
          "type": "bool"
        }
      ],
      "stateMutability": "nonpayable",
      "type": "function"
    },
    {
      "inputs": [
        {
          "internalType": "string",
          "name": "",
          "type": "string"
        }
      ],
      "name": "attributes",
      "outputs": [
        {
          "internalType": "string",
          "name": "value",
          "type": "string"
        },
        {
          "internalType": "uint256",
          "name": "timestamp",
          "type": "uint256"
        },
        {
          "internalType": "bool",
          "name": "isVerified",
          "type": "bool"
        },
        {
          "internalType": "address",
          "name": "verifiedBy",
          "type": "address"
        }
      ],
      "stateMutability": "view",
      "type": "function"
    },
    {
      "inputs": [
        {
          "internalType": "address",
          "name": "",
          "type": "address"
        },
        {
          "internalType": "string",
          "name": "",
          "type": "string"
        }
      ],
      "name": "authorizedAccess",
      "outputs": [
        {
          "internalType": "bool",
          "name": "",
          "type": "bool"
        }
      ],
      "stateMutability": "view",
      "type": "function"
    },
    {
      "inputs": [
        {
          "internalType": "string",
          "name": "identifier",
          "type": "string"
        },
        {
          "internalType": "string",
          "name": "name",
          "type": "string"
        },
        {
          "internalType": "string",
          "name": "dateOfBirth",
          "type": "string"
        },
        {
          "internalType": "string",
          "name": "gender",
          "type": "string"
        },
        {
          "internalType": "string",
          "name": "addr",
          "type": "string"
        },
        {
          "internalType": "string",
          "name": "photoHash",
          "type": "string"
        },
        {
          "internalType": "string",
          "name": "aadharNumber",
          "type": "string"
        }
      ],
      "name": "createAadharDID",
      "outputs": [],
      "stateMutability": "nonpayable",
      "type": "function"
    },
    {
      "inputs": [
        {
          "internalType": "string",
          "name": "identifier",
          "type": "string"
        }
      ],
      "name": "createDID",
      "outputs": [
        {
          "internalType": "bool",
          "name": "",
          "type": "bool"
        }
      ],
      "stateMutability": "nonpayable",
      "type": "function"
    },
    {
      "inputs": [],
      "name": "deactivateDID",
      "outputs": [
        {
          "internalType": "bool",
          "name": "",
          "type": "bool"
        }
      ],
      "stateMutability": "nonpayable",
      "type": "function"
    },
    {
      "inputs": [
        {
          "internalType": "address",
          "name": "owner",
          "type": "address"
        },
        {
          "internalType": "uint256",
          "name": "didIndex",
          "type": "uint256"
        },
        {
          "internalType": "string",
          "name": "attribute",
          "type": "string"
        }
      ],
      "name": "getAadharAttribute",
      "outputs": [
        {
          "internalType": "string",
          "name": "",
          "type": "string"
        }
      ],
      "stateMutability": "view",
      "type": "function"
    },
    {
      "inputs": [
        {
          "internalType": "address",
          "name": "owner",
          "type": "address"
        },
        {
          "internalType": "uint256",
          "name": "didIndex",
          "type": "uint256"
        }
      ],
      "name": "getAadharDetails",
      "outputs": [
        {
          "internalType": "string",
          "name": "identifier",
          "type": "string"
        },
        {
          "internalType": "string",
          "name": "name",
          "type": "string"
        },
        {
          "internalType": "string",
          "name": "dateOfBirth",
          "type": "string"
        },
        {
          "internalType": "string",
          "name": "gender",
          "type": "string"
        },
        {
          "internalType": "string",
          "name": "addr",
          "type": "string"
        },
        {
          "internalType": "string",
          "name": "photoHash",
          "type": "string"
        },
        {
          "internalType": "string",
          "name": "aadharNumber",
          "type": "string"
        },
        {
          "internalType": "bool",
          "name": "active",
          "type": "bool"
        },
        {
          "internalType": "uint256",
          "name": "createdAt",
          "type": "uint256"
        },
        {
          "internalType": "uint256",
          "name": "updatedAt",
          "type": "uint256"
        }
      ],
      "stateMutability": "view",
      "type": "function"
    },
    {
      "inputs": [
        {
          "internalType": "string",
          "name": "name",
          "type": "string"
        }
      ],
      "name": "getAttribute",
      "outputs": [
        {
          "internalType": "string",
          "name": "",
          "type": "string"
        }
      ],
      "stateMutability": "view",
      "type": "function"
    },
    {
      "inputs": [],
      "name": "getAttributeCount",
      "outputs": [
        {
          "internalType": "uint256",
          "name": "",
          "type": "uint256"
        }
      ],
      "stateMutability": "view",
      "type": "function"
    },
    {
      "inputs": [
        {
          "internalType": "string",
          "name": "name",
          "type": "string"
        }
      ],
      "name": "getAttributeDetails",
      "outputs": [
        {
          "internalType": "string",
          "name": "value",
          "type": "string"
        },
        {
          "internalType": "uint256",
          "name": "timestamp",
          "type": "uint256"
        },
        {
          "internalType": "bool",
          "name": "isVerified",
          "type": "bool"
        },
        {
          "internalType": "address",
          "name": "verifiedBy",
          "type": "address"
        }
      ],
      "stateMutability": "view",
      "type": "function"
    },
    {
      "inputs": [],
      "name": "getDIDDetails",
      "outputs": [
        {
          "internalType": "string",
          "name": "identifier",
          "type": "string"
        },
        {
          "internalType": "bool",
          "name": "active",
          "type": "bool"
        },
        {
          "internalType": "uint256",
          "name": "createdAt",
          "type": "uint256"
        },
        {
          "internalType": "uint256",
          "name": "updatedAt",
          "type": "uint256"
        },
        {
          "internalType": "bool",
          "name": "isRevoked",
          "type": "bool"
        },
        {
          "internalType": "string",
          "name": "revocationReason",
          "type": "string"
        }
      ],
      "stateMutability": "view",
      "type": "function"
    },
    {
      "inputs": [
        {
          "internalType": "uint256",
          "name": "didIndex",
          "type": "uint256"
        },
        {
          "internalType": "address",
          "name": "to",
          "type": "address"
        },
        {
          "internalType": "string",
          "name": "attribute",
          "type": "string"
        }
      ],
      "name": "grantAccess",
      "outputs": [
        {
          "internalType": "bool",
          "name": "",
          "type": "bool"
        }
      ],
      "stateMutability": "nonpayable",
      "type": "function"
    },
    {
      "inputs": [
        {
          "internalType": "address",
          "name": "owner",
          "type": "address"
        },
        {
          "internalType": "uint256",
          "name": "didIndex",
          "type": "uint256"
        },
        {
          "internalType": "address",
          "name": "accessor",
          "type": "address"
        },
        {
          "internalType": "string",
          "name": "attribute",
          "type": "string"
        }
      ],
      "name": "hasAccess",
      "outputs": [
        {
          "internalType": "bool",
          "name": "",
          "type": "bool"
        }
      ],
      "stateMutability": "view",
      "type": "function"
    },
    {
      "inputs": [],
      "name": "owner",
      "outputs": [
        {
          "internalType": "address",
          "name": "",
          "type": "address"
        }
      ],
      "stateMutability": "view",
      "type": "function"
    },
    {
      "inputs": [],
      "name": "pause",
      "outputs": [],
      "stateMutability": "nonpayable",
      "type": "function"
    },
    {
      "inputs": [],
      "name": "paused",
      "outputs": [
        {
          "internalType": "bool",
          "name": "",
          "type": "bool"
        }
      ],
      "stateMutability": "view",
      "type": "function"
    },
    {
      "inputs": [
        {
          "internalType": "string",
          "name": "name",
          "type": "string"
        }
      ],
      "name": "removeAttribute",
      "outputs": [
        {
          "internalType": "bool",
          "name": "",
          "type": "bool"
        }
      ],
      "stateMutability": "nonpayable",
      "type": "function"
    },
    {
      "inputs": [],
      "name": "renounceOwnership",
      "outputs": [],
      "stateMutability": "nonpayable",
      "type": "function"
    },
    {
      "inputs": [
        {
          "internalType": "address",
          "name": "from",
          "type": "address"
        },
        {
          "internalType": "string",
          "name": "attribute",
          "type": "string"
        }
      ],
      "name": "revokeAccess",
      "outputs": [
        {
          "internalType": "bool",
          "name": "",
          "type": "bool"
        }
      ],
      "stateMutability": "nonpayable",
      "type": "function"
    },
    {
      "inputs": [
        {
          "internalType": "string",
          "name": "reason",
          "type": "string"
        }
      ],
      "name": "revokeDID",
      "outputs": [
        {
          "internalType": "bool",
          "name": "",
          "type": "bool"
        }
      ],
      "stateMutability": "nonpayable",
      "type": "function"
    },
    {
      "inputs": [],
      "name": "selfDID",
      "outputs": [
        {
          "internalType": "string",
          "name": "identifier",
          "type": "string"
        },
        {
          "internalType": "bool",
          "name": "active",
          "type": "bool"
        },
        {
          "internalType": "uint256",
          "name": "createdAt",
          "type": "uint256"
        },
        {
          "internalType": "uint256",
          "name": "updatedAt",
          "type": "uint256"
        },
        {
          "internalType": "bool",
          "name": "isRevoked",
          "type": "bool"
        },
        {
          "internalType": "string",
          "name": "revocationReason",
          "type": "string"
        }
      ],
      "stateMutability": "view",
      "type": "function"
    },
    {
      "inputs": [
        {
          "internalType": "string",
          "name": "",
          "type": "string"
        }
      ],
      "name": "supportedIDTypes",
      "outputs": [
        {
          "internalType": "bool",
          "name": "",
          "type": "bool"
        }
      ],
      "stateMutability": "view",
      "type": "function"
    },
    {
      "inputs": [
        {
          "internalType": "address",
          "name": "newOwner",
          "type": "address"
        }
      ],
      "name": "transferOwnership",
      "outputs": [],
      "stateMutability": "nonpayable",
      "type": "function"
    },
    {
      "inputs": [],
      "name": "unpause",
      "outputs": [],
      "stateMutability": "nonpayable",
      "type": "function"
    },
    {
      "inputs": [
        {
          "internalType": "uint256",
          "name": "didIndex",
          "type": "uint256"
        },
        {
          "internalType": "string",
          "name": "name",
          "type": "string"
        },
        {
          "internalType": "string",
          "name": "dateOfBirth",
          "type": "string"
        },
        {
          "internalType": "string",
          "name": "gender",
          "type": "string"
        },
        {
          "internalType": "string",
          "name": "addr",
          "type": "string"
        },
        {
          "internalType": "string",
          "name": "photoHash",
          "type": "string"
        },
        {
          "internalType": "string",
          "name": "aadharNumber",
          "type": "string"
        }
      ],
      "name": "updateAadharDetails",
      "outputs": [],
      "stateMutability": "nonpayable",
      "type": "function"
    },
    {
      "inputs": [
        {
          "internalType": "address",
          "name": "",
          "type": "address"
        },
        {
          "internalType": "uint256",
          "name": "",
          "type": "uint256"
        }
      ],
      "name": "userDIDs",
      "outputs": [
        {
          "internalType": "string",
          "name": "identifier",
          "type": "string"
        },
        {
          "internalType": "bool",
          "name": "active",
          "type": "bool"
        },
        {
          "internalType": "uint256",
          "name": "createdAt",
          "type": "uint256"
        },
        {
          "internalType": "uint256",
          "name": "updatedAt",
          "type": "uint256"
        },
        {
          "internalType": "bool",
          "name": "isRevoked",
          "type": "bool"
        },
        {
          "internalType": "string",
          "name": "revocationReason",
          "type": "string"
        }
      ],
      "stateMutability": "view",
      "type": "function"
    },
    {
      "inputs": [
        {
          "internalType": "string",
          "name": "name",
          "type": "string"
        },
        {
          "internalType": "address",
          "name": "verifier",
          "type": "address"
        }
      ],
      "name": "verifyAttribute",
      "outputs": [
        {
          "internalType": "bool",
          "name": "",
          "type": "bool"
        }
      ],
      "stateMutability": "nonpayable",
      "type": "function"
    }
  ],
  "bytecode": "0x6080806040523461007c5760008054336001600160a01b0319821681178355916001600160a01b03909116907f8be0079c531659141344cd1fd0a4f28419497f9722a3daafe3b4186f6b6457e09080a360018055600160ff198060025416600255426005554260065560045416176004556138b990816100828239f35b600080fdfe6080604052600436101561001257600080fd5b60003560e01c80630b42f3fd14612dc35780630d87c827146122845780632ba5683414611e975780633457d3e214611b925780633771420814611a055780633aa1b5ca146119e95780633f4ba83a1461195557806341638a5d1461171257806345e8846f1461155c5780634b9802f81461153f5780635c975abb1461151c5780635e5a8d33146114bf5780636a44cac91461140a5780636aab3cef1461137d5780637052582314611270578063715018a614611217578063767bc20e1461113c5780638456cb59146110e25780638c15f62d146110a35780638da5cb5b1461107a578063967a455f1461101f5780639bc3a00014610f91578063a9595ffb14610f4a578063c93ead1b14610f2c578063cfe3b34714610cc7578063e3725def14610bdd578063e4a94adc14610b7a578063e8a51fca14610a71578063f2fde38b146109a8578063f3d310bf1461098c578063f9a33258146101e85763fb99d0071461017c57600080fd5b346101e35760803660031901126101e357610195612f22565b604435906001600160a01b03821682036101e357606435906001600160401b0382116101e3576020926101cf6101d9933690600401612e83565b9160243590613809565b6040519015158152f35b600080fd5b346101e35760e03660031901126101e3576024356001600160401b0381116101e357610218903690600401612e83565b6044356001600160401b0381116101e357610237903690600401612e83565b906064356001600160401b0381116101e357610257903690600401612e83565b6084356001600160401b0381116101e357610276903690600401612e83565b9060a4356001600160401b0381116101e357610296903690600401612e83565b60c4356001600160401b0381116101e3576102b5903690600401612e83565b6000549091906001600160a01b0316330361095357604051946102d786612e11565b8552602085019586526040850192835260608501938452608085015260a0840152600435600052600f60205260406000209383518051906001600160401b0382116105f15781906103288854612fe7565b601f8111610921575b50602090601f83116001146108bb576000926108b0575b50508160011b916000199060031b1c19161785555b5180516001600160401b0381116105f15780600187019261037e8454612fe7565b601f811161087e575b50602090601f83116001146108185760009261080d575b50508160011b916000199060031b1c19161790555b51805160028501916001600160401b0382116105f15781906103d58454612fe7565b601f81116107db575b50602090601f83116001146107755760009261076a575b50508160011b916000199060031b1c19161790555b519182516001600160401b0381116105f1576104296003830154612fe7565b601f8111610735575b506020601f82116001146106c757819293946000926106bc575b50508160011b916000199060031b1c19161760038201555b60808201518051906001600160401b0382116105f1576104876004840154612fe7565b601f8111610687575b50602090601f831160011461061257918060a09492600594600092610607575b50508160011b916000199060031b1c19161760048201555b019101519081516001600160401b0381116105f1576104e78254612fe7565b601f81116105b4575b50602092601f82116001146105505792819293600092610545575b50508160011b916000199060031b1c19161790555b33600052600e6020526105396004356040600020612fb5565b50600342910155600080f35b01519050838061050b565b601f198216938360005260206000209160005b86811061059c5750836001959610610583575b505050811b019055610520565b015160001960f88460031b161c19169055838080610576565b91926020600181928685015181550194019201610563565b6105e190836000526020600020601f840160051c810191602085106105e7575b601f0160051c019061329e565b836104f0565b90915081906105d4565b634e487b7160e01b600052604160045260246000fd5b0151905086806104b0565b906004840160005260206000209160005b601f198516811061066f57509260a0949260019260059583601f19811610610656575b505050811b0160048201556104c8565b015160001960f88460031b161c19169055868080610646565b91926020600181928685015181550194019201610623565b6106b690600485016000526020600020601f850160051c810191602086106105e757601f0160051c019061329e565b84610490565b01519050848061044c565b6003830160005260206000209060005b601f198416811061071d5750600193949583601f19811610610704575b505050811b016003820155610464565b015160001960f88460031b161c191690558480806106f4565b9091602060018192858a0151815501930191016106d7565b61076490600384016000526020600020601f840160051c810191602085106105e757601f0160051c019061329e565b84610432565b0151905086806103f5565b6000858152602081209350601f198516905b8181106107c357509084600195949392106107aa575b505050811b01905561040a565b015160001960f88460031b161c1916905586808061079d565b92936020600181928786015181550195019301610787565b61080790856000526020600020601f850160051c810191602086106105e757601f0160051c019061329e565b876103de565b01519050878061039e565b6000858152602081209350601f198516905b818110610866575090846001959493921061084d575b505050811b0190556103b3565b015160001960f88460031b161c19169055878080610840565b9293602060018192878601518155019501930161082a565b6108aa90856000526020600020601f850160051c810191602086106105e757601f0160051c019061329e565b88610387565b015190508780610348565b6000898152602081209350601f198516905b81811061090957509084600195949392106108f0575b505050811b01855561035d565b015160001960f88460031b161c191690558780806108e3565b929360206001819287860151815501950193016108cd565b61094d90896000526020600020601f850160051c810191602086106105e757601f0160051c019061329e565b88610331565b60405162461bcd60e51b81526020600482015260116024820152702737ba103a3432902224a21037bbb732b960791b6044820152606490fd5b346101e35760003660031901126101e357602060405160648152f35b346101e35760203660031901126101e3576109c1612f22565b6109c9613246565b6001600160a01b03908116908115610a1d57600054826bffffffffffffffffffffffff60a01b821617600055167f8be0079c531659141344cd1fd0a4f28419497f9722a3daafe3b4186f6b6457e0600080a3005b60405162461bcd60e51b815260206004820152602660248201527f4f776e61626c653a206e6577206f776e657220697320746865207a65726f206160448201526564647265737360d01b6064820152608490fd5b346101e3576020806003193601126101e357600435906001600160401b0382116101e357610b3d610b2082610aad610b36953690600401612e83565b610abc60ff60075416156135e5565b60405190610af1610aea825193858181860196610ada81838a612ed9565b8101600981520301902054612fe7565b15156136c2565b6000546001600160a01b031633148015610b55575b610b0f906133f1565b604051938492839251928391612ed9565b810160098152030190206040519384809261313a565b0383612e62565b610b51604051928284938452830190612f4e565b0390f35b5033600052600a8352610b0f60ff610b71604060002084612efc565b54169050610b06565b346101e35760003660031901126101e357604051610ba281610b9b81613021565b0382612e62565b60ff6004541690610b5160055460065460ff600754169060405192610bd184610bca816130b3565b0385612e62565b604051968796876131d0565b346101e3576020806003193601126101e3576004356001600160401b0381116101e357610c0e903690600401612e83565b610c1d60ff60075416156135e5565b610b516060610c6384604051610c43610aea8751928481818b0195610ada818389612ed9565b6000546001600160a01b039690871633148015610b5557610b0f906133f1565b8101600981520301902092604051610c7a81612e2c565b600260405195610c9587610c8e818461313a565b0388612e62565b8683526001810154809884015201549160ff831615159283604084015260081c16928391015260405194859485613211565b346101e3576020806003193601126101e3576001600160401b036004358181116101e357610cf9903690600401612e83565b610d01613246565b610d09613628565b610d1860ff60075416156135e5565b610d2061366c565b805115610ee75760019160ff19908382600754161760075582519081116105f157610d4c600854612fe7565b601f8111610e99575b5084601f8211600114610dee5791817ff47a4f2302a3334a22353c5748d420f032e5f784e851777209232d29d16933359492610dd594600091610de3575b50600019600383901b1c191690861b176008555b600454166004554260065560405191829160408352610dc860408401613021565b9083820388850152612f4e565b0390a1808055604051908152f35b905083015188610d93565b908491601f1982169060086000527ff3f7a9fe364faab93b216da50a3214154f22a0a2b415b23a84c8169e8b636ee39160005b89828210610e83575050918391610dd596947ff47a4f2302a3334a22353c5748d420f032e5f784e851777209232d29d169333598969410610e6a575b5050811b01600855610da7565b85015160001960f88460031b161c191690558880610e5d565b8389015185558996909401939283019201610e21565b610ee19060086000527ff3f7a9fe364faab93b216da50a3214154f22a0a2b415b23a84c8169e8b636ee3601f840160051c8101918885106105e757601f0160051c019061329e565b85610d55565b60405162461bcd60e51b815260048101849052601a60248201527f5265766f636174696f6e20726561736f6e2072657175697265640000000000006044820152606490fd5b346101e35760003660031901126101e3576020600d54604051908152f35b346101e35760603660031901126101e357610f63612f38565b6044356001600160401b0381116101e357602091610f886101d9923690600401612e83565b9060043561370e565b346101e35760203660031901126101e3576004356001600160401b0381116101e3576020610fc6610fd9923690600401612e83565b8160405193828580945193849201612ed9565b8101600981520301902060405190610ff582610b36818461313a565b610b516002600183015492015460405193849360ff60018060a01b038460081c1693169185613211565b346101e35760003660031901126101e35760ff6007541661104081156135e5565b60ff6004541690610b5160055460065492604051936110698561106281613021565b0386612e62565b60405192610bd184610bca816130b3565b346101e35760003660031901126101e3576000546040516001600160a01b039091168152602090f35b346101e357602060ff6110d66110b836612f73565b6001600160a01b039091166000908152600a85526040902090612efc565b54166040519015158152f35b346101e35760003660031901126101e3576110fb613246565b611103613628565b600160ff1960025416176002557f62e78cea01bee320cd4e420270b5ea74000d11b0c9f74754ebdbfc544b05a2586020604051338152a1005b346101e35760003660031901126101e357611155613246565b61115d613628565b61116c60ff60075416156135e5565b61117461366c565b60045460ff8116156111d25760ff1916600455426006557f4360f12f602ccecefb32480e5314d0d3f57d38db8f52c76d8fdf4c39596c1c2860405160208152806111c060208201613021565b0390a160018055602060405160018152f35b60405162461bcd60e51b815260206004820152601760248201527f44494420697320616c726561647920696e6163746976650000000000000000006044820152606490fd5b346101e35760003660031901126101e357611230613246565b600080546001600160a01b0319811682556001600160a01b03167f8be0079c531659141344cd1fd0a4f28419497f9722a3daafe3b4186f6b6457e08280a3005b346101e35760203660031901126101e357600435600052600f6020526113376040600020610b51600561136f604051936112ae85611062818461313a565b6113616040516112c581610b9b816001870161313a565b6113536040516112dc81610b9b816002890161313a565b611345604051936112f4856110628160038b0161313a565b611323604051976113138961130c816004850161313a565b038a612e62565b61130c604051809c81930161313a565b6040519b8c9b60c08d5260c08d0190612f4e565b908b820360208d0152612f4e565b9089820360408b0152612f4e565b908782036060890152612f4e565b908582036080870152612f4e565b9083820360a0850152612f4e565b346101e35760403660031901126101e357611396612f22565b6001600160a01b03166000908152600e602052604090208054602435908110156101e3576113c391612fb5565b506040516113d581610b9b818561313a565b610b51600560ff600185015416936002810154600382015490610bd160ff60048501541693610bca604051809781930161313a565b346101e3576114ad7f51cbcaaca6ae26944c6280c966a07b04ca5c6766d82ca497ded152579431468d61143c36612f73565b9290611446613246565b61144e613628565b61145d60ff60075416156135e5565b61146561366c565b6001600160a01b03169261147a8415156137cb565b83600052600a602052611491604060002082612efc565b60ff198154169055604051918291602083526020830190612f4e565b0390a260018055602060405160018152f35b346101e35760603660031901126101e3576114d8612f22565b6044356001600160401b0381116101e357610b51916114fe611508923690600401612e83565b906024359061344d565b604051918291602083526020830190612f4e565b346101e35760003660031901126101e357602060ff600254166040519015158152f35b346101e35760003660031901126101e35760206040516103e88152f35b346101e35760403660031901126101e3576004356001600160401b0381116101e35761158c903690600401612e83565b611594612f38565b61159c613246565b6115a4613628565b6115b360ff60075416156135e5565b6115bb61366c565b6040519180516115db610aea602095868181870195610ada818389612ed9565b6001600160a01b0383169283156116cd579161169a60016116bd9361168a7f1c564f9c63901c7b3617b5a5a8d210f8871f28d4afa53586ed6f670abe7e220a9660026040518b81895161162f81838a612ed9565b81016009815203019020018460ff1982541617905560026040518b81895161165881838a612ed9565b600990820190815203019020018054610100600160a81b03191660089290921b610100600160a81b0316919091179055565b6040519283918551928391612ed9565b820191600983528781429403019020015560405191829186835286830190612f4e565b0390a26001805560405160018152f35b60405162461bcd60e51b815260048101869052601860248201527f496e76616c6964207665726966696572206164647265737300000000000000006044820152606490fd5b346101e35760403660031901126101e35761172b612f22565b6001600160a01b0381166000818152600e602052604090205460243592611768916117579085106133b0565b61175f6132b5565b90843391613809565b1561190057600052600e6020528060406000209061178591612fb5565b5090600052600f602052604060002090600181015460ff1660028201546003830154906040516117b681809661313a565b036117c19085612e62565b60405194856117d0818361313a565b036117db9087612e62565b604051806117ec816001850161313a565b036117f79082612e62565b60405180611808816002860161313a565b036118139082612e62565b6040519081611825816003870161313a565b036118309083612e62565b6040519283611842816004880161313a565b0361184d9085612e62565b604051806005819701906118609161313a565b0361186b9086612e62565b604051998a99610140808c528b0161188291612f4e565b8a810360208c015261189391612f4e565b89810360408b01526118a491612f4e565b88810360608a01526118b591612f4e565b87810360808901526118c691612f4e565b86810360a08801526118d791612f4e565b85810360c08701526118e891612f4e565b92151560e08501526101008401526101208301520390f35b60405162461bcd60e51b815260206004820152602760248201527f4e6f7420617574686f72697a656420746f20616363657373204161646861722060448201526664657461696c7360c81b6064820152608490fd5b346101e35760003660031901126101e35761196e613246565b60025460ff8116156119ad5760ff19166002557f5db9ee0a495bf2e6ff9c91a7834c1ba4fdd244a5e8aa4e537bd38aeae4b073aa6020604051338152a1005b60405162461bcd60e51b815260206004820152601460248201527314185d5cd8589b194e881b9bdd081c185d5cd95960621b6044820152606490fd5b346101e35760003660031901126101e357602060405160328152f35b346101e3576020806003193601126101e3576004356001600160401b0381116101e357611a36903690600401612e83565b611a3e613246565b611a46613628565b611a5560ff60075416156135e5565b611a5d61366c565b60006002611a9384604051611a82610aea8751928481818b0195610ada818389612ed9565b604051809381928851928391612ed9565b81016009815203019020611aa78154612fe7565b80611b56575b508260018201550155600d548015611b115760001901600d55426006556040518281527f8088db29d4761a957c0a396fa3c5f3f369fbfca4f1a83dae8b4f76a31726246a918190611b019085830190612f4e565b0390a16001805560405160018152f35b60405162461bcd60e51b815260048101849052601b60248201527f436f756e7465723a2064656372656d656e74206f766572666c6f7700000000006044820152606490fd5b601f8111600114611b6c57508281555b85611aad565b8390828252611b89601f888420920160051c82016001830161329e565b81835555611b66565b346101e3576020806003193601126101e3576001600160401b036004358181116101e357611bc4903690600401612e83565b90611bcd613628565b611bdc60ff60075416156135e5565b611be461366c565b815115611e52576064825111611e17576040519060ff835192858181870195611c0e818389612ed9565b8101600c8152030190205416611dd6576003908154611c2c81612fe7565b611d9c5784519182116105f157611c4290612fe7565b601f8111611d61575b508085601f8211600114611cf357600091611ce8575b508160011b9160001990841b1c19161790555b42600555426006556001611ca18460ff199383856004541617600455604051809381928851928391612ed9565b8101600c815203019020918254161790557f44ca9609d2fe597457041d7e98533a969452ef425c10a46d0dd9f074497ea1ba604051838152806116bd339486830190612f4e565b905084015186611c61565b60008481526000805160206138648339815191529250601f198416905b88828210611d4b5750509083600194939210611d33575b5050811b019055611c74565b86015160001983861b60f8161c191690558680611d27565b600184958293958b015181550194019201611d10565b611d969083600052600080516020613864833981519152601f840160051c8101918885106105e757601f0160051c019061329e565b85611c4b565b60405162461bcd60e51b815260048101879052601260248201527144494420616c72656164792065786973747360701b6044820152606490fd5b60405162461bcd60e51b81526004810185905260196024820152784964656e74696669657220616c726561647920696e2075736560381b6044820152606490fd5b60405162461bcd60e51b81526004810184905260136024820152724964656e74696669657220746f6f206c6f6e6760681b6044820152606490fd5b60405162461bcd60e51b815260048101849052601a60248201527f4964656e7469666965722063616e6e6f7420626520656d7074790000000000006044820152606490fd5b346101e35760403660031901126101e3576001600160401b036004358181116101e357611ec8903690600401612e83565b9060249182358281116101e357611ee3903690600401612e83565b90611eec613246565b611ef4613628565b611f0360ff60075416156135e5565b611f0b61366c565b805115612240576103e8808251116121fc578251156121b857825111612174576032600d5410156121305760405193611f4385612e2c565b82855260209485810142815260408201956000875260608301936000855260405189818851611f758183858d01612ed9565b81016009815203019020935190815192831161211c5750611f968454612fe7565b601f81116120ec575b508890601f831160011461205b5792826002937fb5992aa9568eacc71d59e4909dd6598b92a9412825efe4598975018ea0918d759a96936120349896600092612050575b50508160011b916000199060031b1c19161782555b51600182015592519201805491516001600160a81b031990921660ff931515939093169290921760089190911b610100600160a81b0316179055565b6001600d5401600d5542600655611b016040519283928361338b565b015190508c80611fe3565b90601f19831691856000528a6000209260005b8c8282106120d6575050937fb5992aa9568eacc71d59e4909dd6598b92a9412825efe4598975018ea0918d759a969361203498969360019383600298106120bd575b505050811b018255611ff8565b015160001960f88460031b161c191690558c80806120b0565b600185968293968601518155019501930161206e565b61211690856000528a600020601f850160051c8101918c86106105e757601f0160051c019061329e565b89611f9f565b634e487b7160e01b60009081526041600452fd5b60405162461bcd60e51b815260206004820152601a818601527f4d6178696d756d206174747269627574657320726561636865640000000000006044820152606490fd5b60405162461bcd60e51b8152602060048201526018818601527f4174747269627574652076616c756520746f6f206c6f6e6700000000000000006044820152606490fd5b60405162461bcd60e51b815260206004820152601f818701527f4174747269627574652076616c75652063616e6e6f7420626520656d707479006044820152606490fd5b60405162461bcd60e51b8152602060048201526017818701527f417474726962757465206e616d6520746f6f206c6f6e670000000000000000006044820152606490fd5b60405162461bcd60e51b815260206004820152601e818601527f417474726962757465206e616d652063616e6e6f7420626520656d70747900006044820152606490fd5b346101e35760e03660031901126101e3576004356001600160401b0381116101e3576122b4903690600401612e83565b6024356001600160401b0381116101e3576122d3903690600401612e83565b6044356001600160401b0381116101e3576122f2903690600401612e83565b60649182356001600160401b0381116101e357612313903690600401612e83565b6084356001600160401b0381116101e357612332903690600401612e83565b60a4356001600160401b0381116101e357612351903690600401612e83565b9160c4356001600160401b0381116101e357612371903690600401612e83565b9561237a613628565b61238960ff60075416156135e5565b61239161366c565b875115612d815780885111612d495760ff604051602081816123b98d83815193849201612ed9565b8101600c8152030190205416612d0b57600354906123d682612fe7565b612cd457508751906001600160401b0382116105f1576123f590612fe7565b601f8111612c97575b50806020601f8211600114612c2357600091612c18575b508160011b916000199060031b1c1916176003555b426005554260065560ff1960018160045416176004556001604051602081816124598d83815193849201612ed9565b8101600c81520301902091825416179055604051602081527f44ca9609d2fe597457041d7e98533a969452ef425c10a46d0dd9f074497ea1ba3391806124a2602082018c612f4e565b0390a26001805533600052600e6020526040600020549485600019810111612c0257604051946124d186612e11565b855260208501526040840152606083015260808201528260a08201526000198201600052600f602052604060002081518051906001600160401b0382116105f157819061251e8454612fe7565b601f8111612bd0575b50602090601f8311600114612b6457600092612b59575b50508160011b916000199060031b1c19161781555b60208201518051906001600160401b0382116105f15781906125786001850154612fe7565b601f8111612b24575b50602090601f8311600114612ab257600092612aa7575b50508160011b916000199060031b1c19161760018201555b60408201518051906001600160401b0382116105f15781906125d56002850154612fe7565b601f8111612a72575b50602090601f8311600114612a00576000926129f5575b50508160011b916000199060031b1c19161760028201555b60608201518051906001600160401b0382116105f15781906126326003850154612fe7565b601f81116129c0575b50602090601f831160011461294e57600092612943575b50508160011b916000199060031b1c19161760038201555b60808201518051906001600160401b0382116105f15761268d6004840154612fe7565b601f811161290e575b50602090601f831160011461289957918060a0949260059460009261288e575b50508160011b916000199060031b1c19161760048201555b019101518051906001600160401b0382116105f1576126ed8354612fe7565b601f811161285c575b50602090601f83116001146127ca5792826127ab936127ba96937fd7bfea0f84831ed6c4da58ac5fbee70468418290e9bc08e9bab5bc2dac72dc4e98966000926127bf575b50508160011b916000199060031b1c19161790555b61276661275b6132b5565b33600019840161370e565b5061277261275b6132d5565b5061277e61275b6132fc565b5061278a61275b61331e565b5061279661275b61333e565b5061279f613363565b9033906000190161370e565b5060405191829133958361338b565b0390a2005b01519050898061273b565b90601f198316918460005260206000209260005b8181106128445750936127ba96937fd7bfea0f84831ed6c4da58ac5fbee70468418290e9bc08e9bab5bc2dac72dc4e989693600193836127ab981061282b575b505050811b019055612750565b015160001960f88460031b161c1916905589808061281e565b929360206001819287860151815501950193016127de565b61288890846000526020600020601f850160051c810191602086106105e757601f0160051c019061329e565b866126f6565b0151905089806126b6565b906004840160005260206000209160005b601f19851681106128f657509260a0949260019260059583601f198116106128dd575b505050811b0160048201556126ce565b015160001960f88460031b161c191690558980806128cd565b919260206001819286850151815501940192016128aa565b61293d90600485016000526020600020601f850160051c810191602086106105e757601f0160051c019061329e565b87612696565b015190508780612652565b9250600384016000526020600020906000935b601f19841685106129a5576001945083601f1981161061298c575b505050811b01600382015561266a565b015160001960f88460031b161c1916905587808061297c565b81810151835560209485019460019093019290910190612961565b6129ef90600386016000526020600020601f850160051c810191602086106105e757601f0160051c019061329e565b8861263b565b0151905087806125f5565b9250600284016000526020600020906000935b601f1984168510612a57576001945083601f19811610612a3e575b505050811b01600282015561260d565b015160001960f88460031b161c19169055878080612a2e565b81810151835560209485019460019093019290910190612a13565b612aa190600286016000526020600020601f850160051c810191602086106105e757601f0160051c019061329e565b886125de565b015190508780612598565b9250600184016000526020600020906000935b601f1984168510612b09576001945083601f19811610612af0575b505050811b0160018201556125b0565b015160001960f88460031b161c19169055878080612ae0565b81810151835560209485019460019093019290910190612ac5565b612b5390600186016000526020600020601f850160051c810191602086106105e757601f0160051c019061329e565b88612581565b01519050878061253e565b9250836000526020600020906000935b601f1984168510612bb5576001945083601f19811610612b9c575b505050811b018155612553565b015160001960f88460031b161c19169055878080612b8f565b81810151835560209485019460019093019290910190612b74565b612bfc90856000526020600020601f850160051c810191602086106105e757601f0160051c019061329e565b88612527565b634e487b7160e01b600052601160045260246000fd5b905088015189612415565b915060036000526000805160206138648339815191526000925b8a601f1984168510612c8057506001935082601f19811610612c67575b5050811b0160035561242a565b8a015160001960f88460031b161c191690558980612c5a565b810151825560209384019360019092019101612c3d565b612cce906003600052600080516020613864833981519152601f840160051c810191602085106105e757601f0160051c019061329e565b886123fe565b60405162461bcd60e51b815260206004820152601260248201527144494420616c72656164792065786973747360701b6044820152fd5b60405162461bcd60e51b81526020600482015260196024820152784964656e74696669657220616c726561647920696e2075736560381b6044820152fd5b60405162461bcd60e51b81526020600482015260136024820152724964656e74696669657220746f6f206c6f6e6760681b6044820152fd5b60405162461bcd60e51b815260206004820152601a60248201527f4964656e7469666965722063616e6e6f7420626520656d7074790000000000006044820152fd5b346101e35760203660031901126101e3576004356001600160401b0381116101e35760ff612dfb6020610fc681943690600401612e83565b8101600b81520301902054166040519015158152f35b60c081019081106001600160401b038211176105f157604052565b608081019081106001600160401b038211176105f157604052565b604081019081106001600160401b038211176105f157604052565b90601f801991011681019081106001600160401b038211176105f157604052565b81601f820112156101e3578035906001600160401b0382116105f15760405192612eb7601f8401601f191660200185612e62565b828452602083830101116101e357816000926020809301838601378301015290565b60005b838110612eec5750506000910152565b8181015183820152602001612edc565b602090612f16928260405194838680955193849201612ed9565b82019081520301902090565b600435906001600160a01b03821682036101e357565b602435906001600160a01b03821682036101e357565b90602091612f6781518092818552858086019101612ed9565b601f01601f1916010190565b9060406003198301126101e3576004356001600160a01b03811681036101e35791602435906001600160401b0382116101e357612fb291600401612e83565b90565b8054821015612fd1576000526006602060002091020190600090565b634e487b7160e01b600052603260045260246000fd5b90600182811c92168015613017575b602083101461300157565b634e487b7160e01b600052602260045260246000fd5b91607f1691612ff6565b6003546000929161303182612fe7565b80825291600190818116908115613096575060011461304f57505050565b919293506003600052600080516020613864833981519152916000925b84841061307e57505060209250010190565b8054602085850181019190915290930192810161306c565b915050602093945060ff929192191683830152151560051b010190565b600854600092916130c382612fe7565b8082529160019081811690811561309657506001146130e157505050565b9192935060086000527ff3f7a9fe364faab93b216da50a3214154f22a0a2b415b23a84c8169e8b636ee3916000925b84841061312257505060209250010190565b80546020858501810191909152909301928101613110565b906000929180549161314b83612fe7565b9182825260019384811690816000146131ad575060011461316d575b50505050565b90919394506000526020928360002092846000945b838610613199575050505001019038808080613167565b805485870183015294019385908201613182565b9294505050602093945060ff191683830152151560051b01019038808080613167565b926131eb612fb297959296939660c0865260c0860190612f4e565b9515156020850152604084015260608301521515608082015260a0818403910152612f4e565b92613229606093969592608086526080860190612f4e565b6020850196909652151560408401526001600160a01b0316910152565b6000546001600160a01b0316330361325a57565b606460405162461bcd60e51b815260206004820152602060248201527f4f776e61626c653a2063616c6c6572206973206e6f7420746865206f776e65726044820152fd5b8181106132a9575050565b6000815560010161329e565b604051906132c282612e47565b60048252636e616d6560e01b6020830152565b604051906132e282612e47565b600b82526a0c8c2e8ca9ecc84d2e4e8d60ab1b6020830152565b6040519061330982612e47565b600682526533b2b73232b960d11b6020830152565b6040519061332b82612e47565b600482526330b2323960e11b6020830152565b6040519061334b82612e47565b60098252680e0d0dee8de90c2e6d60bb1b6020830152565b6040519061337082612e47565b600c82526b30b0b23430b9273ab6b132b960a11b6020830152565b90916133a2612fb293604084526040840190612f4e565b916020818403910152612f4e565b156133b757565b60405162461bcd60e51b815260206004820152601260248201527111125108191bd95cc81b9bdd08195e1a5cdd60721b6044820152606490fd5b156133f857565b60405162461bcd60e51b815260206004820152602760248201527f4e6f7420617574686f72697a656420746f2061636365737320746869732061746044820152667472696275746560c81b6064820152608490fd5b909160018060a01b038216600052602092600e84526134886134838360409561347b876000205486106133b0565b843391613809565b6133f1565b600052600f835281600020908051908481019182206134a56132b5565b868151910120146135d057805182206134bc6132d5565b868151910120146135b857805182206134d36132fc565b868151910120146135a057805182206134ea61331e565b86815191012014613588578051822061350161333e565b8681519101201461357057519020613517613363565b8481519101201461355a57815162461bcd60e51b8152600481018490526011602482015270496e76616c69642061747472696275746560781b6044820152606490fd5b60059250610b9b612fb29251809481930161313a565b505060049250610b9b612fb29251809481930161313a565b505060039250610b9b612fb29251809481930161313a565b505060029250610b9b612fb29251809481930161313a565b505060019250610b9b612fb29251809481930161313a565b5050610b9b9250612fb291519283809261313a565b156135ec57565b60405162461bcd60e51b8152602060048201526014602482015273111251081a185cc81899595b881c995d9bdad95960621b6044820152606490fd5b60ff6002541661363457565b60405162461bcd60e51b815260206004820152601060248201526f14185d5cd8589b194e881c185d5cd95960821b6044820152606490fd5b60026001541461367d576002600155565b60405162461bcd60e51b815260206004820152601f60248201527f5265656e7472616e637947756172643a207265656e7472616e742063616c6c006044820152606490fd5b156136c957565b60405162461bcd60e51b815260206004820152601860248201527f41747472696275746520646f6573206e6f7420657869737400000000000000006044820152606490fd5b916137bf906137897f883d542f167dfc5f47e8bf1532c171025ed0e4c59c1126c7f61749fa21976a4593613740613246565b613748613628565b61375760ff60075416156135e5565b61375f61366c565b6001600160a01b0316946137748615156137cb565b33600052600e602052604060002054116133b0565b83600052600a6020526137a0604060002082612efc565b600160ff19825416179055604051918291602083526020830190612f4e565b0390a260018055600190565b156137d257565b60405162461bcd60e51b815260206004820152600f60248201526e496e76616c6964206164647265737360881b6044820152606490fd5b6001600160a01b039081166000818152600e6020526040902054909493919261383291116133b0565b1680921491821561384257505090565b60ff92509061385e91600052600a602052604060002090612efc565b54169056fec2575a0e9e593c00f959f8c92f12db2869c3395a3b0502d05e2516446f71f85ba2646970667358221220ee7ee6954fa063557d3a9e1f90ba8e6ce139034ddcaa6459dd126bc9a88ec19b64736f6c63430008140033",
  "linkReferences": {},
  "deployedLinkReferences": {}
}