{"contracts/BaseDID.sol":{"BaseDID":{"abi":[{"inputs":[],"stateMutability":"nonpayable","type":"constructor"},{"anonymous":false,"inputs":[{"indexed":true,"internalType":"address","name":"to","type":"address"},{"indexed":false,"internalType":"string","name":"attribute","type":"string"}],"name":"AccessGranted","type":"event"},{"anonymous":false,"inputs":[{"indexed":true,"internalType":"address","name":"to","type":"address"},{"indexed":false,"internalType":"string","name":"attribute","type":"string"}],"name":"AccessRevoked","type":"event"},{"anonymous":false,"inputs":[{"indexed":false,"internalType":"string","name":"name","type":"string"},{"indexed":false,"internalType":"string","name":"value","type":"string"}],"name":"AttributeAdded","type":"event"},{"anonymous":false,"inputs":[{"indexed":false,"internalType":"string","name":"name","type":"string"}],"name":"AttributeRemoved","type":"event"},{"anonymous":false,"inputs":[{"indexed":false,"internalType":"string","name":"name","type":"string"},{"indexed":true,"internalType":"address","name":"verifier","type":"address"}],"name":"AttributeVerified","type":"event"},{"anonymous":false,"inputs":[{"indexed":false,"internalType":"string","name":"identifier","type":"string"},{"indexed":true,"internalType":"address","name":"owner","type":"address"}],"name":"DIDCreated","type":"event"},{"anonymous":false,"inputs":[{"indexed":false,"internalType":"string","name":"identifier","type":"string"}],"name":"DIDDeactivated","type":"event"},{"anonymous":false,"inputs":[{"indexed":false,"internalType":"string","name":"identifier","type":"string"},{"indexed":false,"internalType":"string","name":"reason","type":"string"}],"name":"DIDRevoked","type":"event"},{"anonymous":false,"inputs":[{"indexed":true,"internalType":"address","name":"previousOwner","type":"address"},{"indexed":true,"internalType":"address","name":"newOwner","type":"address"}],"name":"OwnershipTransferred","type":"event"},{"anonymous":false,"inputs":[{"indexed":false,"internalType":"address","name":"account","type":"address"}],"name":"Paused","type":"event"},{"anonymous":false,"inputs":[{"indexed":false,"internalType":"address","name":"account","type":"address"}],"name":"Unpaused","type":"event"},{"inputs":[],"name":"MAX_ATTRIBUTES","outputs":[{"internalType":"uint256","name":"","type":"uint256"}],"stateMutability":"view","type":"function"},{"inputs":[],"name":"MAX_ATTRIBUTE_LENGTH","outputs":[{"internalType":"uint256","name":"","type":"uint256"}],"stateMutability":"view","type":"function"},{"inputs":[],"name":"MAX_IDENTIFIER_LENGTH","outputs":[{"internalType":"uint256","name":"","type":"uint256"}],"stateMutability":"view","type":"function"},{"inputs":[{"internalType":"string","name":"name","type":"string"},{"internalType":"string","name":"value","type":"string"}],"name":"addAttribute","outputs":[{"internalType":"bool","name":"","type":"bool"}],"stateMutability":"nonpayable","type":"function"},{"inputs":[{"internalType":"string","name":"","type":"string"}],"name":"attributes","outputs":[{"internalType":"string","name":"value","type":"string"},{"internalType":"uint256","name":"timestamp","type":"uint256"},{"internalType":"bool","name":"isVerified","type":"bool"},{"internalType":"address","name":"verifiedBy","type":"address"}],"stateMutability":"view","type":"function"},{"inputs":[{"internalType":"address","name":"","type":"address"},{"internalType":"string","name":"","type":"string"}],"name":"authorizedAccess","outputs":[{"internalType":"bool","name":"","type":"bool"}],"stateMutability":"view","type":"function"},{"inputs":[{"internalType":"string","name":"identifier","type":"string"}],"name":"createDID","outputs":[{"internalType":"bool","name":"","type":"bool"}],"stateMutability":"nonpayable","type":"function"},{"inputs":[],"name":"deactivateDID","outputs":[{"internalType":"bool","name":"","type":"bool"}],"stateMutability":"nonpayable","type":"function"},{"inputs":[{"internalType":"string","name":"name","type":"string"}],"name":"getAttribute","outputs":[{"internalType":"string","name":"","type":"string"}],"stateMutability":"view","type":"function"},{"inputs":[],"name":"getAttributeCount","outputs":[{"internalType":"uint256","name":"","type":"uint256"}],"stateMutability":"view","type":"function"},{"inputs":[{"internalType":"string","name":"name","type":"string"}],"name":"getAttributeDetails","outputs":[{"internalType":"string","name":"value","type":"string"},{"internalType":"uint256","name":"timestamp","type":"uint256"},{"internalType":"bool","name":"isVerified","type":"bool"},{"internalType":"address","name":"verifiedBy","type":"address"}],"stateMutability":"view","type":"function"},{"inputs":[],"name":"getDIDDetails","outputs":[{"internalType":"string","name":"identifier","type":"string"},{"internalType":"bool","name":"active","type":"bool"},{"internalType":"uint256","name":"createdAt","type":"uint256"},{"internalType":"uint256","name":"updatedAt","type":"uint256"},{"internalType":"bool","name":"isRevoked","type":"bool"},{"internalType":"string","name":"revocationReason","type":"string"}],"stateMutability":"view","type":"function"},{"inputs":[{"internalType":"uint256","name":"didIndex","type":"uint256"},{"internalType":"address","name":"to","type":"address"},{"internalType":"string","name":"attribute","type":"string"}],"name":"grantAccess","outputs":[{"internalType":"bool","name":"","type":"bool"}],"stateMutability":"nonpayable","type":"function"},{"inputs":[{"internalType":"address","name":"owner","type":"address"},{"internalType":"uint256","name":"didIndex","type":"uint256"},{"internalType":"address","name":"accessor","type":"address"},{"internalType":"string","name":"attribute","type":"string"}],"name":"hasAccess","outputs":[{"internalType":"bool","name":"","type":"bool"}],"stateMutability":"view","type":"function"},{"inputs":[],"name":"owner","outputs":[{"internalType":"address","name":"","type":"address"}],"stateMutability":"view","type":"function"},{"inputs":[],"name":"pause","outputs":[],"stateMutability":"nonpayable","type":"function"},{"inputs":[],"name":"paused","outputs":[{"internalType":"bool","name":"","type":"bool"}],"stateMutability":"view","type":"function"},{"inputs":[{"internalType":"string","name":"name","type":"string"}],"name":"removeAttribute","outputs":[{"internalType":"bool","name":"","type":"bool"}],"stateMutability":"nonpayable","type":"function"},{"inputs":[],"name":"renounceOwnership","outputs":[],"stateMutability":"nonpayable","type":"function"},{"inputs":[{"internalType":"address","name":"from","type":"address"},{"internalType":"string","name":"attribute","type":"string"}],"name":"revokeAccess","outputs":[{"internalType":"bool","name":"","type":"bool"}],"stateMutability":"nonpayable","type":"function"},{"inputs":[{"internalType":"string","name":"reason","type":"string"}],"name":"revokeDID","outputs":[{"internalType":"bool","name":"","type":"bool"}],"stateMutability":"nonpayable","type":"function"},{"inputs":[],"name":"selfDID","outputs":[{"internalType":"string","name":"identifier","type":"string"},{"internalType":"bool","name":"active","type":"bool"},{"internalType":"uint256","name":"createdAt","type":"uint256"},{"internalType":"uint256","name":"updatedAt","type":"uint256"},{"internalType":"bool","name":"isRevoked","type":"bool"},{"internalType":"string","name":"revocationReason","type":"string"}],"stateMutability":"view","type":"function"},{"inputs":[{"internalType":"string","name":"","type":"string"}],"name":"supportedIDTypes","outputs":[{"internalType":"bool","name":"","type":"bool"}],"stateMutability":"view","type":"function"},{"inputs":[{"internalType":"address","name":"newOwner","type":"address"}],"name":"transferOwnership","outputs":[],"stateMutability":"nonpayable","type":"function"},{"inputs":[],"name":"unpause","outputs":[],"stateMutability":"nonpayable","type":"function"},{"inputs":[{"internalType":"address","name":"","type":"address"},{"internalType":"uint256","name":"","type":"uint256"}],"name":"userDIDs","outputs":[{"internalType":"string","name":"identifier","type":"string"},{"internalType":"bool","name":"active","type":"bool"},{"internalType":"uint256","name":"createdAt","type":"uint256"},{"internalType":"uint256","name":"updatedAt","type":"uint256"},{"internalType":"bool","name":"isRevoked","type":"bool"},{"internalType":"string","name":"revocationReason","type":"string"}],"stateMutability":"view","type":"function"},{"inputs":[{"internalType":"string","name":"name","type":"string"},{"internalType":"address","name":"verifier","type":"address"}],"name":"verifyAttribute","outputs":[{"internalType":"bool","name":"","type":"bool"}],"stateMutability":"nonpayable","type":"function"}],"evm":{"bytecode":{"linkReferences":{},"object":"6080806040523461007c5760008054336001600160a01b0319821681178355916001600160a01b03909116907f8be0079c531659141344cd1fd0a4f28419497f9722a3daafe3b4186f6b6457e09080a360018055600160ff19806002541660025542600555426006556004541617600455611f2590816100828239f35b600080fdfe60406080815260048036101561001457600080fd5b600091823560e01c80630b42f3fd146118215780632ba56834146114255780633457d3e2146110e85780633771420814610f705780633aa1b5ca14610f545780633f4ba83a14610ebe57806345e8846f14610d1a5780634b9802f814610cfd5780635c975abb14610cd95780636a44cac914610c475780636aab3cef14610bba578063715018a614610b60578063767bc20e14610a895780638456cb5914610a2e5780638c15f62d146109f15780638da5cb5b146109c9578063967a455f146109705780639bc3a000146108e0578063a9595ffb146107f0578063c93ead1b146107d1578063cfe3b34714610558578063e3725def1461043f578063e4a94adc146103e3578063e8a51fca146102db578063f2fde38b14610218578063f3d310bf146101f85763fb99d0071461014957600080fd5b346101f45760803660031901126101f45761016261198e565b6001600160a01b0360443581811694908590036101f0576064356001600160401b0381116101ec579161019c8692602098943691016118d4565b9316808352600e87526101b58584205460243510611eae565b149384156101c9575b505050519015158152f35b8152600a855282902091925060ff916101e191611952565b5416903880806101be565b8680fd5b8580fd5b8280fd5b8382346102145781600319360112610214576020905160648152f35b5080fd5b5090346101f45760203660031901126101f45761023361198e565b9061023c611c7c565b6001600160a01b0391821692831561028957505082546001600160a01b0319811683178455167f8be0079c531659141344cd1fd0a4f28419497f9722a3daafe3b4186f6b6457e08380a380f35b906020608492519162461bcd60e51b8352820152602660248201527f4f776e61626c653a206e6577206f776e657220697320746865207a65726f206160448201526564647265737360d01b6064820152fd5b50346101f457602091826003193601126103df5780356001600160401b0381116103db5761038d846103a29661031b6103b896956103a9953691016118d4565b61032a60ff6007541615611cd4565b61037d86519261036161035a84519587818188019861034a81838c61192f565b81016009815203019020546119e6565b1515611dc8565b8760018060a01b0382541633149182156103bc575b5050611e14565b855193849283925192839161192f565b81016009815203019020825195868092611b4b565b03856118b3565b51928284938452830190611be1565b0390f35b338152600a87522060ff91506103d29084611952565b54168738610376565b8480fd5b8380fd5b50913461043c578060031936011261043c57506103b860ff83519261040b846103a281611a20565b54169260055460065460ff60075416918351936104328561042b81611ac4565b03866118b3565b5196879687611c06565b80fd5b50823461043c57602092836003193601126102145780356001600160401b0381116101f457916104da8561047b6060946103b8963691016118d4565b61048a60ff6007541615611cd4565b8651906104a761035a82519385818186019661034a81838a61192f565b84546001600160a01b03956104ca9187163314908a908215610539575050611e14565b875193849283925192839161192f565b810160098152030190209380516104f081611882565b600282519661050a886105038184611b4b565b03896118b3565b8783526001810154809984015201549260ff8416151593848484015260081c1693849101525194859485611c47565b338152600a87522060ff915061054f9084611952565b5416898c610376565b50346101f4576020928360031936011261043c576001600160401b039280358481116101f45761058b90369083016118d4565b91610594611c7c565b61059c611d2e565b6105ab60ff6007541615611cd4565b6105b3611d72565b82511561078e5760019460ff199186836007541617600755845191821161077b576105df6008546119e6565b601f8111610723575b508790601f831160011461067b5791807ff47a4f2302a3334a22353c5748d420f032e5f784e851777209232d29d1693335969492610664969491610670575b50600019600383901b1c191690881b176008555b8154169055426006558351918291858352610657868401611a20565b9083820389850152611be1565b0390a181805551908152f35b905084015138610627565b879291601f198316600883527ff3f7a9fe364faab93b216da50a3214154f22a0a2b415b23a84c8169e8b636ee3925b8b82821061070d5750509183917ff47a4f2302a3334a22353c5748d420f032e5f784e851777209232d29d1693335989694610664989694106106f4575b5050811b0160085561063b565b86015160001960f88460031b161c1916905538806106e7565b838a015185558b969094019392830192016106aa565b61076b90600883527ff3f7a9fe364faab93b216da50a3214154f22a0a2b415b23a84c8169e8b636ee3601f850160051c8101918b8610610771575b601f0160051c0190611d17565b386105e8565b909150819061075e565b634e487b7160e01b815260418452602490fd5b835162461bcd60e51b8152808301879052601a60248201527f5265766f636174696f6e20726561736f6e2072657175697265640000000000006044820152606490fd5b838234610214578160031936011261021457602090600d549051908152f35b5090346101f45760603660031901126101f45761080b611978565b6044356001600160401b0381116103db577f883d542f167dfc5f47e8bf1532c171025ed0e4c59c1126c7f61749fa21976a45916108b6856020976108a86108586108d29636908a016118d4565b94610861611c7c565b610869611d2e565b61087860ff6007541615611cd4565b610880611d72565b6001600160a01b031697610895891515611e70565b338352600e8b5283832054903510611eae565b868152600a89522082611952565b805460ff19166001179055845186815291829187830190611be1565b0390a2600180555160018152f35b50913461043c57602036600319011261043c578135906001600160401b03821161043c5750610917610929926020923691016118d4565b8184519382858094519384920161192f565b810160098152030190206103b8825192610947846103a28186611b4b565b600183015460029093015490519384936001600160a01b03600884901c169260ff169185611c47565b50913461043c578060031936011261043c57506103b860ff8060075416926109988415611cd4565b541692600554926006548251946109b9866109b281611a20565b03876118b3565b8351936104328561042b81611ac4565b838234610214578160031936011261021457905490516001600160a01b039091168152602090f35b8382346102145760ff610a2360209383610a0a366119a4565b6001600160a01b039091168352600a8752912090611952565b541690519015158152f35b83823461021457816003193601126102145760207f62e78cea01bee320cd4e420270b5ea74000d11b0c9f74754ebdbfc544b05a25891610a6c611c7c565b610a74611d2e565b600160ff19600254161760025551338152a180f35b50913461043c578060031936011261043c5750610aa4611c7c565b610aac611d2e565b610abb60ff6007541615611cd4565b610ac3611d72565b805460ff811615610b1d5760ff19169055426006558051602080825291907f4360f12f602ccecefb32480e5314d0d3f57d38db8f52c76d8fdf4c39596c1c289080610b0f818601611a20565b0390a1600180555160018152f35b506020606492519162461bcd60e51b8352820152601760248201527f44494420697320616c726561647920696e6163746976650000000000000000006044820152fd5b833461043c578060031936011261043c57610b79611c7c565b80546001600160a01b03198116825581906001600160a01b03167f8be0079c531659141344cd1fd0a4f28419497f9722a3daafe3b4186f6b6457e08280a380f35b50913461043c578260031936011261043c57610bd461198e565b6001600160a01b03168152600e6020528281208054602435929190831015610214579160066020836103b8956005955220910201845193610c198561042b8185611b4b565b60ff6001830154169560028301549061043260ff600386015494860154169461042b83518098819301611b4b565b838234610214576020917f51cbcaaca6ae26944c6280c966a07b04ca5c6766d82ca497ded152579431468d6108d283610cc0610c82366119a4565b9290610c8c611c7c565b610c94611d2e565b610ca360ff6007541615611cd4565b610cab611d72565b6001600160a01b0316956108a8871515611e70565b805460ff19169055845186815291829187830190611be1565b83823461021457816003193601126102145760209060ff6002541690519015158152f35b838234610214578160031936011261021457602090516103e88152f35b50823461043c578160031936011261043c578235906001600160401b03821161043c5750610d4b90369084016118d4565b91610d54611978565b92610d5d611c7c565b610d65611d2e565b610d7460ff6007541615611cd4565b610d7c611d72565b825193815190610d9c61035a60209788818188019661034a81838a61192f565b6001600160a01b038116938415610e7b575091610e5960016108d293610e4a7f1c564f9c63901c7b3617b5a5a8d210f8871f28d4afa53586ed6f670abe7e220a9660028a518c818951610df081838a61192f565b81016009815203019020018460ff1982541617905560028a518c818951610e1881838a61192f565b600990820190815203019020018054610100600160a81b03191660089290921b610100600160a81b0316919091179055565b8751928391855192839161192f565b8201916009835288814294030190200155845191829187835287830190611be1565b855162461bcd60e51b8152908101879052601860248201527f496e76616c6964207665726966696572206164647265737300000000000000006044820152606490fd5b5090346101f457826003193601126101f457610ed8611c7c565b6002549060ff821615610f1a575060ff1916600255513381527f5db9ee0a495bf2e6ff9c91a7834c1ba4fdd244a5e8aa4e537bd38aeae4b073aa90602090a180f35b606490602084519162461bcd60e51b8352820152601460248201527314185d5cd8589b194e881b9bdd081c185d5cd95960621b6044820152fd5b8382346102145781600319360112610214576020905160328152f35b50823461043c57602092836003193601126102145780356001600160401b0381116101f457610fa290369083016118d4565b91610fab611c7c565b610fb3611d2e565b610fc260ff6007541615611cd4565b610fca611d72565b6002610ffc868651610fec61035a8851928481818c019561034a81838961192f565b875180938192895192839161192f565b810160098152030190208261101182546119e6565b806110ae575b5060018201550155600d5490811561106b575060001901600d554260065581518381527f8088db29d4761a957c0a396fa3c5f3f369fbfca4f1a83dae8b4f76a31726246a918190610b0f9086830190611be1565b835162461bcd60e51b8152908101859052601b60248201527f436f756e7465723a2064656372656d656e74206f766572666c6f7700000000006044820152606490fd5b601f81116001146110c4575081555b8288611017565b8282526110df601f8a8420920160051c820160018301611d17565b818355556110bd565b50823461043c5760209283600319360112610214576001600160401b0381358181116103df5761111b90369084016118d4565b92611124611d2e565b61113360ff6007541615611cd4565b61113b611d72565b8351156113e25760648451116113a95784519160ff85519388818189019661116481838a61192f565b8101600c8152030190205416611366576003918254611182816119e6565b61132e57865192831161131b579061119d89959493926119e6565b601f81116112cf575b508490601f831160011461124c57918060019694926111fb969491611241575b5060001982841b1c191690861b1790555b426005554260065560ff19948486825416179055865180938192885192839161192f565b8101600c815203019020918254161790557f44ca9609d2fe597457041d7e98533a969452ef425c10a46d0dd9f074497ea1ba8251848152806108d2339487830190611be1565b90508801518b6111c6565b90601f1983168483527fc2575a0e9e593c00f959f8c92f12db2869c3395a3b0502d05e2516446f71f85b925b8181106112b857509260019694928792826111fb9896106112a0575b5050811b0190556111d7565b8a015160001983861b60f8161c191690558b80611294565b91928760018192868d015181550194019201611278565b611315908483527fc2575a0e9e593c00f959f8c92f12db2869c3395a3b0502d05e2516446f71f85b601f850160051c81019188861061077157601f0160051c0190611d17565b896111a6565b634e487b7160e01b825260418652602482fd5b875162461bcd60e51b81528087018a9052601260248201527144494420616c72656164792065786973747360701b6044820152606490fd5b855162461bcd60e51b8152808501889052601960248201527f4964656e74696669657220616c726561647920696e20757365000000000000006044820152606490fd5b845162461bcd60e51b815280840187905260136024820152724964656e74696669657220746f6f206c6f6e6760681b6044820152606490fd5b845162461bcd60e51b8152808401879052601a60248201527f4964656e7469666965722063616e6e6f7420626520656d7074790000000000006044820152606490fd5b5090346101f457816003193601126101f4576001600160401b039080358281116103db5761145690369083016118d4565b9160249081358181116101ec5761147090369085016118d4565b92611479611c7c565b611481611d2e565b61149060ff6007541615611cd4565b611498611d72565b8451156117df576103e88086511161179d5784511561175b57845111611719576032600d5410156116d7579085918251916114d283611882565b85835260209889840192428452858501968288526115048c8b8160608a019a878c52519382858094519384920161192f565b8101600981520301902095519182519485116116c657505061152685546119e6565b8b601f8211611698575b50508a91601f841160011461160357946115cd94847fb5992aa9568eacc71d59e4909dd6598b92a9412825efe4598975018ea0918d759b9995610b0f99956002956115eb9d9a926115f8575b50508160011b916000199060031b1c19161782555b51600182015592519201805491516001600160a81b031990921660ff931515939093169290921760089190911b610100600160a81b0316179055565b6001600d5401600d5542600655855193849387855287850190611be1565b9083820388850152611be1565b01519050388061157c565b9190601f1984168684528c8420935b8d82821061168257505094600185610b0f99956002956115eb9d9a957fb5992aa9568eacc71d59e4909dd6598b92a9412825efe4598975018ea0918d759f9d996115cd9b10611669575b505050811b018255611591565b015160001960f88460031b161c1916905538808061165c565b6001859682939686015181550195019301611612565b8684528084206116bf92601f870160051c820192871061077157601f0160051c0190611d17565b388b611530565b634e487b7160e01b84526041905282fd5b606490601a84602089519362461bcd60e51b85528401528201527f4d6178696d756d206174747269627574657320726561636865640000000000006044820152fd5b606490601884602089519362461bcd60e51b85528401528201527f4174747269627574652076616c756520746f6f206c6f6e6700000000000000006044820152fd5b865162461bcd60e51b8152602081840152601f818601527f4174747269627574652076616c75652063616e6e6f7420626520656d707479006044820152606490fd5b865162461bcd60e51b81526020818401526017818601527f417474726962757465206e616d6520746f6f206c6f6e670000000000000000006044820152606490fd5b606490601e84602089519362461bcd60e51b85528401528201527f417474726962757465206e616d652063616e6e6f7420626520656d70747900006044820152fd5b50823461043c57602036600319011261043c578235906001600160401b03821161043c575061186d602061185b819560ff943691016118d4565b8185519382858094519384920161192f565b8101600b815203019020541690519015158152f35b608081019081106001600160401b0382111761189d57604052565b634e487b7160e01b600052604160045260246000fd5b90601f801991011681019081106001600160401b0382111761189d57604052565b81601f8201121561192a578035906001600160401b03821161189d5760405192611908601f8401601f1916602001856118b3565b8284526020838301011161192a57816000926020809301838601378301015290565b600080fd5b60005b8381106119425750506000910152565b8181015183820152602001611932565b60209061196c92826040519483868095519384920161192f565b82019081520301902090565b602435906001600160a01b038216820361192a57565b600435906001600160a01b038216820361192a57565b90604060031983011261192a576004356001600160a01b038116810361192a5791602435906001600160401b03821161192a576119e3916004016118d4565b90565b90600182811c92168015611a16575b6020831014611a0057565b634e487b7160e01b600052602260045260246000fd5b91607f16916119f5565b60035460009291611a30826119e6565b80825291600190818116908115611aa75750600114611a4e57505050565b9192935060036000527fc2575a0e9e593c00f959f8c92f12db2869c3395a3b0502d05e2516446f71f85b916000925b848410611a8f57505060209250010190565b80546020858501810191909152909301928101611a7d565b915050602093945060ff929192191683830152151560051b010190565b60085460009291611ad4826119e6565b80825291600190818116908115611aa75750600114611af257505050565b9192935060086000527ff3f7a9fe364faab93b216da50a3214154f22a0a2b415b23a84c8169e8b636ee3916000925b848410611b3357505060209250010190565b80546020858501810191909152909301928101611b21565b9060009291805491611b5c836119e6565b918282526001938481169081600014611bbe5750600114611b7e575b50505050565b90919394506000526020928360002092846000945b838610611baa575050505001019038808080611b78565b805485870183015294019385908201611b93565b9294505050602093945060ff191683830152151560051b01019038808080611b78565b90602091611bfa8151809281855285808601910161192f565b601f01601f1916010190565b92611c216119e397959296939660c0865260c0860190611be1565b9515156020850152604084015260608301521515608082015260a0818403910152611be1565b92611c5f606093969592608086526080860190611be1565b6020850196909652151560408401526001600160a01b0316910152565b6000546001600160a01b03163303611c9057565b606460405162461bcd60e51b815260206004820152602060248201527f4f776e61626c653a2063616c6c6572206973206e6f7420746865206f776e65726044820152fd5b15611cdb57565b60405162461bcd60e51b8152602060048201526014602482015273111251081a185cc81899595b881c995d9bdad95960621b6044820152606490fd5b818110611d22575050565b60008155600101611d17565b60ff60025416611d3a57565b60405162461bcd60e51b815260206004820152601060248201526f14185d5cd8589b194e881c185d5cd95960821b6044820152606490fd5b600260015414611d83576002600155565b60405162461bcd60e51b815260206004820152601f60248201527f5265656e7472616e637947756172643a207265656e7472616e742063616c6c006044820152606490fd5b15611dcf57565b60405162461bcd60e51b815260206004820152601860248201527f41747472696275746520646f6573206e6f7420657869737400000000000000006044820152606490fd5b15611e1b57565b60405162461bcd60e51b815260206004820152602760248201527f4e6f7420617574686f72697a656420746f2061636365737320746869732061746044820152667472696275746560c81b6064820152608490fd5b15611e7757565b60405162461bcd60e51b815260206004820152600f60248201526e496e76616c6964206164647265737360881b6044820152606490fd5b15611eb557565b60405162461bcd60e51b815260206004820152601260248201527111125108191bd95cc81b9bdd08195e1a5cdd60721b6044820152606490fdfea26469706673582212201b193a00645cb02a94c0448c829cfee4f57d32ecbaf39743017f262fff3b535264736f6c63430008140033","opcodes":"PUSH1 0x80 DUP1 PUSH1 0x40 MSTORE CALLVALUE PUSH2 0x7C JUMPI PUSH1 0x0 DUP1 SLOAD CALLER PUSH1 0x1 PUSH1 0x1 PUSH1 0xA0 SHL SUB NOT DUP3 AND DUP2 OR DUP4 SSTORE SWAP2 PUSH1 0x1 PUSH1 0x1 PUSH1 0xA0 SHL SUB SWAP1 SWAP2 AND SWAP1 PUSH32 0x8BE0079C531659141344CD1FD0A4F28419497F9722A3DAAFE3B4186F6B6457E0 SWAP1 DUP1 LOG3 PUSH1 0x1 DUP1 SSTORE PUSH1 0x1 PUSH1 0xFF NOT DUP1 PUSH1 0x2 SLOAD AND PUSH1 0x2 SSTORE TIMESTAMP PUSH1 0x5 SSTORE TIMESTAMP PUSH1 0x6 SSTORE PUSH1 0x4 SLOAD AND OR PUSH1 0x4 SSTORE PUSH2 0x1F25 SWAP1 DUP2 PUSH2 0x82 DUP3 CODECOPY RETURN JUMPDEST PUSH1 0x0 DUP1 REVERT INVALID PUSH1 0x40 PUSH1 0x80 DUP2 MSTORE PUSH1 0x4 DUP1 CALLDATASIZE LT ISZERO PUSH2 0x14 JUMPI PUSH1 0x0 DUP1 REVERT JUMPDEST PUSH1 0x0 SWAP2 DUP3 CALLDATALOAD PUSH1 0xE0 SHR DUP1 PUSH4 0xB42F3FD EQ PUSH2 0x1821 JUMPI DUP1 PUSH4 0x2BA56834 EQ PUSH2 0x1425 JUMPI DUP1 PUSH4 0x3457D3E2 EQ PUSH2 0x10E8 JUMPI DUP1 PUSH4 0x37714208 EQ PUSH2 0xF70 JUMPI DUP1 PUSH4 0x3AA1B5CA EQ PUSH2 0xF54 JUMPI DUP1 PUSH4 0x3F4BA83A EQ PUSH2 0xEBE JUMPI DUP1 PUSH4 0x45E8846F EQ PUSH2 0xD1A JUMPI DUP1 PUSH4 0x4B9802F8 EQ PUSH2 0xCFD JUMPI DUP1 PUSH4 0x5C975ABB EQ PUSH2 0xCD9 JUMPI DUP1 PUSH4 0x6A44CAC9 EQ PUSH2 0xC47 JUMPI DUP1 PUSH4 0x6AAB3CEF EQ PUSH2 0xBBA JUMPI DUP1 PUSH4 0x715018A6 EQ PUSH2 0xB60 JUMPI DUP1 PUSH4 0x767BC20E EQ PUSH2 0xA89 JUMPI DUP1 PUSH4 0x8456CB59 EQ PUSH2 0xA2E JUMPI DUP1 PUSH4 0x8C15F62D EQ PUSH2 0x9F1 JUMPI DUP1 PUSH4 0x8DA5CB5B EQ PUSH2 0x9C9 JUMPI DUP1 PUSH4 0x967A455F EQ PUSH2 0x970 JUMPI DUP1 PUSH4 0x9BC3A000 EQ PUSH2 0x8E0 JUMPI DUP1 PUSH4 0xA9595FFB EQ PUSH2 0x7F0 JUMPI DUP1 PUSH4 0xC93EAD1B EQ PUSH2 0x7D1 JUMPI DUP1 PUSH4 0xCFE3B347 EQ PUSH2 0x558 JUMPI DUP1 PUSH4 0xE3725DEF EQ PUSH2 0x43F JUMPI DUP1 PUSH4 0xE4A94ADC EQ PUSH2 0x3E3 JUMPI DUP1 PUSH4 0xE8A51FCA EQ PUSH2 0x2DB JUMPI DUP1 PUSH4 0xF2FDE38B EQ PUSH2 0x218 JUMPI DUP1 PUSH4 0xF3D310BF EQ PUSH2 0x1F8 JUMPI PUSH4 0xFB99D007 EQ PUSH2 0x149 JUMPI PUSH1 0x0 DUP1 REVERT JUMPDEST CALLVALUE PUSH2 0x1F4 JUMPI PUSH1 0x80 CALLDATASIZE PUSH1 0x3 NOT ADD SLT PUSH2 0x1F4 JUMPI PUSH2 0x162 PUSH2 0x198E JUMP JUMPDEST PUSH1 0x1 PUSH1 0x1 PUSH1 0xA0 SHL SUB PUSH1 0x44 CALLDATALOAD DUP2 DUP2 AND SWAP5 SWAP1 DUP6 SWAP1 SUB PUSH2 0x1F0 JUMPI PUSH1 0x64 CALLDATALOAD PUSH1 0x1 PUSH1 0x1 PUSH1 0x40 SHL SUB DUP2 GT PUSH2 0x1EC JUMPI SWAP2 PUSH2 0x19C DUP7 SWAP3 PUSH1 0x20 SWAP9 SWAP5 CALLDATASIZE SWAP2 ADD PUSH2 0x18D4 JUMP JUMPDEST SWAP4 AND DUP1 DUP4 MSTORE PUSH1 0xE DUP8 MSTORE PUSH2 0x1B5 DUP6 DUP5 KECCAK256 SLOAD PUSH1 0x24 CALLDATALOAD LT PUSH2 0x1EAE JUMP JUMPDEST EQ SWAP4 DUP5 ISZERO PUSH2 0x1C9 JUMPI JUMPDEST POP POP POP MLOAD SWAP1 ISZERO ISZERO DUP2 MSTORE RETURN JUMPDEST DUP2 MSTORE PUSH1 0xA DUP6 MSTORE DUP3 SWAP1 KECCAK256 SWAP2 SWAP3 POP PUSH1 0xFF SWAP2 PUSH2 0x1E1 SWAP2 PUSH2 0x1952 JUMP JUMPDEST SLOAD AND SWAP1 CODESIZE DUP1 DUP1 PUSH2 0x1BE JUMP JUMPDEST DUP7 DUP1 REVERT JUMPDEST DUP6 DUP1 REVERT JUMPDEST DUP3 DUP1 REVERT JUMPDEST DUP4 DUP3 CALLVALUE PUSH2 0x214 JUMPI DUP2 PUSH1 0x3 NOT CALLDATASIZE ADD SLT PUSH2 0x214 JUMPI PUSH1 0x20 SWAP1 MLOAD PUSH1 0x64 DUP2 MSTORE RETURN JUMPDEST POP DUP1 REVERT JUMPDEST POP SWAP1 CALLVALUE PUSH2 0x1F4 JUMPI PUSH1 0x20 CALLDATASIZE PUSH1 0x3 NOT ADD SLT PUSH2 0x1F4 JUMPI PUSH2 0x233 PUSH2 0x198E JUMP JUMPDEST SWAP1 PUSH2 0x23C PUSH2 0x1C7C JUMP JUMPDEST PUSH1 0x1 PUSH1 0x1 PUSH1 0xA0 SHL SUB SWAP2 DUP3 AND SWAP3 DUP4 ISZERO PUSH2 0x289 JUMPI POP POP DUP3 SLOAD PUSH1 0x1 PUSH1 0x1 PUSH1 0xA0 SHL SUB NOT DUP2 AND DUP4 OR DUP5 SSTORE AND PUSH32 0x8BE0079C531659141344CD1FD0A4F28419497F9722A3DAAFE3B4186F6B6457E0 DUP4 DUP1 LOG3 DUP1 RETURN JUMPDEST SWAP1 PUSH1 0x20 PUSH1 0x84 SWAP3 MLOAD SWAP2 PUSH3 0x461BCD PUSH1 0xE5 SHL DUP4 MSTORE DUP3 ADD MSTORE PUSH1 0x26 PUSH1 0x24 DUP3 ADD MSTORE PUSH32 0x4F776E61626C653A206E6577206F776E657220697320746865207A65726F2061 PUSH1 0x44 DUP3 ADD MSTORE PUSH6 0x646472657373 PUSH1 0xD0 SHL PUSH1 0x64 DUP3 ADD MSTORE REVERT JUMPDEST POP CALLVALUE PUSH2 0x1F4 JUMPI PUSH1 0x20 SWAP2 DUP3 PUSH1 0x3 NOT CALLDATASIZE ADD SLT PUSH2 0x3DF JUMPI DUP1 CALLDATALOAD PUSH1 0x1 PUSH1 0x1 PUSH1 0x40 SHL SUB DUP2 GT PUSH2 0x3DB JUMPI PUSH2 0x38D DUP5 PUSH2 0x3A2 SWAP7 PUSH2 0x31B PUSH2 0x3B8 SWAP7 SWAP6 PUSH2 0x3A9 SWAP6 CALLDATASIZE SWAP2 ADD PUSH2 0x18D4 JUMP JUMPDEST PUSH2 0x32A PUSH1 0xFF PUSH1 0x7 SLOAD AND ISZERO PUSH2 0x1CD4 JUMP JUMPDEST PUSH2 0x37D DUP7 MLOAD SWAP3 PUSH2 0x361 PUSH2 0x35A DUP5 MLOAD SWAP6 DUP8 DUP2 DUP2 DUP9 ADD SWAP9 PUSH2 0x34A DUP2 DUP4 DUP13 PUSH2 0x192F JUMP JUMPDEST DUP2 ADD PUSH1 0x9 DUP2 MSTORE SUB ADD SWAP1 KECCAK256 SLOAD PUSH2 0x19E6 JUMP JUMPDEST ISZERO ISZERO PUSH2 0x1DC8 JUMP JUMPDEST DUP8 PUSH1 0x1 DUP1 PUSH1 0xA0 SHL SUB DUP3 SLOAD AND CALLER EQ SWAP2 DUP3 ISZERO PUSH2 0x3BC JUMPI JUMPDEST POP POP PUSH2 0x1E14 JUMP JUMPDEST DUP6 MLOAD SWAP4 DUP5 SWAP3 DUP4 SWAP3 MLOAD SWAP3 DUP4 SWAP2 PUSH2 0x192F JUMP JUMPDEST DUP2 ADD PUSH1 0x9 DUP2 MSTORE SUB ADD SWAP1 KECCAK256 DUP3 MLOAD SWAP6 DUP7 DUP1 SWAP3 PUSH2 0x1B4B JUMP JUMPDEST SUB DUP6 PUSH2 0x18B3 JUMP JUMPDEST MLOAD SWAP3 DUP3 DUP5 SWAP4 DUP5 MSTORE DUP4 ADD SWAP1 PUSH2 0x1BE1 JUMP JUMPDEST SUB SWAP1 RETURN JUMPDEST CALLER DUP2 MSTORE PUSH1 0xA DUP8 MSTORE KECCAK256 PUSH1 0xFF SWAP2 POP PUSH2 0x3D2 SWAP1 DUP5 PUSH2 0x1952 JUMP JUMPDEST SLOAD AND DUP8 CODESIZE PUSH2 0x376 JUMP JUMPDEST DUP5 DUP1 REVERT JUMPDEST DUP4 DUP1 REVERT JUMPDEST POP SWAP2 CALLVALUE PUSH2 0x43C JUMPI DUP1 PUSH1 0x3 NOT CALLDATASIZE ADD SLT PUSH2 0x43C JUMPI POP PUSH2 0x3B8 PUSH1 0xFF DUP4 MLOAD SWAP3 PUSH2 0x40B DUP5 PUSH2 0x3A2 DUP2 PUSH2 0x1A20 JUMP JUMPDEST SLOAD AND SWAP3 PUSH1 0x5 SLOAD PUSH1 0x6 SLOAD PUSH1 0xFF PUSH1 0x7 SLOAD AND SWAP2 DUP4 MLOAD SWAP4 PUSH2 0x432 DUP6 PUSH2 0x42B DUP2 PUSH2 0x1AC4 JUMP JUMPDEST SUB DUP7 PUSH2 0x18B3 JUMP JUMPDEST MLOAD SWAP7 DUP8 SWAP7 DUP8 PUSH2 0x1C06 JUMP JUMPDEST DUP1 REVERT JUMPDEST POP DUP3 CALLVALUE PUSH2 0x43C JUMPI PUSH1 0x20 SWAP3 DUP4 PUSH1 0x3 NOT CALLDATASIZE ADD SLT PUSH2 0x214 JUMPI DUP1 CALLDATALOAD PUSH1 0x1 PUSH1 0x1 PUSH1 0x40 SHL SUB DUP2 GT PUSH2 0x1F4 JUMPI SWAP2 PUSH2 0x4DA DUP6 PUSH2 0x47B PUSH1 0x60 SWAP5 PUSH2 0x3B8 SWAP7 CALLDATASIZE SWAP2 ADD PUSH2 0x18D4 JUMP JUMPDEST PUSH2 0x48A PUSH1 0xFF PUSH1 0x7 SLOAD AND ISZERO PUSH2 0x1CD4 JUMP JUMPDEST DUP7 MLOAD SWAP1 PUSH2 0x4A7 PUSH2 0x35A DUP3 MLOAD SWAP4 DUP6 DUP2 DUP2 DUP7 ADD SWAP7 PUSH2 0x34A DUP2 DUP4 DUP11 PUSH2 0x192F JUMP JUMPDEST DUP5 SLOAD PUSH1 0x1 PUSH1 0x1 PUSH1 0xA0 SHL SUB SWAP6 PUSH2 0x4CA SWAP2 DUP8 AND CALLER EQ SWAP1 DUP11 SWAP1 DUP3 ISZERO PUSH2 0x539 JUMPI POP POP PUSH2 0x1E14 JUMP JUMPDEST DUP8 MLOAD SWAP4 DUP5 SWAP3 DUP4 SWAP3 MLOAD SWAP3 DUP4 SWAP2 PUSH2 0x192F JUMP JUMPDEST DUP2 ADD PUSH1 0x9 DUP2 MSTORE SUB ADD SWAP1 KECCAK256 SWAP4 DUP1 MLOAD PUSH2 0x4F0 DUP2 PUSH2 0x1882 JUMP JUMPDEST PUSH1 0x2 DUP3 MLOAD SWAP7 PUSH2 0x50A DUP9 PUSH2 0x503 DUP2 DUP5 PUSH2 0x1B4B JUMP JUMPDEST SUB DUP10 PUSH2 0x18B3 JUMP JUMPDEST DUP8 DUP4 MSTORE PUSH1 0x1 DUP2 ADD SLOAD DUP1 SWAP10 DUP5 ADD MSTORE ADD SLOAD SWAP3 PUSH1 0xFF DUP5 AND ISZERO ISZERO SWAP4 DUP5 DUP5 DUP5 ADD MSTORE PUSH1 0x8 SHR AND SWAP4 DUP5 SWAP2 ADD MSTORE MLOAD SWAP5 DUP6 SWAP5 DUP6 PUSH2 0x1C47 JUMP JUMPDEST CALLER DUP2 MSTORE PUSH1 0xA DUP8 MSTORE KECCAK256 PUSH1 0xFF SWAP2 POP PUSH2 0x54F SWAP1 DUP5 PUSH2 0x1952 JUMP JUMPDEST SLOAD AND DUP10 DUP13 PUSH2 0x376 JUMP JUMPDEST POP CALLVALUE PUSH2 0x1F4 JUMPI PUSH1 0x20 SWAP3 DUP4 PUSH1 0x3 NOT CALLDATASIZE ADD SLT PUSH2 0x43C JUMPI PUSH1 0x1 PUSH1 0x1 PUSH1 0x40 SHL SUB SWAP3 DUP1 CALLDATALOAD DUP5 DUP2 GT PUSH2 0x1F4 JUMPI PUSH2 0x58B SWAP1 CALLDATASIZE SWAP1 DUP4 ADD PUSH2 0x18D4 JUMP JUMPDEST SWAP2 PUSH2 0x594 PUSH2 0x1C7C JUMP JUMPDEST PUSH2 0x59C PUSH2 0x1D2E JUMP JUMPDEST PUSH2 0x5AB PUSH1 0xFF PUSH1 0x7 SLOAD AND ISZERO PUSH2 0x1CD4 JUMP JUMPDEST PUSH2 0x5B3 PUSH2 0x1D72 JUMP JUMPDEST DUP3 MLOAD ISZERO PUSH2 0x78E JUMPI PUSH1 0x1 SWAP5 PUSH1 0xFF NOT SWAP2 DUP7 DUP4 PUSH1 0x7 SLOAD AND OR PUSH1 0x7 SSTORE DUP5 MLOAD SWAP2 DUP3 GT PUSH2 0x77B JUMPI PUSH2 0x5DF PUSH1 0x8 SLOAD PUSH2 0x19E6 JUMP JUMPDEST PUSH1 0x1F DUP2 GT PUSH2 0x723 JUMPI JUMPDEST POP DUP8 SWAP1 PUSH1 0x1F DUP4 GT PUSH1 0x1 EQ PUSH2 0x67B JUMPI SWAP2 DUP1 PUSH32 0xF47A4F2302A3334A22353C5748D420F032E5F784E851777209232D29D1693335 SWAP7 SWAP5 SWAP3 PUSH2 0x664 SWAP7 SWAP5 SWAP2 PUSH2 0x670 JUMPI JUMPDEST POP PUSH1 0x0 NOT PUSH1 0x3 DUP4 SWAP1 SHL SHR NOT AND SWAP1 DUP9 SHL OR PUSH1 0x8 SSTORE JUMPDEST DUP2 SLOAD AND SWAP1 SSTORE TIMESTAMP PUSH1 0x6 SSTORE DUP4 MLOAD SWAP2 DUP3 SWAP2 DUP6 DUP4 MSTORE PUSH2 0x657 DUP7 DUP5 ADD PUSH2 0x1A20 JUMP JUMPDEST SWAP1 DUP4 DUP3 SUB DUP10 DUP6 ADD MSTORE PUSH2 0x1BE1 JUMP JUMPDEST SUB SWAP1 LOG1 DUP2 DUP1 SSTORE MLOAD SWAP1 DUP2 MSTORE RETURN JUMPDEST SWAP1 POP DUP5 ADD MLOAD CODESIZE PUSH2 0x627 JUMP JUMPDEST DUP8 SWAP3 SWAP2 PUSH1 0x1F NOT DUP4 AND PUSH1 0x8 DUP4 MSTORE PUSH32 0xF3F7A9FE364FAAB93B216DA50A3214154F22A0A2B415B23A84C8169E8B636EE3 SWAP3 JUMPDEST DUP12 DUP3 DUP3 LT PUSH2 0x70D JUMPI POP POP SWAP2 DUP4 SWAP2 PUSH32 0xF47A4F2302A3334A22353C5748D420F032E5F784E851777209232D29D1693335 SWAP9 SWAP7 SWAP5 PUSH2 0x664 SWAP9 SWAP7 SWAP5 LT PUSH2 0x6F4 JUMPI JUMPDEST POP POP DUP2 SHL ADD PUSH1 0x8 SSTORE PUSH2 0x63B JUMP JUMPDEST DUP7 ADD MLOAD PUSH1 0x0 NOT PUSH1 0xF8 DUP5 PUSH1 0x3 SHL AND SHR NOT AND SWAP1 SSTORE CODESIZE DUP1 PUSH2 0x6E7 JUMP JUMPDEST DUP4 DUP11 ADD MLOAD DUP6 SSTORE DUP12 SWAP7 SWAP1 SWAP5 ADD SWAP4 SWAP3 DUP4 ADD SWAP3 ADD PUSH2 0x6AA JUMP JUMPDEST PUSH2 0x76B SWAP1 PUSH1 0x8 DUP4 MSTORE PUSH32 0xF3F7A9FE364FAAB93B216DA50A3214154F22A0A2B415B23A84C8169E8B636EE3 PUSH1 0x1F DUP6 ADD PUSH1 0x5 SHR DUP2 ADD SWAP2 DUP12 DUP7 LT PUSH2 0x771 JUMPI JUMPDEST PUSH1 0x1F ADD PUSH1 0x5 SHR ADD SWAP1 PUSH2 0x1D17 JUMP JUMPDEST CODESIZE PUSH2 0x5E8 JUMP JUMPDEST SWAP1 SWAP2 POP DUP2 SWAP1 PUSH2 0x75E JUMP JUMPDEST PUSH4 0x4E487B71 PUSH1 0xE0 SHL DUP2 MSTORE PUSH1 0x41 DUP5 MSTORE PUSH1 0x24 SWAP1 REVERT JUMPDEST DUP4 MLOAD PUSH3 0x461BCD PUSH1 0xE5 SHL DUP2 MSTORE DUP1 DUP4 ADD DUP8 SWAP1 MSTORE PUSH1 0x1A PUSH1 0x24 DUP3 ADD MSTORE PUSH32 0x5265766F636174696F6E20726561736F6E207265717569726564000000000000 PUSH1 0x44 DUP3 ADD MSTORE PUSH1 0x64 SWAP1 REVERT JUMPDEST DUP4 DUP3 CALLVALUE PUSH2 0x214 JUMPI DUP2 PUSH1 0x3 NOT CALLDATASIZE ADD SLT PUSH2 0x214 JUMPI PUSH1 0x20 SWAP1 PUSH1 0xD SLOAD SWAP1 MLOAD SWAP1 DUP2 MSTORE RETURN JUMPDEST POP SWAP1 CALLVALUE PUSH2 0x1F4 JUMPI PUSH1 0x60 CALLDATASIZE PUSH1 0x3 NOT ADD SLT PUSH2 0x1F4 JUMPI PUSH2 0x80B PUSH2 0x1978 JUMP JUMPDEST PUSH1 0x44 CALLDATALOAD PUSH1 0x1 PUSH1 0x1 PUSH1 0x40 SHL SUB DUP2 GT PUSH2 0x3DB JUMPI PUSH32 0x883D542F167DFC5F47E8BF1532C171025ED0E4C59C1126C7F61749FA21976A45 SWAP2 PUSH2 0x8B6 DUP6 PUSH1 0x20 SWAP8 PUSH2 0x8A8 PUSH2 0x858 PUSH2 0x8D2 SWAP7 CALLDATASIZE SWAP1 DUP11 ADD PUSH2 0x18D4 JUMP JUMPDEST SWAP5 PUSH2 0x861 PUSH2 0x1C7C JUMP JUMPDEST PUSH2 0x869 PUSH2 0x1D2E JUMP JUMPDEST PUSH2 0x878 PUSH1 0xFF PUSH1 0x7 SLOAD AND ISZERO PUSH2 0x1CD4 JUMP JUMPDEST PUSH2 0x880 PUSH2 0x1D72 JUMP JUMPDEST PUSH1 0x1 PUSH1 0x1 PUSH1 0xA0 SHL SUB AND SWAP8 PUSH2 0x895 DUP10 ISZERO ISZERO PUSH2 0x1E70 JUMP JUMPDEST CALLER DUP4 MSTORE PUSH1 0xE DUP12 MSTORE DUP4 DUP4 KECCAK256 SLOAD SWAP1 CALLDATALOAD LT PUSH2 0x1EAE JUMP JUMPDEST DUP7 DUP2 MSTORE PUSH1 0xA DUP10 MSTORE KECCAK256 DUP3 PUSH2 0x1952 JUMP JUMPDEST DUP1 SLOAD PUSH1 0xFF NOT AND PUSH1 0x1 OR SWAP1 SSTORE DUP5 MLOAD DUP7 DUP2 MSTORE SWAP2 DUP3 SWAP2 DUP8 DUP4 ADD SWAP1 PUSH2 0x1BE1 JUMP JUMPDEST SUB SWAP1 LOG2 PUSH1 0x1 DUP1 SSTORE MLOAD PUSH1 0x1 DUP2 MSTORE RETURN JUMPDEST POP SWAP2 CALLVALUE PUSH2 0x43C JUMPI PUSH1 0x20 CALLDATASIZE PUSH1 0x3 NOT ADD SLT PUSH2 0x43C JUMPI DUP2 CALLDATALOAD SWAP1 PUSH1 0x1 PUSH1 0x1 PUSH1 0x40 SHL SUB DUP3 GT PUSH2 0x43C JUMPI POP PUSH2 0x917 PUSH2 0x929 SWAP3 PUSH1 0x20 SWAP3 CALLDATASIZE SWAP2 ADD PUSH2 0x18D4 JUMP JUMPDEST DUP2 DUP5 MLOAD SWAP4 DUP3 DUP6 DUP1 SWAP5 MLOAD SWAP4 DUP5 SWAP3 ADD PUSH2 0x192F JUMP JUMPDEST DUP2 ADD PUSH1 0x9 DUP2 MSTORE SUB ADD SWAP1 KECCAK256 PUSH2 0x3B8 DUP3 MLOAD SWAP3 PUSH2 0x947 DUP5 PUSH2 0x3A2 DUP2 DUP7 PUSH2 0x1B4B JUMP JUMPDEST PUSH1 0x1 DUP4 ADD SLOAD PUSH1 0x2 SWAP1 SWAP4 ADD SLOAD SWAP1 MLOAD SWAP4 DUP5 SWAP4 PUSH1 0x1 PUSH1 0x1 PUSH1 0xA0 SHL SUB PUSH1 0x8 DUP5 SWAP1 SHR AND SWAP3 PUSH1 0xFF AND SWAP2 DUP6 PUSH2 0x1C47 JUMP JUMPDEST POP SWAP2 CALLVALUE PUSH2 0x43C JUMPI DUP1 PUSH1 0x3 NOT CALLDATASIZE ADD SLT PUSH2 0x43C JUMPI POP PUSH2 0x3B8 PUSH1 0xFF DUP1 PUSH1 0x7 SLOAD AND SWAP3 PUSH2 0x998 DUP5 ISZERO PUSH2 0x1CD4 JUMP JUMPDEST SLOAD AND SWAP3 PUSH1 0x5 SLOAD SWAP3 PUSH1 0x6 SLOAD DUP3 MLOAD SWAP5 PUSH2 0x9B9 DUP7 PUSH2 0x9B2 DUP2 PUSH2 0x1A20 JUMP JUMPDEST SUB DUP8 PUSH2 0x18B3 JUMP JUMPDEST DUP4 MLOAD SWAP4 PUSH2 0x432 DUP6 PUSH2 0x42B DUP2 PUSH2 0x1AC4 JUMP JUMPDEST DUP4 DUP3 CALLVALUE PUSH2 0x214 JUMPI DUP2 PUSH1 0x3 NOT CALLDATASIZE ADD SLT PUSH2 0x214 JUMPI SWAP1 SLOAD SWAP1 MLOAD PUSH1 0x1 PUSH1 0x1 PUSH1 0xA0 SHL SUB SWAP1 SWAP2 AND DUP2 MSTORE PUSH1 0x20 SWAP1 RETURN JUMPDEST DUP4 DUP3 CALLVALUE PUSH2 0x214 JUMPI PUSH1 0xFF PUSH2 0xA23 PUSH1 0x20 SWAP4 DUP4 PUSH2 0xA0A CALLDATASIZE PUSH2 0x19A4 JUMP JUMPDEST PUSH1 0x1 PUSH1 0x1 PUSH1 0xA0 SHL SUB SWAP1 SWAP2 AND DUP4 MSTORE PUSH1 0xA DUP8 MSTORE SWAP2 KECCAK256 SWAP1 PUSH2 0x1952 JUMP JUMPDEST SLOAD AND SWAP1 MLOAD SWAP1 ISZERO ISZERO DUP2 MSTORE RETURN JUMPDEST DUP4 DUP3 CALLVALUE PUSH2 0x214 JUMPI DUP2 PUSH1 0x3 NOT CALLDATASIZE ADD SLT PUSH2 0x214 JUMPI PUSH1 0x20 PUSH32 0x62E78CEA01BEE320CD4E420270B5EA74000D11B0C9F74754EBDBFC544B05A258 SWAP2 PUSH2 0xA6C PUSH2 0x1C7C JUMP JUMPDEST PUSH2 0xA74 PUSH2 0x1D2E JUMP JUMPDEST PUSH1 0x1 PUSH1 0xFF NOT PUSH1 0x2 SLOAD AND OR PUSH1 0x2 SSTORE MLOAD CALLER DUP2 MSTORE LOG1 DUP1 RETURN JUMPDEST POP SWAP2 CALLVALUE PUSH2 0x43C JUMPI DUP1 PUSH1 0x3 NOT CALLDATASIZE ADD SLT PUSH2 0x43C JUMPI POP PUSH2 0xAA4 PUSH2 0x1C7C JUMP JUMPDEST PUSH2 0xAAC PUSH2 0x1D2E JUMP JUMPDEST PUSH2 0xABB PUSH1 0xFF PUSH1 0x7 SLOAD AND ISZERO PUSH2 0x1CD4 JUMP JUMPDEST PUSH2 0xAC3 PUSH2 0x1D72 JUMP JUMPDEST DUP1 SLOAD PUSH1 0xFF DUP2 AND ISZERO PUSH2 0xB1D JUMPI PUSH1 0xFF NOT AND SWAP1 SSTORE TIMESTAMP PUSH1 0x6 SSTORE DUP1 MLOAD PUSH1 0x20 DUP1 DUP3 MSTORE SWAP2 SWAP1 PUSH32 0x4360F12F602CCECEFB32480E5314D0D3F57D38DB8F52C76D8FDF4C39596C1C28 SWAP1 DUP1 PUSH2 0xB0F DUP2 DUP7 ADD PUSH2 0x1A20 JUMP JUMPDEST SUB SWAP1 LOG1 PUSH1 0x1 DUP1 SSTORE MLOAD PUSH1 0x1 DUP2 MSTORE RETURN JUMPDEST POP PUSH1 0x20 PUSH1 0x64 SWAP3 MLOAD SWAP2 PUSH3 0x461BCD PUSH1 0xE5 SHL DUP4 MSTORE DUP3 ADD MSTORE PUSH1 0x17 PUSH1 0x24 DUP3 ADD MSTORE PUSH32 0x44494420697320616C726561647920696E616374697665000000000000000000 PUSH1 0x44 DUP3 ADD MSTORE REVERT JUMPDEST DUP4 CALLVALUE PUSH2 0x43C JUMPI DUP1 PUSH1 0x3 NOT CALLDATASIZE ADD SLT PUSH2 0x43C JUMPI PUSH2 0xB79 PUSH2 0x1C7C JUMP JUMPDEST DUP1 SLOAD PUSH1 0x1 PUSH1 0x1 PUSH1 0xA0 SHL SUB NOT DUP2 AND DUP3 SSTORE DUP2 SWAP1 PUSH1 0x1 PUSH1 0x1 PUSH1 0xA0 SHL SUB AND PUSH32 0x8BE0079C531659141344CD1FD0A4F28419497F9722A3DAAFE3B4186F6B6457E0 DUP3 DUP1 LOG3 DUP1 RETURN JUMPDEST POP SWAP2 CALLVALUE PUSH2 0x43C JUMPI DUP3 PUSH1 0x3 NOT CALLDATASIZE ADD SLT PUSH2 0x43C JUMPI PUSH2 0xBD4 PUSH2 0x198E JUMP JUMPDEST PUSH1 0x1 PUSH1 0x1 PUSH1 0xA0 SHL SUB AND DUP2 MSTORE PUSH1 0xE PUSH1 0x20 MSTORE DUP3 DUP2 KECCAK256 DUP1 SLOAD PUSH1 0x24 CALLDATALOAD SWAP3 SWAP2 SWAP1 DUP4 LT ISZERO PUSH2 0x214 JUMPI SWAP2 PUSH1 0x6 PUSH1 0x20 DUP4 PUSH2 0x3B8 SWAP6 PUSH1 0x5 SWAP6 MSTORE KECCAK256 SWAP2 MUL ADD DUP5 MLOAD SWAP4 PUSH2 0xC19 DUP6 PUSH2 0x42B DUP2 DUP6 PUSH2 0x1B4B JUMP JUMPDEST PUSH1 0xFF PUSH1 0x1 DUP4 ADD SLOAD AND SWAP6 PUSH1 0x2 DUP4 ADD SLOAD SWAP1 PUSH2 0x432 PUSH1 0xFF PUSH1 0x3 DUP7 ADD SLOAD SWAP5 DUP7 ADD SLOAD AND SWAP5 PUSH2 0x42B DUP4 MLOAD DUP1 SWAP9 DUP2 SWAP4 ADD PUSH2 0x1B4B JUMP JUMPDEST DUP4 DUP3 CALLVALUE PUSH2 0x214 JUMPI PUSH1 0x20 SWAP2 PUSH32 0x51CBCAACA6AE26944C6280C966A07B04CA5C6766D82CA497DED152579431468D PUSH2 0x8D2 DUP4 PUSH2 0xCC0 PUSH2 0xC82 CALLDATASIZE PUSH2 0x19A4 JUMP JUMPDEST SWAP3 SWAP1 PUSH2 0xC8C PUSH2 0x1C7C JUMP JUMPDEST PUSH2 0xC94 PUSH2 0x1D2E JUMP JUMPDEST PUSH2 0xCA3 PUSH1 0xFF PUSH1 0x7 SLOAD AND ISZERO PUSH2 0x1CD4 JUMP JUMPDEST PUSH2 0xCAB PUSH2 0x1D72 JUMP JUMPDEST PUSH1 0x1 PUSH1 0x1 PUSH1 0xA0 SHL SUB AND SWAP6 PUSH2 0x8A8 DUP8 ISZERO ISZERO PUSH2 0x1E70 JUMP JUMPDEST DUP1 SLOAD PUSH1 0xFF NOT AND SWAP1 SSTORE DUP5 MLOAD DUP7 DUP2 MSTORE SWAP2 DUP3 SWAP2 DUP8 DUP4 ADD SWAP1 PUSH2 0x1BE1 JUMP JUMPDEST DUP4 DUP3 CALLVALUE PUSH2 0x214 JUMPI DUP2 PUSH1 0x3 NOT CALLDATASIZE ADD SLT PUSH2 0x214 JUMPI PUSH1 0x20 SWAP1 PUSH1 0xFF PUSH1 0x2 SLOAD AND SWAP1 MLOAD SWAP1 ISZERO ISZERO DUP2 MSTORE RETURN JUMPDEST DUP4 DUP3 CALLVALUE PUSH2 0x214 JUMPI DUP2 PUSH1 0x3 NOT CALLDATASIZE ADD SLT PUSH2 0x214 JUMPI PUSH1 0x20 SWAP1 MLOAD PUSH2 0x3E8 DUP2 MSTORE RETURN JUMPDEST POP DUP3 CALLVALUE PUSH2 0x43C JUMPI DUP2 PUSH1 0x3 NOT CALLDATASIZE ADD SLT PUSH2 0x43C JUMPI DUP3 CALLDATALOAD SWAP1 PUSH1 0x1 PUSH1 0x1 PUSH1 0x40 SHL SUB DUP3 GT PUSH2 0x43C JUMPI POP PUSH2 0xD4B SWAP1 CALLDATASIZE SWAP1 DUP5 ADD PUSH2 0x18D4 JUMP JUMPDEST SWAP2 PUSH2 0xD54 PUSH2 0x1978 JUMP JUMPDEST SWAP3 PUSH2 0xD5D PUSH2 0x1C7C JUMP JUMPDEST PUSH2 0xD65 PUSH2 0x1D2E JUMP JUMPDEST PUSH2 0xD74 PUSH1 0xFF PUSH1 0x7 SLOAD AND ISZERO PUSH2 0x1CD4 JUMP JUMPDEST PUSH2 0xD7C PUSH2 0x1D72 JUMP JUMPDEST DUP3 MLOAD SWAP4 DUP2 MLOAD SWAP1 PUSH2 0xD9C PUSH2 0x35A PUSH1 0x20 SWAP8 DUP9 DUP2 DUP2 DUP9 ADD SWAP7 PUSH2 0x34A DUP2 DUP4 DUP11 PUSH2 0x192F JUMP JUMPDEST PUSH1 0x1 PUSH1 0x1 PUSH1 0xA0 SHL SUB DUP2 AND SWAP4 DUP5 ISZERO PUSH2 0xE7B JUMPI POP SWAP2 PUSH2 0xE59 PUSH1 0x1 PUSH2 0x8D2 SWAP4 PUSH2 0xE4A PUSH32 0x1C564F9C63901C7B3617B5A5A8D210F8871F28D4AFA53586ED6F670ABE7E220A SWAP7 PUSH1 0x2 DUP11 MLOAD DUP13 DUP2 DUP10 MLOAD PUSH2 0xDF0 DUP2 DUP4 DUP11 PUSH2 0x192F JUMP JUMPDEST DUP2 ADD PUSH1 0x9 DUP2 MSTORE SUB ADD SWAP1 KECCAK256 ADD DUP5 PUSH1 0xFF NOT DUP3 SLOAD AND OR SWAP1 SSTORE PUSH1 0x2 DUP11 MLOAD DUP13 DUP2 DUP10 MLOAD PUSH2 0xE18 DUP2 DUP4 DUP11 PUSH2 0x192F JUMP JUMPDEST PUSH1 0x9 SWAP1 DUP3 ADD SWAP1 DUP2 MSTORE SUB ADD SWAP1 KECCAK256 ADD DUP1 SLOAD PUSH2 0x100 PUSH1 0x1 PUSH1 0xA8 SHL SUB NOT AND PUSH1 0x8 SWAP3 SWAP1 SWAP3 SHL PUSH2 0x100 PUSH1 0x1 PUSH1 0xA8 SHL SUB AND SWAP2 SWAP1 SWAP2 OR SWAP1 SSTORE JUMP JUMPDEST DUP8 MLOAD SWAP3 DUP4 SWAP2 DUP6 MLOAD SWAP3 DUP4 SWAP2 PUSH2 0x192F JUMP JUMPDEST DUP3 ADD SWAP2 PUSH1 0x9 DUP4 MSTORE DUP9 DUP2 TIMESTAMP SWAP5 SUB ADD SWAP1 KECCAK256 ADD SSTORE DUP5 MLOAD SWAP2 DUP3 SWAP2 DUP8 DUP4 MSTORE DUP8 DUP4 ADD SWAP1 PUSH2 0x1BE1 JUMP JUMPDEST DUP6 MLOAD PUSH3 0x461BCD PUSH1 0xE5 SHL DUP2 MSTORE SWAP1 DUP2 ADD DUP8 SWAP1 MSTORE PUSH1 0x18 PUSH1 0x24 DUP3 ADD MSTORE PUSH32 0x496E76616C696420766572696669657220616464726573730000000000000000 PUSH1 0x44 DUP3 ADD MSTORE PUSH1 0x64 SWAP1 REVERT JUMPDEST POP SWAP1 CALLVALUE PUSH2 0x1F4 JUMPI DUP3 PUSH1 0x3 NOT CALLDATASIZE ADD SLT PUSH2 0x1F4 JUMPI PUSH2 0xED8 PUSH2 0x1C7C JUMP JUMPDEST PUSH1 0x2 SLOAD SWAP1 PUSH1 0xFF DUP3 AND ISZERO PUSH2 0xF1A JUMPI POP PUSH1 0xFF NOT AND PUSH1 0x2 SSTORE MLOAD CALLER DUP2 MSTORE PUSH32 0x5DB9EE0A495BF2E6FF9C91A7834C1BA4FDD244A5E8AA4E537BD38AEAE4B073AA SWAP1 PUSH1 0x20 SWAP1 LOG1 DUP1 RETURN JUMPDEST PUSH1 0x64 SWAP1 PUSH1 0x20 DUP5 MLOAD SWAP2 PUSH3 0x461BCD PUSH1 0xE5 SHL DUP4 MSTORE DUP3 ADD MSTORE PUSH1 0x14 PUSH1 0x24 DUP3 ADD MSTORE PUSH20 0x14185D5CD8589B194E881B9BDD081C185D5CD959 PUSH1 0x62 SHL PUSH1 0x44 DUP3 ADD MSTORE REVERT JUMPDEST DUP4 DUP3 CALLVALUE PUSH2 0x214 JUMPI DUP2 PUSH1 0x3 NOT CALLDATASIZE ADD SLT PUSH2 0x214 JUMPI PUSH1 0x20 SWAP1 MLOAD PUSH1 0x32 DUP2 MSTORE RETURN JUMPDEST POP DUP3 CALLVALUE PUSH2 0x43C JUMPI PUSH1 0x20 SWAP3 DUP4 PUSH1 0x3 NOT CALLDATASIZE ADD SLT PUSH2 0x214 JUMPI DUP1 CALLDATALOAD PUSH1 0x1 PUSH1 0x1 PUSH1 0x40 SHL SUB DUP2 GT PUSH2 0x1F4 JUMPI PUSH2 0xFA2 SWAP1 CALLDATASIZE SWAP1 DUP4 ADD PUSH2 0x18D4 JUMP JUMPDEST SWAP2 PUSH2 0xFAB PUSH2 0x1C7C JUMP JUMPDEST PUSH2 0xFB3 PUSH2 0x1D2E JUMP JUMPDEST PUSH2 0xFC2 PUSH1 0xFF PUSH1 0x7 SLOAD AND ISZERO PUSH2 0x1CD4 JUMP JUMPDEST PUSH2 0xFCA PUSH2 0x1D72 JUMP JUMPDEST PUSH1 0x2 PUSH2 0xFFC DUP7 DUP7 MLOAD PUSH2 0xFEC PUSH2 0x35A DUP9 MLOAD SWAP3 DUP5 DUP2 DUP2 DUP13 ADD SWAP6 PUSH2 0x34A DUP2 DUP4 DUP10 PUSH2 0x192F JUMP JUMPDEST DUP8 MLOAD DUP1 SWAP4 DUP2 SWAP3 DUP10 MLOAD SWAP3 DUP4 SWAP2 PUSH2 0x192F JUMP JUMPDEST DUP2 ADD PUSH1 0x9 DUP2 MSTORE SUB ADD SWAP1 KECCAK256 DUP3 PUSH2 0x1011 DUP3 SLOAD PUSH2 0x19E6 JUMP JUMPDEST DUP1 PUSH2 0x10AE JUMPI JUMPDEST POP PUSH1 0x1 DUP3 ADD SSTORE ADD SSTORE PUSH1 0xD SLOAD SWAP1 DUP2 ISZERO PUSH2 0x106B JUMPI POP PUSH1 0x0 NOT ADD PUSH1 0xD SSTORE TIMESTAMP PUSH1 0x6 SSTORE DUP2 MLOAD DUP4 DUP2 MSTORE PUSH32 0x8088DB29D4761A957C0A396FA3C5F3F369FBFCA4F1A83DAE8B4F76A31726246A SWAP2 DUP2 SWAP1 PUSH2 0xB0F SWAP1 DUP7 DUP4 ADD SWAP1 PUSH2 0x1BE1 JUMP JUMPDEST DUP4 MLOAD PUSH3 0x461BCD PUSH1 0xE5 SHL DUP2 MSTORE SWAP1 DUP2 ADD DUP6 SWAP1 MSTORE PUSH1 0x1B PUSH1 0x24 DUP3 ADD MSTORE PUSH32 0x436F756E7465723A2064656372656D656E74206F766572666C6F770000000000 PUSH1 0x44 DUP3 ADD MSTORE PUSH1 0x64 SWAP1 REVERT JUMPDEST PUSH1 0x1F DUP2 GT PUSH1 0x1 EQ PUSH2 0x10C4 JUMPI POP DUP2 SSTORE JUMPDEST DUP3 DUP9 PUSH2 0x1017 JUMP JUMPDEST DUP3 DUP3 MSTORE PUSH2 0x10DF PUSH1 0x1F DUP11 DUP5 KECCAK256 SWAP3 ADD PUSH1 0x5 SHR DUP3 ADD PUSH1 0x1 DUP4 ADD PUSH2 0x1D17 JUMP JUMPDEST DUP2 DUP4 SSTORE SSTORE PUSH2 0x10BD JUMP JUMPDEST POP DUP3 CALLVALUE PUSH2 0x43C JUMPI PUSH1 0x20 SWAP3 DUP4 PUSH1 0x3 NOT CALLDATASIZE ADD SLT PUSH2 0x214 JUMPI PUSH1 0x1 PUSH1 0x1 PUSH1 0x40 SHL SUB DUP2 CALLDATALOAD DUP2 DUP2 GT PUSH2 0x3DF JUMPI PUSH2 0x111B SWAP1 CALLDATASIZE SWAP1 DUP5 ADD PUSH2 0x18D4 JUMP JUMPDEST SWAP3 PUSH2 0x1124 PUSH2 0x1D2E JUMP JUMPDEST PUSH2 0x1133 PUSH1 0xFF PUSH1 0x7 SLOAD AND ISZERO PUSH2 0x1CD4 JUMP JUMPDEST PUSH2 0x113B PUSH2 0x1D72 JUMP JUMPDEST DUP4 MLOAD ISZERO PUSH2 0x13E2 JUMPI PUSH1 0x64 DUP5 MLOAD GT PUSH2 0x13A9 JUMPI DUP5 MLOAD SWAP2 PUSH1 0xFF DUP6 MLOAD SWAP4 DUP9 DUP2 DUP2 DUP10 ADD SWAP7 PUSH2 0x1164 DUP2 DUP4 DUP11 PUSH2 0x192F JUMP JUMPDEST DUP2 ADD PUSH1 0xC DUP2 MSTORE SUB ADD SWAP1 KECCAK256 SLOAD AND PUSH2 0x1366 JUMPI PUSH1 0x3 SWAP2 DUP3 SLOAD PUSH2 0x1182 DUP2 PUSH2 0x19E6 JUMP JUMPDEST PUSH2 0x132E JUMPI DUP7 MLOAD SWAP3 DUP4 GT PUSH2 0x131B JUMPI SWAP1 PUSH2 0x119D DUP10 SWAP6 SWAP5 SWAP4 SWAP3 PUSH2 0x19E6 JUMP JUMPDEST PUSH1 0x1F DUP2 GT PUSH2 0x12CF JUMPI JUMPDEST POP DUP5 SWAP1 PUSH1 0x1F DUP4 GT PUSH1 0x1 EQ PUSH2 0x124C JUMPI SWAP2 DUP1 PUSH1 0x1 SWAP7 SWAP5 SWAP3 PUSH2 0x11FB SWAP7 SWAP5 SWAP2 PUSH2 0x1241 JUMPI JUMPDEST POP PUSH1 0x0 NOT DUP3 DUP5 SHL SHR NOT AND SWAP1 DUP7 SHL OR SWAP1 SSTORE JUMPDEST TIMESTAMP PUSH1 0x5 SSTORE TIMESTAMP PUSH1 0x6 SSTORE PUSH1 0xFF NOT SWAP5 DUP5 DUP7 DUP3 SLOAD AND OR SWAP1 SSTORE DUP7 MLOAD DUP1 SWAP4 DUP2 SWAP3 DUP9 MLOAD SWAP3 DUP4 SWAP2 PUSH2 0x192F JUMP JUMPDEST DUP2 ADD PUSH1 0xC DUP2 MSTORE SUB ADD SWAP1 KECCAK256 SWAP2 DUP3 SLOAD AND OR SWAP1 SSTORE PUSH32 0x44CA9609D2FE597457041D7E98533A969452EF425C10A46D0DD9F074497EA1BA DUP3 MLOAD DUP5 DUP2 MSTORE DUP1 PUSH2 0x8D2 CALLER SWAP5 DUP8 DUP4 ADD SWAP1 PUSH2 0x1BE1 JUMP JUMPDEST SWAP1 POP DUP9 ADD MLOAD DUP12 PUSH2 0x11C6 JUMP JUMPDEST SWAP1 PUSH1 0x1F NOT DUP4 AND DUP5 DUP4 MSTORE PUSH32 0xC2575A0E9E593C00F959F8C92F12DB2869C3395A3B0502D05E2516446F71F85B SWAP3 JUMPDEST DUP2 DUP2 LT PUSH2 0x12B8 JUMPI POP SWAP3 PUSH1 0x1 SWAP7 SWAP5 SWAP3 DUP8 SWAP3 DUP3 PUSH2 0x11FB SWAP9 SWAP7 LT PUSH2 0x12A0 JUMPI JUMPDEST POP POP DUP2 SHL ADD SWAP1 SSTORE PUSH2 0x11D7 JUMP JUMPDEST DUP11 ADD MLOAD PUSH1 0x0 NOT DUP4 DUP7 SHL PUSH1 0xF8 AND SHR NOT AND SWAP1 SSTORE DUP12 DUP1 PUSH2 0x1294 JUMP JUMPDEST SWAP2 SWAP3 DUP8 PUSH1 0x1 DUP2 SWAP3 DUP7 DUP14 ADD MLOAD DUP2 SSTORE ADD SWAP5 ADD SWAP3 ADD PUSH2 0x1278 JUMP JUMPDEST PUSH2 0x1315 SWAP1 DUP5 DUP4 MSTORE PUSH32 0xC2575A0E9E593C00F959F8C92F12DB2869C3395A3B0502D05E2516446F71F85B PUSH1 0x1F DUP6 ADD PUSH1 0x5 SHR DUP2 ADD SWAP2 DUP9 DUP7 LT PUSH2 0x771 JUMPI PUSH1 0x1F ADD PUSH1 0x5 SHR ADD SWAP1 PUSH2 0x1D17 JUMP JUMPDEST DUP10 PUSH2 0x11A6 JUMP JUMPDEST PUSH4 0x4E487B71 PUSH1 0xE0 SHL DUP3 MSTORE PUSH1 0x41 DUP7 MSTORE PUSH1 0x24 DUP3 REVERT JUMPDEST DUP8 MLOAD PUSH3 0x461BCD PUSH1 0xE5 SHL DUP2 MSTORE DUP1 DUP8 ADD DUP11 SWAP1 MSTORE PUSH1 0x12 PUSH1 0x24 DUP3 ADD MSTORE PUSH18 0x44494420616C726561647920657869737473 PUSH1 0x70 SHL PUSH1 0x44 DUP3 ADD MSTORE PUSH1 0x64 SWAP1 REVERT JUMPDEST DUP6 MLOAD PUSH3 0x461BCD PUSH1 0xE5 SHL DUP2 MSTORE DUP1 DUP6 ADD DUP9 SWAP1 MSTORE PUSH1 0x19 PUSH1 0x24 DUP3 ADD MSTORE PUSH32 0x4964656E74696669657220616C726561647920696E2075736500000000000000 PUSH1 0x44 DUP3 ADD MSTORE PUSH1 0x64 SWAP1 REVERT JUMPDEST DUP5 MLOAD PUSH3 0x461BCD PUSH1 0xE5 SHL DUP2 MSTORE DUP1 DUP5 ADD DUP8 SWAP1 MSTORE PUSH1 0x13 PUSH1 0x24 DUP3 ADD MSTORE PUSH19 0x4964656E74696669657220746F6F206C6F6E67 PUSH1 0x68 SHL PUSH1 0x44 DUP3 ADD MSTORE PUSH1 0x64 SWAP1 REVERT JUMPDEST DUP5 MLOAD PUSH3 0x461BCD PUSH1 0xE5 SHL DUP2 MSTORE DUP1 DUP5 ADD DUP8 SWAP1 MSTORE PUSH1 0x1A PUSH1 0x24 DUP3 ADD MSTORE PUSH32 0x4964656E7469666965722063616E6E6F7420626520656D707479000000000000 PUSH1 0x44 DUP3 ADD MSTORE PUSH1 0x64 SWAP1 REVERT JUMPDEST POP SWAP1 CALLVALUE PUSH2 0x1F4 JUMPI DUP2 PUSH1 0x3 NOT CALLDATASIZE ADD SLT PUSH2 0x1F4 JUMPI PUSH1 0x1 PUSH1 0x1 PUSH1 0x40 SHL SUB SWAP1 DUP1 CALLDATALOAD DUP3 DUP2 GT PUSH2 0x3DB JUMPI PUSH2 0x1456 SWAP1 CALLDATASIZE SWAP1 DUP4 ADD PUSH2 0x18D4 JUMP JUMPDEST SWAP2 PUSH1 0x24 SWAP1 DUP2 CALLDATALOAD DUP2 DUP2 GT PUSH2 0x1EC JUMPI PUSH2 0x1470 SWAP1 CALLDATASIZE SWAP1 DUP6 ADD PUSH2 0x18D4 JUMP JUMPDEST SWAP3 PUSH2 0x1479 PUSH2 0x1C7C JUMP JUMPDEST PUSH2 0x1481 PUSH2 0x1D2E JUMP JUMPDEST PUSH2 0x1490 PUSH1 0xFF PUSH1 0x7 SLOAD AND ISZERO PUSH2 0x1CD4 JUMP JUMPDEST PUSH2 0x1498 PUSH2 0x1D72 JUMP JUMPDEST DUP5 MLOAD ISZERO PUSH2 0x17DF JUMPI PUSH2 0x3E8 DUP1 DUP7 MLOAD GT PUSH2 0x179D JUMPI DUP5 MLOAD ISZERO PUSH2 0x175B JUMPI DUP5 MLOAD GT PUSH2 0x1719 JUMPI PUSH1 0x32 PUSH1 0xD SLOAD LT ISZERO PUSH2 0x16D7 JUMPI SWAP1 DUP6 SWAP2 DUP3 MLOAD SWAP2 PUSH2 0x14D2 DUP4 PUSH2 0x1882 JUMP JUMPDEST DUP6 DUP4 MSTORE PUSH1 0x20 SWAP9 DUP10 DUP5 ADD SWAP3 TIMESTAMP DUP5 MSTORE DUP6 DUP6 ADD SWAP7 DUP3 DUP9 MSTORE PUSH2 0x1504 DUP13 DUP12 DUP2 PUSH1 0x60 DUP11 ADD SWAP11 DUP8 DUP13 MSTORE MLOAD SWAP4 DUP3 DUP6 DUP1 SWAP5 MLOAD SWAP4 DUP5 SWAP3 ADD PUSH2 0x192F JUMP JUMPDEST DUP2 ADD PUSH1 0x9 DUP2 MSTORE SUB ADD SWAP1 KECCAK256 SWAP6 MLOAD SWAP2 DUP3 MLOAD SWAP5 DUP6 GT PUSH2 0x16C6 JUMPI POP POP PUSH2 0x1526 DUP6 SLOAD PUSH2 0x19E6 JUMP JUMPDEST DUP12 PUSH1 0x1F DUP3 GT PUSH2 0x1698 JUMPI JUMPDEST POP POP DUP11 SWAP2 PUSH1 0x1F DUP5 GT PUSH1 0x1 EQ PUSH2 0x1603 JUMPI SWAP5 PUSH2 0x15CD SWAP5 DUP5 PUSH32 0xB5992AA9568EACC71D59E4909DD6598B92A9412825EFE4598975018EA0918D75 SWAP12 SWAP10 SWAP6 PUSH2 0xB0F SWAP10 SWAP6 PUSH1 0x2 SWAP6 PUSH2 0x15EB SWAP14 SWAP11 SWAP3 PUSH2 0x15F8 JUMPI JUMPDEST POP POP DUP2 PUSH1 0x1 SHL SWAP2 PUSH1 0x0 NOT SWAP1 PUSH1 0x3 SHL SHR NOT AND OR DUP3 SSTORE JUMPDEST MLOAD PUSH1 0x1 DUP3 ADD SSTORE SWAP3 MLOAD SWAP3 ADD DUP1 SLOAD SWAP2 MLOAD PUSH1 0x1 PUSH1 0x1 PUSH1 0xA8 SHL SUB NOT SWAP1 SWAP3 AND PUSH1 0xFF SWAP4 ISZERO ISZERO SWAP4 SWAP1 SWAP4 AND SWAP3 SWAP1 SWAP3 OR PUSH1 0x8 SWAP2 SWAP1 SWAP2 SHL PUSH2 0x100 PUSH1 0x1 PUSH1 0xA8 SHL SUB AND OR SWAP1 SSTORE JUMP JUMPDEST PUSH1 0x1 PUSH1 0xD SLOAD ADD PUSH1 0xD SSTORE TIMESTAMP PUSH1 0x6 SSTORE DUP6 MLOAD SWAP4 DUP5 SWAP4 DUP8 DUP6 MSTORE DUP8 DUP6 ADD SWAP1 PUSH2 0x1BE1 JUMP JUMPDEST SWAP1 DUP4 DUP3 SUB DUP9 DUP6 ADD MSTORE PUSH2 0x1BE1 JUMP JUMPDEST ADD MLOAD SWAP1 POP CODESIZE DUP1 PUSH2 0x157C JUMP JUMPDEST SWAP2 SWAP1 PUSH1 0x1F NOT DUP5 AND DUP7 DUP5 MSTORE DUP13 DUP5 KECCAK256 SWAP4 JUMPDEST DUP14 DUP3 DUP3 LT PUSH2 0x1682 JUMPI POP POP SWAP5 PUSH1 0x1 DUP6 PUSH2 0xB0F SWAP10 SWAP6 PUSH1 0x2 SWAP6 PUSH2 0x15EB SWAP14 SWAP11 SWAP6 PUSH32 0xB5992AA9568EACC71D59E4909DD6598B92A9412825EFE4598975018EA0918D75 SWAP16 SWAP14 SWAP10 PUSH2 0x15CD SWAP12 LT PUSH2 0x1669 JUMPI JUMPDEST POP POP POP DUP2 SHL ADD DUP3 SSTORE PUSH2 0x1591 JUMP JUMPDEST ADD MLOAD PUSH1 0x0 NOT PUSH1 0xF8 DUP5 PUSH1 0x3 SHL AND SHR NOT AND SWAP1 SSTORE CODESIZE DUP1 DUP1 PUSH2 0x165C JUMP JUMPDEST PUSH1 0x1 DUP6 SWAP7 DUP3 SWAP4 SWAP7 DUP7 ADD MLOAD DUP2 SSTORE ADD SWAP6 ADD SWAP4 ADD PUSH2 0x1612 JUMP JUMPDEST DUP7 DUP5 MSTORE DUP1 DUP5 KECCAK256 PUSH2 0x16BF SWAP3 PUSH1 0x1F DUP8 ADD PUSH1 0x5 SHR DUP3 ADD SWAP3 DUP8 LT PUSH2 0x771 JUMPI PUSH1 0x1F ADD PUSH1 0x5 SHR ADD SWAP1 PUSH2 0x1D17 JUMP JUMPDEST CODESIZE DUP12 PUSH2 0x1530 JUMP JUMPDEST PUSH4 0x4E487B71 PUSH1 0xE0 SHL DUP5 MSTORE PUSH1 0x41 SWAP1 MSTORE DUP3 REVERT JUMPDEST PUSH1 0x64 SWAP1 PUSH1 0x1A DUP5 PUSH1 0x20 DUP10 MLOAD SWAP4 PUSH3 0x461BCD PUSH1 0xE5 SHL DUP6 MSTORE DUP5 ADD MSTORE DUP3 ADD MSTORE PUSH32 0x4D6178696D756D20617474726962757465732072656163686564000000000000 PUSH1 0x44 DUP3 ADD MSTORE REVERT JUMPDEST PUSH1 0x64 SWAP1 PUSH1 0x18 DUP5 PUSH1 0x20 DUP10 MLOAD SWAP4 PUSH3 0x461BCD PUSH1 0xE5 SHL DUP6 MSTORE DUP5 ADD MSTORE DUP3 ADD MSTORE PUSH32 0x4174747269627574652076616C756520746F6F206C6F6E670000000000000000 PUSH1 0x44 DUP3 ADD MSTORE REVERT JUMPDEST DUP7 MLOAD PUSH3 0x461BCD PUSH1 0xE5 SHL DUP2 MSTORE PUSH1 0x20 DUP2 DUP5 ADD MSTORE PUSH1 0x1F DUP2 DUP7 ADD MSTORE PUSH32 0x4174747269627574652076616C75652063616E6E6F7420626520656D70747900 PUSH1 0x44 DUP3 ADD MSTORE PUSH1 0x64 SWAP1 REVERT JUMPDEST DUP7 MLOAD PUSH3 0x461BCD PUSH1 0xE5 SHL DUP2 MSTORE PUSH1 0x20 DUP2 DUP5 ADD MSTORE PUSH1 0x17 DUP2 DUP7 ADD MSTORE PUSH32 0x417474726962757465206E616D6520746F6F206C6F6E67000000000000000000 PUSH1 0x44 DUP3 ADD MSTORE PUSH1 0x64 SWAP1 REVERT JUMPDEST PUSH1 0x64 SWAP1 PUSH1 0x1E DUP5 PUSH1 0x20 DUP10 MLOAD SWAP4 PUSH3 0x461BCD PUSH1 0xE5 SHL DUP6 MSTORE DUP5 ADD MSTORE DUP3 ADD MSTORE PUSH32 0x417474726962757465206E616D652063616E6E6F7420626520656D7074790000 PUSH1 0x44 DUP3 ADD MSTORE REVERT JUMPDEST POP DUP3 CALLVALUE PUSH2 0x43C JUMPI PUSH1 0x20 CALLDATASIZE PUSH1 0x3 NOT ADD SLT PUSH2 0x43C JUMPI DUP3 CALLDATALOAD SWAP1 PUSH1 0x1 PUSH1 0x1 PUSH1 0x40 SHL SUB DUP3 GT PUSH2 0x43C JUMPI POP PUSH2 0x186D PUSH1 0x20 PUSH2 0x185B DUP2 SWAP6 PUSH1 0xFF SWAP5 CALLDATASIZE SWAP2 ADD PUSH2 0x18D4 JUMP JUMPDEST DUP2 DUP6 MLOAD SWAP4 DUP3 DUP6 DUP1 SWAP5 MLOAD SWAP4 DUP5 SWAP3 ADD PUSH2 0x192F JUMP JUMPDEST DUP2 ADD PUSH1 0xB DUP2 MSTORE SUB ADD SWAP1 KECCAK256 SLOAD AND SWAP1 MLOAD SWAP1 ISZERO ISZERO DUP2 MSTORE RETURN JUMPDEST PUSH1 0x80 DUP2 ADD SWAP1 DUP2 LT PUSH1 0x1 PUSH1 0x1 PUSH1 0x40 SHL SUB DUP3 GT OR PUSH2 0x189D JUMPI PUSH1 0x40 MSTORE JUMP JUMPDEST PUSH4 0x4E487B71 PUSH1 0xE0 SHL PUSH1 0x0 MSTORE PUSH1 0x41 PUSH1 0x4 MSTORE PUSH1 0x24 PUSH1 0x0 REVERT JUMPDEST SWAP1 PUSH1 0x1F DUP1 NOT SWAP2 ADD AND DUP2 ADD SWAP1 DUP2 LT PUSH1 0x1 PUSH1 0x1 PUSH1 0x40 SHL SUB DUP3 GT OR PUSH2 0x189D JUMPI PUSH1 0x40 MSTORE JUMP JUMPDEST DUP2 PUSH1 0x1F DUP3 ADD SLT ISZERO PUSH2 0x192A JUMPI DUP1 CALLDATALOAD SWAP1 PUSH1 0x1 PUSH1 0x1 PUSH1 0x40 SHL SUB DUP3 GT PUSH2 0x189D JUMPI PUSH1 0x40 MLOAD SWAP3 PUSH2 0x1908 PUSH1 0x1F DUP5 ADD PUSH1 0x1F NOT AND PUSH1 0x20 ADD DUP6 PUSH2 0x18B3 JUMP JUMPDEST DUP3 DUP5 MSTORE PUSH1 0x20 DUP4 DUP4 ADD ADD GT PUSH2 0x192A JUMPI DUP2 PUSH1 0x0 SWAP3 PUSH1 0x20 DUP1 SWAP4 ADD DUP4 DUP7 ADD CALLDATACOPY DUP4 ADD ADD MSTORE SWAP1 JUMP JUMPDEST PUSH1 0x0 DUP1 REVERT JUMPDEST PUSH1 0x0 JUMPDEST DUP4 DUP2 LT PUSH2 0x1942 JUMPI POP POP PUSH1 0x0 SWAP2 ADD MSTORE JUMP JUMPDEST DUP2 DUP2 ADD MLOAD DUP4 DUP3 ADD MSTORE PUSH1 0x20 ADD PUSH2 0x1932 JUMP JUMPDEST PUSH1 0x20 SWAP1 PUSH2 0x196C SWAP3 DUP3 PUSH1 0x40 MLOAD SWAP5 DUP4 DUP7 DUP1 SWAP6 MLOAD SWAP4 DUP5 SWAP3 ADD PUSH2 0x192F JUMP JUMPDEST DUP3 ADD SWAP1 DUP2 MSTORE SUB ADD SWAP1 KECCAK256 SWAP1 JUMP JUMPDEST PUSH1 0x24 CALLDATALOAD SWAP1 PUSH1 0x1 PUSH1 0x1 PUSH1 0xA0 SHL SUB DUP3 AND DUP3 SUB PUSH2 0x192A JUMPI JUMP JUMPDEST PUSH1 0x4 CALLDATALOAD SWAP1 PUSH1 0x1 PUSH1 0x1 PUSH1 0xA0 SHL SUB DUP3 AND DUP3 SUB PUSH2 0x192A JUMPI JUMP JUMPDEST SWAP1 PUSH1 0x40 PUSH1 0x3 NOT DUP4 ADD SLT PUSH2 0x192A JUMPI PUSH1 0x4 CALLDATALOAD PUSH1 0x1 PUSH1 0x1 PUSH1 0xA0 SHL SUB DUP2 AND DUP2 SUB PUSH2 0x192A JUMPI SWAP2 PUSH1 0x24 CALLDATALOAD SWAP1 PUSH1 0x1 PUSH1 0x1 PUSH1 0x40 SHL SUB DUP3 GT PUSH2 0x192A JUMPI PUSH2 0x19E3 SWAP2 PUSH1 0x4 ADD PUSH2 0x18D4 JUMP JUMPDEST SWAP1 JUMP JUMPDEST SWAP1 PUSH1 0x1 DUP3 DUP2 SHR SWAP3 AND DUP1 ISZERO PUSH2 0x1A16 JUMPI JUMPDEST PUSH1 0x20 DUP4 LT EQ PUSH2 0x1A00 JUMPI JUMP JUMPDEST PUSH4 0x4E487B71 PUSH1 0xE0 SHL PUSH1 0x0 MSTORE PUSH1 0x22 PUSH1 0x4 MSTORE PUSH1 0x24 PUSH1 0x0 REVERT JUMPDEST SWAP2 PUSH1 0x7F AND SWAP2 PUSH2 0x19F5 JUMP JUMPDEST PUSH1 0x3 SLOAD PUSH1 0x0 SWAP3 SWAP2 PUSH2 0x1A30 DUP3 PUSH2 0x19E6 JUMP JUMPDEST DUP1 DUP3 MSTORE SWAP2 PUSH1 0x1 SWAP1 DUP2 DUP2 AND SWAP1 DUP2 ISZERO PUSH2 0x1AA7 JUMPI POP PUSH1 0x1 EQ PUSH2 0x1A4E JUMPI POP POP POP JUMP JUMPDEST SWAP2 SWAP3 SWAP4 POP PUSH1 0x3 PUSH1 0x0 MSTORE PUSH32 0xC2575A0E9E593C00F959F8C92F12DB2869C3395A3B0502D05E2516446F71F85B SWAP2 PUSH1 0x0 SWAP3 JUMPDEST DUP5 DUP5 LT PUSH2 0x1A8F JUMPI POP POP PUSH1 0x20 SWAP3 POP ADD ADD SWAP1 JUMP JUMPDEST DUP1 SLOAD PUSH1 0x20 DUP6 DUP6 ADD DUP2 ADD SWAP2 SWAP1 SWAP2 MSTORE SWAP1 SWAP4 ADD SWAP3 DUP2 ADD PUSH2 0x1A7D JUMP JUMPDEST SWAP2 POP POP PUSH1 0x20 SWAP4 SWAP5 POP PUSH1 0xFF SWAP3 SWAP2 SWAP3 NOT AND DUP4 DUP4 ADD MSTORE ISZERO ISZERO PUSH1 0x5 SHL ADD ADD SWAP1 JUMP JUMPDEST PUSH1 0x8 SLOAD PUSH1 0x0 SWAP3 SWAP2 PUSH2 0x1AD4 DUP3 PUSH2 0x19E6 JUMP JUMPDEST DUP1 DUP3 MSTORE SWAP2 PUSH1 0x1 SWAP1 DUP2 DUP2 AND SWAP1 DUP2 ISZERO PUSH2 0x1AA7 JUMPI POP PUSH1 0x1 EQ PUSH2 0x1AF2 JUMPI POP POP POP JUMP JUMPDEST SWAP2 SWAP3 SWAP4 POP PUSH1 0x8 PUSH1 0x0 MSTORE PUSH32 0xF3F7A9FE364FAAB93B216DA50A3214154F22A0A2B415B23A84C8169E8B636EE3 SWAP2 PUSH1 0x0 SWAP3 JUMPDEST DUP5 DUP5 LT PUSH2 0x1B33 JUMPI POP POP PUSH1 0x20 SWAP3 POP ADD ADD SWAP1 JUMP JUMPDEST DUP1 SLOAD PUSH1 0x20 DUP6 DUP6 ADD DUP2 ADD SWAP2 SWAP1 SWAP2 MSTORE SWAP1 SWAP4 ADD SWAP3 DUP2 ADD PUSH2 0x1B21 JUMP JUMPDEST SWAP1 PUSH1 0x0 SWAP3 SWAP2 DUP1 SLOAD SWAP2 PUSH2 0x1B5C DUP4 PUSH2 0x19E6 JUMP JUMPDEST SWAP2 DUP3 DUP3 MSTORE PUSH1 0x1 SWAP4 DUP5 DUP2 AND SWAP1 DUP2 PUSH1 0x0 EQ PUSH2 0x1BBE JUMPI POP PUSH1 0x1 EQ PUSH2 0x1B7E JUMPI JUMPDEST POP POP POP POP JUMP JUMPDEST SWAP1 SWAP2 SWAP4 SWAP5 POP PUSH1 0x0 MSTORE PUSH1 0x20 SWAP3 DUP4 PUSH1 0x0 KECCAK256 SWAP3 DUP5 PUSH1 0x0 SWAP5 JUMPDEST DUP4 DUP7 LT PUSH2 0x1BAA JUMPI POP POP POP POP ADD ADD SWAP1 CODESIZE DUP1 DUP1 DUP1 PUSH2 0x1B78 JUMP JUMPDEST DUP1 SLOAD DUP6 DUP8 ADD DUP4 ADD MSTORE SWAP5 ADD SWAP4 DUP6 SWAP1 DUP3 ADD PUSH2 0x1B93 JUMP JUMPDEST SWAP3 SWAP5 POP POP POP PUSH1 0x20 SWAP4 SWAP5 POP PUSH1 0xFF NOT AND DUP4 DUP4 ADD MSTORE ISZERO ISZERO PUSH1 0x5 SHL ADD ADD SWAP1 CODESIZE DUP1 DUP1 DUP1 PUSH2 0x1B78 JUMP JUMPDEST SWAP1 PUSH1 0x20 SWAP2 PUSH2 0x1BFA DUP2 MLOAD DUP1 SWAP3 DUP2 DUP6 MSTORE DUP6 DUP1 DUP7 ADD SWAP2 ADD PUSH2 0x192F JUMP JUMPDEST PUSH1 0x1F ADD PUSH1 0x1F NOT AND ADD ADD SWAP1 JUMP JUMPDEST SWAP3 PUSH2 0x1C21 PUSH2 0x19E3 SWAP8 SWAP6 SWAP3 SWAP7 SWAP4 SWAP7 PUSH1 0xC0 DUP7 MSTORE PUSH1 0xC0 DUP7 ADD SWAP1 PUSH2 0x1BE1 JUMP JUMPDEST SWAP6 ISZERO ISZERO PUSH1 0x20 DUP6 ADD MSTORE PUSH1 0x40 DUP5 ADD MSTORE PUSH1 0x60 DUP4 ADD MSTORE ISZERO ISZERO PUSH1 0x80 DUP3 ADD MSTORE PUSH1 0xA0 DUP2 DUP5 SUB SWAP2 ADD MSTORE PUSH2 0x1BE1 JUMP JUMPDEST SWAP3 PUSH2 0x1C5F PUSH1 0x60 SWAP4 SWAP7 SWAP6 SWAP3 PUSH1 0x80 DUP7 MSTORE PUSH1 0x80 DUP7 ADD SWAP1 PUSH2 0x1BE1 JUMP JUMPDEST PUSH1 0x20 DUP6 ADD SWAP7 SWAP1 SWAP7 MSTORE ISZERO ISZERO PUSH1 0x40 DUP5 ADD MSTORE PUSH1 0x1 PUSH1 0x1 PUSH1 0xA0 SHL SUB AND SWAP2 ADD MSTORE JUMP JUMPDEST PUSH1 0x0 SLOAD PUSH1 0x1 PUSH1 0x1 PUSH1 0xA0 SHL SUB AND CALLER SUB PUSH2 0x1C90 JUMPI JUMP JUMPDEST PUSH1 0x64 PUSH1 0x40 MLOAD PUSH3 0x461BCD PUSH1 0xE5 SHL DUP2 MSTORE PUSH1 0x20 PUSH1 0x4 DUP3 ADD MSTORE PUSH1 0x20 PUSH1 0x24 DUP3 ADD MSTORE PUSH32 0x4F776E61626C653A2063616C6C6572206973206E6F7420746865206F776E6572 PUSH1 0x44 DUP3 ADD MSTORE REVERT JUMPDEST ISZERO PUSH2 0x1CDB JUMPI JUMP JUMPDEST PUSH1 0x40 MLOAD PUSH3 0x461BCD PUSH1 0xE5 SHL DUP2 MSTORE PUSH1 0x20 PUSH1 0x4 DUP3 ADD MSTORE PUSH1 0x14 PUSH1 0x24 DUP3 ADD MSTORE PUSH20 0x111251081A185CC81899595B881C995D9BDAD959 PUSH1 0x62 SHL PUSH1 0x44 DUP3 ADD MSTORE PUSH1 0x64 SWAP1 REVERT JUMPDEST DUP2 DUP2 LT PUSH2 0x1D22 JUMPI POP POP JUMP JUMPDEST PUSH1 0x0 DUP2 SSTORE PUSH1 0x1 ADD PUSH2 0x1D17 JUMP JUMPDEST PUSH1 0xFF PUSH1 0x2 SLOAD AND PUSH2 0x1D3A JUMPI JUMP JUMPDEST PUSH1 0x40 MLOAD PUSH3 0x461BCD PUSH1 0xE5 SHL DUP2 MSTORE PUSH1 0x20 PUSH1 0x4 DUP3 ADD MSTORE PUSH1 0x10 PUSH1 0x24 DUP3 ADD MSTORE PUSH16 0x14185D5CD8589B194E881C185D5CD959 PUSH1 0x82 SHL PUSH1 0x44 DUP3 ADD MSTORE PUSH1 0x64 SWAP1 REVERT JUMPDEST PUSH1 0x2 PUSH1 0x1 SLOAD EQ PUSH2 0x1D83 JUMPI PUSH1 0x2 PUSH1 0x1 SSTORE JUMP JUMPDEST PUSH1 0x40 MLOAD PUSH3 0x461BCD PUSH1 0xE5 SHL DUP2 MSTORE PUSH1 0x20 PUSH1 0x4 DUP3 ADD MSTORE PUSH1 0x1F PUSH1 0x24 DUP3 ADD MSTORE PUSH32 0x5265656E7472616E637947756172643A207265656E7472616E742063616C6C00 PUSH1 0x44 DUP3 ADD MSTORE PUSH1 0x64 SWAP1 REVERT JUMPDEST ISZERO PUSH2 0x1DCF JUMPI JUMP JUMPDEST PUSH1 0x40 MLOAD PUSH3 0x461BCD PUSH1 0xE5 SHL DUP2 MSTORE PUSH1 0x20 PUSH1 0x4 DUP3 ADD MSTORE PUSH1 0x18 PUSH1 0x24 DUP3 ADD MSTORE PUSH32 0x41747472696275746520646F6573206E6F742065786973740000000000000000 PUSH1 0x44 DUP3 ADD MSTORE PUSH1 0x64 SWAP1 REVERT JUMPDEST ISZERO PUSH2 0x1E1B JUMPI JUMP JUMPDEST PUSH1 0x40 MLOAD PUSH3 0x461BCD PUSH1 0xE5 SHL DUP2 MSTORE PUSH1 0x20 PUSH1 0x4 DUP3 ADD MSTORE PUSH1 0x27 PUSH1 0x24 DUP3 ADD MSTORE PUSH32 0x4E6F7420617574686F72697A656420746F206163636573732074686973206174 PUSH1 0x44 DUP3 ADD MSTORE PUSH7 0x74726962757465 PUSH1 0xC8 SHL PUSH1 0x64 DUP3 ADD MSTORE PUSH1 0x84 SWAP1 REVERT JUMPDEST ISZERO PUSH2 0x1E77 JUMPI JUMP JUMPDEST PUSH1 0x40 MLOAD PUSH3 0x461BCD PUSH1 0xE5 SHL DUP2 MSTORE PUSH1 0x20 PUSH1 0x4 DUP3 ADD MSTORE PUSH1 0xF PUSH1 0x24 DUP3 ADD MSTORE PUSH15 0x496E76616C69642061646472657373 PUSH1 0x88 SHL PUSH1 0x44 DUP3 ADD MSTORE PUSH1 0x64 SWAP1 REVERT JUMPDEST ISZERO PUSH2 0x1EB5 JUMPI JUMP JUMPDEST PUSH1 0x40 MLOAD PUSH3 0x461BCD PUSH1 0xE5 SHL DUP2 MSTORE PUSH1 0x20 PUSH1 0x4 DUP3 ADD MSTORE PUSH1 0x12 PUSH1 0x24 DUP3 ADD MSTORE PUSH18 0x11125108191BD95CC81B9BDD08195E1A5CDD PUSH1 0x72 SHL PUSH1 0x44 DUP3 ADD MSTORE PUSH1 0x64 SWAP1 REVERT INVALID LOG2 PUSH5 0x6970667358 0x22 SLT KECCAK256 SHL NOT GASPRICE STOP PUSH5 0x5CB02A94C0 PREVRANDAO DUP13 DUP3 SWAP13 INVALID 0xE4 CREATE2 PUSH30 0x32ECBAF39743017F262FFF3B535264736F6C634300081400330000000000 "},"methodIdentifiers":{"MAX_ATTRIBUTES()":"3aa1b5ca","MAX_ATTRIBUTE_LENGTH()":"4b9802f8","MAX_IDENTIFIER_LENGTH()":"f3d310bf","addAttribute(string,string)":"2ba56834","attributes(string)":"9bc3a000","authorizedAccess(address,string)":"8c15f62d","createDID(string)":"3457d3e2","deactivateDID()":"767bc20e","getAttribute(string)":"e8a51fca","getAttributeCount()":"c93ead1b","getAttributeDetails(string)":"e3725def","getDIDDetails()":"967a455f","grantAccess(uint256,address,string)":"a9595ffb","hasAccess(address,uint256,address,string)":"fb99d007","owner()":"8da5cb5b","pause()":"8456cb59","paused()":"5c975abb","removeAttribute(string)":"37714208","renounceOwnership()":"715018a6","revokeAccess(address,string)":"6a44cac9","revokeDID(string)":"cfe3b347","selfDID()":"e4a94adc","supportedIDTypes(string)":"0b42f3fd","transferOwnership(address)":"f2fde38b","unpause()":"3f4ba83a","userDIDs(address,uint256)":"6aab3cef","verifyAttribute(string,address)":"45e8846f"}}}}}