{"contracts/AadharDID.sol":{"AadharDID":{"abi":[{"anonymous":false,"inputs":[{"indexed":true,"internalType":"address","name":"owner","type":"address"},{"indexed":false,"internalType":"string","name":"identifier","type":"string"},{"indexed":false,"internalType":"string","name":"aadharNumber","type":"string"}],"name":"AadharCreated","type":"event"},{"anonymous":false,"inputs":[{"indexed":true,"internalType":"address","name":"to","type":"address"},{"indexed":false,"internalType":"string","name":"attribute","type":"string"}],"name":"AccessGranted","type":"event"},{"anonymous":false,"inputs":[{"indexed":true,"internalType":"address","name":"to","type":"address"},{"indexed":false,"internalType":"string","name":"attribute","type":"string"}],"name":"AccessRevoked","type":"event"},{"anonymous":false,"inputs":[{"indexed":false,"internalType":"string","name":"name","type":"string"},{"indexed":false,"internalType":"string","name":"value","type":"string"}],"name":"AttributeAdded","type":"event"},{"anonymous":false,"inputs":[{"indexed":false,"internalType":"string","name":"name","type":"string"}],"name":"AttributeRemoved","type":"event"},{"anonymous":false,"inputs":[{"indexed":false,"internalType":"string","name":"name","type":"string"},{"indexed":true,"internalType":"address","name":"verifier","type":"address"}],"name":"AttributeVerified","type":"event"},{"anonymous":false,"inputs":[{"indexed":false,"internalType":"string","name":"identifier","type":"string"},{"indexed":true,"internalType":"address","name":"owner","type":"address"}],"name":"DIDCreated","type":"event"},{"anonymous":false,"inputs":[{"indexed":false,"internalType":"string","name":"identifier","type":"string"}],"name":"DIDDeactivated","type":"event"},{"anonymous":false,"inputs":[{"indexed":false,"internalType":"string","name":"identifier","type":"string"},{"indexed":false,"internalType":"string","name":"reason","type":"string"}],"name":"DIDRevoked","type":"event"},{"anonymous":false,"inputs":[{"indexed":true,"internalType":"address","name":"previousOwner","type":"address"},{"indexed":true,"internalType":"address","name":"newOwner","type":"address"}],"name":"OwnershipTransferred","type":"event"},{"anonymous":false,"inputs":[{"indexed":false,"internalType":"address","name":"account","type":"address"}],"name":"Paused","type":"event"},{"anonymous":false,"inputs":[{"indexed":false,"internalType":"address","name":"account","type":"address"}],"name":"Unpaused","type":"event"},{"inputs":[],"name":"MAX_ATTRIBUTES","outputs":[{"internalType":"uint256","name":"","type":"uint256"}],"stateMutability":"view","type":"function"},{"inputs":[],"name":"MAX_ATTRIBUTE_LENGTH","outputs":[{"internalType":"uint256","name":"","type":"uint256"}],"stateMutability":"view","type":"function"},{"inputs":[],"name":"MAX_IDENTIFIER_LENGTH","outputs":[{"internalType":"uint256","name":"","type":"uint256"}],"stateMutability":"view","type":"function"},{"inputs":[{"internalType":"uint256","name":"","type":"uint256"}],"name":"aadharDetails","outputs":[{"internalType":"string","name":"name","type":"string"},{"internalType":"string","name":"dateOfBirth","type":"string"},{"internalType":"string","name":"gender","type":"string"},{"internalType":"string","name":"addr","type":"string"},{"internalType":"string","name":"photoHash","type":"string"},{"internalType":"string","name":"aadharNumber","type":"string"}],"stateMutability":"view","type":"function"},{"inputs":[{"internalType":"string","name":"name","type":"string"},{"internalType":"string","name":"value","type":"string"}],"name":"addAttribute","outputs":[{"internalType":"bool","name":"","type":"bool"}],"stateMutability":"nonpayable","type":"function"},{"inputs":[{"internalType":"string","name":"","type":"string"}],"name":"attributes","outputs":[{"internalType":"string","name":"value","type":"string"},{"internalType":"uint256","name":"timestamp","type":"uint256"},{"internalType":"bool","name":"isVerified","type":"bool"},{"internalType":"address","name":"verifiedBy","type":"address"}],"stateMutability":"view","type":"function"},{"inputs":[{"internalType":"address","name":"","type":"address"},{"internalType":"string","name":"","type":"string"}],"name":"authorizedAccess","outputs":[{"internalType":"bool","name":"","type":"bool"}],"stateMutability":"view","type":"function"},{"inputs":[{"internalType":"string","name":"identifier","type":"string"},{"internalType":"string","name":"name","type":"string"},{"internalType":"string","name":"dateOfBirth","type":"string"},{"internalType":"string","name":"gender","type":"string"},{"internalType":"string","name":"addr","type":"string"},{"internalType":"string","name":"photoHash","type":"string"},{"internalType":"string","name":"aadharNumber","type":"string"}],"name":"createAadharDID","outputs":[],"stateMutability":"nonpayable","type":"function"},{"inputs":[{"internalType":"string","name":"identifier","type":"string"}],"name":"createDID","outputs":[{"internalType":"bool","name":"","type":"bool"}],"stateMutability":"nonpayable","type":"function"},{"inputs":[],"name":"deactivateDID","outputs":[{"internalType":"bool","name":"","type":"bool"}],"stateMutability":"nonpayable","type":"function"},{"inputs":[{"internalType":"address","name":"owner","type":"address"},{"internalType":"uint256","name":"didIndex","type":"uint256"},{"internalType":"string","name":"attribute","type":"string"}],"name":"getAadharAttribute","outputs":[{"internalType":"string","name":"","type":"string"}],"stateMutability":"view","type":"function"},{"inputs":[{"internalType":"address","name":"owner","type":"address"},{"internalType":"uint256","name":"didIndex","type":"uint256"}],"name":"getAadharDetails","outputs":[{"internalType":"string","name":"identifier","type":"string"},{"internalType":"string","name":"name","type":"string"},{"internalType":"string","name":"dateOfBirth","type":"string"},{"internalType":"string","name":"gender","type":"string"},{"internalType":"string","name":"addr","type":"string"},{"internalType":"string","name":"photoHash","type":"string"},{"internalType":"string","name":"aadharNumber","type":"string"},{"internalType":"bool","name":"active","type":"bool"},{"internalType":"uint256","name":"createdAt","type":"uint256"},{"internalType":"uint256","name":"updatedAt","type":"uint256"}],"stateMutability":"view","type":"function"},{"inputs":[{"internalType":"string","name":"name","type":"string"}],"name":"getAttribute","outputs":[{"internalType":"string","name":"","type":"string"}],"stateMutability":"view","type":"function"},{"inputs":[],"name":"getAttributeCount","outputs":[{"internalType":"uint256","name":"","type":"uint256"}],"stateMutability":"view","type":"function"},{"inputs":[{"internalType":"string","name":"name","type":"string"}],"name":"getAttributeDetails","outputs":[{"internalType":"string","name":"value","type":"string"},{"internalType":"uint256","name":"timestamp","type":"uint256"},{"internalType":"bool","name":"isVerified","type":"bool"},{"internalType":"address","name":"verifiedBy","type":"address"}],"stateMutability":"view","type":"function"},{"inputs":[],"name":"getDIDDetails","outputs":[{"internalType":"string","name":"identifier","type":"string"},{"internalType":"bool","name":"active","type":"bool"},{"internalType":"uint256","name":"createdAt","type":"uint256"},{"internalType":"uint256","name":"updatedAt","type":"uint256"},{"internalType":"bool","name":"isRevoked","type":"bool"},{"internalType":"string","name":"revocationReason","type":"string"}],"stateMutability":"view","type":"function"},{"inputs":[{"internalType":"uint256","name":"didIndex","type":"uint256"},{"internalType":"address","name":"to","type":"address"},{"internalType":"string","name":"attribute","type":"string"}],"name":"grantAccess","outputs":[{"internalType":"bool","name":"","type":"bool"}],"stateMutability":"nonpayable","type":"function"},{"inputs":[{"internalType":"address","name":"owner","type":"address"},{"internalType":"uint256","name":"didIndex","type":"uint256"},{"internalType":"address","name":"accessor","type":"address"},{"internalType":"string","name":"attribute","type":"string"}],"name":"hasAccess","outputs":[{"internalType":"bool","name":"","type":"bool"}],"stateMutability":"view","type":"function"},{"inputs":[],"name":"owner","outputs":[{"internalType":"address","name":"","type":"address"}],"stateMutability":"view","type":"function"},{"inputs":[],"name":"pause","outputs":[],"stateMutability":"nonpayable","type":"function"},{"inputs":[],"name":"paused","outputs":[{"internalType":"bool","name":"","type":"bool"}],"stateMutability":"view","type":"function"},{"inputs":[{"internalType":"string","name":"name","type":"string"}],"name":"removeAttribute","outputs":[{"internalType":"bool","name":"","type":"bool"}],"stateMutability":"nonpayable","type":"function"},{"inputs":[],"name":"renounceOwnership","outputs":[],"stateMutability":"nonpayable","type":"function"},{"inputs":[{"internalType":"address","name":"from","type":"address"},{"internalType":"string","name":"attribute","type":"string"}],"name":"revokeAccess","outputs":[{"internalType":"bool","name":"","type":"bool"}],"stateMutability":"nonpayable","type":"function"},{"inputs":[{"internalType":"string","name":"reason","type":"string"}],"name":"revokeDID","outputs":[{"internalType":"bool","name":"","type":"bool"}],"stateMutability":"nonpayable","type":"function"},{"inputs":[],"name":"selfDID","outputs":[{"internalType":"string","name":"identifier","type":"string"},{"internalType":"bool","name":"active","type":"bool"},{"internalType":"uint256","name":"createdAt","type":"uint256"},{"internalType":"uint256","name":"updatedAt","type":"uint256"},{"internalType":"bool","name":"isRevoked","type":"bool"},{"internalType":"string","name":"revocationReason","type":"string"}],"stateMutability":"view","type":"function"},{"inputs":[{"internalType":"string","name":"","type":"string"}],"name":"supportedIDTypes","outputs":[{"internalType":"bool","name":"","type":"bool"}],"stateMutability":"view","type":"function"},{"inputs":[{"internalType":"address","name":"newOwner","type":"address"}],"name":"transferOwnership","outputs":[],"stateMutability":"nonpayable","type":"function"},{"inputs":[],"name":"unpause","outputs":[],"stateMutability":"nonpayable","type":"function"},{"inputs":[{"internalType":"uint256","name":"didIndex","type":"uint256"},{"internalType":"string","name":"name","type":"string"},{"internalType":"string","name":"dateOfBirth","type":"string"},{"internalType":"string","name":"gender","type":"string"},{"internalType":"string","name":"addr","type":"string"},{"internalType":"string","name":"photoHash","type":"string"},{"internalType":"string","name":"aadharNumber","type":"string"}],"name":"updateAadharDetails","outputs":[],"stateMutability":"nonpayable","type":"function"},{"inputs":[{"internalType":"address","name":"","type":"address"},{"internalType":"uint256","name":"","type":"uint256"}],"name":"userDIDs","outputs":[{"internalType":"string","name":"identifier","type":"string"},{"internalType":"bool","name":"active","type":"bool"},{"internalType":"uint256","name":"createdAt","type":"uint256"},{"internalType":"uint256","name":"updatedAt","type":"uint256"},{"internalType":"bool","name":"isRevoked","type":"bool"},{"internalType":"string","name":"revocationReason","type":"string"}],"stateMutability":"view","type":"function"},{"inputs":[{"internalType":"string","name":"name","type":"string"},{"internalType":"address","name":"verifier","type":"address"}],"name":"verifyAttribute","outputs":[{"internalType":"bool","name":"","type":"bool"}],"stateMutability":"nonpayable","type":"function"}],"evm":{"bytecode":{"linkReferences":{},"object":"6080806040523461007c5760008054336001600160a01b0319821681178355916001600160a01b03909116907f8be0079c531659141344cd1fd0a4f28419497f9722a3daafe3b4186f6b6457e09080a360018055600160ff198060025416600255426005554260065560045416176004556138b990816100828239f35b600080fdfe6080604052600436101561001257600080fd5b60003560e01c80630b42f3fd14612dc35780630d87c827146122845780632ba5683414611e975780633457d3e214611b925780633771420814611a055780633aa1b5ca146119e95780633f4ba83a1461195557806341638a5d1461171257806345e8846f1461155c5780634b9802f81461153f5780635c975abb1461151c5780635e5a8d33146114bf5780636a44cac91461140a5780636aab3cef1461137d5780637052582314611270578063715018a614611217578063767bc20e1461113c5780638456cb59146110e25780638c15f62d146110a35780638da5cb5b1461107a578063967a455f1461101f5780639bc3a00014610f91578063a9595ffb14610f4a578063c93ead1b14610f2c578063cfe3b34714610cc7578063e3725def14610bdd578063e4a94adc14610b7a578063e8a51fca14610a71578063f2fde38b146109a8578063f3d310bf1461098c578063f9a33258146101e85763fb99d0071461017c57600080fd5b346101e35760803660031901126101e357610195612f22565b604435906001600160a01b03821682036101e357606435906001600160401b0382116101e3576020926101cf6101d9933690600401612e83565b9160243590613809565b6040519015158152f35b600080fd5b346101e35760e03660031901126101e3576024356001600160401b0381116101e357610218903690600401612e83565b6044356001600160401b0381116101e357610237903690600401612e83565b906064356001600160401b0381116101e357610257903690600401612e83565b6084356001600160401b0381116101e357610276903690600401612e83565b9060a4356001600160401b0381116101e357610296903690600401612e83565b60c4356001600160401b0381116101e3576102b5903690600401612e83565b6000549091906001600160a01b0316330361095357604051946102d786612e11565b8552602085019586526040850192835260608501938452608085015260a0840152600435600052600f60205260406000209383518051906001600160401b0382116105f15781906103288854612fe7565b601f8111610921575b50602090601f83116001146108bb576000926108b0575b50508160011b916000199060031b1c19161785555b5180516001600160401b0381116105f15780600187019261037e8454612fe7565b601f811161087e575b50602090601f83116001146108185760009261080d575b50508160011b916000199060031b1c19161790555b51805160028501916001600160401b0382116105f15781906103d58454612fe7565b601f81116107db575b50602090601f83116001146107755760009261076a575b50508160011b916000199060031b1c19161790555b519182516001600160401b0381116105f1576104296003830154612fe7565b601f8111610735575b506020601f82116001146106c757819293946000926106bc575b50508160011b916000199060031b1c19161760038201555b60808201518051906001600160401b0382116105f1576104876004840154612fe7565b601f8111610687575b50602090601f831160011461061257918060a09492600594600092610607575b50508160011b916000199060031b1c19161760048201555b019101519081516001600160401b0381116105f1576104e78254612fe7565b601f81116105b4575b50602092601f82116001146105505792819293600092610545575b50508160011b916000199060031b1c19161790555b33600052600e6020526105396004356040600020612fb5565b50600342910155600080f35b01519050838061050b565b601f198216938360005260206000209160005b86811061059c5750836001959610610583575b505050811b019055610520565b015160001960f88460031b161c19169055838080610576565b91926020600181928685015181550194019201610563565b6105e190836000526020600020601f840160051c810191602085106105e7575b601f0160051c019061329e565b836104f0565b90915081906105d4565b634e487b7160e01b600052604160045260246000fd5b0151905086806104b0565b906004840160005260206000209160005b601f198516811061066f57509260a0949260019260059583601f19811610610656575b505050811b0160048201556104c8565b015160001960f88460031b161c19169055868080610646565b91926020600181928685015181550194019201610623565b6106b690600485016000526020600020601f850160051c810191602086106105e757601f0160051c019061329e565b84610490565b01519050848061044c565b6003830160005260206000209060005b601f198416811061071d5750600193949583601f19811610610704575b505050811b016003820155610464565b015160001960f88460031b161c191690558480806106f4565b9091602060018192858a0151815501930191016106d7565b61076490600384016000526020600020601f840160051c810191602085106105e757601f0160051c019061329e565b84610432565b0151905086806103f5565b6000858152602081209350601f198516905b8181106107c357509084600195949392106107aa575b505050811b01905561040a565b015160001960f88460031b161c1916905586808061079d565b92936020600181928786015181550195019301610787565b61080790856000526020600020601f850160051c810191602086106105e757601f0160051c019061329e565b876103de565b01519050878061039e565b6000858152602081209350601f198516905b818110610866575090846001959493921061084d575b505050811b0190556103b3565b015160001960f88460031b161c19169055878080610840565b9293602060018192878601518155019501930161082a565b6108aa90856000526020600020601f850160051c810191602086106105e757601f0160051c019061329e565b88610387565b015190508780610348565b6000898152602081209350601f198516905b81811061090957509084600195949392106108f0575b505050811b01855561035d565b015160001960f88460031b161c191690558780806108e3565b929360206001819287860151815501950193016108cd565b61094d90896000526020600020601f850160051c810191602086106105e757601f0160051c019061329e565b88610331565b60405162461bcd60e51b81526020600482015260116024820152702737ba103a3432902224a21037bbb732b960791b6044820152606490fd5b346101e35760003660031901126101e357602060405160648152f35b346101e35760203660031901126101e3576109c1612f22565b6109c9613246565b6001600160a01b03908116908115610a1d57600054826bffffffffffffffffffffffff60a01b821617600055167f8be0079c531659141344cd1fd0a4f28419497f9722a3daafe3b4186f6b6457e0600080a3005b60405162461bcd60e51b815260206004820152602660248201527f4f776e61626c653a206e6577206f776e657220697320746865207a65726f206160448201526564647265737360d01b6064820152608490fd5b346101e3576020806003193601126101e357600435906001600160401b0382116101e357610b3d610b2082610aad610b36953690600401612e83565b610abc60ff60075416156135e5565b60405190610af1610aea825193858181860196610ada81838a612ed9565b8101600981520301902054612fe7565b15156136c2565b6000546001600160a01b031633148015610b55575b610b0f906133f1565b604051938492839251928391612ed9565b810160098152030190206040519384809261313a565b0383612e62565b610b51604051928284938452830190612f4e565b0390f35b5033600052600a8352610b0f60ff610b71604060002084612efc565b54169050610b06565b346101e35760003660031901126101e357604051610ba281610b9b81613021565b0382612e62565b60ff6004541690610b5160055460065460ff600754169060405192610bd184610bca816130b3565b0385612e62565b604051968796876131d0565b346101e3576020806003193601126101e3576004356001600160401b0381116101e357610c0e903690600401612e83565b610c1d60ff60075416156135e5565b610b516060610c6384604051610c43610aea8751928481818b0195610ada818389612ed9565b6000546001600160a01b039690871633148015610b5557610b0f906133f1565b8101600981520301902092604051610c7a81612e2c565b600260405195610c9587610c8e818461313a565b0388612e62565b8683526001810154809884015201549160ff831615159283604084015260081c16928391015260405194859485613211565b346101e3576020806003193601126101e3576001600160401b036004358181116101e357610cf9903690600401612e83565b610d01613246565b610d09613628565b610d1860ff60075416156135e5565b610d2061366c565b805115610ee75760019160ff19908382600754161760075582519081116105f157610d4c600854612fe7565b601f8111610e99575b5084601f8211600114610dee5791817ff47a4f2302a3334a22353c5748d420f032e5f784e851777209232d29d16933359492610dd594600091610de3575b50600019600383901b1c191690861b176008555b600454166004554260065560405191829160408352610dc860408401613021565b9083820388850152612f4e565b0390a1808055604051908152f35b905083015188610d93565b908491601f1982169060086000527ff3f7a9fe364faab93b216da50a3214154f22a0a2b415b23a84c8169e8b636ee39160005b89828210610e83575050918391610dd596947ff47a4f2302a3334a22353c5748d420f032e5f784e851777209232d29d169333598969410610e6a575b5050811b01600855610da7565b85015160001960f88460031b161c191690558880610e5d565b8389015185558996909401939283019201610e21565b610ee19060086000527ff3f7a9fe364faab93b216da50a3214154f22a0a2b415b23a84c8169e8b636ee3601f840160051c8101918885106105e757601f0160051c019061329e565b85610d55565b60405162461bcd60e51b815260048101849052601a60248201527f5265766f636174696f6e20726561736f6e2072657175697265640000000000006044820152606490fd5b346101e35760003660031901126101e3576020600d54604051908152f35b346101e35760603660031901126101e357610f63612f38565b6044356001600160401b0381116101e357602091610f886101d9923690600401612e83565b9060043561370e565b346101e35760203660031901126101e3576004356001600160401b0381116101e3576020610fc6610fd9923690600401612e83565b8160405193828580945193849201612ed9565b8101600981520301902060405190610ff582610b36818461313a565b610b516002600183015492015460405193849360ff60018060a01b038460081c1693169185613211565b346101e35760003660031901126101e35760ff6007541661104081156135e5565b60ff6004541690610b5160055460065492604051936110698561106281613021565b0386612e62565b60405192610bd184610bca816130b3565b346101e35760003660031901126101e3576000546040516001600160a01b039091168152602090f35b346101e357602060ff6110d66110b836612f73565b6001600160a01b039091166000908152600a85526040902090612efc565b54166040519015158152f35b346101e35760003660031901126101e3576110fb613246565b611103613628565b600160ff1960025416176002557f62e78cea01bee320cd4e420270b5ea74000d11b0c9f74754ebdbfc544b05a2586020604051338152a1005b346101e35760003660031901126101e357611155613246565b61115d613628565b61116c60ff60075416156135e5565b61117461366c565b60045460ff8116156111d25760ff1916600455426006557f4360f12f602ccecefb32480e5314d0d3f57d38db8f52c76d8fdf4c39596c1c2860405160208152806111c060208201613021565b0390a160018055602060405160018152f35b60405162461bcd60e51b815260206004820152601760248201527f44494420697320616c726561647920696e6163746976650000000000000000006044820152606490fd5b346101e35760003660031901126101e357611230613246565b600080546001600160a01b0319811682556001600160a01b03167f8be0079c531659141344cd1fd0a4f28419497f9722a3daafe3b4186f6b6457e08280a3005b346101e35760203660031901126101e357600435600052600f6020526113376040600020610b51600561136f604051936112ae85611062818461313a565b6113616040516112c581610b9b816001870161313a565b6113536040516112dc81610b9b816002890161313a565b611345604051936112f4856110628160038b0161313a565b611323604051976113138961130c816004850161313a565b038a612e62565b61130c604051809c81930161313a565b6040519b8c9b60c08d5260c08d0190612f4e565b908b820360208d0152612f4e565b9089820360408b0152612f4e565b908782036060890152612f4e565b908582036080870152612f4e565b9083820360a0850152612f4e565b346101e35760403660031901126101e357611396612f22565b6001600160a01b03166000908152600e602052604090208054602435908110156101e3576113c391612fb5565b506040516113d581610b9b818561313a565b610b51600560ff600185015416936002810154600382015490610bd160ff60048501541693610bca604051809781930161313a565b346101e3576114ad7f51cbcaaca6ae26944c6280c966a07b04ca5c6766d82ca497ded152579431468d61143c36612f73565b9290611446613246565b61144e613628565b61145d60ff60075416156135e5565b61146561366c565b6001600160a01b03169261147a8415156137cb565b83600052600a602052611491604060002082612efc565b60ff198154169055604051918291602083526020830190612f4e565b0390a260018055602060405160018152f35b346101e35760603660031901126101e3576114d8612f22565b6044356001600160401b0381116101e357610b51916114fe611508923690600401612e83565b906024359061344d565b604051918291602083526020830190612f4e565b346101e35760003660031901126101e357602060ff600254166040519015158152f35b346101e35760003660031901126101e35760206040516103e88152f35b346101e35760403660031901126101e3576004356001600160401b0381116101e35761158c903690600401612e83565b611594612f38565b61159c613246565b6115a4613628565b6115b360ff60075416156135e5565b6115bb61366c565b6040519180516115db610aea602095868181870195610ada818389612ed9565b6001600160a01b0383169283156116cd579161169a60016116bd9361168a7f1c564f9c63901c7b3617b5a5a8d210f8871f28d4afa53586ed6f670abe7e220a9660026040518b81895161162f81838a612ed9565b81016009815203019020018460ff1982541617905560026040518b81895161165881838a612ed9565b600990820190815203019020018054610100600160a81b03191660089290921b610100600160a81b0316919091179055565b6040519283918551928391612ed9565b820191600983528781429403019020015560405191829186835286830190612f4e565b0390a26001805560405160018152f35b60405162461bcd60e51b815260048101869052601860248201527f496e76616c6964207665726966696572206164647265737300000000000000006044820152606490fd5b346101e35760403660031901126101e35761172b612f22565b6001600160a01b0381166000818152600e602052604090205460243592611768916117579085106133b0565b61175f6132b5565b90843391613809565b1561190057600052600e6020528060406000209061178591612fb5565b5090600052600f602052604060002090600181015460ff1660028201546003830154906040516117b681809661313a565b036117c19085612e62565b60405194856117d0818361313a565b036117db9087612e62565b604051806117ec816001850161313a565b036117f79082612e62565b60405180611808816002860161313a565b036118139082612e62565b6040519081611825816003870161313a565b036118309083612e62565b6040519283611842816004880161313a565b0361184d9085612e62565b604051806005819701906118609161313a565b0361186b9086612e62565b604051998a99610140808c528b0161188291612f4e565b8a810360208c015261189391612f4e565b89810360408b01526118a491612f4e565b88810360608a01526118b591612f4e565b87810360808901526118c691612f4e565b86810360a08801526118d791612f4e565b85810360c08701526118e891612f4e565b92151560e08501526101008401526101208301520390f35b60405162461bcd60e51b815260206004820152602760248201527f4e6f7420617574686f72697a656420746f20616363657373204161646861722060448201526664657461696c7360c81b6064820152608490fd5b346101e35760003660031901126101e35761196e613246565b60025460ff8116156119ad5760ff19166002557f5db9ee0a495bf2e6ff9c91a7834c1ba4fdd244a5e8aa4e537bd38aeae4b073aa6020604051338152a1005b60405162461bcd60e51b815260206004820152601460248201527314185d5cd8589b194e881b9bdd081c185d5cd95960621b6044820152606490fd5b346101e35760003660031901126101e357602060405160328152f35b346101e3576020806003193601126101e3576004356001600160401b0381116101e357611a36903690600401612e83565b611a3e613246565b611a46613628565b611a5560ff60075416156135e5565b611a5d61366c565b60006002611a9384604051611a82610aea8751928481818b0195610ada818389612ed9565b604051809381928851928391612ed9565b81016009815203019020611aa78154612fe7565b80611b56575b508260018201550155600d548015611b115760001901600d55426006556040518281527f8088db29d4761a957c0a396fa3c5f3f369fbfca4f1a83dae8b4f76a31726246a918190611b019085830190612f4e565b0390a16001805560405160018152f35b60405162461bcd60e51b815260048101849052601b60248201527f436f756e7465723a2064656372656d656e74206f766572666c6f7700000000006044820152606490fd5b601f8111600114611b6c57508281555b85611aad565b8390828252611b89601f888420920160051c82016001830161329e565b81835555611b66565b346101e3576020806003193601126101e3576001600160401b036004358181116101e357611bc4903690600401612e83565b90611bcd613628565b611bdc60ff60075416156135e5565b611be461366c565b815115611e52576064825111611e17576040519060ff835192858181870195611c0e818389612ed9565b8101600c8152030190205416611dd6576003908154611c2c81612fe7565b611d9c5784519182116105f157611c4290612fe7565b601f8111611d61575b508085601f8211600114611cf357600091611ce8575b508160011b9160001990841b1c19161790555b42600555426006556001611ca18460ff199383856004541617600455604051809381928851928391612ed9565b8101600c815203019020918254161790557f44ca9609d2fe597457041d7e98533a969452ef425c10a46d0dd9f074497ea1ba604051838152806116bd339486830190612f4e565b905084015186611c61565b60008481526000805160206138648339815191529250601f198416905b88828210611d4b5750509083600194939210611d33575b5050811b019055611c74565b86015160001983861b60f8161c191690558680611d27565b600184958293958b015181550194019201611d10565b611d969083600052600080516020613864833981519152601f840160051c8101918885106105e757601f0160051c019061329e565b85611c4b565b60405162461bcd60e51b815260048101879052601260248201527144494420616c72656164792065786973747360701b6044820152606490fd5b60405162461bcd60e51b81526004810185905260196024820152784964656e74696669657220616c726561647920696e2075736560381b6044820152606490fd5b60405162461bcd60e51b81526004810184905260136024820152724964656e74696669657220746f6f206c6f6e6760681b6044820152606490fd5b60405162461bcd60e51b815260048101849052601a60248201527f4964656e7469666965722063616e6e6f7420626520656d7074790000000000006044820152606490fd5b346101e35760403660031901126101e3576001600160401b036004358181116101e357611ec8903690600401612e83565b9060249182358281116101e357611ee3903690600401612e83565b90611eec613246565b611ef4613628565b611f0360ff60075416156135e5565b611f0b61366c565b805115612240576103e8808251116121fc578251156121b857825111612174576032600d5410156121305760405193611f4385612e2c565b82855260209485810142815260408201956000875260608301936000855260405189818851611f758183858d01612ed9565b81016009815203019020935190815192831161211c5750611f968454612fe7565b601f81116120ec575b508890601f831160011461205b5792826002937fb5992aa9568eacc71d59e4909dd6598b92a9412825efe4598975018ea0918d759a96936120349896600092612050575b50508160011b916000199060031b1c19161782555b51600182015592519201805491516001600160a81b031990921660ff931515939093169290921760089190911b610100600160a81b0316179055565b6001600d5401600d5542600655611b016040519283928361338b565b015190508c80611fe3565b90601f19831691856000528a6000209260005b8c8282106120d6575050937fb5992aa9568eacc71d59e4909dd6598b92a9412825efe4598975018ea0918d759a969361203498969360019383600298106120bd575b505050811b018255611ff8565b015160001960f88460031b161c191690558c80806120b0565b600185968293968601518155019501930161206e565b61211690856000528a600020601f850160051c8101918c86106105e757601f0160051c019061329e565b89611f9f565b634e487b7160e01b60009081526041600452fd5b60405162461bcd60e51b815260206004820152601a818601527f4d6178696d756d206174747269627574657320726561636865640000000000006044820152606490fd5b60405162461bcd60e51b8152602060048201526018818601527f4174747269627574652076616c756520746f6f206c6f6e6700000000000000006044820152606490fd5b60405162461bcd60e51b815260206004820152601f818701527f4174747269627574652076616c75652063616e6e6f7420626520656d707479006044820152606490fd5b60405162461bcd60e51b8152602060048201526017818701527f417474726962757465206e616d6520746f6f206c6f6e670000000000000000006044820152606490fd5b60405162461bcd60e51b815260206004820152601e818601527f417474726962757465206e616d652063616e6e6f7420626520656d70747900006044820152606490fd5b346101e35760e03660031901126101e3576004356001600160401b0381116101e3576122b4903690600401612e83565b6024356001600160401b0381116101e3576122d3903690600401612e83565b6044356001600160401b0381116101e3576122f2903690600401612e83565b60649182356001600160401b0381116101e357612313903690600401612e83565b6084356001600160401b0381116101e357612332903690600401612e83565b60a4356001600160401b0381116101e357612351903690600401612e83565b9160c4356001600160401b0381116101e357612371903690600401612e83565b9561237a613628565b61238960ff60075416156135e5565b61239161366c565b875115612d815780885111612d495760ff604051602081816123b98d83815193849201612ed9565b8101600c8152030190205416612d0b57600354906123d682612fe7565b612cd457508751906001600160401b0382116105f1576123f590612fe7565b601f8111612c97575b50806020601f8211600114612c2357600091612c18575b508160011b916000199060031b1c1916176003555b426005554260065560ff1960018160045416176004556001604051602081816124598d83815193849201612ed9565b8101600c81520301902091825416179055604051602081527f44ca9609d2fe597457041d7e98533a969452ef425c10a46d0dd9f074497ea1ba3391806124a2602082018c612f4e565b0390a26001805533600052600e6020526040600020549485600019810111612c0257604051946124d186612e11565b855260208501526040840152606083015260808201528260a08201526000198201600052600f602052604060002081518051906001600160401b0382116105f157819061251e8454612fe7565b601f8111612bd0575b50602090601f8311600114612b6457600092612b59575b50508160011b916000199060031b1c19161781555b60208201518051906001600160401b0382116105f15781906125786001850154612fe7565b601f8111612b24575b50602090601f8311600114612ab257600092612aa7575b50508160011b916000199060031b1c19161760018201555b60408201518051906001600160401b0382116105f15781906125d56002850154612fe7565b601f8111612a72575b50602090601f8311600114612a00576000926129f5575b50508160011b916000199060031b1c19161760028201555b60608201518051906001600160401b0382116105f15781906126326003850154612fe7565b601f81116129c0575b50602090601f831160011461294e57600092612943575b50508160011b916000199060031b1c19161760038201555b60808201518051906001600160401b0382116105f15761268d6004840154612fe7565b601f811161290e575b50602090601f831160011461289957918060a0949260059460009261288e575b50508160011b916000199060031b1c19161760048201555b019101518051906001600160401b0382116105f1576126ed8354612fe7565b601f811161285c575b50602090601f83116001146127ca5792826127ab936127ba96937fd7bfea0f84831ed6c4da58ac5fbee70468418290e9bc08e9bab5bc2dac72dc4e98966000926127bf575b50508160011b916000199060031b1c19161790555b61276661275b6132b5565b33600019840161370e565b5061277261275b6132d5565b5061277e61275b6132fc565b5061278a61275b61331e565b5061279661275b61333e565b5061279f613363565b9033906000190161370e565b5060405191829133958361338b565b0390a2005b01519050898061273b565b90601f198316918460005260206000209260005b8181106128445750936127ba96937fd7bfea0f84831ed6c4da58ac5fbee70468418290e9bc08e9bab5bc2dac72dc4e989693600193836127ab981061282b575b505050811b019055612750565b015160001960f88460031b161c1916905589808061281e565b929360206001819287860151815501950193016127de565b61288890846000526020600020601f850160051c810191602086106105e757601f0160051c019061329e565b866126f6565b0151905089806126b6565b906004840160005260206000209160005b601f19851681106128f657509260a0949260019260059583601f198116106128dd575b505050811b0160048201556126ce565b015160001960f88460031b161c191690558980806128cd565b919260206001819286850151815501940192016128aa565b61293d90600485016000526020600020601f850160051c810191602086106105e757601f0160051c019061329e565b87612696565b015190508780612652565b9250600384016000526020600020906000935b601f19841685106129a5576001945083601f1981161061298c575b505050811b01600382015561266a565b015160001960f88460031b161c1916905587808061297c565b81810151835560209485019460019093019290910190612961565b6129ef90600386016000526020600020601f850160051c810191602086106105e757601f0160051c019061329e565b8861263b565b0151905087806125f5565b9250600284016000526020600020906000935b601f1984168510612a57576001945083601f19811610612a3e575b505050811b01600282015561260d565b015160001960f88460031b161c19169055878080612a2e565b81810151835560209485019460019093019290910190612a13565b612aa190600286016000526020600020601f850160051c810191602086106105e757601f0160051c019061329e565b886125de565b015190508780612598565b9250600184016000526020600020906000935b601f1984168510612b09576001945083601f19811610612af0575b505050811b0160018201556125b0565b015160001960f88460031b161c19169055878080612ae0565b81810151835560209485019460019093019290910190612ac5565b612b5390600186016000526020600020601f850160051c810191602086106105e757601f0160051c019061329e565b88612581565b01519050878061253e565b9250836000526020600020906000935b601f1984168510612bb5576001945083601f19811610612b9c575b505050811b018155612553565b015160001960f88460031b161c19169055878080612b8f565b81810151835560209485019460019093019290910190612b74565b612bfc90856000526020600020601f850160051c810191602086106105e757601f0160051c019061329e565b88612527565b634e487b7160e01b600052601160045260246000fd5b905088015189612415565b915060036000526000805160206138648339815191526000925b8a601f1984168510612c8057506001935082601f19811610612c67575b5050811b0160035561242a565b8a015160001960f88460031b161c191690558980612c5a565b810151825560209384019360019092019101612c3d565b612cce906003600052600080516020613864833981519152601f840160051c810191602085106105e757601f0160051c019061329e565b886123fe565b60405162461bcd60e51b815260206004820152601260248201527144494420616c72656164792065786973747360701b6044820152fd5b60405162461bcd60e51b81526020600482015260196024820152784964656e74696669657220616c726561647920696e2075736560381b6044820152fd5b60405162461bcd60e51b81526020600482015260136024820152724964656e74696669657220746f6f206c6f6e6760681b6044820152fd5b60405162461bcd60e51b815260206004820152601a60248201527f4964656e7469666965722063616e6e6f7420626520656d7074790000000000006044820152fd5b346101e35760203660031901126101e3576004356001600160401b0381116101e35760ff612dfb6020610fc681943690600401612e83565b8101600b81520301902054166040519015158152f35b60c081019081106001600160401b038211176105f157604052565b608081019081106001600160401b038211176105f157604052565b604081019081106001600160401b038211176105f157604052565b90601f801991011681019081106001600160401b038211176105f157604052565b81601f820112156101e3578035906001600160401b0382116105f15760405192612eb7601f8401601f191660200185612e62565b828452602083830101116101e357816000926020809301838601378301015290565b60005b838110612eec5750506000910152565b8181015183820152602001612edc565b602090612f16928260405194838680955193849201612ed9565b82019081520301902090565b600435906001600160a01b03821682036101e357565b602435906001600160a01b03821682036101e357565b90602091612f6781518092818552858086019101612ed9565b601f01601f1916010190565b9060406003198301126101e3576004356001600160a01b03811681036101e35791602435906001600160401b0382116101e357612fb291600401612e83565b90565b8054821015612fd1576000526006602060002091020190600090565b634e487b7160e01b600052603260045260246000fd5b90600182811c92168015613017575b602083101461300157565b634e487b7160e01b600052602260045260246000fd5b91607f1691612ff6565b6003546000929161303182612fe7565b80825291600190818116908115613096575060011461304f57505050565b919293506003600052600080516020613864833981519152916000925b84841061307e57505060209250010190565b8054602085850181019190915290930192810161306c565b915050602093945060ff929192191683830152151560051b010190565b600854600092916130c382612fe7565b8082529160019081811690811561309657506001146130e157505050565b9192935060086000527ff3f7a9fe364faab93b216da50a3214154f22a0a2b415b23a84c8169e8b636ee3916000925b84841061312257505060209250010190565b80546020858501810191909152909301928101613110565b906000929180549161314b83612fe7565b9182825260019384811690816000146131ad575060011461316d575b50505050565b90919394506000526020928360002092846000945b838610613199575050505001019038808080613167565b805485870183015294019385908201613182565b9294505050602093945060ff191683830152151560051b01019038808080613167565b926131eb612fb297959296939660c0865260c0860190612f4e565b9515156020850152604084015260608301521515608082015260a0818403910152612f4e565b92613229606093969592608086526080860190612f4e565b6020850196909652151560408401526001600160a01b0316910152565b6000546001600160a01b0316330361325a57565b606460405162461bcd60e51b815260206004820152602060248201527f4f776e61626c653a2063616c6c6572206973206e6f7420746865206f776e65726044820152fd5b8181106132a9575050565b6000815560010161329e565b604051906132c282612e47565b60048252636e616d6560e01b6020830152565b604051906132e282612e47565b600b82526a0c8c2e8ca9ecc84d2e4e8d60ab1b6020830152565b6040519061330982612e47565b600682526533b2b73232b960d11b6020830152565b6040519061332b82612e47565b600482526330b2323960e11b6020830152565b6040519061334b82612e47565b60098252680e0d0dee8de90c2e6d60bb1b6020830152565b6040519061337082612e47565b600c82526b30b0b23430b9273ab6b132b960a11b6020830152565b90916133a2612fb293604084526040840190612f4e565b916020818403910152612f4e565b156133b757565b60405162461bcd60e51b815260206004820152601260248201527111125108191bd95cc81b9bdd08195e1a5cdd60721b6044820152606490fd5b156133f857565b60405162461bcd60e51b815260206004820152602760248201527f4e6f7420617574686f72697a656420746f2061636365737320746869732061746044820152667472696275746560c81b6064820152608490fd5b909160018060a01b038216600052602092600e84526134886134838360409561347b876000205486106133b0565b843391613809565b6133f1565b600052600f835281600020908051908481019182206134a56132b5565b868151910120146135d057805182206134bc6132d5565b868151910120146135b857805182206134d36132fc565b868151910120146135a057805182206134ea61331e565b86815191012014613588578051822061350161333e565b8681519101201461357057519020613517613363565b8481519101201461355a57815162461bcd60e51b8152600481018490526011602482015270496e76616c69642061747472696275746560781b6044820152606490fd5b60059250610b9b612fb29251809481930161313a565b505060049250610b9b612fb29251809481930161313a565b505060039250610b9b612fb29251809481930161313a565b505060029250610b9b612fb29251809481930161313a565b505060019250610b9b612fb29251809481930161313a565b5050610b9b9250612fb291519283809261313a565b156135ec57565b60405162461bcd60e51b8152602060048201526014602482015273111251081a185cc81899595b881c995d9bdad95960621b6044820152606490fd5b60ff6002541661363457565b60405162461bcd60e51b815260206004820152601060248201526f14185d5cd8589b194e881c185d5cd95960821b6044820152606490fd5b60026001541461367d576002600155565b60405162461bcd60e51b815260206004820152601f60248201527f5265656e7472616e637947756172643a207265656e7472616e742063616c6c006044820152606490fd5b156136c957565b60405162461bcd60e51b815260206004820152601860248201527f41747472696275746520646f6573206e6f7420657869737400000000000000006044820152606490fd5b916137bf906137897f883d542f167dfc5f47e8bf1532c171025ed0e4c59c1126c7f61749fa21976a4593613740613246565b613748613628565b61375760ff60075416156135e5565b61375f61366c565b6001600160a01b0316946137748615156137cb565b33600052600e602052604060002054116133b0565b83600052600a6020526137a0604060002082612efc565b600160ff19825416179055604051918291602083526020830190612f4e565b0390a260018055600190565b156137d257565b60405162461bcd60e51b815260206004820152600f60248201526e496e76616c6964206164647265737360881b6044820152606490fd5b6001600160a01b039081166000818152600e6020526040902054909493919261383291116133b0565b1680921491821561384257505090565b60ff92509061385e91600052600a602052604060002090612efc565b54169056fec2575a0e9e593c00f959f8c92f12db2869c3395a3b0502d05e2516446f71f85ba2646970667358221220ee7ee6954fa063557d3a9e1f90ba8e6ce139034ddcaa6459dd126bc9a88ec19b64736f6c63430008140033","opcodes":"PUSH1 0x80 DUP1 PUSH1 0x40 MSTORE CALLVALUE PUSH2 0x7C JUMPI PUSH1 0x0 DUP1 SLOAD CALLER PUSH1 0x1 PUSH1 0x1 PUSH1 0xA0 SHL SUB NOT DUP3 AND DUP2 OR DUP4 SSTORE SWAP2 PUSH1 0x1 PUSH1 0x1 PUSH1 0xA0 SHL SUB SWAP1 SWAP2 AND SWAP1 PUSH32 0x8BE0079C531659141344CD1FD0A4F28419497F9722A3DAAFE3B4186F6B6457E0 SWAP1 DUP1 LOG3 PUSH1 0x1 DUP1 SSTORE PUSH1 0x1 PUSH1 0xFF NOT DUP1 PUSH1 0x2 SLOAD AND PUSH1 0x2 SSTORE TIMESTAMP PUSH1 0x5 SSTORE TIMESTAMP PUSH1 0x6 SSTORE PUSH1 0x4 SLOAD AND OR PUSH1 0x4 SSTORE PUSH2 0x38B9 SWAP1 DUP2 PUSH2 0x82 DUP3 CODECOPY RETURN JUMPDEST PUSH1 0x0 DUP1 REVERT INVALID PUSH1 0x80 PUSH1 0x40 MSTORE PUSH1 0x4 CALLDATASIZE LT ISZERO PUSH2 0x12 JUMPI PUSH1 0x0 DUP1 REVERT JUMPDEST PUSH1 0x0 CALLDATALOAD PUSH1 0xE0 SHR DUP1 PUSH4 0xB42F3FD EQ PUSH2 0x2DC3 JUMPI DUP1 PUSH4 0xD87C827 EQ PUSH2 0x2284 JUMPI DUP1 PUSH4 0x2BA56834 EQ PUSH2 0x1E97 JUMPI DUP1 PUSH4 0x3457D3E2 EQ PUSH2 0x1B92 JUMPI DUP1 PUSH4 0x37714208 EQ PUSH2 0x1A05 JUMPI DUP1 PUSH4 0x3AA1B5CA EQ PUSH2 0x19E9 JUMPI DUP1 PUSH4 0x3F4BA83A EQ PUSH2 0x1955 JUMPI DUP1 PUSH4 0x41638A5D EQ PUSH2 0x1712 JUMPI DUP1 PUSH4 0x45E8846F EQ PUSH2 0x155C JUMPI DUP1 PUSH4 0x4B9802F8 EQ PUSH2 0x153F JUMPI DUP1 PUSH4 0x5C975ABB EQ PUSH2 0x151C JUMPI DUP1 PUSH4 0x5E5A8D33 EQ PUSH2 0x14BF JUMPI DUP1 PUSH4 0x6A44CAC9 EQ PUSH2 0x140A JUMPI DUP1 PUSH4 0x6AAB3CEF EQ PUSH2 0x137D JUMPI DUP1 PUSH4 0x70525823 EQ PUSH2 0x1270 JUMPI DUP1 PUSH4 0x715018A6 EQ PUSH2 0x1217 JUMPI DUP1 PUSH4 0x767BC20E EQ PUSH2 0x113C JUMPI DUP1 PUSH4 0x8456CB59 EQ PUSH2 0x10E2 JUMPI DUP1 PUSH4 0x8C15F62D EQ PUSH2 0x10A3 JUMPI DUP1 PUSH4 0x8DA5CB5B EQ PUSH2 0x107A JUMPI DUP1 PUSH4 0x967A455F EQ PUSH2 0x101F JUMPI DUP1 PUSH4 0x9BC3A000 EQ PUSH2 0xF91 JUMPI DUP1 PUSH4 0xA9595FFB EQ PUSH2 0xF4A JUMPI DUP1 PUSH4 0xC93EAD1B EQ PUSH2 0xF2C JUMPI DUP1 PUSH4 0xCFE3B347 EQ PUSH2 0xCC7 JUMPI DUP1 PUSH4 0xE3725DEF EQ PUSH2 0xBDD JUMPI DUP1 PUSH4 0xE4A94ADC EQ PUSH2 0xB7A JUMPI DUP1 PUSH4 0xE8A51FCA EQ PUSH2 0xA71 JUMPI DUP1 PUSH4 0xF2FDE38B EQ PUSH2 0x9A8 JUMPI DUP1 PUSH4 0xF3D310BF EQ PUSH2 0x98C JUMPI DUP1 PUSH4 0xF9A33258 EQ PUSH2 0x1E8 JUMPI PUSH4 0xFB99D007 EQ PUSH2 0x17C JUMPI PUSH1 0x0 DUP1 REVERT JUMPDEST CALLVALUE PUSH2 0x1E3 JUMPI PUSH1 0x80 CALLDATASIZE PUSH1 0x3 NOT ADD SLT PUSH2 0x1E3 JUMPI PUSH2 0x195 PUSH2 0x2F22 JUMP JUMPDEST PUSH1 0x44 CALLDATALOAD SWAP1 PUSH1 0x1 PUSH1 0x1 PUSH1 0xA0 SHL SUB DUP3 AND DUP3 SUB PUSH2 0x1E3 JUMPI PUSH1 0x64 CALLDATALOAD SWAP1 PUSH1 0x1 PUSH1 0x1 PUSH1 0x40 SHL SUB DUP3 GT PUSH2 0x1E3 JUMPI PUSH1 0x20 SWAP3 PUSH2 0x1CF PUSH2 0x1D9 SWAP4 CALLDATASIZE SWAP1 PUSH1 0x4 ADD PUSH2 0x2E83 JUMP JUMPDEST SWAP2 PUSH1 0x24 CALLDATALOAD SWAP1 PUSH2 0x3809 JUMP JUMPDEST PUSH1 0x40 MLOAD SWAP1 ISZERO ISZERO DUP2 MSTORE RETURN JUMPDEST PUSH1 0x0 DUP1 REVERT JUMPDEST CALLVALUE PUSH2 0x1E3 JUMPI PUSH1 0xE0 CALLDATASIZE PUSH1 0x3 NOT ADD SLT PUSH2 0x1E3 JUMPI PUSH1 0x24 CALLDATALOAD PUSH1 0x1 PUSH1 0x1 PUSH1 0x40 SHL SUB DUP2 GT PUSH2 0x1E3 JUMPI PUSH2 0x218 SWAP1 CALLDATASIZE SWAP1 PUSH1 0x4 ADD PUSH2 0x2E83 JUMP JUMPDEST PUSH1 0x44 CALLDATALOAD PUSH1 0x1 PUSH1 0x1 PUSH1 0x40 SHL SUB DUP2 GT PUSH2 0x1E3 JUMPI PUSH2 0x237 SWAP1 CALLDATASIZE SWAP1 PUSH1 0x4 ADD PUSH2 0x2E83 JUMP JUMPDEST SWAP1 PUSH1 0x64 CALLDATALOAD PUSH1 0x1 PUSH1 0x1 PUSH1 0x40 SHL SUB DUP2 GT PUSH2 0x1E3 JUMPI PUSH2 0x257 SWAP1 CALLDATASIZE SWAP1 PUSH1 0x4 ADD PUSH2 0x2E83 JUMP JUMPDEST PUSH1 0x84 CALLDATALOAD PUSH1 0x1 PUSH1 0x1 PUSH1 0x40 SHL SUB DUP2 GT PUSH2 0x1E3 JUMPI PUSH2 0x276 SWAP1 CALLDATASIZE SWAP1 PUSH1 0x4 ADD PUSH2 0x2E83 JUMP JUMPDEST SWAP1 PUSH1 0xA4 CALLDATALOAD PUSH1 0x1 PUSH1 0x1 PUSH1 0x40 SHL SUB DUP2 GT PUSH2 0x1E3 JUMPI PUSH2 0x296 SWAP1 CALLDATASIZE SWAP1 PUSH1 0x4 ADD PUSH2 0x2E83 JUMP JUMPDEST PUSH1 0xC4 CALLDATALOAD PUSH1 0x1 PUSH1 0x1 PUSH1 0x40 SHL SUB DUP2 GT PUSH2 0x1E3 JUMPI PUSH2 0x2B5 SWAP1 CALLDATASIZE SWAP1 PUSH1 0x4 ADD PUSH2 0x2E83 JUMP JUMPDEST PUSH1 0x0 SLOAD SWAP1 SWAP2 SWAP1 PUSH1 0x1 PUSH1 0x1 PUSH1 0xA0 SHL SUB AND CALLER SUB PUSH2 0x953 JUMPI PUSH1 0x40 MLOAD SWAP5 PUSH2 0x2D7 DUP7 PUSH2 0x2E11 JUMP JUMPDEST DUP6 MSTORE PUSH1 0x20 DUP6 ADD SWAP6 DUP7 MSTORE PUSH1 0x40 DUP6 ADD SWAP3 DUP4 MSTORE PUSH1 0x60 DUP6 ADD SWAP4 DUP5 MSTORE PUSH1 0x80 DUP6 ADD MSTORE PUSH1 0xA0 DUP5 ADD MSTORE PUSH1 0x4 CALLDATALOAD PUSH1 0x0 MSTORE PUSH1 0xF PUSH1 0x20 MSTORE PUSH1 0x40 PUSH1 0x0 KECCAK256 SWAP4 DUP4 MLOAD DUP1 MLOAD SWAP1 PUSH1 0x1 PUSH1 0x1 PUSH1 0x40 SHL SUB DUP3 GT PUSH2 0x5F1 JUMPI DUP2 SWAP1 PUSH2 0x328 DUP9 SLOAD PUSH2 0x2FE7 JUMP JUMPDEST PUSH1 0x1F DUP2 GT PUSH2 0x921 JUMPI JUMPDEST POP PUSH1 0x20 SWAP1 PUSH1 0x1F DUP4 GT PUSH1 0x1 EQ PUSH2 0x8BB JUMPI PUSH1 0x0 SWAP3 PUSH2 0x8B0 JUMPI JUMPDEST POP POP DUP2 PUSH1 0x1 SHL SWAP2 PUSH1 0x0 NOT SWAP1 PUSH1 0x3 SHL SHR NOT AND OR DUP6 SSTORE JUMPDEST MLOAD DUP1 MLOAD PUSH1 0x1 PUSH1 0x1 PUSH1 0x40 SHL SUB DUP2 GT PUSH2 0x5F1 JUMPI DUP1 PUSH1 0x1 DUP8 ADD SWAP3 PUSH2 0x37E DUP5 SLOAD PUSH2 0x2FE7 JUMP JUMPDEST PUSH1 0x1F DUP2 GT PUSH2 0x87E JUMPI JUMPDEST POP PUSH1 0x20 SWAP1 PUSH1 0x1F DUP4 GT PUSH1 0x1 EQ PUSH2 0x818 JUMPI PUSH1 0x0 SWAP3 PUSH2 0x80D JUMPI JUMPDEST POP POP DUP2 PUSH1 0x1 SHL SWAP2 PUSH1 0x0 NOT SWAP1 PUSH1 0x3 SHL SHR NOT AND OR SWAP1 SSTORE JUMPDEST MLOAD DUP1 MLOAD PUSH1 0x2 DUP6 ADD SWAP2 PUSH1 0x1 PUSH1 0x1 PUSH1 0x40 SHL SUB DUP3 GT PUSH2 0x5F1 JUMPI DUP2 SWAP1 PUSH2 0x3D5 DUP5 SLOAD PUSH2 0x2FE7 JUMP JUMPDEST PUSH1 0x1F DUP2 GT PUSH2 0x7DB JUMPI JUMPDEST POP PUSH1 0x20 SWAP1 PUSH1 0x1F DUP4 GT PUSH1 0x1 EQ PUSH2 0x775 JUMPI PUSH1 0x0 SWAP3 PUSH2 0x76A JUMPI JUMPDEST POP POP DUP2 PUSH1 0x1 SHL SWAP2 PUSH1 0x0 NOT SWAP1 PUSH1 0x3 SHL SHR NOT AND OR SWAP1 SSTORE JUMPDEST MLOAD SWAP2 DUP3 MLOAD PUSH1 0x1 PUSH1 0x1 PUSH1 0x40 SHL SUB DUP2 GT PUSH2 0x5F1 JUMPI PUSH2 0x429 PUSH1 0x3 DUP4 ADD SLOAD PUSH2 0x2FE7 JUMP JUMPDEST PUSH1 0x1F DUP2 GT PUSH2 0x735 JUMPI JUMPDEST POP PUSH1 0x20 PUSH1 0x1F DUP3 GT PUSH1 0x1 EQ PUSH2 0x6C7 JUMPI DUP2 SWAP3 SWAP4 SWAP5 PUSH1 0x0 SWAP3 PUSH2 0x6BC JUMPI JUMPDEST POP POP DUP2 PUSH1 0x1 SHL SWAP2 PUSH1 0x0 NOT SWAP1 PUSH1 0x3 SHL SHR NOT AND OR PUSH1 0x3 DUP3 ADD SSTORE JUMPDEST PUSH1 0x80 DUP3 ADD MLOAD DUP1 MLOAD SWAP1 PUSH1 0x1 PUSH1 0x1 PUSH1 0x40 SHL SUB DUP3 GT PUSH2 0x5F1 JUMPI PUSH2 0x487 PUSH1 0x4 DUP5 ADD SLOAD PUSH2 0x2FE7 JUMP JUMPDEST PUSH1 0x1F DUP2 GT PUSH2 0x687 JUMPI JUMPDEST POP PUSH1 0x20 SWAP1 PUSH1 0x1F DUP4 GT PUSH1 0x1 EQ PUSH2 0x612 JUMPI SWAP2 DUP1 PUSH1 0xA0 SWAP5 SWAP3 PUSH1 0x5 SWAP5 PUSH1 0x0 SWAP3 PUSH2 0x607 JUMPI JUMPDEST POP POP DUP2 PUSH1 0x1 SHL SWAP2 PUSH1 0x0 NOT SWAP1 PUSH1 0x3 SHL SHR NOT AND OR PUSH1 0x4 DUP3 ADD SSTORE JUMPDEST ADD SWAP2 ADD MLOAD SWAP1 DUP2 MLOAD PUSH1 0x1 PUSH1 0x1 PUSH1 0x40 SHL SUB DUP2 GT PUSH2 0x5F1 JUMPI PUSH2 0x4E7 DUP3 SLOAD PUSH2 0x2FE7 JUMP JUMPDEST PUSH1 0x1F DUP2 GT PUSH2 0x5B4 JUMPI JUMPDEST POP PUSH1 0x20 SWAP3 PUSH1 0x1F DUP3 GT PUSH1 0x1 EQ PUSH2 0x550 JUMPI SWAP3 DUP2 SWAP3 SWAP4 PUSH1 0x0 SWAP3 PUSH2 0x545 JUMPI JUMPDEST POP POP DUP2 PUSH1 0x1 SHL SWAP2 PUSH1 0x0 NOT SWAP1 PUSH1 0x3 SHL SHR NOT AND OR SWAP1 SSTORE JUMPDEST CALLER PUSH1 0x0 MSTORE PUSH1 0xE PUSH1 0x20 MSTORE PUSH2 0x539 PUSH1 0x4 CALLDATALOAD PUSH1 0x40 PUSH1 0x0 KECCAK256 PUSH2 0x2FB5 JUMP JUMPDEST POP PUSH1 0x3 TIMESTAMP SWAP2 ADD SSTORE PUSH1 0x0 DUP1 RETURN JUMPDEST ADD MLOAD SWAP1 POP DUP4 DUP1 PUSH2 0x50B JUMP JUMPDEST PUSH1 0x1F NOT DUP3 AND SWAP4 DUP4 PUSH1 0x0 MSTORE PUSH1 0x20 PUSH1 0x0 KECCAK256 SWAP2 PUSH1 0x0 JUMPDEST DUP7 DUP2 LT PUSH2 0x59C JUMPI POP DUP4 PUSH1 0x1 SWAP6 SWAP7 LT PUSH2 0x583 JUMPI JUMPDEST POP POP POP DUP2 SHL ADD SWAP1 SSTORE PUSH2 0x520 JUMP JUMPDEST ADD MLOAD PUSH1 0x0 NOT PUSH1 0xF8 DUP5 PUSH1 0x3 SHL AND SHR NOT AND SWAP1 SSTORE DUP4 DUP1 DUP1 PUSH2 0x576 JUMP JUMPDEST SWAP2 SWAP3 PUSH1 0x20 PUSH1 0x1 DUP2 SWAP3 DUP7 DUP6 ADD MLOAD DUP2 SSTORE ADD SWAP5 ADD SWAP3 ADD PUSH2 0x563 JUMP JUMPDEST PUSH2 0x5E1 SWAP1 DUP4 PUSH1 0x0 MSTORE PUSH1 0x20 PUSH1 0x0 KECCAK256 PUSH1 0x1F DUP5 ADD PUSH1 0x5 SHR DUP2 ADD SWAP2 PUSH1 0x20 DUP6 LT PUSH2 0x5E7 JUMPI JUMPDEST PUSH1 0x1F ADD PUSH1 0x5 SHR ADD SWAP1 PUSH2 0x329E JUMP JUMPDEST DUP4 PUSH2 0x4F0 JUMP JUMPDEST SWAP1 SWAP2 POP DUP2 SWAP1 PUSH2 0x5D4 JUMP JUMPDEST PUSH4 0x4E487B71 PUSH1 0xE0 SHL PUSH1 0x0 MSTORE PUSH1 0x41 PUSH1 0x4 MSTORE PUSH1 0x24 PUSH1 0x0 REVERT JUMPDEST ADD MLOAD SWAP1 POP DUP7 DUP1 PUSH2 0x4B0 JUMP JUMPDEST SWAP1 PUSH1 0x4 DUP5 ADD PUSH1 0x0 MSTORE PUSH1 0x20 PUSH1 0x0 KECCAK256 SWAP2 PUSH1 0x0 JUMPDEST PUSH1 0x1F NOT DUP6 AND DUP2 LT PUSH2 0x66F JUMPI POP SWAP3 PUSH1 0xA0 SWAP5 SWAP3 PUSH1 0x1 SWAP3 PUSH1 0x5 SWAP6 DUP4 PUSH1 0x1F NOT DUP2 AND LT PUSH2 0x656 JUMPI JUMPDEST POP POP POP DUP2 SHL ADD PUSH1 0x4 DUP3 ADD SSTORE PUSH2 0x4C8 JUMP JUMPDEST ADD MLOAD PUSH1 0x0 NOT PUSH1 0xF8 DUP5 PUSH1 0x3 SHL AND SHR NOT AND SWAP1 SSTORE DUP7 DUP1 DUP1 PUSH2 0x646 JUMP JUMPDEST SWAP2 SWAP3 PUSH1 0x20 PUSH1 0x1 DUP2 SWAP3 DUP7 DUP6 ADD MLOAD DUP2 SSTORE ADD SWAP5 ADD SWAP3 ADD PUSH2 0x623 JUMP JUMPDEST PUSH2 0x6B6 SWAP1 PUSH1 0x4 DUP6 ADD PUSH1 0x0 MSTORE PUSH1 0x20 PUSH1 0x0 KECCAK256 PUSH1 0x1F DUP6 ADD PUSH1 0x5 SHR DUP2 ADD SWAP2 PUSH1 0x20 DUP7 LT PUSH2 0x5E7 JUMPI PUSH1 0x1F ADD PUSH1 0x5 SHR ADD SWAP1 PUSH2 0x329E JUMP JUMPDEST DUP5 PUSH2 0x490 JUMP JUMPDEST ADD MLOAD SWAP1 POP DUP5 DUP1 PUSH2 0x44C JUMP JUMPDEST PUSH1 0x3 DUP4 ADD PUSH1 0x0 MSTORE PUSH1 0x20 PUSH1 0x0 KECCAK256 SWAP1 PUSH1 0x0 JUMPDEST PUSH1 0x1F NOT DUP5 AND DUP2 LT PUSH2 0x71D JUMPI POP PUSH1 0x1 SWAP4 SWAP5 SWAP6 DUP4 PUSH1 0x1F NOT DUP2 AND LT PUSH2 0x704 JUMPI JUMPDEST POP POP POP DUP2 SHL ADD PUSH1 0x3 DUP3 ADD SSTORE PUSH2 0x464 JUMP JUMPDEST ADD MLOAD PUSH1 0x0 NOT PUSH1 0xF8 DUP5 PUSH1 0x3 SHL AND SHR NOT AND SWAP1 SSTORE DUP5 DUP1 DUP1 PUSH2 0x6F4 JUMP JUMPDEST SWAP1 SWAP2 PUSH1 0x20 PUSH1 0x1 DUP2 SWAP3 DUP6 DUP11 ADD MLOAD DUP2 SSTORE ADD SWAP4 ADD SWAP2 ADD PUSH2 0x6D7 JUMP JUMPDEST PUSH2 0x764 SWAP1 PUSH1 0x3 DUP5 ADD PUSH1 0x0 MSTORE PUSH1 0x20 PUSH1 0x0 KECCAK256 PUSH1 0x1F DUP5 ADD PUSH1 0x5 SHR DUP2 ADD SWAP2 PUSH1 0x20 DUP6 LT PUSH2 0x5E7 JUMPI PUSH1 0x1F ADD PUSH1 0x5 SHR ADD SWAP1 PUSH2 0x329E JUMP JUMPDEST DUP5 PUSH2 0x432 JUMP JUMPDEST ADD MLOAD SWAP1 POP DUP7 DUP1 PUSH2 0x3F5 JUMP JUMPDEST PUSH1 0x0 DUP6 DUP2 MSTORE PUSH1 0x20 DUP2 KECCAK256 SWAP4 POP PUSH1 0x1F NOT DUP6 AND SWAP1 JUMPDEST DUP2 DUP2 LT PUSH2 0x7C3 JUMPI POP SWAP1 DUP5 PUSH1 0x1 SWAP6 SWAP5 SWAP4 SWAP3 LT PUSH2 0x7AA JUMPI JUMPDEST POP POP POP DUP2 SHL ADD SWAP1 SSTORE PUSH2 0x40A JUMP JUMPDEST ADD MLOAD PUSH1 0x0 NOT PUSH1 0xF8 DUP5 PUSH1 0x3 SHL AND SHR NOT AND SWAP1 SSTORE DUP7 DUP1 DUP1 PUSH2 0x79D JUMP JUMPDEST SWAP3 SWAP4 PUSH1 0x20 PUSH1 0x1 DUP2 SWAP3 DUP8 DUP7 ADD MLOAD DUP2 SSTORE ADD SWAP6 ADD SWAP4 ADD PUSH2 0x787 JUMP JUMPDEST PUSH2 0x807 SWAP1 DUP6 PUSH1 0x0 MSTORE PUSH1 0x20 PUSH1 0x0 KECCAK256 PUSH1 0x1F DUP6 ADD PUSH1 0x5 SHR DUP2 ADD SWAP2 PUSH1 0x20 DUP7 LT PUSH2 0x5E7 JUMPI PUSH1 0x1F ADD PUSH1 0x5 SHR ADD SWAP1 PUSH2 0x329E JUMP JUMPDEST DUP8 PUSH2 0x3DE JUMP JUMPDEST ADD MLOAD SWAP1 POP DUP8 DUP1 PUSH2 0x39E JUMP JUMPDEST PUSH1 0x0 DUP6 DUP2 MSTORE PUSH1 0x20 DUP2 KECCAK256 SWAP4 POP PUSH1 0x1F NOT DUP6 AND SWAP1 JUMPDEST DUP2 DUP2 LT PUSH2 0x866 JUMPI POP SWAP1 DUP5 PUSH1 0x1 SWAP6 SWAP5 SWAP4 SWAP3 LT PUSH2 0x84D JUMPI JUMPDEST POP POP POP DUP2 SHL ADD SWAP1 SSTORE PUSH2 0x3B3 JUMP JUMPDEST ADD MLOAD PUSH1 0x0 NOT PUSH1 0xF8 DUP5 PUSH1 0x3 SHL AND SHR NOT AND SWAP1 SSTORE DUP8 DUP1 DUP1 PUSH2 0x840 JUMP JUMPDEST SWAP3 SWAP4 PUSH1 0x20 PUSH1 0x1 DUP2 SWAP3 DUP8 DUP7 ADD MLOAD DUP2 SSTORE ADD SWAP6 ADD SWAP4 ADD PUSH2 0x82A JUMP JUMPDEST PUSH2 0x8AA SWAP1 DUP6 PUSH1 0x0 MSTORE PUSH1 0x20 PUSH1 0x0 KECCAK256 PUSH1 0x1F DUP6 ADD PUSH1 0x5 SHR DUP2 ADD SWAP2 PUSH1 0x20 DUP7 LT PUSH2 0x5E7 JUMPI PUSH1 0x1F ADD PUSH1 0x5 SHR ADD SWAP1 PUSH2 0x329E JUMP JUMPDEST DUP9 PUSH2 0x387 JUMP JUMPDEST ADD MLOAD SWAP1 POP DUP8 DUP1 PUSH2 0x348 JUMP JUMPDEST PUSH1 0x0 DUP10 DUP2 MSTORE PUSH1 0x20 DUP2 KECCAK256 SWAP4 POP PUSH1 0x1F NOT DUP6 AND SWAP1 JUMPDEST DUP2 DUP2 LT PUSH2 0x909 JUMPI POP SWAP1 DUP5 PUSH1 0x1 SWAP6 SWAP5 SWAP4 SWAP3 LT PUSH2 0x8F0 JUMPI JUMPDEST POP POP POP DUP2 SHL ADD DUP6 SSTORE PUSH2 0x35D JUMP JUMPDEST ADD MLOAD PUSH1 0x0 NOT PUSH1 0xF8 DUP5 PUSH1 0x3 SHL AND SHR NOT AND SWAP1 SSTORE DUP8 DUP1 DUP1 PUSH2 0x8E3 JUMP JUMPDEST SWAP3 SWAP4 PUSH1 0x20 PUSH1 0x1 DUP2 SWAP3 DUP8 DUP7 ADD MLOAD DUP2 SSTORE ADD SWAP6 ADD SWAP4 ADD PUSH2 0x8CD JUMP JUMPDEST PUSH2 0x94D SWAP1 DUP10 PUSH1 0x0 MSTORE PUSH1 0x20 PUSH1 0x0 KECCAK256 PUSH1 0x1F DUP6 ADD PUSH1 0x5 SHR DUP2 ADD SWAP2 PUSH1 0x20 DUP7 LT PUSH2 0x5E7 JUMPI PUSH1 0x1F ADD PUSH1 0x5 SHR ADD SWAP1 PUSH2 0x329E JUMP JUMPDEST DUP9 PUSH2 0x331 JUMP JUMPDEST PUSH1 0x40 MLOAD PUSH3 0x461BCD PUSH1 0xE5 SHL DUP2 MSTORE PUSH1 0x20 PUSH1 0x4 DUP3 ADD MSTORE PUSH1 0x11 PUSH1 0x24 DUP3 ADD MSTORE PUSH17 0x2737BA103A3432902224A21037BBB732B9 PUSH1 0x79 SHL PUSH1 0x44 DUP3 ADD MSTORE PUSH1 0x64 SWAP1 REVERT JUMPDEST CALLVALUE PUSH2 0x1E3 JUMPI PUSH1 0x0 CALLDATASIZE PUSH1 0x3 NOT ADD SLT PUSH2 0x1E3 JUMPI PUSH1 0x20 PUSH1 0x40 MLOAD PUSH1 0x64 DUP2 MSTORE RETURN JUMPDEST CALLVALUE PUSH2 0x1E3 JUMPI PUSH1 0x20 CALLDATASIZE PUSH1 0x3 NOT ADD SLT PUSH2 0x1E3 JUMPI PUSH2 0x9C1 PUSH2 0x2F22 JUMP JUMPDEST PUSH2 0x9C9 PUSH2 0x3246 JUMP JUMPDEST PUSH1 0x1 PUSH1 0x1 PUSH1 0xA0 SHL SUB SWAP1 DUP2 AND SWAP1 DUP2 ISZERO PUSH2 0xA1D JUMPI PUSH1 0x0 SLOAD DUP3 PUSH12 0xFFFFFFFFFFFFFFFFFFFFFFFF PUSH1 0xA0 SHL DUP3 AND OR PUSH1 0x0 SSTORE AND PUSH32 0x8BE0079C531659141344CD1FD0A4F28419497F9722A3DAAFE3B4186F6B6457E0 PUSH1 0x0 DUP1 LOG3 STOP JUMPDEST PUSH1 0x40 MLOAD PUSH3 0x461BCD PUSH1 0xE5 SHL DUP2 MSTORE PUSH1 0x20 PUSH1 0x4 DUP3 ADD MSTORE PUSH1 0x26 PUSH1 0x24 DUP3 ADD MSTORE PUSH32 0x4F776E61626C653A206E6577206F776E657220697320746865207A65726F2061 PUSH1 0x44 DUP3 ADD MSTORE PUSH6 0x646472657373 PUSH1 0xD0 SHL PUSH1 0x64 DUP3 ADD MSTORE PUSH1 0x84 SWAP1 REVERT JUMPDEST CALLVALUE PUSH2 0x1E3 JUMPI PUSH1 0x20 DUP1 PUSH1 0x3 NOT CALLDATASIZE ADD SLT PUSH2 0x1E3 JUMPI PUSH1 0x4 CALLDATALOAD SWAP1 PUSH1 0x1 PUSH1 0x1 PUSH1 0x40 SHL SUB DUP3 GT PUSH2 0x1E3 JUMPI PUSH2 0xB3D PUSH2 0xB20 DUP3 PUSH2 0xAAD PUSH2 0xB36 SWAP6 CALLDATASIZE SWAP1 PUSH1 0x4 ADD PUSH2 0x2E83 JUMP JUMPDEST PUSH2 0xABC PUSH1 0xFF PUSH1 0x7 SLOAD AND ISZERO PUSH2 0x35E5 JUMP JUMPDEST PUSH1 0x40 MLOAD SWAP1 PUSH2 0xAF1 PUSH2 0xAEA DUP3 MLOAD SWAP4 DUP6 DUP2 DUP2 DUP7 ADD SWAP7 PUSH2 0xADA DUP2 DUP4 DUP11 PUSH2 0x2ED9 JUMP JUMPDEST DUP2 ADD PUSH1 0x9 DUP2 MSTORE SUB ADD SWAP1 KECCAK256 SLOAD PUSH2 0x2FE7 JUMP JUMPDEST ISZERO ISZERO PUSH2 0x36C2 JUMP JUMPDEST PUSH1 0x0 SLOAD PUSH1 0x1 PUSH1 0x1 PUSH1 0xA0 SHL SUB AND CALLER EQ DUP1 ISZERO PUSH2 0xB55 JUMPI JUMPDEST PUSH2 0xB0F SWAP1 PUSH2 0x33F1 JUMP JUMPDEST PUSH1 0x40 MLOAD SWAP4 DUP5 SWAP3 DUP4 SWAP3 MLOAD SWAP3 DUP4 SWAP2 PUSH2 0x2ED9 JUMP JUMPDEST DUP2 ADD PUSH1 0x9 DUP2 MSTORE SUB ADD SWAP1 KECCAK256 PUSH1 0x40 MLOAD SWAP4 DUP5 DUP1 SWAP3 PUSH2 0x313A JUMP JUMPDEST SUB DUP4 PUSH2 0x2E62 JUMP JUMPDEST PUSH2 0xB51 PUSH1 0x40 MLOAD SWAP3 DUP3 DUP5 SWAP4 DUP5 MSTORE DUP4 ADD SWAP1 PUSH2 0x2F4E JUMP JUMPDEST SUB SWAP1 RETURN JUMPDEST POP CALLER PUSH1 0x0 MSTORE PUSH1 0xA DUP4 MSTORE PUSH2 0xB0F PUSH1 0xFF PUSH2 0xB71 PUSH1 0x40 PUSH1 0x0 KECCAK256 DUP5 PUSH2 0x2EFC JUMP JUMPDEST SLOAD AND SWAP1 POP PUSH2 0xB06 JUMP JUMPDEST CALLVALUE PUSH2 0x1E3 JUMPI PUSH1 0x0 CALLDATASIZE PUSH1 0x3 NOT ADD SLT PUSH2 0x1E3 JUMPI PUSH1 0x40 MLOAD PUSH2 0xBA2 DUP2 PUSH2 0xB9B DUP2 PUSH2 0x3021 JUMP JUMPDEST SUB DUP3 PUSH2 0x2E62 JUMP JUMPDEST PUSH1 0xFF PUSH1 0x4 SLOAD AND SWAP1 PUSH2 0xB51 PUSH1 0x5 SLOAD PUSH1 0x6 SLOAD PUSH1 0xFF PUSH1 0x7 SLOAD AND SWAP1 PUSH1 0x40 MLOAD SWAP3 PUSH2 0xBD1 DUP5 PUSH2 0xBCA DUP2 PUSH2 0x30B3 JUMP JUMPDEST SUB DUP6 PUSH2 0x2E62 JUMP JUMPDEST PUSH1 0x40 MLOAD SWAP7 DUP8 SWAP7 DUP8 PUSH2 0x31D0 JUMP JUMPDEST CALLVALUE PUSH2 0x1E3 JUMPI PUSH1 0x20 DUP1 PUSH1 0x3 NOT CALLDATASIZE ADD SLT PUSH2 0x1E3 JUMPI PUSH1 0x4 CALLDATALOAD PUSH1 0x1 PUSH1 0x1 PUSH1 0x40 SHL SUB DUP2 GT PUSH2 0x1E3 JUMPI PUSH2 0xC0E SWAP1 CALLDATASIZE SWAP1 PUSH1 0x4 ADD PUSH2 0x2E83 JUMP JUMPDEST PUSH2 0xC1D PUSH1 0xFF PUSH1 0x7 SLOAD AND ISZERO PUSH2 0x35E5 JUMP JUMPDEST PUSH2 0xB51 PUSH1 0x60 PUSH2 0xC63 DUP5 PUSH1 0x40 MLOAD PUSH2 0xC43 PUSH2 0xAEA DUP8 MLOAD SWAP3 DUP5 DUP2 DUP2 DUP12 ADD SWAP6 PUSH2 0xADA DUP2 DUP4 DUP10 PUSH2 0x2ED9 JUMP JUMPDEST PUSH1 0x0 SLOAD PUSH1 0x1 PUSH1 0x1 PUSH1 0xA0 SHL SUB SWAP7 SWAP1 DUP8 AND CALLER EQ DUP1 ISZERO PUSH2 0xB55 JUMPI PUSH2 0xB0F SWAP1 PUSH2 0x33F1 JUMP JUMPDEST DUP2 ADD PUSH1 0x9 DUP2 MSTORE SUB ADD SWAP1 KECCAK256 SWAP3 PUSH1 0x40 MLOAD PUSH2 0xC7A DUP2 PUSH2 0x2E2C JUMP JUMPDEST PUSH1 0x2 PUSH1 0x40 MLOAD SWAP6 PUSH2 0xC95 DUP8 PUSH2 0xC8E DUP2 DUP5 PUSH2 0x313A JUMP JUMPDEST SUB DUP9 PUSH2 0x2E62 JUMP JUMPDEST DUP7 DUP4 MSTORE PUSH1 0x1 DUP2 ADD SLOAD DUP1 SWAP9 DUP5 ADD MSTORE ADD SLOAD SWAP2 PUSH1 0xFF DUP4 AND ISZERO ISZERO SWAP3 DUP4 PUSH1 0x40 DUP5 ADD MSTORE PUSH1 0x8 SHR AND SWAP3 DUP4 SWAP2 ADD MSTORE PUSH1 0x40 MLOAD SWAP5 DUP6 SWAP5 DUP6 PUSH2 0x3211 JUMP JUMPDEST CALLVALUE PUSH2 0x1E3 JUMPI PUSH1 0x20 DUP1 PUSH1 0x3 NOT CALLDATASIZE ADD SLT PUSH2 0x1E3 JUMPI PUSH1 0x1 PUSH1 0x1 PUSH1 0x40 SHL SUB PUSH1 0x4 CALLDATALOAD DUP2 DUP2 GT PUSH2 0x1E3 JUMPI PUSH2 0xCF9 SWAP1 CALLDATASIZE SWAP1 PUSH1 0x4 ADD PUSH2 0x2E83 JUMP JUMPDEST PUSH2 0xD01 PUSH2 0x3246 JUMP JUMPDEST PUSH2 0xD09 PUSH2 0x3628 JUMP JUMPDEST PUSH2 0xD18 PUSH1 0xFF PUSH1 0x7 SLOAD AND ISZERO PUSH2 0x35E5 JUMP JUMPDEST PUSH2 0xD20 PUSH2 0x366C JUMP JUMPDEST DUP1 MLOAD ISZERO PUSH2 0xEE7 JUMPI PUSH1 0x1 SWAP2 PUSH1 0xFF NOT SWAP1 DUP4 DUP3 PUSH1 0x7 SLOAD AND OR PUSH1 0x7 SSTORE DUP3 MLOAD SWAP1 DUP2 GT PUSH2 0x5F1 JUMPI PUSH2 0xD4C PUSH1 0x8 SLOAD PUSH2 0x2FE7 JUMP JUMPDEST PUSH1 0x1F DUP2 GT PUSH2 0xE99 JUMPI JUMPDEST POP DUP5 PUSH1 0x1F DUP3 GT PUSH1 0x1 EQ PUSH2 0xDEE JUMPI SWAP2 DUP2 PUSH32 0xF47A4F2302A3334A22353C5748D420F032E5F784E851777209232D29D1693335 SWAP5 SWAP3 PUSH2 0xDD5 SWAP5 PUSH1 0x0 SWAP2 PUSH2 0xDE3 JUMPI JUMPDEST POP PUSH1 0x0 NOT PUSH1 0x3 DUP4 SWAP1 SHL SHR NOT AND SWAP1 DUP7 SHL OR PUSH1 0x8 SSTORE JUMPDEST PUSH1 0x4 SLOAD AND PUSH1 0x4 SSTORE TIMESTAMP PUSH1 0x6 SSTORE PUSH1 0x40 MLOAD SWAP2 DUP3 SWAP2 PUSH1 0x40 DUP4 MSTORE PUSH2 0xDC8 PUSH1 0x40 DUP5 ADD PUSH2 0x3021 JUMP JUMPDEST SWAP1 DUP4 DUP3 SUB DUP9 DUP6 ADD MSTORE PUSH2 0x2F4E JUMP JUMPDEST SUB SWAP1 LOG1 DUP1 DUP1 SSTORE PUSH1 0x40 MLOAD SWAP1 DUP2 MSTORE RETURN JUMPDEST SWAP1 POP DUP4 ADD MLOAD DUP9 PUSH2 0xD93 JUMP JUMPDEST SWAP1 DUP5 SWAP2 PUSH1 0x1F NOT DUP3 AND SWAP1 PUSH1 0x8 PUSH1 0x0 MSTORE PUSH32 0xF3F7A9FE364FAAB93B216DA50A3214154F22A0A2B415B23A84C8169E8B636EE3 SWAP2 PUSH1 0x0 JUMPDEST DUP10 DUP3 DUP3 LT PUSH2 0xE83 JUMPI POP POP SWAP2 DUP4 SWAP2 PUSH2 0xDD5 SWAP7 SWAP5 PUSH32 0xF47A4F2302A3334A22353C5748D420F032E5F784E851777209232D29D1693335 SWAP9 SWAP7 SWAP5 LT PUSH2 0xE6A JUMPI JUMPDEST POP POP DUP2 SHL ADD PUSH1 0x8 SSTORE PUSH2 0xDA7 JUMP JUMPDEST DUP6 ADD MLOAD PUSH1 0x0 NOT PUSH1 0xF8 DUP5 PUSH1 0x3 SHL AND SHR NOT AND SWAP1 SSTORE DUP9 DUP1 PUSH2 0xE5D JUMP JUMPDEST DUP4 DUP10 ADD MLOAD DUP6 SSTORE DUP10 SWAP7 SWAP1 SWAP5 ADD SWAP4 SWAP3 DUP4 ADD SWAP3 ADD PUSH2 0xE21 JUMP JUMPDEST PUSH2 0xEE1 SWAP1 PUSH1 0x8 PUSH1 0x0 MSTORE PUSH32 0xF3F7A9FE364FAAB93B216DA50A3214154F22A0A2B415B23A84C8169E8B636EE3 PUSH1 0x1F DUP5 ADD PUSH1 0x5 SHR DUP2 ADD SWAP2 DUP9 DUP6 LT PUSH2 0x5E7 JUMPI PUSH1 0x1F ADD PUSH1 0x5 SHR ADD SWAP1 PUSH2 0x329E JUMP JUMPDEST DUP6 PUSH2 0xD55 JUMP JUMPDEST PUSH1 0x40 MLOAD PUSH3 0x461BCD PUSH1 0xE5 SHL DUP2 MSTORE PUSH1 0x4 DUP2 ADD DUP5 SWAP1 MSTORE PUSH1 0x1A PUSH1 0x24 DUP3 ADD MSTORE PUSH32 0x5265766F636174696F6E20726561736F6E207265717569726564000000000000 PUSH1 0x44 DUP3 ADD MSTORE PUSH1 0x64 SWAP1 REVERT JUMPDEST CALLVALUE PUSH2 0x1E3 JUMPI PUSH1 0x0 CALLDATASIZE PUSH1 0x3 NOT ADD SLT PUSH2 0x1E3 JUMPI PUSH1 0x20 PUSH1 0xD SLOAD PUSH1 0x40 MLOAD SWAP1 DUP2 MSTORE RETURN JUMPDEST CALLVALUE PUSH2 0x1E3 JUMPI PUSH1 0x60 CALLDATASIZE PUSH1 0x3 NOT ADD SLT PUSH2 0x1E3 JUMPI PUSH2 0xF63 PUSH2 0x2F38 JUMP JUMPDEST PUSH1 0x44 CALLDATALOAD PUSH1 0x1 PUSH1 0x1 PUSH1 0x40 SHL SUB DUP2 GT PUSH2 0x1E3 JUMPI PUSH1 0x20 SWAP2 PUSH2 0xF88 PUSH2 0x1D9 SWAP3 CALLDATASIZE SWAP1 PUSH1 0x4 ADD PUSH2 0x2E83 JUMP JUMPDEST SWAP1 PUSH1 0x4 CALLDATALOAD PUSH2 0x370E JUMP JUMPDEST CALLVALUE PUSH2 0x1E3 JUMPI PUSH1 0x20 CALLDATASIZE PUSH1 0x3 NOT ADD SLT PUSH2 0x1E3 JUMPI PUSH1 0x4 CALLDATALOAD PUSH1 0x1 PUSH1 0x1 PUSH1 0x40 SHL SUB DUP2 GT PUSH2 0x1E3 JUMPI PUSH1 0x20 PUSH2 0xFC6 PUSH2 0xFD9 SWAP3 CALLDATASIZE SWAP1 PUSH1 0x4 ADD PUSH2 0x2E83 JUMP JUMPDEST DUP2 PUSH1 0x40 MLOAD SWAP4 DUP3 DUP6 DUP1 SWAP5 MLOAD SWAP4 DUP5 SWAP3 ADD PUSH2 0x2ED9 JUMP JUMPDEST DUP2 ADD PUSH1 0x9 DUP2 MSTORE SUB ADD SWAP1 KECCAK256 PUSH1 0x40 MLOAD SWAP1 PUSH2 0xFF5 DUP3 PUSH2 0xB36 DUP2 DUP5 PUSH2 0x313A JUMP JUMPDEST PUSH2 0xB51 PUSH1 0x2 PUSH1 0x1 DUP4 ADD SLOAD SWAP3 ADD SLOAD PUSH1 0x40 MLOAD SWAP4 DUP5 SWAP4 PUSH1 0xFF PUSH1 0x1 DUP1 PUSH1 0xA0 SHL SUB DUP5 PUSH1 0x8 SHR AND SWAP4 AND SWAP2 DUP6 PUSH2 0x3211 JUMP JUMPDEST CALLVALUE PUSH2 0x1E3 JUMPI PUSH1 0x0 CALLDATASIZE PUSH1 0x3 NOT ADD SLT PUSH2 0x1E3 JUMPI PUSH1 0xFF PUSH1 0x7 SLOAD AND PUSH2 0x1040 DUP2 ISZERO PUSH2 0x35E5 JUMP JUMPDEST PUSH1 0xFF PUSH1 0x4 SLOAD AND SWAP1 PUSH2 0xB51 PUSH1 0x5 SLOAD PUSH1 0x6 SLOAD SWAP3 PUSH1 0x40 MLOAD SWAP4 PUSH2 0x1069 DUP6 PUSH2 0x1062 DUP2 PUSH2 0x3021 JUMP JUMPDEST SUB DUP7 PUSH2 0x2E62 JUMP JUMPDEST PUSH1 0x40 MLOAD SWAP3 PUSH2 0xBD1 DUP5 PUSH2 0xBCA DUP2 PUSH2 0x30B3 JUMP JUMPDEST CALLVALUE PUSH2 0x1E3 JUMPI PUSH1 0x0 CALLDATASIZE PUSH1 0x3 NOT ADD SLT PUSH2 0x1E3 JUMPI PUSH1 0x0 SLOAD PUSH1 0x40 MLOAD PUSH1 0x1 PUSH1 0x1 PUSH1 0xA0 SHL SUB SWAP1 SWAP2 AND DUP2 MSTORE PUSH1 0x20 SWAP1 RETURN JUMPDEST CALLVALUE PUSH2 0x1E3 JUMPI PUSH1 0x20 PUSH1 0xFF PUSH2 0x10D6 PUSH2 0x10B8 CALLDATASIZE PUSH2 0x2F73 JUMP JUMPDEST PUSH1 0x1 PUSH1 0x1 PUSH1 0xA0 SHL SUB SWAP1 SWAP2 AND PUSH1 0x0 SWAP1 DUP2 MSTORE PUSH1 0xA DUP6 MSTORE PUSH1 0x40 SWAP1 KECCAK256 SWAP1 PUSH2 0x2EFC JUMP JUMPDEST SLOAD AND PUSH1 0x40 MLOAD SWAP1 ISZERO ISZERO DUP2 MSTORE RETURN JUMPDEST CALLVALUE PUSH2 0x1E3 JUMPI PUSH1 0x0 CALLDATASIZE PUSH1 0x3 NOT ADD SLT PUSH2 0x1E3 JUMPI PUSH2 0x10FB PUSH2 0x3246 JUMP JUMPDEST PUSH2 0x1103 PUSH2 0x3628 JUMP JUMPDEST PUSH1 0x1 PUSH1 0xFF NOT PUSH1 0x2 SLOAD AND OR PUSH1 0x2 SSTORE PUSH32 0x62E78CEA01BEE320CD4E420270B5EA74000D11B0C9F74754EBDBFC544B05A258 PUSH1 0x20 PUSH1 0x40 MLOAD CALLER DUP2 MSTORE LOG1 STOP JUMPDEST CALLVALUE PUSH2 0x1E3 JUMPI PUSH1 0x0 CALLDATASIZE PUSH1 0x3 NOT ADD SLT PUSH2 0x1E3 JUMPI PUSH2 0x1155 PUSH2 0x3246 JUMP JUMPDEST PUSH2 0x115D PUSH2 0x3628 JUMP JUMPDEST PUSH2 0x116C PUSH1 0xFF PUSH1 0x7 SLOAD AND ISZERO PUSH2 0x35E5 JUMP JUMPDEST PUSH2 0x1174 PUSH2 0x366C JUMP JUMPDEST PUSH1 0x4 SLOAD PUSH1 0xFF DUP2 AND ISZERO PUSH2 0x11D2 JUMPI PUSH1 0xFF NOT AND PUSH1 0x4 SSTORE TIMESTAMP PUSH1 0x6 SSTORE PUSH32 0x4360F12F602CCECEFB32480E5314D0D3F57D38DB8F52C76D8FDF4C39596C1C28 PUSH1 0x40 MLOAD PUSH1 0x20 DUP2 MSTORE DUP1 PUSH2 0x11C0 PUSH1 0x20 DUP3 ADD PUSH2 0x3021 JUMP JUMPDEST SUB SWAP1 LOG1 PUSH1 0x1 DUP1 SSTORE PUSH1 0x20 PUSH1 0x40 MLOAD PUSH1 0x1 DUP2 MSTORE RETURN JUMPDEST PUSH1 0x40 MLOAD PUSH3 0x461BCD PUSH1 0xE5 SHL DUP2 MSTORE PUSH1 0x20 PUSH1 0x4 DUP3 ADD MSTORE PUSH1 0x17 PUSH1 0x24 DUP3 ADD MSTORE PUSH32 0x44494420697320616C726561647920696E616374697665000000000000000000 PUSH1 0x44 DUP3 ADD MSTORE PUSH1 0x64 SWAP1 REVERT JUMPDEST CALLVALUE PUSH2 0x1E3 JUMPI PUSH1 0x0 CALLDATASIZE PUSH1 0x3 NOT ADD SLT PUSH2 0x1E3 JUMPI PUSH2 0x1230 PUSH2 0x3246 JUMP JUMPDEST PUSH1 0x0 DUP1 SLOAD PUSH1 0x1 PUSH1 0x1 PUSH1 0xA0 SHL SUB NOT DUP2 AND DUP3 SSTORE PUSH1 0x1 PUSH1 0x1 PUSH1 0xA0 SHL SUB AND PUSH32 0x8BE0079C531659141344CD1FD0A4F28419497F9722A3DAAFE3B4186F6B6457E0 DUP3 DUP1 LOG3 STOP JUMPDEST CALLVALUE PUSH2 0x1E3 JUMPI PUSH1 0x20 CALLDATASIZE PUSH1 0x3 NOT ADD SLT PUSH2 0x1E3 JUMPI PUSH1 0x4 CALLDATALOAD PUSH1 0x0 MSTORE PUSH1 0xF PUSH1 0x20 MSTORE PUSH2 0x1337 PUSH1 0x40 PUSH1 0x0 KECCAK256 PUSH2 0xB51 PUSH1 0x5 PUSH2 0x136F PUSH1 0x40 MLOAD SWAP4 PUSH2 0x12AE DUP6 PUSH2 0x1062 DUP2 DUP5 PUSH2 0x313A JUMP JUMPDEST PUSH2 0x1361 PUSH1 0x40 MLOAD PUSH2 0x12C5 DUP2 PUSH2 0xB9B DUP2 PUSH1 0x1 DUP8 ADD PUSH2 0x313A JUMP JUMPDEST PUSH2 0x1353 PUSH1 0x40 MLOAD PUSH2 0x12DC DUP2 PUSH2 0xB9B DUP2 PUSH1 0x2 DUP10 ADD PUSH2 0x313A JUMP JUMPDEST PUSH2 0x1345 PUSH1 0x40 MLOAD SWAP4 PUSH2 0x12F4 DUP6 PUSH2 0x1062 DUP2 PUSH1 0x3 DUP12 ADD PUSH2 0x313A JUMP JUMPDEST PUSH2 0x1323 PUSH1 0x40 MLOAD SWAP8 PUSH2 0x1313 DUP10 PUSH2 0x130C DUP2 PUSH1 0x4 DUP6 ADD PUSH2 0x313A JUMP JUMPDEST SUB DUP11 PUSH2 0x2E62 JUMP JUMPDEST PUSH2 0x130C PUSH1 0x40 MLOAD DUP1 SWAP13 DUP2 SWAP4 ADD PUSH2 0x313A JUMP JUMPDEST PUSH1 0x40 MLOAD SWAP12 DUP13 SWAP12 PUSH1 0xC0 DUP14 MSTORE PUSH1 0xC0 DUP14 ADD SWAP1 PUSH2 0x2F4E JUMP JUMPDEST SWAP1 DUP12 DUP3 SUB PUSH1 0x20 DUP14 ADD MSTORE PUSH2 0x2F4E JUMP JUMPDEST SWAP1 DUP10 DUP3 SUB PUSH1 0x40 DUP12 ADD MSTORE PUSH2 0x2F4E JUMP JUMPDEST SWAP1 DUP8 DUP3 SUB PUSH1 0x60 DUP10 ADD MSTORE PUSH2 0x2F4E JUMP JUMPDEST SWAP1 DUP6 DUP3 SUB PUSH1 0x80 DUP8 ADD MSTORE PUSH2 0x2F4E JUMP JUMPDEST SWAP1 DUP4 DUP3 SUB PUSH1 0xA0 DUP6 ADD MSTORE PUSH2 0x2F4E JUMP JUMPDEST CALLVALUE PUSH2 0x1E3 JUMPI PUSH1 0x40 CALLDATASIZE PUSH1 0x3 NOT ADD SLT PUSH2 0x1E3 JUMPI PUSH2 0x1396 PUSH2 0x2F22 JUMP JUMPDEST PUSH1 0x1 PUSH1 0x1 PUSH1 0xA0 SHL SUB AND PUSH1 0x0 SWAP1 DUP2 MSTORE PUSH1 0xE PUSH1 0x20 MSTORE PUSH1 0x40 SWAP1 KECCAK256 DUP1 SLOAD PUSH1 0x24 CALLDATALOAD SWAP1 DUP2 LT ISZERO PUSH2 0x1E3 JUMPI PUSH2 0x13C3 SWAP2 PUSH2 0x2FB5 JUMP JUMPDEST POP PUSH1 0x40 MLOAD PUSH2 0x13D5 DUP2 PUSH2 0xB9B DUP2 DUP6 PUSH2 0x313A JUMP JUMPDEST PUSH2 0xB51 PUSH1 0x5 PUSH1 0xFF PUSH1 0x1 DUP6 ADD SLOAD AND SWAP4 PUSH1 0x2 DUP2 ADD SLOAD PUSH1 0x3 DUP3 ADD SLOAD SWAP1 PUSH2 0xBD1 PUSH1 0xFF PUSH1 0x4 DUP6 ADD SLOAD AND SWAP4 PUSH2 0xBCA PUSH1 0x40 MLOAD DUP1 SWAP8 DUP2 SWAP4 ADD PUSH2 0x313A JUMP JUMPDEST CALLVALUE PUSH2 0x1E3 JUMPI PUSH2 0x14AD PUSH32 0x51CBCAACA6AE26944C6280C966A07B04CA5C6766D82CA497DED152579431468D PUSH2 0x143C CALLDATASIZE PUSH2 0x2F73 JUMP JUMPDEST SWAP3 SWAP1 PUSH2 0x1446 PUSH2 0x3246 JUMP JUMPDEST PUSH2 0x144E PUSH2 0x3628 JUMP JUMPDEST PUSH2 0x145D PUSH1 0xFF PUSH1 0x7 SLOAD AND ISZERO PUSH2 0x35E5 JUMP JUMPDEST PUSH2 0x1465 PUSH2 0x366C JUMP JUMPDEST PUSH1 0x1 PUSH1 0x1 PUSH1 0xA0 SHL SUB AND SWAP3 PUSH2 0x147A DUP5 ISZERO ISZERO PUSH2 0x37CB JUMP JUMPDEST DUP4 PUSH1 0x0 MSTORE PUSH1 0xA PUSH1 0x20 MSTORE PUSH2 0x1491 PUSH1 0x40 PUSH1 0x0 KECCAK256 DUP3 PUSH2 0x2EFC JUMP JUMPDEST PUSH1 0xFF NOT DUP2 SLOAD AND SWAP1 SSTORE PUSH1 0x40 MLOAD SWAP2 DUP3 SWAP2 PUSH1 0x20 DUP4 MSTORE PUSH1 0x20 DUP4 ADD SWAP1 PUSH2 0x2F4E JUMP JUMPDEST SUB SWAP1 LOG2 PUSH1 0x1 DUP1 SSTORE PUSH1 0x20 PUSH1 0x40 MLOAD PUSH1 0x1 DUP2 MSTORE RETURN JUMPDEST CALLVALUE PUSH2 0x1E3 JUMPI PUSH1 0x60 CALLDATASIZE PUSH1 0x3 NOT ADD SLT PUSH2 0x1E3 JUMPI PUSH2 0x14D8 PUSH2 0x2F22 JUMP JUMPDEST PUSH1 0x44 CALLDATALOAD PUSH1 0x1 PUSH1 0x1 PUSH1 0x40 SHL SUB DUP2 GT PUSH2 0x1E3 JUMPI PUSH2 0xB51 SWAP2 PUSH2 0x14FE PUSH2 0x1508 SWAP3 CALLDATASIZE SWAP1 PUSH1 0x4 ADD PUSH2 0x2E83 JUMP JUMPDEST SWAP1 PUSH1 0x24 CALLDATALOAD SWAP1 PUSH2 0x344D JUMP JUMPDEST PUSH1 0x40 MLOAD SWAP2 DUP3 SWAP2 PUSH1 0x20 DUP4 MSTORE PUSH1 0x20 DUP4 ADD SWAP1 PUSH2 0x2F4E JUMP JUMPDEST CALLVALUE PUSH2 0x1E3 JUMPI PUSH1 0x0 CALLDATASIZE PUSH1 0x3 NOT ADD SLT PUSH2 0x1E3 JUMPI PUSH1 0x20 PUSH1 0xFF PUSH1 0x2 SLOAD AND PUSH1 0x40 MLOAD SWAP1 ISZERO ISZERO DUP2 MSTORE RETURN JUMPDEST CALLVALUE PUSH2 0x1E3 JUMPI PUSH1 0x0 CALLDATASIZE PUSH1 0x3 NOT ADD SLT PUSH2 0x1E3 JUMPI PUSH1 0x20 PUSH1 0x40 MLOAD PUSH2 0x3E8 DUP2 MSTORE RETURN JUMPDEST CALLVALUE PUSH2 0x1E3 JUMPI PUSH1 0x40 CALLDATASIZE PUSH1 0x3 NOT ADD SLT PUSH2 0x1E3 JUMPI PUSH1 0x4 CALLDATALOAD PUSH1 0x1 PUSH1 0x1 PUSH1 0x40 SHL SUB DUP2 GT PUSH2 0x1E3 JUMPI PUSH2 0x158C SWAP1 CALLDATASIZE SWAP1 PUSH1 0x4 ADD PUSH2 0x2E83 JUMP JUMPDEST PUSH2 0x1594 PUSH2 0x2F38 JUMP JUMPDEST PUSH2 0x159C PUSH2 0x3246 JUMP JUMPDEST PUSH2 0x15A4 PUSH2 0x3628 JUMP JUMPDEST PUSH2 0x15B3 PUSH1 0xFF PUSH1 0x7 SLOAD AND ISZERO PUSH2 0x35E5 JUMP JUMPDEST PUSH2 0x15BB PUSH2 0x366C JUMP JUMPDEST PUSH1 0x40 MLOAD SWAP2 DUP1 MLOAD PUSH2 0x15DB PUSH2 0xAEA PUSH1 0x20 SWAP6 DUP7 DUP2 DUP2 DUP8 ADD SWAP6 PUSH2 0xADA DUP2 DUP4 DUP10 PUSH2 0x2ED9 JUMP JUMPDEST PUSH1 0x1 PUSH1 0x1 PUSH1 0xA0 SHL SUB DUP4 AND SWAP3 DUP4 ISZERO PUSH2 0x16CD JUMPI SWAP2 PUSH2 0x169A PUSH1 0x1 PUSH2 0x16BD SWAP4 PUSH2 0x168A PUSH32 0x1C564F9C63901C7B3617B5A5A8D210F8871F28D4AFA53586ED6F670ABE7E220A SWAP7 PUSH1 0x2 PUSH1 0x40 MLOAD DUP12 DUP2 DUP10 MLOAD PUSH2 0x162F DUP2 DUP4 DUP11 PUSH2 0x2ED9 JUMP JUMPDEST DUP2 ADD PUSH1 0x9 DUP2 MSTORE SUB ADD SWAP1 KECCAK256 ADD DUP5 PUSH1 0xFF NOT DUP3 SLOAD AND OR SWAP1 SSTORE PUSH1 0x2 PUSH1 0x40 MLOAD DUP12 DUP2 DUP10 MLOAD PUSH2 0x1658 DUP2 DUP4 DUP11 PUSH2 0x2ED9 JUMP JUMPDEST PUSH1 0x9 SWAP1 DUP3 ADD SWAP1 DUP2 MSTORE SUB ADD SWAP1 KECCAK256 ADD DUP1 SLOAD PUSH2 0x100 PUSH1 0x1 PUSH1 0xA8 SHL SUB NOT AND PUSH1 0x8 SWAP3 SWAP1 SWAP3 SHL PUSH2 0x100 PUSH1 0x1 PUSH1 0xA8 SHL SUB AND SWAP2 SWAP1 SWAP2 OR SWAP1 SSTORE JUMP JUMPDEST PUSH1 0x40 MLOAD SWAP3 DUP4 SWAP2 DUP6 MLOAD SWAP3 DUP4 SWAP2 PUSH2 0x2ED9 JUMP JUMPDEST DUP3 ADD SWAP2 PUSH1 0x9 DUP4 MSTORE DUP8 DUP2 TIMESTAMP SWAP5 SUB ADD SWAP1 KECCAK256 ADD SSTORE PUSH1 0x40 MLOAD SWAP2 DUP3 SWAP2 DUP7 DUP4 MSTORE DUP7 DUP4 ADD SWAP1 PUSH2 0x2F4E JUMP JUMPDEST SUB SWAP1 LOG2 PUSH1 0x1 DUP1 SSTORE PUSH1 0x40 MLOAD PUSH1 0x1 DUP2 MSTORE RETURN JUMPDEST PUSH1 0x40 MLOAD PUSH3 0x461BCD PUSH1 0xE5 SHL DUP2 MSTORE PUSH1 0x4 DUP2 ADD DUP7 SWAP1 MSTORE PUSH1 0x18 PUSH1 0x24 DUP3 ADD MSTORE PUSH32 0x496E76616C696420766572696669657220616464726573730000000000000000 PUSH1 0x44 DUP3 ADD MSTORE PUSH1 0x64 SWAP1 REVERT JUMPDEST CALLVALUE PUSH2 0x1E3 JUMPI PUSH1 0x40 CALLDATASIZE PUSH1 0x3 NOT ADD SLT PUSH2 0x1E3 JUMPI PUSH2 0x172B PUSH2 0x2F22 JUMP JUMPDEST PUSH1 0x1 PUSH1 0x1 PUSH1 0xA0 SHL SUB DUP2 AND PUSH1 0x0 DUP2 DUP2 MSTORE PUSH1 0xE PUSH1 0x20 MSTORE PUSH1 0x40 SWAP1 KECCAK256 SLOAD PUSH1 0x24 CALLDATALOAD SWAP3 PUSH2 0x1768 SWAP2 PUSH2 0x1757 SWAP1 DUP6 LT PUSH2 0x33B0 JUMP JUMPDEST PUSH2 0x175F PUSH2 0x32B5 JUMP JUMPDEST SWAP1 DUP5 CALLER SWAP2 PUSH2 0x3809 JUMP JUMPDEST ISZERO PUSH2 0x1900 JUMPI PUSH1 0x0 MSTORE PUSH1 0xE PUSH1 0x20 MSTORE DUP1 PUSH1 0x40 PUSH1 0x0 KECCAK256 SWAP1 PUSH2 0x1785 SWAP2 PUSH2 0x2FB5 JUMP JUMPDEST POP SWAP1 PUSH1 0x0 MSTORE PUSH1 0xF PUSH1 0x20 MSTORE PUSH1 0x40 PUSH1 0x0 KECCAK256 SWAP1 PUSH1 0x1 DUP2 ADD SLOAD PUSH1 0xFF AND PUSH1 0x2 DUP3 ADD SLOAD PUSH1 0x3 DUP4 ADD SLOAD SWAP1 PUSH1 0x40 MLOAD PUSH2 0x17B6 DUP2 DUP1 SWAP7 PUSH2 0x313A JUMP JUMPDEST SUB PUSH2 0x17C1 SWAP1 DUP6 PUSH2 0x2E62 JUMP JUMPDEST PUSH1 0x40 MLOAD SWAP5 DUP6 PUSH2 0x17D0 DUP2 DUP4 PUSH2 0x313A JUMP JUMPDEST SUB PUSH2 0x17DB SWAP1 DUP8 PUSH2 0x2E62 JUMP JUMPDEST PUSH1 0x40 MLOAD DUP1 PUSH2 0x17EC DUP2 PUSH1 0x1 DUP6 ADD PUSH2 0x313A JUMP JUMPDEST SUB PUSH2 0x17F7 SWAP1 DUP3 PUSH2 0x2E62 JUMP JUMPDEST PUSH1 0x40 MLOAD DUP1 PUSH2 0x1808 DUP2 PUSH1 0x2 DUP7 ADD PUSH2 0x313A JUMP JUMPDEST SUB PUSH2 0x1813 SWAP1 DUP3 PUSH2 0x2E62 JUMP JUMPDEST PUSH1 0x40 MLOAD SWAP1 DUP2 PUSH2 0x1825 DUP2 PUSH1 0x3 DUP8 ADD PUSH2 0x313A JUMP JUMPDEST SUB PUSH2 0x1830 SWAP1 DUP4 PUSH2 0x2E62 JUMP JUMPDEST PUSH1 0x40 MLOAD SWAP3 DUP4 PUSH2 0x1842 DUP2 PUSH1 0x4 DUP9 ADD PUSH2 0x313A JUMP JUMPDEST SUB PUSH2 0x184D SWAP1 DUP6 PUSH2 0x2E62 JUMP JUMPDEST PUSH1 0x40 MLOAD DUP1 PUSH1 0x5 DUP2 SWAP8 ADD SWAP1 PUSH2 0x1860 SWAP2 PUSH2 0x313A JUMP JUMPDEST SUB PUSH2 0x186B SWAP1 DUP7 PUSH2 0x2E62 JUMP JUMPDEST PUSH1 0x40 MLOAD SWAP10 DUP11 SWAP10 PUSH2 0x140 DUP1 DUP13 MSTORE DUP12 ADD PUSH2 0x1882 SWAP2 PUSH2 0x2F4E JUMP JUMPDEST DUP11 DUP2 SUB PUSH1 0x20 DUP13 ADD MSTORE PUSH2 0x1893 SWAP2 PUSH2 0x2F4E JUMP JUMPDEST DUP10 DUP2 SUB PUSH1 0x40 DUP12 ADD MSTORE PUSH2 0x18A4 SWAP2 PUSH2 0x2F4E JUMP JUMPDEST DUP9 DUP2 SUB PUSH1 0x60 DUP11 ADD MSTORE PUSH2 0x18B5 SWAP2 PUSH2 0x2F4E JUMP JUMPDEST DUP8 DUP2 SUB PUSH1 0x80 DUP10 ADD MSTORE PUSH2 0x18C6 SWAP2 PUSH2 0x2F4E JUMP JUMPDEST DUP7 DUP2 SUB PUSH1 0xA0 DUP9 ADD MSTORE PUSH2 0x18D7 SWAP2 PUSH2 0x2F4E JUMP JUMPDEST DUP6 DUP2 SUB PUSH1 0xC0 DUP8 ADD MSTORE PUSH2 0x18E8 SWAP2 PUSH2 0x2F4E JUMP JUMPDEST SWAP3 ISZERO ISZERO PUSH1 0xE0 DUP6 ADD MSTORE PUSH2 0x100 DUP5 ADD MSTORE PUSH2 0x120 DUP4 ADD MSTORE SUB SWAP1 RETURN JUMPDEST PUSH1 0x40 MLOAD PUSH3 0x461BCD PUSH1 0xE5 SHL DUP2 MSTORE PUSH1 0x20 PUSH1 0x4 DUP3 ADD MSTORE PUSH1 0x27 PUSH1 0x24 DUP3 ADD MSTORE PUSH32 0x4E6F7420617574686F72697A656420746F206163636573732041616468617220 PUSH1 0x44 DUP3 ADD MSTORE PUSH7 0x64657461696C73 PUSH1 0xC8 SHL PUSH1 0x64 DUP3 ADD MSTORE PUSH1 0x84 SWAP1 REVERT JUMPDEST CALLVALUE PUSH2 0x1E3 JUMPI PUSH1 0x0 CALLDATASIZE PUSH1 0x3 NOT ADD SLT PUSH2 0x1E3 JUMPI PUSH2 0x196E PUSH2 0x3246 JUMP JUMPDEST PUSH1 0x2 SLOAD PUSH1 0xFF DUP2 AND ISZERO PUSH2 0x19AD JUMPI PUSH1 0xFF NOT AND PUSH1 0x2 SSTORE PUSH32 0x5DB9EE0A495BF2E6FF9C91A7834C1BA4FDD244A5E8AA4E537BD38AEAE4B073AA PUSH1 0x20 PUSH1 0x40 MLOAD CALLER DUP2 MSTORE LOG1 STOP JUMPDEST PUSH1 0x40 MLOAD PUSH3 0x461BCD PUSH1 0xE5 SHL DUP2 MSTORE PUSH1 0x20 PUSH1 0x4 DUP3 ADD MSTORE PUSH1 0x14 PUSH1 0x24 DUP3 ADD MSTORE PUSH20 0x14185D5CD8589B194E881B9BDD081C185D5CD959 PUSH1 0x62 SHL PUSH1 0x44 DUP3 ADD MSTORE PUSH1 0x64 SWAP1 REVERT JUMPDEST CALLVALUE PUSH2 0x1E3 JUMPI PUSH1 0x0 CALLDATASIZE PUSH1 0x3 NOT ADD SLT PUSH2 0x1E3 JUMPI PUSH1 0x20 PUSH1 0x40 MLOAD PUSH1 0x32 DUP2 MSTORE RETURN JUMPDEST CALLVALUE PUSH2 0x1E3 JUMPI PUSH1 0x20 DUP1 PUSH1 0x3 NOT CALLDATASIZE ADD SLT PUSH2 0x1E3 JUMPI PUSH1 0x4 CALLDATALOAD PUSH1 0x1 PUSH1 0x1 PUSH1 0x40 SHL SUB DUP2 GT PUSH2 0x1E3 JUMPI PUSH2 0x1A36 SWAP1 CALLDATASIZE SWAP1 PUSH1 0x4 ADD PUSH2 0x2E83 JUMP JUMPDEST PUSH2 0x1A3E PUSH2 0x3246 JUMP JUMPDEST PUSH2 0x1A46 PUSH2 0x3628 JUMP JUMPDEST PUSH2 0x1A55 PUSH1 0xFF PUSH1 0x7 SLOAD AND ISZERO PUSH2 0x35E5 JUMP JUMPDEST PUSH2 0x1A5D PUSH2 0x366C JUMP JUMPDEST PUSH1 0x0 PUSH1 0x2 PUSH2 0x1A93 DUP5 PUSH1 0x40 MLOAD PUSH2 0x1A82 PUSH2 0xAEA DUP8 MLOAD SWAP3 DUP5 DUP2 DUP2 DUP12 ADD SWAP6 PUSH2 0xADA DUP2 DUP4 DUP10 PUSH2 0x2ED9 JUMP JUMPDEST PUSH1 0x40 MLOAD DUP1 SWAP4 DUP2 SWAP3 DUP9 MLOAD SWAP3 DUP4 SWAP2 PUSH2 0x2ED9 JUMP JUMPDEST DUP2 ADD PUSH1 0x9 DUP2 MSTORE SUB ADD SWAP1 KECCAK256 PUSH2 0x1AA7 DUP2 SLOAD PUSH2 0x2FE7 JUMP JUMPDEST DUP1 PUSH2 0x1B56 JUMPI JUMPDEST POP DUP3 PUSH1 0x1 DUP3 ADD SSTORE ADD SSTORE PUSH1 0xD SLOAD DUP1 ISZERO PUSH2 0x1B11 JUMPI PUSH1 0x0 NOT ADD PUSH1 0xD SSTORE TIMESTAMP PUSH1 0x6 SSTORE PUSH1 0x40 MLOAD DUP3 DUP2 MSTORE PUSH32 0x8088DB29D4761A957C0A396FA3C5F3F369FBFCA4F1A83DAE8B4F76A31726246A SWAP2 DUP2 SWAP1 PUSH2 0x1B01 SWAP1 DUP6 DUP4 ADD SWAP1 PUSH2 0x2F4E JUMP JUMPDEST SUB SWAP1 LOG1 PUSH1 0x1 DUP1 SSTORE PUSH1 0x40 MLOAD PUSH1 0x1 DUP2 MSTORE RETURN JUMPDEST PUSH1 0x40 MLOAD PUSH3 0x461BCD PUSH1 0xE5 SHL DUP2 MSTORE PUSH1 0x4 DUP2 ADD DUP5 SWAP1 MSTORE PUSH1 0x1B PUSH1 0x24 DUP3 ADD MSTORE PUSH32 0x436F756E7465723A2064656372656D656E74206F766572666C6F770000000000 PUSH1 0x44 DUP3 ADD MSTORE PUSH1 0x64 SWAP1 REVERT JUMPDEST PUSH1 0x1F DUP2 GT PUSH1 0x1 EQ PUSH2 0x1B6C JUMPI POP DUP3 DUP2 SSTORE JUMPDEST DUP6 PUSH2 0x1AAD JUMP JUMPDEST DUP4 SWAP1 DUP3 DUP3 MSTORE PUSH2 0x1B89 PUSH1 0x1F DUP9 DUP5 KECCAK256 SWAP3 ADD PUSH1 0x5 SHR DUP3 ADD PUSH1 0x1 DUP4 ADD PUSH2 0x329E JUMP JUMPDEST DUP2 DUP4 SSTORE SSTORE PUSH2 0x1B66 JUMP JUMPDEST CALLVALUE PUSH2 0x1E3 JUMPI PUSH1 0x20 DUP1 PUSH1 0x3 NOT CALLDATASIZE ADD SLT PUSH2 0x1E3 JUMPI PUSH1 0x1 PUSH1 0x1 PUSH1 0x40 SHL SUB PUSH1 0x4 CALLDATALOAD DUP2 DUP2 GT PUSH2 0x1E3 JUMPI PUSH2 0x1BC4 SWAP1 CALLDATASIZE SWAP1 PUSH1 0x4 ADD PUSH2 0x2E83 JUMP JUMPDEST SWAP1 PUSH2 0x1BCD PUSH2 0x3628 JUMP JUMPDEST PUSH2 0x1BDC PUSH1 0xFF PUSH1 0x7 SLOAD AND ISZERO PUSH2 0x35E5 JUMP JUMPDEST PUSH2 0x1BE4 PUSH2 0x366C JUMP JUMPDEST DUP2 MLOAD ISZERO PUSH2 0x1E52 JUMPI PUSH1 0x64 DUP3 MLOAD GT PUSH2 0x1E17 JUMPI PUSH1 0x40 MLOAD SWAP1 PUSH1 0xFF DUP4 MLOAD SWAP3 DUP6 DUP2 DUP2 DUP8 ADD SWAP6 PUSH2 0x1C0E DUP2 DUP4 DUP10 PUSH2 0x2ED9 JUMP JUMPDEST DUP2 ADD PUSH1 0xC DUP2 MSTORE SUB ADD SWAP1 KECCAK256 SLOAD AND PUSH2 0x1DD6 JUMPI PUSH1 0x3 SWAP1 DUP2 SLOAD PUSH2 0x1C2C DUP2 PUSH2 0x2FE7 JUMP JUMPDEST PUSH2 0x1D9C JUMPI DUP5 MLOAD SWAP2 DUP3 GT PUSH2 0x5F1 JUMPI PUSH2 0x1C42 SWAP1 PUSH2 0x2FE7 JUMP JUMPDEST PUSH1 0x1F DUP2 GT PUSH2 0x1D61 JUMPI JUMPDEST POP DUP1 DUP6 PUSH1 0x1F DUP3 GT PUSH1 0x1 EQ PUSH2 0x1CF3 JUMPI PUSH1 0x0 SWAP2 PUSH2 0x1CE8 JUMPI JUMPDEST POP DUP2 PUSH1 0x1 SHL SWAP2 PUSH1 0x0 NOT SWAP1 DUP5 SHL SHR NOT AND OR SWAP1 SSTORE JUMPDEST TIMESTAMP PUSH1 0x5 SSTORE TIMESTAMP PUSH1 0x6 SSTORE PUSH1 0x1 PUSH2 0x1CA1 DUP5 PUSH1 0xFF NOT SWAP4 DUP4 DUP6 PUSH1 0x4 SLOAD AND OR PUSH1 0x4 SSTORE PUSH1 0x40 MLOAD DUP1 SWAP4 DUP2 SWAP3 DUP9 MLOAD SWAP3 DUP4 SWAP2 PUSH2 0x2ED9 JUMP JUMPDEST DUP2 ADD PUSH1 0xC DUP2 MSTORE SUB ADD SWAP1 KECCAK256 SWAP2 DUP3 SLOAD AND OR SWAP1 SSTORE PUSH32 0x44CA9609D2FE597457041D7E98533A969452EF425C10A46D0DD9F074497EA1BA PUSH1 0x40 MLOAD DUP4 DUP2 MSTORE DUP1 PUSH2 0x16BD CALLER SWAP5 DUP7 DUP4 ADD SWAP1 PUSH2 0x2F4E JUMP JUMPDEST SWAP1 POP DUP5 ADD MLOAD DUP7 PUSH2 0x1C61 JUMP JUMPDEST PUSH1 0x0 DUP5 DUP2 MSTORE PUSH1 0x0 DUP1 MLOAD PUSH1 0x20 PUSH2 0x3864 DUP4 CODECOPY DUP2 MLOAD SWAP2 MSTORE SWAP3 POP PUSH1 0x1F NOT DUP5 AND SWAP1 JUMPDEST DUP9 DUP3 DUP3 LT PUSH2 0x1D4B JUMPI POP POP SWAP1 DUP4 PUSH1 0x1 SWAP5 SWAP4 SWAP3 LT PUSH2 0x1D33 JUMPI JUMPDEST POP POP DUP2 SHL ADD SWAP1 SSTORE PUSH2 0x1C74 JUMP JUMPDEST DUP7 ADD MLOAD PUSH1 0x0 NOT DUP4 DUP7 SHL PUSH1 0xF8 AND SHR NOT AND SWAP1 SSTORE DUP7 DUP1 PUSH2 0x1D27 JUMP JUMPDEST PUSH1 0x1 DUP5 SWAP6 DUP3 SWAP4 SWAP6 DUP12 ADD MLOAD DUP2 SSTORE ADD SWAP5 ADD SWAP3 ADD PUSH2 0x1D10 JUMP JUMPDEST PUSH2 0x1D96 SWAP1 DUP4 PUSH1 0x0 MSTORE PUSH1 0x0 DUP1 MLOAD PUSH1 0x20 PUSH2 0x3864 DUP4 CODECOPY DUP2 MLOAD SWAP2 MSTORE PUSH1 0x1F DUP5 ADD PUSH1 0x5 SHR DUP2 ADD SWAP2 DUP9 DUP6 LT PUSH2 0x5E7 JUMPI PUSH1 0x1F ADD PUSH1 0x5 SHR ADD SWAP1 PUSH2 0x329E JUMP JUMPDEST DUP6 PUSH2 0x1C4B JUMP JUMPDEST PUSH1 0x40 MLOAD PUSH3 0x461BCD PUSH1 0xE5 SHL DUP2 MSTORE PUSH1 0x4 DUP2 ADD DUP8 SWAP1 MSTORE PUSH1 0x12 PUSH1 0x24 DUP3 ADD MSTORE PUSH18 0x44494420616C726561647920657869737473 PUSH1 0x70 SHL PUSH1 0x44 DUP3 ADD MSTORE PUSH1 0x64 SWAP1 REVERT JUMPDEST PUSH1 0x40 MLOAD PUSH3 0x461BCD PUSH1 0xE5 SHL DUP2 MSTORE PUSH1 0x4 DUP2 ADD DUP6 SWAP1 MSTORE PUSH1 0x19 PUSH1 0x24 DUP3 ADD MSTORE PUSH25 0x4964656E74696669657220616C726561647920696E20757365 PUSH1 0x38 SHL PUSH1 0x44 DUP3 ADD MSTORE PUSH1 0x64 SWAP1 REVERT JUMPDEST PUSH1 0x40 MLOAD PUSH3 0x461BCD PUSH1 0xE5 SHL DUP2 MSTORE PUSH1 0x4 DUP2 ADD DUP5 SWAP1 MSTORE PUSH1 0x13 PUSH1 0x24 DUP3 ADD MSTORE PUSH19 0x4964656E74696669657220746F6F206C6F6E67 PUSH1 0x68 SHL PUSH1 0x44 DUP3 ADD MSTORE PUSH1 0x64 SWAP1 REVERT JUMPDEST PUSH1 0x40 MLOAD PUSH3 0x461BCD PUSH1 0xE5 SHL DUP2 MSTORE PUSH1 0x4 DUP2 ADD DUP5 SWAP1 MSTORE PUSH1 0x1A PUSH1 0x24 DUP3 ADD MSTORE PUSH32 0x4964656E7469666965722063616E6E6F7420626520656D707479000000000000 PUSH1 0x44 DUP3 ADD MSTORE PUSH1 0x64 SWAP1 REVERT JUMPDEST CALLVALUE PUSH2 0x1E3 JUMPI PUSH1 0x40 CALLDATASIZE PUSH1 0x3 NOT ADD SLT PUSH2 0x1E3 JUMPI PUSH1 0x1 PUSH1 0x1 PUSH1 0x40 SHL SUB PUSH1 0x4 CALLDATALOAD DUP2 DUP2 GT PUSH2 0x1E3 JUMPI PUSH2 0x1EC8 SWAP1 CALLDATASIZE SWAP1 PUSH1 0x4 ADD PUSH2 0x2E83 JUMP JUMPDEST SWAP1 PUSH1 0x24 SWAP2 DUP3 CALLDATALOAD DUP3 DUP2 GT PUSH2 0x1E3 JUMPI PUSH2 0x1EE3 SWAP1 CALLDATASIZE SWAP1 PUSH1 0x4 ADD PUSH2 0x2E83 JUMP JUMPDEST SWAP1 PUSH2 0x1EEC PUSH2 0x3246 JUMP JUMPDEST PUSH2 0x1EF4 PUSH2 0x3628 JUMP JUMPDEST PUSH2 0x1F03 PUSH1 0xFF PUSH1 0x7 SLOAD AND ISZERO PUSH2 0x35E5 JUMP JUMPDEST PUSH2 0x1F0B PUSH2 0x366C JUMP JUMPDEST DUP1 MLOAD ISZERO PUSH2 0x2240 JUMPI PUSH2 0x3E8 DUP1 DUP3 MLOAD GT PUSH2 0x21FC JUMPI DUP3 MLOAD ISZERO PUSH2 0x21B8 JUMPI DUP3 MLOAD GT PUSH2 0x2174 JUMPI PUSH1 0x32 PUSH1 0xD SLOAD LT ISZERO PUSH2 0x2130 JUMPI PUSH1 0x40 MLOAD SWAP4 PUSH2 0x1F43 DUP6 PUSH2 0x2E2C JUMP JUMPDEST DUP3 DUP6 MSTORE PUSH1 0x20 SWAP5 DUP6 DUP2 ADD TIMESTAMP DUP2 MSTORE PUSH1 0x40 DUP3 ADD SWAP6 PUSH1 0x0 DUP8 MSTORE PUSH1 0x60 DUP4 ADD SWAP4 PUSH1 0x0 DUP6 MSTORE PUSH1 0x40 MLOAD DUP10 DUP2 DUP9 MLOAD PUSH2 0x1F75 DUP2 DUP4 DUP6 DUP14 ADD PUSH2 0x2ED9 JUMP JUMPDEST DUP2 ADD PUSH1 0x9 DUP2 MSTORE SUB ADD SWAP1 KECCAK256 SWAP4 MLOAD SWAP1 DUP2 MLOAD SWAP3 DUP4 GT PUSH2 0x211C JUMPI POP PUSH2 0x1F96 DUP5 SLOAD PUSH2 0x2FE7 JUMP JUMPDEST PUSH1 0x1F DUP2 GT PUSH2 0x20EC JUMPI JUMPDEST POP DUP9 SWAP1 PUSH1 0x1F DUP4 GT PUSH1 0x1 EQ PUSH2 0x205B JUMPI SWAP3 DUP3 PUSH1 0x2 SWAP4 PUSH32 0xB5992AA9568EACC71D59E4909DD6598B92A9412825EFE4598975018EA0918D75 SWAP11 SWAP7 SWAP4 PUSH2 0x2034 SWAP9 SWAP7 PUSH1 0x0 SWAP3 PUSH2 0x2050 JUMPI JUMPDEST POP POP DUP2 PUSH1 0x1 SHL SWAP2 PUSH1 0x0 NOT SWAP1 PUSH1 0x3 SHL SHR NOT AND OR DUP3 SSTORE JUMPDEST MLOAD PUSH1 0x1 DUP3 ADD SSTORE SWAP3 MLOAD SWAP3 ADD DUP1 SLOAD SWAP2 MLOAD PUSH1 0x1 PUSH1 0x1 PUSH1 0xA8 SHL SUB NOT SWAP1 SWAP3 AND PUSH1 0xFF SWAP4 ISZERO ISZERO SWAP4 SWAP1 SWAP4 AND SWAP3 SWAP1 SWAP3 OR PUSH1 0x8 SWAP2 SWAP1 SWAP2 SHL PUSH2 0x100 PUSH1 0x1 PUSH1 0xA8 SHL SUB AND OR SWAP1 SSTORE JUMP JUMPDEST PUSH1 0x1 PUSH1 0xD SLOAD ADD PUSH1 0xD SSTORE TIMESTAMP PUSH1 0x6 SSTORE PUSH2 0x1B01 PUSH1 0x40 MLOAD SWAP3 DUP4 SWAP3 DUP4 PUSH2 0x338B JUMP JUMPDEST ADD MLOAD SWAP1 POP DUP13 DUP1 PUSH2 0x1FE3 JUMP JUMPDEST SWAP1 PUSH1 0x1F NOT DUP4 AND SWAP2 DUP6 PUSH1 0x0 MSTORE DUP11 PUSH1 0x0 KECCAK256 SWAP3 PUSH1 0x0 JUMPDEST DUP13 DUP3 DUP3 LT PUSH2 0x20D6 JUMPI POP POP SWAP4 PUSH32 0xB5992AA9568EACC71D59E4909DD6598B92A9412825EFE4598975018EA0918D75 SWAP11 SWAP7 SWAP4 PUSH2 0x2034 SWAP9 SWAP7 SWAP4 PUSH1 0x1 SWAP4 DUP4 PUSH1 0x2 SWAP9 LT PUSH2 0x20BD JUMPI JUMPDEST POP POP POP DUP2 SHL ADD DUP3 SSTORE PUSH2 0x1FF8 JUMP JUMPDEST ADD MLOAD PUSH1 0x0 NOT PUSH1 0xF8 DUP5 PUSH1 0x3 SHL AND SHR NOT AND SWAP1 SSTORE DUP13 DUP1 DUP1 PUSH2 0x20B0 JUMP JUMPDEST PUSH1 0x1 DUP6 SWAP7 DUP3 SWAP4 SWAP7 DUP7 ADD MLOAD DUP2 SSTORE ADD SWAP6 ADD SWAP4 ADD PUSH2 0x206E JUMP JUMPDEST PUSH2 0x2116 SWAP1 DUP6 PUSH1 0x0 MSTORE DUP11 PUSH1 0x0 KECCAK256 PUSH1 0x1F DUP6 ADD PUSH1 0x5 SHR DUP2 ADD SWAP2 DUP13 DUP7 LT PUSH2 0x5E7 JUMPI PUSH1 0x1F ADD PUSH1 0x5 SHR ADD SWAP1 PUSH2 0x329E JUMP JUMPDEST DUP10 PUSH2 0x1F9F JUMP JUMPDEST PUSH4 0x4E487B71 PUSH1 0xE0 SHL PUSH1 0x0 SWAP1 DUP2 MSTORE PUSH1 0x41 PUSH1 0x4 MSTORE REVERT JUMPDEST PUSH1 0x40 MLOAD PUSH3 0x461BCD PUSH1 0xE5 SHL DUP2 MSTORE PUSH1 0x20 PUSH1 0x4 DUP3 ADD MSTORE PUSH1 0x1A DUP2 DUP7 ADD MSTORE PUSH32 0x4D6178696D756D20617474726962757465732072656163686564000000000000 PUSH1 0x44 DUP3 ADD MSTORE PUSH1 0x64 SWAP1 REVERT JUMPDEST PUSH1 0x40 MLOAD PUSH3 0x461BCD PUSH1 0xE5 SHL DUP2 MSTORE PUSH1 0x20 PUSH1 0x4 DUP3 ADD MSTORE PUSH1 0x18 DUP2 DUP7 ADD MSTORE PUSH32 0x4174747269627574652076616C756520746F6F206C6F6E670000000000000000 PUSH1 0x44 DUP3 ADD MSTORE PUSH1 0x64 SWAP1 REVERT JUMPDEST PUSH1 0x40 MLOAD PUSH3 0x461BCD PUSH1 0xE5 SHL DUP2 MSTORE PUSH1 0x20 PUSH1 0x4 DUP3 ADD MSTORE PUSH1 0x1F DUP2 DUP8 ADD MSTORE PUSH32 0x4174747269627574652076616C75652063616E6E6F7420626520656D70747900 PUSH1 0x44 DUP3 ADD MSTORE PUSH1 0x64 SWAP1 REVERT JUMPDEST PUSH1 0x40 MLOAD PUSH3 0x461BCD PUSH1 0xE5 SHL DUP2 MSTORE PUSH1 0x20 PUSH1 0x4 DUP3 ADD MSTORE PUSH1 0x17 DUP2 DUP8 ADD MSTORE PUSH32 0x417474726962757465206E616D6520746F6F206C6F6E67000000000000000000 PUSH1 0x44 DUP3 ADD MSTORE PUSH1 0x64 SWAP1 REVERT JUMPDEST PUSH1 0x40 MLOAD PUSH3 0x461BCD PUSH1 0xE5 SHL DUP2 MSTORE PUSH1 0x20 PUSH1 0x4 DUP3 ADD MSTORE PUSH1 0x1E DUP2 DUP7 ADD MSTORE PUSH32 0x417474726962757465206E616D652063616E6E6F7420626520656D7074790000 PUSH1 0x44 DUP3 ADD MSTORE PUSH1 0x64 SWAP1 REVERT JUMPDEST CALLVALUE PUSH2 0x1E3 JUMPI PUSH1 0xE0 CALLDATASIZE PUSH1 0x3 NOT ADD SLT PUSH2 0x1E3 JUMPI PUSH1 0x4 CALLDATALOAD PUSH1 0x1 PUSH1 0x1 PUSH1 0x40 SHL SUB DUP2 GT PUSH2 0x1E3 JUMPI PUSH2 0x22B4 SWAP1 CALLDATASIZE SWAP1 PUSH1 0x4 ADD PUSH2 0x2E83 JUMP JUMPDEST PUSH1 0x24 CALLDATALOAD PUSH1 0x1 PUSH1 0x1 PUSH1 0x40 SHL SUB DUP2 GT PUSH2 0x1E3 JUMPI PUSH2 0x22D3 SWAP1 CALLDATASIZE SWAP1 PUSH1 0x4 ADD PUSH2 0x2E83 JUMP JUMPDEST PUSH1 0x44 CALLDATALOAD PUSH1 0x1 PUSH1 0x1 PUSH1 0x40 SHL SUB DUP2 GT PUSH2 0x1E3 JUMPI PUSH2 0x22F2 SWAP1 CALLDATASIZE SWAP1 PUSH1 0x4 ADD PUSH2 0x2E83 JUMP JUMPDEST PUSH1 0x64 SWAP2 DUP3 CALLDATALOAD PUSH1 0x1 PUSH1 0x1 PUSH1 0x40 SHL SUB DUP2 GT PUSH2 0x1E3 JUMPI PUSH2 0x2313 SWAP1 CALLDATASIZE SWAP1 PUSH1 0x4 ADD PUSH2 0x2E83 JUMP JUMPDEST PUSH1 0x84 CALLDATALOAD PUSH1 0x1 PUSH1 0x1 PUSH1 0x40 SHL SUB DUP2 GT PUSH2 0x1E3 JUMPI PUSH2 0x2332 SWAP1 CALLDATASIZE SWAP1 PUSH1 0x4 ADD PUSH2 0x2E83 JUMP JUMPDEST PUSH1 0xA4 CALLDATALOAD PUSH1 0x1 PUSH1 0x1 PUSH1 0x40 SHL SUB DUP2 GT PUSH2 0x1E3 JUMPI PUSH2 0x2351 SWAP1 CALLDATASIZE SWAP1 PUSH1 0x4 ADD PUSH2 0x2E83 JUMP JUMPDEST SWAP2 PUSH1 0xC4 CALLDATALOAD PUSH1 0x1 PUSH1 0x1 PUSH1 0x40 SHL SUB DUP2 GT PUSH2 0x1E3 JUMPI PUSH2 0x2371 SWAP1 CALLDATASIZE SWAP1 PUSH1 0x4 ADD PUSH2 0x2E83 JUMP JUMPDEST SWAP6 PUSH2 0x237A PUSH2 0x3628 JUMP JUMPDEST PUSH2 0x2389 PUSH1 0xFF PUSH1 0x7 SLOAD AND ISZERO PUSH2 0x35E5 JUMP JUMPDEST PUSH2 0x2391 PUSH2 0x366C JUMP JUMPDEST DUP8 MLOAD ISZERO PUSH2 0x2D81 JUMPI DUP1 DUP9 MLOAD GT PUSH2 0x2D49 JUMPI PUSH1 0xFF PUSH1 0x40 MLOAD PUSH1 0x20 DUP2 DUP2 PUSH2 0x23B9 DUP14 DUP4 DUP2 MLOAD SWAP4 DUP5 SWAP3 ADD PUSH2 0x2ED9 JUMP JUMPDEST DUP2 ADD PUSH1 0xC DUP2 MSTORE SUB ADD SWAP1 KECCAK256 SLOAD AND PUSH2 0x2D0B JUMPI PUSH1 0x3 SLOAD SWAP1 PUSH2 0x23D6 DUP3 PUSH2 0x2FE7 JUMP JUMPDEST PUSH2 0x2CD4 JUMPI POP DUP8 MLOAD SWAP1 PUSH1 0x1 PUSH1 0x1 PUSH1 0x40 SHL SUB DUP3 GT PUSH2 0x5F1 JUMPI PUSH2 0x23F5 SWAP1 PUSH2 0x2FE7 JUMP JUMPDEST PUSH1 0x1F DUP2 GT PUSH2 0x2C97 JUMPI JUMPDEST POP DUP1 PUSH1 0x20 PUSH1 0x1F DUP3 GT PUSH1 0x1 EQ PUSH2 0x2C23 JUMPI PUSH1 0x0 SWAP2 PUSH2 0x2C18 JUMPI JUMPDEST POP DUP2 PUSH1 0x1 SHL SWAP2 PUSH1 0x0 NOT SWAP1 PUSH1 0x3 SHL SHR NOT AND OR PUSH1 0x3 SSTORE JUMPDEST TIMESTAMP PUSH1 0x5 SSTORE TIMESTAMP PUSH1 0x6 SSTORE PUSH1 0xFF NOT PUSH1 0x1 DUP2 PUSH1 0x4 SLOAD AND OR PUSH1 0x4 SSTORE PUSH1 0x1 PUSH1 0x40 MLOAD PUSH1 0x20 DUP2 DUP2 PUSH2 0x2459 DUP14 DUP4 DUP2 MLOAD SWAP4 DUP5 SWAP3 ADD PUSH2 0x2ED9 JUMP JUMPDEST DUP2 ADD PUSH1 0xC DUP2 MSTORE SUB ADD SWAP1 KECCAK256 SWAP2 DUP3 SLOAD AND OR SWAP1 SSTORE PUSH1 0x40 MLOAD PUSH1 0x20 DUP2 MSTORE PUSH32 0x44CA9609D2FE597457041D7E98533A969452EF425C10A46D0DD9F074497EA1BA CALLER SWAP2 DUP1 PUSH2 0x24A2 PUSH1 0x20 DUP3 ADD DUP13 PUSH2 0x2F4E JUMP JUMPDEST SUB SWAP1 LOG2 PUSH1 0x1 DUP1 SSTORE CALLER PUSH1 0x0 MSTORE PUSH1 0xE PUSH1 0x20 MSTORE PUSH1 0x40 PUSH1 0x0 KECCAK256 SLOAD SWAP5 DUP6 PUSH1 0x0 NOT DUP2 ADD GT PUSH2 0x2C02 JUMPI PUSH1 0x40 MLOAD SWAP5 PUSH2 0x24D1 DUP7 PUSH2 0x2E11 JUMP JUMPDEST DUP6 MSTORE PUSH1 0x20 DUP6 ADD MSTORE PUSH1 0x40 DUP5 ADD MSTORE PUSH1 0x60 DUP4 ADD MSTORE PUSH1 0x80 DUP3 ADD MSTORE DUP3 PUSH1 0xA0 DUP3 ADD MSTORE PUSH1 0x0 NOT DUP3 ADD PUSH1 0x0 MSTORE PUSH1 0xF PUSH1 0x20 MSTORE PUSH1 0x40 PUSH1 0x0 KECCAK256 DUP2 MLOAD DUP1 MLOAD SWAP1 PUSH1 0x1 PUSH1 0x1 PUSH1 0x40 SHL SUB DUP3 GT PUSH2 0x5F1 JUMPI DUP2 SWAP1 PUSH2 0x251E DUP5 SLOAD PUSH2 0x2FE7 JUMP JUMPDEST PUSH1 0x1F DUP2 GT PUSH2 0x2BD0 JUMPI JUMPDEST POP PUSH1 0x20 SWAP1 PUSH1 0x1F DUP4 GT PUSH1 0x1 EQ PUSH2 0x2B64 JUMPI PUSH1 0x0 SWAP3 PUSH2 0x2B59 JUMPI JUMPDEST POP POP DUP2 PUSH1 0x1 SHL SWAP2 PUSH1 0x0 NOT SWAP1 PUSH1 0x3 SHL SHR NOT AND OR DUP2 SSTORE JUMPDEST PUSH1 0x20 DUP3 ADD MLOAD DUP1 MLOAD SWAP1 PUSH1 0x1 PUSH1 0x1 PUSH1 0x40 SHL SUB DUP3 GT PUSH2 0x5F1 JUMPI DUP2 SWAP1 PUSH2 0x2578 PUSH1 0x1 DUP6 ADD SLOAD PUSH2 0x2FE7 JUMP JUMPDEST PUSH1 0x1F DUP2 GT PUSH2 0x2B24 JUMPI JUMPDEST POP PUSH1 0x20 SWAP1 PUSH1 0x1F DUP4 GT PUSH1 0x1 EQ PUSH2 0x2AB2 JUMPI PUSH1 0x0 SWAP3 PUSH2 0x2AA7 JUMPI JUMPDEST POP POP DUP2 PUSH1 0x1 SHL SWAP2 PUSH1 0x0 NOT SWAP1 PUSH1 0x3 SHL SHR NOT AND OR PUSH1 0x1 DUP3 ADD SSTORE JUMPDEST PUSH1 0x40 DUP3 ADD MLOAD DUP1 MLOAD SWAP1 PUSH1 0x1 PUSH1 0x1 PUSH1 0x40 SHL SUB DUP3 GT PUSH2 0x5F1 JUMPI DUP2 SWAP1 PUSH2 0x25D5 PUSH1 0x2 DUP6 ADD SLOAD PUSH2 0x2FE7 JUMP JUMPDEST PUSH1 0x1F DUP2 GT PUSH2 0x2A72 JUMPI JUMPDEST POP PUSH1 0x20 SWAP1 PUSH1 0x1F DUP4 GT PUSH1 0x1 EQ PUSH2 0x2A00 JUMPI PUSH1 0x0 SWAP3 PUSH2 0x29F5 JUMPI JUMPDEST POP POP DUP2 PUSH1 0x1 SHL SWAP2 PUSH1 0x0 NOT SWAP1 PUSH1 0x3 SHL SHR NOT AND OR PUSH1 0x2 DUP3 ADD SSTORE JUMPDEST PUSH1 0x60 DUP3 ADD MLOAD DUP1 MLOAD SWAP1 PUSH1 0x1 PUSH1 0x1 PUSH1 0x40 SHL SUB DUP3 GT PUSH2 0x5F1 JUMPI DUP2 SWAP1 PUSH2 0x2632 PUSH1 0x3 DUP6 ADD SLOAD PUSH2 0x2FE7 JUMP JUMPDEST PUSH1 0x1F DUP2 GT PUSH2 0x29C0 JUMPI JUMPDEST POP PUSH1 0x20 SWAP1 PUSH1 0x1F DUP4 GT PUSH1 0x1 EQ PUSH2 0x294E JUMPI PUSH1 0x0 SWAP3 PUSH2 0x2943 JUMPI JUMPDEST POP POP DUP2 PUSH1 0x1 SHL SWAP2 PUSH1 0x0 NOT SWAP1 PUSH1 0x3 SHL SHR NOT AND OR PUSH1 0x3 DUP3 ADD SSTORE JUMPDEST PUSH1 0x80 DUP3 ADD MLOAD DUP1 MLOAD SWAP1 PUSH1 0x1 PUSH1 0x1 PUSH1 0x40 SHL SUB DUP3 GT PUSH2 0x5F1 JUMPI PUSH2 0x268D PUSH1 0x4 DUP5 ADD SLOAD PUSH2 0x2FE7 JUMP JUMPDEST PUSH1 0x1F DUP2 GT PUSH2 0x290E JUMPI JUMPDEST POP PUSH1 0x20 SWAP1 PUSH1 0x1F DUP4 GT PUSH1 0x1 EQ PUSH2 0x2899 JUMPI SWAP2 DUP1 PUSH1 0xA0 SWAP5 SWAP3 PUSH1 0x5 SWAP5 PUSH1 0x0 SWAP3 PUSH2 0x288E JUMPI JUMPDEST POP POP DUP2 PUSH1 0x1 SHL SWAP2 PUSH1 0x0 NOT SWAP1 PUSH1 0x3 SHL SHR NOT AND OR PUSH1 0x4 DUP3 ADD SSTORE JUMPDEST ADD SWAP2 ADD MLOAD DUP1 MLOAD SWAP1 PUSH1 0x1 PUSH1 0x1 PUSH1 0x40 SHL SUB DUP3 GT PUSH2 0x5F1 JUMPI PUSH2 0x26ED DUP4 SLOAD PUSH2 0x2FE7 JUMP JUMPDEST PUSH1 0x1F DUP2 GT PUSH2 0x285C JUMPI JUMPDEST POP PUSH1 0x20 SWAP1 PUSH1 0x1F DUP4 GT PUSH1 0x1 EQ PUSH2 0x27CA JUMPI SWAP3 DUP3 PUSH2 0x27AB SWAP4 PUSH2 0x27BA SWAP7 SWAP4 PUSH32 0xD7BFEA0F84831ED6C4DA58AC5FBEE70468418290E9BC08E9BAB5BC2DAC72DC4E SWAP9 SWAP7 PUSH1 0x0 SWAP3 PUSH2 0x27BF JUMPI JUMPDEST POP POP DUP2 PUSH1 0x1 SHL SWAP2 PUSH1 0x0 NOT SWAP1 PUSH1 0x3 SHL SHR NOT AND OR SWAP1 SSTORE JUMPDEST PUSH2 0x2766 PUSH2 0x275B PUSH2 0x32B5 JUMP JUMPDEST CALLER PUSH1 0x0 NOT DUP5 ADD PUSH2 0x370E JUMP JUMPDEST POP PUSH2 0x2772 PUSH2 0x275B PUSH2 0x32D5 JUMP JUMPDEST POP PUSH2 0x277E PUSH2 0x275B PUSH2 0x32FC JUMP JUMPDEST POP PUSH2 0x278A PUSH2 0x275B PUSH2 0x331E JUMP JUMPDEST POP PUSH2 0x2796 PUSH2 0x275B PUSH2 0x333E JUMP JUMPDEST POP PUSH2 0x279F PUSH2 0x3363 JUMP JUMPDEST SWAP1 CALLER SWAP1 PUSH1 0x0 NOT ADD PUSH2 0x370E JUMP JUMPDEST POP PUSH1 0x40 MLOAD SWAP2 DUP3 SWAP2 CALLER SWAP6 DUP4 PUSH2 0x338B JUMP JUMPDEST SUB SWAP1 LOG2 STOP JUMPDEST ADD MLOAD SWAP1 POP DUP10 DUP1 PUSH2 0x273B JUMP JUMPDEST SWAP1 PUSH1 0x1F NOT DUP4 AND SWAP2 DUP5 PUSH1 0x0 MSTORE PUSH1 0x20 PUSH1 0x0 KECCAK256 SWAP3 PUSH1 0x0 JUMPDEST DUP2 DUP2 LT PUSH2 0x2844 JUMPI POP SWAP4 PUSH2 0x27BA SWAP7 SWAP4 PUSH32 0xD7BFEA0F84831ED6C4DA58AC5FBEE70468418290E9BC08E9BAB5BC2DAC72DC4E SWAP9 SWAP7 SWAP4 PUSH1 0x1 SWAP4 DUP4 PUSH2 0x27AB SWAP9 LT PUSH2 0x282B JUMPI JUMPDEST POP POP POP DUP2 SHL ADD SWAP1 SSTORE PUSH2 0x2750 JUMP JUMPDEST ADD MLOAD PUSH1 0x0 NOT PUSH1 0xF8 DUP5 PUSH1 0x3 SHL AND SHR NOT AND SWAP1 SSTORE DUP10 DUP1 DUP1 PUSH2 0x281E JUMP JUMPDEST SWAP3 SWAP4 PUSH1 0x20 PUSH1 0x1 DUP2 SWAP3 DUP8 DUP7 ADD MLOAD DUP2 SSTORE ADD SWAP6 ADD SWAP4 ADD PUSH2 0x27DE JUMP JUMPDEST PUSH2 0x2888 SWAP1 DUP5 PUSH1 0x0 MSTORE PUSH1 0x20 PUSH1 0x0 KECCAK256 PUSH1 0x1F DUP6 ADD PUSH1 0x5 SHR DUP2 ADD SWAP2 PUSH1 0x20 DUP7 LT PUSH2 0x5E7 JUMPI PUSH1 0x1F ADD PUSH1 0x5 SHR ADD SWAP1 PUSH2 0x329E JUMP JUMPDEST DUP7 PUSH2 0x26F6 JUMP JUMPDEST ADD MLOAD SWAP1 POP DUP10 DUP1 PUSH2 0x26B6 JUMP JUMPDEST SWAP1 PUSH1 0x4 DUP5 ADD PUSH1 0x0 MSTORE PUSH1 0x20 PUSH1 0x0 KECCAK256 SWAP2 PUSH1 0x0 JUMPDEST PUSH1 0x1F NOT DUP6 AND DUP2 LT PUSH2 0x28F6 JUMPI POP SWAP3 PUSH1 0xA0 SWAP5 SWAP3 PUSH1 0x1 SWAP3 PUSH1 0x5 SWAP6 DUP4 PUSH1 0x1F NOT DUP2 AND LT PUSH2 0x28DD JUMPI JUMPDEST POP POP POP DUP2 SHL ADD PUSH1 0x4 DUP3 ADD SSTORE PUSH2 0x26CE JUMP JUMPDEST ADD MLOAD PUSH1 0x0 NOT PUSH1 0xF8 DUP5 PUSH1 0x3 SHL AND SHR NOT AND SWAP1 SSTORE DUP10 DUP1 DUP1 PUSH2 0x28CD JUMP JUMPDEST SWAP2 SWAP3 PUSH1 0x20 PUSH1 0x1 DUP2 SWAP3 DUP7 DUP6 ADD MLOAD DUP2 SSTORE ADD SWAP5 ADD SWAP3 ADD PUSH2 0x28AA JUMP JUMPDEST PUSH2 0x293D SWAP1 PUSH1 0x4 DUP6 ADD PUSH1 0x0 MSTORE PUSH1 0x20 PUSH1 0x0 KECCAK256 PUSH1 0x1F DUP6 ADD PUSH1 0x5 SHR DUP2 ADD SWAP2 PUSH1 0x20 DUP7 LT PUSH2 0x5E7 JUMPI PUSH1 0x1F ADD PUSH1 0x5 SHR ADD SWAP1 PUSH2 0x329E JUMP JUMPDEST DUP8 PUSH2 0x2696 JUMP JUMPDEST ADD MLOAD SWAP1 POP DUP8 DUP1 PUSH2 0x2652 JUMP JUMPDEST SWAP3 POP PUSH1 0x3 DUP5 ADD PUSH1 0x0 MSTORE PUSH1 0x20 PUSH1 0x0 KECCAK256 SWAP1 PUSH1 0x0 SWAP4 JUMPDEST PUSH1 0x1F NOT DUP5 AND DUP6 LT PUSH2 0x29A5 JUMPI PUSH1 0x1 SWAP5 POP DUP4 PUSH1 0x1F NOT DUP2 AND LT PUSH2 0x298C JUMPI JUMPDEST POP POP POP DUP2 SHL ADD PUSH1 0x3 DUP3 ADD SSTORE PUSH2 0x266A JUMP JUMPDEST ADD MLOAD PUSH1 0x0 NOT PUSH1 0xF8 DUP5 PUSH1 0x3 SHL AND SHR NOT AND SWAP1 SSTORE DUP8 DUP1 DUP1 PUSH2 0x297C JUMP JUMPDEST DUP2 DUP2 ADD MLOAD DUP4 SSTORE PUSH1 0x20 SWAP5 DUP6 ADD SWAP5 PUSH1 0x1 SWAP1 SWAP4 ADD SWAP3 SWAP1 SWAP2 ADD SWAP1 PUSH2 0x2961 JUMP JUMPDEST PUSH2 0x29EF SWAP1 PUSH1 0x3 DUP7 ADD PUSH1 0x0 MSTORE PUSH1 0x20 PUSH1 0x0 KECCAK256 PUSH1 0x1F DUP6 ADD PUSH1 0x5 SHR DUP2 ADD SWAP2 PUSH1 0x20 DUP7 LT PUSH2 0x5E7 JUMPI PUSH1 0x1F ADD PUSH1 0x5 SHR ADD SWAP1 PUSH2 0x329E JUMP JUMPDEST DUP9 PUSH2 0x263B JUMP JUMPDEST ADD MLOAD SWAP1 POP DUP8 DUP1 PUSH2 0x25F5 JUMP JUMPDEST SWAP3 POP PUSH1 0x2 DUP5 ADD PUSH1 0x0 MSTORE PUSH1 0x20 PUSH1 0x0 KECCAK256 SWAP1 PUSH1 0x0 SWAP4 JUMPDEST PUSH1 0x1F NOT DUP5 AND DUP6 LT PUSH2 0x2A57 JUMPI PUSH1 0x1 SWAP5 POP DUP4 PUSH1 0x1F NOT DUP2 AND LT PUSH2 0x2A3E JUMPI JUMPDEST POP POP POP DUP2 SHL ADD PUSH1 0x2 DUP3 ADD SSTORE PUSH2 0x260D JUMP JUMPDEST ADD MLOAD PUSH1 0x0 NOT PUSH1 0xF8 DUP5 PUSH1 0x3 SHL AND SHR NOT AND SWAP1 SSTORE DUP8 DUP1 DUP1 PUSH2 0x2A2E JUMP JUMPDEST DUP2 DUP2 ADD MLOAD DUP4 SSTORE PUSH1 0x20 SWAP5 DUP6 ADD SWAP5 PUSH1 0x1 SWAP1 SWAP4 ADD SWAP3 SWAP1 SWAP2 ADD SWAP1 PUSH2 0x2A13 JUMP JUMPDEST PUSH2 0x2AA1 SWAP1 PUSH1 0x2 DUP7 ADD PUSH1 0x0 MSTORE PUSH1 0x20 PUSH1 0x0 KECCAK256 PUSH1 0x1F DUP6 ADD PUSH1 0x5 SHR DUP2 ADD SWAP2 PUSH1 0x20 DUP7 LT PUSH2 0x5E7 JUMPI PUSH1 0x1F ADD PUSH1 0x5 SHR ADD SWAP1 PUSH2 0x329E JUMP JUMPDEST DUP9 PUSH2 0x25DE JUMP JUMPDEST ADD MLOAD SWAP1 POP DUP8 DUP1 PUSH2 0x2598 JUMP JUMPDEST SWAP3 POP PUSH1 0x1 DUP5 ADD PUSH1 0x0 MSTORE PUSH1 0x20 PUSH1 0x0 KECCAK256 SWAP1 PUSH1 0x0 SWAP4 JUMPDEST PUSH1 0x1F NOT DUP5 AND DUP6 LT PUSH2 0x2B09 JUMPI PUSH1 0x1 SWAP5 POP DUP4 PUSH1 0x1F NOT DUP2 AND LT PUSH2 0x2AF0 JUMPI JUMPDEST POP POP POP DUP2 SHL ADD PUSH1 0x1 DUP3 ADD SSTORE PUSH2 0x25B0 JUMP JUMPDEST ADD MLOAD PUSH1 0x0 NOT PUSH1 0xF8 DUP5 PUSH1 0x3 SHL AND SHR NOT AND SWAP1 SSTORE DUP8 DUP1 DUP1 PUSH2 0x2AE0 JUMP JUMPDEST DUP2 DUP2 ADD MLOAD DUP4 SSTORE PUSH1 0x20 SWAP5 DUP6 ADD SWAP5 PUSH1 0x1 SWAP1 SWAP4 ADD SWAP3 SWAP1 SWAP2 ADD SWAP1 PUSH2 0x2AC5 JUMP JUMPDEST PUSH2 0x2B53 SWAP1 PUSH1 0x1 DUP7 ADD PUSH1 0x0 MSTORE PUSH1 0x20 PUSH1 0x0 KECCAK256 PUSH1 0x1F DUP6 ADD PUSH1 0x5 SHR DUP2 ADD SWAP2 PUSH1 0x20 DUP7 LT PUSH2 0x5E7 JUMPI PUSH1 0x1F ADD PUSH1 0x5 SHR ADD SWAP1 PUSH2 0x329E JUMP JUMPDEST DUP9 PUSH2 0x2581 JUMP JUMPDEST ADD MLOAD SWAP1 POP DUP8 DUP1 PUSH2 0x253E JUMP JUMPDEST SWAP3 POP DUP4 PUSH1 0x0 MSTORE PUSH1 0x20 PUSH1 0x0 KECCAK256 SWAP1 PUSH1 0x0 SWAP4 JUMPDEST PUSH1 0x1F NOT DUP5 AND DUP6 LT PUSH2 0x2BB5 JUMPI PUSH1 0x1 SWAP5 POP DUP4 PUSH1 0x1F NOT DUP2 AND LT PUSH2 0x2B9C JUMPI JUMPDEST POP POP POP DUP2 SHL ADD DUP2 SSTORE PUSH2 0x2553 JUMP JUMPDEST ADD MLOAD PUSH1 0x0 NOT PUSH1 0xF8 DUP5 PUSH1 0x3 SHL AND SHR NOT AND SWAP1 SSTORE DUP8 DUP1 DUP1 PUSH2 0x2B8F JUMP JUMPDEST DUP2 DUP2 ADD MLOAD DUP4 SSTORE PUSH1 0x20 SWAP5 DUP6 ADD SWAP5 PUSH1 0x1 SWAP1 SWAP4 ADD SWAP3 SWAP1 SWAP2 ADD SWAP1 PUSH2 0x2B74 JUMP JUMPDEST PUSH2 0x2BFC SWAP1 DUP6 PUSH1 0x0 MSTORE PUSH1 0x20 PUSH1 0x0 KECCAK256 PUSH1 0x1F DUP6 ADD PUSH1 0x5 SHR DUP2 ADD SWAP2 PUSH1 0x20 DUP7 LT PUSH2 0x5E7 JUMPI PUSH1 0x1F ADD PUSH1 0x5 SHR ADD SWAP1 PUSH2 0x329E JUMP JUMPDEST DUP9 PUSH2 0x2527 JUMP JUMPDEST PUSH4 0x4E487B71 PUSH1 0xE0 SHL PUSH1 0x0 MSTORE PUSH1 0x11 PUSH1 0x4 MSTORE PUSH1 0x24 PUSH1 0x0 REVERT JUMPDEST SWAP1 POP DUP9 ADD MLOAD DUP10 PUSH2 0x2415 JUMP JUMPDEST SWAP2 POP PUSH1 0x3 PUSH1 0x0 MSTORE PUSH1 0x0 DUP1 MLOAD PUSH1 0x20 PUSH2 0x3864 DUP4 CODECOPY DUP2 MLOAD SWAP2 MSTORE PUSH1 0x0 SWAP3 JUMPDEST DUP11 PUSH1 0x1F NOT DUP5 AND DUP6 LT PUSH2 0x2C80 JUMPI POP PUSH1 0x1 SWAP4 POP DUP3 PUSH1 0x1F NOT DUP2 AND LT PUSH2 0x2C67 JUMPI JUMPDEST POP POP DUP2 SHL ADD PUSH1 0x3 SSTORE PUSH2 0x242A JUMP JUMPDEST DUP11 ADD MLOAD PUSH1 0x0 NOT PUSH1 0xF8 DUP5 PUSH1 0x3 SHL AND SHR NOT AND SWAP1 SSTORE DUP10 DUP1 PUSH2 0x2C5A JUMP JUMPDEST DUP2 ADD MLOAD DUP3 SSTORE PUSH1 0x20 SWAP4 DUP5 ADD SWAP4 PUSH1 0x1 SWAP1 SWAP3 ADD SWAP2 ADD PUSH2 0x2C3D JUMP JUMPDEST PUSH2 0x2CCE SWAP1 PUSH1 0x3 PUSH1 0x0 MSTORE PUSH1 0x0 DUP1 MLOAD PUSH1 0x20 PUSH2 0x3864 DUP4 CODECOPY DUP2 MLOAD SWAP2 MSTORE PUSH1 0x1F DUP5 ADD PUSH1 0x5 SHR DUP2 ADD SWAP2 PUSH1 0x20 DUP6 LT PUSH2 0x5E7 JUMPI PUSH1 0x1F ADD PUSH1 0x5 SHR ADD SWAP1 PUSH2 0x329E JUMP JUMPDEST DUP9 PUSH2 0x23FE JUMP JUMPDEST PUSH1 0x40 MLOAD PUSH3 0x461BCD PUSH1 0xE5 SHL DUP2 MSTORE PUSH1 0x20 PUSH1 0x4 DUP3 ADD MSTORE PUSH1 0x12 PUSH1 0x24 DUP3 ADD MSTORE PUSH18 0x44494420616C726561647920657869737473 PUSH1 0x70 SHL PUSH1 0x44 DUP3 ADD MSTORE REVERT JUMPDEST PUSH1 0x40 MLOAD PUSH3 0x461BCD PUSH1 0xE5 SHL DUP2 MSTORE PUSH1 0x20 PUSH1 0x4 DUP3 ADD MSTORE PUSH1 0x19 PUSH1 0x24 DUP3 ADD MSTORE PUSH25 0x4964656E74696669657220616C726561647920696E20757365 PUSH1 0x38 SHL PUSH1 0x44 DUP3 ADD MSTORE REVERT JUMPDEST PUSH1 0x40 MLOAD PUSH3 0x461BCD PUSH1 0xE5 SHL DUP2 MSTORE PUSH1 0x20 PUSH1 0x4 DUP3 ADD MSTORE PUSH1 0x13 PUSH1 0x24 DUP3 ADD MSTORE PUSH19 0x4964656E74696669657220746F6F206C6F6E67 PUSH1 0x68 SHL PUSH1 0x44 DUP3 ADD MSTORE REVERT JUMPDEST PUSH1 0x40 MLOAD PUSH3 0x461BCD PUSH1 0xE5 SHL DUP2 MSTORE PUSH1 0x20 PUSH1 0x4 DUP3 ADD MSTORE PUSH1 0x1A PUSH1 0x24 DUP3 ADD MSTORE PUSH32 0x4964656E7469666965722063616E6E6F7420626520656D707479000000000000 PUSH1 0x44 DUP3 ADD MSTORE REVERT JUMPDEST CALLVALUE PUSH2 0x1E3 JUMPI PUSH1 0x20 CALLDATASIZE PUSH1 0x3 NOT ADD SLT PUSH2 0x1E3 JUMPI PUSH1 0x4 CALLDATALOAD PUSH1 0x1 PUSH1 0x1 PUSH1 0x40 SHL SUB DUP2 GT PUSH2 0x1E3 JUMPI PUSH1 0xFF PUSH2 0x2DFB PUSH1 0x20 PUSH2 0xFC6 DUP2 SWAP5 CALLDATASIZE SWAP1 PUSH1 0x4 ADD PUSH2 0x2E83 JUMP JUMPDEST DUP2 ADD PUSH1 0xB DUP2 MSTORE SUB ADD SWAP1 KECCAK256 SLOAD AND PUSH1 0x40 MLOAD SWAP1 ISZERO ISZERO DUP2 MSTORE RETURN JUMPDEST PUSH1 0xC0 DUP2 ADD SWAP1 DUP2 LT PUSH1 0x1 PUSH1 0x1 PUSH1 0x40 SHL SUB DUP3 GT OR PUSH2 0x5F1 JUMPI PUSH1 0x40 MSTORE JUMP JUMPDEST PUSH1 0x80 DUP2 ADD SWAP1 DUP2 LT PUSH1 0x1 PUSH1 0x1 PUSH1 0x40 SHL SUB DUP3 GT OR PUSH2 0x5F1 JUMPI PUSH1 0x40 MSTORE JUMP JUMPDEST PUSH1 0x40 DUP2 ADD SWAP1 DUP2 LT PUSH1 0x1 PUSH1 0x1 PUSH1 0x40 SHL SUB DUP3 GT OR PUSH2 0x5F1 JUMPI PUSH1 0x40 MSTORE JUMP JUMPDEST SWAP1 PUSH1 0x1F DUP1 NOT SWAP2 ADD AND DUP2 ADD SWAP1 DUP2 LT PUSH1 0x1 PUSH1 0x1 PUSH1 0x40 SHL SUB DUP3 GT OR PUSH2 0x5F1 JUMPI PUSH1 0x40 MSTORE JUMP JUMPDEST DUP2 PUSH1 0x1F DUP3 ADD SLT ISZERO PUSH2 0x1E3 JUMPI DUP1 CALLDATALOAD SWAP1 PUSH1 0x1 PUSH1 0x1 PUSH1 0x40 SHL SUB DUP3 GT PUSH2 0x5F1 JUMPI PUSH1 0x40 MLOAD SWAP3 PUSH2 0x2EB7 PUSH1 0x1F DUP5 ADD PUSH1 0x1F NOT AND PUSH1 0x20 ADD DUP6 PUSH2 0x2E62 JUMP JUMPDEST DUP3 DUP5 MSTORE PUSH1 0x20 DUP4 DUP4 ADD ADD GT PUSH2 0x1E3 JUMPI DUP2 PUSH1 0x0 SWAP3 PUSH1 0x20 DUP1 SWAP4 ADD DUP4 DUP7 ADD CALLDATACOPY DUP4 ADD ADD MSTORE SWAP1 JUMP JUMPDEST PUSH1 0x0 JUMPDEST DUP4 DUP2 LT PUSH2 0x2EEC JUMPI POP POP PUSH1 0x0 SWAP2 ADD MSTORE JUMP JUMPDEST DUP2 DUP2 ADD MLOAD DUP4 DUP3 ADD MSTORE PUSH1 0x20 ADD PUSH2 0x2EDC JUMP JUMPDEST PUSH1 0x20 SWAP1 PUSH2 0x2F16 SWAP3 DUP3 PUSH1 0x40 MLOAD SWAP5 DUP4 DUP7 DUP1 SWAP6 MLOAD SWAP4 DUP5 SWAP3 ADD PUSH2 0x2ED9 JUMP JUMPDEST DUP3 ADD SWAP1 DUP2 MSTORE SUB ADD SWAP1 KECCAK256 SWAP1 JUMP JUMPDEST PUSH1 0x4 CALLDATALOAD SWAP1 PUSH1 0x1 PUSH1 0x1 PUSH1 0xA0 SHL SUB DUP3 AND DUP3 SUB PUSH2 0x1E3 JUMPI JUMP JUMPDEST PUSH1 0x24 CALLDATALOAD SWAP1 PUSH1 0x1 PUSH1 0x1 PUSH1 0xA0 SHL SUB DUP3 AND DUP3 SUB PUSH2 0x1E3 JUMPI JUMP JUMPDEST SWAP1 PUSH1 0x20 SWAP2 PUSH2 0x2F67 DUP2 MLOAD DUP1 SWAP3 DUP2 DUP6 MSTORE DUP6 DUP1 DUP7 ADD SWAP2 ADD PUSH2 0x2ED9 JUMP JUMPDEST PUSH1 0x1F ADD PUSH1 0x1F NOT AND ADD ADD SWAP1 JUMP JUMPDEST SWAP1 PUSH1 0x40 PUSH1 0x3 NOT DUP4 ADD SLT PUSH2 0x1E3 JUMPI PUSH1 0x4 CALLDATALOAD PUSH1 0x1 PUSH1 0x1 PUSH1 0xA0 SHL SUB DUP2 AND DUP2 SUB PUSH2 0x1E3 JUMPI SWAP2 PUSH1 0x24 CALLDATALOAD SWAP1 PUSH1 0x1 PUSH1 0x1 PUSH1 0x40 SHL SUB DUP3 GT PUSH2 0x1E3 JUMPI PUSH2 0x2FB2 SWAP2 PUSH1 0x4 ADD PUSH2 0x2E83 JUMP JUMPDEST SWAP1 JUMP JUMPDEST DUP1 SLOAD DUP3 LT ISZERO PUSH2 0x2FD1 JUMPI PUSH1 0x0 MSTORE PUSH1 0x6 PUSH1 0x20 PUSH1 0x0 KECCAK256 SWAP2 MUL ADD SWAP1 PUSH1 0x0 SWAP1 JUMP JUMPDEST PUSH4 0x4E487B71 PUSH1 0xE0 SHL PUSH1 0x0 MSTORE PUSH1 0x32 PUSH1 0x4 MSTORE PUSH1 0x24 PUSH1 0x0 REVERT JUMPDEST SWAP1 PUSH1 0x1 DUP3 DUP2 SHR SWAP3 AND DUP1 ISZERO PUSH2 0x3017 JUMPI JUMPDEST PUSH1 0x20 DUP4 LT EQ PUSH2 0x3001 JUMPI JUMP JUMPDEST PUSH4 0x4E487B71 PUSH1 0xE0 SHL PUSH1 0x0 MSTORE PUSH1 0x22 PUSH1 0x4 MSTORE PUSH1 0x24 PUSH1 0x0 REVERT JUMPDEST SWAP2 PUSH1 0x7F AND SWAP2 PUSH2 0x2FF6 JUMP JUMPDEST PUSH1 0x3 SLOAD PUSH1 0x0 SWAP3 SWAP2 PUSH2 0x3031 DUP3 PUSH2 0x2FE7 JUMP JUMPDEST DUP1 DUP3 MSTORE SWAP2 PUSH1 0x1 SWAP1 DUP2 DUP2 AND SWAP1 DUP2 ISZERO PUSH2 0x3096 JUMPI POP PUSH1 0x1 EQ PUSH2 0x304F JUMPI POP POP POP JUMP JUMPDEST SWAP2 SWAP3 SWAP4 POP PUSH1 0x3 PUSH1 0x0 MSTORE PUSH1 0x0 DUP1 MLOAD PUSH1 0x20 PUSH2 0x3864 DUP4 CODECOPY DUP2 MLOAD SWAP2 MSTORE SWAP2 PUSH1 0x0 SWAP3 JUMPDEST DUP5 DUP5 LT PUSH2 0x307E JUMPI POP POP PUSH1 0x20 SWAP3 POP ADD ADD SWAP1 JUMP JUMPDEST DUP1 SLOAD PUSH1 0x20 DUP6 DUP6 ADD DUP2 ADD SWAP2 SWAP1 SWAP2 MSTORE SWAP1 SWAP4 ADD SWAP3 DUP2 ADD PUSH2 0x306C JUMP JUMPDEST SWAP2 POP POP PUSH1 0x20 SWAP4 SWAP5 POP PUSH1 0xFF SWAP3 SWAP2 SWAP3 NOT AND DUP4 DUP4 ADD MSTORE ISZERO ISZERO PUSH1 0x5 SHL ADD ADD SWAP1 JUMP JUMPDEST PUSH1 0x8 SLOAD PUSH1 0x0 SWAP3 SWAP2 PUSH2 0x30C3 DUP3 PUSH2 0x2FE7 JUMP JUMPDEST DUP1 DUP3 MSTORE SWAP2 PUSH1 0x1 SWAP1 DUP2 DUP2 AND SWAP1 DUP2 ISZERO PUSH2 0x3096 JUMPI POP PUSH1 0x1 EQ PUSH2 0x30E1 JUMPI POP POP POP JUMP JUMPDEST SWAP2 SWAP3 SWAP4 POP PUSH1 0x8 PUSH1 0x0 MSTORE PUSH32 0xF3F7A9FE364FAAB93B216DA50A3214154F22A0A2B415B23A84C8169E8B636EE3 SWAP2 PUSH1 0x0 SWAP3 JUMPDEST DUP5 DUP5 LT PUSH2 0x3122 JUMPI POP POP PUSH1 0x20 SWAP3 POP ADD ADD SWAP1 JUMP JUMPDEST DUP1 SLOAD PUSH1 0x20 DUP6 DUP6 ADD DUP2 ADD SWAP2 SWAP1 SWAP2 MSTORE SWAP1 SWAP4 ADD SWAP3 DUP2 ADD PUSH2 0x3110 JUMP JUMPDEST SWAP1 PUSH1 0x0 SWAP3 SWAP2 DUP1 SLOAD SWAP2 PUSH2 0x314B DUP4 PUSH2 0x2FE7 JUMP JUMPDEST SWAP2 DUP3 DUP3 MSTORE PUSH1 0x1 SWAP4 DUP5 DUP2 AND SWAP1 DUP2 PUSH1 0x0 EQ PUSH2 0x31AD JUMPI POP PUSH1 0x1 EQ PUSH2 0x316D JUMPI JUMPDEST POP POP POP POP JUMP JUMPDEST SWAP1 SWAP2 SWAP4 SWAP5 POP PUSH1 0x0 MSTORE PUSH1 0x20 SWAP3 DUP4 PUSH1 0x0 KECCAK256 SWAP3 DUP5 PUSH1 0x0 SWAP5 JUMPDEST DUP4 DUP7 LT PUSH2 0x3199 JUMPI POP POP POP POP ADD ADD SWAP1 CODESIZE DUP1 DUP1 DUP1 PUSH2 0x3167 JUMP JUMPDEST DUP1 SLOAD DUP6 DUP8 ADD DUP4 ADD MSTORE SWAP5 ADD SWAP4 DUP6 SWAP1 DUP3 ADD PUSH2 0x3182 JUMP JUMPDEST SWAP3 SWAP5 POP POP POP PUSH1 0x20 SWAP4 SWAP5 POP PUSH1 0xFF NOT AND DUP4 DUP4 ADD MSTORE ISZERO ISZERO PUSH1 0x5 SHL ADD ADD SWAP1 CODESIZE DUP1 DUP1 DUP1 PUSH2 0x3167 JUMP JUMPDEST SWAP3 PUSH2 0x31EB PUSH2 0x2FB2 SWAP8 SWAP6 SWAP3 SWAP7 SWAP4 SWAP7 PUSH1 0xC0 DUP7 MSTORE PUSH1 0xC0 DUP7 ADD SWAP1 PUSH2 0x2F4E JUMP JUMPDEST SWAP6 ISZERO ISZERO PUSH1 0x20 DUP6 ADD MSTORE PUSH1 0x40 DUP5 ADD MSTORE PUSH1 0x60 DUP4 ADD MSTORE ISZERO ISZERO PUSH1 0x80 DUP3 ADD MSTORE PUSH1 0xA0 DUP2 DUP5 SUB SWAP2 ADD MSTORE PUSH2 0x2F4E JUMP JUMPDEST SWAP3 PUSH2 0x3229 PUSH1 0x60 SWAP4 SWAP7 SWAP6 SWAP3 PUSH1 0x80 DUP7 MSTORE PUSH1 0x80 DUP7 ADD SWAP1 PUSH2 0x2F4E JUMP JUMPDEST PUSH1 0x20 DUP6 ADD SWAP7 SWAP1 SWAP7 MSTORE ISZERO ISZERO PUSH1 0x40 DUP5 ADD MSTORE PUSH1 0x1 PUSH1 0x1 PUSH1 0xA0 SHL SUB AND SWAP2 ADD MSTORE JUMP JUMPDEST PUSH1 0x0 SLOAD PUSH1 0x1 PUSH1 0x1 PUSH1 0xA0 SHL SUB AND CALLER SUB PUSH2 0x325A JUMPI JUMP JUMPDEST PUSH1 0x64 PUSH1 0x40 MLOAD PUSH3 0x461BCD PUSH1 0xE5 SHL DUP2 MSTORE PUSH1 0x20 PUSH1 0x4 DUP3 ADD MSTORE PUSH1 0x20 PUSH1 0x24 DUP3 ADD MSTORE PUSH32 0x4F776E61626C653A2063616C6C6572206973206E6F7420746865206F776E6572 PUSH1 0x44 DUP3 ADD MSTORE REVERT JUMPDEST DUP2 DUP2 LT PUSH2 0x32A9 JUMPI POP POP JUMP JUMPDEST PUSH1 0x0 DUP2 SSTORE PUSH1 0x1 ADD PUSH2 0x329E JUMP JUMPDEST PUSH1 0x40 MLOAD SWAP1 PUSH2 0x32C2 DUP3 PUSH2 0x2E47 JUMP JUMPDEST PUSH1 0x4 DUP3 MSTORE PUSH4 0x6E616D65 PUSH1 0xE0 SHL PUSH1 0x20 DUP4 ADD MSTORE JUMP JUMPDEST PUSH1 0x40 MLOAD SWAP1 PUSH2 0x32E2 DUP3 PUSH2 0x2E47 JUMP JUMPDEST PUSH1 0xB DUP3 MSTORE PUSH11 0xC8C2E8CA9ECC84D2E4E8D PUSH1 0xAB SHL PUSH1 0x20 DUP4 ADD MSTORE JUMP JUMPDEST PUSH1 0x40 MLOAD SWAP1 PUSH2 0x3309 DUP3 PUSH2 0x2E47 JUMP JUMPDEST PUSH1 0x6 DUP3 MSTORE PUSH6 0x33B2B73232B9 PUSH1 0xD1 SHL PUSH1 0x20 DUP4 ADD MSTORE JUMP JUMPDEST PUSH1 0x40 MLOAD SWAP1 PUSH2 0x332B DUP3 PUSH2 0x2E47 JUMP JUMPDEST PUSH1 0x4 DUP3 MSTORE PUSH4 0x30B23239 PUSH1 0xE1 SHL PUSH1 0x20 DUP4 ADD MSTORE JUMP JUMPDEST PUSH1 0x40 MLOAD SWAP1 PUSH2 0x334B DUP3 PUSH2 0x2E47 JUMP JUMPDEST PUSH1 0x9 DUP3 MSTORE PUSH9 0xE0D0DEE8DE90C2E6D PUSH1 0xBB SHL PUSH1 0x20 DUP4 ADD MSTORE JUMP JUMPDEST PUSH1 0x40 MLOAD SWAP1 PUSH2 0x3370 DUP3 PUSH2 0x2E47 JUMP JUMPDEST PUSH1 0xC DUP3 MSTORE PUSH12 0x30B0B23430B9273AB6B132B9 PUSH1 0xA1 SHL PUSH1 0x20 DUP4 ADD MSTORE JUMP JUMPDEST SWAP1 SWAP2 PUSH2 0x33A2 PUSH2 0x2FB2 SWAP4 PUSH1 0x40 DUP5 MSTORE PUSH1 0x40 DUP5 ADD SWAP1 PUSH2 0x2F4E JUMP JUMPDEST SWAP2 PUSH1 0x20 DUP2 DUP5 SUB SWAP2 ADD MSTORE PUSH2 0x2F4E JUMP JUMPDEST ISZERO PUSH2 0x33B7 JUMPI JUMP JUMPDEST PUSH1 0x40 MLOAD PUSH3 0x461BCD PUSH1 0xE5 SHL DUP2 MSTORE PUSH1 0x20 PUSH1 0x4 DUP3 ADD MSTORE PUSH1 0x12 PUSH1 0x24 DUP3 ADD MSTORE PUSH18 0x11125108191BD95CC81B9BDD08195E1A5CDD PUSH1 0x72 SHL PUSH1 0x44 DUP3 ADD MSTORE PUSH1 0x64 SWAP1 REVERT JUMPDEST ISZERO PUSH2 0x33F8 JUMPI JUMP JUMPDEST PUSH1 0x40 MLOAD PUSH3 0x461BCD PUSH1 0xE5 SHL DUP2 MSTORE PUSH1 0x20 PUSH1 0x4 DUP3 ADD MSTORE PUSH1 0x27 PUSH1 0x24 DUP3 ADD MSTORE PUSH32 0x4E6F7420617574686F72697A656420746F206163636573732074686973206174 PUSH1 0x44 DUP3 ADD MSTORE PUSH7 0x74726962757465 PUSH1 0xC8 SHL PUSH1 0x64 DUP3 ADD MSTORE PUSH1 0x84 SWAP1 REVERT JUMPDEST SWAP1 SWAP2 PUSH1 0x1 DUP1 PUSH1 0xA0 SHL SUB DUP3 AND PUSH1 0x0 MSTORE PUSH1 0x20 SWAP3 PUSH1 0xE DUP5 MSTORE PUSH2 0x3488 PUSH2 0x3483 DUP4 PUSH1 0x40 SWAP6 PUSH2 0x347B DUP8 PUSH1 0x0 KECCAK256 SLOAD DUP7 LT PUSH2 0x33B0 JUMP JUMPDEST DUP5 CALLER SWAP2 PUSH2 0x3809 JUMP JUMPDEST PUSH2 0x33F1 JUMP JUMPDEST PUSH1 0x0 MSTORE PUSH1 0xF DUP4 MSTORE DUP2 PUSH1 0x0 KECCAK256 SWAP1 DUP1 MLOAD SWAP1 DUP5 DUP2 ADD SWAP2 DUP3 KECCAK256 PUSH2 0x34A5 PUSH2 0x32B5 JUMP JUMPDEST DUP7 DUP2 MLOAD SWAP2 ADD KECCAK256 EQ PUSH2 0x35D0 JUMPI DUP1 MLOAD DUP3 KECCAK256 PUSH2 0x34BC PUSH2 0x32D5 JUMP JUMPDEST DUP7 DUP2 MLOAD SWAP2 ADD KECCAK256 EQ PUSH2 0x35B8 JUMPI DUP1 MLOAD DUP3 KECCAK256 PUSH2 0x34D3 PUSH2 0x32FC JUMP JUMPDEST DUP7 DUP2 MLOAD SWAP2 ADD KECCAK256 EQ PUSH2 0x35A0 JUMPI DUP1 MLOAD DUP3 KECCAK256 PUSH2 0x34EA PUSH2 0x331E JUMP JUMPDEST DUP7 DUP2 MLOAD SWAP2 ADD KECCAK256 EQ PUSH2 0x3588 JUMPI DUP1 MLOAD DUP3 KECCAK256 PUSH2 0x3501 PUSH2 0x333E JUMP JUMPDEST DUP7 DUP2 MLOAD SWAP2 ADD KECCAK256 EQ PUSH2 0x3570 JUMPI MLOAD SWAP1 KECCAK256 PUSH2 0x3517 PUSH2 0x3363 JUMP JUMPDEST DUP5 DUP2 MLOAD SWAP2 ADD KECCAK256 EQ PUSH2 0x355A JUMPI DUP2 MLOAD PUSH3 0x461BCD PUSH1 0xE5 SHL DUP2 MSTORE PUSH1 0x4 DUP2 ADD DUP5 SWAP1 MSTORE PUSH1 0x11 PUSH1 0x24 DUP3 ADD MSTORE PUSH17 0x496E76616C696420617474726962757465 PUSH1 0x78 SHL PUSH1 0x44 DUP3 ADD MSTORE PUSH1 0x64 SWAP1 REVERT JUMPDEST PUSH1 0x5 SWAP3 POP PUSH2 0xB9B PUSH2 0x2FB2 SWAP3 MLOAD DUP1 SWAP5 DUP2 SWAP4 ADD PUSH2 0x313A JUMP JUMPDEST POP POP PUSH1 0x4 SWAP3 POP PUSH2 0xB9B PUSH2 0x2FB2 SWAP3 MLOAD DUP1 SWAP5 DUP2 SWAP4 ADD PUSH2 0x313A JUMP JUMPDEST POP POP PUSH1 0x3 SWAP3 POP PUSH2 0xB9B PUSH2 0x2FB2 SWAP3 MLOAD DUP1 SWAP5 DUP2 SWAP4 ADD PUSH2 0x313A JUMP JUMPDEST POP POP PUSH1 0x2 SWAP3 POP PUSH2 0xB9B PUSH2 0x2FB2 SWAP3 MLOAD DUP1 SWAP5 DUP2 SWAP4 ADD PUSH2 0x313A JUMP JUMPDEST POP POP PUSH1 0x1 SWAP3 POP PUSH2 0xB9B PUSH2 0x2FB2 SWAP3 MLOAD DUP1 SWAP5 DUP2 SWAP4 ADD PUSH2 0x313A JUMP JUMPDEST POP POP PUSH2 0xB9B SWAP3 POP PUSH2 0x2FB2 SWAP2 MLOAD SWAP3 DUP4 DUP1 SWAP3 PUSH2 0x313A JUMP JUMPDEST ISZERO PUSH2 0x35EC JUMPI JUMP JUMPDEST PUSH1 0x40 MLOAD PUSH3 0x461BCD PUSH1 0xE5 SHL DUP2 MSTORE PUSH1 0x20 PUSH1 0x4 DUP3 ADD MSTORE PUSH1 0x14 PUSH1 0x24 DUP3 ADD MSTORE PUSH20 0x111251081A185CC81899595B881C995D9BDAD959 PUSH1 0x62 SHL PUSH1 0x44 DUP3 ADD MSTORE PUSH1 0x64 SWAP1 REVERT JUMPDEST PUSH1 0xFF PUSH1 0x2 SLOAD AND PUSH2 0x3634 JUMPI JUMP JUMPDEST PUSH1 0x40 MLOAD PUSH3 0x461BCD PUSH1 0xE5 SHL DUP2 MSTORE PUSH1 0x20 PUSH1 0x4 DUP3 ADD MSTORE PUSH1 0x10 PUSH1 0x24 DUP3 ADD MSTORE PUSH16 0x14185D5CD8589B194E881C185D5CD959 PUSH1 0x82 SHL PUSH1 0x44 DUP3 ADD MSTORE PUSH1 0x64 SWAP1 REVERT JUMPDEST PUSH1 0x2 PUSH1 0x1 SLOAD EQ PUSH2 0x367D JUMPI PUSH1 0x2 PUSH1 0x1 SSTORE JUMP JUMPDEST PUSH1 0x40 MLOAD PUSH3 0x461BCD PUSH1 0xE5 SHL DUP2 MSTORE PUSH1 0x20 PUSH1 0x4 DUP3 ADD MSTORE PUSH1 0x1F PUSH1 0x24 DUP3 ADD MSTORE PUSH32 0x5265656E7472616E637947756172643A207265656E7472616E742063616C6C00 PUSH1 0x44 DUP3 ADD MSTORE PUSH1 0x64 SWAP1 REVERT JUMPDEST ISZERO PUSH2 0x36C9 JUMPI JUMP JUMPDEST PUSH1 0x40 MLOAD PUSH3 0x461BCD PUSH1 0xE5 SHL DUP2 MSTORE PUSH1 0x20 PUSH1 0x4 DUP3 ADD MSTORE PUSH1 0x18 PUSH1 0x24 DUP3 ADD MSTORE PUSH32 0x41747472696275746520646F6573206E6F742065786973740000000000000000 PUSH1 0x44 DUP3 ADD MSTORE PUSH1 0x64 SWAP1 REVERT JUMPDEST SWAP2 PUSH2 0x37BF SWAP1 PUSH2 0x3789 PUSH32 0x883D542F167DFC5F47E8BF1532C171025ED0E4C59C1126C7F61749FA21976A45 SWAP4 PUSH2 0x3740 PUSH2 0x3246 JUMP JUMPDEST PUSH2 0x3748 PUSH2 0x3628 JUMP JUMPDEST PUSH2 0x3757 PUSH1 0xFF PUSH1 0x7 SLOAD AND ISZERO PUSH2 0x35E5 JUMP JUMPDEST PUSH2 0x375F PUSH2 0x366C JUMP JUMPDEST PUSH1 0x1 PUSH1 0x1 PUSH1 0xA0 SHL SUB AND SWAP5 PUSH2 0x3774 DUP7 ISZERO ISZERO PUSH2 0x37CB JUMP JUMPDEST CALLER PUSH1 0x0 MSTORE PUSH1 0xE PUSH1 0x20 MSTORE PUSH1 0x40 PUSH1 0x0 KECCAK256 SLOAD GT PUSH2 0x33B0 JUMP JUMPDEST DUP4 PUSH1 0x0 MSTORE PUSH1 0xA PUSH1 0x20 MSTORE PUSH2 0x37A0 PUSH1 0x40 PUSH1 0x0 KECCAK256 DUP3 PUSH2 0x2EFC JUMP JUMPDEST PUSH1 0x1 PUSH1 0xFF NOT DUP3 SLOAD AND OR SWAP1 SSTORE PUSH1 0x40 MLOAD SWAP2 DUP3 SWAP2 PUSH1 0x20 DUP4 MSTORE PUSH1 0x20 DUP4 ADD SWAP1 PUSH2 0x2F4E JUMP JUMPDEST SUB SWAP1 LOG2 PUSH1 0x1 DUP1 SSTORE PUSH1 0x1 SWAP1 JUMP JUMPDEST ISZERO PUSH2 0x37D2 JUMPI JUMP JUMPDEST PUSH1 0x40 MLOAD PUSH3 0x461BCD PUSH1 0xE5 SHL DUP2 MSTORE PUSH1 0x20 PUSH1 0x4 DUP3 ADD MSTORE PUSH1 0xF PUSH1 0x24 DUP3 ADD MSTORE PUSH15 0x496E76616C69642061646472657373 PUSH1 0x88 SHL PUSH1 0x44 DUP3 ADD MSTORE PUSH1 0x64 SWAP1 REVERT JUMPDEST PUSH1 0x1 PUSH1 0x1 PUSH1 0xA0 SHL SUB SWAP1 DUP2 AND PUSH1 0x0 DUP2 DUP2 MSTORE PUSH1 0xE PUSH1 0x20 MSTORE PUSH1 0x40 SWAP1 KECCAK256 SLOAD SWAP1 SWAP5 SWAP4 SWAP2 SWAP3 PUSH2 0x3832 SWAP2 GT PUSH2 0x33B0 JUMP JUMPDEST AND DUP1 SWAP3 EQ SWAP2 DUP3 ISZERO PUSH2 0x3842 JUMPI POP POP SWAP1 JUMP JUMPDEST PUSH1 0xFF SWAP3 POP SWAP1 PUSH2 0x385E SWAP2 PUSH1 0x0 MSTORE PUSH1 0xA PUSH1 0x20 MSTORE PUSH1 0x40 PUSH1 0x0 KECCAK256 SWAP1 PUSH2 0x2EFC JUMP JUMPDEST SLOAD AND SWAP1 JUMP INVALID 0xC2 JUMPI GAS 0xE SWAP15 MSIZE EXTCODECOPY STOP 0xF9 MSIZE 0xF8 0xC9 0x2F SLT 0xDB 0x28 PUSH10 0xC3395A3B0502D05E2516 PREVRANDAO PUSH16 0x71F85BA2646970667358221220EE7EE6 SWAP6 0x4F LOG0 PUSH4 0x557D3A9E 0x1F SWAP1 0xBA DUP15 PUSH13 0xE139034DDCAA6459DD126BC9A8 DUP15 0xC1 SWAP12 PUSH5 0x736F6C6343 STOP ADDMOD EQ STOP CALLER "},"methodIdentifiers":{"MAX_ATTRIBUTES()":"3aa1b5ca","MAX_ATTRIBUTE_LENGTH()":"4b9802f8","MAX_IDENTIFIER_LENGTH()":"f3d310bf","aadharDetails(uint256)":"70525823","addAttribute(string,string)":"2ba56834","attributes(string)":"9bc3a000","authorizedAccess(address,string)":"8c15f62d","createAadharDID(string,string,string,string,string,string,string)":"0d87c827","createDID(string)":"3457d3e2","deactivateDID()":"767bc20e","getAadharAttribute(address,uint256,string)":"5e5a8d33","getAadharDetails(address,uint256)":"41638a5d","getAttribute(string)":"e8a51fca","getAttributeCount()":"c93ead1b","getAttributeDetails(string)":"e3725def","getDIDDetails()":"967a455f","grantAccess(uint256,address,string)":"a9595ffb","hasAccess(address,uint256,address,string)":"fb99d007","owner()":"8da5cb5b","pause()":"8456cb59","paused()":"5c975abb","removeAttribute(string)":"37714208","renounceOwnership()":"715018a6","revokeAccess(address,string)":"6a44cac9","revokeDID(string)":"cfe3b347","selfDID()":"e4a94adc","supportedIDTypes(string)":"0b42f3fd","transferOwnership(address)":"f2fde38b","unpause()":"3f4ba83a","updateAadharDetails(uint256,string,string,string,string,string,string)":"f9a33258","userDIDs(address,uint256)":"6aab3cef","verifyAttribute(string,address)":"45e8846f"}}}}}