{"contracts/DriversLicenseDID.sol":{"DriversLicenseDID":{"abi":[{"anonymous":false,"inputs":[{"indexed":true,"internalType":"address","name":"to","type":"address"},{"indexed":false,"internalType":"string","name":"attribute","type":"string"}],"name":"AccessGranted","type":"event"},{"anonymous":false,"inputs":[{"indexed":true,"internalType":"address","name":"to","type":"address"},{"indexed":false,"internalType":"string","name":"attribute","type":"string"}],"name":"AccessRevoked","type":"event"},{"anonymous":false,"inputs":[{"indexed":false,"internalType":"string","name":"name","type":"string"},{"indexed":false,"internalType":"string","name":"value","type":"string"}],"name":"AttributeAdded","type":"event"},{"anonymous":false,"inputs":[{"indexed":false,"internalType":"string","name":"name","type":"string"}],"name":"AttributeRemoved","type":"event"},{"anonymous":false,"inputs":[{"indexed":false,"internalType":"string","name":"name","type":"string"},{"indexed":true,"internalType":"address","name":"verifier","type":"address"}],"name":"AttributeVerified","type":"event"},{"anonymous":false,"inputs":[{"indexed":false,"internalType":"string","name":"identifier","type":"string"},{"indexed":true,"internalType":"address","name":"owner","type":"address"}],"name":"DIDCreated","type":"event"},{"anonymous":false,"inputs":[{"indexed":false,"internalType":"string","name":"identifier","type":"string"}],"name":"DIDDeactivated","type":"event"},{"anonymous":false,"inputs":[{"indexed":false,"internalType":"string","name":"identifier","type":"string"},{"indexed":false,"internalType":"string","name":"reason","type":"string"}],"name":"DIDRevoked","type":"event"},{"anonymous":false,"inputs":[{"indexed":true,"internalType":"address","name":"owner","type":"address"},{"indexed":false,"internalType":"string","name":"identifier","type":"string"},{"indexed":false,"internalType":"string","name":"licenseNumber","type":"string"}],"name":"DriversLicenseCreated","type":"event"},{"anonymous":false,"inputs":[{"indexed":true,"internalType":"address","name":"previousOwner","type":"address"},{"indexed":true,"internalType":"address","name":"newOwner","type":"address"}],"name":"OwnershipTransferred","type":"event"},{"anonymous":false,"inputs":[{"indexed":false,"internalType":"address","name":"account","type":"address"}],"name":"Paused","type":"event"},{"anonymous":false,"inputs":[{"indexed":false,"internalType":"address","name":"account","type":"address"}],"name":"Unpaused","type":"event"},{"inputs":[],"name":"MAX_ATTRIBUTES","outputs":[{"internalType":"uint256","name":"","type":"uint256"}],"stateMutability":"view","type":"function"},{"inputs":[],"name":"MAX_ATTRIBUTE_LENGTH","outputs":[{"internalType":"uint256","name":"","type":"uint256"}],"stateMutability":"view","type":"function"},{"inputs":[],"name":"MAX_IDENTIFIER_LENGTH","outputs":[{"internalType":"uint256","name":"","type":"uint256"}],"stateMutability":"view","type":"function"},{"inputs":[{"internalType":"string","name":"name","type":"string"},{"internalType":"string","name":"value","type":"string"}],"name":"addAttribute","outputs":[{"internalType":"bool","name":"","type":"bool"}],"stateMutability":"nonpayable","type":"function"},{"inputs":[{"internalType":"string","name":"","type":"string"}],"name":"attributes","outputs":[{"internalType":"string","name":"value","type":"string"},{"internalType":"uint256","name":"timestamp","type":"uint256"},{"internalType":"bool","name":"isVerified","type":"bool"},{"internalType":"address","name":"verifiedBy","type":"address"}],"stateMutability":"view","type":"function"},{"inputs":[{"internalType":"address","name":"","type":"address"},{"internalType":"string","name":"","type":"string"}],"name":"authorizedAccess","outputs":[{"internalType":"bool","name":"","type":"bool"}],"stateMutability":"view","type":"function"},{"inputs":[{"internalType":"string","name":"identifier","type":"string"}],"name":"createDID","outputs":[{"internalType":"bool","name":"","type":"bool"}],"stateMutability":"nonpayable","type":"function"},{"inputs":[{"internalType":"string","name":"identifier","type":"string"},{"internalType":"string","name":"name","type":"string"},{"internalType":"string","name":"dateOfBirth","type":"string"},{"internalType":"string","name":"gender","type":"string"},{"internalType":"string","name":"addr","type":"string"},{"internalType":"string","name":"photoHash","type":"string"},{"internalType":"string","name":"signatureHash","type":"string"},{"internalType":"string","name":"licenseNumber","type":"string"},{"internalType":"string","name":"vehicleClass","type":"string"},{"internalType":"string","name":"issueDate","type":"string"},{"internalType":"string","name":"expiryDate","type":"string"},{"internalType":"string","name":"bloodGroup","type":"string"},{"internalType":"string","name":"emergencyContact","type":"string"}],"name":"createDriversLicenseDID","outputs":[],"stateMutability":"nonpayable","type":"function"},{"inputs":[],"name":"deactivateDID","outputs":[{"internalType":"bool","name":"","type":"bool"}],"stateMutability":"nonpayable","type":"function"},{"inputs":[{"internalType":"string","name":"name","type":"string"}],"name":"getAttribute","outputs":[{"internalType":"string","name":"","type":"string"}],"stateMutability":"view","type":"function"},{"inputs":[],"name":"getAttributeCount","outputs":[{"internalType":"uint256","name":"","type":"uint256"}],"stateMutability":"view","type":"function"},{"inputs":[{"internalType":"string","name":"name","type":"string"}],"name":"getAttributeDetails","outputs":[{"internalType":"string","name":"value","type":"string"},{"internalType":"uint256","name":"timestamp","type":"uint256"},{"internalType":"bool","name":"isVerified","type":"bool"},{"internalType":"address","name":"verifiedBy","type":"address"}],"stateMutability":"view","type":"function"},{"inputs":[],"name":"getDIDDetails","outputs":[{"internalType":"string","name":"identifier","type":"string"},{"internalType":"bool","name":"active","type":"bool"},{"internalType":"uint256","name":"createdAt","type":"uint256"},{"internalType":"uint256","name":"updatedAt","type":"uint256"},{"internalType":"bool","name":"isRevoked","type":"bool"},{"internalType":"string","name":"revocationReason","type":"string"}],"stateMutability":"view","type":"function"},{"inputs":[{"internalType":"address","name":"owner","type":"address"},{"internalType":"uint256","name":"didIndex","type":"uint256"},{"internalType":"string","name":"attribute","type":"string"}],"name":"getDriversLicenseAttribute","outputs":[{"internalType":"string","name":"","type":"string"}],"stateMutability":"view","type":"function"},{"inputs":[{"internalType":"address","name":"owner","type":"address"},{"internalType":"uint256","name":"didIndex","type":"uint256"}],"name":"getDriversLicenseDetails","outputs":[{"internalType":"string","name":"identifier","type":"string"},{"internalType":"string","name":"name","type":"string"},{"internalType":"string","name":"dateOfBirth","type":"string"},{"internalType":"string","name":"gender","type":"string"},{"internalType":"string","name":"addr","type":"string"},{"internalType":"string","name":"photoHash","type":"string"},{"internalType":"string","name":"signatureHash","type":"string"},{"internalType":"string","name":"licenseNumber","type":"string"},{"internalType":"string","name":"vehicleClass","type":"string"},{"internalType":"string","name":"issueDate","type":"string"},{"internalType":"string","name":"expiryDate","type":"string"},{"internalType":"string","name":"bloodGroup","type":"string"},{"internalType":"string","name":"emergencyContact","type":"string"},{"internalType":"bool","name":"active","type":"bool"},{"internalType":"uint256","name":"createdAt","type":"uint256"},{"internalType":"uint256","name":"updatedAt","type":"uint256"}],"stateMutability":"view","type":"function"},{"inputs":[{"internalType":"uint256","name":"didIndex","type":"uint256"},{"internalType":"address","name":"to","type":"address"},{"internalType":"string","name":"attribute","type":"string"}],"name":"grantAccess","outputs":[{"internalType":"bool","name":"","type":"bool"}],"stateMutability":"nonpayable","type":"function"},{"inputs":[{"internalType":"address","name":"owner","type":"address"},{"internalType":"uint256","name":"didIndex","type":"uint256"},{"internalType":"address","name":"accessor","type":"address"},{"internalType":"string","name":"attribute","type":"string"}],"name":"hasAccess","outputs":[{"internalType":"bool","name":"","type":"bool"}],"stateMutability":"view","type":"function"},{"inputs":[{"internalType":"uint256","name":"","type":"uint256"}],"name":"licenseDetails","outputs":[{"internalType":"string","name":"name","type":"string"},{"internalType":"string","name":"dateOfBirth","type":"string"},{"internalType":"string","name":"gender","type":"string"},{"internalType":"string","name":"addr","type":"string"},{"internalType":"string","name":"photoHash","type":"string"},{"internalType":"string","name":"signatureHash","type":"string"},{"internalType":"string","name":"licenseNumber","type":"string"},{"internalType":"string","name":"vehicleClass","type":"string"},{"internalType":"string","name":"issueDate","type":"string"},{"internalType":"string","name":"expiryDate","type":"string"},{"internalType":"string","name":"bloodGroup","type":"string"},{"internalType":"string","name":"emergencyContact","type":"string"}],"stateMutability":"view","type":"function"},{"inputs":[],"name":"owner","outputs":[{"internalType":"address","name":"","type":"address"}],"stateMutability":"view","type":"function"},{"inputs":[],"name":"pause","outputs":[],"stateMutability":"nonpayable","type":"function"},{"inputs":[],"name":"paused","outputs":[{"internalType":"bool","name":"","type":"bool"}],"stateMutability":"view","type":"function"},{"inputs":[{"internalType":"string","name":"name","type":"string"}],"name":"removeAttribute","outputs":[{"internalType":"bool","name":"","type":"bool"}],"stateMutability":"nonpayable","type":"function"},{"inputs":[],"name":"renounceOwnership","outputs":[],"stateMutability":"nonpayable","type":"function"},{"inputs":[{"internalType":"address","name":"from","type":"address"},{"internalType":"string","name":"attribute","type":"string"}],"name":"revokeAccess","outputs":[{"internalType":"bool","name":"","type":"bool"}],"stateMutability":"nonpayable","type":"function"},{"inputs":[{"internalType":"string","name":"reason","type":"string"}],"name":"revokeDID","outputs":[{"internalType":"bool","name":"","type":"bool"}],"stateMutability":"nonpayable","type":"function"},{"inputs":[],"name":"selfDID","outputs":[{"internalType":"string","name":"identifier","type":"string"},{"internalType":"bool","name":"active","type":"bool"},{"internalType":"uint256","name":"createdAt","type":"uint256"},{"internalType":"uint256","name":"updatedAt","type":"uint256"},{"internalType":"bool","name":"isRevoked","type":"bool"},{"internalType":"string","name":"revocationReason","type":"string"}],"stateMutability":"view","type":"function"},{"inputs":[{"internalType":"string","name":"","type":"string"}],"name":"supportedIDTypes","outputs":[{"internalType":"bool","name":"","type":"bool"}],"stateMutability":"view","type":"function"},{"inputs":[{"internalType":"address","name":"newOwner","type":"address"}],"name":"transferOwnership","outputs":[],"stateMutability":"nonpayable","type":"function"},{"inputs":[],"name":"unpause","outputs":[],"stateMutability":"nonpayable","type":"function"},{"inputs":[{"internalType":"uint256","name":"didIndex","type":"uint256"},{"internalType":"string","name":"name","type":"string"},{"internalType":"string","name":"dateOfBirth","type":"string"},{"internalType":"string","name":"gender","type":"string"},{"internalType":"string","name":"addr","type":"string"},{"internalType":"string","name":"photoHash","type":"string"},{"internalType":"string","name":"signatureHash","type":"string"},{"internalType":"string","name":"licenseNumber","type":"string"},{"internalType":"string","name":"vehicleClass","type":"string"},{"internalType":"string","name":"issueDate","type":"string"},{"internalType":"string","name":"expiryDate","type":"string"},{"internalType":"string","name":"bloodGroup","type":"string"},{"internalType":"string","name":"emergencyContact","type":"string"}],"name":"updateDriversLicenseDetails","outputs":[],"stateMutability":"nonpayable","type":"function"},{"inputs":[{"internalType":"address","name":"","type":"address"},{"internalType":"uint256","name":"","type":"uint256"}],"name":"userDIDs","outputs":[{"internalType":"string","name":"identifier","type":"string"},{"internalType":"bool","name":"active","type":"bool"},{"internalType":"uint256","name":"createdAt","type":"uint256"},{"internalType":"uint256","name":"updatedAt","type":"uint256"},{"internalType":"bool","name":"isRevoked","type":"bool"},{"internalType":"string","name":"revocationReason","type":"string"}],"stateMutability":"view","type":"function"},{"inputs":[{"internalType":"string","name":"name","type":"string"},{"internalType":"address","name":"verifier","type":"address"}],"name":"verifyAttribute","outputs":[{"internalType":"bool","name":"","type":"bool"}],"stateMutability":"nonpayable","type":"function"}],"evm":{"bytecode":{"linkReferences":{},"object":"6080806040523461007c5760008054336001600160a01b0319821681178355916001600160a01b03909116907f8be0079c531659141344cd1fd0a4f28419497f9722a3daafe3b4186f6b6457e09080a360018055600160ff198060025416600255426005554260065560045416176004556149c190816100828239f35b600080fdfe60a0604052600436101561001257600080fd5b60003560e01c80630b42f3fd1461399f5780632ba56834146135b25780633457d3e21461357857806337714208146133eb5780633aa1b5ca146133cf5780633f4ba83a1461333b57806345e8846f146131855780634b9802f8146131685780635c975abb146131455780636a44cac9146130905780636aab3cef14613003578063715018a614612faa578063767bc20e14612ecf5780638456cb5914612e755780638c15f62d14612e365780638da5cb5b14612e0d5780638e0495e514612a70578063967a455f14612a155780639bc3a00014612987578063a9595ffb14612940578063c93ead1b14612922578063cfe3b347146126bd578063d1af14cf146117e4578063e3725def146116fa578063e4a94adc14611697578063e57be95a1461067f578063e841382f14610622578063e8a51fca1461051d578063ec031910146102cd578063f2fde38b14610204578063f3d310bf146101e85763fb99d0071461017c57600080fd5b346101e35760803660031901126101e357610195613b15565b604435906001600160a01b03821682036101e357606435906001600160401b0382116101e3576020926101cf6101d9933690600401613a60565b91602435906144ba565b6040519015158152f35b600080fd5b346101e35760003660031901126101e357602060405160648152f35b346101e35760203660031901126101e35761021d613b15565b610225613e35565b6001600160a01b0390811690811561027957600054826bffffffffffffffffffffffff60a01b821617600055167f8be0079c531659141344cd1fd0a4f28419497f9722a3daafe3b4186f6b6457e0600080a3005b60405162461bcd60e51b815260206004820152602660248201527f4f776e61626c653a206e6577206f776e657220697320746865207a65726f206160448201526564647265737360d01b6064820152608490fd5b346101e35760203660031901126101e357600435600052600f6020526040600020604051806102fc8184613d04565b036103079082613a3f565b60405191826103198160018401613d04565b036103249084613a3f565b604051806103358160028501613d04565b036103409082613a3f565b604051806103518160038601613d04565b0361035c9082613a3f565b6040518061036d8160048701613d04565b036103789082613a3f565b604051806103898160058801613d04565b036103949082613a3f565b604051806103a58160068901613d04565b036103b09082613a3f565b60405191826103c28160078a01613d04565b036103cd9084613a3f565b60405193846103df8160088b01613d04565b036103ea9086613a3f565b60405195866103fc8160098c01613d04565b036104079088613a3f565b604051978861041981600a8d01613d04565b03610424908a613a3f565b60405180600b819c019061043791613d04565b03610442908b613a3f565b6040519b8c9b8c6101808091528d0161045a91613d9a565b8c810360208e015261046b91613d9a565b8b810360408d015261047c91613d9a565b8a810360608c015261048d91613d9a565b89810360808b015261049e91613d9a565b88810360a08a01526104af91613d9a565b87810360c08901526104c091613d9a565b86810360e08801526104d191613d9a565b8581036101008701526104e391613d9a565b8481036101208601526104f591613d9a565b83810361014085015261050791613d9a565b82810361016084015261051991613d9a565b0390f35b346101e3576020806003193601126101e357600435906001600160401b0382116101e3576105e96105cc826105596105e2953690600401613a60565b61056860ff60075416156141c9565b6040519061059d61059682519385818186019661058681838a613ab6565b8101600981520301902054613b9f565b15156142e2565b6000546001600160a01b0316331480156105fd575b6105bb9061432e565b604051938492839251928391613ab6565b8101600981520301902060405193848092613d04565b0383613a3f565b610519604051928284938452830190613d9a565b5033600052600a83526105bb60ff610619604060002084613ad9565b541690506105b2565b346101e35760603660031901126101e35761063b613b15565b6044356001600160401b0381116101e3576105199161066161066b923690600401613a60565b90602435906146d9565b604051918291602083526020830190613d9a565b346101e3576101a03660031901126101e3576004356001600160401b0381116101e3576106b0903690600401613a60565b6024356001600160401b0381116101e3576106cf903690600401613a60565b6044356001600160401b0381116101e3576106ee903690600401613a60565b6064356001600160401b0381116101e35761070d903690600401613a60565b916084356001600160401b0381116101e35761072d903690600401613a60565b9260a4356001600160401b0381116101e35761074d903690600401613a60565b9360c4356001600160401b0381116101e35761076d903690600401613a60565b9460e4356001600160401b0381116101e35761078d903690600401613a60565b95610104356001600160401b0381116101e3576107ae903690600401613a60565b610124356001600160401b0381116101e3576107ce903690600401613a60565b91610144356001600160401b0381116101e3576107ef903690600401613a60565b936001600160401b0361016435116101e3576108113661016435600401613a60565b956001600160401b0361018435116101e3576108333661018435600401613a60565b9761083d8d613e8d565b5033600052600e6020526040600020549a8b600019810111611681576040519a6108668c613a08565b8b5260208b015260408a01526060890152608088015260a08701528760c087015260e08601526101008501526101208401526101408301526101608201526000198201600052600f602052604060002081518051906001600160401b038211610eca5781906108d58454613b9f565b601f811161164f575b50602090601f83116001146115e3576000926115d8575b50508160011b916000199060031b1c19161781555b60208201518051906001600160401b038211610eca57819061092f6001850154613b9f565b601f81116115a3575b50602090601f831160011461153157600092611526575b50508160011b916000199060031b1c19161760018201555b60408201518051906001600160401b038211610eca57819061098c6002850154613b9f565b601f81116114f1575b50602090601f831160011461147f57600092611474575b50508160011b916000199060031b1c19161760028201555b60608201518051906001600160401b038211610eca5781906109e96003850154613b9f565b601f811161143f575b50602090601f83116001146113cd576000926113c2575b50508160011b916000199060031b1c19161760038201555b60808201518051906001600160401b038211610eca578190610a466004850154613b9f565b601f811161138d575b50602090601f831160011461131b57600092611310575b50508160011b916000199060031b1c19161760048201555b60a08201518051906001600160401b038211610eca578190610aa36005850154613b9f565b601f81116112db575b50602090601f83116001146112695760009261125e575b50508160011b916000199060031b1c19161760058201555b60c08201518051906001600160401b038211610eca578190610b006006850154613b9f565b601f8111611229575b50602090601f83116001146111b7576000926111ac575b50508160011b916000199060031b1c19161760068201555b60e08201518051906001600160401b038211610eca578190610b5d6007850154613b9f565b601f8111611177575b50602090601f8311600114611105576000926110fa575b50508160011b916000199060031b1c19161760078201555b6101008201518051906001600160401b038211610eca578190610bbb6008850154613b9f565b601f81116110c5575b50602090601f831160011461105357600092611048575b50508160011b916000199060031b1c19161760088201555b6101208201518051906001600160401b038211610eca578190610c196009850154613b9f565b601f8111611013575b50602090601f8311600114610fa157600092610f96575b50508160011b916000199060031b1c19161760098201555b6101408201518051906001600160401b038211610eca57610c75600a840154613b9f565b601f8111610f61575b50602090601f8311600114610eeb5791806101609492600b94600092610ee0575b50508160011b916000199060031b1c191617600a8201555b019101518051906001600160401b038211610eca57610cd68354613b9f565b601f8111610e8d575b50602090601f8311600114610dfb579282610ddc93610deb96937f57421511eb3b79ea2b4cb33755930a1f1d7336ca754892a8ab24443f9ec65c9c9896600092610df0575b50508160011b916000199060031b1c19161790555b610d4f610d44614514565b33600019840161438a565b50610d5b610d44614534565b50610d67610d4461455b565b50610d73610d4461457d565b50610d7f610d4461459d565b50610d8b610d446145c2565b50610d97610d446145eb565b50610da3610d44614614565b50610daf610d4461463c565b50610dbb610d44614661565b50610dc7610d44614687565b50610dd06146ad565b9033906000190161438a565b506040519182913395836142bd565b0390a2005b015190508980610d24565b90601f198316918460005260206000209260005b818110610e75575093610deb96937f57421511eb3b79ea2b4cb33755930a1f1d7336ca754892a8ab24443f9ec65c9c98969360019383610ddc9810610e5c575b505050811b019055610d39565b015160001960f88460031b161c19169055898080610e4f565b92936020600181928786015181550195019301610e0f565b610eba90846000526020600020601f850160051c81019160208610610ec0575b601f0160051c019061420c565b86610cdf565b9091508190610ead565b634e487b7160e01b600052604160045260246000fd5b015190508980610c9f565b90600a840160005260206000209160005b601f1985168110610f495750926101609492600192600b9583601f19811610610f30575b505050811b01600a820155610cb7565b015160001960f88460031b161c19169055898080610f20565b91926020600181928685015181550194019201610efc565b610f9090600a85016000526020600020601f850160051c81019160208610610ec057601f0160051c019061420c565b87610c7e565b015190508780610c39565b9250600984016000526020600020906000935b601f1984168510610ff8576001945083601f19811610610fdf575b505050811b016009820155610c51565b015160001960f88460031b161c19169055878080610fcf565b81810151835560209485019460019093019290910190610fb4565b61104290600986016000526020600020601f850160051c81019160208610610ec057601f0160051c019061420c565b88610c22565b015190508780610bdb565b9250600884016000526020600020906000935b601f19841685106110aa576001945083601f19811610611091575b505050811b016008820155610bf3565b015160001960f88460031b161c19169055878080611081565b81810151835560209485019460019093019290910190611066565b6110f490600886016000526020600020601f850160051c81019160208610610ec057601f0160051c019061420c565b88610bc4565b015190508780610b7d565b9250600784016000526020600020906000935b601f198416851061115c576001945083601f19811610611143575b505050811b016007820155610b95565b015160001960f88460031b161c19169055878080611133565b81810151835560209485019460019093019290910190611118565b6111a690600786016000526020600020601f850160051c81019160208610610ec057601f0160051c019061420c565b88610b66565b015190508780610b20565b9250600684016000526020600020906000935b601f198416851061120e576001945083601f198116106111f5575b505050811b016006820155610b38565b015160001960f88460031b161c191690558780806111e5565b818101518355602094850194600190930192909101906111ca565b61125890600686016000526020600020601f850160051c81019160208610610ec057601f0160051c019061420c565b88610b09565b015190508780610ac3565b9250600584016000526020600020906000935b601f19841685106112c0576001945083601f198116106112a7575b505050811b016005820155610adb565b015160001960f88460031b161c19169055878080611297565b8181015183556020948501946001909301929091019061127c565b61130a90600586016000526020600020601f850160051c81019160208610610ec057601f0160051c019061420c565b88610aac565b015190508780610a66565b9250600484016000526020600020906000935b601f1984168510611372576001945083601f19811610611359575b505050811b016004820155610a7e565b015160001960f88460031b161c19169055878080611349565b8181015183556020948501946001909301929091019061132e565b6113bc90600486016000526020600020601f850160051c81019160208610610ec057601f0160051c019061420c565b88610a4f565b015190508780610a09565b9250600384016000526020600020906000935b601f1984168510611424576001945083601f1981161061140b575b505050811b016003820155610a21565b015160001960f88460031b161c191690558780806113fb565b818101518355602094850194600190930192909101906113e0565b61146e90600386016000526020600020601f850160051c81019160208610610ec057601f0160051c019061420c565b886109f2565b0151905087806109ac565b9250600284016000526020600020906000935b601f19841685106114d6576001945083601f198116106114bd575b505050811b0160028201556109c4565b015160001960f88460031b161c191690558780806114ad565b81810151835560209485019460019093019290910190611492565b61152090600286016000526020600020601f850160051c81019160208610610ec057601f0160051c019061420c565b88610995565b01519050878061094f565b9250600184016000526020600020906000935b601f1984168510611588576001945083601f1981161061156f575b505050811b016001820155610967565b015160001960f88460031b161c1916905587808061155f565b81810151835560209485019460019093019290910190611544565b6115d290600186016000526020600020601f850160051c81019160208610610ec057601f0160051c019061420c565b88610938565b0151905087806108f5565b9250836000526020600020906000935b601f1984168510611634576001945083601f1981161061161b575b505050811b01815561090a565b015160001960f88460031b161c1916905587808061160e565b818101518355602094850194600190930192909101906115f3565b61167b90856000526020600020601f850160051c81019160208610610ec057601f0160051c019061420c565b886108de565b634e487b7160e01b600052601160045260246000fd5b346101e35760003660031901126101e3576040516116bf816116b881613bd9565b0382613a3f565b60ff600454169061051960055460065460ff6007541690604051926116ee846116e781613c7d565b0385613a3f565b60405196879687613dbf565b346101e3576020806003193601126101e3576004356001600160401b0381116101e35761172b903690600401613a60565b61173a60ff60075416156141c9565b6105196060611780846040516117606105968751928481818b0195610586818389613ab6565b6000546001600160a01b0396908716331480156105fd576105bb9061432e565b8101600981520301902092604051611797816139ed565b6002604051956117b2876117ab8184613d04565b0388613a3f565b8683526001810154809884015201549160ff831615159283604084015260081c16928391015260405194859485613e00565b346101e3576101a03660031901126101e3576024356001600160401b0381116101e357611815903690600401613a60565b6044356001600160401b0381116101e357611834903690600401613a60565b6064356001600160401b0381116101e357611853903690600401613a60565b6084356001600160401b0381116101e357611872903690600401613a60565b60a4356001600160401b0381116101e357611891903690600401613a60565b60c4356001600160401b0381116101e3576118b0903690600401613a60565b60e4356001600160401b0381116101e3576118cf903690600401613a60565b610104356001600160401b0381116101e3576118ef903690600401613a60565b91610124356001600160401b0381116101e357611910903690600401613a60565b93610144356001600160401b0381116101e357611931903690600401613a60565b95610164356001600160401b0381116101e357611952903690600401613a60565b97610184356001600160401b0381116101e357611973903690600401613a60565b600054909a906001600160a01b03163303612684576040519b6119958d613a08565b8c5260208c015260408b015260608a0152608089015260a088015260c087015260e0860152610100850152610120840152610140830152610160820152600435600052600f602052604060002081519182516001600160401b038111610eca576119ff8354613b9f565b601f8111612652575b506020601f82116001146125ea57819293946000926125df575b50508160011b916000199060031b1c19161782555b60208101519182516001600160401b038111610eca57611a5a6001830154613b9f565b601f81116125aa575b506020601f821160011461253c5781929394600092612531575b50508160011b916000199060031b1c19161760018201555b60408201519182516001600160401b038111610eca57611ab86002840154613b9f565b601f81116124fc575b506020601f821160011461248e5781929394600092612483575b50508160011b916000199060031b1c19161760028301555b60608101519182516001600160401b038111610eca57611b166003830154613b9f565b601f811161244e575b506020601f82116001146123e057819293946000926123d5575b50508160011b916000199060031b1c19161760038201555b60808201519182516001600160401b038111610eca57611b746004840154613b9f565b601f81116123a0575b506020601f82116001146123325781929394600092612327575b50508160011b916000199060031b1c19161760048301555b60a08101519182516001600160401b038111610eca57611bd26005830154613b9f565b601f81116122f2575b506020601f82116001146122845781929394600092612279575b50508160011b916000199060031b1c19161760058201555b60c08201519182516001600160401b038111610eca57611c306006840154613b9f565b601f8111612244575b506020601f82116001146121d657819293946000926121cb575b50508160011b916000199060031b1c19161760068301555b60e08101519182516001600160401b038111610eca57611c8e6007830154613b9f565b601f8111612196575b506020601f8211600114612128578192939460009261211d575b50508160011b916000199060031b1c19161760078201555b6101008201519182516001600160401b038111610eca57611ced6008840154613b9f565b601f81116120e8575b506020601f821160011461207a578192939460009261206f575b50508160011b916000199060031b1c19161760088301555b6101208101519182516001600160401b038111610eca57611d4c6009830154613b9f565b601f811161203a575b506020601f8211600114611fcc5781929394600092611fc1575b50508160011b916000199060031b1c19161760098201555b6101408201518051906001600160401b038211610eca57611dab600a840154613b9f565b601f8111611f8c575b50602090601f8311600114611f165791806101609492600b94600092611f0b575b50508160011b916000199060031b1c191617600a8201555b019101519081516001600160401b038111610eca57611e0c8254613b9f565b601f8111611ed9575b50602092601f8211600114611e755792819293600092611e6a575b50508160011b916000199060031b1c19161790555b33600052600e602052611e5e6004356040600020613b6d565b50600342910155600080f35b015190508380611e30565b601f198216938360005260206000209160005b868110611ec15750836001959610611ea8575b505050811b019055611e45565b015160001960f88460031b161c19169055838080611e9b565b91926020600181928685015181550194019201611e88565b611f0590836000526020600020601f840160051c81019160208510610ec057601f0160051c019061420c565b83611e15565b015190508680611dd5565b90600a840160005260206000209160005b601f1985168110611f745750926101609492600192600b9583601f19811610611f5b575b505050811b01600a820155611ded565b015160001960f88460031b161c19169055868080611f4b565b91926020600181928685015181550194019201611f27565b611fbb90600a85016000526020600020601f850160051c81019160208610610ec057601f0160051c019061420c565b84611db4565b015190508480611d6f565b6009830160005260206000209060005b601f19841681106120225750600193949583601f19811610612009575b505050811b016009820155611d87565b015160001960f88460031b161c19169055848080611ff9565b9091602060018192858a015181550193019101611fdc565b61206990600984016000526020600020601f840160051c81019160208510610ec057601f0160051c019061420c565b84611d55565b015190508480611d10565b6008840160005260206000209060005b601f19841681106120d05750600193949583601f198116106120b7575b505050811b016008830155611d28565b015160001960f88460031b161c191690558480806120a7565b9091602060018192858a01518155019301910161208a565b61211790600885016000526020600020601f840160051c81019160208510610ec057601f0160051c019061420c565b84611cf6565b015190508480611cb1565b6007830160005260206000209060005b601f198416811061217e5750600193949583601f19811610612165575b505050811b016007820155611cc9565b015160001960f88460031b161c19169055848080612155565b9091602060018192858a015181550193019101612138565b6121c590600784016000526020600020601f840160051c81019160208510610ec057601f0160051c019061420c565b84611c97565b015190508480611c53565b6006840160005260206000209060005b601f198416811061222c5750600193949583601f19811610612213575b505050811b016006830155611c6b565b015160001960f88460031b161c19169055848080612203565b9091602060018192858a0151815501930191016121e6565b61227390600685016000526020600020601f840160051c81019160208510610ec057601f0160051c019061420c565b84611c39565b015190508480611bf5565b6005830160005260206000209060005b601f19841681106122da5750600193949583601f198116106122c1575b505050811b016005820155611c0d565b015160001960f88460031b161c191690558480806122b1565b9091602060018192858a015181550193019101612294565b61232190600584016000526020600020601f840160051c81019160208510610ec057601f0160051c019061420c565b84611bdb565b015190508480611b97565b6004840160005260206000209060005b601f19841681106123885750600193949583601f1981161061236f575b505050811b016004830155611baf565b015160001960f88460031b161c1916905584808061235f565b9091602060018192858a015181550193019101612342565b6123cf90600485016000526020600020601f840160051c81019160208510610ec057601f0160051c019061420c565b84611b7d565b015190508480611b39565b6003830160005260206000209060005b601f19841681106124365750600193949583601f1981161061241d575b505050811b016003820155611b51565b015160001960f88460031b161c1916905584808061240d565b9091602060018192858a0151815501930191016123f0565b61247d90600384016000526020600020601f840160051c81019160208510610ec057601f0160051c019061420c565b84611b1f565b015190508480611adb565b6002840160005260206000209060005b601f19841681106124e45750600193949583601f198116106124cb575b505050811b016002830155611af3565b015160001960f88460031b161c191690558480806124bb565b9091602060018192858a01518155019301910161249e565b61252b90600285016000526020600020601f840160051c81019160208510610ec057601f0160051c019061420c565b84611ac1565b015190508480611a7d565b6001830160005260206000209060005b601f19841681106125925750600193949583601f19811610612579575b505050811b016001820155611a95565b015160001960f88460031b161c19169055848080612569565b9091602060018192858a01518155019301910161254c565b6125d990600184016000526020600020601f840160051c81019160208510610ec057601f0160051c019061420c565b84611a63565b015190508480611a22565b8360005260206000209060005b601f198416811061263a5750600193949583601f19811610612621575b505050811b018255611a37565b015160001960f88460031b161c19169055848080612614565b9091602060018192858a0151815501930191016125f7565b61267e90846000526020600020601f840160051c81019160208510610ec057601f0160051c019061420c565b84611a08565b60405162461bcd60e51b81526020600482015260116024820152702737ba103a3432902224a21037bbb732b960791b6044820152606490fd5b346101e3576020806003193601126101e3576001600160401b036004358181116101e3576126ef903690600401613a60565b6126f7613e35565b6126ff614223565b61270e60ff60075416156141c9565b612716614267565b8051156128dd5760019160ff1990838260075416176007558251908111610eca57612742600854613b9f565b601f811161288f575b5084601f82116001146127e45791817ff47a4f2302a3334a22353c5748d420f032e5f784e851777209232d29d169333594926127cb946000916127d9575b50600019600383901b1c191690861b176008555b6004541660045542600655604051918291604083526127be60408401613bd9565b9083820388850152613d9a565b0390a1808055604051908152f35b905083015188612789565b908491601f1982169060086000527ff3f7a9fe364faab93b216da50a3214154f22a0a2b415b23a84c8169e8b636ee39160005b898282106128795750509183916127cb96947ff47a4f2302a3334a22353c5748d420f032e5f784e851777209232d29d169333598969410612860575b5050811b0160085561279d565b85015160001960f88460031b161c191690558880612853565b8389015185558996909401939283019201612817565b6128d79060086000527ff3f7a9fe364faab93b216da50a3214154f22a0a2b415b23a84c8169e8b636ee3601f840160051c810191888510610ec057601f0160051c019061420c565b8561274b565b60405162461bcd60e51b815260048101849052601a60248201527f5265766f636174696f6e20726561736f6e2072657175697265640000000000006044820152606490fd5b346101e35760003660031901126101e3576020600d54604051908152f35b346101e35760603660031901126101e357612959613aff565b6044356001600160401b0381116101e35760209161297e6101d9923690600401613a60565b9060043561438a565b346101e35760203660031901126101e3576004356001600160401b0381116101e35760206129bc6129cf923690600401613a60565b8160405193828580945193849201613ab6565b81016009815203019020604051906129eb826105e28184613d04565b6105196002600183015492015460405193849360ff60018060a01b038460081c1693169185613e00565b346101e35760003660031901126101e35760ff60075416612a3681156141c9565b60ff60045416906105196005546006549260405193612a5f85612a5881613bd9565b0386613a3f565b604051926116ee846116e781613c7d565b346101e35760403660031901126101e357612a89613b15565b6001600160a01b0381166000818152600e602052604090205460243592612ac691612ab5908510614479565b612abd614514565b908433916144ba565b15612daf57600052600e60205280604060002090612ae391613b6d565b5090600052600f602052604060002090600181015460ff16916002820154908080600385015494604051612b18818093613d04565b03612b239082613a3f565b60405180612b318185613d04565b03612b3c9082613a3f565b60405180612b4d8160018701613d04565b03612b589082613a3f565b60405180612b698160028801613d04565b03612b749082613a3f565b60405180612b858160038901613d04565b03612b909082613a3f565b6040519081612ba28160048a01613d04565b03612bad9083613a3f565b6040519283612bbf8160058b01613d04565b03612bca9085613a3f565b6040519485612bdc8160068c01613d04565b03612be79087613a3f565b6040519687612bf98160078d01613d04565b03612c049089613a3f565b6040519889612c168160088e01613d04565b03612c21908b613a3f565b604051806009819d0190612c3491613d04565b03612c3f908c613a3f565b60405180600a819e0190612c5291613d04565b03612c5d908d613a3f565b60405180809e600b82910190612c7291613d04565b03612c7c91613a3f565b6040518060805261020080915260805101612c9691613d9a565b6080518082039060200152612caa91613d9a565b6080518082039060400152612cbe91613d9a565b6080518082039060600152612cd291613d9a565b6080518082039060800152612ce691613d9a565b6080518082039060a00152612cfa91613d9a565b6080518082039060c00152612d0e91613d9a565b6080518082039060e00152612d2291613d9a565b608051808203906101000152612d3791613d9a565b608051808203906101200152612d4c91613d9a565b608051808203906101400152612d6191613d9a565b608051808203906101600152612d7691613d9a565b608051808203906101800152612d8b91613d9a565b9215156080516101a001526080516101c001526080516101e0015260805180910390f35b60405162461bcd60e51b815260206004820152603060248201527f4e6f7420617574686f72697a656420746f20616363657373204472697665727360448201526f204c6963656e73652064657461696c7360801b6064820152608490fd5b346101e35760003660031901126101e3576000546040516001600160a01b039091168152602090f35b346101e357602060ff612e69612e4b36613b2b565b6001600160a01b039091166000908152600a85526040902090613ad9565b54166040519015158152f35b346101e35760003660031901126101e357612e8e613e35565b612e96614223565b600160ff1960025416176002557f62e78cea01bee320cd4e420270b5ea74000d11b0c9f74754ebdbfc544b05a2586020604051338152a1005b346101e35760003660031901126101e357612ee8613e35565b612ef0614223565b612eff60ff60075416156141c9565b612f07614267565b60045460ff811615612f655760ff1916600455426006557f4360f12f602ccecefb32480e5314d0d3f57d38db8f52c76d8fdf4c39596c1c286040516020815280612f5360208201613bd9565b0390a160018055602060405160018152f35b60405162461bcd60e51b815260206004820152601760248201527f44494420697320616c726561647920696e6163746976650000000000000000006044820152606490fd5b346101e35760003660031901126101e357612fc3613e35565b600080546001600160a01b0319811682556001600160a01b03167f8be0079c531659141344cd1fd0a4f28419497f9722a3daafe3b4186f6b6457e08280a3005b346101e35760403660031901126101e35761301c613b15565b6001600160a01b03166000908152600e602052604090208054602435908110156101e35761304991613b6d565b5060405161305b816116b88185613d04565b610519600560ff6001850154169360028101546003820154906116ee60ff600485015416936116e76040518097819301613d04565b346101e3576131337f51cbcaaca6ae26944c6280c966a07b04ca5c6766d82ca497ded152579431468d6130c236613b2b565b92906130cc613e35565b6130d4614223565b6130e360ff60075416156141c9565b6130eb614267565b6001600160a01b03169261310084151561443b565b83600052600a602052613117604060002082613ad9565b60ff198154169055604051918291602083526020830190613d9a565b0390a260018055602060405160018152f35b346101e35760003660031901126101e357602060ff600254166040519015158152f35b346101e35760003660031901126101e35760206040516103e88152f35b346101e35760403660031901126101e3576004356001600160401b0381116101e3576131b5903690600401613a60565b6131bd613aff565b6131c5613e35565b6131cd614223565b6131dc60ff60075416156141c9565b6131e4614267565b604051918051613204610596602095868181870195610586818389613ab6565b6001600160a01b0383169283156132f657916132c360016132e6936132b37f1c564f9c63901c7b3617b5a5a8d210f8871f28d4afa53586ed6f670abe7e220a9660026040518b81895161325881838a613ab6565b81016009815203019020018460ff1982541617905560026040518b81895161328181838a613ab6565b600990820190815203019020018054610100600160a81b03191660089290921b610100600160a81b0316919091179055565b6040519283918551928391613ab6565b820191600983528781429403019020015560405191829186835286830190613d9a565b0390a26001805560405160018152f35b60405162461bcd60e51b815260048101869052601860248201527f496e76616c6964207665726966696572206164647265737300000000000000006044820152606490fd5b346101e35760003660031901126101e357613354613e35565b60025460ff8116156133935760ff19166002557f5db9ee0a495bf2e6ff9c91a7834c1ba4fdd244a5e8aa4e537bd38aeae4b073aa6020604051338152a1005b60405162461bcd60e51b815260206004820152601460248201527314185d5cd8589b194e881b9bdd081c185d5cd95960621b6044820152606490fd5b346101e35760003660031901126101e357602060405160328152f35b346101e3576020806003193601126101e3576004356001600160401b0381116101e35761341c903690600401613a60565b613424613e35565b61342c614223565b61343b60ff60075416156141c9565b613443614267565b60006002613479846040516134686105968751928481818b0195610586818389613ab6565b604051809381928851928391613ab6565b8101600981520301902061348d8154613b9f565b8061353c575b508260018201550155600d5480156134f75760001901600d55426006556040518281527f8088db29d4761a957c0a396fa3c5f3f369fbfca4f1a83dae8b4f76a31726246a9181906134e79085830190613d9a565b0390a16001805560405160018152f35b60405162461bcd60e51b815260048101849052601b60248201527f436f756e7465723a2064656372656d656e74206f766572666c6f7700000000006044820152606490fd5b601f811160011461355257508281555b85613493565b839082825261356f601f888420920160051c82016001830161420c565b8183555561354c565b346101e35760203660031901126101e3576004356001600160401b0381116101e3576101d96135ad6020923690600401613a60565b613e8d565b346101e35760403660031901126101e3576001600160401b036004358181116101e3576135e3903690600401613a60565b9060249182358281116101e3576135fe903690600401613a60565b90613607613e35565b61360f614223565b61361e60ff60075416156141c9565b613626614267565b80511561395b576103e880825111613917578251156138d35782511161388f576032600d54101561384b576040519361365e856139ed565b828552602094858101428152604082019560008752606083019360008552604051898188516136908183858d01613ab6565b81016009815203019020935190815192831161383757506136b18454613b9f565b601f8111613807575b508890601f83116001146137765792826002937fb5992aa9568eacc71d59e4909dd6598b92a9412825efe4598975018ea0918d759a969361374f989660009261376b575b50508160011b916000199060031b1c19161782555b51600182015592519201805491516001600160a81b031990921660ff931515939093169290921760089190911b610100600160a81b0316179055565b6001600d5401600d55426006556134e7604051928392836142bd565b015190508c806136fe565b90601f19831691856000528a6000209260005b8c8282106137f1575050937fb5992aa9568eacc71d59e4909dd6598b92a9412825efe4598975018ea0918d759a969361374f98969360019383600298106137d8575b505050811b018255613713565b015160001960f88460031b161c191690558c80806137cb565b6001859682939686015181550195019301613789565b61383190856000528a600020601f850160051c8101918c8610610ec057601f0160051c019061420c565b896136ba565b634e487b7160e01b60009081526041600452fd5b60405162461bcd60e51b815260206004820152601a818601527f4d6178696d756d206174747269627574657320726561636865640000000000006044820152606490fd5b60405162461bcd60e51b8152602060048201526018818601527f4174747269627574652076616c756520746f6f206c6f6e6700000000000000006044820152606490fd5b60405162461bcd60e51b815260206004820152601f818701527f4174747269627574652076616c75652063616e6e6f7420626520656d707479006044820152606490fd5b60405162461bcd60e51b8152602060048201526017818701527f417474726962757465206e616d6520746f6f206c6f6e670000000000000000006044820152606490fd5b60405162461bcd60e51b815260206004820152601e818601527f417474726962757465206e616d652063616e6e6f7420626520656d70747900006044820152606490fd5b346101e35760203660031901126101e3576004356001600160401b0381116101e35760ff6139d760206129bc81943690600401613a60565b8101600b81520301902054166040519015158152f35b608081019081106001600160401b03821117610eca57604052565b61018081019081106001600160401b03821117610eca57604052565b604081019081106001600160401b03821117610eca57604052565b90601f801991011681019081106001600160401b03821117610eca57604052565b81601f820112156101e3578035906001600160401b038211610eca5760405192613a94601f8401601f191660200185613a3f565b828452602083830101116101e357816000926020809301838601378301015290565b60005b838110613ac95750506000910152565b8181015183820152602001613ab9565b602090613af3928260405194838680955193849201613ab6565b82019081520301902090565b602435906001600160a01b03821682036101e357565b600435906001600160a01b03821682036101e357565b9060406003198301126101e3576004356001600160a01b03811681036101e35791602435906001600160401b0382116101e357613b6a91600401613a60565b90565b8054821015613b89576000526006602060002091020190600090565b634e487b7160e01b600052603260045260246000fd5b90600182811c92168015613bcf575b6020831014613bb957565b634e487b7160e01b600052602260045260246000fd5b91607f1691613bae565b60035460009291613be982613b9f565b80825291600190818116908115613c605750600114613c0757505050565b9192935060036000527fc2575a0e9e593c00f959f8c92f12db2869c3395a3b0502d05e2516446f71f85b916000925b848410613c4857505060209250010190565b80546020858501810191909152909301928101613c36565b915050602093945060ff929192191683830152151560051b010190565b60085460009291613c8d82613b9f565b80825291600190818116908115613c605750600114613cab57505050565b9192935060086000527ff3f7a9fe364faab93b216da50a3214154f22a0a2b415b23a84c8169e8b636ee3916000925b848410613cec57505060209250010190565b80546020858501810191909152909301928101613cda565b9060009291805491613d1583613b9f565b918282526001938481169081600014613d775750600114613d37575b50505050565b90919394506000526020928360002092846000945b838610613d63575050505001019038808080613d31565b805485870183015294019385908201613d4c565b9294505050602093945060ff191683830152151560051b01019038808080613d31565b90602091613db381518092818552858086019101613ab6565b601f01601f1916010190565b92613dda613b6a97959296939660c0865260c0860190613d9a565b9515156020850152604084015260608301521515608082015260a0818403910152613d9a565b92613e18606093969592608086526080860190613d9a565b6020850196909652151560408401526001600160a01b0316910152565b6000546001600160a01b03163303613e4957565b606460405162461bcd60e51b815260206004820152602060248201527f4f776e61626c653a2063616c6c6572206973206e6f7420746865206f776e65726044820152fd5b613e95614223565b613ea460ff60075416156141c9565b613eac614267565b8051156141845760648151116141495760405190805160ff602093848181860194613ed8818388613ab6565b8101600c81520301902054166141045760038054613ef581613b9f565b6140ca578351906001600160401b038211610eca57613f1390613b9f565b601f811161407d575b5084601f8211600114613fd6579181613fbf94927f44ca9609d2fe597457041d7e98533a969452ef425c10a46d0dd9f074497ea1ba9694600091613fcb575b508160011b9160001990841b1c19161790555b42600555426006556001613f9b8660ff199383856004541617600455604051809381928851928391613ab6565b8101600c815203019020918254161790556040519182918583523395830190613d9a565b0390a260018055600190565b905084015138613f5b565b601f19821690836000527fc2575a0e9e593c00f959f8c92f12db2869c3395a3b0502d05e2516446f71f85b9160005b88828210614067575050927f44ca9609d2fe597457041d7e98533a969452ef425c10a46d0dd9f074497ea1ba96949260019282613fbf98961061404f575b5050811b019055613f6e565b86015160001983861b60f8161c191690553880614043565b600184958293958b015181550194019201614005565b6140c490836000527fc2575a0e9e593c00f959f8c92f12db2869c3395a3b0502d05e2516446f71f85b601f840160051c810191888510610ec057601f0160051c019061420c565b38613f1c565b60405162461bcd60e51b815260048101869052601260248201527144494420616c72656164792065786973747360701b6044820152606490fd5b60405162461bcd60e51b815260048101849052601960248201527f4964656e74696669657220616c726561647920696e20757365000000000000006044820152606490fd5b60405162461bcd60e51b81526020600482015260136024820152724964656e74696669657220746f6f206c6f6e6760681b6044820152606490fd5b60405162461bcd60e51b815260206004820152601a60248201527f4964656e7469666965722063616e6e6f7420626520656d7074790000000000006044820152606490fd5b156141d057565b60405162461bcd60e51b8152602060048201526014602482015273111251081a185cc81899595b881c995d9bdad95960621b6044820152606490fd5b818110614217575050565b6000815560010161420c565b60ff6002541661422f57565b60405162461bcd60e51b815260206004820152601060248201526f14185d5cd8589b194e881c185d5cd95960821b6044820152606490fd5b600260015414614278576002600155565b60405162461bcd60e51b815260206004820152601f60248201527f5265656e7472616e637947756172643a207265656e7472616e742063616c6c006044820152606490fd5b90916142d4613b6a93604084526040840190613d9a565b916020818403910152613d9a565b156142e957565b60405162461bcd60e51b815260206004820152601860248201527f41747472696275746520646f6573206e6f7420657869737400000000000000006044820152606490fd5b1561433557565b60405162461bcd60e51b815260206004820152602760248201527f4e6f7420617574686f72697a656420746f2061636365737320746869732061746044820152667472696275746560c81b6064820152608490fd5b91613fbf906144057f883d542f167dfc5f47e8bf1532c171025ed0e4c59c1126c7f61749fa21976a45936143bc613e35565b6143c4614223565b6143d360ff60075416156141c9565b6143db614267565b6001600160a01b0316946143f086151561443b565b33600052600e60205260406000205411614479565b83600052600a60205261441c604060002082613ad9565b600160ff19825416179055604051918291602083526020830190613d9a565b1561444257565b60405162461bcd60e51b815260206004820152600f60248201526e496e76616c6964206164647265737360881b6044820152606490fd5b1561448057565b60405162461bcd60e51b815260206004820152601260248201527111125108191bd95cc81b9bdd08195e1a5cdd60721b6044820152606490fd5b6001600160a01b039081166000818152600e602052604090205490949391926144e39111614479565b168092149182156144f357505090565b60ff92509061450f91600052600a602052604060002090613ad9565b541690565b6040519061452182613a24565b60048252636e616d6560e01b6020830152565b6040519061454182613a24565b600b82526a0c8c2e8ca9ecc84d2e4e8d60ab1b6020830152565b6040519061456882613a24565b600682526533b2b73232b960d11b6020830152565b6040519061458a82613a24565b600482526330b2323960e11b6020830152565b604051906145aa82613a24565b60098252680e0d0dee8de90c2e6d60bb1b6020830152565b604051906145cf82613a24565b600d82526c0e6d2cedcc2e8eae4ca90c2e6d609b1b6020830152565b604051906145f882613a24565b600d82526c3634b1b2b739b2a73ab6b132b960991b6020830152565b6040519061462182613a24565b600c82526b76656869636c65436c61737360a01b6020830152565b6040519061464982613a24565b600982526869737375654461746560b81b6020830152565b6040519061466e82613a24565b600a8252696578706972794461746560b01b6020830152565b6040519061469482613a24565b600a8252690626c6f6f6447726f75760b41b6020830152565b604051906146ba82613a24565b601082526f195b595c99d95b98de50dbdb9d1858dd60821b6020830152565b909160018060a01b038216600052602092600e845261471461470f8360409561470787600020548610614479565b8433916144ba565b61432e565b600052600f83528160002090805190848101918220614731614514565b868151910120146149765780518220614748614534565b8681519101201461495e578051822061475f61455b565b86815191012014614946578051822061477661457d565b8681519101201461492e578051822061478d61459d565b8681519101201461491657805182206147a46145c2565b868151910120146148fe57805182206147bb6145eb565b868151910120146148e657805182206147d2614614565b868151910120146148ce57805182206147e961463c565b868151910120146148b65780518220614800614661565b8681519101201461489e5780518220614817614687565b868151910120146148865751902061482d6146ad565b8481519101201461487057815162461bcd60e51b8152600481018490526011602482015270496e76616c69642061747472696275746560781b6044820152606490fd5b600b92506116b8613b6a92518094819301613d04565b5050600a92506116b8613b6a92518094819301613d04565b5050600992506116b8613b6a92518094819301613d04565b5050600892506116b8613b6a92518094819301613d04565b5050600792506116b8613b6a92518094819301613d04565b5050600692506116b8613b6a92518094819301613d04565b5050600592506116b8613b6a92518094819301613d04565b5050600492506116b8613b6a92518094819301613d04565b5050600392506116b8613b6a92518094819301613d04565b5050600292506116b8613b6a92518094819301613d04565b5050600192506116b8613b6a92518094819301613d04565b50506116b89250613b6a915192838092613d0456fea2646970667358221220242f50576927a7c7d826ffb1cab741f277188110fae701c0ef95662d2206f46664736f6c63430008140033","opcodes":"PUSH1 0x80 DUP1 PUSH1 0x40 MSTORE CALLVALUE PUSH2 0x7C JUMPI PUSH1 0x0 DUP1 SLOAD CALLER PUSH1 0x1 PUSH1 0x1 PUSH1 0xA0 SHL SUB NOT DUP3 AND DUP2 OR DUP4 SSTORE SWAP2 PUSH1 0x1 PUSH1 0x1 PUSH1 0xA0 SHL SUB SWAP1 SWAP2 AND SWAP1 PUSH32 0x8BE0079C531659141344CD1FD0A4F28419497F9722A3DAAFE3B4186F6B6457E0 SWAP1 DUP1 LOG3 PUSH1 0x1 DUP1 SSTORE PUSH1 0x1 PUSH1 0xFF NOT DUP1 PUSH1 0x2 SLOAD AND PUSH1 0x2 SSTORE TIMESTAMP PUSH1 0x5 SSTORE TIMESTAMP PUSH1 0x6 SSTORE PUSH1 0x4 SLOAD AND OR PUSH1 0x4 SSTORE PUSH2 0x49C1 SWAP1 DUP2 PUSH2 0x82 DUP3 CODECOPY RETURN JUMPDEST PUSH1 0x0 DUP1 REVERT INVALID PUSH1 0xA0 PUSH1 0x40 MSTORE PUSH1 0x4 CALLDATASIZE LT ISZERO PUSH2 0x12 JUMPI PUSH1 0x0 DUP1 REVERT JUMPDEST PUSH1 0x0 CALLDATALOAD PUSH1 0xE0 SHR DUP1 PUSH4 0xB42F3FD EQ PUSH2 0x399F JUMPI DUP1 PUSH4 0x2BA56834 EQ PUSH2 0x35B2 JUMPI DUP1 PUSH4 0x3457D3E2 EQ PUSH2 0x3578 JUMPI DUP1 PUSH4 0x37714208 EQ PUSH2 0x33EB JUMPI DUP1 PUSH4 0x3AA1B5CA EQ PUSH2 0x33CF JUMPI DUP1 PUSH4 0x3F4BA83A EQ PUSH2 0x333B JUMPI DUP1 PUSH4 0x45E8846F EQ PUSH2 0x3185 JUMPI DUP1 PUSH4 0x4B9802F8 EQ PUSH2 0x3168 JUMPI DUP1 PUSH4 0x5C975ABB EQ PUSH2 0x3145 JUMPI DUP1 PUSH4 0x6A44CAC9 EQ PUSH2 0x3090 JUMPI DUP1 PUSH4 0x6AAB3CEF EQ PUSH2 0x3003 JUMPI DUP1 PUSH4 0x715018A6 EQ PUSH2 0x2FAA JUMPI DUP1 PUSH4 0x767BC20E EQ PUSH2 0x2ECF JUMPI DUP1 PUSH4 0x8456CB59 EQ PUSH2 0x2E75 JUMPI DUP1 PUSH4 0x8C15F62D EQ PUSH2 0x2E36 JUMPI DUP1 PUSH4 0x8DA5CB5B EQ PUSH2 0x2E0D JUMPI DUP1 PUSH4 0x8E0495E5 EQ PUSH2 0x2A70 JUMPI DUP1 PUSH4 0x967A455F EQ PUSH2 0x2A15 JUMPI DUP1 PUSH4 0x9BC3A000 EQ PUSH2 0x2987 JUMPI DUP1 PUSH4 0xA9595FFB EQ PUSH2 0x2940 JUMPI DUP1 PUSH4 0xC93EAD1B EQ PUSH2 0x2922 JUMPI DUP1 PUSH4 0xCFE3B347 EQ PUSH2 0x26BD JUMPI DUP1 PUSH4 0xD1AF14CF EQ PUSH2 0x17E4 JUMPI DUP1 PUSH4 0xE3725DEF EQ PUSH2 0x16FA JUMPI DUP1 PUSH4 0xE4A94ADC EQ PUSH2 0x1697 JUMPI DUP1 PUSH4 0xE57BE95A EQ PUSH2 0x67F JUMPI DUP1 PUSH4 0xE841382F EQ PUSH2 0x622 JUMPI DUP1 PUSH4 0xE8A51FCA EQ PUSH2 0x51D JUMPI DUP1 PUSH4 0xEC031910 EQ PUSH2 0x2CD JUMPI DUP1 PUSH4 0xF2FDE38B EQ PUSH2 0x204 JUMPI DUP1 PUSH4 0xF3D310BF EQ PUSH2 0x1E8 JUMPI PUSH4 0xFB99D007 EQ PUSH2 0x17C JUMPI PUSH1 0x0 DUP1 REVERT JUMPDEST CALLVALUE PUSH2 0x1E3 JUMPI PUSH1 0x80 CALLDATASIZE PUSH1 0x3 NOT ADD SLT PUSH2 0x1E3 JUMPI PUSH2 0x195 PUSH2 0x3B15 JUMP JUMPDEST PUSH1 0x44 CALLDATALOAD SWAP1 PUSH1 0x1 PUSH1 0x1 PUSH1 0xA0 SHL SUB DUP3 AND DUP3 SUB PUSH2 0x1E3 JUMPI PUSH1 0x64 CALLDATALOAD SWAP1 PUSH1 0x1 PUSH1 0x1 PUSH1 0x40 SHL SUB DUP3 GT PUSH2 0x1E3 JUMPI PUSH1 0x20 SWAP3 PUSH2 0x1CF PUSH2 0x1D9 SWAP4 CALLDATASIZE SWAP1 PUSH1 0x4 ADD PUSH2 0x3A60 JUMP JUMPDEST SWAP2 PUSH1 0x24 CALLDATALOAD SWAP1 PUSH2 0x44BA JUMP JUMPDEST PUSH1 0x40 MLOAD SWAP1 ISZERO ISZERO DUP2 MSTORE RETURN JUMPDEST PUSH1 0x0 DUP1 REVERT JUMPDEST CALLVALUE PUSH2 0x1E3 JUMPI PUSH1 0x0 CALLDATASIZE PUSH1 0x3 NOT ADD SLT PUSH2 0x1E3 JUMPI PUSH1 0x20 PUSH1 0x40 MLOAD PUSH1 0x64 DUP2 MSTORE RETURN JUMPDEST CALLVALUE PUSH2 0x1E3 JUMPI PUSH1 0x20 CALLDATASIZE PUSH1 0x3 NOT ADD SLT PUSH2 0x1E3 JUMPI PUSH2 0x21D PUSH2 0x3B15 JUMP JUMPDEST PUSH2 0x225 PUSH2 0x3E35 JUMP JUMPDEST PUSH1 0x1 PUSH1 0x1 PUSH1 0xA0 SHL SUB SWAP1 DUP2 AND SWAP1 DUP2 ISZERO PUSH2 0x279 JUMPI PUSH1 0x0 SLOAD DUP3 PUSH12 0xFFFFFFFFFFFFFFFFFFFFFFFF PUSH1 0xA0 SHL DUP3 AND OR PUSH1 0x0 SSTORE AND PUSH32 0x8BE0079C531659141344CD1FD0A4F28419497F9722A3DAAFE3B4186F6B6457E0 PUSH1 0x0 DUP1 LOG3 STOP JUMPDEST PUSH1 0x40 MLOAD PUSH3 0x461BCD PUSH1 0xE5 SHL DUP2 MSTORE PUSH1 0x20 PUSH1 0x4 DUP3 ADD MSTORE PUSH1 0x26 PUSH1 0x24 DUP3 ADD MSTORE PUSH32 0x4F776E61626C653A206E6577206F776E657220697320746865207A65726F2061 PUSH1 0x44 DUP3 ADD MSTORE PUSH6 0x646472657373 PUSH1 0xD0 SHL PUSH1 0x64 DUP3 ADD MSTORE PUSH1 0x84 SWAP1 REVERT JUMPDEST CALLVALUE PUSH2 0x1E3 JUMPI PUSH1 0x20 CALLDATASIZE PUSH1 0x3 NOT ADD SLT PUSH2 0x1E3 JUMPI PUSH1 0x4 CALLDATALOAD PUSH1 0x0 MSTORE PUSH1 0xF PUSH1 0x20 MSTORE PUSH1 0x40 PUSH1 0x0 KECCAK256 PUSH1 0x40 MLOAD DUP1 PUSH2 0x2FC DUP2 DUP5 PUSH2 0x3D04 JUMP JUMPDEST SUB PUSH2 0x307 SWAP1 DUP3 PUSH2 0x3A3F JUMP JUMPDEST PUSH1 0x40 MLOAD SWAP2 DUP3 PUSH2 0x319 DUP2 PUSH1 0x1 DUP5 ADD PUSH2 0x3D04 JUMP JUMPDEST SUB PUSH2 0x324 SWAP1 DUP5 PUSH2 0x3A3F JUMP JUMPDEST PUSH1 0x40 MLOAD DUP1 PUSH2 0x335 DUP2 PUSH1 0x2 DUP6 ADD PUSH2 0x3D04 JUMP JUMPDEST SUB PUSH2 0x340 SWAP1 DUP3 PUSH2 0x3A3F JUMP JUMPDEST PUSH1 0x40 MLOAD DUP1 PUSH2 0x351 DUP2 PUSH1 0x3 DUP7 ADD PUSH2 0x3D04 JUMP JUMPDEST SUB PUSH2 0x35C SWAP1 DUP3 PUSH2 0x3A3F JUMP JUMPDEST PUSH1 0x40 MLOAD DUP1 PUSH2 0x36D DUP2 PUSH1 0x4 DUP8 ADD PUSH2 0x3D04 JUMP JUMPDEST SUB PUSH2 0x378 SWAP1 DUP3 PUSH2 0x3A3F JUMP JUMPDEST PUSH1 0x40 MLOAD DUP1 PUSH2 0x389 DUP2 PUSH1 0x5 DUP9 ADD PUSH2 0x3D04 JUMP JUMPDEST SUB PUSH2 0x394 SWAP1 DUP3 PUSH2 0x3A3F JUMP JUMPDEST PUSH1 0x40 MLOAD DUP1 PUSH2 0x3A5 DUP2 PUSH1 0x6 DUP10 ADD PUSH2 0x3D04 JUMP JUMPDEST SUB PUSH2 0x3B0 SWAP1 DUP3 PUSH2 0x3A3F JUMP JUMPDEST PUSH1 0x40 MLOAD SWAP2 DUP3 PUSH2 0x3C2 DUP2 PUSH1 0x7 DUP11 ADD PUSH2 0x3D04 JUMP JUMPDEST SUB PUSH2 0x3CD SWAP1 DUP5 PUSH2 0x3A3F JUMP JUMPDEST PUSH1 0x40 MLOAD SWAP4 DUP5 PUSH2 0x3DF DUP2 PUSH1 0x8 DUP12 ADD PUSH2 0x3D04 JUMP JUMPDEST SUB PUSH2 0x3EA SWAP1 DUP7 PUSH2 0x3A3F JUMP JUMPDEST PUSH1 0x40 MLOAD SWAP6 DUP7 PUSH2 0x3FC DUP2 PUSH1 0x9 DUP13 ADD PUSH2 0x3D04 JUMP JUMPDEST SUB PUSH2 0x407 SWAP1 DUP9 PUSH2 0x3A3F JUMP JUMPDEST PUSH1 0x40 MLOAD SWAP8 DUP9 PUSH2 0x419 DUP2 PUSH1 0xA DUP14 ADD PUSH2 0x3D04 JUMP JUMPDEST SUB PUSH2 0x424 SWAP1 DUP11 PUSH2 0x3A3F JUMP JUMPDEST PUSH1 0x40 MLOAD DUP1 PUSH1 0xB DUP2 SWAP13 ADD SWAP1 PUSH2 0x437 SWAP2 PUSH2 0x3D04 JUMP JUMPDEST SUB PUSH2 0x442 SWAP1 DUP12 PUSH2 0x3A3F JUMP JUMPDEST PUSH1 0x40 MLOAD SWAP12 DUP13 SWAP12 DUP13 PUSH2 0x180 DUP1 SWAP2 MSTORE DUP14 ADD PUSH2 0x45A SWAP2 PUSH2 0x3D9A JUMP JUMPDEST DUP13 DUP2 SUB PUSH1 0x20 DUP15 ADD MSTORE PUSH2 0x46B SWAP2 PUSH2 0x3D9A JUMP JUMPDEST DUP12 DUP2 SUB PUSH1 0x40 DUP14 ADD MSTORE PUSH2 0x47C SWAP2 PUSH2 0x3D9A JUMP JUMPDEST DUP11 DUP2 SUB PUSH1 0x60 DUP13 ADD MSTORE PUSH2 0x48D SWAP2 PUSH2 0x3D9A JUMP JUMPDEST DUP10 DUP2 SUB PUSH1 0x80 DUP12 ADD MSTORE PUSH2 0x49E SWAP2 PUSH2 0x3D9A JUMP JUMPDEST DUP9 DUP2 SUB PUSH1 0xA0 DUP11 ADD MSTORE PUSH2 0x4AF SWAP2 PUSH2 0x3D9A JUMP JUMPDEST DUP8 DUP2 SUB PUSH1 0xC0 DUP10 ADD MSTORE PUSH2 0x4C0 SWAP2 PUSH2 0x3D9A JUMP JUMPDEST DUP7 DUP2 SUB PUSH1 0xE0 DUP9 ADD MSTORE PUSH2 0x4D1 SWAP2 PUSH2 0x3D9A JUMP JUMPDEST DUP6 DUP2 SUB PUSH2 0x100 DUP8 ADD MSTORE PUSH2 0x4E3 SWAP2 PUSH2 0x3D9A JUMP JUMPDEST DUP5 DUP2 SUB PUSH2 0x120 DUP7 ADD MSTORE PUSH2 0x4F5 SWAP2 PUSH2 0x3D9A JUMP JUMPDEST DUP4 DUP2 SUB PUSH2 0x140 DUP6 ADD MSTORE PUSH2 0x507 SWAP2 PUSH2 0x3D9A JUMP JUMPDEST DUP3 DUP2 SUB PUSH2 0x160 DUP5 ADD MSTORE PUSH2 0x519 SWAP2 PUSH2 0x3D9A JUMP JUMPDEST SUB SWAP1 RETURN JUMPDEST CALLVALUE PUSH2 0x1E3 JUMPI PUSH1 0x20 DUP1 PUSH1 0x3 NOT CALLDATASIZE ADD SLT PUSH2 0x1E3 JUMPI PUSH1 0x4 CALLDATALOAD SWAP1 PUSH1 0x1 PUSH1 0x1 PUSH1 0x40 SHL SUB DUP3 GT PUSH2 0x1E3 JUMPI PUSH2 0x5E9 PUSH2 0x5CC DUP3 PUSH2 0x559 PUSH2 0x5E2 SWAP6 CALLDATASIZE SWAP1 PUSH1 0x4 ADD PUSH2 0x3A60 JUMP JUMPDEST PUSH2 0x568 PUSH1 0xFF PUSH1 0x7 SLOAD AND ISZERO PUSH2 0x41C9 JUMP JUMPDEST PUSH1 0x40 MLOAD SWAP1 PUSH2 0x59D PUSH2 0x596 DUP3 MLOAD SWAP4 DUP6 DUP2 DUP2 DUP7 ADD SWAP7 PUSH2 0x586 DUP2 DUP4 DUP11 PUSH2 0x3AB6 JUMP JUMPDEST DUP2 ADD PUSH1 0x9 DUP2 MSTORE SUB ADD SWAP1 KECCAK256 SLOAD PUSH2 0x3B9F JUMP JUMPDEST ISZERO ISZERO PUSH2 0x42E2 JUMP JUMPDEST PUSH1 0x0 SLOAD PUSH1 0x1 PUSH1 0x1 PUSH1 0xA0 SHL SUB AND CALLER EQ DUP1 ISZERO PUSH2 0x5FD JUMPI JUMPDEST PUSH2 0x5BB SWAP1 PUSH2 0x432E JUMP JUMPDEST PUSH1 0x40 MLOAD SWAP4 DUP5 SWAP3 DUP4 SWAP3 MLOAD SWAP3 DUP4 SWAP2 PUSH2 0x3AB6 JUMP JUMPDEST DUP2 ADD PUSH1 0x9 DUP2 MSTORE SUB ADD SWAP1 KECCAK256 PUSH1 0x40 MLOAD SWAP4 DUP5 DUP1 SWAP3 PUSH2 0x3D04 JUMP JUMPDEST SUB DUP4 PUSH2 0x3A3F JUMP JUMPDEST PUSH2 0x519 PUSH1 0x40 MLOAD SWAP3 DUP3 DUP5 SWAP4 DUP5 MSTORE DUP4 ADD SWAP1 PUSH2 0x3D9A JUMP JUMPDEST POP CALLER PUSH1 0x0 MSTORE PUSH1 0xA DUP4 MSTORE PUSH2 0x5BB PUSH1 0xFF PUSH2 0x619 PUSH1 0x40 PUSH1 0x0 KECCAK256 DUP5 PUSH2 0x3AD9 JUMP JUMPDEST SLOAD AND SWAP1 POP PUSH2 0x5B2 JUMP JUMPDEST CALLVALUE PUSH2 0x1E3 JUMPI PUSH1 0x60 CALLDATASIZE PUSH1 0x3 NOT ADD SLT PUSH2 0x1E3 JUMPI PUSH2 0x63B PUSH2 0x3B15 JUMP JUMPDEST PUSH1 0x44 CALLDATALOAD PUSH1 0x1 PUSH1 0x1 PUSH1 0x40 SHL SUB DUP2 GT PUSH2 0x1E3 JUMPI PUSH2 0x519 SWAP2 PUSH2 0x661 PUSH2 0x66B SWAP3 CALLDATASIZE SWAP1 PUSH1 0x4 ADD PUSH2 0x3A60 JUMP JUMPDEST SWAP1 PUSH1 0x24 CALLDATALOAD SWAP1 PUSH2 0x46D9 JUMP JUMPDEST PUSH1 0x40 MLOAD SWAP2 DUP3 SWAP2 PUSH1 0x20 DUP4 MSTORE PUSH1 0x20 DUP4 ADD SWAP1 PUSH2 0x3D9A JUMP JUMPDEST CALLVALUE PUSH2 0x1E3 JUMPI PUSH2 0x1A0 CALLDATASIZE PUSH1 0x3 NOT ADD SLT PUSH2 0x1E3 JUMPI PUSH1 0x4 CALLDATALOAD PUSH1 0x1 PUSH1 0x1 PUSH1 0x40 SHL SUB DUP2 GT PUSH2 0x1E3 JUMPI PUSH2 0x6B0 SWAP1 CALLDATASIZE SWAP1 PUSH1 0x4 ADD PUSH2 0x3A60 JUMP JUMPDEST PUSH1 0x24 CALLDATALOAD PUSH1 0x1 PUSH1 0x1 PUSH1 0x40 SHL SUB DUP2 GT PUSH2 0x1E3 JUMPI PUSH2 0x6CF SWAP1 CALLDATASIZE SWAP1 PUSH1 0x4 ADD PUSH2 0x3A60 JUMP JUMPDEST PUSH1 0x44 CALLDATALOAD PUSH1 0x1 PUSH1 0x1 PUSH1 0x40 SHL SUB DUP2 GT PUSH2 0x1E3 JUMPI PUSH2 0x6EE SWAP1 CALLDATASIZE SWAP1 PUSH1 0x4 ADD PUSH2 0x3A60 JUMP JUMPDEST PUSH1 0x64 CALLDATALOAD PUSH1 0x1 PUSH1 0x1 PUSH1 0x40 SHL SUB DUP2 GT PUSH2 0x1E3 JUMPI PUSH2 0x70D SWAP1 CALLDATASIZE SWAP1 PUSH1 0x4 ADD PUSH2 0x3A60 JUMP JUMPDEST SWAP2 PUSH1 0x84 CALLDATALOAD PUSH1 0x1 PUSH1 0x1 PUSH1 0x40 SHL SUB DUP2 GT PUSH2 0x1E3 JUMPI PUSH2 0x72D SWAP1 CALLDATASIZE SWAP1 PUSH1 0x4 ADD PUSH2 0x3A60 JUMP JUMPDEST SWAP3 PUSH1 0xA4 CALLDATALOAD PUSH1 0x1 PUSH1 0x1 PUSH1 0x40 SHL SUB DUP2 GT PUSH2 0x1E3 JUMPI PUSH2 0x74D SWAP1 CALLDATASIZE SWAP1 PUSH1 0x4 ADD PUSH2 0x3A60 JUMP JUMPDEST SWAP4 PUSH1 0xC4 CALLDATALOAD PUSH1 0x1 PUSH1 0x1 PUSH1 0x40 SHL SUB DUP2 GT PUSH2 0x1E3 JUMPI PUSH2 0x76D SWAP1 CALLDATASIZE SWAP1 PUSH1 0x4 ADD PUSH2 0x3A60 JUMP JUMPDEST SWAP5 PUSH1 0xE4 CALLDATALOAD PUSH1 0x1 PUSH1 0x1 PUSH1 0x40 SHL SUB DUP2 GT PUSH2 0x1E3 JUMPI PUSH2 0x78D SWAP1 CALLDATASIZE SWAP1 PUSH1 0x4 ADD PUSH2 0x3A60 JUMP JUMPDEST SWAP6 PUSH2 0x104 CALLDATALOAD PUSH1 0x1 PUSH1 0x1 PUSH1 0x40 SHL SUB DUP2 GT PUSH2 0x1E3 JUMPI PUSH2 0x7AE SWAP1 CALLDATASIZE SWAP1 PUSH1 0x4 ADD PUSH2 0x3A60 JUMP JUMPDEST PUSH2 0x124 CALLDATALOAD PUSH1 0x1 PUSH1 0x1 PUSH1 0x40 SHL SUB DUP2 GT PUSH2 0x1E3 JUMPI PUSH2 0x7CE SWAP1 CALLDATASIZE SWAP1 PUSH1 0x4 ADD PUSH2 0x3A60 JUMP JUMPDEST SWAP2 PUSH2 0x144 CALLDATALOAD PUSH1 0x1 PUSH1 0x1 PUSH1 0x40 SHL SUB DUP2 GT PUSH2 0x1E3 JUMPI PUSH2 0x7EF SWAP1 CALLDATASIZE SWAP1 PUSH1 0x4 ADD PUSH2 0x3A60 JUMP JUMPDEST SWAP4 PUSH1 0x1 PUSH1 0x1 PUSH1 0x40 SHL SUB PUSH2 0x164 CALLDATALOAD GT PUSH2 0x1E3 JUMPI PUSH2 0x811 CALLDATASIZE PUSH2 0x164 CALLDATALOAD PUSH1 0x4 ADD PUSH2 0x3A60 JUMP JUMPDEST SWAP6 PUSH1 0x1 PUSH1 0x1 PUSH1 0x40 SHL SUB PUSH2 0x184 CALLDATALOAD GT PUSH2 0x1E3 JUMPI PUSH2 0x833 CALLDATASIZE PUSH2 0x184 CALLDATALOAD PUSH1 0x4 ADD PUSH2 0x3A60 JUMP JUMPDEST SWAP8 PUSH2 0x83D DUP14 PUSH2 0x3E8D JUMP JUMPDEST POP CALLER PUSH1 0x0 MSTORE PUSH1 0xE PUSH1 0x20 MSTORE PUSH1 0x40 PUSH1 0x0 KECCAK256 SLOAD SWAP11 DUP12 PUSH1 0x0 NOT DUP2 ADD GT PUSH2 0x1681 JUMPI PUSH1 0x40 MLOAD SWAP11 PUSH2 0x866 DUP13 PUSH2 0x3A08 JUMP JUMPDEST DUP12 MSTORE PUSH1 0x20 DUP12 ADD MSTORE PUSH1 0x40 DUP11 ADD MSTORE PUSH1 0x60 DUP10 ADD MSTORE PUSH1 0x80 DUP9 ADD MSTORE PUSH1 0xA0 DUP8 ADD MSTORE DUP8 PUSH1 0xC0 DUP8 ADD MSTORE PUSH1 0xE0 DUP7 ADD MSTORE PUSH2 0x100 DUP6 ADD MSTORE PUSH2 0x120 DUP5 ADD MSTORE PUSH2 0x140 DUP4 ADD MSTORE PUSH2 0x160 DUP3 ADD MSTORE PUSH1 0x0 NOT DUP3 ADD PUSH1 0x0 MSTORE PUSH1 0xF PUSH1 0x20 MSTORE PUSH1 0x40 PUSH1 0x0 KECCAK256 DUP2 MLOAD DUP1 MLOAD SWAP1 PUSH1 0x1 PUSH1 0x1 PUSH1 0x40 SHL SUB DUP3 GT PUSH2 0xECA JUMPI DUP2 SWAP1 PUSH2 0x8D5 DUP5 SLOAD PUSH2 0x3B9F JUMP JUMPDEST PUSH1 0x1F DUP2 GT PUSH2 0x164F JUMPI JUMPDEST POP PUSH1 0x20 SWAP1 PUSH1 0x1F DUP4 GT PUSH1 0x1 EQ PUSH2 0x15E3 JUMPI PUSH1 0x0 SWAP3 PUSH2 0x15D8 JUMPI JUMPDEST POP POP DUP2 PUSH1 0x1 SHL SWAP2 PUSH1 0x0 NOT SWAP1 PUSH1 0x3 SHL SHR NOT AND OR DUP2 SSTORE JUMPDEST PUSH1 0x20 DUP3 ADD MLOAD DUP1 MLOAD SWAP1 PUSH1 0x1 PUSH1 0x1 PUSH1 0x40 SHL SUB DUP3 GT PUSH2 0xECA JUMPI DUP2 SWAP1 PUSH2 0x92F PUSH1 0x1 DUP6 ADD SLOAD PUSH2 0x3B9F JUMP JUMPDEST PUSH1 0x1F DUP2 GT PUSH2 0x15A3 JUMPI JUMPDEST POP PUSH1 0x20 SWAP1 PUSH1 0x1F DUP4 GT PUSH1 0x1 EQ PUSH2 0x1531 JUMPI PUSH1 0x0 SWAP3 PUSH2 0x1526 JUMPI JUMPDEST POP POP DUP2 PUSH1 0x1 SHL SWAP2 PUSH1 0x0 NOT SWAP1 PUSH1 0x3 SHL SHR NOT AND OR PUSH1 0x1 DUP3 ADD SSTORE JUMPDEST PUSH1 0x40 DUP3 ADD MLOAD DUP1 MLOAD SWAP1 PUSH1 0x1 PUSH1 0x1 PUSH1 0x40 SHL SUB DUP3 GT PUSH2 0xECA JUMPI DUP2 SWAP1 PUSH2 0x98C PUSH1 0x2 DUP6 ADD SLOAD PUSH2 0x3B9F JUMP JUMPDEST PUSH1 0x1F DUP2 GT PUSH2 0x14F1 JUMPI JUMPDEST POP PUSH1 0x20 SWAP1 PUSH1 0x1F DUP4 GT PUSH1 0x1 EQ PUSH2 0x147F JUMPI PUSH1 0x0 SWAP3 PUSH2 0x1474 JUMPI JUMPDEST POP POP DUP2 PUSH1 0x1 SHL SWAP2 PUSH1 0x0 NOT SWAP1 PUSH1 0x3 SHL SHR NOT AND OR PUSH1 0x2 DUP3 ADD SSTORE JUMPDEST PUSH1 0x60 DUP3 ADD MLOAD DUP1 MLOAD SWAP1 PUSH1 0x1 PUSH1 0x1 PUSH1 0x40 SHL SUB DUP3 GT PUSH2 0xECA JUMPI DUP2 SWAP1 PUSH2 0x9E9 PUSH1 0x3 DUP6 ADD SLOAD PUSH2 0x3B9F JUMP JUMPDEST PUSH1 0x1F DUP2 GT PUSH2 0x143F JUMPI JUMPDEST POP PUSH1 0x20 SWAP1 PUSH1 0x1F DUP4 GT PUSH1 0x1 EQ PUSH2 0x13CD JUMPI PUSH1 0x0 SWAP3 PUSH2 0x13C2 JUMPI JUMPDEST POP POP DUP2 PUSH1 0x1 SHL SWAP2 PUSH1 0x0 NOT SWAP1 PUSH1 0x3 SHL SHR NOT AND OR PUSH1 0x3 DUP3 ADD SSTORE JUMPDEST PUSH1 0x80 DUP3 ADD MLOAD DUP1 MLOAD SWAP1 PUSH1 0x1 PUSH1 0x1 PUSH1 0x40 SHL SUB DUP3 GT PUSH2 0xECA JUMPI DUP2 SWAP1 PUSH2 0xA46 PUSH1 0x4 DUP6 ADD SLOAD PUSH2 0x3B9F JUMP JUMPDEST PUSH1 0x1F DUP2 GT PUSH2 0x138D JUMPI JUMPDEST POP PUSH1 0x20 SWAP1 PUSH1 0x1F DUP4 GT PUSH1 0x1 EQ PUSH2 0x131B JUMPI PUSH1 0x0 SWAP3 PUSH2 0x1310 JUMPI JUMPDEST POP POP DUP2 PUSH1 0x1 SHL SWAP2 PUSH1 0x0 NOT SWAP1 PUSH1 0x3 SHL SHR NOT AND OR PUSH1 0x4 DUP3 ADD SSTORE JUMPDEST PUSH1 0xA0 DUP3 ADD MLOAD DUP1 MLOAD SWAP1 PUSH1 0x1 PUSH1 0x1 PUSH1 0x40 SHL SUB DUP3 GT PUSH2 0xECA JUMPI DUP2 SWAP1 PUSH2 0xAA3 PUSH1 0x5 DUP6 ADD SLOAD PUSH2 0x3B9F JUMP JUMPDEST PUSH1 0x1F DUP2 GT PUSH2 0x12DB JUMPI JUMPDEST POP PUSH1 0x20 SWAP1 PUSH1 0x1F DUP4 GT PUSH1 0x1 EQ PUSH2 0x1269 JUMPI PUSH1 0x0 SWAP3 PUSH2 0x125E JUMPI JUMPDEST POP POP DUP2 PUSH1 0x1 SHL SWAP2 PUSH1 0x0 NOT SWAP1 PUSH1 0x3 SHL SHR NOT AND OR PUSH1 0x5 DUP3 ADD SSTORE JUMPDEST PUSH1 0xC0 DUP3 ADD MLOAD DUP1 MLOAD SWAP1 PUSH1 0x1 PUSH1 0x1 PUSH1 0x40 SHL SUB DUP3 GT PUSH2 0xECA JUMPI DUP2 SWAP1 PUSH2 0xB00 PUSH1 0x6 DUP6 ADD SLOAD PUSH2 0x3B9F JUMP JUMPDEST PUSH1 0x1F DUP2 GT PUSH2 0x1229 JUMPI JUMPDEST POP PUSH1 0x20 SWAP1 PUSH1 0x1F DUP4 GT PUSH1 0x1 EQ PUSH2 0x11B7 JUMPI PUSH1 0x0 SWAP3 PUSH2 0x11AC JUMPI JUMPDEST POP POP DUP2 PUSH1 0x1 SHL SWAP2 PUSH1 0x0 NOT SWAP1 PUSH1 0x3 SHL SHR NOT AND OR PUSH1 0x6 DUP3 ADD SSTORE JUMPDEST PUSH1 0xE0 DUP3 ADD MLOAD DUP1 MLOAD SWAP1 PUSH1 0x1 PUSH1 0x1 PUSH1 0x40 SHL SUB DUP3 GT PUSH2 0xECA JUMPI DUP2 SWAP1 PUSH2 0xB5D PUSH1 0x7 DUP6 ADD SLOAD PUSH2 0x3B9F JUMP JUMPDEST PUSH1 0x1F DUP2 GT PUSH2 0x1177 JUMPI JUMPDEST POP PUSH1 0x20 SWAP1 PUSH1 0x1F DUP4 GT PUSH1 0x1 EQ PUSH2 0x1105 JUMPI PUSH1 0x0 SWAP3 PUSH2 0x10FA JUMPI JUMPDEST POP POP DUP2 PUSH1 0x1 SHL SWAP2 PUSH1 0x0 NOT SWAP1 PUSH1 0x3 SHL SHR NOT AND OR PUSH1 0x7 DUP3 ADD SSTORE JUMPDEST PUSH2 0x100 DUP3 ADD MLOAD DUP1 MLOAD SWAP1 PUSH1 0x1 PUSH1 0x1 PUSH1 0x40 SHL SUB DUP3 GT PUSH2 0xECA JUMPI DUP2 SWAP1 PUSH2 0xBBB PUSH1 0x8 DUP6 ADD SLOAD PUSH2 0x3B9F JUMP JUMPDEST PUSH1 0x1F DUP2 GT PUSH2 0x10C5 JUMPI JUMPDEST POP PUSH1 0x20 SWAP1 PUSH1 0x1F DUP4 GT PUSH1 0x1 EQ PUSH2 0x1053 JUMPI PUSH1 0x0 SWAP3 PUSH2 0x1048 JUMPI JUMPDEST POP POP DUP2 PUSH1 0x1 SHL SWAP2 PUSH1 0x0 NOT SWAP1 PUSH1 0x3 SHL SHR NOT AND OR PUSH1 0x8 DUP3 ADD SSTORE JUMPDEST PUSH2 0x120 DUP3 ADD MLOAD DUP1 MLOAD SWAP1 PUSH1 0x1 PUSH1 0x1 PUSH1 0x40 SHL SUB DUP3 GT PUSH2 0xECA JUMPI DUP2 SWAP1 PUSH2 0xC19 PUSH1 0x9 DUP6 ADD SLOAD PUSH2 0x3B9F JUMP JUMPDEST PUSH1 0x1F DUP2 GT PUSH2 0x1013 JUMPI JUMPDEST POP PUSH1 0x20 SWAP1 PUSH1 0x1F DUP4 GT PUSH1 0x1 EQ PUSH2 0xFA1 JUMPI PUSH1 0x0 SWAP3 PUSH2 0xF96 JUMPI JUMPDEST POP POP DUP2 PUSH1 0x1 SHL SWAP2 PUSH1 0x0 NOT SWAP1 PUSH1 0x3 SHL SHR NOT AND OR PUSH1 0x9 DUP3 ADD SSTORE JUMPDEST PUSH2 0x140 DUP3 ADD MLOAD DUP1 MLOAD SWAP1 PUSH1 0x1 PUSH1 0x1 PUSH1 0x40 SHL SUB DUP3 GT PUSH2 0xECA JUMPI PUSH2 0xC75 PUSH1 0xA DUP5 ADD SLOAD PUSH2 0x3B9F JUMP JUMPDEST PUSH1 0x1F DUP2 GT PUSH2 0xF61 JUMPI JUMPDEST POP PUSH1 0x20 SWAP1 PUSH1 0x1F DUP4 GT PUSH1 0x1 EQ PUSH2 0xEEB JUMPI SWAP2 DUP1 PUSH2 0x160 SWAP5 SWAP3 PUSH1 0xB SWAP5 PUSH1 0x0 SWAP3 PUSH2 0xEE0 JUMPI JUMPDEST POP POP DUP2 PUSH1 0x1 SHL SWAP2 PUSH1 0x0 NOT SWAP1 PUSH1 0x3 SHL SHR NOT AND OR PUSH1 0xA DUP3 ADD SSTORE JUMPDEST ADD SWAP2 ADD MLOAD DUP1 MLOAD SWAP1 PUSH1 0x1 PUSH1 0x1 PUSH1 0x40 SHL SUB DUP3 GT PUSH2 0xECA JUMPI PUSH2 0xCD6 DUP4 SLOAD PUSH2 0x3B9F JUMP JUMPDEST PUSH1 0x1F DUP2 GT PUSH2 0xE8D JUMPI JUMPDEST POP PUSH1 0x20 SWAP1 PUSH1 0x1F DUP4 GT PUSH1 0x1 EQ PUSH2 0xDFB JUMPI SWAP3 DUP3 PUSH2 0xDDC SWAP4 PUSH2 0xDEB SWAP7 SWAP4 PUSH32 0x57421511EB3B79EA2B4CB33755930A1F1D7336CA754892A8AB24443F9EC65C9C SWAP9 SWAP7 PUSH1 0x0 SWAP3 PUSH2 0xDF0 JUMPI JUMPDEST POP POP DUP2 PUSH1 0x1 SHL SWAP2 PUSH1 0x0 NOT SWAP1 PUSH1 0x3 SHL SHR NOT AND OR SWAP1 SSTORE JUMPDEST PUSH2 0xD4F PUSH2 0xD44 PUSH2 0x4514 JUMP JUMPDEST CALLER PUSH1 0x0 NOT DUP5 ADD PUSH2 0x438A JUMP JUMPDEST POP PUSH2 0xD5B PUSH2 0xD44 PUSH2 0x4534 JUMP JUMPDEST POP PUSH2 0xD67 PUSH2 0xD44 PUSH2 0x455B JUMP JUMPDEST POP PUSH2 0xD73 PUSH2 0xD44 PUSH2 0x457D JUMP JUMPDEST POP PUSH2 0xD7F PUSH2 0xD44 PUSH2 0x459D JUMP JUMPDEST POP PUSH2 0xD8B PUSH2 0xD44 PUSH2 0x45C2 JUMP JUMPDEST POP PUSH2 0xD97 PUSH2 0xD44 PUSH2 0x45EB JUMP JUMPDEST POP PUSH2 0xDA3 PUSH2 0xD44 PUSH2 0x4614 JUMP JUMPDEST POP PUSH2 0xDAF PUSH2 0xD44 PUSH2 0x463C JUMP JUMPDEST POP PUSH2 0xDBB PUSH2 0xD44 PUSH2 0x4661 JUMP JUMPDEST POP PUSH2 0xDC7 PUSH2 0xD44 PUSH2 0x4687 JUMP JUMPDEST POP PUSH2 0xDD0 PUSH2 0x46AD JUMP JUMPDEST SWAP1 CALLER SWAP1 PUSH1 0x0 NOT ADD PUSH2 0x438A JUMP JUMPDEST POP PUSH1 0x40 MLOAD SWAP2 DUP3 SWAP2 CALLER SWAP6 DUP4 PUSH2 0x42BD JUMP JUMPDEST SUB SWAP1 LOG2 STOP JUMPDEST ADD MLOAD SWAP1 POP DUP10 DUP1 PUSH2 0xD24 JUMP JUMPDEST SWAP1 PUSH1 0x1F NOT DUP4 AND SWAP2 DUP5 PUSH1 0x0 MSTORE PUSH1 0x20 PUSH1 0x0 KECCAK256 SWAP3 PUSH1 0x0 JUMPDEST DUP2 DUP2 LT PUSH2 0xE75 JUMPI POP SWAP4 PUSH2 0xDEB SWAP7 SWAP4 PUSH32 0x57421511EB3B79EA2B4CB33755930A1F1D7336CA754892A8AB24443F9EC65C9C SWAP9 SWAP7 SWAP4 PUSH1 0x1 SWAP4 DUP4 PUSH2 0xDDC SWAP9 LT PUSH2 0xE5C JUMPI JUMPDEST POP POP POP DUP2 SHL ADD SWAP1 SSTORE PUSH2 0xD39 JUMP JUMPDEST ADD MLOAD PUSH1 0x0 NOT PUSH1 0xF8 DUP5 PUSH1 0x3 SHL AND SHR NOT AND SWAP1 SSTORE DUP10 DUP1 DUP1 PUSH2 0xE4F JUMP JUMPDEST SWAP3 SWAP4 PUSH1 0x20 PUSH1 0x1 DUP2 SWAP3 DUP8 DUP7 ADD MLOAD DUP2 SSTORE ADD SWAP6 ADD SWAP4 ADD PUSH2 0xE0F JUMP JUMPDEST PUSH2 0xEBA SWAP1 DUP5 PUSH1 0x0 MSTORE PUSH1 0x20 PUSH1 0x0 KECCAK256 PUSH1 0x1F DUP6 ADD PUSH1 0x5 SHR DUP2 ADD SWAP2 PUSH1 0x20 DUP7 LT PUSH2 0xEC0 JUMPI JUMPDEST PUSH1 0x1F ADD PUSH1 0x5 SHR ADD SWAP1 PUSH2 0x420C JUMP JUMPDEST DUP7 PUSH2 0xCDF JUMP JUMPDEST SWAP1 SWAP2 POP DUP2 SWAP1 PUSH2 0xEAD JUMP JUMPDEST PUSH4 0x4E487B71 PUSH1 0xE0 SHL PUSH1 0x0 MSTORE PUSH1 0x41 PUSH1 0x4 MSTORE PUSH1 0x24 PUSH1 0x0 REVERT JUMPDEST ADD MLOAD SWAP1 POP DUP10 DUP1 PUSH2 0xC9F JUMP JUMPDEST SWAP1 PUSH1 0xA DUP5 ADD PUSH1 0x0 MSTORE PUSH1 0x20 PUSH1 0x0 KECCAK256 SWAP2 PUSH1 0x0 JUMPDEST PUSH1 0x1F NOT DUP6 AND DUP2 LT PUSH2 0xF49 JUMPI POP SWAP3 PUSH2 0x160 SWAP5 SWAP3 PUSH1 0x1 SWAP3 PUSH1 0xB SWAP6 DUP4 PUSH1 0x1F NOT DUP2 AND LT PUSH2 0xF30 JUMPI JUMPDEST POP POP POP DUP2 SHL ADD PUSH1 0xA DUP3 ADD SSTORE PUSH2 0xCB7 JUMP JUMPDEST ADD MLOAD PUSH1 0x0 NOT PUSH1 0xF8 DUP5 PUSH1 0x3 SHL AND SHR NOT AND SWAP1 SSTORE DUP10 DUP1 DUP1 PUSH2 0xF20 JUMP JUMPDEST SWAP2 SWAP3 PUSH1 0x20 PUSH1 0x1 DUP2 SWAP3 DUP7 DUP6 ADD MLOAD DUP2 SSTORE ADD SWAP5 ADD SWAP3 ADD PUSH2 0xEFC JUMP JUMPDEST PUSH2 0xF90 SWAP1 PUSH1 0xA DUP6 ADD PUSH1 0x0 MSTORE PUSH1 0x20 PUSH1 0x0 KECCAK256 PUSH1 0x1F DUP6 ADD PUSH1 0x5 SHR DUP2 ADD SWAP2 PUSH1 0x20 DUP7 LT PUSH2 0xEC0 JUMPI PUSH1 0x1F ADD PUSH1 0x5 SHR ADD SWAP1 PUSH2 0x420C JUMP JUMPDEST DUP8 PUSH2 0xC7E JUMP JUMPDEST ADD MLOAD SWAP1 POP DUP8 DUP1 PUSH2 0xC39 JUMP JUMPDEST SWAP3 POP PUSH1 0x9 DUP5 ADD PUSH1 0x0 MSTORE PUSH1 0x20 PUSH1 0x0 KECCAK256 SWAP1 PUSH1 0x0 SWAP4 JUMPDEST PUSH1 0x1F NOT DUP5 AND DUP6 LT PUSH2 0xFF8 JUMPI PUSH1 0x1 SWAP5 POP DUP4 PUSH1 0x1F NOT DUP2 AND LT PUSH2 0xFDF JUMPI JUMPDEST POP POP POP DUP2 SHL ADD PUSH1 0x9 DUP3 ADD SSTORE PUSH2 0xC51 JUMP JUMPDEST ADD MLOAD PUSH1 0x0 NOT PUSH1 0xF8 DUP5 PUSH1 0x3 SHL AND SHR NOT AND SWAP1 SSTORE DUP8 DUP1 DUP1 PUSH2 0xFCF JUMP JUMPDEST DUP2 DUP2 ADD MLOAD DUP4 SSTORE PUSH1 0x20 SWAP5 DUP6 ADD SWAP5 PUSH1 0x1 SWAP1 SWAP4 ADD SWAP3 SWAP1 SWAP2 ADD SWAP1 PUSH2 0xFB4 JUMP JUMPDEST PUSH2 0x1042 SWAP1 PUSH1 0x9 DUP7 ADD PUSH1 0x0 MSTORE PUSH1 0x20 PUSH1 0x0 KECCAK256 PUSH1 0x1F DUP6 ADD PUSH1 0x5 SHR DUP2 ADD SWAP2 PUSH1 0x20 DUP7 LT PUSH2 0xEC0 JUMPI PUSH1 0x1F ADD PUSH1 0x5 SHR ADD SWAP1 PUSH2 0x420C JUMP JUMPDEST DUP9 PUSH2 0xC22 JUMP JUMPDEST ADD MLOAD SWAP1 POP DUP8 DUP1 PUSH2 0xBDB JUMP JUMPDEST SWAP3 POP PUSH1 0x8 DUP5 ADD PUSH1 0x0 MSTORE PUSH1 0x20 PUSH1 0x0 KECCAK256 SWAP1 PUSH1 0x0 SWAP4 JUMPDEST PUSH1 0x1F NOT DUP5 AND DUP6 LT PUSH2 0x10AA JUMPI PUSH1 0x1 SWAP5 POP DUP4 PUSH1 0x1F NOT DUP2 AND LT PUSH2 0x1091 JUMPI JUMPDEST POP POP POP DUP2 SHL ADD PUSH1 0x8 DUP3 ADD SSTORE PUSH2 0xBF3 JUMP JUMPDEST ADD MLOAD PUSH1 0x0 NOT PUSH1 0xF8 DUP5 PUSH1 0x3 SHL AND SHR NOT AND SWAP1 SSTORE DUP8 DUP1 DUP1 PUSH2 0x1081 JUMP JUMPDEST DUP2 DUP2 ADD MLOAD DUP4 SSTORE PUSH1 0x20 SWAP5 DUP6 ADD SWAP5 PUSH1 0x1 SWAP1 SWAP4 ADD SWAP3 SWAP1 SWAP2 ADD SWAP1 PUSH2 0x1066 JUMP JUMPDEST PUSH2 0x10F4 SWAP1 PUSH1 0x8 DUP7 ADD PUSH1 0x0 MSTORE PUSH1 0x20 PUSH1 0x0 KECCAK256 PUSH1 0x1F DUP6 ADD PUSH1 0x5 SHR DUP2 ADD SWAP2 PUSH1 0x20 DUP7 LT PUSH2 0xEC0 JUMPI PUSH1 0x1F ADD PUSH1 0x5 SHR ADD SWAP1 PUSH2 0x420C JUMP JUMPDEST DUP9 PUSH2 0xBC4 JUMP JUMPDEST ADD MLOAD SWAP1 POP DUP8 DUP1 PUSH2 0xB7D JUMP JUMPDEST SWAP3 POP PUSH1 0x7 DUP5 ADD PUSH1 0x0 MSTORE PUSH1 0x20 PUSH1 0x0 KECCAK256 SWAP1 PUSH1 0x0 SWAP4 JUMPDEST PUSH1 0x1F NOT DUP5 AND DUP6 LT PUSH2 0x115C JUMPI PUSH1 0x1 SWAP5 POP DUP4 PUSH1 0x1F NOT DUP2 AND LT PUSH2 0x1143 JUMPI JUMPDEST POP POP POP DUP2 SHL ADD PUSH1 0x7 DUP3 ADD SSTORE PUSH2 0xB95 JUMP JUMPDEST ADD MLOAD PUSH1 0x0 NOT PUSH1 0xF8 DUP5 PUSH1 0x3 SHL AND SHR NOT AND SWAP1 SSTORE DUP8 DUP1 DUP1 PUSH2 0x1133 JUMP JUMPDEST DUP2 DUP2 ADD MLOAD DUP4 SSTORE PUSH1 0x20 SWAP5 DUP6 ADD SWAP5 PUSH1 0x1 SWAP1 SWAP4 ADD SWAP3 SWAP1 SWAP2 ADD SWAP1 PUSH2 0x1118 JUMP JUMPDEST PUSH2 0x11A6 SWAP1 PUSH1 0x7 DUP7 ADD PUSH1 0x0 MSTORE PUSH1 0x20 PUSH1 0x0 KECCAK256 PUSH1 0x1F DUP6 ADD PUSH1 0x5 SHR DUP2 ADD SWAP2 PUSH1 0x20 DUP7 LT PUSH2 0xEC0 JUMPI PUSH1 0x1F ADD PUSH1 0x5 SHR ADD SWAP1 PUSH2 0x420C JUMP JUMPDEST DUP9 PUSH2 0xB66 JUMP JUMPDEST ADD MLOAD SWAP1 POP DUP8 DUP1 PUSH2 0xB20 JUMP JUMPDEST SWAP3 POP PUSH1 0x6 DUP5 ADD PUSH1 0x0 MSTORE PUSH1 0x20 PUSH1 0x0 KECCAK256 SWAP1 PUSH1 0x0 SWAP4 JUMPDEST PUSH1 0x1F NOT DUP5 AND DUP6 LT PUSH2 0x120E JUMPI PUSH1 0x1 SWAP5 POP DUP4 PUSH1 0x1F NOT DUP2 AND LT PUSH2 0x11F5 JUMPI JUMPDEST POP POP POP DUP2 SHL ADD PUSH1 0x6 DUP3 ADD SSTORE PUSH2 0xB38 JUMP JUMPDEST ADD MLOAD PUSH1 0x0 NOT PUSH1 0xF8 DUP5 PUSH1 0x3 SHL AND SHR NOT AND SWAP1 SSTORE DUP8 DUP1 DUP1 PUSH2 0x11E5 JUMP JUMPDEST DUP2 DUP2 ADD MLOAD DUP4 SSTORE PUSH1 0x20 SWAP5 DUP6 ADD SWAP5 PUSH1 0x1 SWAP1 SWAP4 ADD SWAP3 SWAP1 SWAP2 ADD SWAP1 PUSH2 0x11CA JUMP JUMPDEST PUSH2 0x1258 SWAP1 PUSH1 0x6 DUP7 ADD PUSH1 0x0 MSTORE PUSH1 0x20 PUSH1 0x0 KECCAK256 PUSH1 0x1F DUP6 ADD PUSH1 0x5 SHR DUP2 ADD SWAP2 PUSH1 0x20 DUP7 LT PUSH2 0xEC0 JUMPI PUSH1 0x1F ADD PUSH1 0x5 SHR ADD SWAP1 PUSH2 0x420C JUMP JUMPDEST DUP9 PUSH2 0xB09 JUMP JUMPDEST ADD MLOAD SWAP1 POP DUP8 DUP1 PUSH2 0xAC3 JUMP JUMPDEST SWAP3 POP PUSH1 0x5 DUP5 ADD PUSH1 0x0 MSTORE PUSH1 0x20 PUSH1 0x0 KECCAK256 SWAP1 PUSH1 0x0 SWAP4 JUMPDEST PUSH1 0x1F NOT DUP5 AND DUP6 LT PUSH2 0x12C0 JUMPI PUSH1 0x1 SWAP5 POP DUP4 PUSH1 0x1F NOT DUP2 AND LT PUSH2 0x12A7 JUMPI JUMPDEST POP POP POP DUP2 SHL ADD PUSH1 0x5 DUP3 ADD SSTORE PUSH2 0xADB JUMP JUMPDEST ADD MLOAD PUSH1 0x0 NOT PUSH1 0xF8 DUP5 PUSH1 0x3 SHL AND SHR NOT AND SWAP1 SSTORE DUP8 DUP1 DUP1 PUSH2 0x1297 JUMP JUMPDEST DUP2 DUP2 ADD MLOAD DUP4 SSTORE PUSH1 0x20 SWAP5 DUP6 ADD SWAP5 PUSH1 0x1 SWAP1 SWAP4 ADD SWAP3 SWAP1 SWAP2 ADD SWAP1 PUSH2 0x127C JUMP JUMPDEST PUSH2 0x130A SWAP1 PUSH1 0x5 DUP7 ADD PUSH1 0x0 MSTORE PUSH1 0x20 PUSH1 0x0 KECCAK256 PUSH1 0x1F DUP6 ADD PUSH1 0x5 SHR DUP2 ADD SWAP2 PUSH1 0x20 DUP7 LT PUSH2 0xEC0 JUMPI PUSH1 0x1F ADD PUSH1 0x5 SHR ADD SWAP1 PUSH2 0x420C JUMP JUMPDEST DUP9 PUSH2 0xAAC JUMP JUMPDEST ADD MLOAD SWAP1 POP DUP8 DUP1 PUSH2 0xA66 JUMP JUMPDEST SWAP3 POP PUSH1 0x4 DUP5 ADD PUSH1 0x0 MSTORE PUSH1 0x20 PUSH1 0x0 KECCAK256 SWAP1 PUSH1 0x0 SWAP4 JUMPDEST PUSH1 0x1F NOT DUP5 AND DUP6 LT PUSH2 0x1372 JUMPI PUSH1 0x1 SWAP5 POP DUP4 PUSH1 0x1F NOT DUP2 AND LT PUSH2 0x1359 JUMPI JUMPDEST POP POP POP DUP2 SHL ADD PUSH1 0x4 DUP3 ADD SSTORE PUSH2 0xA7E JUMP JUMPDEST ADD MLOAD PUSH1 0x0 NOT PUSH1 0xF8 DUP5 PUSH1 0x3 SHL AND SHR NOT AND SWAP1 SSTORE DUP8 DUP1 DUP1 PUSH2 0x1349 JUMP JUMPDEST DUP2 DUP2 ADD MLOAD DUP4 SSTORE PUSH1 0x20 SWAP5 DUP6 ADD SWAP5 PUSH1 0x1 SWAP1 SWAP4 ADD SWAP3 SWAP1 SWAP2 ADD SWAP1 PUSH2 0x132E JUMP JUMPDEST PUSH2 0x13BC SWAP1 PUSH1 0x4 DUP7 ADD PUSH1 0x0 MSTORE PUSH1 0x20 PUSH1 0x0 KECCAK256 PUSH1 0x1F DUP6 ADD PUSH1 0x5 SHR DUP2 ADD SWAP2 PUSH1 0x20 DUP7 LT PUSH2 0xEC0 JUMPI PUSH1 0x1F ADD PUSH1 0x5 SHR ADD SWAP1 PUSH2 0x420C JUMP JUMPDEST DUP9 PUSH2 0xA4F JUMP JUMPDEST ADD MLOAD SWAP1 POP DUP8 DUP1 PUSH2 0xA09 JUMP JUMPDEST SWAP3 POP PUSH1 0x3 DUP5 ADD PUSH1 0x0 MSTORE PUSH1 0x20 PUSH1 0x0 KECCAK256 SWAP1 PUSH1 0x0 SWAP4 JUMPDEST PUSH1 0x1F NOT DUP5 AND DUP6 LT PUSH2 0x1424 JUMPI PUSH1 0x1 SWAP5 POP DUP4 PUSH1 0x1F NOT DUP2 AND LT PUSH2 0x140B JUMPI JUMPDEST POP POP POP DUP2 SHL ADD PUSH1 0x3 DUP3 ADD SSTORE PUSH2 0xA21 JUMP JUMPDEST ADD MLOAD PUSH1 0x0 NOT PUSH1 0xF8 DUP5 PUSH1 0x3 SHL AND SHR NOT AND SWAP1 SSTORE DUP8 DUP1 DUP1 PUSH2 0x13FB JUMP JUMPDEST DUP2 DUP2 ADD MLOAD DUP4 SSTORE PUSH1 0x20 SWAP5 DUP6 ADD SWAP5 PUSH1 0x1 SWAP1 SWAP4 ADD SWAP3 SWAP1 SWAP2 ADD SWAP1 PUSH2 0x13E0 JUMP JUMPDEST PUSH2 0x146E SWAP1 PUSH1 0x3 DUP7 ADD PUSH1 0x0 MSTORE PUSH1 0x20 PUSH1 0x0 KECCAK256 PUSH1 0x1F DUP6 ADD PUSH1 0x5 SHR DUP2 ADD SWAP2 PUSH1 0x20 DUP7 LT PUSH2 0xEC0 JUMPI PUSH1 0x1F ADD PUSH1 0x5 SHR ADD SWAP1 PUSH2 0x420C JUMP JUMPDEST DUP9 PUSH2 0x9F2 JUMP JUMPDEST ADD MLOAD SWAP1 POP DUP8 DUP1 PUSH2 0x9AC JUMP JUMPDEST SWAP3 POP PUSH1 0x2 DUP5 ADD PUSH1 0x0 MSTORE PUSH1 0x20 PUSH1 0x0 KECCAK256 SWAP1 PUSH1 0x0 SWAP4 JUMPDEST PUSH1 0x1F NOT DUP5 AND DUP6 LT PUSH2 0x14D6 JUMPI PUSH1 0x1 SWAP5 POP DUP4 PUSH1 0x1F NOT DUP2 AND LT PUSH2 0x14BD JUMPI JUMPDEST POP POP POP DUP2 SHL ADD PUSH1 0x2 DUP3 ADD SSTORE PUSH2 0x9C4 JUMP JUMPDEST ADD MLOAD PUSH1 0x0 NOT PUSH1 0xF8 DUP5 PUSH1 0x3 SHL AND SHR NOT AND SWAP1 SSTORE DUP8 DUP1 DUP1 PUSH2 0x14AD JUMP JUMPDEST DUP2 DUP2 ADD MLOAD DUP4 SSTORE PUSH1 0x20 SWAP5 DUP6 ADD SWAP5 PUSH1 0x1 SWAP1 SWAP4 ADD SWAP3 SWAP1 SWAP2 ADD SWAP1 PUSH2 0x1492 JUMP JUMPDEST PUSH2 0x1520 SWAP1 PUSH1 0x2 DUP7 ADD PUSH1 0x0 MSTORE PUSH1 0x20 PUSH1 0x0 KECCAK256 PUSH1 0x1F DUP6 ADD PUSH1 0x5 SHR DUP2 ADD SWAP2 PUSH1 0x20 DUP7 LT PUSH2 0xEC0 JUMPI PUSH1 0x1F ADD PUSH1 0x5 SHR ADD SWAP1 PUSH2 0x420C JUMP JUMPDEST DUP9 PUSH2 0x995 JUMP JUMPDEST ADD MLOAD SWAP1 POP DUP8 DUP1 PUSH2 0x94F JUMP JUMPDEST SWAP3 POP PUSH1 0x1 DUP5 ADD PUSH1 0x0 MSTORE PUSH1 0x20 PUSH1 0x0 KECCAK256 SWAP1 PUSH1 0x0 SWAP4 JUMPDEST PUSH1 0x1F NOT DUP5 AND DUP6 LT PUSH2 0x1588 JUMPI PUSH1 0x1 SWAP5 POP DUP4 PUSH1 0x1F NOT DUP2 AND LT PUSH2 0x156F JUMPI JUMPDEST POP POP POP DUP2 SHL ADD PUSH1 0x1 DUP3 ADD SSTORE PUSH2 0x967 JUMP JUMPDEST ADD MLOAD PUSH1 0x0 NOT PUSH1 0xF8 DUP5 PUSH1 0x3 SHL AND SHR NOT AND SWAP1 SSTORE DUP8 DUP1 DUP1 PUSH2 0x155F JUMP JUMPDEST DUP2 DUP2 ADD MLOAD DUP4 SSTORE PUSH1 0x20 SWAP5 DUP6 ADD SWAP5 PUSH1 0x1 SWAP1 SWAP4 ADD SWAP3 SWAP1 SWAP2 ADD SWAP1 PUSH2 0x1544 JUMP JUMPDEST PUSH2 0x15D2 SWAP1 PUSH1 0x1 DUP7 ADD PUSH1 0x0 MSTORE PUSH1 0x20 PUSH1 0x0 KECCAK256 PUSH1 0x1F DUP6 ADD PUSH1 0x5 SHR DUP2 ADD SWAP2 PUSH1 0x20 DUP7 LT PUSH2 0xEC0 JUMPI PUSH1 0x1F ADD PUSH1 0x5 SHR ADD SWAP1 PUSH2 0x420C JUMP JUMPDEST DUP9 PUSH2 0x938 JUMP JUMPDEST ADD MLOAD SWAP1 POP DUP8 DUP1 PUSH2 0x8F5 JUMP JUMPDEST SWAP3 POP DUP4 PUSH1 0x0 MSTORE PUSH1 0x20 PUSH1 0x0 KECCAK256 SWAP1 PUSH1 0x0 SWAP4 JUMPDEST PUSH1 0x1F NOT DUP5 AND DUP6 LT PUSH2 0x1634 JUMPI PUSH1 0x1 SWAP5 POP DUP4 PUSH1 0x1F NOT DUP2 AND LT PUSH2 0x161B JUMPI JUMPDEST POP POP POP DUP2 SHL ADD DUP2 SSTORE PUSH2 0x90A JUMP JUMPDEST ADD MLOAD PUSH1 0x0 NOT PUSH1 0xF8 DUP5 PUSH1 0x3 SHL AND SHR NOT AND SWAP1 SSTORE DUP8 DUP1 DUP1 PUSH2 0x160E JUMP JUMPDEST DUP2 DUP2 ADD MLOAD DUP4 SSTORE PUSH1 0x20 SWAP5 DUP6 ADD SWAP5 PUSH1 0x1 SWAP1 SWAP4 ADD SWAP3 SWAP1 SWAP2 ADD SWAP1 PUSH2 0x15F3 JUMP JUMPDEST PUSH2 0x167B SWAP1 DUP6 PUSH1 0x0 MSTORE PUSH1 0x20 PUSH1 0x0 KECCAK256 PUSH1 0x1F DUP6 ADD PUSH1 0x5 SHR DUP2 ADD SWAP2 PUSH1 0x20 DUP7 LT PUSH2 0xEC0 JUMPI PUSH1 0x1F ADD PUSH1 0x5 SHR ADD SWAP1 PUSH2 0x420C JUMP JUMPDEST DUP9 PUSH2 0x8DE JUMP JUMPDEST PUSH4 0x4E487B71 PUSH1 0xE0 SHL PUSH1 0x0 MSTORE PUSH1 0x11 PUSH1 0x4 MSTORE PUSH1 0x24 PUSH1 0x0 REVERT JUMPDEST CALLVALUE PUSH2 0x1E3 JUMPI PUSH1 0x0 CALLDATASIZE PUSH1 0x3 NOT ADD SLT PUSH2 0x1E3 JUMPI PUSH1 0x40 MLOAD PUSH2 0x16BF DUP2 PUSH2 0x16B8 DUP2 PUSH2 0x3BD9 JUMP JUMPDEST SUB DUP3 PUSH2 0x3A3F JUMP JUMPDEST PUSH1 0xFF PUSH1 0x4 SLOAD AND SWAP1 PUSH2 0x519 PUSH1 0x5 SLOAD PUSH1 0x6 SLOAD PUSH1 0xFF PUSH1 0x7 SLOAD AND SWAP1 PUSH1 0x40 MLOAD SWAP3 PUSH2 0x16EE DUP5 PUSH2 0x16E7 DUP2 PUSH2 0x3C7D JUMP JUMPDEST SUB DUP6 PUSH2 0x3A3F JUMP JUMPDEST PUSH1 0x40 MLOAD SWAP7 DUP8 SWAP7 DUP8 PUSH2 0x3DBF JUMP JUMPDEST CALLVALUE PUSH2 0x1E3 JUMPI PUSH1 0x20 DUP1 PUSH1 0x3 NOT CALLDATASIZE ADD SLT PUSH2 0x1E3 JUMPI PUSH1 0x4 CALLDATALOAD PUSH1 0x1 PUSH1 0x1 PUSH1 0x40 SHL SUB DUP2 GT PUSH2 0x1E3 JUMPI PUSH2 0x172B SWAP1 CALLDATASIZE SWAP1 PUSH1 0x4 ADD PUSH2 0x3A60 JUMP JUMPDEST PUSH2 0x173A PUSH1 0xFF PUSH1 0x7 SLOAD AND ISZERO PUSH2 0x41C9 JUMP JUMPDEST PUSH2 0x519 PUSH1 0x60 PUSH2 0x1780 DUP5 PUSH1 0x40 MLOAD PUSH2 0x1760 PUSH2 0x596 DUP8 MLOAD SWAP3 DUP5 DUP2 DUP2 DUP12 ADD SWAP6 PUSH2 0x586 DUP2 DUP4 DUP10 PUSH2 0x3AB6 JUMP JUMPDEST PUSH1 0x0 SLOAD PUSH1 0x1 PUSH1 0x1 PUSH1 0xA0 SHL SUB SWAP7 SWAP1 DUP8 AND CALLER EQ DUP1 ISZERO PUSH2 0x5FD JUMPI PUSH2 0x5BB SWAP1 PUSH2 0x432E JUMP JUMPDEST DUP2 ADD PUSH1 0x9 DUP2 MSTORE SUB ADD SWAP1 KECCAK256 SWAP3 PUSH1 0x40 MLOAD PUSH2 0x1797 DUP2 PUSH2 0x39ED JUMP JUMPDEST PUSH1 0x2 PUSH1 0x40 MLOAD SWAP6 PUSH2 0x17B2 DUP8 PUSH2 0x17AB DUP2 DUP5 PUSH2 0x3D04 JUMP JUMPDEST SUB DUP9 PUSH2 0x3A3F JUMP JUMPDEST DUP7 DUP4 MSTORE PUSH1 0x1 DUP2 ADD SLOAD DUP1 SWAP9 DUP5 ADD MSTORE ADD SLOAD SWAP2 PUSH1 0xFF DUP4 AND ISZERO ISZERO SWAP3 DUP4 PUSH1 0x40 DUP5 ADD MSTORE PUSH1 0x8 SHR AND SWAP3 DUP4 SWAP2 ADD MSTORE PUSH1 0x40 MLOAD SWAP5 DUP6 SWAP5 DUP6 PUSH2 0x3E00 JUMP JUMPDEST CALLVALUE PUSH2 0x1E3 JUMPI PUSH2 0x1A0 CALLDATASIZE PUSH1 0x3 NOT ADD SLT PUSH2 0x1E3 JUMPI PUSH1 0x24 CALLDATALOAD PUSH1 0x1 PUSH1 0x1 PUSH1 0x40 SHL SUB DUP2 GT PUSH2 0x1E3 JUMPI PUSH2 0x1815 SWAP1 CALLDATASIZE SWAP1 PUSH1 0x4 ADD PUSH2 0x3A60 JUMP JUMPDEST PUSH1 0x44 CALLDATALOAD PUSH1 0x1 PUSH1 0x1 PUSH1 0x40 SHL SUB DUP2 GT PUSH2 0x1E3 JUMPI PUSH2 0x1834 SWAP1 CALLDATASIZE SWAP1 PUSH1 0x4 ADD PUSH2 0x3A60 JUMP JUMPDEST PUSH1 0x64 CALLDATALOAD PUSH1 0x1 PUSH1 0x1 PUSH1 0x40 SHL SUB DUP2 GT PUSH2 0x1E3 JUMPI PUSH2 0x1853 SWAP1 CALLDATASIZE SWAP1 PUSH1 0x4 ADD PUSH2 0x3A60 JUMP JUMPDEST PUSH1 0x84 CALLDATALOAD PUSH1 0x1 PUSH1 0x1 PUSH1 0x40 SHL SUB DUP2 GT PUSH2 0x1E3 JUMPI PUSH2 0x1872 SWAP1 CALLDATASIZE SWAP1 PUSH1 0x4 ADD PUSH2 0x3A60 JUMP JUMPDEST PUSH1 0xA4 CALLDATALOAD PUSH1 0x1 PUSH1 0x1 PUSH1 0x40 SHL SUB DUP2 GT PUSH2 0x1E3 JUMPI PUSH2 0x1891 SWAP1 CALLDATASIZE SWAP1 PUSH1 0x4 ADD PUSH2 0x3A60 JUMP JUMPDEST PUSH1 0xC4 CALLDATALOAD PUSH1 0x1 PUSH1 0x1 PUSH1 0x40 SHL SUB DUP2 GT PUSH2 0x1E3 JUMPI PUSH2 0x18B0 SWAP1 CALLDATASIZE SWAP1 PUSH1 0x4 ADD PUSH2 0x3A60 JUMP JUMPDEST PUSH1 0xE4 CALLDATALOAD PUSH1 0x1 PUSH1 0x1 PUSH1 0x40 SHL SUB DUP2 GT PUSH2 0x1E3 JUMPI PUSH2 0x18CF SWAP1 CALLDATASIZE SWAP1 PUSH1 0x4 ADD PUSH2 0x3A60 JUMP JUMPDEST PUSH2 0x104 CALLDATALOAD PUSH1 0x1 PUSH1 0x1 PUSH1 0x40 SHL SUB DUP2 GT PUSH2 0x1E3 JUMPI PUSH2 0x18EF SWAP1 CALLDATASIZE SWAP1 PUSH1 0x4 ADD PUSH2 0x3A60 JUMP JUMPDEST SWAP2 PUSH2 0x124 CALLDATALOAD PUSH1 0x1 PUSH1 0x1 PUSH1 0x40 SHL SUB DUP2 GT PUSH2 0x1E3 JUMPI PUSH2 0x1910 SWAP1 CALLDATASIZE SWAP1 PUSH1 0x4 ADD PUSH2 0x3A60 JUMP JUMPDEST SWAP4 PUSH2 0x144 CALLDATALOAD PUSH1 0x1 PUSH1 0x1 PUSH1 0x40 SHL SUB DUP2 GT PUSH2 0x1E3 JUMPI PUSH2 0x1931 SWAP1 CALLDATASIZE SWAP1 PUSH1 0x4 ADD PUSH2 0x3A60 JUMP JUMPDEST SWAP6 PUSH2 0x164 CALLDATALOAD PUSH1 0x1 PUSH1 0x1 PUSH1 0x40 SHL SUB DUP2 GT PUSH2 0x1E3 JUMPI PUSH2 0x1952 SWAP1 CALLDATASIZE SWAP1 PUSH1 0x4 ADD PUSH2 0x3A60 JUMP JUMPDEST SWAP8 PUSH2 0x184 CALLDATALOAD PUSH1 0x1 PUSH1 0x1 PUSH1 0x40 SHL SUB DUP2 GT PUSH2 0x1E3 JUMPI PUSH2 0x1973 SWAP1 CALLDATASIZE SWAP1 PUSH1 0x4 ADD PUSH2 0x3A60 JUMP JUMPDEST PUSH1 0x0 SLOAD SWAP1 SWAP11 SWAP1 PUSH1 0x1 PUSH1 0x1 PUSH1 0xA0 SHL SUB AND CALLER SUB PUSH2 0x2684 JUMPI PUSH1 0x40 MLOAD SWAP12 PUSH2 0x1995 DUP14 PUSH2 0x3A08 JUMP JUMPDEST DUP13 MSTORE PUSH1 0x20 DUP13 ADD MSTORE PUSH1 0x40 DUP12 ADD MSTORE PUSH1 0x60 DUP11 ADD MSTORE PUSH1 0x80 DUP10 ADD MSTORE PUSH1 0xA0 DUP9 ADD MSTORE PUSH1 0xC0 DUP8 ADD MSTORE PUSH1 0xE0 DUP7 ADD MSTORE PUSH2 0x100 DUP6 ADD MSTORE PUSH2 0x120 DUP5 ADD MSTORE PUSH2 0x140 DUP4 ADD MSTORE PUSH2 0x160 DUP3 ADD MSTORE PUSH1 0x4 CALLDATALOAD PUSH1 0x0 MSTORE PUSH1 0xF PUSH1 0x20 MSTORE PUSH1 0x40 PUSH1 0x0 KECCAK256 DUP2 MLOAD SWAP2 DUP3 MLOAD PUSH1 0x1 PUSH1 0x1 PUSH1 0x40 SHL SUB DUP2 GT PUSH2 0xECA JUMPI PUSH2 0x19FF DUP4 SLOAD PUSH2 0x3B9F JUMP JUMPDEST PUSH1 0x1F DUP2 GT PUSH2 0x2652 JUMPI JUMPDEST POP PUSH1 0x20 PUSH1 0x1F DUP3 GT PUSH1 0x1 EQ PUSH2 0x25EA JUMPI DUP2 SWAP3 SWAP4 SWAP5 PUSH1 0x0 SWAP3 PUSH2 0x25DF JUMPI JUMPDEST POP POP DUP2 PUSH1 0x1 SHL SWAP2 PUSH1 0x0 NOT SWAP1 PUSH1 0x3 SHL SHR NOT AND OR DUP3 SSTORE JUMPDEST PUSH1 0x20 DUP2 ADD MLOAD SWAP2 DUP3 MLOAD PUSH1 0x1 PUSH1 0x1 PUSH1 0x40 SHL SUB DUP2 GT PUSH2 0xECA JUMPI PUSH2 0x1A5A PUSH1 0x1 DUP4 ADD SLOAD PUSH2 0x3B9F JUMP JUMPDEST PUSH1 0x1F DUP2 GT PUSH2 0x25AA JUMPI JUMPDEST POP PUSH1 0x20 PUSH1 0x1F DUP3 GT PUSH1 0x1 EQ PUSH2 0x253C JUMPI DUP2 SWAP3 SWAP4 SWAP5 PUSH1 0x0 SWAP3 PUSH2 0x2531 JUMPI JUMPDEST POP POP DUP2 PUSH1 0x1 SHL SWAP2 PUSH1 0x0 NOT SWAP1 PUSH1 0x3 SHL SHR NOT AND OR PUSH1 0x1 DUP3 ADD SSTORE JUMPDEST PUSH1 0x40 DUP3 ADD MLOAD SWAP2 DUP3 MLOAD PUSH1 0x1 PUSH1 0x1 PUSH1 0x40 SHL SUB DUP2 GT PUSH2 0xECA JUMPI PUSH2 0x1AB8 PUSH1 0x2 DUP5 ADD SLOAD PUSH2 0x3B9F JUMP JUMPDEST PUSH1 0x1F DUP2 GT PUSH2 0x24FC JUMPI JUMPDEST POP PUSH1 0x20 PUSH1 0x1F DUP3 GT PUSH1 0x1 EQ PUSH2 0x248E JUMPI DUP2 SWAP3 SWAP4 SWAP5 PUSH1 0x0 SWAP3 PUSH2 0x2483 JUMPI JUMPDEST POP POP DUP2 PUSH1 0x1 SHL SWAP2 PUSH1 0x0 NOT SWAP1 PUSH1 0x3 SHL SHR NOT AND OR PUSH1 0x2 DUP4 ADD SSTORE JUMPDEST PUSH1 0x60 DUP2 ADD MLOAD SWAP2 DUP3 MLOAD PUSH1 0x1 PUSH1 0x1 PUSH1 0x40 SHL SUB DUP2 GT PUSH2 0xECA JUMPI PUSH2 0x1B16 PUSH1 0x3 DUP4 ADD SLOAD PUSH2 0x3B9F JUMP JUMPDEST PUSH1 0x1F DUP2 GT PUSH2 0x244E JUMPI JUMPDEST POP PUSH1 0x20 PUSH1 0x1F DUP3 GT PUSH1 0x1 EQ PUSH2 0x23E0 JUMPI DUP2 SWAP3 SWAP4 SWAP5 PUSH1 0x0 SWAP3 PUSH2 0x23D5 JUMPI JUMPDEST POP POP DUP2 PUSH1 0x1 SHL SWAP2 PUSH1 0x0 NOT SWAP1 PUSH1 0x3 SHL SHR NOT AND OR PUSH1 0x3 DUP3 ADD SSTORE JUMPDEST PUSH1 0x80 DUP3 ADD MLOAD SWAP2 DUP3 MLOAD PUSH1 0x1 PUSH1 0x1 PUSH1 0x40 SHL SUB DUP2 GT PUSH2 0xECA JUMPI PUSH2 0x1B74 PUSH1 0x4 DUP5 ADD SLOAD PUSH2 0x3B9F JUMP JUMPDEST PUSH1 0x1F DUP2 GT PUSH2 0x23A0 JUMPI JUMPDEST POP PUSH1 0x20 PUSH1 0x1F DUP3 GT PUSH1 0x1 EQ PUSH2 0x2332 JUMPI DUP2 SWAP3 SWAP4 SWAP5 PUSH1 0x0 SWAP3 PUSH2 0x2327 JUMPI JUMPDEST POP POP DUP2 PUSH1 0x1 SHL SWAP2 PUSH1 0x0 NOT SWAP1 PUSH1 0x3 SHL SHR NOT AND OR PUSH1 0x4 DUP4 ADD SSTORE JUMPDEST PUSH1 0xA0 DUP2 ADD MLOAD SWAP2 DUP3 MLOAD PUSH1 0x1 PUSH1 0x1 PUSH1 0x40 SHL SUB DUP2 GT PUSH2 0xECA JUMPI PUSH2 0x1BD2 PUSH1 0x5 DUP4 ADD SLOAD PUSH2 0x3B9F JUMP JUMPDEST PUSH1 0x1F DUP2 GT PUSH2 0x22F2 JUMPI JUMPDEST POP PUSH1 0x20 PUSH1 0x1F DUP3 GT PUSH1 0x1 EQ PUSH2 0x2284 JUMPI DUP2 SWAP3 SWAP4 SWAP5 PUSH1 0x0 SWAP3 PUSH2 0x2279 JUMPI JUMPDEST POP POP DUP2 PUSH1 0x1 SHL SWAP2 PUSH1 0x0 NOT SWAP1 PUSH1 0x3 SHL SHR NOT AND OR PUSH1 0x5 DUP3 ADD SSTORE JUMPDEST PUSH1 0xC0 DUP3 ADD MLOAD SWAP2 DUP3 MLOAD PUSH1 0x1 PUSH1 0x1 PUSH1 0x40 SHL SUB DUP2 GT PUSH2 0xECA JUMPI PUSH2 0x1C30 PUSH1 0x6 DUP5 ADD SLOAD PUSH2 0x3B9F JUMP JUMPDEST PUSH1 0x1F DUP2 GT PUSH2 0x2244 JUMPI JUMPDEST POP PUSH1 0x20 PUSH1 0x1F DUP3 GT PUSH1 0x1 EQ PUSH2 0x21D6 JUMPI DUP2 SWAP3 SWAP4 SWAP5 PUSH1 0x0 SWAP3 PUSH2 0x21CB JUMPI JUMPDEST POP POP DUP2 PUSH1 0x1 SHL SWAP2 PUSH1 0x0 NOT SWAP1 PUSH1 0x3 SHL SHR NOT AND OR PUSH1 0x6 DUP4 ADD SSTORE JUMPDEST PUSH1 0xE0 DUP2 ADD MLOAD SWAP2 DUP3 MLOAD PUSH1 0x1 PUSH1 0x1 PUSH1 0x40 SHL SUB DUP2 GT PUSH2 0xECA JUMPI PUSH2 0x1C8E PUSH1 0x7 DUP4 ADD SLOAD PUSH2 0x3B9F JUMP JUMPDEST PUSH1 0x1F DUP2 GT PUSH2 0x2196 JUMPI JUMPDEST POP PUSH1 0x20 PUSH1 0x1F DUP3 GT PUSH1 0x1 EQ PUSH2 0x2128 JUMPI DUP2 SWAP3 SWAP4 SWAP5 PUSH1 0x0 SWAP3 PUSH2 0x211D JUMPI JUMPDEST POP POP DUP2 PUSH1 0x1 SHL SWAP2 PUSH1 0x0 NOT SWAP1 PUSH1 0x3 SHL SHR NOT AND OR PUSH1 0x7 DUP3 ADD SSTORE JUMPDEST PUSH2 0x100 DUP3 ADD MLOAD SWAP2 DUP3 MLOAD PUSH1 0x1 PUSH1 0x1 PUSH1 0x40 SHL SUB DUP2 GT PUSH2 0xECA JUMPI PUSH2 0x1CED PUSH1 0x8 DUP5 ADD SLOAD PUSH2 0x3B9F JUMP JUMPDEST PUSH1 0x1F DUP2 GT PUSH2 0x20E8 JUMPI JUMPDEST POP PUSH1 0x20 PUSH1 0x1F DUP3 GT PUSH1 0x1 EQ PUSH2 0x207A JUMPI DUP2 SWAP3 SWAP4 SWAP5 PUSH1 0x0 SWAP3 PUSH2 0x206F JUMPI JUMPDEST POP POP DUP2 PUSH1 0x1 SHL SWAP2 PUSH1 0x0 NOT SWAP1 PUSH1 0x3 SHL SHR NOT AND OR PUSH1 0x8 DUP4 ADD SSTORE JUMPDEST PUSH2 0x120 DUP2 ADD MLOAD SWAP2 DUP3 MLOAD PUSH1 0x1 PUSH1 0x1 PUSH1 0x40 SHL SUB DUP2 GT PUSH2 0xECA JUMPI PUSH2 0x1D4C PUSH1 0x9 DUP4 ADD SLOAD PUSH2 0x3B9F JUMP JUMPDEST PUSH1 0x1F DUP2 GT PUSH2 0x203A JUMPI JUMPDEST POP PUSH1 0x20 PUSH1 0x1F DUP3 GT PUSH1 0x1 EQ PUSH2 0x1FCC JUMPI DUP2 SWAP3 SWAP4 SWAP5 PUSH1 0x0 SWAP3 PUSH2 0x1FC1 JUMPI JUMPDEST POP POP DUP2 PUSH1 0x1 SHL SWAP2 PUSH1 0x0 NOT SWAP1 PUSH1 0x3 SHL SHR NOT AND OR PUSH1 0x9 DUP3 ADD SSTORE JUMPDEST PUSH2 0x140 DUP3 ADD MLOAD DUP1 MLOAD SWAP1 PUSH1 0x1 PUSH1 0x1 PUSH1 0x40 SHL SUB DUP3 GT PUSH2 0xECA JUMPI PUSH2 0x1DAB PUSH1 0xA DUP5 ADD SLOAD PUSH2 0x3B9F JUMP JUMPDEST PUSH1 0x1F DUP2 GT PUSH2 0x1F8C JUMPI JUMPDEST POP PUSH1 0x20 SWAP1 PUSH1 0x1F DUP4 GT PUSH1 0x1 EQ PUSH2 0x1F16 JUMPI SWAP2 DUP1 PUSH2 0x160 SWAP5 SWAP3 PUSH1 0xB SWAP5 PUSH1 0x0 SWAP3 PUSH2 0x1F0B JUMPI JUMPDEST POP POP DUP2 PUSH1 0x1 SHL SWAP2 PUSH1 0x0 NOT SWAP1 PUSH1 0x3 SHL SHR NOT AND OR PUSH1 0xA DUP3 ADD SSTORE JUMPDEST ADD SWAP2 ADD MLOAD SWAP1 DUP2 MLOAD PUSH1 0x1 PUSH1 0x1 PUSH1 0x40 SHL SUB DUP2 GT PUSH2 0xECA JUMPI PUSH2 0x1E0C DUP3 SLOAD PUSH2 0x3B9F JUMP JUMPDEST PUSH1 0x1F DUP2 GT PUSH2 0x1ED9 JUMPI JUMPDEST POP PUSH1 0x20 SWAP3 PUSH1 0x1F DUP3 GT PUSH1 0x1 EQ PUSH2 0x1E75 JUMPI SWAP3 DUP2 SWAP3 SWAP4 PUSH1 0x0 SWAP3 PUSH2 0x1E6A JUMPI JUMPDEST POP POP DUP2 PUSH1 0x1 SHL SWAP2 PUSH1 0x0 NOT SWAP1 PUSH1 0x3 SHL SHR NOT AND OR SWAP1 SSTORE JUMPDEST CALLER PUSH1 0x0 MSTORE PUSH1 0xE PUSH1 0x20 MSTORE PUSH2 0x1E5E PUSH1 0x4 CALLDATALOAD PUSH1 0x40 PUSH1 0x0 KECCAK256 PUSH2 0x3B6D JUMP JUMPDEST POP PUSH1 0x3 TIMESTAMP SWAP2 ADD SSTORE PUSH1 0x0 DUP1 RETURN JUMPDEST ADD MLOAD SWAP1 POP DUP4 DUP1 PUSH2 0x1E30 JUMP JUMPDEST PUSH1 0x1F NOT DUP3 AND SWAP4 DUP4 PUSH1 0x0 MSTORE PUSH1 0x20 PUSH1 0x0 KECCAK256 SWAP2 PUSH1 0x0 JUMPDEST DUP7 DUP2 LT PUSH2 0x1EC1 JUMPI POP DUP4 PUSH1 0x1 SWAP6 SWAP7 LT PUSH2 0x1EA8 JUMPI JUMPDEST POP POP POP DUP2 SHL ADD SWAP1 SSTORE PUSH2 0x1E45 JUMP JUMPDEST ADD MLOAD PUSH1 0x0 NOT PUSH1 0xF8 DUP5 PUSH1 0x3 SHL AND SHR NOT AND SWAP1 SSTORE DUP4 DUP1 DUP1 PUSH2 0x1E9B JUMP JUMPDEST SWAP2 SWAP3 PUSH1 0x20 PUSH1 0x1 DUP2 SWAP3 DUP7 DUP6 ADD MLOAD DUP2 SSTORE ADD SWAP5 ADD SWAP3 ADD PUSH2 0x1E88 JUMP JUMPDEST PUSH2 0x1F05 SWAP1 DUP4 PUSH1 0x0 MSTORE PUSH1 0x20 PUSH1 0x0 KECCAK256 PUSH1 0x1F DUP5 ADD PUSH1 0x5 SHR DUP2 ADD SWAP2 PUSH1 0x20 DUP6 LT PUSH2 0xEC0 JUMPI PUSH1 0x1F ADD PUSH1 0x5 SHR ADD SWAP1 PUSH2 0x420C JUMP JUMPDEST DUP4 PUSH2 0x1E15 JUMP JUMPDEST ADD MLOAD SWAP1 POP DUP7 DUP1 PUSH2 0x1DD5 JUMP JUMPDEST SWAP1 PUSH1 0xA DUP5 ADD PUSH1 0x0 MSTORE PUSH1 0x20 PUSH1 0x0 KECCAK256 SWAP2 PUSH1 0x0 JUMPDEST PUSH1 0x1F NOT DUP6 AND DUP2 LT PUSH2 0x1F74 JUMPI POP SWAP3 PUSH2 0x160 SWAP5 SWAP3 PUSH1 0x1 SWAP3 PUSH1 0xB SWAP6 DUP4 PUSH1 0x1F NOT DUP2 AND LT PUSH2 0x1F5B JUMPI JUMPDEST POP POP POP DUP2 SHL ADD PUSH1 0xA DUP3 ADD SSTORE PUSH2 0x1DED JUMP JUMPDEST ADD MLOAD PUSH1 0x0 NOT PUSH1 0xF8 DUP5 PUSH1 0x3 SHL AND SHR NOT AND SWAP1 SSTORE DUP7 DUP1 DUP1 PUSH2 0x1F4B JUMP JUMPDEST SWAP2 SWAP3 PUSH1 0x20 PUSH1 0x1 DUP2 SWAP3 DUP7 DUP6 ADD MLOAD DUP2 SSTORE ADD SWAP5 ADD SWAP3 ADD PUSH2 0x1F27 JUMP JUMPDEST PUSH2 0x1FBB SWAP1 PUSH1 0xA DUP6 ADD PUSH1 0x0 MSTORE PUSH1 0x20 PUSH1 0x0 KECCAK256 PUSH1 0x1F DUP6 ADD PUSH1 0x5 SHR DUP2 ADD SWAP2 PUSH1 0x20 DUP7 LT PUSH2 0xEC0 JUMPI PUSH1 0x1F ADD PUSH1 0x5 SHR ADD SWAP1 PUSH2 0x420C JUMP JUMPDEST DUP5 PUSH2 0x1DB4 JUMP JUMPDEST ADD MLOAD SWAP1 POP DUP5 DUP1 PUSH2 0x1D6F JUMP JUMPDEST PUSH1 0x9 DUP4 ADD PUSH1 0x0 MSTORE PUSH1 0x20 PUSH1 0x0 KECCAK256 SWAP1 PUSH1 0x0 JUMPDEST PUSH1 0x1F NOT DUP5 AND DUP2 LT PUSH2 0x2022 JUMPI POP PUSH1 0x1 SWAP4 SWAP5 SWAP6 DUP4 PUSH1 0x1F NOT DUP2 AND LT PUSH2 0x2009 JUMPI JUMPDEST POP POP POP DUP2 SHL ADD PUSH1 0x9 DUP3 ADD SSTORE PUSH2 0x1D87 JUMP JUMPDEST ADD MLOAD PUSH1 0x0 NOT PUSH1 0xF8 DUP5 PUSH1 0x3 SHL AND SHR NOT AND SWAP1 SSTORE DUP5 DUP1 DUP1 PUSH2 0x1FF9 JUMP JUMPDEST SWAP1 SWAP2 PUSH1 0x20 PUSH1 0x1 DUP2 SWAP3 DUP6 DUP11 ADD MLOAD DUP2 SSTORE ADD SWAP4 ADD SWAP2 ADD PUSH2 0x1FDC JUMP JUMPDEST PUSH2 0x2069 SWAP1 PUSH1 0x9 DUP5 ADD PUSH1 0x0 MSTORE PUSH1 0x20 PUSH1 0x0 KECCAK256 PUSH1 0x1F DUP5 ADD PUSH1 0x5 SHR DUP2 ADD SWAP2 PUSH1 0x20 DUP6 LT PUSH2 0xEC0 JUMPI PUSH1 0x1F ADD PUSH1 0x5 SHR ADD SWAP1 PUSH2 0x420C JUMP JUMPDEST DUP5 PUSH2 0x1D55 JUMP JUMPDEST ADD MLOAD SWAP1 POP DUP5 DUP1 PUSH2 0x1D10 JUMP JUMPDEST PUSH1 0x8 DUP5 ADD PUSH1 0x0 MSTORE PUSH1 0x20 PUSH1 0x0 KECCAK256 SWAP1 PUSH1 0x0 JUMPDEST PUSH1 0x1F NOT DUP5 AND DUP2 LT PUSH2 0x20D0 JUMPI POP PUSH1 0x1 SWAP4 SWAP5 SWAP6 DUP4 PUSH1 0x1F NOT DUP2 AND LT PUSH2 0x20B7 JUMPI JUMPDEST POP POP POP DUP2 SHL ADD PUSH1 0x8 DUP4 ADD SSTORE PUSH2 0x1D28 JUMP JUMPDEST ADD MLOAD PUSH1 0x0 NOT PUSH1 0xF8 DUP5 PUSH1 0x3 SHL AND SHR NOT AND SWAP1 SSTORE DUP5 DUP1 DUP1 PUSH2 0x20A7 JUMP JUMPDEST SWAP1 SWAP2 PUSH1 0x20 PUSH1 0x1 DUP2 SWAP3 DUP6 DUP11 ADD MLOAD DUP2 SSTORE ADD SWAP4 ADD SWAP2 ADD PUSH2 0x208A JUMP JUMPDEST PUSH2 0x2117 SWAP1 PUSH1 0x8 DUP6 ADD PUSH1 0x0 MSTORE PUSH1 0x20 PUSH1 0x0 KECCAK256 PUSH1 0x1F DUP5 ADD PUSH1 0x5 SHR DUP2 ADD SWAP2 PUSH1 0x20 DUP6 LT PUSH2 0xEC0 JUMPI PUSH1 0x1F ADD PUSH1 0x5 SHR ADD SWAP1 PUSH2 0x420C JUMP JUMPDEST DUP5 PUSH2 0x1CF6 JUMP JUMPDEST ADD MLOAD SWAP1 POP DUP5 DUP1 PUSH2 0x1CB1 JUMP JUMPDEST PUSH1 0x7 DUP4 ADD PUSH1 0x0 MSTORE PUSH1 0x20 PUSH1 0x0 KECCAK256 SWAP1 PUSH1 0x0 JUMPDEST PUSH1 0x1F NOT DUP5 AND DUP2 LT PUSH2 0x217E JUMPI POP PUSH1 0x1 SWAP4 SWAP5 SWAP6 DUP4 PUSH1 0x1F NOT DUP2 AND LT PUSH2 0x2165 JUMPI JUMPDEST POP POP POP DUP2 SHL ADD PUSH1 0x7 DUP3 ADD SSTORE PUSH2 0x1CC9 JUMP JUMPDEST ADD MLOAD PUSH1 0x0 NOT PUSH1 0xF8 DUP5 PUSH1 0x3 SHL AND SHR NOT AND SWAP1 SSTORE DUP5 DUP1 DUP1 PUSH2 0x2155 JUMP JUMPDEST SWAP1 SWAP2 PUSH1 0x20 PUSH1 0x1 DUP2 SWAP3 DUP6 DUP11 ADD MLOAD DUP2 SSTORE ADD SWAP4 ADD SWAP2 ADD PUSH2 0x2138 JUMP JUMPDEST PUSH2 0x21C5 SWAP1 PUSH1 0x7 DUP5 ADD PUSH1 0x0 MSTORE PUSH1 0x20 PUSH1 0x0 KECCAK256 PUSH1 0x1F DUP5 ADD PUSH1 0x5 SHR DUP2 ADD SWAP2 PUSH1 0x20 DUP6 LT PUSH2 0xEC0 JUMPI PUSH1 0x1F ADD PUSH1 0x5 SHR ADD SWAP1 PUSH2 0x420C JUMP JUMPDEST DUP5 PUSH2 0x1C97 JUMP JUMPDEST ADD MLOAD SWAP1 POP DUP5 DUP1 PUSH2 0x1C53 JUMP JUMPDEST PUSH1 0x6 DUP5 ADD PUSH1 0x0 MSTORE PUSH1 0x20 PUSH1 0x0 KECCAK256 SWAP1 PUSH1 0x0 JUMPDEST PUSH1 0x1F NOT DUP5 AND DUP2 LT PUSH2 0x222C JUMPI POP PUSH1 0x1 SWAP4 SWAP5 SWAP6 DUP4 PUSH1 0x1F NOT DUP2 AND LT PUSH2 0x2213 JUMPI JUMPDEST POP POP POP DUP2 SHL ADD PUSH1 0x6 DUP4 ADD SSTORE PUSH2 0x1C6B JUMP JUMPDEST ADD MLOAD PUSH1 0x0 NOT PUSH1 0xF8 DUP5 PUSH1 0x3 SHL AND SHR NOT AND SWAP1 SSTORE DUP5 DUP1 DUP1 PUSH2 0x2203 JUMP JUMPDEST SWAP1 SWAP2 PUSH1 0x20 PUSH1 0x1 DUP2 SWAP3 DUP6 DUP11 ADD MLOAD DUP2 SSTORE ADD SWAP4 ADD SWAP2 ADD PUSH2 0x21E6 JUMP JUMPDEST PUSH2 0x2273 SWAP1 PUSH1 0x6 DUP6 ADD PUSH1 0x0 MSTORE PUSH1 0x20 PUSH1 0x0 KECCAK256 PUSH1 0x1F DUP5 ADD PUSH1 0x5 SHR DUP2 ADD SWAP2 PUSH1 0x20 DUP6 LT PUSH2 0xEC0 JUMPI PUSH1 0x1F ADD PUSH1 0x5 SHR ADD SWAP1 PUSH2 0x420C JUMP JUMPDEST DUP5 PUSH2 0x1C39 JUMP JUMPDEST ADD MLOAD SWAP1 POP DUP5 DUP1 PUSH2 0x1BF5 JUMP JUMPDEST PUSH1 0x5 DUP4 ADD PUSH1 0x0 MSTORE PUSH1 0x20 PUSH1 0x0 KECCAK256 SWAP1 PUSH1 0x0 JUMPDEST PUSH1 0x1F NOT DUP5 AND DUP2 LT PUSH2 0x22DA JUMPI POP PUSH1 0x1 SWAP4 SWAP5 SWAP6 DUP4 PUSH1 0x1F NOT DUP2 AND LT PUSH2 0x22C1 JUMPI JUMPDEST POP POP POP DUP2 SHL ADD PUSH1 0x5 DUP3 ADD SSTORE PUSH2 0x1C0D JUMP JUMPDEST ADD MLOAD PUSH1 0x0 NOT PUSH1 0xF8 DUP5 PUSH1 0x3 SHL AND SHR NOT AND SWAP1 SSTORE DUP5 DUP1 DUP1 PUSH2 0x22B1 JUMP JUMPDEST SWAP1 SWAP2 PUSH1 0x20 PUSH1 0x1 DUP2 SWAP3 DUP6 DUP11 ADD MLOAD DUP2 SSTORE ADD SWAP4 ADD SWAP2 ADD PUSH2 0x2294 JUMP JUMPDEST PUSH2 0x2321 SWAP1 PUSH1 0x5 DUP5 ADD PUSH1 0x0 MSTORE PUSH1 0x20 PUSH1 0x0 KECCAK256 PUSH1 0x1F DUP5 ADD PUSH1 0x5 SHR DUP2 ADD SWAP2 PUSH1 0x20 DUP6 LT PUSH2 0xEC0 JUMPI PUSH1 0x1F ADD PUSH1 0x5 SHR ADD SWAP1 PUSH2 0x420C JUMP JUMPDEST DUP5 PUSH2 0x1BDB JUMP JUMPDEST ADD MLOAD SWAP1 POP DUP5 DUP1 PUSH2 0x1B97 JUMP JUMPDEST PUSH1 0x4 DUP5 ADD PUSH1 0x0 MSTORE PUSH1 0x20 PUSH1 0x0 KECCAK256 SWAP1 PUSH1 0x0 JUMPDEST PUSH1 0x1F NOT DUP5 AND DUP2 LT PUSH2 0x2388 JUMPI POP PUSH1 0x1 SWAP4 SWAP5 SWAP6 DUP4 PUSH1 0x1F NOT DUP2 AND LT PUSH2 0x236F JUMPI JUMPDEST POP POP POP DUP2 SHL ADD PUSH1 0x4 DUP4 ADD SSTORE PUSH2 0x1BAF JUMP JUMPDEST ADD MLOAD PUSH1 0x0 NOT PUSH1 0xF8 DUP5 PUSH1 0x3 SHL AND SHR NOT AND SWAP1 SSTORE DUP5 DUP1 DUP1 PUSH2 0x235F JUMP JUMPDEST SWAP1 SWAP2 PUSH1 0x20 PUSH1 0x1 DUP2 SWAP3 DUP6 DUP11 ADD MLOAD DUP2 SSTORE ADD SWAP4 ADD SWAP2 ADD PUSH2 0x2342 JUMP JUMPDEST PUSH2 0x23CF SWAP1 PUSH1 0x4 DUP6 ADD PUSH1 0x0 MSTORE PUSH1 0x20 PUSH1 0x0 KECCAK256 PUSH1 0x1F DUP5 ADD PUSH1 0x5 SHR DUP2 ADD SWAP2 PUSH1 0x20 DUP6 LT PUSH2 0xEC0 JUMPI PUSH1 0x1F ADD PUSH1 0x5 SHR ADD SWAP1 PUSH2 0x420C JUMP JUMPDEST DUP5 PUSH2 0x1B7D JUMP JUMPDEST ADD MLOAD SWAP1 POP DUP5 DUP1 PUSH2 0x1B39 JUMP JUMPDEST PUSH1 0x3 DUP4 ADD PUSH1 0x0 MSTORE PUSH1 0x20 PUSH1 0x0 KECCAK256 SWAP1 PUSH1 0x0 JUMPDEST PUSH1 0x1F NOT DUP5 AND DUP2 LT PUSH2 0x2436 JUMPI POP PUSH1 0x1 SWAP4 SWAP5 SWAP6 DUP4 PUSH1 0x1F NOT DUP2 AND LT PUSH2 0x241D JUMPI JUMPDEST POP POP POP DUP2 SHL ADD PUSH1 0x3 DUP3 ADD SSTORE PUSH2 0x1B51 JUMP JUMPDEST ADD MLOAD PUSH1 0x0 NOT PUSH1 0xF8 DUP5 PUSH1 0x3 SHL AND SHR NOT AND SWAP1 SSTORE DUP5 DUP1 DUP1 PUSH2 0x240D JUMP JUMPDEST SWAP1 SWAP2 PUSH1 0x20 PUSH1 0x1 DUP2 SWAP3 DUP6 DUP11 ADD MLOAD DUP2 SSTORE ADD SWAP4 ADD SWAP2 ADD PUSH2 0x23F0 JUMP JUMPDEST PUSH2 0x247D SWAP1 PUSH1 0x3 DUP5 ADD PUSH1 0x0 MSTORE PUSH1 0x20 PUSH1 0x0 KECCAK256 PUSH1 0x1F DUP5 ADD PUSH1 0x5 SHR DUP2 ADD SWAP2 PUSH1 0x20 DUP6 LT PUSH2 0xEC0 JUMPI PUSH1 0x1F ADD PUSH1 0x5 SHR ADD SWAP1 PUSH2 0x420C JUMP JUMPDEST DUP5 PUSH2 0x1B1F JUMP JUMPDEST ADD MLOAD SWAP1 POP DUP5 DUP1 PUSH2 0x1ADB JUMP JUMPDEST PUSH1 0x2 DUP5 ADD PUSH1 0x0 MSTORE PUSH1 0x20 PUSH1 0x0 KECCAK256 SWAP1 PUSH1 0x0 JUMPDEST PUSH1 0x1F NOT DUP5 AND DUP2 LT PUSH2 0x24E4 JUMPI POP PUSH1 0x1 SWAP4 SWAP5 SWAP6 DUP4 PUSH1 0x1F NOT DUP2 AND LT PUSH2 0x24CB JUMPI JUMPDEST POP POP POP DUP2 SHL ADD PUSH1 0x2 DUP4 ADD SSTORE PUSH2 0x1AF3 JUMP JUMPDEST ADD MLOAD PUSH1 0x0 NOT PUSH1 0xF8 DUP5 PUSH1 0x3 SHL AND SHR NOT AND SWAP1 SSTORE DUP5 DUP1 DUP1 PUSH2 0x24BB JUMP JUMPDEST SWAP1 SWAP2 PUSH1 0x20 PUSH1 0x1 DUP2 SWAP3 DUP6 DUP11 ADD MLOAD DUP2 SSTORE ADD SWAP4 ADD SWAP2 ADD PUSH2 0x249E JUMP JUMPDEST PUSH2 0x252B SWAP1 PUSH1 0x2 DUP6 ADD PUSH1 0x0 MSTORE PUSH1 0x20 PUSH1 0x0 KECCAK256 PUSH1 0x1F DUP5 ADD PUSH1 0x5 SHR DUP2 ADD SWAP2 PUSH1 0x20 DUP6 LT PUSH2 0xEC0 JUMPI PUSH1 0x1F ADD PUSH1 0x5 SHR ADD SWAP1 PUSH2 0x420C JUMP JUMPDEST DUP5 PUSH2 0x1AC1 JUMP JUMPDEST ADD MLOAD SWAP1 POP DUP5 DUP1 PUSH2 0x1A7D JUMP JUMPDEST PUSH1 0x1 DUP4 ADD PUSH1 0x0 MSTORE PUSH1 0x20 PUSH1 0x0 KECCAK256 SWAP1 PUSH1 0x0 JUMPDEST PUSH1 0x1F NOT DUP5 AND DUP2 LT PUSH2 0x2592 JUMPI POP PUSH1 0x1 SWAP4 SWAP5 SWAP6 DUP4 PUSH1 0x1F NOT DUP2 AND LT PUSH2 0x2579 JUMPI JUMPDEST POP POP POP DUP2 SHL ADD PUSH1 0x1 DUP3 ADD SSTORE PUSH2 0x1A95 JUMP JUMPDEST ADD MLOAD PUSH1 0x0 NOT PUSH1 0xF8 DUP5 PUSH1 0x3 SHL AND SHR NOT AND SWAP1 SSTORE DUP5 DUP1 DUP1 PUSH2 0x2569 JUMP JUMPDEST SWAP1 SWAP2 PUSH1 0x20 PUSH1 0x1 DUP2 SWAP3 DUP6 DUP11 ADD MLOAD DUP2 SSTORE ADD SWAP4 ADD SWAP2 ADD PUSH2 0x254C JUMP JUMPDEST PUSH2 0x25D9 SWAP1 PUSH1 0x1 DUP5 ADD PUSH1 0x0 MSTORE PUSH1 0x20 PUSH1 0x0 KECCAK256 PUSH1 0x1F DUP5 ADD PUSH1 0x5 SHR DUP2 ADD SWAP2 PUSH1 0x20 DUP6 LT PUSH2 0xEC0 JUMPI PUSH1 0x1F ADD PUSH1 0x5 SHR ADD SWAP1 PUSH2 0x420C JUMP JUMPDEST DUP5 PUSH2 0x1A63 JUMP JUMPDEST ADD MLOAD SWAP1 POP DUP5 DUP1 PUSH2 0x1A22 JUMP JUMPDEST DUP4 PUSH1 0x0 MSTORE PUSH1 0x20 PUSH1 0x0 KECCAK256 SWAP1 PUSH1 0x0 JUMPDEST PUSH1 0x1F NOT DUP5 AND DUP2 LT PUSH2 0x263A JUMPI POP PUSH1 0x1 SWAP4 SWAP5 SWAP6 DUP4 PUSH1 0x1F NOT DUP2 AND LT PUSH2 0x2621 JUMPI JUMPDEST POP POP POP DUP2 SHL ADD DUP3 SSTORE PUSH2 0x1A37 JUMP JUMPDEST ADD MLOAD PUSH1 0x0 NOT PUSH1 0xF8 DUP5 PUSH1 0x3 SHL AND SHR NOT AND SWAP1 SSTORE DUP5 DUP1 DUP1 PUSH2 0x2614 JUMP JUMPDEST SWAP1 SWAP2 PUSH1 0x20 PUSH1 0x1 DUP2 SWAP3 DUP6 DUP11 ADD MLOAD DUP2 SSTORE ADD SWAP4 ADD SWAP2 ADD PUSH2 0x25F7 JUMP JUMPDEST PUSH2 0x267E SWAP1 DUP5 PUSH1 0x0 MSTORE PUSH1 0x20 PUSH1 0x0 KECCAK256 PUSH1 0x1F DUP5 ADD PUSH1 0x5 SHR DUP2 ADD SWAP2 PUSH1 0x20 DUP6 LT PUSH2 0xEC0 JUMPI PUSH1 0x1F ADD PUSH1 0x5 SHR ADD SWAP1 PUSH2 0x420C JUMP JUMPDEST DUP5 PUSH2 0x1A08 JUMP JUMPDEST PUSH1 0x40 MLOAD PUSH3 0x461BCD PUSH1 0xE5 SHL DUP2 MSTORE PUSH1 0x20 PUSH1 0x4 DUP3 ADD MSTORE PUSH1 0x11 PUSH1 0x24 DUP3 ADD MSTORE PUSH17 0x2737BA103A3432902224A21037BBB732B9 PUSH1 0x79 SHL PUSH1 0x44 DUP3 ADD MSTORE PUSH1 0x64 SWAP1 REVERT JUMPDEST CALLVALUE PUSH2 0x1E3 JUMPI PUSH1 0x20 DUP1 PUSH1 0x3 NOT CALLDATASIZE ADD SLT PUSH2 0x1E3 JUMPI PUSH1 0x1 PUSH1 0x1 PUSH1 0x40 SHL SUB PUSH1 0x4 CALLDATALOAD DUP2 DUP2 GT PUSH2 0x1E3 JUMPI PUSH2 0x26EF SWAP1 CALLDATASIZE SWAP1 PUSH1 0x4 ADD PUSH2 0x3A60 JUMP JUMPDEST PUSH2 0x26F7 PUSH2 0x3E35 JUMP JUMPDEST PUSH2 0x26FF PUSH2 0x4223 JUMP JUMPDEST PUSH2 0x270E PUSH1 0xFF PUSH1 0x7 SLOAD AND ISZERO PUSH2 0x41C9 JUMP JUMPDEST PUSH2 0x2716 PUSH2 0x4267 JUMP JUMPDEST DUP1 MLOAD ISZERO PUSH2 0x28DD JUMPI PUSH1 0x1 SWAP2 PUSH1 0xFF NOT SWAP1 DUP4 DUP3 PUSH1 0x7 SLOAD AND OR PUSH1 0x7 SSTORE DUP3 MLOAD SWAP1 DUP2 GT PUSH2 0xECA JUMPI PUSH2 0x2742 PUSH1 0x8 SLOAD PUSH2 0x3B9F JUMP JUMPDEST PUSH1 0x1F DUP2 GT PUSH2 0x288F JUMPI JUMPDEST POP DUP5 PUSH1 0x1F DUP3 GT PUSH1 0x1 EQ PUSH2 0x27E4 JUMPI SWAP2 DUP2 PUSH32 0xF47A4F2302A3334A22353C5748D420F032E5F784E851777209232D29D1693335 SWAP5 SWAP3 PUSH2 0x27CB SWAP5 PUSH1 0x0 SWAP2 PUSH2 0x27D9 JUMPI JUMPDEST POP PUSH1 0x0 NOT PUSH1 0x3 DUP4 SWAP1 SHL SHR NOT AND SWAP1 DUP7 SHL OR PUSH1 0x8 SSTORE JUMPDEST PUSH1 0x4 SLOAD AND PUSH1 0x4 SSTORE TIMESTAMP PUSH1 0x6 SSTORE PUSH1 0x40 MLOAD SWAP2 DUP3 SWAP2 PUSH1 0x40 DUP4 MSTORE PUSH2 0x27BE PUSH1 0x40 DUP5 ADD PUSH2 0x3BD9 JUMP JUMPDEST SWAP1 DUP4 DUP3 SUB DUP9 DUP6 ADD MSTORE PUSH2 0x3D9A JUMP JUMPDEST SUB SWAP1 LOG1 DUP1 DUP1 SSTORE PUSH1 0x40 MLOAD SWAP1 DUP2 MSTORE RETURN JUMPDEST SWAP1 POP DUP4 ADD MLOAD DUP9 PUSH2 0x2789 JUMP JUMPDEST SWAP1 DUP5 SWAP2 PUSH1 0x1F NOT DUP3 AND SWAP1 PUSH1 0x8 PUSH1 0x0 MSTORE PUSH32 0xF3F7A9FE364FAAB93B216DA50A3214154F22A0A2B415B23A84C8169E8B636EE3 SWAP2 PUSH1 0x0 JUMPDEST DUP10 DUP3 DUP3 LT PUSH2 0x2879 JUMPI POP POP SWAP2 DUP4 SWAP2 PUSH2 0x27CB SWAP7 SWAP5 PUSH32 0xF47A4F2302A3334A22353C5748D420F032E5F784E851777209232D29D1693335 SWAP9 SWAP7 SWAP5 LT PUSH2 0x2860 JUMPI JUMPDEST POP POP DUP2 SHL ADD PUSH1 0x8 SSTORE PUSH2 0x279D JUMP JUMPDEST DUP6 ADD MLOAD PUSH1 0x0 NOT PUSH1 0xF8 DUP5 PUSH1 0x3 SHL AND SHR NOT AND SWAP1 SSTORE DUP9 DUP1 PUSH2 0x2853 JUMP JUMPDEST DUP4 DUP10 ADD MLOAD DUP6 SSTORE DUP10 SWAP7 SWAP1 SWAP5 ADD SWAP4 SWAP3 DUP4 ADD SWAP3 ADD PUSH2 0x2817 JUMP JUMPDEST PUSH2 0x28D7 SWAP1 PUSH1 0x8 PUSH1 0x0 MSTORE PUSH32 0xF3F7A9FE364FAAB93B216DA50A3214154F22A0A2B415B23A84C8169E8B636EE3 PUSH1 0x1F DUP5 ADD PUSH1 0x5 SHR DUP2 ADD SWAP2 DUP9 DUP6 LT PUSH2 0xEC0 JUMPI PUSH1 0x1F ADD PUSH1 0x5 SHR ADD SWAP1 PUSH2 0x420C JUMP JUMPDEST DUP6 PUSH2 0x274B JUMP JUMPDEST PUSH1 0x40 MLOAD PUSH3 0x461BCD PUSH1 0xE5 SHL DUP2 MSTORE PUSH1 0x4 DUP2 ADD DUP5 SWAP1 MSTORE PUSH1 0x1A PUSH1 0x24 DUP3 ADD MSTORE PUSH32 0x5265766F636174696F6E20726561736F6E207265717569726564000000000000 PUSH1 0x44 DUP3 ADD MSTORE PUSH1 0x64 SWAP1 REVERT JUMPDEST CALLVALUE PUSH2 0x1E3 JUMPI PUSH1 0x0 CALLDATASIZE PUSH1 0x3 NOT ADD SLT PUSH2 0x1E3 JUMPI PUSH1 0x20 PUSH1 0xD SLOAD PUSH1 0x40 MLOAD SWAP1 DUP2 MSTORE RETURN JUMPDEST CALLVALUE PUSH2 0x1E3 JUMPI PUSH1 0x60 CALLDATASIZE PUSH1 0x3 NOT ADD SLT PUSH2 0x1E3 JUMPI PUSH2 0x2959 PUSH2 0x3AFF JUMP JUMPDEST PUSH1 0x44 CALLDATALOAD PUSH1 0x1 PUSH1 0x1 PUSH1 0x40 SHL SUB DUP2 GT PUSH2 0x1E3 JUMPI PUSH1 0x20 SWAP2 PUSH2 0x297E PUSH2 0x1D9 SWAP3 CALLDATASIZE SWAP1 PUSH1 0x4 ADD PUSH2 0x3A60 JUMP JUMPDEST SWAP1 PUSH1 0x4 CALLDATALOAD PUSH2 0x438A JUMP JUMPDEST CALLVALUE PUSH2 0x1E3 JUMPI PUSH1 0x20 CALLDATASIZE PUSH1 0x3 NOT ADD SLT PUSH2 0x1E3 JUMPI PUSH1 0x4 CALLDATALOAD PUSH1 0x1 PUSH1 0x1 PUSH1 0x40 SHL SUB DUP2 GT PUSH2 0x1E3 JUMPI PUSH1 0x20 PUSH2 0x29BC PUSH2 0x29CF SWAP3 CALLDATASIZE SWAP1 PUSH1 0x4 ADD PUSH2 0x3A60 JUMP JUMPDEST DUP2 PUSH1 0x40 MLOAD SWAP4 DUP3 DUP6 DUP1 SWAP5 MLOAD SWAP4 DUP5 SWAP3 ADD PUSH2 0x3AB6 JUMP JUMPDEST DUP2 ADD PUSH1 0x9 DUP2 MSTORE SUB ADD SWAP1 KECCAK256 PUSH1 0x40 MLOAD SWAP1 PUSH2 0x29EB DUP3 PUSH2 0x5E2 DUP2 DUP5 PUSH2 0x3D04 JUMP JUMPDEST PUSH2 0x519 PUSH1 0x2 PUSH1 0x1 DUP4 ADD SLOAD SWAP3 ADD SLOAD PUSH1 0x40 MLOAD SWAP4 DUP5 SWAP4 PUSH1 0xFF PUSH1 0x1 DUP1 PUSH1 0xA0 SHL SUB DUP5 PUSH1 0x8 SHR AND SWAP4 AND SWAP2 DUP6 PUSH2 0x3E00 JUMP JUMPDEST CALLVALUE PUSH2 0x1E3 JUMPI PUSH1 0x0 CALLDATASIZE PUSH1 0x3 NOT ADD SLT PUSH2 0x1E3 JUMPI PUSH1 0xFF PUSH1 0x7 SLOAD AND PUSH2 0x2A36 DUP2 ISZERO PUSH2 0x41C9 JUMP JUMPDEST PUSH1 0xFF PUSH1 0x4 SLOAD AND SWAP1 PUSH2 0x519 PUSH1 0x5 SLOAD PUSH1 0x6 SLOAD SWAP3 PUSH1 0x40 MLOAD SWAP4 PUSH2 0x2A5F DUP6 PUSH2 0x2A58 DUP2 PUSH2 0x3BD9 JUMP JUMPDEST SUB DUP7 PUSH2 0x3A3F JUMP JUMPDEST PUSH1 0x40 MLOAD SWAP3 PUSH2 0x16EE DUP5 PUSH2 0x16E7 DUP2 PUSH2 0x3C7D JUMP JUMPDEST CALLVALUE PUSH2 0x1E3 JUMPI PUSH1 0x40 CALLDATASIZE PUSH1 0x3 NOT ADD SLT PUSH2 0x1E3 JUMPI PUSH2 0x2A89 PUSH2 0x3B15 JUMP JUMPDEST PUSH1 0x1 PUSH1 0x1 PUSH1 0xA0 SHL SUB DUP2 AND PUSH1 0x0 DUP2 DUP2 MSTORE PUSH1 0xE PUSH1 0x20 MSTORE PUSH1 0x40 SWAP1 KECCAK256 SLOAD PUSH1 0x24 CALLDATALOAD SWAP3 PUSH2 0x2AC6 SWAP2 PUSH2 0x2AB5 SWAP1 DUP6 LT PUSH2 0x4479 JUMP JUMPDEST PUSH2 0x2ABD PUSH2 0x4514 JUMP JUMPDEST SWAP1 DUP5 CALLER SWAP2 PUSH2 0x44BA JUMP JUMPDEST ISZERO PUSH2 0x2DAF JUMPI PUSH1 0x0 MSTORE PUSH1 0xE PUSH1 0x20 MSTORE DUP1 PUSH1 0x40 PUSH1 0x0 KECCAK256 SWAP1 PUSH2 0x2AE3 SWAP2 PUSH2 0x3B6D JUMP JUMPDEST POP SWAP1 PUSH1 0x0 MSTORE PUSH1 0xF PUSH1 0x20 MSTORE PUSH1 0x40 PUSH1 0x0 KECCAK256 SWAP1 PUSH1 0x1 DUP2 ADD SLOAD PUSH1 0xFF AND SWAP2 PUSH1 0x2 DUP3 ADD SLOAD SWAP1 DUP1 DUP1 PUSH1 0x3 DUP6 ADD SLOAD SWAP5 PUSH1 0x40 MLOAD PUSH2 0x2B18 DUP2 DUP1 SWAP4 PUSH2 0x3D04 JUMP JUMPDEST SUB PUSH2 0x2B23 SWAP1 DUP3 PUSH2 0x3A3F JUMP JUMPDEST PUSH1 0x40 MLOAD DUP1 PUSH2 0x2B31 DUP2 DUP6 PUSH2 0x3D04 JUMP JUMPDEST SUB PUSH2 0x2B3C SWAP1 DUP3 PUSH2 0x3A3F JUMP JUMPDEST PUSH1 0x40 MLOAD DUP1 PUSH2 0x2B4D DUP2 PUSH1 0x1 DUP8 ADD PUSH2 0x3D04 JUMP JUMPDEST SUB PUSH2 0x2B58 SWAP1 DUP3 PUSH2 0x3A3F JUMP JUMPDEST PUSH1 0x40 MLOAD DUP1 PUSH2 0x2B69 DUP2 PUSH1 0x2 DUP9 ADD PUSH2 0x3D04 JUMP JUMPDEST SUB PUSH2 0x2B74 SWAP1 DUP3 PUSH2 0x3A3F JUMP JUMPDEST PUSH1 0x40 MLOAD DUP1 PUSH2 0x2B85 DUP2 PUSH1 0x3 DUP10 ADD PUSH2 0x3D04 JUMP JUMPDEST SUB PUSH2 0x2B90 SWAP1 DUP3 PUSH2 0x3A3F JUMP JUMPDEST PUSH1 0x40 MLOAD SWAP1 DUP2 PUSH2 0x2BA2 DUP2 PUSH1 0x4 DUP11 ADD PUSH2 0x3D04 JUMP JUMPDEST SUB PUSH2 0x2BAD SWAP1 DUP4 PUSH2 0x3A3F JUMP JUMPDEST PUSH1 0x40 MLOAD SWAP3 DUP4 PUSH2 0x2BBF DUP2 PUSH1 0x5 DUP12 ADD PUSH2 0x3D04 JUMP JUMPDEST SUB PUSH2 0x2BCA SWAP1 DUP6 PUSH2 0x3A3F JUMP JUMPDEST PUSH1 0x40 MLOAD SWAP5 DUP6 PUSH2 0x2BDC DUP2 PUSH1 0x6 DUP13 ADD PUSH2 0x3D04 JUMP JUMPDEST SUB PUSH2 0x2BE7 SWAP1 DUP8 PUSH2 0x3A3F JUMP JUMPDEST PUSH1 0x40 MLOAD SWAP7 DUP8 PUSH2 0x2BF9 DUP2 PUSH1 0x7 DUP14 ADD PUSH2 0x3D04 JUMP JUMPDEST SUB PUSH2 0x2C04 SWAP1 DUP10 PUSH2 0x3A3F JUMP JUMPDEST PUSH1 0x40 MLOAD SWAP9 DUP10 PUSH2 0x2C16 DUP2 PUSH1 0x8 DUP15 ADD PUSH2 0x3D04 JUMP JUMPDEST SUB PUSH2 0x2C21 SWAP1 DUP12 PUSH2 0x3A3F JUMP JUMPDEST PUSH1 0x40 MLOAD DUP1 PUSH1 0x9 DUP2 SWAP14 ADD SWAP1 PUSH2 0x2C34 SWAP2 PUSH2 0x3D04 JUMP JUMPDEST SUB PUSH2 0x2C3F SWAP1 DUP13 PUSH2 0x3A3F JUMP JUMPDEST PUSH1 0x40 MLOAD DUP1 PUSH1 0xA DUP2 SWAP15 ADD SWAP1 PUSH2 0x2C52 SWAP2 PUSH2 0x3D04 JUMP JUMPDEST SUB PUSH2 0x2C5D SWAP1 DUP14 PUSH2 0x3A3F JUMP JUMPDEST PUSH1 0x40 MLOAD DUP1 DUP1 SWAP15 PUSH1 0xB DUP3 SWAP2 ADD SWAP1 PUSH2 0x2C72 SWAP2 PUSH2 0x3D04 JUMP JUMPDEST SUB PUSH2 0x2C7C SWAP2 PUSH2 0x3A3F JUMP JUMPDEST PUSH1 0x40 MLOAD DUP1 PUSH1 0x80 MSTORE PUSH2 0x200 DUP1 SWAP2 MSTORE PUSH1 0x80 MLOAD ADD PUSH2 0x2C96 SWAP2 PUSH2 0x3D9A JUMP JUMPDEST PUSH1 0x80 MLOAD DUP1 DUP3 SUB SWAP1 PUSH1 0x20 ADD MSTORE PUSH2 0x2CAA SWAP2 PUSH2 0x3D9A JUMP JUMPDEST PUSH1 0x80 MLOAD DUP1 DUP3 SUB SWAP1 PUSH1 0x40 ADD MSTORE PUSH2 0x2CBE SWAP2 PUSH2 0x3D9A JUMP JUMPDEST PUSH1 0x80 MLOAD DUP1 DUP3 SUB SWAP1 PUSH1 0x60 ADD MSTORE PUSH2 0x2CD2 SWAP2 PUSH2 0x3D9A JUMP JUMPDEST PUSH1 0x80 MLOAD DUP1 DUP3 SUB SWAP1 PUSH1 0x80 ADD MSTORE PUSH2 0x2CE6 SWAP2 PUSH2 0x3D9A JUMP JUMPDEST PUSH1 0x80 MLOAD DUP1 DUP3 SUB SWAP1 PUSH1 0xA0 ADD MSTORE PUSH2 0x2CFA SWAP2 PUSH2 0x3D9A JUMP JUMPDEST PUSH1 0x80 MLOAD DUP1 DUP3 SUB SWAP1 PUSH1 0xC0 ADD MSTORE PUSH2 0x2D0E SWAP2 PUSH2 0x3D9A JUMP JUMPDEST PUSH1 0x80 MLOAD DUP1 DUP3 SUB SWAP1 PUSH1 0xE0 ADD MSTORE PUSH2 0x2D22 SWAP2 PUSH2 0x3D9A JUMP JUMPDEST PUSH1 0x80 MLOAD DUP1 DUP3 SUB SWAP1 PUSH2 0x100 ADD MSTORE PUSH2 0x2D37 SWAP2 PUSH2 0x3D9A JUMP JUMPDEST PUSH1 0x80 MLOAD DUP1 DUP3 SUB SWAP1 PUSH2 0x120 ADD MSTORE PUSH2 0x2D4C SWAP2 PUSH2 0x3D9A JUMP JUMPDEST PUSH1 0x80 MLOAD DUP1 DUP3 SUB SWAP1 PUSH2 0x140 ADD MSTORE PUSH2 0x2D61 SWAP2 PUSH2 0x3D9A JUMP JUMPDEST PUSH1 0x80 MLOAD DUP1 DUP3 SUB SWAP1 PUSH2 0x160 ADD MSTORE PUSH2 0x2D76 SWAP2 PUSH2 0x3D9A JUMP JUMPDEST PUSH1 0x80 MLOAD DUP1 DUP3 SUB SWAP1 PUSH2 0x180 ADD MSTORE PUSH2 0x2D8B SWAP2 PUSH2 0x3D9A JUMP JUMPDEST SWAP3 ISZERO ISZERO PUSH1 0x80 MLOAD PUSH2 0x1A0 ADD MSTORE PUSH1 0x80 MLOAD PUSH2 0x1C0 ADD MSTORE PUSH1 0x80 MLOAD PUSH2 0x1E0 ADD MSTORE PUSH1 0x80 MLOAD DUP1 SWAP2 SUB SWAP1 RETURN JUMPDEST PUSH1 0x40 MLOAD PUSH3 0x461BCD PUSH1 0xE5 SHL DUP2 MSTORE PUSH1 0x20 PUSH1 0x4 DUP3 ADD MSTORE PUSH1 0x30 PUSH1 0x24 DUP3 ADD MSTORE PUSH32 0x4E6F7420617574686F72697A656420746F206163636573732044726976657273 PUSH1 0x44 DUP3 ADD MSTORE PUSH16 0x204C6963656E73652064657461696C73 PUSH1 0x80 SHL PUSH1 0x64 DUP3 ADD MSTORE PUSH1 0x84 SWAP1 REVERT JUMPDEST CALLVALUE PUSH2 0x1E3 JUMPI PUSH1 0x0 CALLDATASIZE PUSH1 0x3 NOT ADD SLT PUSH2 0x1E3 JUMPI PUSH1 0x0 SLOAD PUSH1 0x40 MLOAD PUSH1 0x1 PUSH1 0x1 PUSH1 0xA0 SHL SUB SWAP1 SWAP2 AND DUP2 MSTORE PUSH1 0x20 SWAP1 RETURN JUMPDEST CALLVALUE PUSH2 0x1E3 JUMPI PUSH1 0x20 PUSH1 0xFF PUSH2 0x2E69 PUSH2 0x2E4B CALLDATASIZE PUSH2 0x3B2B JUMP JUMPDEST PUSH1 0x1 PUSH1 0x1 PUSH1 0xA0 SHL SUB SWAP1 SWAP2 AND PUSH1 0x0 SWAP1 DUP2 MSTORE PUSH1 0xA DUP6 MSTORE PUSH1 0x40 SWAP1 KECCAK256 SWAP1 PUSH2 0x3AD9 JUMP JUMPDEST SLOAD AND PUSH1 0x40 MLOAD SWAP1 ISZERO ISZERO DUP2 MSTORE RETURN JUMPDEST CALLVALUE PUSH2 0x1E3 JUMPI PUSH1 0x0 CALLDATASIZE PUSH1 0x3 NOT ADD SLT PUSH2 0x1E3 JUMPI PUSH2 0x2E8E PUSH2 0x3E35 JUMP JUMPDEST PUSH2 0x2E96 PUSH2 0x4223 JUMP JUMPDEST PUSH1 0x1 PUSH1 0xFF NOT PUSH1 0x2 SLOAD AND OR PUSH1 0x2 SSTORE PUSH32 0x62E78CEA01BEE320CD4E420270B5EA74000D11B0C9F74754EBDBFC544B05A258 PUSH1 0x20 PUSH1 0x40 MLOAD CALLER DUP2 MSTORE LOG1 STOP JUMPDEST CALLVALUE PUSH2 0x1E3 JUMPI PUSH1 0x0 CALLDATASIZE PUSH1 0x3 NOT ADD SLT PUSH2 0x1E3 JUMPI PUSH2 0x2EE8 PUSH2 0x3E35 JUMP JUMPDEST PUSH2 0x2EF0 PUSH2 0x4223 JUMP JUMPDEST PUSH2 0x2EFF PUSH1 0xFF PUSH1 0x7 SLOAD AND ISZERO PUSH2 0x41C9 JUMP JUMPDEST PUSH2 0x2F07 PUSH2 0x4267 JUMP JUMPDEST PUSH1 0x4 SLOAD PUSH1 0xFF DUP2 AND ISZERO PUSH2 0x2F65 JUMPI PUSH1 0xFF NOT AND PUSH1 0x4 SSTORE TIMESTAMP PUSH1 0x6 SSTORE PUSH32 0x4360F12F602CCECEFB32480E5314D0D3F57D38DB8F52C76D8FDF4C39596C1C28 PUSH1 0x40 MLOAD PUSH1 0x20 DUP2 MSTORE DUP1 PUSH2 0x2F53 PUSH1 0x20 DUP3 ADD PUSH2 0x3BD9 JUMP JUMPDEST SUB SWAP1 LOG1 PUSH1 0x1 DUP1 SSTORE PUSH1 0x20 PUSH1 0x40 MLOAD PUSH1 0x1 DUP2 MSTORE RETURN JUMPDEST PUSH1 0x40 MLOAD PUSH3 0x461BCD PUSH1 0xE5 SHL DUP2 MSTORE PUSH1 0x20 PUSH1 0x4 DUP3 ADD MSTORE PUSH1 0x17 PUSH1 0x24 DUP3 ADD MSTORE PUSH32 0x44494420697320616C726561647920696E616374697665000000000000000000 PUSH1 0x44 DUP3 ADD MSTORE PUSH1 0x64 SWAP1 REVERT JUMPDEST CALLVALUE PUSH2 0x1E3 JUMPI PUSH1 0x0 CALLDATASIZE PUSH1 0x3 NOT ADD SLT PUSH2 0x1E3 JUMPI PUSH2 0x2FC3 PUSH2 0x3E35 JUMP JUMPDEST PUSH1 0x0 DUP1 SLOAD PUSH1 0x1 PUSH1 0x1 PUSH1 0xA0 SHL SUB NOT DUP2 AND DUP3 SSTORE PUSH1 0x1 PUSH1 0x1 PUSH1 0xA0 SHL SUB AND PUSH32 0x8BE0079C531659141344CD1FD0A4F28419497F9722A3DAAFE3B4186F6B6457E0 DUP3 DUP1 LOG3 STOP JUMPDEST CALLVALUE PUSH2 0x1E3 JUMPI PUSH1 0x40 CALLDATASIZE PUSH1 0x3 NOT ADD SLT PUSH2 0x1E3 JUMPI PUSH2 0x301C PUSH2 0x3B15 JUMP JUMPDEST PUSH1 0x1 PUSH1 0x1 PUSH1 0xA0 SHL SUB AND PUSH1 0x0 SWAP1 DUP2 MSTORE PUSH1 0xE PUSH1 0x20 MSTORE PUSH1 0x40 SWAP1 KECCAK256 DUP1 SLOAD PUSH1 0x24 CALLDATALOAD SWAP1 DUP2 LT ISZERO PUSH2 0x1E3 JUMPI PUSH2 0x3049 SWAP2 PUSH2 0x3B6D JUMP JUMPDEST POP PUSH1 0x40 MLOAD PUSH2 0x305B DUP2 PUSH2 0x16B8 DUP2 DUP6 PUSH2 0x3D04 JUMP JUMPDEST PUSH2 0x519 PUSH1 0x5 PUSH1 0xFF PUSH1 0x1 DUP6 ADD SLOAD AND SWAP4 PUSH1 0x2 DUP2 ADD SLOAD PUSH1 0x3 DUP3 ADD SLOAD SWAP1 PUSH2 0x16EE PUSH1 0xFF PUSH1 0x4 DUP6 ADD SLOAD AND SWAP4 PUSH2 0x16E7 PUSH1 0x40 MLOAD DUP1 SWAP8 DUP2 SWAP4 ADD PUSH2 0x3D04 JUMP JUMPDEST CALLVALUE PUSH2 0x1E3 JUMPI PUSH2 0x3133 PUSH32 0x51CBCAACA6AE26944C6280C966A07B04CA5C6766D82CA497DED152579431468D PUSH2 0x30C2 CALLDATASIZE PUSH2 0x3B2B JUMP JUMPDEST SWAP3 SWAP1 PUSH2 0x30CC PUSH2 0x3E35 JUMP JUMPDEST PUSH2 0x30D4 PUSH2 0x4223 JUMP JUMPDEST PUSH2 0x30E3 PUSH1 0xFF PUSH1 0x7 SLOAD AND ISZERO PUSH2 0x41C9 JUMP JUMPDEST PUSH2 0x30EB PUSH2 0x4267 JUMP JUMPDEST PUSH1 0x1 PUSH1 0x1 PUSH1 0xA0 SHL SUB AND SWAP3 PUSH2 0x3100 DUP5 ISZERO ISZERO PUSH2 0x443B JUMP JUMPDEST DUP4 PUSH1 0x0 MSTORE PUSH1 0xA PUSH1 0x20 MSTORE PUSH2 0x3117 PUSH1 0x40 PUSH1 0x0 KECCAK256 DUP3 PUSH2 0x3AD9 JUMP JUMPDEST PUSH1 0xFF NOT DUP2 SLOAD AND SWAP1 SSTORE PUSH1 0x40 MLOAD SWAP2 DUP3 SWAP2 PUSH1 0x20 DUP4 MSTORE PUSH1 0x20 DUP4 ADD SWAP1 PUSH2 0x3D9A JUMP JUMPDEST SUB SWAP1 LOG2 PUSH1 0x1 DUP1 SSTORE PUSH1 0x20 PUSH1 0x40 MLOAD PUSH1 0x1 DUP2 MSTORE RETURN JUMPDEST CALLVALUE PUSH2 0x1E3 JUMPI PUSH1 0x0 CALLDATASIZE PUSH1 0x3 NOT ADD SLT PUSH2 0x1E3 JUMPI PUSH1 0x20 PUSH1 0xFF PUSH1 0x2 SLOAD AND PUSH1 0x40 MLOAD SWAP1 ISZERO ISZERO DUP2 MSTORE RETURN JUMPDEST CALLVALUE PUSH2 0x1E3 JUMPI PUSH1 0x0 CALLDATASIZE PUSH1 0x3 NOT ADD SLT PUSH2 0x1E3 JUMPI PUSH1 0x20 PUSH1 0x40 MLOAD PUSH2 0x3E8 DUP2 MSTORE RETURN JUMPDEST CALLVALUE PUSH2 0x1E3 JUMPI PUSH1 0x40 CALLDATASIZE PUSH1 0x3 NOT ADD SLT PUSH2 0x1E3 JUMPI PUSH1 0x4 CALLDATALOAD PUSH1 0x1 PUSH1 0x1 PUSH1 0x40 SHL SUB DUP2 GT PUSH2 0x1E3 JUMPI PUSH2 0x31B5 SWAP1 CALLDATASIZE SWAP1 PUSH1 0x4 ADD PUSH2 0x3A60 JUMP JUMPDEST PUSH2 0x31BD PUSH2 0x3AFF JUMP JUMPDEST PUSH2 0x31C5 PUSH2 0x3E35 JUMP JUMPDEST PUSH2 0x31CD PUSH2 0x4223 JUMP JUMPDEST PUSH2 0x31DC PUSH1 0xFF PUSH1 0x7 SLOAD AND ISZERO PUSH2 0x41C9 JUMP JUMPDEST PUSH2 0x31E4 PUSH2 0x4267 JUMP JUMPDEST PUSH1 0x40 MLOAD SWAP2 DUP1 MLOAD PUSH2 0x3204 PUSH2 0x596 PUSH1 0x20 SWAP6 DUP7 DUP2 DUP2 DUP8 ADD SWAP6 PUSH2 0x586 DUP2 DUP4 DUP10 PUSH2 0x3AB6 JUMP JUMPDEST PUSH1 0x1 PUSH1 0x1 PUSH1 0xA0 SHL SUB DUP4 AND SWAP3 DUP4 ISZERO PUSH2 0x32F6 JUMPI SWAP2 PUSH2 0x32C3 PUSH1 0x1 PUSH2 0x32E6 SWAP4 PUSH2 0x32B3 PUSH32 0x1C564F9C63901C7B3617B5A5A8D210F8871F28D4AFA53586ED6F670ABE7E220A SWAP7 PUSH1 0x2 PUSH1 0x40 MLOAD DUP12 DUP2 DUP10 MLOAD PUSH2 0x3258 DUP2 DUP4 DUP11 PUSH2 0x3AB6 JUMP JUMPDEST DUP2 ADD PUSH1 0x9 DUP2 MSTORE SUB ADD SWAP1 KECCAK256 ADD DUP5 PUSH1 0xFF NOT DUP3 SLOAD AND OR SWAP1 SSTORE PUSH1 0x2 PUSH1 0x40 MLOAD DUP12 DUP2 DUP10 MLOAD PUSH2 0x3281 DUP2 DUP4 DUP11 PUSH2 0x3AB6 JUMP JUMPDEST PUSH1 0x9 SWAP1 DUP3 ADD SWAP1 DUP2 MSTORE SUB ADD SWAP1 KECCAK256 ADD DUP1 SLOAD PUSH2 0x100 PUSH1 0x1 PUSH1 0xA8 SHL SUB NOT AND PUSH1 0x8 SWAP3 SWAP1 SWAP3 SHL PUSH2 0x100 PUSH1 0x1 PUSH1 0xA8 SHL SUB AND SWAP2 SWAP1 SWAP2 OR SWAP1 SSTORE JUMP JUMPDEST PUSH1 0x40 MLOAD SWAP3 DUP4 SWAP2 DUP6 MLOAD SWAP3 DUP4 SWAP2 PUSH2 0x3AB6 JUMP JUMPDEST DUP3 ADD SWAP2 PUSH1 0x9 DUP4 MSTORE DUP8 DUP2 TIMESTAMP SWAP5 SUB ADD SWAP1 KECCAK256 ADD SSTORE PUSH1 0x40 MLOAD SWAP2 DUP3 SWAP2 DUP7 DUP4 MSTORE DUP7 DUP4 ADD SWAP1 PUSH2 0x3D9A JUMP JUMPDEST SUB SWAP1 LOG2 PUSH1 0x1 DUP1 SSTORE PUSH1 0x40 MLOAD PUSH1 0x1 DUP2 MSTORE RETURN JUMPDEST PUSH1 0x40 MLOAD PUSH3 0x461BCD PUSH1 0xE5 SHL DUP2 MSTORE PUSH1 0x4 DUP2 ADD DUP7 SWAP1 MSTORE PUSH1 0x18 PUSH1 0x24 DUP3 ADD MSTORE PUSH32 0x496E76616C696420766572696669657220616464726573730000000000000000 PUSH1 0x44 DUP3 ADD MSTORE PUSH1 0x64 SWAP1 REVERT JUMPDEST CALLVALUE PUSH2 0x1E3 JUMPI PUSH1 0x0 CALLDATASIZE PUSH1 0x3 NOT ADD SLT PUSH2 0x1E3 JUMPI PUSH2 0x3354 PUSH2 0x3E35 JUMP JUMPDEST PUSH1 0x2 SLOAD PUSH1 0xFF DUP2 AND ISZERO PUSH2 0x3393 JUMPI PUSH1 0xFF NOT AND PUSH1 0x2 SSTORE PUSH32 0x5DB9EE0A495BF2E6FF9C91A7834C1BA4FDD244A5E8AA4E537BD38AEAE4B073AA PUSH1 0x20 PUSH1 0x40 MLOAD CALLER DUP2 MSTORE LOG1 STOP JUMPDEST PUSH1 0x40 MLOAD PUSH3 0x461BCD PUSH1 0xE5 SHL DUP2 MSTORE PUSH1 0x20 PUSH1 0x4 DUP3 ADD MSTORE PUSH1 0x14 PUSH1 0x24 DUP3 ADD MSTORE PUSH20 0x14185D5CD8589B194E881B9BDD081C185D5CD959 PUSH1 0x62 SHL PUSH1 0x44 DUP3 ADD MSTORE PUSH1 0x64 SWAP1 REVERT JUMPDEST CALLVALUE PUSH2 0x1E3 JUMPI PUSH1 0x0 CALLDATASIZE PUSH1 0x3 NOT ADD SLT PUSH2 0x1E3 JUMPI PUSH1 0x20 PUSH1 0x40 MLOAD PUSH1 0x32 DUP2 MSTORE RETURN JUMPDEST CALLVALUE PUSH2 0x1E3 JUMPI PUSH1 0x20 DUP1 PUSH1 0x3 NOT CALLDATASIZE ADD SLT PUSH2 0x1E3 JUMPI PUSH1 0x4 CALLDATALOAD PUSH1 0x1 PUSH1 0x1 PUSH1 0x40 SHL SUB DUP2 GT PUSH2 0x1E3 JUMPI PUSH2 0x341C SWAP1 CALLDATASIZE SWAP1 PUSH1 0x4 ADD PUSH2 0x3A60 JUMP JUMPDEST PUSH2 0x3424 PUSH2 0x3E35 JUMP JUMPDEST PUSH2 0x342C PUSH2 0x4223 JUMP JUMPDEST PUSH2 0x343B PUSH1 0xFF PUSH1 0x7 SLOAD AND ISZERO PUSH2 0x41C9 JUMP JUMPDEST PUSH2 0x3443 PUSH2 0x4267 JUMP JUMPDEST PUSH1 0x0 PUSH1 0x2 PUSH2 0x3479 DUP5 PUSH1 0x40 MLOAD PUSH2 0x3468 PUSH2 0x596 DUP8 MLOAD SWAP3 DUP5 DUP2 DUP2 DUP12 ADD SWAP6 PUSH2 0x586 DUP2 DUP4 DUP10 PUSH2 0x3AB6 JUMP JUMPDEST PUSH1 0x40 MLOAD DUP1 SWAP4 DUP2 SWAP3 DUP9 MLOAD SWAP3 DUP4 SWAP2 PUSH2 0x3AB6 JUMP JUMPDEST DUP2 ADD PUSH1 0x9 DUP2 MSTORE SUB ADD SWAP1 KECCAK256 PUSH2 0x348D DUP2 SLOAD PUSH2 0x3B9F JUMP JUMPDEST DUP1 PUSH2 0x353C JUMPI JUMPDEST POP DUP3 PUSH1 0x1 DUP3 ADD SSTORE ADD SSTORE PUSH1 0xD SLOAD DUP1 ISZERO PUSH2 0x34F7 JUMPI PUSH1 0x0 NOT ADD PUSH1 0xD SSTORE TIMESTAMP PUSH1 0x6 SSTORE PUSH1 0x40 MLOAD DUP3 DUP2 MSTORE PUSH32 0x8088DB29D4761A957C0A396FA3C5F3F369FBFCA4F1A83DAE8B4F76A31726246A SWAP2 DUP2 SWAP1 PUSH2 0x34E7 SWAP1 DUP6 DUP4 ADD SWAP1 PUSH2 0x3D9A JUMP JUMPDEST SUB SWAP1 LOG1 PUSH1 0x1 DUP1 SSTORE PUSH1 0x40 MLOAD PUSH1 0x1 DUP2 MSTORE RETURN JUMPDEST PUSH1 0x40 MLOAD PUSH3 0x461BCD PUSH1 0xE5 SHL DUP2 MSTORE PUSH1 0x4 DUP2 ADD DUP5 SWAP1 MSTORE PUSH1 0x1B PUSH1 0x24 DUP3 ADD MSTORE PUSH32 0x436F756E7465723A2064656372656D656E74206F766572666C6F770000000000 PUSH1 0x44 DUP3 ADD MSTORE PUSH1 0x64 SWAP1 REVERT JUMPDEST PUSH1 0x1F DUP2 GT PUSH1 0x1 EQ PUSH2 0x3552 JUMPI POP DUP3 DUP2 SSTORE JUMPDEST DUP6 PUSH2 0x3493 JUMP JUMPDEST DUP4 SWAP1 DUP3 DUP3 MSTORE PUSH2 0x356F PUSH1 0x1F DUP9 DUP5 KECCAK256 SWAP3 ADD PUSH1 0x5 SHR DUP3 ADD PUSH1 0x1 DUP4 ADD PUSH2 0x420C JUMP JUMPDEST DUP2 DUP4 SSTORE SSTORE PUSH2 0x354C JUMP JUMPDEST CALLVALUE PUSH2 0x1E3 JUMPI PUSH1 0x20 CALLDATASIZE PUSH1 0x3 NOT ADD SLT PUSH2 0x1E3 JUMPI PUSH1 0x4 CALLDATALOAD PUSH1 0x1 PUSH1 0x1 PUSH1 0x40 SHL SUB DUP2 GT PUSH2 0x1E3 JUMPI PUSH2 0x1D9 PUSH2 0x35AD PUSH1 0x20 SWAP3 CALLDATASIZE SWAP1 PUSH1 0x4 ADD PUSH2 0x3A60 JUMP JUMPDEST PUSH2 0x3E8D JUMP JUMPDEST CALLVALUE PUSH2 0x1E3 JUMPI PUSH1 0x40 CALLDATASIZE PUSH1 0x3 NOT ADD SLT PUSH2 0x1E3 JUMPI PUSH1 0x1 PUSH1 0x1 PUSH1 0x40 SHL SUB PUSH1 0x4 CALLDATALOAD DUP2 DUP2 GT PUSH2 0x1E3 JUMPI PUSH2 0x35E3 SWAP1 CALLDATASIZE SWAP1 PUSH1 0x4 ADD PUSH2 0x3A60 JUMP JUMPDEST SWAP1 PUSH1 0x24 SWAP2 DUP3 CALLDATALOAD DUP3 DUP2 GT PUSH2 0x1E3 JUMPI PUSH2 0x35FE SWAP1 CALLDATASIZE SWAP1 PUSH1 0x4 ADD PUSH2 0x3A60 JUMP JUMPDEST SWAP1 PUSH2 0x3607 PUSH2 0x3E35 JUMP JUMPDEST PUSH2 0x360F PUSH2 0x4223 JUMP JUMPDEST PUSH2 0x361E PUSH1 0xFF PUSH1 0x7 SLOAD AND ISZERO PUSH2 0x41C9 JUMP JUMPDEST PUSH2 0x3626 PUSH2 0x4267 JUMP JUMPDEST DUP1 MLOAD ISZERO PUSH2 0x395B JUMPI PUSH2 0x3E8 DUP1 DUP3 MLOAD GT PUSH2 0x3917 JUMPI DUP3 MLOAD ISZERO PUSH2 0x38D3 JUMPI DUP3 MLOAD GT PUSH2 0x388F JUMPI PUSH1 0x32 PUSH1 0xD SLOAD LT ISZERO PUSH2 0x384B JUMPI PUSH1 0x40 MLOAD SWAP4 PUSH2 0x365E DUP6 PUSH2 0x39ED JUMP JUMPDEST DUP3 DUP6 MSTORE PUSH1 0x20 SWAP5 DUP6 DUP2 ADD TIMESTAMP DUP2 MSTORE PUSH1 0x40 DUP3 ADD SWAP6 PUSH1 0x0 DUP8 MSTORE PUSH1 0x60 DUP4 ADD SWAP4 PUSH1 0x0 DUP6 MSTORE PUSH1 0x40 MLOAD DUP10 DUP2 DUP9 MLOAD PUSH2 0x3690 DUP2 DUP4 DUP6 DUP14 ADD PUSH2 0x3AB6 JUMP JUMPDEST DUP2 ADD PUSH1 0x9 DUP2 MSTORE SUB ADD SWAP1 KECCAK256 SWAP4 MLOAD SWAP1 DUP2 MLOAD SWAP3 DUP4 GT PUSH2 0x3837 JUMPI POP PUSH2 0x36B1 DUP5 SLOAD PUSH2 0x3B9F JUMP JUMPDEST PUSH1 0x1F DUP2 GT PUSH2 0x3807 JUMPI JUMPDEST POP DUP9 SWAP1 PUSH1 0x1F DUP4 GT PUSH1 0x1 EQ PUSH2 0x3776 JUMPI SWAP3 DUP3 PUSH1 0x2 SWAP4 PUSH32 0xB5992AA9568EACC71D59E4909DD6598B92A9412825EFE4598975018EA0918D75 SWAP11 SWAP7 SWAP4 PUSH2 0x374F SWAP9 SWAP7 PUSH1 0x0 SWAP3 PUSH2 0x376B JUMPI JUMPDEST POP POP DUP2 PUSH1 0x1 SHL SWAP2 PUSH1 0x0 NOT SWAP1 PUSH1 0x3 SHL SHR NOT AND OR DUP3 SSTORE JUMPDEST MLOAD PUSH1 0x1 DUP3 ADD SSTORE SWAP3 MLOAD SWAP3 ADD DUP1 SLOAD SWAP2 MLOAD PUSH1 0x1 PUSH1 0x1 PUSH1 0xA8 SHL SUB NOT SWAP1 SWAP3 AND PUSH1 0xFF SWAP4 ISZERO ISZERO SWAP4 SWAP1 SWAP4 AND SWAP3 SWAP1 SWAP3 OR PUSH1 0x8 SWAP2 SWAP1 SWAP2 SHL PUSH2 0x100 PUSH1 0x1 PUSH1 0xA8 SHL SUB AND OR SWAP1 SSTORE JUMP JUMPDEST PUSH1 0x1 PUSH1 0xD SLOAD ADD PUSH1 0xD SSTORE TIMESTAMP PUSH1 0x6 SSTORE PUSH2 0x34E7 PUSH1 0x40 MLOAD SWAP3 DUP4 SWAP3 DUP4 PUSH2 0x42BD JUMP JUMPDEST ADD MLOAD SWAP1 POP DUP13 DUP1 PUSH2 0x36FE JUMP JUMPDEST SWAP1 PUSH1 0x1F NOT DUP4 AND SWAP2 DUP6 PUSH1 0x0 MSTORE DUP11 PUSH1 0x0 KECCAK256 SWAP3 PUSH1 0x0 JUMPDEST DUP13 DUP3 DUP3 LT PUSH2 0x37F1 JUMPI POP POP SWAP4 PUSH32 0xB5992AA9568EACC71D59E4909DD6598B92A9412825EFE4598975018EA0918D75 SWAP11 SWAP7 SWAP4 PUSH2 0x374F SWAP9 SWAP7 SWAP4 PUSH1 0x1 SWAP4 DUP4 PUSH1 0x2 SWAP9 LT PUSH2 0x37D8 JUMPI JUMPDEST POP POP POP DUP2 SHL ADD DUP3 SSTORE PUSH2 0x3713 JUMP JUMPDEST ADD MLOAD PUSH1 0x0 NOT PUSH1 0xF8 DUP5 PUSH1 0x3 SHL AND SHR NOT AND SWAP1 SSTORE DUP13 DUP1 DUP1 PUSH2 0x37CB JUMP JUMPDEST PUSH1 0x1 DUP6 SWAP7 DUP3 SWAP4 SWAP7 DUP7 ADD MLOAD DUP2 SSTORE ADD SWAP6 ADD SWAP4 ADD PUSH2 0x3789 JUMP JUMPDEST PUSH2 0x3831 SWAP1 DUP6 PUSH1 0x0 MSTORE DUP11 PUSH1 0x0 KECCAK256 PUSH1 0x1F DUP6 ADD PUSH1 0x5 SHR DUP2 ADD SWAP2 DUP13 DUP7 LT PUSH2 0xEC0 JUMPI PUSH1 0x1F ADD PUSH1 0x5 SHR ADD SWAP1 PUSH2 0x420C JUMP JUMPDEST DUP10 PUSH2 0x36BA JUMP JUMPDEST PUSH4 0x4E487B71 PUSH1 0xE0 SHL PUSH1 0x0 SWAP1 DUP2 MSTORE PUSH1 0x41 PUSH1 0x4 MSTORE REVERT JUMPDEST PUSH1 0x40 MLOAD PUSH3 0x461BCD PUSH1 0xE5 SHL DUP2 MSTORE PUSH1 0x20 PUSH1 0x4 DUP3 ADD MSTORE PUSH1 0x1A DUP2 DUP7 ADD MSTORE PUSH32 0x4D6178696D756D20617474726962757465732072656163686564000000000000 PUSH1 0x44 DUP3 ADD MSTORE PUSH1 0x64 SWAP1 REVERT JUMPDEST PUSH1 0x40 MLOAD PUSH3 0x461BCD PUSH1 0xE5 SHL DUP2 MSTORE PUSH1 0x20 PUSH1 0x4 DUP3 ADD MSTORE PUSH1 0x18 DUP2 DUP7 ADD MSTORE PUSH32 0x4174747269627574652076616C756520746F6F206C6F6E670000000000000000 PUSH1 0x44 DUP3 ADD MSTORE PUSH1 0x64 SWAP1 REVERT JUMPDEST PUSH1 0x40 MLOAD PUSH3 0x461BCD PUSH1 0xE5 SHL DUP2 MSTORE PUSH1 0x20 PUSH1 0x4 DUP3 ADD MSTORE PUSH1 0x1F DUP2 DUP8 ADD MSTORE PUSH32 0x4174747269627574652076616C75652063616E6E6F7420626520656D70747900 PUSH1 0x44 DUP3 ADD MSTORE PUSH1 0x64 SWAP1 REVERT JUMPDEST PUSH1 0x40 MLOAD PUSH3 0x461BCD PUSH1 0xE5 SHL DUP2 MSTORE PUSH1 0x20 PUSH1 0x4 DUP3 ADD MSTORE PUSH1 0x17 DUP2 DUP8 ADD MSTORE PUSH32 0x417474726962757465206E616D6520746F6F206C6F6E67000000000000000000 PUSH1 0x44 DUP3 ADD MSTORE PUSH1 0x64 SWAP1 REVERT JUMPDEST PUSH1 0x40 MLOAD PUSH3 0x461BCD PUSH1 0xE5 SHL DUP2 MSTORE PUSH1 0x20 PUSH1 0x4 DUP3 ADD MSTORE PUSH1 0x1E DUP2 DUP7 ADD MSTORE PUSH32 0x417474726962757465206E616D652063616E6E6F7420626520656D7074790000 PUSH1 0x44 DUP3 ADD MSTORE PUSH1 0x64 SWAP1 REVERT JUMPDEST CALLVALUE PUSH2 0x1E3 JUMPI PUSH1 0x20 CALLDATASIZE PUSH1 0x3 NOT ADD SLT PUSH2 0x1E3 JUMPI PUSH1 0x4 CALLDATALOAD PUSH1 0x1 PUSH1 0x1 PUSH1 0x40 SHL SUB DUP2 GT PUSH2 0x1E3 JUMPI PUSH1 0xFF PUSH2 0x39D7 PUSH1 0x20 PUSH2 0x29BC DUP2 SWAP5 CALLDATASIZE SWAP1 PUSH1 0x4 ADD PUSH2 0x3A60 JUMP JUMPDEST DUP2 ADD PUSH1 0xB DUP2 MSTORE SUB ADD SWAP1 KECCAK256 SLOAD AND PUSH1 0x40 MLOAD SWAP1 ISZERO ISZERO DUP2 MSTORE RETURN JUMPDEST PUSH1 0x80 DUP2 ADD SWAP1 DUP2 LT PUSH1 0x1 PUSH1 0x1 PUSH1 0x40 SHL SUB DUP3 GT OR PUSH2 0xECA JUMPI PUSH1 0x40 MSTORE JUMP JUMPDEST PUSH2 0x180 DUP2 ADD SWAP1 DUP2 LT PUSH1 0x1 PUSH1 0x1 PUSH1 0x40 SHL SUB DUP3 GT OR PUSH2 0xECA JUMPI PUSH1 0x40 MSTORE JUMP JUMPDEST PUSH1 0x40 DUP2 ADD SWAP1 DUP2 LT PUSH1 0x1 PUSH1 0x1 PUSH1 0x40 SHL SUB DUP3 GT OR PUSH2 0xECA JUMPI PUSH1 0x40 MSTORE JUMP JUMPDEST SWAP1 PUSH1 0x1F DUP1 NOT SWAP2 ADD AND DUP2 ADD SWAP1 DUP2 LT PUSH1 0x1 PUSH1 0x1 PUSH1 0x40 SHL SUB DUP3 GT OR PUSH2 0xECA JUMPI PUSH1 0x40 MSTORE JUMP JUMPDEST DUP2 PUSH1 0x1F DUP3 ADD SLT ISZERO PUSH2 0x1E3 JUMPI DUP1 CALLDATALOAD SWAP1 PUSH1 0x1 PUSH1 0x1 PUSH1 0x40 SHL SUB DUP3 GT PUSH2 0xECA JUMPI PUSH1 0x40 MLOAD SWAP3 PUSH2 0x3A94 PUSH1 0x1F DUP5 ADD PUSH1 0x1F NOT AND PUSH1 0x20 ADD DUP6 PUSH2 0x3A3F JUMP JUMPDEST DUP3 DUP5 MSTORE PUSH1 0x20 DUP4 DUP4 ADD ADD GT PUSH2 0x1E3 JUMPI DUP2 PUSH1 0x0 SWAP3 PUSH1 0x20 DUP1 SWAP4 ADD DUP4 DUP7 ADD CALLDATACOPY DUP4 ADD ADD MSTORE SWAP1 JUMP JUMPDEST PUSH1 0x0 JUMPDEST DUP4 DUP2 LT PUSH2 0x3AC9 JUMPI POP POP PUSH1 0x0 SWAP2 ADD MSTORE JUMP JUMPDEST DUP2 DUP2 ADD MLOAD DUP4 DUP3 ADD MSTORE PUSH1 0x20 ADD PUSH2 0x3AB9 JUMP JUMPDEST PUSH1 0x20 SWAP1 PUSH2 0x3AF3 SWAP3 DUP3 PUSH1 0x40 MLOAD SWAP5 DUP4 DUP7 DUP1 SWAP6 MLOAD SWAP4 DUP5 SWAP3 ADD PUSH2 0x3AB6 JUMP JUMPDEST DUP3 ADD SWAP1 DUP2 MSTORE SUB ADD SWAP1 KECCAK256 SWAP1 JUMP JUMPDEST PUSH1 0x24 CALLDATALOAD SWAP1 PUSH1 0x1 PUSH1 0x1 PUSH1 0xA0 SHL SUB DUP3 AND DUP3 SUB PUSH2 0x1E3 JUMPI JUMP JUMPDEST PUSH1 0x4 CALLDATALOAD SWAP1 PUSH1 0x1 PUSH1 0x1 PUSH1 0xA0 SHL SUB DUP3 AND DUP3 SUB PUSH2 0x1E3 JUMPI JUMP JUMPDEST SWAP1 PUSH1 0x40 PUSH1 0x3 NOT DUP4 ADD SLT PUSH2 0x1E3 JUMPI PUSH1 0x4 CALLDATALOAD PUSH1 0x1 PUSH1 0x1 PUSH1 0xA0 SHL SUB DUP2 AND DUP2 SUB PUSH2 0x1E3 JUMPI SWAP2 PUSH1 0x24 CALLDATALOAD SWAP1 PUSH1 0x1 PUSH1 0x1 PUSH1 0x40 SHL SUB DUP3 GT PUSH2 0x1E3 JUMPI PUSH2 0x3B6A SWAP2 PUSH1 0x4 ADD PUSH2 0x3A60 JUMP JUMPDEST SWAP1 JUMP JUMPDEST DUP1 SLOAD DUP3 LT ISZERO PUSH2 0x3B89 JUMPI PUSH1 0x0 MSTORE PUSH1 0x6 PUSH1 0x20 PUSH1 0x0 KECCAK256 SWAP2 MUL ADD SWAP1 PUSH1 0x0 SWAP1 JUMP JUMPDEST PUSH4 0x4E487B71 PUSH1 0xE0 SHL PUSH1 0x0 MSTORE PUSH1 0x32 PUSH1 0x4 MSTORE PUSH1 0x24 PUSH1 0x0 REVERT JUMPDEST SWAP1 PUSH1 0x1 DUP3 DUP2 SHR SWAP3 AND DUP1 ISZERO PUSH2 0x3BCF JUMPI JUMPDEST PUSH1 0x20 DUP4 LT EQ PUSH2 0x3BB9 JUMPI JUMP JUMPDEST PUSH4 0x4E487B71 PUSH1 0xE0 SHL PUSH1 0x0 MSTORE PUSH1 0x22 PUSH1 0x4 MSTORE PUSH1 0x24 PUSH1 0x0 REVERT JUMPDEST SWAP2 PUSH1 0x7F AND SWAP2 PUSH2 0x3BAE JUMP JUMPDEST PUSH1 0x3 SLOAD PUSH1 0x0 SWAP3 SWAP2 PUSH2 0x3BE9 DUP3 PUSH2 0x3B9F JUMP JUMPDEST DUP1 DUP3 MSTORE SWAP2 PUSH1 0x1 SWAP1 DUP2 DUP2 AND SWAP1 DUP2 ISZERO PUSH2 0x3C60 JUMPI POP PUSH1 0x1 EQ PUSH2 0x3C07 JUMPI POP POP POP JUMP JUMPDEST SWAP2 SWAP3 SWAP4 POP PUSH1 0x3 PUSH1 0x0 MSTORE PUSH32 0xC2575A0E9E593C00F959F8C92F12DB2869C3395A3B0502D05E2516446F71F85B SWAP2 PUSH1 0x0 SWAP3 JUMPDEST DUP5 DUP5 LT PUSH2 0x3C48 JUMPI POP POP PUSH1 0x20 SWAP3 POP ADD ADD SWAP1 JUMP JUMPDEST DUP1 SLOAD PUSH1 0x20 DUP6 DUP6 ADD DUP2 ADD SWAP2 SWAP1 SWAP2 MSTORE SWAP1 SWAP4 ADD SWAP3 DUP2 ADD PUSH2 0x3C36 JUMP JUMPDEST SWAP2 POP POP PUSH1 0x20 SWAP4 SWAP5 POP PUSH1 0xFF SWAP3 SWAP2 SWAP3 NOT AND DUP4 DUP4 ADD MSTORE ISZERO ISZERO PUSH1 0x5 SHL ADD ADD SWAP1 JUMP JUMPDEST PUSH1 0x8 SLOAD PUSH1 0x0 SWAP3 SWAP2 PUSH2 0x3C8D DUP3 PUSH2 0x3B9F JUMP JUMPDEST DUP1 DUP3 MSTORE SWAP2 PUSH1 0x1 SWAP1 DUP2 DUP2 AND SWAP1 DUP2 ISZERO PUSH2 0x3C60 JUMPI POP PUSH1 0x1 EQ PUSH2 0x3CAB JUMPI POP POP POP JUMP JUMPDEST SWAP2 SWAP3 SWAP4 POP PUSH1 0x8 PUSH1 0x0 MSTORE PUSH32 0xF3F7A9FE364FAAB93B216DA50A3214154F22A0A2B415B23A84C8169E8B636EE3 SWAP2 PUSH1 0x0 SWAP3 JUMPDEST DUP5 DUP5 LT PUSH2 0x3CEC JUMPI POP POP PUSH1 0x20 SWAP3 POP ADD ADD SWAP1 JUMP JUMPDEST DUP1 SLOAD PUSH1 0x20 DUP6 DUP6 ADD DUP2 ADD SWAP2 SWAP1 SWAP2 MSTORE SWAP1 SWAP4 ADD SWAP3 DUP2 ADD PUSH2 0x3CDA JUMP JUMPDEST SWAP1 PUSH1 0x0 SWAP3 SWAP2 DUP1 SLOAD SWAP2 PUSH2 0x3D15 DUP4 PUSH2 0x3B9F JUMP JUMPDEST SWAP2 DUP3 DUP3 MSTORE PUSH1 0x1 SWAP4 DUP5 DUP2 AND SWAP1 DUP2 PUSH1 0x0 EQ PUSH2 0x3D77 JUMPI POP PUSH1 0x1 EQ PUSH2 0x3D37 JUMPI JUMPDEST POP POP POP POP JUMP JUMPDEST SWAP1 SWAP2 SWAP4 SWAP5 POP PUSH1 0x0 MSTORE PUSH1 0x20 SWAP3 DUP4 PUSH1 0x0 KECCAK256 SWAP3 DUP5 PUSH1 0x0 SWAP5 JUMPDEST DUP4 DUP7 LT PUSH2 0x3D63 JUMPI POP POP POP POP ADD ADD SWAP1 CODESIZE DUP1 DUP1 DUP1 PUSH2 0x3D31 JUMP JUMPDEST DUP1 SLOAD DUP6 DUP8 ADD DUP4 ADD MSTORE SWAP5 ADD SWAP4 DUP6 SWAP1 DUP3 ADD PUSH2 0x3D4C JUMP JUMPDEST SWAP3 SWAP5 POP POP POP PUSH1 0x20 SWAP4 SWAP5 POP PUSH1 0xFF NOT AND DUP4 DUP4 ADD MSTORE ISZERO ISZERO PUSH1 0x5 SHL ADD ADD SWAP1 CODESIZE DUP1 DUP1 DUP1 PUSH2 0x3D31 JUMP JUMPDEST SWAP1 PUSH1 0x20 SWAP2 PUSH2 0x3DB3 DUP2 MLOAD DUP1 SWAP3 DUP2 DUP6 MSTORE DUP6 DUP1 DUP7 ADD SWAP2 ADD PUSH2 0x3AB6 JUMP JUMPDEST PUSH1 0x1F ADD PUSH1 0x1F NOT AND ADD ADD SWAP1 JUMP JUMPDEST SWAP3 PUSH2 0x3DDA PUSH2 0x3B6A SWAP8 SWAP6 SWAP3 SWAP7 SWAP4 SWAP7 PUSH1 0xC0 DUP7 MSTORE PUSH1 0xC0 DUP7 ADD SWAP1 PUSH2 0x3D9A JUMP JUMPDEST SWAP6 ISZERO ISZERO PUSH1 0x20 DUP6 ADD MSTORE PUSH1 0x40 DUP5 ADD MSTORE PUSH1 0x60 DUP4 ADD MSTORE ISZERO ISZERO PUSH1 0x80 DUP3 ADD MSTORE PUSH1 0xA0 DUP2 DUP5 SUB SWAP2 ADD MSTORE PUSH2 0x3D9A JUMP JUMPDEST SWAP3 PUSH2 0x3E18 PUSH1 0x60 SWAP4 SWAP7 SWAP6 SWAP3 PUSH1 0x80 DUP7 MSTORE PUSH1 0x80 DUP7 ADD SWAP1 PUSH2 0x3D9A JUMP JUMPDEST PUSH1 0x20 DUP6 ADD SWAP7 SWAP1 SWAP7 MSTORE ISZERO ISZERO PUSH1 0x40 DUP5 ADD MSTORE PUSH1 0x1 PUSH1 0x1 PUSH1 0xA0 SHL SUB AND SWAP2 ADD MSTORE JUMP JUMPDEST PUSH1 0x0 SLOAD PUSH1 0x1 PUSH1 0x1 PUSH1 0xA0 SHL SUB AND CALLER SUB PUSH2 0x3E49 JUMPI JUMP JUMPDEST PUSH1 0x64 PUSH1 0x40 MLOAD PUSH3 0x461BCD PUSH1 0xE5 SHL DUP2 MSTORE PUSH1 0x20 PUSH1 0x4 DUP3 ADD MSTORE PUSH1 0x20 PUSH1 0x24 DUP3 ADD MSTORE PUSH32 0x4F776E61626C653A2063616C6C6572206973206E6F7420746865206F776E6572 PUSH1 0x44 DUP3 ADD MSTORE REVERT JUMPDEST PUSH2 0x3E95 PUSH2 0x4223 JUMP JUMPDEST PUSH2 0x3EA4 PUSH1 0xFF PUSH1 0x7 SLOAD AND ISZERO PUSH2 0x41C9 JUMP JUMPDEST PUSH2 0x3EAC PUSH2 0x4267 JUMP JUMPDEST DUP1 MLOAD ISZERO PUSH2 0x4184 JUMPI PUSH1 0x64 DUP2 MLOAD GT PUSH2 0x4149 JUMPI PUSH1 0x40 MLOAD SWAP1 DUP1 MLOAD PUSH1 0xFF PUSH1 0x20 SWAP4 DUP5 DUP2 DUP2 DUP7 ADD SWAP5 PUSH2 0x3ED8 DUP2 DUP4 DUP9 PUSH2 0x3AB6 JUMP JUMPDEST DUP2 ADD PUSH1 0xC DUP2 MSTORE SUB ADD SWAP1 KECCAK256 SLOAD AND PUSH2 0x4104 JUMPI PUSH1 0x3 DUP1 SLOAD PUSH2 0x3EF5 DUP2 PUSH2 0x3B9F JUMP JUMPDEST PUSH2 0x40CA JUMPI DUP4 MLOAD SWAP1 PUSH1 0x1 PUSH1 0x1 PUSH1 0x40 SHL SUB DUP3 GT PUSH2 0xECA JUMPI PUSH2 0x3F13 SWAP1 PUSH2 0x3B9F JUMP JUMPDEST PUSH1 0x1F DUP2 GT PUSH2 0x407D JUMPI JUMPDEST POP DUP5 PUSH1 0x1F DUP3 GT PUSH1 0x1 EQ PUSH2 0x3FD6 JUMPI SWAP2 DUP2 PUSH2 0x3FBF SWAP5 SWAP3 PUSH32 0x44CA9609D2FE597457041D7E98533A969452EF425C10A46D0DD9F074497EA1BA SWAP7 SWAP5 PUSH1 0x0 SWAP2 PUSH2 0x3FCB JUMPI JUMPDEST POP DUP2 PUSH1 0x1 SHL SWAP2 PUSH1 0x0 NOT SWAP1 DUP5 SHL SHR NOT AND OR SWAP1 SSTORE JUMPDEST TIMESTAMP PUSH1 0x5 SSTORE TIMESTAMP PUSH1 0x6 SSTORE PUSH1 0x1 PUSH2 0x3F9B DUP7 PUSH1 0xFF NOT SWAP4 DUP4 DUP6 PUSH1 0x4 SLOAD AND OR PUSH1 0x4 SSTORE PUSH1 0x40 MLOAD DUP1 SWAP4 DUP2 SWAP3 DUP9 MLOAD SWAP3 DUP4 SWAP2 PUSH2 0x3AB6 JUMP JUMPDEST DUP2 ADD PUSH1 0xC DUP2 MSTORE SUB ADD SWAP1 KECCAK256 SWAP2 DUP3 SLOAD AND OR SWAP1 SSTORE PUSH1 0x40 MLOAD SWAP2 DUP3 SWAP2 DUP6 DUP4 MSTORE CALLER SWAP6 DUP4 ADD SWAP1 PUSH2 0x3D9A JUMP JUMPDEST SUB SWAP1 LOG2 PUSH1 0x1 DUP1 SSTORE PUSH1 0x1 SWAP1 JUMP JUMPDEST SWAP1 POP DUP5 ADD MLOAD CODESIZE PUSH2 0x3F5B JUMP JUMPDEST PUSH1 0x1F NOT DUP3 AND SWAP1 DUP4 PUSH1 0x0 MSTORE PUSH32 0xC2575A0E9E593C00F959F8C92F12DB2869C3395A3B0502D05E2516446F71F85B SWAP2 PUSH1 0x0 JUMPDEST DUP9 DUP3 DUP3 LT PUSH2 0x4067 JUMPI POP POP SWAP3 PUSH32 0x44CA9609D2FE597457041D7E98533A969452EF425C10A46D0DD9F074497EA1BA SWAP7 SWAP5 SWAP3 PUSH1 0x1 SWAP3 DUP3 PUSH2 0x3FBF SWAP9 SWAP7 LT PUSH2 0x404F JUMPI JUMPDEST POP POP DUP2 SHL ADD SWAP1 SSTORE PUSH2 0x3F6E JUMP JUMPDEST DUP7 ADD MLOAD PUSH1 0x0 NOT DUP4 DUP7 SHL PUSH1 0xF8 AND SHR NOT AND SWAP1 SSTORE CODESIZE DUP1 PUSH2 0x4043 JUMP JUMPDEST PUSH1 0x1 DUP5 SWAP6 DUP3 SWAP4 SWAP6 DUP12 ADD MLOAD DUP2 SSTORE ADD SWAP5 ADD SWAP3 ADD PUSH2 0x4005 JUMP JUMPDEST PUSH2 0x40C4 SWAP1 DUP4 PUSH1 0x0 MSTORE PUSH32 0xC2575A0E9E593C00F959F8C92F12DB2869C3395A3B0502D05E2516446F71F85B PUSH1 0x1F DUP5 ADD PUSH1 0x5 SHR DUP2 ADD SWAP2 DUP9 DUP6 LT PUSH2 0xEC0 JUMPI PUSH1 0x1F ADD PUSH1 0x5 SHR ADD SWAP1 PUSH2 0x420C JUMP JUMPDEST CODESIZE PUSH2 0x3F1C JUMP JUMPDEST PUSH1 0x40 MLOAD PUSH3 0x461BCD PUSH1 0xE5 SHL DUP2 MSTORE PUSH1 0x4 DUP2 ADD DUP7 SWAP1 MSTORE PUSH1 0x12 PUSH1 0x24 DUP3 ADD MSTORE PUSH18 0x44494420616C726561647920657869737473 PUSH1 0x70 SHL PUSH1 0x44 DUP3 ADD MSTORE PUSH1 0x64 SWAP1 REVERT JUMPDEST PUSH1 0x40 MLOAD PUSH3 0x461BCD PUSH1 0xE5 SHL DUP2 MSTORE PUSH1 0x4 DUP2 ADD DUP5 SWAP1 MSTORE PUSH1 0x19 PUSH1 0x24 DUP3 ADD MSTORE PUSH32 0x4964656E74696669657220616C726561647920696E2075736500000000000000 PUSH1 0x44 DUP3 ADD MSTORE PUSH1 0x64 SWAP1 REVERT JUMPDEST PUSH1 0x40 MLOAD PUSH3 0x461BCD PUSH1 0xE5 SHL DUP2 MSTORE PUSH1 0x20 PUSH1 0x4 DUP3 ADD MSTORE PUSH1 0x13 PUSH1 0x24 DUP3 ADD MSTORE PUSH19 0x4964656E74696669657220746F6F206C6F6E67 PUSH1 0x68 SHL PUSH1 0x44 DUP3 ADD MSTORE PUSH1 0x64 SWAP1 REVERT JUMPDEST PUSH1 0x40 MLOAD PUSH3 0x461BCD PUSH1 0xE5 SHL DUP2 MSTORE PUSH1 0x20 PUSH1 0x4 DUP3 ADD MSTORE PUSH1 0x1A PUSH1 0x24 DUP3 ADD MSTORE PUSH32 0x4964656E7469666965722063616E6E6F7420626520656D707479000000000000 PUSH1 0x44 DUP3 ADD MSTORE PUSH1 0x64 SWAP1 REVERT JUMPDEST ISZERO PUSH2 0x41D0 JUMPI JUMP JUMPDEST PUSH1 0x40 MLOAD PUSH3 0x461BCD PUSH1 0xE5 SHL DUP2 MSTORE PUSH1 0x20 PUSH1 0x4 DUP3 ADD MSTORE PUSH1 0x14 PUSH1 0x24 DUP3 ADD MSTORE PUSH20 0x111251081A185CC81899595B881C995D9BDAD959 PUSH1 0x62 SHL PUSH1 0x44 DUP3 ADD MSTORE PUSH1 0x64 SWAP1 REVERT JUMPDEST DUP2 DUP2 LT PUSH2 0x4217 JUMPI POP POP JUMP JUMPDEST PUSH1 0x0 DUP2 SSTORE PUSH1 0x1 ADD PUSH2 0x420C JUMP JUMPDEST PUSH1 0xFF PUSH1 0x2 SLOAD AND PUSH2 0x422F JUMPI JUMP JUMPDEST PUSH1 0x40 MLOAD PUSH3 0x461BCD PUSH1 0xE5 SHL DUP2 MSTORE PUSH1 0x20 PUSH1 0x4 DUP3 ADD MSTORE PUSH1 0x10 PUSH1 0x24 DUP3 ADD MSTORE PUSH16 0x14185D5CD8589B194E881C185D5CD959 PUSH1 0x82 SHL PUSH1 0x44 DUP3 ADD MSTORE PUSH1 0x64 SWAP1 REVERT JUMPDEST PUSH1 0x2 PUSH1 0x1 SLOAD EQ PUSH2 0x4278 JUMPI PUSH1 0x2 PUSH1 0x1 SSTORE JUMP JUMPDEST PUSH1 0x40 MLOAD PUSH3 0x461BCD PUSH1 0xE5 SHL DUP2 MSTORE PUSH1 0x20 PUSH1 0x4 DUP3 ADD MSTORE PUSH1 0x1F PUSH1 0x24 DUP3 ADD MSTORE PUSH32 0x5265656E7472616E637947756172643A207265656E7472616E742063616C6C00 PUSH1 0x44 DUP3 ADD MSTORE PUSH1 0x64 SWAP1 REVERT JUMPDEST SWAP1 SWAP2 PUSH2 0x42D4 PUSH2 0x3B6A SWAP4 PUSH1 0x40 DUP5 MSTORE PUSH1 0x40 DUP5 ADD SWAP1 PUSH2 0x3D9A JUMP JUMPDEST SWAP2 PUSH1 0x20 DUP2 DUP5 SUB SWAP2 ADD MSTORE PUSH2 0x3D9A JUMP JUMPDEST ISZERO PUSH2 0x42E9 JUMPI JUMP JUMPDEST PUSH1 0x40 MLOAD PUSH3 0x461BCD PUSH1 0xE5 SHL DUP2 MSTORE PUSH1 0x20 PUSH1 0x4 DUP3 ADD MSTORE PUSH1 0x18 PUSH1 0x24 DUP3 ADD MSTORE PUSH32 0x41747472696275746520646F6573206E6F742065786973740000000000000000 PUSH1 0x44 DUP3 ADD MSTORE PUSH1 0x64 SWAP1 REVERT JUMPDEST ISZERO PUSH2 0x4335 JUMPI JUMP JUMPDEST PUSH1 0x40 MLOAD PUSH3 0x461BCD PUSH1 0xE5 SHL DUP2 MSTORE PUSH1 0x20 PUSH1 0x4 DUP3 ADD MSTORE PUSH1 0x27 PUSH1 0x24 DUP3 ADD MSTORE PUSH32 0x4E6F7420617574686F72697A656420746F206163636573732074686973206174 PUSH1 0x44 DUP3 ADD MSTORE PUSH7 0x74726962757465 PUSH1 0xC8 SHL PUSH1 0x64 DUP3 ADD MSTORE PUSH1 0x84 SWAP1 REVERT JUMPDEST SWAP2 PUSH2 0x3FBF SWAP1 PUSH2 0x4405 PUSH32 0x883D542F167DFC5F47E8BF1532C171025ED0E4C59C1126C7F61749FA21976A45 SWAP4 PUSH2 0x43BC PUSH2 0x3E35 JUMP JUMPDEST PUSH2 0x43C4 PUSH2 0x4223 JUMP JUMPDEST PUSH2 0x43D3 PUSH1 0xFF PUSH1 0x7 SLOAD AND ISZERO PUSH2 0x41C9 JUMP JUMPDEST PUSH2 0x43DB PUSH2 0x4267 JUMP JUMPDEST PUSH1 0x1 PUSH1 0x1 PUSH1 0xA0 SHL SUB AND SWAP5 PUSH2 0x43F0 DUP7 ISZERO ISZERO PUSH2 0x443B JUMP JUMPDEST CALLER PUSH1 0x0 MSTORE PUSH1 0xE PUSH1 0x20 MSTORE PUSH1 0x40 PUSH1 0x0 KECCAK256 SLOAD GT PUSH2 0x4479 JUMP JUMPDEST DUP4 PUSH1 0x0 MSTORE PUSH1 0xA PUSH1 0x20 MSTORE PUSH2 0x441C PUSH1 0x40 PUSH1 0x0 KECCAK256 DUP3 PUSH2 0x3AD9 JUMP JUMPDEST PUSH1 0x1 PUSH1 0xFF NOT DUP3 SLOAD AND OR SWAP1 SSTORE PUSH1 0x40 MLOAD SWAP2 DUP3 SWAP2 PUSH1 0x20 DUP4 MSTORE PUSH1 0x20 DUP4 ADD SWAP1 PUSH2 0x3D9A JUMP JUMPDEST ISZERO PUSH2 0x4442 JUMPI JUMP JUMPDEST PUSH1 0x40 MLOAD PUSH3 0x461BCD PUSH1 0xE5 SHL DUP2 MSTORE PUSH1 0x20 PUSH1 0x4 DUP3 ADD MSTORE PUSH1 0xF PUSH1 0x24 DUP3 ADD MSTORE PUSH15 0x496E76616C69642061646472657373 PUSH1 0x88 SHL PUSH1 0x44 DUP3 ADD MSTORE PUSH1 0x64 SWAP1 REVERT JUMPDEST ISZERO PUSH2 0x4480 JUMPI JUMP JUMPDEST PUSH1 0x40 MLOAD PUSH3 0x461BCD PUSH1 0xE5 SHL DUP2 MSTORE PUSH1 0x20 PUSH1 0x4 DUP3 ADD MSTORE PUSH1 0x12 PUSH1 0x24 DUP3 ADD MSTORE PUSH18 0x11125108191BD95CC81B9BDD08195E1A5CDD PUSH1 0x72 SHL PUSH1 0x44 DUP3 ADD MSTORE PUSH1 0x64 SWAP1 REVERT JUMPDEST PUSH1 0x1 PUSH1 0x1 PUSH1 0xA0 SHL SUB SWAP1 DUP2 AND PUSH1 0x0 DUP2 DUP2 MSTORE PUSH1 0xE PUSH1 0x20 MSTORE PUSH1 0x40 SWAP1 KECCAK256 SLOAD SWAP1 SWAP5 SWAP4 SWAP2 SWAP3 PUSH2 0x44E3 SWAP2 GT PUSH2 0x4479 JUMP JUMPDEST AND DUP1 SWAP3 EQ SWAP2 DUP3 ISZERO PUSH2 0x44F3 JUMPI POP POP SWAP1 JUMP JUMPDEST PUSH1 0xFF SWAP3 POP SWAP1 PUSH2 0x450F SWAP2 PUSH1 0x0 MSTORE PUSH1 0xA PUSH1 0x20 MSTORE PUSH1 0x40 PUSH1 0x0 KECCAK256 SWAP1 PUSH2 0x3AD9 JUMP JUMPDEST SLOAD AND SWAP1 JUMP JUMPDEST PUSH1 0x40 MLOAD SWAP1 PUSH2 0x4521 DUP3 PUSH2 0x3A24 JUMP JUMPDEST PUSH1 0x4 DUP3 MSTORE PUSH4 0x6E616D65 PUSH1 0xE0 SHL PUSH1 0x20 DUP4 ADD MSTORE JUMP JUMPDEST PUSH1 0x40 MLOAD SWAP1 PUSH2 0x4541 DUP3 PUSH2 0x3A24 JUMP JUMPDEST PUSH1 0xB DUP3 MSTORE PUSH11 0xC8C2E8CA9ECC84D2E4E8D PUSH1 0xAB SHL PUSH1 0x20 DUP4 ADD MSTORE JUMP JUMPDEST PUSH1 0x40 MLOAD SWAP1 PUSH2 0x4568 DUP3 PUSH2 0x3A24 JUMP JUMPDEST PUSH1 0x6 DUP3 MSTORE PUSH6 0x33B2B73232B9 PUSH1 0xD1 SHL PUSH1 0x20 DUP4 ADD MSTORE JUMP JUMPDEST PUSH1 0x40 MLOAD SWAP1 PUSH2 0x458A DUP3 PUSH2 0x3A24 JUMP JUMPDEST PUSH1 0x4 DUP3 MSTORE PUSH4 0x30B23239 PUSH1 0xE1 SHL PUSH1 0x20 DUP4 ADD MSTORE JUMP JUMPDEST PUSH1 0x40 MLOAD SWAP1 PUSH2 0x45AA DUP3 PUSH2 0x3A24 JUMP JUMPDEST PUSH1 0x9 DUP3 MSTORE PUSH9 0xE0D0DEE8DE90C2E6D PUSH1 0xBB SHL PUSH1 0x20 DUP4 ADD MSTORE JUMP JUMPDEST PUSH1 0x40 MLOAD SWAP1 PUSH2 0x45CF DUP3 PUSH2 0x3A24 JUMP JUMPDEST PUSH1 0xD DUP3 MSTORE PUSH13 0xE6D2CEDCC2E8EAE4CA90C2E6D PUSH1 0x9B SHL PUSH1 0x20 DUP4 ADD MSTORE JUMP JUMPDEST PUSH1 0x40 MLOAD SWAP1 PUSH2 0x45F8 DUP3 PUSH2 0x3A24 JUMP JUMPDEST PUSH1 0xD DUP3 MSTORE PUSH13 0x3634B1B2B739B2A73AB6B132B9 PUSH1 0x99 SHL PUSH1 0x20 DUP4 ADD MSTORE JUMP JUMPDEST PUSH1 0x40 MLOAD SWAP1 PUSH2 0x4621 DUP3 PUSH2 0x3A24 JUMP JUMPDEST PUSH1 0xC DUP3 MSTORE PUSH12 0x76656869636C65436C617373 PUSH1 0xA0 SHL PUSH1 0x20 DUP4 ADD MSTORE JUMP JUMPDEST PUSH1 0x40 MLOAD SWAP1 PUSH2 0x4649 DUP3 PUSH2 0x3A24 JUMP JUMPDEST PUSH1 0x9 DUP3 MSTORE PUSH9 0x697373756544617465 PUSH1 0xB8 SHL PUSH1 0x20 DUP4 ADD MSTORE JUMP JUMPDEST PUSH1 0x40 MLOAD SWAP1 PUSH2 0x466E DUP3 PUSH2 0x3A24 JUMP JUMPDEST PUSH1 0xA DUP3 MSTORE PUSH10 0x65787069727944617465 PUSH1 0xB0 SHL PUSH1 0x20 DUP4 ADD MSTORE JUMP JUMPDEST PUSH1 0x40 MLOAD SWAP1 PUSH2 0x4694 DUP3 PUSH2 0x3A24 JUMP JUMPDEST PUSH1 0xA DUP3 MSTORE PUSH10 0x626C6F6F6447726F757 PUSH1 0xB4 SHL PUSH1 0x20 DUP4 ADD MSTORE JUMP JUMPDEST PUSH1 0x40 MLOAD SWAP1 PUSH2 0x46BA DUP3 PUSH2 0x3A24 JUMP JUMPDEST PUSH1 0x10 DUP3 MSTORE PUSH16 0x195B595C99D95B98DE50DBDB9D1858DD PUSH1 0x82 SHL PUSH1 0x20 DUP4 ADD MSTORE JUMP JUMPDEST SWAP1 SWAP2 PUSH1 0x1 DUP1 PUSH1 0xA0 SHL SUB DUP3 AND PUSH1 0x0 MSTORE PUSH1 0x20 SWAP3 PUSH1 0xE DUP5 MSTORE PUSH2 0x4714 PUSH2 0x470F DUP4 PUSH1 0x40 SWAP6 PUSH2 0x4707 DUP8 PUSH1 0x0 KECCAK256 SLOAD DUP7 LT PUSH2 0x4479 JUMP JUMPDEST DUP5 CALLER SWAP2 PUSH2 0x44BA JUMP JUMPDEST PUSH2 0x432E JUMP JUMPDEST PUSH1 0x0 MSTORE PUSH1 0xF DUP4 MSTORE DUP2 PUSH1 0x0 KECCAK256 SWAP1 DUP1 MLOAD SWAP1 DUP5 DUP2 ADD SWAP2 DUP3 KECCAK256 PUSH2 0x4731 PUSH2 0x4514 JUMP JUMPDEST DUP7 DUP2 MLOAD SWAP2 ADD KECCAK256 EQ PUSH2 0x4976 JUMPI DUP1 MLOAD DUP3 KECCAK256 PUSH2 0x4748 PUSH2 0x4534 JUMP JUMPDEST DUP7 DUP2 MLOAD SWAP2 ADD KECCAK256 EQ PUSH2 0x495E JUMPI DUP1 MLOAD DUP3 KECCAK256 PUSH2 0x475F PUSH2 0x455B JUMP JUMPDEST DUP7 DUP2 MLOAD SWAP2 ADD KECCAK256 EQ PUSH2 0x4946 JUMPI DUP1 MLOAD DUP3 KECCAK256 PUSH2 0x4776 PUSH2 0x457D JUMP JUMPDEST DUP7 DUP2 MLOAD SWAP2 ADD KECCAK256 EQ PUSH2 0x492E JUMPI DUP1 MLOAD DUP3 KECCAK256 PUSH2 0x478D PUSH2 0x459D JUMP JUMPDEST DUP7 DUP2 MLOAD SWAP2 ADD KECCAK256 EQ PUSH2 0x4916 JUMPI DUP1 MLOAD DUP3 KECCAK256 PUSH2 0x47A4 PUSH2 0x45C2 JUMP JUMPDEST DUP7 DUP2 MLOAD SWAP2 ADD KECCAK256 EQ PUSH2 0x48FE JUMPI DUP1 MLOAD DUP3 KECCAK256 PUSH2 0x47BB PUSH2 0x45EB JUMP JUMPDEST DUP7 DUP2 MLOAD SWAP2 ADD KECCAK256 EQ PUSH2 0x48E6 JUMPI DUP1 MLOAD DUP3 KECCAK256 PUSH2 0x47D2 PUSH2 0x4614 JUMP JUMPDEST DUP7 DUP2 MLOAD SWAP2 ADD KECCAK256 EQ PUSH2 0x48CE JUMPI DUP1 MLOAD DUP3 KECCAK256 PUSH2 0x47E9 PUSH2 0x463C JUMP JUMPDEST DUP7 DUP2 MLOAD SWAP2 ADD KECCAK256 EQ PUSH2 0x48B6 JUMPI DUP1 MLOAD DUP3 KECCAK256 PUSH2 0x4800 PUSH2 0x4661 JUMP JUMPDEST DUP7 DUP2 MLOAD SWAP2 ADD KECCAK256 EQ PUSH2 0x489E JUMPI DUP1 MLOAD DUP3 KECCAK256 PUSH2 0x4817 PUSH2 0x4687 JUMP JUMPDEST DUP7 DUP2 MLOAD SWAP2 ADD KECCAK256 EQ PUSH2 0x4886 JUMPI MLOAD SWAP1 KECCAK256 PUSH2 0x482D PUSH2 0x46AD JUMP JUMPDEST DUP5 DUP2 MLOAD SWAP2 ADD KECCAK256 EQ PUSH2 0x4870 JUMPI DUP2 MLOAD PUSH3 0x461BCD PUSH1 0xE5 SHL DUP2 MSTORE PUSH1 0x4 DUP2 ADD DUP5 SWAP1 MSTORE PUSH1 0x11 PUSH1 0x24 DUP3 ADD MSTORE PUSH17 0x496E76616C696420617474726962757465 PUSH1 0x78 SHL PUSH1 0x44 DUP3 ADD MSTORE PUSH1 0x64 SWAP1 REVERT JUMPDEST PUSH1 0xB SWAP3 POP PUSH2 0x16B8 PUSH2 0x3B6A SWAP3 MLOAD DUP1 SWAP5 DUP2 SWAP4 ADD PUSH2 0x3D04 JUMP JUMPDEST POP POP PUSH1 0xA SWAP3 POP PUSH2 0x16B8 PUSH2 0x3B6A SWAP3 MLOAD DUP1 SWAP5 DUP2 SWAP4 ADD PUSH2 0x3D04 JUMP JUMPDEST POP POP PUSH1 0x9 SWAP3 POP PUSH2 0x16B8 PUSH2 0x3B6A SWAP3 MLOAD DUP1 SWAP5 DUP2 SWAP4 ADD PUSH2 0x3D04 JUMP JUMPDEST POP POP PUSH1 0x8 SWAP3 POP PUSH2 0x16B8 PUSH2 0x3B6A SWAP3 MLOAD DUP1 SWAP5 DUP2 SWAP4 ADD PUSH2 0x3D04 JUMP JUMPDEST POP POP PUSH1 0x7 SWAP3 POP PUSH2 0x16B8 PUSH2 0x3B6A SWAP3 MLOAD DUP1 SWAP5 DUP2 SWAP4 ADD PUSH2 0x3D04 JUMP JUMPDEST POP POP PUSH1 0x6 SWAP3 POP PUSH2 0x16B8 PUSH2 0x3B6A SWAP3 MLOAD DUP1 SWAP5 DUP2 SWAP4 ADD PUSH2 0x3D04 JUMP JUMPDEST POP POP PUSH1 0x5 SWAP3 POP PUSH2 0x16B8 PUSH2 0x3B6A SWAP3 MLOAD DUP1 SWAP5 DUP2 SWAP4 ADD PUSH2 0x3D04 JUMP JUMPDEST POP POP PUSH1 0x4 SWAP3 POP PUSH2 0x16B8 PUSH2 0x3B6A SWAP3 MLOAD DUP1 SWAP5 DUP2 SWAP4 ADD PUSH2 0x3D04 JUMP JUMPDEST POP POP PUSH1 0x3 SWAP3 POP PUSH2 0x16B8 PUSH2 0x3B6A SWAP3 MLOAD DUP1 SWAP5 DUP2 SWAP4 ADD PUSH2 0x3D04 JUMP JUMPDEST POP POP PUSH1 0x2 SWAP3 POP PUSH2 0x16B8 PUSH2 0x3B6A SWAP3 MLOAD DUP1 SWAP5 DUP2 SWAP4 ADD PUSH2 0x3D04 JUMP JUMPDEST POP POP PUSH1 0x1 SWAP3 POP PUSH2 0x16B8 PUSH2 0x3B6A SWAP3 MLOAD DUP1 SWAP5 DUP2 SWAP4 ADD PUSH2 0x3D04 JUMP JUMPDEST POP POP PUSH2 0x16B8 SWAP3 POP PUSH2 0x3B6A SWAP2 MLOAD SWAP3 DUP4 DUP1 SWAP3 PUSH2 0x3D04 JUMP INVALID LOG2 PUSH5 0x6970667358 0x22 SLT KECCAK256 0x24 0x2F POP JUMPI PUSH10 0x27A7C7D826FFB1CAB741 CALLCODE PUSH24 0x188110FAE701C0EF95662D2206F46664736F6C6343000814 STOP CALLER "},"methodIdentifiers":{"MAX_ATTRIBUTES()":"3aa1b5ca","MAX_ATTRIBUTE_LENGTH()":"4b9802f8","MAX_IDENTIFIER_LENGTH()":"f3d310bf","addAttribute(string,string)":"2ba56834","attributes(string)":"9bc3a000","authorizedAccess(address,string)":"8c15f62d","createDID(string)":"3457d3e2","createDriversLicenseDID(string,string,string,string,string,string,string,string,string,string,string,string,string)":"e57be95a","deactivateDID()":"767bc20e","getAttribute(string)":"e8a51fca","getAttributeCount()":"c93ead1b","getAttributeDetails(string)":"e3725def","getDIDDetails()":"967a455f","getDriversLicenseAttribute(address,uint256,string)":"e841382f","getDriversLicenseDetails(address,uint256)":"8e0495e5","grantAccess(uint256,address,string)":"a9595ffb","hasAccess(address,uint256,address,string)":"fb99d007","licenseDetails(uint256)":"ec031910","owner()":"8da5cb5b","pause()":"8456cb59","paused()":"5c975abb","removeAttribute(string)":"37714208","renounceOwnership()":"715018a6","revokeAccess(address,string)":"6a44cac9","revokeDID(string)":"cfe3b347","selfDID()":"e4a94adc","supportedIDTypes(string)":"0b42f3fd","transferOwnership(address)":"f2fde38b","unpause()":"3f4ba83a","updateDriversLicenseDetails(uint256,string,string,string,string,string,string,string,string,string,string,string,string)":"d1af14cf","userDIDs(address,uint256)":"6aab3cef","verifyAttribute(string,address)":"45e8846f"}}}}}