{"contracts/PANDID.sol":{"PANDID":{"abi":[{"anonymous":false,"inputs":[{"indexed":true,"internalType":"address","name":"to","type":"address"},{"indexed":false,"internalType":"string","name":"attribute","type":"string"}],"name":"AccessGranted","type":"event"},{"anonymous":false,"inputs":[{"indexed":true,"internalType":"address","name":"to","type":"address"},{"indexed":false,"internalType":"string","name":"attribute","type":"string"}],"name":"AccessRevoked","type":"event"},{"anonymous":false,"inputs":[{"indexed":false,"internalType":"string","name":"name","type":"string"},{"indexed":false,"internalType":"string","name":"value","type":"string"}],"name":"AttributeAdded","type":"event"},{"anonymous":false,"inputs":[{"indexed":false,"internalType":"string","name":"name","type":"string"}],"name":"AttributeRemoved","type":"event"},{"anonymous":false,"inputs":[{"indexed":false,"internalType":"string","name":"name","type":"string"},{"indexed":true,"internalType":"address","name":"verifier","type":"address"}],"name":"AttributeVerified","type":"event"},{"anonymous":false,"inputs":[{"indexed":false,"internalType":"string","name":"identifier","type":"string"},{"indexed":true,"internalType":"address","name":"owner","type":"address"}],"name":"DIDCreated","type":"event"},{"anonymous":false,"inputs":[{"indexed":false,"internalType":"string","name":"identifier","type":"string"}],"name":"DIDDeactivated","type":"event"},{"anonymous":false,"inputs":[{"indexed":false,"internalType":"string","name":"identifier","type":"string"},{"indexed":false,"internalType":"string","name":"reason","type":"string"}],"name":"DIDRevoked","type":"event"},{"anonymous":false,"inputs":[{"indexed":true,"internalType":"address","name":"previousOwner","type":"address"},{"indexed":true,"internalType":"address","name":"newOwner","type":"address"}],"name":"OwnershipTransferred","type":"event"},{"anonymous":false,"inputs":[{"indexed":true,"internalType":"address","name":"owner","type":"address"},{"indexed":false,"internalType":"string","name":"identifier","type":"string"},{"indexed":false,"internalType":"string","name":"panNumber","type":"string"}],"name":"PANCreated","type":"event"},{"anonymous":false,"inputs":[{"indexed":false,"internalType":"address","name":"account","type":"address"}],"name":"Paused","type":"event"},{"anonymous":false,"inputs":[{"indexed":false,"internalType":"address","name":"account","type":"address"}],"name":"Unpaused","type":"event"},{"inputs":[],"name":"MAX_ATTRIBUTES","outputs":[{"internalType":"uint256","name":"","type":"uint256"}],"stateMutability":"view","type":"function"},{"inputs":[],"name":"MAX_ATTRIBUTE_LENGTH","outputs":[{"internalType":"uint256","name":"","type":"uint256"}],"stateMutability":"view","type":"function"},{"inputs":[],"name":"MAX_IDENTIFIER_LENGTH","outputs":[{"internalType":"uint256","name":"","type":"uint256"}],"stateMutability":"view","type":"function"},{"inputs":[{"internalType":"string","name":"name","type":"string"},{"internalType":"string","name":"value","type":"string"}],"name":"addAttribute","outputs":[{"internalType":"bool","name":"","type":"bool"}],"stateMutability":"nonpayable","type":"function"},{"inputs":[{"internalType":"string","name":"","type":"string"}],"name":"attributes","outputs":[{"internalType":"string","name":"value","type":"string"},{"internalType":"uint256","name":"timestamp","type":"uint256"},{"internalType":"bool","name":"isVerified","type":"bool"},{"internalType":"address","name":"verifiedBy","type":"address"}],"stateMutability":"view","type":"function"},{"inputs":[{"internalType":"address","name":"","type":"address"},{"internalType":"string","name":"","type":"string"}],"name":"authorizedAccess","outputs":[{"internalType":"bool","name":"","type":"bool"}],"stateMutability":"view","type":"function"},{"inputs":[{"internalType":"string","name":"identifier","type":"string"}],"name":"createDID","outputs":[{"internalType":"bool","name":"","type":"bool"}],"stateMutability":"nonpayable","type":"function"},{"inputs":[{"internalType":"string","name":"identifier","type":"string"},{"internalType":"string","name":"name","type":"string"},{"internalType":"string","name":"dateOfBirth","type":"string"},{"internalType":"string","name":"gender","type":"string"},{"internalType":"string","name":"addr","type":"string"},{"internalType":"string","name":"panNumber","type":"string"}],"name":"createPANDID","outputs":[],"stateMutability":"nonpayable","type":"function"},{"inputs":[],"name":"deactivateDID","outputs":[{"internalType":"bool","name":"","type":"bool"}],"stateMutability":"nonpayable","type":"function"},{"inputs":[{"internalType":"string","name":"name","type":"string"}],"name":"getAttribute","outputs":[{"internalType":"string","name":"","type":"string"}],"stateMutability":"view","type":"function"},{"inputs":[],"name":"getAttributeCount","outputs":[{"internalType":"uint256","name":"","type":"uint256"}],"stateMutability":"view","type":"function"},{"inputs":[{"internalType":"string","name":"name","type":"string"}],"name":"getAttributeDetails","outputs":[{"internalType":"string","name":"value","type":"string"},{"internalType":"uint256","name":"timestamp","type":"uint256"},{"internalType":"bool","name":"isVerified","type":"bool"},{"internalType":"address","name":"verifiedBy","type":"address"}],"stateMutability":"view","type":"function"},{"inputs":[],"name":"getDIDDetails","outputs":[{"internalType":"string","name":"identifier","type":"string"},{"internalType":"bool","name":"active","type":"bool"},{"internalType":"uint256","name":"createdAt","type":"uint256"},{"internalType":"uint256","name":"updatedAt","type":"uint256"},{"internalType":"bool","name":"isRevoked","type":"bool"},{"internalType":"string","name":"revocationReason","type":"string"}],"stateMutability":"view","type":"function"},{"inputs":[{"internalType":"address","name":"owner","type":"address"},{"internalType":"uint256","name":"didIndex","type":"uint256"},{"internalType":"string","name":"attribute","type":"string"}],"name":"getPANAttribute","outputs":[{"internalType":"string","name":"","type":"string"}],"stateMutability":"view","type":"function"},{"inputs":[{"internalType":"address","name":"owner","type":"address"},{"internalType":"uint256","name":"didIndex","type":"uint256"}],"name":"getPANDetails","outputs":[{"internalType":"string","name":"identifier","type":"string"},{"internalType":"string","name":"name","type":"string"},{"internalType":"string","name":"dateOfBirth","type":"string"},{"internalType":"string","name":"gender","type":"string"},{"internalType":"string","name":"addr","type":"string"},{"internalType":"string","name":"panNumber","type":"string"},{"internalType":"bool","name":"active","type":"bool"},{"internalType":"uint256","name":"createdAt","type":"uint256"},{"internalType":"uint256","name":"updatedAt","type":"uint256"}],"stateMutability":"view","type":"function"},{"inputs":[{"internalType":"uint256","name":"didIndex","type":"uint256"},{"internalType":"address","name":"to","type":"address"},{"internalType":"string","name":"attribute","type":"string"}],"name":"grantAccess","outputs":[{"internalType":"bool","name":"","type":"bool"}],"stateMutability":"nonpayable","type":"function"},{"inputs":[{"internalType":"address","name":"owner","type":"address"},{"internalType":"uint256","name":"didIndex","type":"uint256"},{"internalType":"address","name":"accessor","type":"address"},{"internalType":"string","name":"attribute","type":"string"}],"name":"hasAccess","outputs":[{"internalType":"bool","name":"","type":"bool"}],"stateMutability":"view","type":"function"},{"inputs":[],"name":"owner","outputs":[{"internalType":"address","name":"","type":"address"}],"stateMutability":"view","type":"function"},{"inputs":[{"internalType":"uint256","name":"","type":"uint256"}],"name":"panDetails","outputs":[{"internalType":"string","name":"name","type":"string"},{"internalType":"string","name":"dateOfBirth","type":"string"},{"internalType":"string","name":"gender","type":"string"},{"internalType":"string","name":"addr","type":"string"},{"internalType":"string","name":"panNumber","type":"string"}],"stateMutability":"view","type":"function"},{"inputs":[],"name":"pause","outputs":[],"stateMutability":"nonpayable","type":"function"},{"inputs":[],"name":"paused","outputs":[{"internalType":"bool","name":"","type":"bool"}],"stateMutability":"view","type":"function"},{"inputs":[{"internalType":"string","name":"name","type":"string"}],"name":"removeAttribute","outputs":[{"internalType":"bool","name":"","type":"bool"}],"stateMutability":"nonpayable","type":"function"},{"inputs":[],"name":"renounceOwnership","outputs":[],"stateMutability":"nonpayable","type":"function"},{"inputs":[{"internalType":"address","name":"from","type":"address"},{"internalType":"string","name":"attribute","type":"string"}],"name":"revokeAccess","outputs":[{"internalType":"bool","name":"","type":"bool"}],"stateMutability":"nonpayable","type":"function"},{"inputs":[{"internalType":"string","name":"reason","type":"string"}],"name":"revokeDID","outputs":[{"internalType":"bool","name":"","type":"bool"}],"stateMutability":"nonpayable","type":"function"},{"inputs":[],"name":"selfDID","outputs":[{"internalType":"string","name":"identifier","type":"string"},{"internalType":"bool","name":"active","type":"bool"},{"internalType":"uint256","name":"createdAt","type":"uint256"},{"internalType":"uint256","name":"updatedAt","type":"uint256"},{"internalType":"bool","name":"isRevoked","type":"bool"},{"internalType":"string","name":"revocationReason","type":"string"}],"stateMutability":"view","type":"function"},{"inputs":[{"internalType":"string","name":"","type":"string"}],"name":"supportedIDTypes","outputs":[{"internalType":"bool","name":"","type":"bool"}],"stateMutability":"view","type":"function"},{"inputs":[{"internalType":"address","name":"newOwner","type":"address"}],"name":"transferOwnership","outputs":[],"stateMutability":"nonpayable","type":"function"},{"inputs":[],"name":"unpause","outputs":[],"stateMutability":"nonpayable","type":"function"},{"inputs":[{"internalType":"uint256","name":"didIndex","type":"uint256"},{"internalType":"string","name":"name","type":"string"},{"internalType":"string","name":"dateOfBirth","type":"string"},{"internalType":"string","name":"gender","type":"string"},{"internalType":"string","name":"addr","type":"string"},{"internalType":"string","name":"panNumber","type":"string"}],"name":"updatePANDetails","outputs":[],"stateMutability":"nonpayable","type":"function"},{"inputs":[{"internalType":"address","name":"","type":"address"},{"internalType":"uint256","name":"","type":"uint256"}],"name":"userDIDs","outputs":[{"internalType":"string","name":"identifier","type":"string"},{"internalType":"bool","name":"active","type":"bool"},{"internalType":"uint256","name":"createdAt","type":"uint256"},{"internalType":"uint256","name":"updatedAt","type":"uint256"},{"internalType":"bool","name":"isRevoked","type":"bool"},{"internalType":"string","name":"revocationReason","type":"string"}],"stateMutability":"view","type":"function"},{"inputs":[{"internalType":"string","name":"name","type":"string"},{"internalType":"address","name":"verifier","type":"address"}],"name":"verifyAttribute","outputs":[{"internalType":"bool","name":"","type":"bool"}],"stateMutability":"nonpayable","type":"function"}],"evm":{"bytecode":{"linkReferences":{},"object":"6080806040523461007c5760008054336001600160a01b0319821681178355916001600160a01b03909116907f8be0079c531659141344cd1fd0a4f28419497f9722a3daafe3b4186f6b6457e09080a360018055600160ff1980600254166002554260055542600655600454161760045561352790816100828239f35b600080fdfe6080604052600436101561001257600080fd5b60003560e01c80630b42f3fd146129f7578063203223bb1461293f5780632ba56834146125525780633457d3e21461224d57806337714208146120c05780633aa1b5ca146120a45780633f4ba83a1461201057806345e8846f14611e5a5780634b9802f814611e3d5780635c975abb14611e1a5780636662f48214611c6b5780636a44cac914611bb65780636aab3cef14611b3b578063715018a614611ae2578063767bc20e14611a075780638456cb59146119ad5780638c15f62d1461196e5780638da5cb5b14611945578063967a455f146119025780639bc3a0001461187c578063a9595ffb14611835578063bae2b854146117d8578063bd7a86ca14610dd9578063c93ead1b14610dbb578063cb6bae731461076b578063cfe3b347146104e5578063e3725def1461040a578063e4a94adc146103c5578063e8a51fca146102cd578063f2fde38b14610204578063f3d310bf146101e85763fb99d0071461017c57600080fd5b346101e35760803660031901126101e357610195612db4565b604435906001600160a01b03821682036101e357606435906001600160401b0382116101e3576020926101cf6101d9933690600401612ab7565b916024359061328d565b6040519015158152f35b600080fd5b346101e35760003660031901126101e357602060405160648152f35b346101e35760203660031901126101e35761021d612db4565b610225612eb4565b6001600160a01b0390811690811561027957600054826bffffffffffffffffffffffff60a01b821617600055167f8be0079c531659141344cd1fd0a4f28419497f9722a3daafe3b4186f6b6457e0600080a3005b60405162461bcd60e51b815260206004820152602660248201527f4f776e61626c653a206e6577206f776e657220697320746865207a65726f206160448201526564647265737360d01b6064820152608490fd5b346101e3576020806003193601126101e3576004356001600160401b0381116101e35761037882610305610387933690600401612ab7565b61031460ff6007541615612f0c565b6040519061034961034282519385818186019661033281838a612b0d565b8101600981520301902054612b56565b15156130a9565b6000546001600160a01b0316331480156103a0575b610367906130f5565b604051938492839251928391612b0d565b81016009815203019020612cd5565b9061039c604051928284938452830190612d79565b0390f35b5033600052600a835261036760ff6103bc604060002084612b30565b5416905061035e565b346101e35760003660031901126101e3576103de612b90565b60ff600454169061039c60055460065460ff60075416906103fd612c3c565b9260405196879687612e3e565b346101e3576020806003193601126101e3576004356001600160401b0381116101e35761043b903690600401612ab7565b61044a60ff6007541615612f0c565b61039c6060610490846040516104706103428751928481818b0195610332818389612b0d565b6000546001600160a01b0396908716331480156103a057610367906130f5565b81016009815203019020926040516104a781612a45565b60026104b286612cd5565b958683526001810154809884015201549160ff831615159283604084015260081c16928391015260405194859485612e7f565b346101e3576020806003193601126101e3576001600160401b036004358181116101e357610517903690600401612ab7565b61051f612eb4565b610527612f66565b61053660ff6007541615612f0c565b61053e612faa565b8051156107265760019160ff19908382600754161760075582519081116107105761056a600854612b56565b601f81116106b7575b5084601f821160011461060c5791817ff47a4f2302a3334a22353c5748d420f032e5f784e851777209232d29d169333594926105f394600091610601575b50600019600383901b1c191690861b176008555b6004541660045542600655604051918291604083526105e660408401613000565b9083820388850152612d79565b0390a1808055604051908152f35b9050830151886105b1565b908491601f1982169060086000527ff3f7a9fe364faab93b216da50a3214154f22a0a2b415b23a84c8169e8b636ee39160005b898282106106a15750509183916105f396947ff47a4f2302a3334a22353c5748d420f032e5f784e851777209232d29d169333598969410610688575b5050811b016008556105c5565b85015160001960f88460031b161c19169055888061067b565b838901518555899690940193928301920161063f565b6107009060086000527ff3f7a9fe364faab93b216da50a3214154f22a0a2b415b23a84c8169e8b636ee3601f840160051c810191888510610706575b601f0160051c0190612f4f565b85610573565b90915081906106f3565b634e487b7160e01b600052604160045260246000fd5b60405162461bcd60e51b815260048101849052601a60248201527f5265766f636174696f6e20726561736f6e2072657175697265640000000000006044820152606490fd5b346101e35760c03660031901126101e3576024356001600160401b0381116101e35761079b903690600401612ab7565b6044356001600160401b0381116101e3576107ba903690600401612ab7565b6064356001600160401b0381116101e3576107d9903690600401612ab7565b6084356001600160401b0381116101e3576107f8903690600401612ab7565b9060a4356001600160401b0381116101e357610818903690600401612ab7565b6000546001600160a01b03163303610d82576040519461083786612a60565b85526020850193845260408501918252606085019283526080850152600435600052600f60205260406000209284518051906001600160401b0382116107105781906108838754612b56565b601f8111610d50575b50602090601f8311600114610cea57600092610cdf575b50508160011b916000199060031b1c19161784555b51805160018501916001600160401b0382116107105781906108da8454612b56565b601f8111610cad575b50602090601f8311600114610c4757600092610c3c575b50508160011b916000199060031b1c19161790555b51805160028401916001600160401b0382116107105781906109318454612b56565b601f8111610c0a575b50602090601f8311600114610ba457600092610b99575b50508160011b916000199060031b1c19161790555b518051906001600160401b038211610710576109856003840154612b56565b601f8111610b64575b50602090601f8311600114610aef57918060809492600494600092610ae4575b50508160011b916000199060031b1c19161760038201555b019101519081516001600160401b038111610710576109e58254612b56565b601f8111610ab2575b50602092601f8211600114610a4e5792819293600092610a43575b50508160011b916000199060031b1c19161790555b33600052600e602052610a376004356040600020612e0c565b50600342910155600080f35b015190508380610a09565b601f198216938360005260206000209160005b868110610a9a5750836001959610610a81575b505050811b019055610a1e565b015160001960f88460031b161c19169055838080610a74565b91926020600181928685015181550194019201610a61565b610ade90836000526020600020601f840160051c8101916020851061070657601f0160051c0190612f4f565b836109ee565b0151905086806109ae565b906003840160005260206000209160005b601f1985168110610b4c5750926080949260019260049583601f19811610610b33575b505050811b0160038201556109c6565b015160001960f88460031b161c19169055868080610b23565b91926020600181928685015181550194019201610b00565b610b9390600385016000526020600020601f850160051c8101916020861061070657601f0160051c0190612f4f565b8461098e565b015190508680610951565b6000858152602081209350601f198516905b818110610bf25750908460019594939210610bd9575b505050811b019055610966565b015160001960f88460031b161c19169055868080610bcc565b92936020600181928786015181550195019301610bb6565b610c3690856000526020600020601f850160051c8101916020861061070657601f0160051c0190612f4f565b8761093a565b0151905087806108fa565b6000858152602081209350601f198516905b818110610c955750908460019594939210610c7c575b505050811b01905561090f565b015160001960f88460031b161c19169055878080610c6f565b92936020600181928786015181550195019301610c59565b610cd990856000526020600020601f850160051c8101916020861061070657601f0160051c0190612f4f565b886108e3565b0151905087806108a3565b6000888152602081209350601f198516905b818110610d385750908460019594939210610d1f575b505050811b0184556108b8565b015160001960f88460031b161c19169055878080610d12565b92936020600181928786015181550195019301610cfc565b610d7c90886000526020600020601f850160051c8101916020861061070657601f0160051c0190612f4f565b8861088c565b60405162461bcd60e51b81526020600482015260116024820152702737ba103a3432902224a21037bbb732b960791b6044820152606490fd5b346101e35760003660031901126101e3576020600d54604051908152f35b346101e35760c03660031901126101e3576004356001600160401b0381116101e357610e09903690600401612ab7565b6024356001600160401b0381116101e357610e28903690600401612ab7565b6044356001600160401b0381116101e357610e47903690600401612ab7565b60649182356001600160401b0381116101e357610e68903690600401612ab7565b6084356001600160401b0381116101e357610e87903690600401612ab7565b9060a4356001600160401b0381116101e357610ea7903690600401612ab7565b94610eb0612f66565b610ebf60ff6007541615612f0c565b610ec7612faa565b865115611796578087511161175e5760ff60405160208181610eef8c83815193849201612b0d565b8101600c81520301902054166117205760035490610f0c82612b56565b6116e957508651906001600160401b03821161071057610f2b90612b56565b601f81116116ac575b50806020601f82116001146116395760009161162e575b508160011b916000199060031b1c1916176003555b426005554260065560ff196001816004541617600455600160405160208181610f8f8c83815193849201612b0d565b8101600c81520301902091825416179055604051602081527f44ca9609d2fe597457041d7e98533a969452ef425c10a46d0dd9f074497ea1ba339180610fd8602082018b612d79565b0390a26001805533600052600e6020526040600020549384600019810111611618576040519361100785612a60565b84526020840152604083015260608201528260808201526000198201600052600f602052604060002081518051906001600160401b03821161071057819061104f8454612b56565b601f81116115e6575b50602090601f831160011461157a5760009261156f575b50508160011b916000199060031b1c19161781555b60208201518051906001600160401b0382116107105781906110a96001850154612b56565b601f811161153a575b50602090601f83116001146114c8576000926114bd575b50508160011b916000199060031b1c19161760018201555b60408201518051906001600160401b0382116107105781906111066002850154612b56565b601f8111611488575b50602090601f83116001146114165760009261140b575b50508160011b916000199060031b1c19161760028201555b60608201518051906001600160401b038211610710576111616003840154612b56565b601f81116113d6575b50602090601f831160011461136157918060809492600494600092611356575b50508160011b916000199060031b1c19161760038201555b019101518051906001600160401b038211610710576111c18354612b56565b601f8111611324575b50602090601f83116001146112925792826112739361128296937f5ea42a3a46bfc6d26e587157bf2f67b8935301180b1eeae8da9f363e5f68748f9896600092611287575b50508160011b916000199060031b1c19161790555b61123a61122f6132e7565b336000198401613151565b5061124661122f613307565b5061125261122f61332e565b5061125e61122f613350565b50611267613370565b90339060001901613151565b50604051918291339583613092565b0390a2005b01519050898061120f565b90601f198316918460005260206000209260005b81811061130c57509361128296937f5ea42a3a46bfc6d26e587157bf2f67b8935301180b1eeae8da9f363e5f68748f9896936001938361127398106112f3575b505050811b019055611224565b015160001960f88460031b161c191690558980806112e6565b929360206001819287860151815501950193016112a6565b61135090846000526020600020601f850160051c8101916020861061070657601f0160051c0190612f4f565b866111ca565b01519050898061118a565b906003840160005260206000209160005b601f19851681106113be5750926080949260019260049583601f198116106113a5575b505050811b0160038201556111a2565b015160001960f88460031b161c19169055898080611395565b91926020600181928685015181550194019201611372565b61140590600385016000526020600020601f850160051c8101916020861061070657601f0160051c0190612f4f565b8761116a565b015190508780611126565b9250600284016000526020600020906000935b601f198416851061146d576001945083601f19811610611454575b505050811b01600282015561113e565b015160001960f88460031b161c19169055878080611444565b81810151835560209485019460019093019290910190611429565b6114b790600286016000526020600020601f850160051c8101916020861061070657601f0160051c0190612f4f565b8861110f565b0151905087806110c9565b9250600184016000526020600020906000935b601f198416851061151f576001945083601f19811610611506575b505050811b0160018201556110e1565b015160001960f88460031b161c191690558780806114f6565b818101518355602094850194600190930192909101906114db565b61156990600186016000526020600020601f850160051c8101916020861061070657601f0160051c0190612f4f565b886110b2565b01519050878061106f565b9250836000526020600020906000935b601f19841685106115cb576001945083601f198116106115b2575b505050811b018155611084565b015160001960f88460031b161c191690558780806115a5565b8181015183556020948501946001909301929091019061158a565b61161290856000526020600020601f850160051c8101916020861061070657601f0160051c0190612f4f565b88611058565b634e487b7160e01b600052601160045260246000fd5b905087015188610f4b565b915060036000526000805160206134d28339815191526000925b601f1983168410611694576001935082601f1981161061167b575b5050811b01600355610f60565b89015160001960f88460031b161c19169055888061166e565b89810151825560209384019360019092019101611653565b6116e39060036000526000805160206134d2833981519152601f840160051c8101916020851061070657601f0160051c0190612f4f565b87610f34565b60405162461bcd60e51b815260206004820152601260248201527144494420616c72656164792065786973747360701b6044820152fd5b60405162461bcd60e51b81526020600482015260196024820152784964656e74696669657220616c726561647920696e2075736560381b6044820152fd5b60405162461bcd60e51b81526020600482015260136024820152724964656e74696669657220746f6f206c6f6e6760681b6044820152fd5b60405162461bcd60e51b815260206004820152601a60248201527f4964656e7469666965722063616e6e6f7420626520656d7074790000000000006044820152fd5b346101e35760603660031901126101e3576117f1612db4565b6044356001600160401b0381116101e35761039c91611817611821923690600401612ab7565b9060243590613395565b604051918291602083526020830190612d79565b346101e35760603660031901126101e35761184e612d9e565b6044356001600160401b0381116101e3576020916118736101d9923690600401612ab7565b90600435613151565b346101e35760203660031901126101e3576004356001600160401b0381116101e35760206118b16118c4923690600401612ab7565b8160405193828580945193849201612b0d565b810160098152030190206118d781612cd5565b9061039c6002600183015492015460405193849360ff60018060a01b038460081c1693169185612e7f565b346101e35760003660031901126101e35760ff600754166119238115612f0c565b60ff600454169061039c6005546006549261193c612b90565b936103fd612c3c565b346101e35760003660031901126101e3576000546040516001600160a01b039091168152602090f35b346101e357602060ff6119a161198336612dca565b6001600160a01b039091166000908152600a85526040902090612b30565b54166040519015158152f35b346101e35760003660031901126101e3576119c6612eb4565b6119ce612f66565b600160ff1960025416176002557f62e78cea01bee320cd4e420270b5ea74000d11b0c9f74754ebdbfc544b05a2586020604051338152a1005b346101e35760003660031901126101e357611a20612eb4565b611a28612f66565b611a3760ff6007541615612f0c565b611a3f612faa565b60045460ff811615611a9d5760ff1916600455426006557f4360f12f602ccecefb32480e5314d0d3f57d38db8f52c76d8fdf4c39596c1c286040516020815280611a8b60208201613000565b0390a160018055602060405160018152f35b60405162461bcd60e51b815260206004820152601760248201527f44494420697320616c726561647920696e6163746976650000000000000000006044820152606490fd5b346101e35760003660031901126101e357611afb612eb4565b600080546001600160a01b0319811682556001600160a01b03167f8be0079c531659141344cd1fd0a4f28419497f9722a3daafe3b4186f6b6457e08280a3005b346101e35760403660031901126101e357611b54612db4565b6001600160a01b03166000908152600e602052604090208054602435908110156101e357611b8191612e0c565b50611b8b81612cd5565b61039c60ff6001840154169260028101549060038101546103fd600560ff6004850154169301612cd5565b346101e357611c597f51cbcaaca6ae26944c6280c966a07b04ca5c6766d82ca497ded152579431468d611be836612dca565b9290611bf2612eb4565b611bfa612f66565b611c0960ff6007541615612f0c565b611c11612faa565b6001600160a01b031692611c2684151561320e565b83600052600a602052611c3d604060002082612b30565b60ff198154169055604051918291602083526020830190612d79565b0390a260018055602060405160018152f35b346101e35760403660031901126101e357611c84612db4565b6001600160a01b0381166000818152600e602052604090205460243592611cc191611cb090851061324c565b611cb86132e7565b9084339161328d565b15611dc957600052600e602052611cdc816040600020612e0c565b5090600052600f602052611d6c60406000209160ff600182015416906002810154611db2611d0e600384015493612cd5565b611da4611d1a88612cd5565b97611d96611d2a60018301612cd5565b611d88611d3960028501612cd5565b91611d7a611d556004611d4e60038901612cd5565b9701612cd5565b976040519e8f9e8f92610120808552840190612d79565b916020818403910152612d79565b8c810360408e015290612d79565b908a820360608c0152612d79565b9088820360808a0152612d79565b9086820360a0880152612d79565b92151560c085015260e08401526101008301520390f35b60405162461bcd60e51b8152602060048201526024808201527f4e6f7420617574686f72697a656420746f206163636573732050414e2064657460448201526361696c7360e01b6064820152608490fd5b346101e35760003660031901126101e357602060ff600254166040519015158152f35b346101e35760003660031901126101e35760206040516103e88152f35b346101e35760403660031901126101e3576004356001600160401b0381116101e357611e8a903690600401612ab7565b611e92612d9e565b611e9a612eb4565b611ea2612f66565b611eb160ff6007541615612f0c565b611eb9612faa565b604051918051611ed9610342602095868181870195610332818389612b0d565b6001600160a01b038316928315611fcb5791611f986001611fbb93611f887f1c564f9c63901c7b3617b5a5a8d210f8871f28d4afa53586ed6f670abe7e220a9660026040518b818951611f2d81838a612b0d565b81016009815203019020018460ff1982541617905560026040518b818951611f5681838a612b0d565b600990820190815203019020018054610100600160a81b03191660089290921b610100600160a81b0316919091179055565b6040519283918551928391612b0d565b820191600983528781429403019020015560405191829186835286830190612d79565b0390a26001805560405160018152f35b60405162461bcd60e51b815260048101869052601860248201527f496e76616c6964207665726966696572206164647265737300000000000000006044820152606490fd5b346101e35760003660031901126101e357612029612eb4565b60025460ff8116156120685760ff19166002557f5db9ee0a495bf2e6ff9c91a7834c1ba4fdd244a5e8aa4e537bd38aeae4b073aa6020604051338152a1005b60405162461bcd60e51b815260206004820152601460248201527314185d5cd8589b194e881b9bdd081c185d5cd95960621b6044820152606490fd5b346101e35760003660031901126101e357602060405160328152f35b346101e3576020806003193601126101e3576004356001600160401b0381116101e3576120f1903690600401612ab7565b6120f9612eb4565b612101612f66565b61211060ff6007541615612f0c565b612118612faa565b6000600261214e8460405161213d6103428751928481818b0195610332818389612b0d565b604051809381928851928391612b0d565b810160098152030190206121628154612b56565b80612211575b508260018201550155600d5480156121cc5760001901600d55426006556040518281527f8088db29d4761a957c0a396fa3c5f3f369fbfca4f1a83dae8b4f76a31726246a9181906121bc9085830190612d79565b0390a16001805560405160018152f35b60405162461bcd60e51b815260048101849052601b60248201527f436f756e7465723a2064656372656d656e74206f766572666c6f7700000000006044820152606490fd5b601f811160011461222757508281555b85612168565b8390828252612244601f888420920160051c820160018301612f4f565b81835555612221565b346101e3576020806003193601126101e3576001600160401b036004358181116101e35761227f903690600401612ab7565b90612288612f66565b61229760ff6007541615612f0c565b61229f612faa565b81511561250d5760648251116124d2576040519060ff8351928581818701956122c9818389612b0d565b8101600c81520301902054166124915760039081546122e781612b56565b612457578451918211610710576122fd90612b56565b601f811161241c575b508085601f82116001146123ae576000916123a3575b508160011b9160001990841b1c19161790555b4260055542600655600161235c8460ff199383856004541617600455604051809381928851928391612b0d565b8101600c815203019020918254161790557f44ca9609d2fe597457041d7e98533a969452ef425c10a46d0dd9f074497ea1ba60405183815280611fbb339486830190612d79565b90508401518661231c565b60008481526000805160206134d28339815191529250601f198416905b8882821061240657505090836001949392106123ee575b5050811b01905561232f565b86015160001983861b60f8161c1916905586806123e2565b600184958293958b0151815501940192016123cb565b61245190836000526000805160206134d2833981519152601f840160051c81019188851061070657601f0160051c0190612f4f565b85612306565b60405162461bcd60e51b815260048101879052601260248201527144494420616c72656164792065786973747360701b6044820152606490fd5b60405162461bcd60e51b81526004810185905260196024820152784964656e74696669657220616c726561647920696e2075736560381b6044820152606490fd5b60405162461bcd60e51b81526004810184905260136024820152724964656e74696669657220746f6f206c6f6e6760681b6044820152606490fd5b60405162461bcd60e51b815260048101849052601a60248201527f4964656e7469666965722063616e6e6f7420626520656d7074790000000000006044820152606490fd5b346101e35760403660031901126101e3576001600160401b036004358181116101e357612583903690600401612ab7565b9060249182358281116101e35761259e903690600401612ab7565b906125a7612eb4565b6125af612f66565b6125be60ff6007541615612f0c565b6125c6612faa565b8051156128fb576103e8808251116128b7578251156128735782511161282f576032600d5410156127eb57604051936125fe85612a45565b828552602094858101428152604082019560008752606083019360008552604051898188516126308183858d01612b0d565b8101600981520301902093519081519283116127d757506126518454612b56565b601f81116127a7575b508890601f83116001146127165792826002937fb5992aa9568eacc71d59e4909dd6598b92a9412825efe4598975018ea0918d759a96936126ef989660009261270b575b50508160011b916000199060031b1c19161782555b51600182015592519201805491516001600160a81b031990921660ff931515939093169290921760089190911b610100600160a81b0316179055565b6001600d5401600d55426006556121bc60405192839283613092565b015190508c8061269e565b90601f19831691856000528a6000209260005b8c828210612791575050937fb5992aa9568eacc71d59e4909dd6598b92a9412825efe4598975018ea0918d759a96936126ef9896936001938360029810612778575b505050811b0182556126b3565b015160001960f88460031b161c191690558c808061276b565b6001859682939686015181550195019301612729565b6127d190856000528a600020601f850160051c8101918c861061070657601f0160051c0190612f4f565b8961265a565b634e487b7160e01b60009081526041600452fd5b60405162461bcd60e51b815260206004820152601a818601527f4d6178696d756d206174747269627574657320726561636865640000000000006044820152606490fd5b60405162461bcd60e51b8152602060048201526018818601527f4174747269627574652076616c756520746f6f206c6f6e6700000000000000006044820152606490fd5b60405162461bcd60e51b815260206004820152601f818701527f4174747269627574652076616c75652063616e6e6f7420626520656d707479006044820152606490fd5b60405162461bcd60e51b8152602060048201526017818701527f417474726962757465206e616d6520746f6f206c6f6e670000000000000000006044820152606490fd5b60405162461bcd60e51b815260206004820152601e818601527f417474726962757465206e616d652063616e6e6f7420626520656d70747900006044820152606490fd5b346101e35760203660031901126101e357600435600052600f6020526129bf604060002061039c61296f82612cd5565b916129e961297f60018301612cd5565b916129db61298f60028301612cd5565b6129cd6129aa60046129a360038701612cd5565b9501612cd5565b95604051998a9960a08b5260a08b0190612d79565b9089820360208b0152612d79565b908782036040890152612d79565b908582036060870152612d79565b908382036080850152612d79565b346101e35760203660031901126101e3576004356001600160401b0381116101e35760ff612a2f60206118b181943690600401612ab7565b8101600b81520301902054166040519015158152f35b608081019081106001600160401b0382111761071057604052565b60a081019081106001600160401b0382111761071057604052565b604081019081106001600160401b0382111761071057604052565b90601f801991011681019081106001600160401b0382111761071057604052565b81601f820112156101e3578035906001600160401b0382116107105760405192612aeb601f8401601f191660200185612a96565b828452602083830101116101e357816000926020809301838601378301015290565b60005b838110612b205750506000910152565b8181015183820152602001612b10565b602090612b4a928260405194838680955193849201612b0d565b82019081520301902090565b90600182811c92168015612b86575b6020831014612b7057565b634e487b7160e01b600052602260045260246000fd5b91607f1691612b65565b6040519060008260035491612ba483612b56565b80835292600190818116908115612c1a5750600114612bcd575b50612bcb92500383612a96565b565b6003600090815291506000805160206134d28339815191525b848310612bff5750612bcb935050810160200138612bbe565b81935090816020925483858a01015201910190918592612be6565b905060209250612bcb94915060ff191682840152151560051b82010138612bbe565b6040519060008260085491612c5083612b56565b80835292600190818116908115612c1a5750600114612c765750612bcb92500383612a96565b6008600090815291507ff3f7a9fe364faab93b216da50a3214154f22a0a2b415b23a84c8169e8b636ee35b848310612cba5750612bcb935050810160200138612bbe565b81935090816020925483858a01015201910190918592612ca1565b9060405191826000825492612ce984612b56565b908184526001948581169081600014612d565750600114612d13575b5050612bcb92500383612a96565b9093915060005260209081600020936000915b818310612d3e575050612bcb93508201013880612d05565b85548884018501529485019487945091830191612d26565b915050612bcb94506020925060ff191682840152151560051b8201013880612d05565b90602091612d9281518092818552858086019101612b0d565b601f01601f1916010190565b602435906001600160a01b03821682036101e357565b600435906001600160a01b03821682036101e357565b9060406003198301126101e3576004356001600160a01b03811681036101e35791602435906001600160401b0382116101e357612e0991600401612ab7565b90565b8054821015612e28576000526006602060002091020190600090565b634e487b7160e01b600052603260045260246000fd5b92612e59612e0997959296939660c0865260c0860190612d79565b9515156020850152604084015260608301521515608082015260a0818403910152612d79565b92612e97606093969592608086526080860190612d79565b6020850196909652151560408401526001600160a01b0316910152565b6000546001600160a01b03163303612ec857565b606460405162461bcd60e51b815260206004820152602060248201527f4f776e61626c653a2063616c6c6572206973206e6f7420746865206f776e65726044820152fd5b15612f1357565b60405162461bcd60e51b8152602060048201526014602482015273111251081a185cc81899595b881c995d9bdad95960621b6044820152606490fd5b818110612f5a575050565b60008155600101612f4f565b60ff60025416612f7257565b60405162461bcd60e51b815260206004820152601060248201526f14185d5cd8589b194e881c185d5cd95960821b6044820152606490fd5b600260015414612fbb576002600155565b60405162461bcd60e51b815260206004820152601f60248201527f5265656e7472616e637947756172643a207265656e7472616e742063616c6c006044820152606490fd5b6003546000929161301082612b56565b80825291600190818116908115613075575060011461302e57505050565b9192935060036000526000805160206134d2833981519152916000925b84841061305d57505060209250010190565b8054602085850181019190915290930192810161304b565b915050602093945060ff929192191683830152151560051b010190565b9091611d6c612e0993604084526040840190612d79565b156130b057565b60405162461bcd60e51b815260206004820152601860248201527f41747472696275746520646f6573206e6f7420657869737400000000000000006044820152606490fd5b156130fc57565b60405162461bcd60e51b815260206004820152602760248201527f4e6f7420617574686f72697a656420746f2061636365737320746869732061746044820152667472696275746560c81b6064820152608490fd5b91613202906131cc7f883d542f167dfc5f47e8bf1532c171025ed0e4c59c1126c7f61749fa21976a4593613183612eb4565b61318b612f66565b61319a60ff6007541615612f0c565b6131a2612faa565b6001600160a01b0316946131b786151561320e565b33600052600e6020526040600020541161324c565b83600052600a6020526131e3604060002082612b30565b600160ff19825416179055604051918291602083526020830190612d79565b0390a260018055600190565b1561321557565b60405162461bcd60e51b815260206004820152600f60248201526e496e76616c6964206164647265737360881b6044820152606490fd5b1561325357565b60405162461bcd60e51b815260206004820152601260248201527111125108191bd95cc81b9bdd08195e1a5cdd60721b6044820152606490fd5b6001600160a01b039081166000818152600e602052604090205490949391926132b6911161324c565b168092149182156132c657505090565b60ff9250906132e291600052600a602052604060002090612b30565b541690565b604051906132f482612a7b565b60048252636e616d6560e01b6020830152565b6040519061331482612a7b565b600b82526a0c8c2e8ca9ecc84d2e4e8d60ab1b6020830152565b6040519061333b82612a7b565b600682526533b2b73232b960d11b6020830152565b6040519061335d82612a7b565b600482526330b2323960e11b6020830152565b6040519061337d82612a7b565b60098252683830b7273ab6b132b960b91b6020830152565b919060018060a01b0383166000526133ce6133c983602095600e87526133c1604060002054861061324c565b84339161328d565b6130f5565b600052600f82526040600020908051908381019182206133ec6132e7565b858151910120146134c55780518220613403613307565b858151910120146134b6578051822061341a61332e565b858151910120146134a75780518220613431613350565b8581519101201461349857519020613447613370565b8381519101201461348b5760405162461bcd60e51b8152600481018390526011602482015270496e76616c69642061747472696275746560781b6044820152606490fd5b612e099150600401612cd5565b5050612e099150600301612cd5565b5050612e099150600201612cd5565b5050612e099150600101612cd5565b5050612e099150612cd556fec2575a0e9e593c00f959f8c92f12db2869c3395a3b0502d05e2516446f71f85ba264697066735822122023b23ad2823488945859dfaf05512faaa624f909ddb3a6d4d1b8cc6d4ef65cda64736f6c63430008140033","opcodes":"PUSH1 0x80 DUP1 PUSH1 0x40 MSTORE CALLVALUE PUSH2 0x7C JUMPI PUSH1 0x0 DUP1 SLOAD CALLER PUSH1 0x1 PUSH1 0x1 PUSH1 0xA0 SHL SUB NOT DUP3 AND DUP2 OR DUP4 SSTORE SWAP2 PUSH1 0x1 PUSH1 0x1 PUSH1 0xA0 SHL SUB SWAP1 SWAP2 AND SWAP1 PUSH32 0x8BE0079C531659141344CD1FD0A4F28419497F9722A3DAAFE3B4186F6B6457E0 SWAP1 DUP1 LOG3 PUSH1 0x1 DUP1 SSTORE PUSH1 0x1 PUSH1 0xFF NOT DUP1 PUSH1 0x2 SLOAD AND PUSH1 0x2 SSTORE TIMESTAMP PUSH1 0x5 SSTORE TIMESTAMP PUSH1 0x6 SSTORE PUSH1 0x4 SLOAD AND OR PUSH1 0x4 SSTORE PUSH2 0x3527 SWAP1 DUP2 PUSH2 0x82 DUP3 CODECOPY RETURN JUMPDEST PUSH1 0x0 DUP1 REVERT INVALID PUSH1 0x80 PUSH1 0x40 MSTORE PUSH1 0x4 CALLDATASIZE LT ISZERO PUSH2 0x12 JUMPI PUSH1 0x0 DUP1 REVERT JUMPDEST PUSH1 0x0 CALLDATALOAD PUSH1 0xE0 SHR DUP1 PUSH4 0xB42F3FD EQ PUSH2 0x29F7 JUMPI DUP1 PUSH4 0x203223BB EQ PUSH2 0x293F JUMPI DUP1 PUSH4 0x2BA56834 EQ PUSH2 0x2552 JUMPI DUP1 PUSH4 0x3457D3E2 EQ PUSH2 0x224D JUMPI DUP1 PUSH4 0x37714208 EQ PUSH2 0x20C0 JUMPI DUP1 PUSH4 0x3AA1B5CA EQ PUSH2 0x20A4 JUMPI DUP1 PUSH4 0x3F4BA83A EQ PUSH2 0x2010 JUMPI DUP1 PUSH4 0x45E8846F EQ PUSH2 0x1E5A JUMPI DUP1 PUSH4 0x4B9802F8 EQ PUSH2 0x1E3D JUMPI DUP1 PUSH4 0x5C975ABB EQ PUSH2 0x1E1A JUMPI DUP1 PUSH4 0x6662F482 EQ PUSH2 0x1C6B JUMPI DUP1 PUSH4 0x6A44CAC9 EQ PUSH2 0x1BB6 JUMPI DUP1 PUSH4 0x6AAB3CEF EQ PUSH2 0x1B3B JUMPI DUP1 PUSH4 0x715018A6 EQ PUSH2 0x1AE2 JUMPI DUP1 PUSH4 0x767BC20E EQ PUSH2 0x1A07 JUMPI DUP1 PUSH4 0x8456CB59 EQ PUSH2 0x19AD JUMPI DUP1 PUSH4 0x8C15F62D EQ PUSH2 0x196E JUMPI DUP1 PUSH4 0x8DA5CB5B EQ PUSH2 0x1945 JUMPI DUP1 PUSH4 0x967A455F EQ PUSH2 0x1902 JUMPI DUP1 PUSH4 0x9BC3A000 EQ PUSH2 0x187C JUMPI DUP1 PUSH4 0xA9595FFB EQ PUSH2 0x1835 JUMPI DUP1 PUSH4 0xBAE2B854 EQ PUSH2 0x17D8 JUMPI DUP1 PUSH4 0xBD7A86CA EQ PUSH2 0xDD9 JUMPI DUP1 PUSH4 0xC93EAD1B EQ PUSH2 0xDBB JUMPI DUP1 PUSH4 0xCB6BAE73 EQ PUSH2 0x76B JUMPI DUP1 PUSH4 0xCFE3B347 EQ PUSH2 0x4E5 JUMPI DUP1 PUSH4 0xE3725DEF EQ PUSH2 0x40A JUMPI DUP1 PUSH4 0xE4A94ADC EQ PUSH2 0x3C5 JUMPI DUP1 PUSH4 0xE8A51FCA EQ PUSH2 0x2CD JUMPI DUP1 PUSH4 0xF2FDE38B EQ PUSH2 0x204 JUMPI DUP1 PUSH4 0xF3D310BF EQ PUSH2 0x1E8 JUMPI PUSH4 0xFB99D007 EQ PUSH2 0x17C JUMPI PUSH1 0x0 DUP1 REVERT JUMPDEST CALLVALUE PUSH2 0x1E3 JUMPI PUSH1 0x80 CALLDATASIZE PUSH1 0x3 NOT ADD SLT PUSH2 0x1E3 JUMPI PUSH2 0x195 PUSH2 0x2DB4 JUMP JUMPDEST PUSH1 0x44 CALLDATALOAD SWAP1 PUSH1 0x1 PUSH1 0x1 PUSH1 0xA0 SHL SUB DUP3 AND DUP3 SUB PUSH2 0x1E3 JUMPI PUSH1 0x64 CALLDATALOAD SWAP1 PUSH1 0x1 PUSH1 0x1 PUSH1 0x40 SHL SUB DUP3 GT PUSH2 0x1E3 JUMPI PUSH1 0x20 SWAP3 PUSH2 0x1CF PUSH2 0x1D9 SWAP4 CALLDATASIZE SWAP1 PUSH1 0x4 ADD PUSH2 0x2AB7 JUMP JUMPDEST SWAP2 PUSH1 0x24 CALLDATALOAD SWAP1 PUSH2 0x328D JUMP JUMPDEST PUSH1 0x40 MLOAD SWAP1 ISZERO ISZERO DUP2 MSTORE RETURN JUMPDEST PUSH1 0x0 DUP1 REVERT JUMPDEST CALLVALUE PUSH2 0x1E3 JUMPI PUSH1 0x0 CALLDATASIZE PUSH1 0x3 NOT ADD SLT PUSH2 0x1E3 JUMPI PUSH1 0x20 PUSH1 0x40 MLOAD PUSH1 0x64 DUP2 MSTORE RETURN JUMPDEST CALLVALUE PUSH2 0x1E3 JUMPI PUSH1 0x20 CALLDATASIZE PUSH1 0x3 NOT ADD SLT PUSH2 0x1E3 JUMPI PUSH2 0x21D PUSH2 0x2DB4 JUMP JUMPDEST PUSH2 0x225 PUSH2 0x2EB4 JUMP JUMPDEST PUSH1 0x1 PUSH1 0x1 PUSH1 0xA0 SHL SUB SWAP1 DUP2 AND SWAP1 DUP2 ISZERO PUSH2 0x279 JUMPI PUSH1 0x0 SLOAD DUP3 PUSH12 0xFFFFFFFFFFFFFFFFFFFFFFFF PUSH1 0xA0 SHL DUP3 AND OR PUSH1 0x0 SSTORE AND PUSH32 0x8BE0079C531659141344CD1FD0A4F28419497F9722A3DAAFE3B4186F6B6457E0 PUSH1 0x0 DUP1 LOG3 STOP JUMPDEST PUSH1 0x40 MLOAD PUSH3 0x461BCD PUSH1 0xE5 SHL DUP2 MSTORE PUSH1 0x20 PUSH1 0x4 DUP3 ADD MSTORE PUSH1 0x26 PUSH1 0x24 DUP3 ADD MSTORE PUSH32 0x4F776E61626C653A206E6577206F776E657220697320746865207A65726F2061 PUSH1 0x44 DUP3 ADD MSTORE PUSH6 0x646472657373 PUSH1 0xD0 SHL PUSH1 0x64 DUP3 ADD MSTORE PUSH1 0x84 SWAP1 REVERT JUMPDEST CALLVALUE PUSH2 0x1E3 JUMPI PUSH1 0x20 DUP1 PUSH1 0x3 NOT CALLDATASIZE ADD SLT PUSH2 0x1E3 JUMPI PUSH1 0x4 CALLDATALOAD PUSH1 0x1 PUSH1 0x1 PUSH1 0x40 SHL SUB DUP2 GT PUSH2 0x1E3 JUMPI PUSH2 0x378 DUP3 PUSH2 0x305 PUSH2 0x387 SWAP4 CALLDATASIZE SWAP1 PUSH1 0x4 ADD PUSH2 0x2AB7 JUMP JUMPDEST PUSH2 0x314 PUSH1 0xFF PUSH1 0x7 SLOAD AND ISZERO PUSH2 0x2F0C JUMP JUMPDEST PUSH1 0x40 MLOAD SWAP1 PUSH2 0x349 PUSH2 0x342 DUP3 MLOAD SWAP4 DUP6 DUP2 DUP2 DUP7 ADD SWAP7 PUSH2 0x332 DUP2 DUP4 DUP11 PUSH2 0x2B0D JUMP JUMPDEST DUP2 ADD PUSH1 0x9 DUP2 MSTORE SUB ADD SWAP1 KECCAK256 SLOAD PUSH2 0x2B56 JUMP JUMPDEST ISZERO ISZERO PUSH2 0x30A9 JUMP JUMPDEST PUSH1 0x0 SLOAD PUSH1 0x1 PUSH1 0x1 PUSH1 0xA0 SHL SUB AND CALLER EQ DUP1 ISZERO PUSH2 0x3A0 JUMPI JUMPDEST PUSH2 0x367 SWAP1 PUSH2 0x30F5 JUMP JUMPDEST PUSH1 0x40 MLOAD SWAP4 DUP5 SWAP3 DUP4 SWAP3 MLOAD SWAP3 DUP4 SWAP2 PUSH2 0x2B0D JUMP JUMPDEST DUP2 ADD PUSH1 0x9 DUP2 MSTORE SUB ADD SWAP1 KECCAK256 PUSH2 0x2CD5 JUMP JUMPDEST SWAP1 PUSH2 0x39C PUSH1 0x40 MLOAD SWAP3 DUP3 DUP5 SWAP4 DUP5 MSTORE DUP4 ADD SWAP1 PUSH2 0x2D79 JUMP JUMPDEST SUB SWAP1 RETURN JUMPDEST POP CALLER PUSH1 0x0 MSTORE PUSH1 0xA DUP4 MSTORE PUSH2 0x367 PUSH1 0xFF PUSH2 0x3BC PUSH1 0x40 PUSH1 0x0 KECCAK256 DUP5 PUSH2 0x2B30 JUMP JUMPDEST SLOAD AND SWAP1 POP PUSH2 0x35E JUMP JUMPDEST CALLVALUE PUSH2 0x1E3 JUMPI PUSH1 0x0 CALLDATASIZE PUSH1 0x3 NOT ADD SLT PUSH2 0x1E3 JUMPI PUSH2 0x3DE PUSH2 0x2B90 JUMP JUMPDEST PUSH1 0xFF PUSH1 0x4 SLOAD AND SWAP1 PUSH2 0x39C PUSH1 0x5 SLOAD PUSH1 0x6 SLOAD PUSH1 0xFF PUSH1 0x7 SLOAD AND SWAP1 PUSH2 0x3FD PUSH2 0x2C3C JUMP JUMPDEST SWAP3 PUSH1 0x40 MLOAD SWAP7 DUP8 SWAP7 DUP8 PUSH2 0x2E3E JUMP JUMPDEST CALLVALUE PUSH2 0x1E3 JUMPI PUSH1 0x20 DUP1 PUSH1 0x3 NOT CALLDATASIZE ADD SLT PUSH2 0x1E3 JUMPI PUSH1 0x4 CALLDATALOAD PUSH1 0x1 PUSH1 0x1 PUSH1 0x40 SHL SUB DUP2 GT PUSH2 0x1E3 JUMPI PUSH2 0x43B SWAP1 CALLDATASIZE SWAP1 PUSH1 0x4 ADD PUSH2 0x2AB7 JUMP JUMPDEST PUSH2 0x44A PUSH1 0xFF PUSH1 0x7 SLOAD AND ISZERO PUSH2 0x2F0C JUMP JUMPDEST PUSH2 0x39C PUSH1 0x60 PUSH2 0x490 DUP5 PUSH1 0x40 MLOAD PUSH2 0x470 PUSH2 0x342 DUP8 MLOAD SWAP3 DUP5 DUP2 DUP2 DUP12 ADD SWAP6 PUSH2 0x332 DUP2 DUP4 DUP10 PUSH2 0x2B0D JUMP JUMPDEST PUSH1 0x0 SLOAD PUSH1 0x1 PUSH1 0x1 PUSH1 0xA0 SHL SUB SWAP7 SWAP1 DUP8 AND CALLER EQ DUP1 ISZERO PUSH2 0x3A0 JUMPI PUSH2 0x367 SWAP1 PUSH2 0x30F5 JUMP JUMPDEST DUP2 ADD PUSH1 0x9 DUP2 MSTORE SUB ADD SWAP1 KECCAK256 SWAP3 PUSH1 0x40 MLOAD PUSH2 0x4A7 DUP2 PUSH2 0x2A45 JUMP JUMPDEST PUSH1 0x2 PUSH2 0x4B2 DUP7 PUSH2 0x2CD5 JUMP JUMPDEST SWAP6 DUP7 DUP4 MSTORE PUSH1 0x1 DUP2 ADD SLOAD DUP1 SWAP9 DUP5 ADD MSTORE ADD SLOAD SWAP2 PUSH1 0xFF DUP4 AND ISZERO ISZERO SWAP3 DUP4 PUSH1 0x40 DUP5 ADD MSTORE PUSH1 0x8 SHR AND SWAP3 DUP4 SWAP2 ADD MSTORE PUSH1 0x40 MLOAD SWAP5 DUP6 SWAP5 DUP6 PUSH2 0x2E7F JUMP JUMPDEST CALLVALUE PUSH2 0x1E3 JUMPI PUSH1 0x20 DUP1 PUSH1 0x3 NOT CALLDATASIZE ADD SLT PUSH2 0x1E3 JUMPI PUSH1 0x1 PUSH1 0x1 PUSH1 0x40 SHL SUB PUSH1 0x4 CALLDATALOAD DUP2 DUP2 GT PUSH2 0x1E3 JUMPI PUSH2 0x517 SWAP1 CALLDATASIZE SWAP1 PUSH1 0x4 ADD PUSH2 0x2AB7 JUMP JUMPDEST PUSH2 0x51F PUSH2 0x2EB4 JUMP JUMPDEST PUSH2 0x527 PUSH2 0x2F66 JUMP JUMPDEST PUSH2 0x536 PUSH1 0xFF PUSH1 0x7 SLOAD AND ISZERO PUSH2 0x2F0C JUMP JUMPDEST PUSH2 0x53E PUSH2 0x2FAA JUMP JUMPDEST DUP1 MLOAD ISZERO PUSH2 0x726 JUMPI PUSH1 0x1 SWAP2 PUSH1 0xFF NOT SWAP1 DUP4 DUP3 PUSH1 0x7 SLOAD AND OR PUSH1 0x7 SSTORE DUP3 MLOAD SWAP1 DUP2 GT PUSH2 0x710 JUMPI PUSH2 0x56A PUSH1 0x8 SLOAD PUSH2 0x2B56 JUMP JUMPDEST PUSH1 0x1F DUP2 GT PUSH2 0x6B7 JUMPI JUMPDEST POP DUP5 PUSH1 0x1F DUP3 GT PUSH1 0x1 EQ PUSH2 0x60C JUMPI SWAP2 DUP2 PUSH32 0xF47A4F2302A3334A22353C5748D420F032E5F784E851777209232D29D1693335 SWAP5 SWAP3 PUSH2 0x5F3 SWAP5 PUSH1 0x0 SWAP2 PUSH2 0x601 JUMPI JUMPDEST POP PUSH1 0x0 NOT PUSH1 0x3 DUP4 SWAP1 SHL SHR NOT AND SWAP1 DUP7 SHL OR PUSH1 0x8 SSTORE JUMPDEST PUSH1 0x4 SLOAD AND PUSH1 0x4 SSTORE TIMESTAMP PUSH1 0x6 SSTORE PUSH1 0x40 MLOAD SWAP2 DUP3 SWAP2 PUSH1 0x40 DUP4 MSTORE PUSH2 0x5E6 PUSH1 0x40 DUP5 ADD PUSH2 0x3000 JUMP JUMPDEST SWAP1 DUP4 DUP3 SUB DUP9 DUP6 ADD MSTORE PUSH2 0x2D79 JUMP JUMPDEST SUB SWAP1 LOG1 DUP1 DUP1 SSTORE PUSH1 0x40 MLOAD SWAP1 DUP2 MSTORE RETURN JUMPDEST SWAP1 POP DUP4 ADD MLOAD DUP9 PUSH2 0x5B1 JUMP JUMPDEST SWAP1 DUP5 SWAP2 PUSH1 0x1F NOT DUP3 AND SWAP1 PUSH1 0x8 PUSH1 0x0 MSTORE PUSH32 0xF3F7A9FE364FAAB93B216DA50A3214154F22A0A2B415B23A84C8169E8B636EE3 SWAP2 PUSH1 0x0 JUMPDEST DUP10 DUP3 DUP3 LT PUSH2 0x6A1 JUMPI POP POP SWAP2 DUP4 SWAP2 PUSH2 0x5F3 SWAP7 SWAP5 PUSH32 0xF47A4F2302A3334A22353C5748D420F032E5F784E851777209232D29D1693335 SWAP9 SWAP7 SWAP5 LT PUSH2 0x688 JUMPI JUMPDEST POP POP DUP2 SHL ADD PUSH1 0x8 SSTORE PUSH2 0x5C5 JUMP JUMPDEST DUP6 ADD MLOAD PUSH1 0x0 NOT PUSH1 0xF8 DUP5 PUSH1 0x3 SHL AND SHR NOT AND SWAP1 SSTORE DUP9 DUP1 PUSH2 0x67B JUMP JUMPDEST DUP4 DUP10 ADD MLOAD DUP6 SSTORE DUP10 SWAP7 SWAP1 SWAP5 ADD SWAP4 SWAP3 DUP4 ADD SWAP3 ADD PUSH2 0x63F JUMP JUMPDEST PUSH2 0x700 SWAP1 PUSH1 0x8 PUSH1 0x0 MSTORE PUSH32 0xF3F7A9FE364FAAB93B216DA50A3214154F22A0A2B415B23A84C8169E8B636EE3 PUSH1 0x1F DUP5 ADD PUSH1 0x5 SHR DUP2 ADD SWAP2 DUP9 DUP6 LT PUSH2 0x706 JUMPI JUMPDEST PUSH1 0x1F ADD PUSH1 0x5 SHR ADD SWAP1 PUSH2 0x2F4F JUMP JUMPDEST DUP6 PUSH2 0x573 JUMP JUMPDEST SWAP1 SWAP2 POP DUP2 SWAP1 PUSH2 0x6F3 JUMP JUMPDEST PUSH4 0x4E487B71 PUSH1 0xE0 SHL PUSH1 0x0 MSTORE PUSH1 0x41 PUSH1 0x4 MSTORE PUSH1 0x24 PUSH1 0x0 REVERT JUMPDEST PUSH1 0x40 MLOAD PUSH3 0x461BCD PUSH1 0xE5 SHL DUP2 MSTORE PUSH1 0x4 DUP2 ADD DUP5 SWAP1 MSTORE PUSH1 0x1A PUSH1 0x24 DUP3 ADD MSTORE PUSH32 0x5265766F636174696F6E20726561736F6E207265717569726564000000000000 PUSH1 0x44 DUP3 ADD MSTORE PUSH1 0x64 SWAP1 REVERT JUMPDEST CALLVALUE PUSH2 0x1E3 JUMPI PUSH1 0xC0 CALLDATASIZE PUSH1 0x3 NOT ADD SLT PUSH2 0x1E3 JUMPI PUSH1 0x24 CALLDATALOAD PUSH1 0x1 PUSH1 0x1 PUSH1 0x40 SHL SUB DUP2 GT PUSH2 0x1E3 JUMPI PUSH2 0x79B SWAP1 CALLDATASIZE SWAP1 PUSH1 0x4 ADD PUSH2 0x2AB7 JUMP JUMPDEST PUSH1 0x44 CALLDATALOAD PUSH1 0x1 PUSH1 0x1 PUSH1 0x40 SHL SUB DUP2 GT PUSH2 0x1E3 JUMPI PUSH2 0x7BA SWAP1 CALLDATASIZE SWAP1 PUSH1 0x4 ADD PUSH2 0x2AB7 JUMP JUMPDEST PUSH1 0x64 CALLDATALOAD PUSH1 0x1 PUSH1 0x1 PUSH1 0x40 SHL SUB DUP2 GT PUSH2 0x1E3 JUMPI PUSH2 0x7D9 SWAP1 CALLDATASIZE SWAP1 PUSH1 0x4 ADD PUSH2 0x2AB7 JUMP JUMPDEST PUSH1 0x84 CALLDATALOAD PUSH1 0x1 PUSH1 0x1 PUSH1 0x40 SHL SUB DUP2 GT PUSH2 0x1E3 JUMPI PUSH2 0x7F8 SWAP1 CALLDATASIZE SWAP1 PUSH1 0x4 ADD PUSH2 0x2AB7 JUMP JUMPDEST SWAP1 PUSH1 0xA4 CALLDATALOAD PUSH1 0x1 PUSH1 0x1 PUSH1 0x40 SHL SUB DUP2 GT PUSH2 0x1E3 JUMPI PUSH2 0x818 SWAP1 CALLDATASIZE SWAP1 PUSH1 0x4 ADD PUSH2 0x2AB7 JUMP JUMPDEST PUSH1 0x0 SLOAD PUSH1 0x1 PUSH1 0x1 PUSH1 0xA0 SHL SUB AND CALLER SUB PUSH2 0xD82 JUMPI PUSH1 0x40 MLOAD SWAP5 PUSH2 0x837 DUP7 PUSH2 0x2A60 JUMP JUMPDEST DUP6 MSTORE PUSH1 0x20 DUP6 ADD SWAP4 DUP5 MSTORE PUSH1 0x40 DUP6 ADD SWAP2 DUP3 MSTORE PUSH1 0x60 DUP6 ADD SWAP3 DUP4 MSTORE PUSH1 0x80 DUP6 ADD MSTORE PUSH1 0x4 CALLDATALOAD PUSH1 0x0 MSTORE PUSH1 0xF PUSH1 0x20 MSTORE PUSH1 0x40 PUSH1 0x0 KECCAK256 SWAP3 DUP5 MLOAD DUP1 MLOAD SWAP1 PUSH1 0x1 PUSH1 0x1 PUSH1 0x40 SHL SUB DUP3 GT PUSH2 0x710 JUMPI DUP2 SWAP1 PUSH2 0x883 DUP8 SLOAD PUSH2 0x2B56 JUMP JUMPDEST PUSH1 0x1F DUP2 GT PUSH2 0xD50 JUMPI JUMPDEST POP PUSH1 0x20 SWAP1 PUSH1 0x1F DUP4 GT PUSH1 0x1 EQ PUSH2 0xCEA JUMPI PUSH1 0x0 SWAP3 PUSH2 0xCDF JUMPI JUMPDEST POP POP DUP2 PUSH1 0x1 SHL SWAP2 PUSH1 0x0 NOT SWAP1 PUSH1 0x3 SHL SHR NOT AND OR DUP5 SSTORE JUMPDEST MLOAD DUP1 MLOAD PUSH1 0x1 DUP6 ADD SWAP2 PUSH1 0x1 PUSH1 0x1 PUSH1 0x40 SHL SUB DUP3 GT PUSH2 0x710 JUMPI DUP2 SWAP1 PUSH2 0x8DA DUP5 SLOAD PUSH2 0x2B56 JUMP JUMPDEST PUSH1 0x1F DUP2 GT PUSH2 0xCAD JUMPI JUMPDEST POP PUSH1 0x20 SWAP1 PUSH1 0x1F DUP4 GT PUSH1 0x1 EQ PUSH2 0xC47 JUMPI PUSH1 0x0 SWAP3 PUSH2 0xC3C JUMPI JUMPDEST POP POP DUP2 PUSH1 0x1 SHL SWAP2 PUSH1 0x0 NOT SWAP1 PUSH1 0x3 SHL SHR NOT AND OR SWAP1 SSTORE JUMPDEST MLOAD DUP1 MLOAD PUSH1 0x2 DUP5 ADD SWAP2 PUSH1 0x1 PUSH1 0x1 PUSH1 0x40 SHL SUB DUP3 GT PUSH2 0x710 JUMPI DUP2 SWAP1 PUSH2 0x931 DUP5 SLOAD PUSH2 0x2B56 JUMP JUMPDEST PUSH1 0x1F DUP2 GT PUSH2 0xC0A JUMPI JUMPDEST POP PUSH1 0x20 SWAP1 PUSH1 0x1F DUP4 GT PUSH1 0x1 EQ PUSH2 0xBA4 JUMPI PUSH1 0x0 SWAP3 PUSH2 0xB99 JUMPI JUMPDEST POP POP DUP2 PUSH1 0x1 SHL SWAP2 PUSH1 0x0 NOT SWAP1 PUSH1 0x3 SHL SHR NOT AND OR SWAP1 SSTORE JUMPDEST MLOAD DUP1 MLOAD SWAP1 PUSH1 0x1 PUSH1 0x1 PUSH1 0x40 SHL SUB DUP3 GT PUSH2 0x710 JUMPI PUSH2 0x985 PUSH1 0x3 DUP5 ADD SLOAD PUSH2 0x2B56 JUMP JUMPDEST PUSH1 0x1F DUP2 GT PUSH2 0xB64 JUMPI JUMPDEST POP PUSH1 0x20 SWAP1 PUSH1 0x1F DUP4 GT PUSH1 0x1 EQ PUSH2 0xAEF JUMPI SWAP2 DUP1 PUSH1 0x80 SWAP5 SWAP3 PUSH1 0x4 SWAP5 PUSH1 0x0 SWAP3 PUSH2 0xAE4 JUMPI JUMPDEST POP POP DUP2 PUSH1 0x1 SHL SWAP2 PUSH1 0x0 NOT SWAP1 PUSH1 0x3 SHL SHR NOT AND OR PUSH1 0x3 DUP3 ADD SSTORE JUMPDEST ADD SWAP2 ADD MLOAD SWAP1 DUP2 MLOAD PUSH1 0x1 PUSH1 0x1 PUSH1 0x40 SHL SUB DUP2 GT PUSH2 0x710 JUMPI PUSH2 0x9E5 DUP3 SLOAD PUSH2 0x2B56 JUMP JUMPDEST PUSH1 0x1F DUP2 GT PUSH2 0xAB2 JUMPI JUMPDEST POP PUSH1 0x20 SWAP3 PUSH1 0x1F DUP3 GT PUSH1 0x1 EQ PUSH2 0xA4E JUMPI SWAP3 DUP2 SWAP3 SWAP4 PUSH1 0x0 SWAP3 PUSH2 0xA43 JUMPI JUMPDEST POP POP DUP2 PUSH1 0x1 SHL SWAP2 PUSH1 0x0 NOT SWAP1 PUSH1 0x3 SHL SHR NOT AND OR SWAP1 SSTORE JUMPDEST CALLER PUSH1 0x0 MSTORE PUSH1 0xE PUSH1 0x20 MSTORE PUSH2 0xA37 PUSH1 0x4 CALLDATALOAD PUSH1 0x40 PUSH1 0x0 KECCAK256 PUSH2 0x2E0C JUMP JUMPDEST POP PUSH1 0x3 TIMESTAMP SWAP2 ADD SSTORE PUSH1 0x0 DUP1 RETURN JUMPDEST ADD MLOAD SWAP1 POP DUP4 DUP1 PUSH2 0xA09 JUMP JUMPDEST PUSH1 0x1F NOT DUP3 AND SWAP4 DUP4 PUSH1 0x0 MSTORE PUSH1 0x20 PUSH1 0x0 KECCAK256 SWAP2 PUSH1 0x0 JUMPDEST DUP7 DUP2 LT PUSH2 0xA9A JUMPI POP DUP4 PUSH1 0x1 SWAP6 SWAP7 LT PUSH2 0xA81 JUMPI JUMPDEST POP POP POP DUP2 SHL ADD SWAP1 SSTORE PUSH2 0xA1E JUMP JUMPDEST ADD MLOAD PUSH1 0x0 NOT PUSH1 0xF8 DUP5 PUSH1 0x3 SHL AND SHR NOT AND SWAP1 SSTORE DUP4 DUP1 DUP1 PUSH2 0xA74 JUMP JUMPDEST SWAP2 SWAP3 PUSH1 0x20 PUSH1 0x1 DUP2 SWAP3 DUP7 DUP6 ADD MLOAD DUP2 SSTORE ADD SWAP5 ADD SWAP3 ADD PUSH2 0xA61 JUMP JUMPDEST PUSH2 0xADE SWAP1 DUP4 PUSH1 0x0 MSTORE PUSH1 0x20 PUSH1 0x0 KECCAK256 PUSH1 0x1F DUP5 ADD PUSH1 0x5 SHR DUP2 ADD SWAP2 PUSH1 0x20 DUP6 LT PUSH2 0x706 JUMPI PUSH1 0x1F ADD PUSH1 0x5 SHR ADD SWAP1 PUSH2 0x2F4F JUMP JUMPDEST DUP4 PUSH2 0x9EE JUMP JUMPDEST ADD MLOAD SWAP1 POP DUP7 DUP1 PUSH2 0x9AE JUMP JUMPDEST SWAP1 PUSH1 0x3 DUP5 ADD PUSH1 0x0 MSTORE PUSH1 0x20 PUSH1 0x0 KECCAK256 SWAP2 PUSH1 0x0 JUMPDEST PUSH1 0x1F NOT DUP6 AND DUP2 LT PUSH2 0xB4C JUMPI POP SWAP3 PUSH1 0x80 SWAP5 SWAP3 PUSH1 0x1 SWAP3 PUSH1 0x4 SWAP6 DUP4 PUSH1 0x1F NOT DUP2 AND LT PUSH2 0xB33 JUMPI JUMPDEST POP POP POP DUP2 SHL ADD PUSH1 0x3 DUP3 ADD SSTORE PUSH2 0x9C6 JUMP JUMPDEST ADD MLOAD PUSH1 0x0 NOT PUSH1 0xF8 DUP5 PUSH1 0x3 SHL AND SHR NOT AND SWAP1 SSTORE DUP7 DUP1 DUP1 PUSH2 0xB23 JUMP JUMPDEST SWAP2 SWAP3 PUSH1 0x20 PUSH1 0x1 DUP2 SWAP3 DUP7 DUP6 ADD MLOAD DUP2 SSTORE ADD SWAP5 ADD SWAP3 ADD PUSH2 0xB00 JUMP JUMPDEST PUSH2 0xB93 SWAP1 PUSH1 0x3 DUP6 ADD PUSH1 0x0 MSTORE PUSH1 0x20 PUSH1 0x0 KECCAK256 PUSH1 0x1F DUP6 ADD PUSH1 0x5 SHR DUP2 ADD SWAP2 PUSH1 0x20 DUP7 LT PUSH2 0x706 JUMPI PUSH1 0x1F ADD PUSH1 0x5 SHR ADD SWAP1 PUSH2 0x2F4F JUMP JUMPDEST DUP5 PUSH2 0x98E JUMP JUMPDEST ADD MLOAD SWAP1 POP DUP7 DUP1 PUSH2 0x951 JUMP JUMPDEST PUSH1 0x0 DUP6 DUP2 MSTORE PUSH1 0x20 DUP2 KECCAK256 SWAP4 POP PUSH1 0x1F NOT DUP6 AND SWAP1 JUMPDEST DUP2 DUP2 LT PUSH2 0xBF2 JUMPI POP SWAP1 DUP5 PUSH1 0x1 SWAP6 SWAP5 SWAP4 SWAP3 LT PUSH2 0xBD9 JUMPI JUMPDEST POP POP POP DUP2 SHL ADD SWAP1 SSTORE PUSH2 0x966 JUMP JUMPDEST ADD MLOAD PUSH1 0x0 NOT PUSH1 0xF8 DUP5 PUSH1 0x3 SHL AND SHR NOT AND SWAP1 SSTORE DUP7 DUP1 DUP1 PUSH2 0xBCC JUMP JUMPDEST SWAP3 SWAP4 PUSH1 0x20 PUSH1 0x1 DUP2 SWAP3 DUP8 DUP7 ADD MLOAD DUP2 SSTORE ADD SWAP6 ADD SWAP4 ADD PUSH2 0xBB6 JUMP JUMPDEST PUSH2 0xC36 SWAP1 DUP6 PUSH1 0x0 MSTORE PUSH1 0x20 PUSH1 0x0 KECCAK256 PUSH1 0x1F DUP6 ADD PUSH1 0x5 SHR DUP2 ADD SWAP2 PUSH1 0x20 DUP7 LT PUSH2 0x706 JUMPI PUSH1 0x1F ADD PUSH1 0x5 SHR ADD SWAP1 PUSH2 0x2F4F JUMP JUMPDEST DUP8 PUSH2 0x93A JUMP JUMPDEST ADD MLOAD SWAP1 POP DUP8 DUP1 PUSH2 0x8FA JUMP JUMPDEST PUSH1 0x0 DUP6 DUP2 MSTORE PUSH1 0x20 DUP2 KECCAK256 SWAP4 POP PUSH1 0x1F NOT DUP6 AND SWAP1 JUMPDEST DUP2 DUP2 LT PUSH2 0xC95 JUMPI POP SWAP1 DUP5 PUSH1 0x1 SWAP6 SWAP5 SWAP4 SWAP3 LT PUSH2 0xC7C JUMPI JUMPDEST POP POP POP DUP2 SHL ADD SWAP1 SSTORE PUSH2 0x90F JUMP JUMPDEST ADD MLOAD PUSH1 0x0 NOT PUSH1 0xF8 DUP5 PUSH1 0x3 SHL AND SHR NOT AND SWAP1 SSTORE DUP8 DUP1 DUP1 PUSH2 0xC6F JUMP JUMPDEST SWAP3 SWAP4 PUSH1 0x20 PUSH1 0x1 DUP2 SWAP3 DUP8 DUP7 ADD MLOAD DUP2 SSTORE ADD SWAP6 ADD SWAP4 ADD PUSH2 0xC59 JUMP JUMPDEST PUSH2 0xCD9 SWAP1 DUP6 PUSH1 0x0 MSTORE PUSH1 0x20 PUSH1 0x0 KECCAK256 PUSH1 0x1F DUP6 ADD PUSH1 0x5 SHR DUP2 ADD SWAP2 PUSH1 0x20 DUP7 LT PUSH2 0x706 JUMPI PUSH1 0x1F ADD PUSH1 0x5 SHR ADD SWAP1 PUSH2 0x2F4F JUMP JUMPDEST DUP9 PUSH2 0x8E3 JUMP JUMPDEST ADD MLOAD SWAP1 POP DUP8 DUP1 PUSH2 0x8A3 JUMP JUMPDEST PUSH1 0x0 DUP9 DUP2 MSTORE PUSH1 0x20 DUP2 KECCAK256 SWAP4 POP PUSH1 0x1F NOT DUP6 AND SWAP1 JUMPDEST DUP2 DUP2 LT PUSH2 0xD38 JUMPI POP SWAP1 DUP5 PUSH1 0x1 SWAP6 SWAP5 SWAP4 SWAP3 LT PUSH2 0xD1F JUMPI JUMPDEST POP POP POP DUP2 SHL ADD DUP5 SSTORE PUSH2 0x8B8 JUMP JUMPDEST ADD MLOAD PUSH1 0x0 NOT PUSH1 0xF8 DUP5 PUSH1 0x3 SHL AND SHR NOT AND SWAP1 SSTORE DUP8 DUP1 DUP1 PUSH2 0xD12 JUMP JUMPDEST SWAP3 SWAP4 PUSH1 0x20 PUSH1 0x1 DUP2 SWAP3 DUP8 DUP7 ADD MLOAD DUP2 SSTORE ADD SWAP6 ADD SWAP4 ADD PUSH2 0xCFC JUMP JUMPDEST PUSH2 0xD7C SWAP1 DUP9 PUSH1 0x0 MSTORE PUSH1 0x20 PUSH1 0x0 KECCAK256 PUSH1 0x1F DUP6 ADD PUSH1 0x5 SHR DUP2 ADD SWAP2 PUSH1 0x20 DUP7 LT PUSH2 0x706 JUMPI PUSH1 0x1F ADD PUSH1 0x5 SHR ADD SWAP1 PUSH2 0x2F4F JUMP JUMPDEST DUP9 PUSH2 0x88C JUMP JUMPDEST PUSH1 0x40 MLOAD PUSH3 0x461BCD PUSH1 0xE5 SHL DUP2 MSTORE PUSH1 0x20 PUSH1 0x4 DUP3 ADD MSTORE PUSH1 0x11 PUSH1 0x24 DUP3 ADD MSTORE PUSH17 0x2737BA103A3432902224A21037BBB732B9 PUSH1 0x79 SHL PUSH1 0x44 DUP3 ADD MSTORE PUSH1 0x64 SWAP1 REVERT JUMPDEST CALLVALUE PUSH2 0x1E3 JUMPI PUSH1 0x0 CALLDATASIZE PUSH1 0x3 NOT ADD SLT PUSH2 0x1E3 JUMPI PUSH1 0x20 PUSH1 0xD SLOAD PUSH1 0x40 MLOAD SWAP1 DUP2 MSTORE RETURN JUMPDEST CALLVALUE PUSH2 0x1E3 JUMPI PUSH1 0xC0 CALLDATASIZE PUSH1 0x3 NOT ADD SLT PUSH2 0x1E3 JUMPI PUSH1 0x4 CALLDATALOAD PUSH1 0x1 PUSH1 0x1 PUSH1 0x40 SHL SUB DUP2 GT PUSH2 0x1E3 JUMPI PUSH2 0xE09 SWAP1 CALLDATASIZE SWAP1 PUSH1 0x4 ADD PUSH2 0x2AB7 JUMP JUMPDEST PUSH1 0x24 CALLDATALOAD PUSH1 0x1 PUSH1 0x1 PUSH1 0x40 SHL SUB DUP2 GT PUSH2 0x1E3 JUMPI PUSH2 0xE28 SWAP1 CALLDATASIZE SWAP1 PUSH1 0x4 ADD PUSH2 0x2AB7 JUMP JUMPDEST PUSH1 0x44 CALLDATALOAD PUSH1 0x1 PUSH1 0x1 PUSH1 0x40 SHL SUB DUP2 GT PUSH2 0x1E3 JUMPI PUSH2 0xE47 SWAP1 CALLDATASIZE SWAP1 PUSH1 0x4 ADD PUSH2 0x2AB7 JUMP JUMPDEST PUSH1 0x64 SWAP2 DUP3 CALLDATALOAD PUSH1 0x1 PUSH1 0x1 PUSH1 0x40 SHL SUB DUP2 GT PUSH2 0x1E3 JUMPI PUSH2 0xE68 SWAP1 CALLDATASIZE SWAP1 PUSH1 0x4 ADD PUSH2 0x2AB7 JUMP JUMPDEST PUSH1 0x84 CALLDATALOAD PUSH1 0x1 PUSH1 0x1 PUSH1 0x40 SHL SUB DUP2 GT PUSH2 0x1E3 JUMPI PUSH2 0xE87 SWAP1 CALLDATASIZE SWAP1 PUSH1 0x4 ADD PUSH2 0x2AB7 JUMP JUMPDEST SWAP1 PUSH1 0xA4 CALLDATALOAD PUSH1 0x1 PUSH1 0x1 PUSH1 0x40 SHL SUB DUP2 GT PUSH2 0x1E3 JUMPI PUSH2 0xEA7 SWAP1 CALLDATASIZE SWAP1 PUSH1 0x4 ADD PUSH2 0x2AB7 JUMP JUMPDEST SWAP5 PUSH2 0xEB0 PUSH2 0x2F66 JUMP JUMPDEST PUSH2 0xEBF PUSH1 0xFF PUSH1 0x7 SLOAD AND ISZERO PUSH2 0x2F0C JUMP JUMPDEST PUSH2 0xEC7 PUSH2 0x2FAA JUMP JUMPDEST DUP7 MLOAD ISZERO PUSH2 0x1796 JUMPI DUP1 DUP8 MLOAD GT PUSH2 0x175E JUMPI PUSH1 0xFF PUSH1 0x40 MLOAD PUSH1 0x20 DUP2 DUP2 PUSH2 0xEEF DUP13 DUP4 DUP2 MLOAD SWAP4 DUP5 SWAP3 ADD PUSH2 0x2B0D JUMP JUMPDEST DUP2 ADD PUSH1 0xC DUP2 MSTORE SUB ADD SWAP1 KECCAK256 SLOAD AND PUSH2 0x1720 JUMPI PUSH1 0x3 SLOAD SWAP1 PUSH2 0xF0C DUP3 PUSH2 0x2B56 JUMP JUMPDEST PUSH2 0x16E9 JUMPI POP DUP7 MLOAD SWAP1 PUSH1 0x1 PUSH1 0x1 PUSH1 0x40 SHL SUB DUP3 GT PUSH2 0x710 JUMPI PUSH2 0xF2B SWAP1 PUSH2 0x2B56 JUMP JUMPDEST PUSH1 0x1F DUP2 GT PUSH2 0x16AC JUMPI JUMPDEST POP DUP1 PUSH1 0x20 PUSH1 0x1F DUP3 GT PUSH1 0x1 EQ PUSH2 0x1639 JUMPI PUSH1 0x0 SWAP2 PUSH2 0x162E JUMPI JUMPDEST POP DUP2 PUSH1 0x1 SHL SWAP2 PUSH1 0x0 NOT SWAP1 PUSH1 0x3 SHL SHR NOT AND OR PUSH1 0x3 SSTORE JUMPDEST TIMESTAMP PUSH1 0x5 SSTORE TIMESTAMP PUSH1 0x6 SSTORE PUSH1 0xFF NOT PUSH1 0x1 DUP2 PUSH1 0x4 SLOAD AND OR PUSH1 0x4 SSTORE PUSH1 0x1 PUSH1 0x40 MLOAD PUSH1 0x20 DUP2 DUP2 PUSH2 0xF8F DUP13 DUP4 DUP2 MLOAD SWAP4 DUP5 SWAP3 ADD PUSH2 0x2B0D JUMP JUMPDEST DUP2 ADD PUSH1 0xC DUP2 MSTORE SUB ADD SWAP1 KECCAK256 SWAP2 DUP3 SLOAD AND OR SWAP1 SSTORE PUSH1 0x40 MLOAD PUSH1 0x20 DUP2 MSTORE PUSH32 0x44CA9609D2FE597457041D7E98533A969452EF425C10A46D0DD9F074497EA1BA CALLER SWAP2 DUP1 PUSH2 0xFD8 PUSH1 0x20 DUP3 ADD DUP12 PUSH2 0x2D79 JUMP JUMPDEST SUB SWAP1 LOG2 PUSH1 0x1 DUP1 SSTORE CALLER PUSH1 0x0 MSTORE PUSH1 0xE PUSH1 0x20 MSTORE PUSH1 0x40 PUSH1 0x0 KECCAK256 SLOAD SWAP4 DUP5 PUSH1 0x0 NOT DUP2 ADD GT PUSH2 0x1618 JUMPI PUSH1 0x40 MLOAD SWAP4 PUSH2 0x1007 DUP6 PUSH2 0x2A60 JUMP JUMPDEST DUP5 MSTORE PUSH1 0x20 DUP5 ADD MSTORE PUSH1 0x40 DUP4 ADD MSTORE PUSH1 0x60 DUP3 ADD MSTORE DUP3 PUSH1 0x80 DUP3 ADD MSTORE PUSH1 0x0 NOT DUP3 ADD PUSH1 0x0 MSTORE PUSH1 0xF PUSH1 0x20 MSTORE PUSH1 0x40 PUSH1 0x0 KECCAK256 DUP2 MLOAD DUP1 MLOAD SWAP1 PUSH1 0x1 PUSH1 0x1 PUSH1 0x40 SHL SUB DUP3 GT PUSH2 0x710 JUMPI DUP2 SWAP1 PUSH2 0x104F DUP5 SLOAD PUSH2 0x2B56 JUMP JUMPDEST PUSH1 0x1F DUP2 GT PUSH2 0x15E6 JUMPI JUMPDEST POP PUSH1 0x20 SWAP1 PUSH1 0x1F DUP4 GT PUSH1 0x1 EQ PUSH2 0x157A JUMPI PUSH1 0x0 SWAP3 PUSH2 0x156F JUMPI JUMPDEST POP POP DUP2 PUSH1 0x1 SHL SWAP2 PUSH1 0x0 NOT SWAP1 PUSH1 0x3 SHL SHR NOT AND OR DUP2 SSTORE JUMPDEST PUSH1 0x20 DUP3 ADD MLOAD DUP1 MLOAD SWAP1 PUSH1 0x1 PUSH1 0x1 PUSH1 0x40 SHL SUB DUP3 GT PUSH2 0x710 JUMPI DUP2 SWAP1 PUSH2 0x10A9 PUSH1 0x1 DUP6 ADD SLOAD PUSH2 0x2B56 JUMP JUMPDEST PUSH1 0x1F DUP2 GT PUSH2 0x153A JUMPI JUMPDEST POP PUSH1 0x20 SWAP1 PUSH1 0x1F DUP4 GT PUSH1 0x1 EQ PUSH2 0x14C8 JUMPI PUSH1 0x0 SWAP3 PUSH2 0x14BD JUMPI JUMPDEST POP POP DUP2 PUSH1 0x1 SHL SWAP2 PUSH1 0x0 NOT SWAP1 PUSH1 0x3 SHL SHR NOT AND OR PUSH1 0x1 DUP3 ADD SSTORE JUMPDEST PUSH1 0x40 DUP3 ADD MLOAD DUP1 MLOAD SWAP1 PUSH1 0x1 PUSH1 0x1 PUSH1 0x40 SHL SUB DUP3 GT PUSH2 0x710 JUMPI DUP2 SWAP1 PUSH2 0x1106 PUSH1 0x2 DUP6 ADD SLOAD PUSH2 0x2B56 JUMP JUMPDEST PUSH1 0x1F DUP2 GT PUSH2 0x1488 JUMPI JUMPDEST POP PUSH1 0x20 SWAP1 PUSH1 0x1F DUP4 GT PUSH1 0x1 EQ PUSH2 0x1416 JUMPI PUSH1 0x0 SWAP3 PUSH2 0x140B JUMPI JUMPDEST POP POP DUP2 PUSH1 0x1 SHL SWAP2 PUSH1 0x0 NOT SWAP1 PUSH1 0x3 SHL SHR NOT AND OR PUSH1 0x2 DUP3 ADD SSTORE JUMPDEST PUSH1 0x60 DUP3 ADD MLOAD DUP1 MLOAD SWAP1 PUSH1 0x1 PUSH1 0x1 PUSH1 0x40 SHL SUB DUP3 GT PUSH2 0x710 JUMPI PUSH2 0x1161 PUSH1 0x3 DUP5 ADD SLOAD PUSH2 0x2B56 JUMP JUMPDEST PUSH1 0x1F DUP2 GT PUSH2 0x13D6 JUMPI JUMPDEST POP PUSH1 0x20 SWAP1 PUSH1 0x1F DUP4 GT PUSH1 0x1 EQ PUSH2 0x1361 JUMPI SWAP2 DUP1 PUSH1 0x80 SWAP5 SWAP3 PUSH1 0x4 SWAP5 PUSH1 0x0 SWAP3 PUSH2 0x1356 JUMPI JUMPDEST POP POP DUP2 PUSH1 0x1 SHL SWAP2 PUSH1 0x0 NOT SWAP1 PUSH1 0x3 SHL SHR NOT AND OR PUSH1 0x3 DUP3 ADD SSTORE JUMPDEST ADD SWAP2 ADD MLOAD DUP1 MLOAD SWAP1 PUSH1 0x1 PUSH1 0x1 PUSH1 0x40 SHL SUB DUP3 GT PUSH2 0x710 JUMPI PUSH2 0x11C1 DUP4 SLOAD PUSH2 0x2B56 JUMP JUMPDEST PUSH1 0x1F DUP2 GT PUSH2 0x1324 JUMPI JUMPDEST POP PUSH1 0x20 SWAP1 PUSH1 0x1F DUP4 GT PUSH1 0x1 EQ PUSH2 0x1292 JUMPI SWAP3 DUP3 PUSH2 0x1273 SWAP4 PUSH2 0x1282 SWAP7 SWAP4 PUSH32 0x5EA42A3A46BFC6D26E587157BF2F67B8935301180B1EEAE8DA9F363E5F68748F SWAP9 SWAP7 PUSH1 0x0 SWAP3 PUSH2 0x1287 JUMPI JUMPDEST POP POP DUP2 PUSH1 0x1 SHL SWAP2 PUSH1 0x0 NOT SWAP1 PUSH1 0x3 SHL SHR NOT AND OR SWAP1 SSTORE JUMPDEST PUSH2 0x123A PUSH2 0x122F PUSH2 0x32E7 JUMP JUMPDEST CALLER PUSH1 0x0 NOT DUP5 ADD PUSH2 0x3151 JUMP JUMPDEST POP PUSH2 0x1246 PUSH2 0x122F PUSH2 0x3307 JUMP JUMPDEST POP PUSH2 0x1252 PUSH2 0x122F PUSH2 0x332E JUMP JUMPDEST POP PUSH2 0x125E PUSH2 0x122F PUSH2 0x3350 JUMP JUMPDEST POP PUSH2 0x1267 PUSH2 0x3370 JUMP JUMPDEST SWAP1 CALLER SWAP1 PUSH1 0x0 NOT ADD PUSH2 0x3151 JUMP JUMPDEST POP PUSH1 0x40 MLOAD SWAP2 DUP3 SWAP2 CALLER SWAP6 DUP4 PUSH2 0x3092 JUMP JUMPDEST SUB SWAP1 LOG2 STOP JUMPDEST ADD MLOAD SWAP1 POP DUP10 DUP1 PUSH2 0x120F JUMP JUMPDEST SWAP1 PUSH1 0x1F NOT DUP4 AND SWAP2 DUP5 PUSH1 0x0 MSTORE PUSH1 0x20 PUSH1 0x0 KECCAK256 SWAP3 PUSH1 0x0 JUMPDEST DUP2 DUP2 LT PUSH2 0x130C JUMPI POP SWAP4 PUSH2 0x1282 SWAP7 SWAP4 PUSH32 0x5EA42A3A46BFC6D26E587157BF2F67B8935301180B1EEAE8DA9F363E5F68748F SWAP9 SWAP7 SWAP4 PUSH1 0x1 SWAP4 DUP4 PUSH2 0x1273 SWAP9 LT PUSH2 0x12F3 JUMPI JUMPDEST POP POP POP DUP2 SHL ADD SWAP1 SSTORE PUSH2 0x1224 JUMP JUMPDEST ADD MLOAD PUSH1 0x0 NOT PUSH1 0xF8 DUP5 PUSH1 0x3 SHL AND SHR NOT AND SWAP1 SSTORE DUP10 DUP1 DUP1 PUSH2 0x12E6 JUMP JUMPDEST SWAP3 SWAP4 PUSH1 0x20 PUSH1 0x1 DUP2 SWAP3 DUP8 DUP7 ADD MLOAD DUP2 SSTORE ADD SWAP6 ADD SWAP4 ADD PUSH2 0x12A6 JUMP JUMPDEST PUSH2 0x1350 SWAP1 DUP5 PUSH1 0x0 MSTORE PUSH1 0x20 PUSH1 0x0 KECCAK256 PUSH1 0x1F DUP6 ADD PUSH1 0x5 SHR DUP2 ADD SWAP2 PUSH1 0x20 DUP7 LT PUSH2 0x706 JUMPI PUSH1 0x1F ADD PUSH1 0x5 SHR ADD SWAP1 PUSH2 0x2F4F JUMP JUMPDEST DUP7 PUSH2 0x11CA JUMP JUMPDEST ADD MLOAD SWAP1 POP DUP10 DUP1 PUSH2 0x118A JUMP JUMPDEST SWAP1 PUSH1 0x3 DUP5 ADD PUSH1 0x0 MSTORE PUSH1 0x20 PUSH1 0x0 KECCAK256 SWAP2 PUSH1 0x0 JUMPDEST PUSH1 0x1F NOT DUP6 AND DUP2 LT PUSH2 0x13BE JUMPI POP SWAP3 PUSH1 0x80 SWAP5 SWAP3 PUSH1 0x1 SWAP3 PUSH1 0x4 SWAP6 DUP4 PUSH1 0x1F NOT DUP2 AND LT PUSH2 0x13A5 JUMPI JUMPDEST POP POP POP DUP2 SHL ADD PUSH1 0x3 DUP3 ADD SSTORE PUSH2 0x11A2 JUMP JUMPDEST ADD MLOAD PUSH1 0x0 NOT PUSH1 0xF8 DUP5 PUSH1 0x3 SHL AND SHR NOT AND SWAP1 SSTORE DUP10 DUP1 DUP1 PUSH2 0x1395 JUMP JUMPDEST SWAP2 SWAP3 PUSH1 0x20 PUSH1 0x1 DUP2 SWAP3 DUP7 DUP6 ADD MLOAD DUP2 SSTORE ADD SWAP5 ADD SWAP3 ADD PUSH2 0x1372 JUMP JUMPDEST PUSH2 0x1405 SWAP1 PUSH1 0x3 DUP6 ADD PUSH1 0x0 MSTORE PUSH1 0x20 PUSH1 0x0 KECCAK256 PUSH1 0x1F DUP6 ADD PUSH1 0x5 SHR DUP2 ADD SWAP2 PUSH1 0x20 DUP7 LT PUSH2 0x706 JUMPI PUSH1 0x1F ADD PUSH1 0x5 SHR ADD SWAP1 PUSH2 0x2F4F JUMP JUMPDEST DUP8 PUSH2 0x116A JUMP JUMPDEST ADD MLOAD SWAP1 POP DUP8 DUP1 PUSH2 0x1126 JUMP JUMPDEST SWAP3 POP PUSH1 0x2 DUP5 ADD PUSH1 0x0 MSTORE PUSH1 0x20 PUSH1 0x0 KECCAK256 SWAP1 PUSH1 0x0 SWAP4 JUMPDEST PUSH1 0x1F NOT DUP5 AND DUP6 LT PUSH2 0x146D JUMPI PUSH1 0x1 SWAP5 POP DUP4 PUSH1 0x1F NOT DUP2 AND LT PUSH2 0x1454 JUMPI JUMPDEST POP POP POP DUP2 SHL ADD PUSH1 0x2 DUP3 ADD SSTORE PUSH2 0x113E JUMP JUMPDEST ADD MLOAD PUSH1 0x0 NOT PUSH1 0xF8 DUP5 PUSH1 0x3 SHL AND SHR NOT AND SWAP1 SSTORE DUP8 DUP1 DUP1 PUSH2 0x1444 JUMP JUMPDEST DUP2 DUP2 ADD MLOAD DUP4 SSTORE PUSH1 0x20 SWAP5 DUP6 ADD SWAP5 PUSH1 0x1 SWAP1 SWAP4 ADD SWAP3 SWAP1 SWAP2 ADD SWAP1 PUSH2 0x1429 JUMP JUMPDEST PUSH2 0x14B7 SWAP1 PUSH1 0x2 DUP7 ADD PUSH1 0x0 MSTORE PUSH1 0x20 PUSH1 0x0 KECCAK256 PUSH1 0x1F DUP6 ADD PUSH1 0x5 SHR DUP2 ADD SWAP2 PUSH1 0x20 DUP7 LT PUSH2 0x706 JUMPI PUSH1 0x1F ADD PUSH1 0x5 SHR ADD SWAP1 PUSH2 0x2F4F JUMP JUMPDEST DUP9 PUSH2 0x110F JUMP JUMPDEST ADD MLOAD SWAP1 POP DUP8 DUP1 PUSH2 0x10C9 JUMP JUMPDEST SWAP3 POP PUSH1 0x1 DUP5 ADD PUSH1 0x0 MSTORE PUSH1 0x20 PUSH1 0x0 KECCAK256 SWAP1 PUSH1 0x0 SWAP4 JUMPDEST PUSH1 0x1F NOT DUP5 AND DUP6 LT PUSH2 0x151F JUMPI PUSH1 0x1 SWAP5 POP DUP4 PUSH1 0x1F NOT DUP2 AND LT PUSH2 0x1506 JUMPI JUMPDEST POP POP POP DUP2 SHL ADD PUSH1 0x1 DUP3 ADD SSTORE PUSH2 0x10E1 JUMP JUMPDEST ADD MLOAD PUSH1 0x0 NOT PUSH1 0xF8 DUP5 PUSH1 0x3 SHL AND SHR NOT AND SWAP1 SSTORE DUP8 DUP1 DUP1 PUSH2 0x14F6 JUMP JUMPDEST DUP2 DUP2 ADD MLOAD DUP4 SSTORE PUSH1 0x20 SWAP5 DUP6 ADD SWAP5 PUSH1 0x1 SWAP1 SWAP4 ADD SWAP3 SWAP1 SWAP2 ADD SWAP1 PUSH2 0x14DB JUMP JUMPDEST PUSH2 0x1569 SWAP1 PUSH1 0x1 DUP7 ADD PUSH1 0x0 MSTORE PUSH1 0x20 PUSH1 0x0 KECCAK256 PUSH1 0x1F DUP6 ADD PUSH1 0x5 SHR DUP2 ADD SWAP2 PUSH1 0x20 DUP7 LT PUSH2 0x706 JUMPI PUSH1 0x1F ADD PUSH1 0x5 SHR ADD SWAP1 PUSH2 0x2F4F JUMP JUMPDEST DUP9 PUSH2 0x10B2 JUMP JUMPDEST ADD MLOAD SWAP1 POP DUP8 DUP1 PUSH2 0x106F JUMP JUMPDEST SWAP3 POP DUP4 PUSH1 0x0 MSTORE PUSH1 0x20 PUSH1 0x0 KECCAK256 SWAP1 PUSH1 0x0 SWAP4 JUMPDEST PUSH1 0x1F NOT DUP5 AND DUP6 LT PUSH2 0x15CB JUMPI PUSH1 0x1 SWAP5 POP DUP4 PUSH1 0x1F NOT DUP2 AND LT PUSH2 0x15B2 JUMPI JUMPDEST POP POP POP DUP2 SHL ADD DUP2 SSTORE PUSH2 0x1084 JUMP JUMPDEST ADD MLOAD PUSH1 0x0 NOT PUSH1 0xF8 DUP5 PUSH1 0x3 SHL AND SHR NOT AND SWAP1 SSTORE DUP8 DUP1 DUP1 PUSH2 0x15A5 JUMP JUMPDEST DUP2 DUP2 ADD MLOAD DUP4 SSTORE PUSH1 0x20 SWAP5 DUP6 ADD SWAP5 PUSH1 0x1 SWAP1 SWAP4 ADD SWAP3 SWAP1 SWAP2 ADD SWAP1 PUSH2 0x158A JUMP JUMPDEST PUSH2 0x1612 SWAP1 DUP6 PUSH1 0x0 MSTORE PUSH1 0x20 PUSH1 0x0 KECCAK256 PUSH1 0x1F DUP6 ADD PUSH1 0x5 SHR DUP2 ADD SWAP2 PUSH1 0x20 DUP7 LT PUSH2 0x706 JUMPI PUSH1 0x1F ADD PUSH1 0x5 SHR ADD SWAP1 PUSH2 0x2F4F JUMP JUMPDEST DUP9 PUSH2 0x1058 JUMP JUMPDEST PUSH4 0x4E487B71 PUSH1 0xE0 SHL PUSH1 0x0 MSTORE PUSH1 0x11 PUSH1 0x4 MSTORE PUSH1 0x24 PUSH1 0x0 REVERT JUMPDEST SWAP1 POP DUP8 ADD MLOAD DUP9 PUSH2 0xF4B JUMP JUMPDEST SWAP2 POP PUSH1 0x3 PUSH1 0x0 MSTORE PUSH1 0x0 DUP1 MLOAD PUSH1 0x20 PUSH2 0x34D2 DUP4 CODECOPY DUP2 MLOAD SWAP2 MSTORE PUSH1 0x0 SWAP3 JUMPDEST PUSH1 0x1F NOT DUP4 AND DUP5 LT PUSH2 0x1694 JUMPI PUSH1 0x1 SWAP4 POP DUP3 PUSH1 0x1F NOT DUP2 AND LT PUSH2 0x167B JUMPI JUMPDEST POP POP DUP2 SHL ADD PUSH1 0x3 SSTORE PUSH2 0xF60 JUMP JUMPDEST DUP10 ADD MLOAD PUSH1 0x0 NOT PUSH1 0xF8 DUP5 PUSH1 0x3 SHL AND SHR NOT AND SWAP1 SSTORE DUP9 DUP1 PUSH2 0x166E JUMP JUMPDEST DUP10 DUP2 ADD MLOAD DUP3 SSTORE PUSH1 0x20 SWAP4 DUP5 ADD SWAP4 PUSH1 0x1 SWAP1 SWAP3 ADD SWAP2 ADD PUSH2 0x1653 JUMP JUMPDEST PUSH2 0x16E3 SWAP1 PUSH1 0x3 PUSH1 0x0 MSTORE PUSH1 0x0 DUP1 MLOAD PUSH1 0x20 PUSH2 0x34D2 DUP4 CODECOPY DUP2 MLOAD SWAP2 MSTORE PUSH1 0x1F DUP5 ADD PUSH1 0x5 SHR DUP2 ADD SWAP2 PUSH1 0x20 DUP6 LT PUSH2 0x706 JUMPI PUSH1 0x1F ADD PUSH1 0x5 SHR ADD SWAP1 PUSH2 0x2F4F JUMP JUMPDEST DUP8 PUSH2 0xF34 JUMP JUMPDEST PUSH1 0x40 MLOAD PUSH3 0x461BCD PUSH1 0xE5 SHL DUP2 MSTORE PUSH1 0x20 PUSH1 0x4 DUP3 ADD MSTORE PUSH1 0x12 PUSH1 0x24 DUP3 ADD MSTORE PUSH18 0x44494420616C726561647920657869737473 PUSH1 0x70 SHL PUSH1 0x44 DUP3 ADD MSTORE REVERT JUMPDEST PUSH1 0x40 MLOAD PUSH3 0x461BCD PUSH1 0xE5 SHL DUP2 MSTORE PUSH1 0x20 PUSH1 0x4 DUP3 ADD MSTORE PUSH1 0x19 PUSH1 0x24 DUP3 ADD MSTORE PUSH25 0x4964656E74696669657220616C726561647920696E20757365 PUSH1 0x38 SHL PUSH1 0x44 DUP3 ADD MSTORE REVERT JUMPDEST PUSH1 0x40 MLOAD PUSH3 0x461BCD PUSH1 0xE5 SHL DUP2 MSTORE PUSH1 0x20 PUSH1 0x4 DUP3 ADD MSTORE PUSH1 0x13 PUSH1 0x24 DUP3 ADD MSTORE PUSH19 0x4964656E74696669657220746F6F206C6F6E67 PUSH1 0x68 SHL PUSH1 0x44 DUP3 ADD MSTORE REVERT JUMPDEST PUSH1 0x40 MLOAD PUSH3 0x461BCD PUSH1 0xE5 SHL DUP2 MSTORE PUSH1 0x20 PUSH1 0x4 DUP3 ADD MSTORE PUSH1 0x1A PUSH1 0x24 DUP3 ADD MSTORE PUSH32 0x4964656E7469666965722063616E6E6F7420626520656D707479000000000000 PUSH1 0x44 DUP3 ADD MSTORE REVERT JUMPDEST CALLVALUE PUSH2 0x1E3 JUMPI PUSH1 0x60 CALLDATASIZE PUSH1 0x3 NOT ADD SLT PUSH2 0x1E3 JUMPI PUSH2 0x17F1 PUSH2 0x2DB4 JUMP JUMPDEST PUSH1 0x44 CALLDATALOAD PUSH1 0x1 PUSH1 0x1 PUSH1 0x40 SHL SUB DUP2 GT PUSH2 0x1E3 JUMPI PUSH2 0x39C SWAP2 PUSH2 0x1817 PUSH2 0x1821 SWAP3 CALLDATASIZE SWAP1 PUSH1 0x4 ADD PUSH2 0x2AB7 JUMP JUMPDEST SWAP1 PUSH1 0x24 CALLDATALOAD SWAP1 PUSH2 0x3395 JUMP JUMPDEST PUSH1 0x40 MLOAD SWAP2 DUP3 SWAP2 PUSH1 0x20 DUP4 MSTORE PUSH1 0x20 DUP4 ADD SWAP1 PUSH2 0x2D79 JUMP JUMPDEST CALLVALUE PUSH2 0x1E3 JUMPI PUSH1 0x60 CALLDATASIZE PUSH1 0x3 NOT ADD SLT PUSH2 0x1E3 JUMPI PUSH2 0x184E PUSH2 0x2D9E JUMP JUMPDEST PUSH1 0x44 CALLDATALOAD PUSH1 0x1 PUSH1 0x1 PUSH1 0x40 SHL SUB DUP2 GT PUSH2 0x1E3 JUMPI PUSH1 0x20 SWAP2 PUSH2 0x1873 PUSH2 0x1D9 SWAP3 CALLDATASIZE SWAP1 PUSH1 0x4 ADD PUSH2 0x2AB7 JUMP JUMPDEST SWAP1 PUSH1 0x4 CALLDATALOAD PUSH2 0x3151 JUMP JUMPDEST CALLVALUE PUSH2 0x1E3 JUMPI PUSH1 0x20 CALLDATASIZE PUSH1 0x3 NOT ADD SLT PUSH2 0x1E3 JUMPI PUSH1 0x4 CALLDATALOAD PUSH1 0x1 PUSH1 0x1 PUSH1 0x40 SHL SUB DUP2 GT PUSH2 0x1E3 JUMPI PUSH1 0x20 PUSH2 0x18B1 PUSH2 0x18C4 SWAP3 CALLDATASIZE SWAP1 PUSH1 0x4 ADD PUSH2 0x2AB7 JUMP JUMPDEST DUP2 PUSH1 0x40 MLOAD SWAP4 DUP3 DUP6 DUP1 SWAP5 MLOAD SWAP4 DUP5 SWAP3 ADD PUSH2 0x2B0D JUMP JUMPDEST DUP2 ADD PUSH1 0x9 DUP2 MSTORE SUB ADD SWAP1 KECCAK256 PUSH2 0x18D7 DUP2 PUSH2 0x2CD5 JUMP JUMPDEST SWAP1 PUSH2 0x39C PUSH1 0x2 PUSH1 0x1 DUP4 ADD SLOAD SWAP3 ADD SLOAD PUSH1 0x40 MLOAD SWAP4 DUP5 SWAP4 PUSH1 0xFF PUSH1 0x1 DUP1 PUSH1 0xA0 SHL SUB DUP5 PUSH1 0x8 SHR AND SWAP4 AND SWAP2 DUP6 PUSH2 0x2E7F JUMP JUMPDEST CALLVALUE PUSH2 0x1E3 JUMPI PUSH1 0x0 CALLDATASIZE PUSH1 0x3 NOT ADD SLT PUSH2 0x1E3 JUMPI PUSH1 0xFF PUSH1 0x7 SLOAD AND PUSH2 0x1923 DUP2 ISZERO PUSH2 0x2F0C JUMP JUMPDEST PUSH1 0xFF PUSH1 0x4 SLOAD AND SWAP1 PUSH2 0x39C PUSH1 0x5 SLOAD PUSH1 0x6 SLOAD SWAP3 PUSH2 0x193C PUSH2 0x2B90 JUMP JUMPDEST SWAP4 PUSH2 0x3FD PUSH2 0x2C3C JUMP JUMPDEST CALLVALUE PUSH2 0x1E3 JUMPI PUSH1 0x0 CALLDATASIZE PUSH1 0x3 NOT ADD SLT PUSH2 0x1E3 JUMPI PUSH1 0x0 SLOAD PUSH1 0x40 MLOAD PUSH1 0x1 PUSH1 0x1 PUSH1 0xA0 SHL SUB SWAP1 SWAP2 AND DUP2 MSTORE PUSH1 0x20 SWAP1 RETURN JUMPDEST CALLVALUE PUSH2 0x1E3 JUMPI PUSH1 0x20 PUSH1 0xFF PUSH2 0x19A1 PUSH2 0x1983 CALLDATASIZE PUSH2 0x2DCA JUMP JUMPDEST PUSH1 0x1 PUSH1 0x1 PUSH1 0xA0 SHL SUB SWAP1 SWAP2 AND PUSH1 0x0 SWAP1 DUP2 MSTORE PUSH1 0xA DUP6 MSTORE PUSH1 0x40 SWAP1 KECCAK256 SWAP1 PUSH2 0x2B30 JUMP JUMPDEST SLOAD AND PUSH1 0x40 MLOAD SWAP1 ISZERO ISZERO DUP2 MSTORE RETURN JUMPDEST CALLVALUE PUSH2 0x1E3 JUMPI PUSH1 0x0 CALLDATASIZE PUSH1 0x3 NOT ADD SLT PUSH2 0x1E3 JUMPI PUSH2 0x19C6 PUSH2 0x2EB4 JUMP JUMPDEST PUSH2 0x19CE PUSH2 0x2F66 JUMP JUMPDEST PUSH1 0x1 PUSH1 0xFF NOT PUSH1 0x2 SLOAD AND OR PUSH1 0x2 SSTORE PUSH32 0x62E78CEA01BEE320CD4E420270B5EA74000D11B0C9F74754EBDBFC544B05A258 PUSH1 0x20 PUSH1 0x40 MLOAD CALLER DUP2 MSTORE LOG1 STOP JUMPDEST CALLVALUE PUSH2 0x1E3 JUMPI PUSH1 0x0 CALLDATASIZE PUSH1 0x3 NOT ADD SLT PUSH2 0x1E3 JUMPI PUSH2 0x1A20 PUSH2 0x2EB4 JUMP JUMPDEST PUSH2 0x1A28 PUSH2 0x2F66 JUMP JUMPDEST PUSH2 0x1A37 PUSH1 0xFF PUSH1 0x7 SLOAD AND ISZERO PUSH2 0x2F0C JUMP JUMPDEST PUSH2 0x1A3F PUSH2 0x2FAA JUMP JUMPDEST PUSH1 0x4 SLOAD PUSH1 0xFF DUP2 AND ISZERO PUSH2 0x1A9D JUMPI PUSH1 0xFF NOT AND PUSH1 0x4 SSTORE TIMESTAMP PUSH1 0x6 SSTORE PUSH32 0x4360F12F602CCECEFB32480E5314D0D3F57D38DB8F52C76D8FDF4C39596C1C28 PUSH1 0x40 MLOAD PUSH1 0x20 DUP2 MSTORE DUP1 PUSH2 0x1A8B PUSH1 0x20 DUP3 ADD PUSH2 0x3000 JUMP JUMPDEST SUB SWAP1 LOG1 PUSH1 0x1 DUP1 SSTORE PUSH1 0x20 PUSH1 0x40 MLOAD PUSH1 0x1 DUP2 MSTORE RETURN JUMPDEST PUSH1 0x40 MLOAD PUSH3 0x461BCD PUSH1 0xE5 SHL DUP2 MSTORE PUSH1 0x20 PUSH1 0x4 DUP3 ADD MSTORE PUSH1 0x17 PUSH1 0x24 DUP3 ADD MSTORE PUSH32 0x44494420697320616C726561647920696E616374697665000000000000000000 PUSH1 0x44 DUP3 ADD MSTORE PUSH1 0x64 SWAP1 REVERT JUMPDEST CALLVALUE PUSH2 0x1E3 JUMPI PUSH1 0x0 CALLDATASIZE PUSH1 0x3 NOT ADD SLT PUSH2 0x1E3 JUMPI PUSH2 0x1AFB PUSH2 0x2EB4 JUMP JUMPDEST PUSH1 0x0 DUP1 SLOAD PUSH1 0x1 PUSH1 0x1 PUSH1 0xA0 SHL SUB NOT DUP2 AND DUP3 SSTORE PUSH1 0x1 PUSH1 0x1 PUSH1 0xA0 SHL SUB AND PUSH32 0x8BE0079C531659141344CD1FD0A4F28419497F9722A3DAAFE3B4186F6B6457E0 DUP3 DUP1 LOG3 STOP JUMPDEST CALLVALUE PUSH2 0x1E3 JUMPI PUSH1 0x40 CALLDATASIZE PUSH1 0x3 NOT ADD SLT PUSH2 0x1E3 JUMPI PUSH2 0x1B54 PUSH2 0x2DB4 JUMP JUMPDEST PUSH1 0x1 PUSH1 0x1 PUSH1 0xA0 SHL SUB AND PUSH1 0x0 SWAP1 DUP2 MSTORE PUSH1 0xE PUSH1 0x20 MSTORE PUSH1 0x40 SWAP1 KECCAK256 DUP1 SLOAD PUSH1 0x24 CALLDATALOAD SWAP1 DUP2 LT ISZERO PUSH2 0x1E3 JUMPI PUSH2 0x1B81 SWAP2 PUSH2 0x2E0C JUMP JUMPDEST POP PUSH2 0x1B8B DUP2 PUSH2 0x2CD5 JUMP JUMPDEST PUSH2 0x39C PUSH1 0xFF PUSH1 0x1 DUP5 ADD SLOAD AND SWAP3 PUSH1 0x2 DUP2 ADD SLOAD SWAP1 PUSH1 0x3 DUP2 ADD SLOAD PUSH2 0x3FD PUSH1 0x5 PUSH1 0xFF PUSH1 0x4 DUP6 ADD SLOAD AND SWAP4 ADD PUSH2 0x2CD5 JUMP JUMPDEST CALLVALUE PUSH2 0x1E3 JUMPI PUSH2 0x1C59 PUSH32 0x51CBCAACA6AE26944C6280C966A07B04CA5C6766D82CA497DED152579431468D PUSH2 0x1BE8 CALLDATASIZE PUSH2 0x2DCA JUMP JUMPDEST SWAP3 SWAP1 PUSH2 0x1BF2 PUSH2 0x2EB4 JUMP JUMPDEST PUSH2 0x1BFA PUSH2 0x2F66 JUMP JUMPDEST PUSH2 0x1C09 PUSH1 0xFF PUSH1 0x7 SLOAD AND ISZERO PUSH2 0x2F0C JUMP JUMPDEST PUSH2 0x1C11 PUSH2 0x2FAA JUMP JUMPDEST PUSH1 0x1 PUSH1 0x1 PUSH1 0xA0 SHL SUB AND SWAP3 PUSH2 0x1C26 DUP5 ISZERO ISZERO PUSH2 0x320E JUMP JUMPDEST DUP4 PUSH1 0x0 MSTORE PUSH1 0xA PUSH1 0x20 MSTORE PUSH2 0x1C3D PUSH1 0x40 PUSH1 0x0 KECCAK256 DUP3 PUSH2 0x2B30 JUMP JUMPDEST PUSH1 0xFF NOT DUP2 SLOAD AND SWAP1 SSTORE PUSH1 0x40 MLOAD SWAP2 DUP3 SWAP2 PUSH1 0x20 DUP4 MSTORE PUSH1 0x20 DUP4 ADD SWAP1 PUSH2 0x2D79 JUMP JUMPDEST SUB SWAP1 LOG2 PUSH1 0x1 DUP1 SSTORE PUSH1 0x20 PUSH1 0x40 MLOAD PUSH1 0x1 DUP2 MSTORE RETURN JUMPDEST CALLVALUE PUSH2 0x1E3 JUMPI PUSH1 0x40 CALLDATASIZE PUSH1 0x3 NOT ADD SLT PUSH2 0x1E3 JUMPI PUSH2 0x1C84 PUSH2 0x2DB4 JUMP JUMPDEST PUSH1 0x1 PUSH1 0x1 PUSH1 0xA0 SHL SUB DUP2 AND PUSH1 0x0 DUP2 DUP2 MSTORE PUSH1 0xE PUSH1 0x20 MSTORE PUSH1 0x40 SWAP1 KECCAK256 SLOAD PUSH1 0x24 CALLDATALOAD SWAP3 PUSH2 0x1CC1 SWAP2 PUSH2 0x1CB0 SWAP1 DUP6 LT PUSH2 0x324C JUMP JUMPDEST PUSH2 0x1CB8 PUSH2 0x32E7 JUMP JUMPDEST SWAP1 DUP5 CALLER SWAP2 PUSH2 0x328D JUMP JUMPDEST ISZERO PUSH2 0x1DC9 JUMPI PUSH1 0x0 MSTORE PUSH1 0xE PUSH1 0x20 MSTORE PUSH2 0x1CDC DUP2 PUSH1 0x40 PUSH1 0x0 KECCAK256 PUSH2 0x2E0C JUMP JUMPDEST POP SWAP1 PUSH1 0x0 MSTORE PUSH1 0xF PUSH1 0x20 MSTORE PUSH2 0x1D6C PUSH1 0x40 PUSH1 0x0 KECCAK256 SWAP2 PUSH1 0xFF PUSH1 0x1 DUP3 ADD SLOAD AND SWAP1 PUSH1 0x2 DUP2 ADD SLOAD PUSH2 0x1DB2 PUSH2 0x1D0E PUSH1 0x3 DUP5 ADD SLOAD SWAP4 PUSH2 0x2CD5 JUMP JUMPDEST PUSH2 0x1DA4 PUSH2 0x1D1A DUP9 PUSH2 0x2CD5 JUMP JUMPDEST SWAP8 PUSH2 0x1D96 PUSH2 0x1D2A PUSH1 0x1 DUP4 ADD PUSH2 0x2CD5 JUMP JUMPDEST PUSH2 0x1D88 PUSH2 0x1D39 PUSH1 0x2 DUP6 ADD PUSH2 0x2CD5 JUMP JUMPDEST SWAP2 PUSH2 0x1D7A PUSH2 0x1D55 PUSH1 0x4 PUSH2 0x1D4E PUSH1 0x3 DUP10 ADD PUSH2 0x2CD5 JUMP JUMPDEST SWAP8 ADD PUSH2 0x2CD5 JUMP JUMPDEST SWAP8 PUSH1 0x40 MLOAD SWAP15 DUP16 SWAP15 DUP16 SWAP3 PUSH2 0x120 DUP1 DUP6 MSTORE DUP5 ADD SWAP1 PUSH2 0x2D79 JUMP JUMPDEST SWAP2 PUSH1 0x20 DUP2 DUP5 SUB SWAP2 ADD MSTORE PUSH2 0x2D79 JUMP JUMPDEST DUP13 DUP2 SUB PUSH1 0x40 DUP15 ADD MSTORE SWAP1 PUSH2 0x2D79 JUMP JUMPDEST SWAP1 DUP11 DUP3 SUB PUSH1 0x60 DUP13 ADD MSTORE PUSH2 0x2D79 JUMP JUMPDEST SWAP1 DUP9 DUP3 SUB PUSH1 0x80 DUP11 ADD MSTORE PUSH2 0x2D79 JUMP JUMPDEST SWAP1 DUP7 DUP3 SUB PUSH1 0xA0 DUP9 ADD MSTORE PUSH2 0x2D79 JUMP JUMPDEST SWAP3 ISZERO ISZERO PUSH1 0xC0 DUP6 ADD MSTORE PUSH1 0xE0 DUP5 ADD MSTORE PUSH2 0x100 DUP4 ADD MSTORE SUB SWAP1 RETURN JUMPDEST PUSH1 0x40 MLOAD PUSH3 0x461BCD PUSH1 0xE5 SHL DUP2 MSTORE PUSH1 0x20 PUSH1 0x4 DUP3 ADD MSTORE PUSH1 0x24 DUP1 DUP3 ADD MSTORE PUSH32 0x4E6F7420617574686F72697A656420746F206163636573732050414E20646574 PUSH1 0x44 DUP3 ADD MSTORE PUSH4 0x61696C73 PUSH1 0xE0 SHL PUSH1 0x64 DUP3 ADD MSTORE PUSH1 0x84 SWAP1 REVERT JUMPDEST CALLVALUE PUSH2 0x1E3 JUMPI PUSH1 0x0 CALLDATASIZE PUSH1 0x3 NOT ADD SLT PUSH2 0x1E3 JUMPI PUSH1 0x20 PUSH1 0xFF PUSH1 0x2 SLOAD AND PUSH1 0x40 MLOAD SWAP1 ISZERO ISZERO DUP2 MSTORE RETURN JUMPDEST CALLVALUE PUSH2 0x1E3 JUMPI PUSH1 0x0 CALLDATASIZE PUSH1 0x3 NOT ADD SLT PUSH2 0x1E3 JUMPI PUSH1 0x20 PUSH1 0x40 MLOAD PUSH2 0x3E8 DUP2 MSTORE RETURN JUMPDEST CALLVALUE PUSH2 0x1E3 JUMPI PUSH1 0x40 CALLDATASIZE PUSH1 0x3 NOT ADD SLT PUSH2 0x1E3 JUMPI PUSH1 0x4 CALLDATALOAD PUSH1 0x1 PUSH1 0x1 PUSH1 0x40 SHL SUB DUP2 GT PUSH2 0x1E3 JUMPI PUSH2 0x1E8A SWAP1 CALLDATASIZE SWAP1 PUSH1 0x4 ADD PUSH2 0x2AB7 JUMP JUMPDEST PUSH2 0x1E92 PUSH2 0x2D9E JUMP JUMPDEST PUSH2 0x1E9A PUSH2 0x2EB4 JUMP JUMPDEST PUSH2 0x1EA2 PUSH2 0x2F66 JUMP JUMPDEST PUSH2 0x1EB1 PUSH1 0xFF PUSH1 0x7 SLOAD AND ISZERO PUSH2 0x2F0C JUMP JUMPDEST PUSH2 0x1EB9 PUSH2 0x2FAA JUMP JUMPDEST PUSH1 0x40 MLOAD SWAP2 DUP1 MLOAD PUSH2 0x1ED9 PUSH2 0x342 PUSH1 0x20 SWAP6 DUP7 DUP2 DUP2 DUP8 ADD SWAP6 PUSH2 0x332 DUP2 DUP4 DUP10 PUSH2 0x2B0D JUMP JUMPDEST PUSH1 0x1 PUSH1 0x1 PUSH1 0xA0 SHL SUB DUP4 AND SWAP3 DUP4 ISZERO PUSH2 0x1FCB JUMPI SWAP2 PUSH2 0x1F98 PUSH1 0x1 PUSH2 0x1FBB SWAP4 PUSH2 0x1F88 PUSH32 0x1C564F9C63901C7B3617B5A5A8D210F8871F28D4AFA53586ED6F670ABE7E220A SWAP7 PUSH1 0x2 PUSH1 0x40 MLOAD DUP12 DUP2 DUP10 MLOAD PUSH2 0x1F2D DUP2 DUP4 DUP11 PUSH2 0x2B0D JUMP JUMPDEST DUP2 ADD PUSH1 0x9 DUP2 MSTORE SUB ADD SWAP1 KECCAK256 ADD DUP5 PUSH1 0xFF NOT DUP3 SLOAD AND OR SWAP1 SSTORE PUSH1 0x2 PUSH1 0x40 MLOAD DUP12 DUP2 DUP10 MLOAD PUSH2 0x1F56 DUP2 DUP4 DUP11 PUSH2 0x2B0D JUMP JUMPDEST PUSH1 0x9 SWAP1 DUP3 ADD SWAP1 DUP2 MSTORE SUB ADD SWAP1 KECCAK256 ADD DUP1 SLOAD PUSH2 0x100 PUSH1 0x1 PUSH1 0xA8 SHL SUB NOT AND PUSH1 0x8 SWAP3 SWAP1 SWAP3 SHL PUSH2 0x100 PUSH1 0x1 PUSH1 0xA8 SHL SUB AND SWAP2 SWAP1 SWAP2 OR SWAP1 SSTORE JUMP JUMPDEST PUSH1 0x40 MLOAD SWAP3 DUP4 SWAP2 DUP6 MLOAD SWAP3 DUP4 SWAP2 PUSH2 0x2B0D JUMP JUMPDEST DUP3 ADD SWAP2 PUSH1 0x9 DUP4 MSTORE DUP8 DUP2 TIMESTAMP SWAP5 SUB ADD SWAP1 KECCAK256 ADD SSTORE PUSH1 0x40 MLOAD SWAP2 DUP3 SWAP2 DUP7 DUP4 MSTORE DUP7 DUP4 ADD SWAP1 PUSH2 0x2D79 JUMP JUMPDEST SUB SWAP1 LOG2 PUSH1 0x1 DUP1 SSTORE PUSH1 0x40 MLOAD PUSH1 0x1 DUP2 MSTORE RETURN JUMPDEST PUSH1 0x40 MLOAD PUSH3 0x461BCD PUSH1 0xE5 SHL DUP2 MSTORE PUSH1 0x4 DUP2 ADD DUP7 SWAP1 MSTORE PUSH1 0x18 PUSH1 0x24 DUP3 ADD MSTORE PUSH32 0x496E76616C696420766572696669657220616464726573730000000000000000 PUSH1 0x44 DUP3 ADD MSTORE PUSH1 0x64 SWAP1 REVERT JUMPDEST CALLVALUE PUSH2 0x1E3 JUMPI PUSH1 0x0 CALLDATASIZE PUSH1 0x3 NOT ADD SLT PUSH2 0x1E3 JUMPI PUSH2 0x2029 PUSH2 0x2EB4 JUMP JUMPDEST PUSH1 0x2 SLOAD PUSH1 0xFF DUP2 AND ISZERO PUSH2 0x2068 JUMPI PUSH1 0xFF NOT AND PUSH1 0x2 SSTORE PUSH32 0x5DB9EE0A495BF2E6FF9C91A7834C1BA4FDD244A5E8AA4E537BD38AEAE4B073AA PUSH1 0x20 PUSH1 0x40 MLOAD CALLER DUP2 MSTORE LOG1 STOP JUMPDEST PUSH1 0x40 MLOAD PUSH3 0x461BCD PUSH1 0xE5 SHL DUP2 MSTORE PUSH1 0x20 PUSH1 0x4 DUP3 ADD MSTORE PUSH1 0x14 PUSH1 0x24 DUP3 ADD MSTORE PUSH20 0x14185D5CD8589B194E881B9BDD081C185D5CD959 PUSH1 0x62 SHL PUSH1 0x44 DUP3 ADD MSTORE PUSH1 0x64 SWAP1 REVERT JUMPDEST CALLVALUE PUSH2 0x1E3 JUMPI PUSH1 0x0 CALLDATASIZE PUSH1 0x3 NOT ADD SLT PUSH2 0x1E3 JUMPI PUSH1 0x20 PUSH1 0x40 MLOAD PUSH1 0x32 DUP2 MSTORE RETURN JUMPDEST CALLVALUE PUSH2 0x1E3 JUMPI PUSH1 0x20 DUP1 PUSH1 0x3 NOT CALLDATASIZE ADD SLT PUSH2 0x1E3 JUMPI PUSH1 0x4 CALLDATALOAD PUSH1 0x1 PUSH1 0x1 PUSH1 0x40 SHL SUB DUP2 GT PUSH2 0x1E3 JUMPI PUSH2 0x20F1 SWAP1 CALLDATASIZE SWAP1 PUSH1 0x4 ADD PUSH2 0x2AB7 JUMP JUMPDEST PUSH2 0x20F9 PUSH2 0x2EB4 JUMP JUMPDEST PUSH2 0x2101 PUSH2 0x2F66 JUMP JUMPDEST PUSH2 0x2110 PUSH1 0xFF PUSH1 0x7 SLOAD AND ISZERO PUSH2 0x2F0C JUMP JUMPDEST PUSH2 0x2118 PUSH2 0x2FAA JUMP JUMPDEST PUSH1 0x0 PUSH1 0x2 PUSH2 0x214E DUP5 PUSH1 0x40 MLOAD PUSH2 0x213D PUSH2 0x342 DUP8 MLOAD SWAP3 DUP5 DUP2 DUP2 DUP12 ADD SWAP6 PUSH2 0x332 DUP2 DUP4 DUP10 PUSH2 0x2B0D JUMP JUMPDEST PUSH1 0x40 MLOAD DUP1 SWAP4 DUP2 SWAP3 DUP9 MLOAD SWAP3 DUP4 SWAP2 PUSH2 0x2B0D JUMP JUMPDEST DUP2 ADD PUSH1 0x9 DUP2 MSTORE SUB ADD SWAP1 KECCAK256 PUSH2 0x2162 DUP2 SLOAD PUSH2 0x2B56 JUMP JUMPDEST DUP1 PUSH2 0x2211 JUMPI JUMPDEST POP DUP3 PUSH1 0x1 DUP3 ADD SSTORE ADD SSTORE PUSH1 0xD SLOAD DUP1 ISZERO PUSH2 0x21CC JUMPI PUSH1 0x0 NOT ADD PUSH1 0xD SSTORE TIMESTAMP PUSH1 0x6 SSTORE PUSH1 0x40 MLOAD DUP3 DUP2 MSTORE PUSH32 0x8088DB29D4761A957C0A396FA3C5F3F369FBFCA4F1A83DAE8B4F76A31726246A SWAP2 DUP2 SWAP1 PUSH2 0x21BC SWAP1 DUP6 DUP4 ADD SWAP1 PUSH2 0x2D79 JUMP JUMPDEST SUB SWAP1 LOG1 PUSH1 0x1 DUP1 SSTORE PUSH1 0x40 MLOAD PUSH1 0x1 DUP2 MSTORE RETURN JUMPDEST PUSH1 0x40 MLOAD PUSH3 0x461BCD PUSH1 0xE5 SHL DUP2 MSTORE PUSH1 0x4 DUP2 ADD DUP5 SWAP1 MSTORE PUSH1 0x1B PUSH1 0x24 DUP3 ADD MSTORE PUSH32 0x436F756E7465723A2064656372656D656E74206F766572666C6F770000000000 PUSH1 0x44 DUP3 ADD MSTORE PUSH1 0x64 SWAP1 REVERT JUMPDEST PUSH1 0x1F DUP2 GT PUSH1 0x1 EQ PUSH2 0x2227 JUMPI POP DUP3 DUP2 SSTORE JUMPDEST DUP6 PUSH2 0x2168 JUMP JUMPDEST DUP4 SWAP1 DUP3 DUP3 MSTORE PUSH2 0x2244 PUSH1 0x1F DUP9 DUP5 KECCAK256 SWAP3 ADD PUSH1 0x5 SHR DUP3 ADD PUSH1 0x1 DUP4 ADD PUSH2 0x2F4F JUMP JUMPDEST DUP2 DUP4 SSTORE SSTORE PUSH2 0x2221 JUMP JUMPDEST CALLVALUE PUSH2 0x1E3 JUMPI PUSH1 0x20 DUP1 PUSH1 0x3 NOT CALLDATASIZE ADD SLT PUSH2 0x1E3 JUMPI PUSH1 0x1 PUSH1 0x1 PUSH1 0x40 SHL SUB PUSH1 0x4 CALLDATALOAD DUP2 DUP2 GT PUSH2 0x1E3 JUMPI PUSH2 0x227F SWAP1 CALLDATASIZE SWAP1 PUSH1 0x4 ADD PUSH2 0x2AB7 JUMP JUMPDEST SWAP1 PUSH2 0x2288 PUSH2 0x2F66 JUMP JUMPDEST PUSH2 0x2297 PUSH1 0xFF PUSH1 0x7 SLOAD AND ISZERO PUSH2 0x2F0C JUMP JUMPDEST PUSH2 0x229F PUSH2 0x2FAA JUMP JUMPDEST DUP2 MLOAD ISZERO PUSH2 0x250D JUMPI PUSH1 0x64 DUP3 MLOAD GT PUSH2 0x24D2 JUMPI PUSH1 0x40 MLOAD SWAP1 PUSH1 0xFF DUP4 MLOAD SWAP3 DUP6 DUP2 DUP2 DUP8 ADD SWAP6 PUSH2 0x22C9 DUP2 DUP4 DUP10 PUSH2 0x2B0D JUMP JUMPDEST DUP2 ADD PUSH1 0xC DUP2 MSTORE SUB ADD SWAP1 KECCAK256 SLOAD AND PUSH2 0x2491 JUMPI PUSH1 0x3 SWAP1 DUP2 SLOAD PUSH2 0x22E7 DUP2 PUSH2 0x2B56 JUMP JUMPDEST PUSH2 0x2457 JUMPI DUP5 MLOAD SWAP2 DUP3 GT PUSH2 0x710 JUMPI PUSH2 0x22FD SWAP1 PUSH2 0x2B56 JUMP JUMPDEST PUSH1 0x1F DUP2 GT PUSH2 0x241C JUMPI JUMPDEST POP DUP1 DUP6 PUSH1 0x1F DUP3 GT PUSH1 0x1 EQ PUSH2 0x23AE JUMPI PUSH1 0x0 SWAP2 PUSH2 0x23A3 JUMPI JUMPDEST POP DUP2 PUSH1 0x1 SHL SWAP2 PUSH1 0x0 NOT SWAP1 DUP5 SHL SHR NOT AND OR SWAP1 SSTORE JUMPDEST TIMESTAMP PUSH1 0x5 SSTORE TIMESTAMP PUSH1 0x6 SSTORE PUSH1 0x1 PUSH2 0x235C DUP5 PUSH1 0xFF NOT SWAP4 DUP4 DUP6 PUSH1 0x4 SLOAD AND OR PUSH1 0x4 SSTORE PUSH1 0x40 MLOAD DUP1 SWAP4 DUP2 SWAP3 DUP9 MLOAD SWAP3 DUP4 SWAP2 PUSH2 0x2B0D JUMP JUMPDEST DUP2 ADD PUSH1 0xC DUP2 MSTORE SUB ADD SWAP1 KECCAK256 SWAP2 DUP3 SLOAD AND OR SWAP1 SSTORE PUSH32 0x44CA9609D2FE597457041D7E98533A969452EF425C10A46D0DD9F074497EA1BA PUSH1 0x40 MLOAD DUP4 DUP2 MSTORE DUP1 PUSH2 0x1FBB CALLER SWAP5 DUP7 DUP4 ADD SWAP1 PUSH2 0x2D79 JUMP JUMPDEST SWAP1 POP DUP5 ADD MLOAD DUP7 PUSH2 0x231C JUMP JUMPDEST PUSH1 0x0 DUP5 DUP2 MSTORE PUSH1 0x0 DUP1 MLOAD PUSH1 0x20 PUSH2 0x34D2 DUP4 CODECOPY DUP2 MLOAD SWAP2 MSTORE SWAP3 POP PUSH1 0x1F NOT DUP5 AND SWAP1 JUMPDEST DUP9 DUP3 DUP3 LT PUSH2 0x2406 JUMPI POP POP SWAP1 DUP4 PUSH1 0x1 SWAP5 SWAP4 SWAP3 LT PUSH2 0x23EE JUMPI JUMPDEST POP POP DUP2 SHL ADD SWAP1 SSTORE PUSH2 0x232F JUMP JUMPDEST DUP7 ADD MLOAD PUSH1 0x0 NOT DUP4 DUP7 SHL PUSH1 0xF8 AND SHR NOT AND SWAP1 SSTORE DUP7 DUP1 PUSH2 0x23E2 JUMP JUMPDEST PUSH1 0x1 DUP5 SWAP6 DUP3 SWAP4 SWAP6 DUP12 ADD MLOAD DUP2 SSTORE ADD SWAP5 ADD SWAP3 ADD PUSH2 0x23CB JUMP JUMPDEST PUSH2 0x2451 SWAP1 DUP4 PUSH1 0x0 MSTORE PUSH1 0x0 DUP1 MLOAD PUSH1 0x20 PUSH2 0x34D2 DUP4 CODECOPY DUP2 MLOAD SWAP2 MSTORE PUSH1 0x1F DUP5 ADD PUSH1 0x5 SHR DUP2 ADD SWAP2 DUP9 DUP6 LT PUSH2 0x706 JUMPI PUSH1 0x1F ADD PUSH1 0x5 SHR ADD SWAP1 PUSH2 0x2F4F JUMP JUMPDEST DUP6 PUSH2 0x2306 JUMP JUMPDEST PUSH1 0x40 MLOAD PUSH3 0x461BCD PUSH1 0xE5 SHL DUP2 MSTORE PUSH1 0x4 DUP2 ADD DUP8 SWAP1 MSTORE PUSH1 0x12 PUSH1 0x24 DUP3 ADD MSTORE PUSH18 0x44494420616C726561647920657869737473 PUSH1 0x70 SHL PUSH1 0x44 DUP3 ADD MSTORE PUSH1 0x64 SWAP1 REVERT JUMPDEST PUSH1 0x40 MLOAD PUSH3 0x461BCD PUSH1 0xE5 SHL DUP2 MSTORE PUSH1 0x4 DUP2 ADD DUP6 SWAP1 MSTORE PUSH1 0x19 PUSH1 0x24 DUP3 ADD MSTORE PUSH25 0x4964656E74696669657220616C726561647920696E20757365 PUSH1 0x38 SHL PUSH1 0x44 DUP3 ADD MSTORE PUSH1 0x64 SWAP1 REVERT JUMPDEST PUSH1 0x40 MLOAD PUSH3 0x461BCD PUSH1 0xE5 SHL DUP2 MSTORE PUSH1 0x4 DUP2 ADD DUP5 SWAP1 MSTORE PUSH1 0x13 PUSH1 0x24 DUP3 ADD MSTORE PUSH19 0x4964656E74696669657220746F6F206C6F6E67 PUSH1 0x68 SHL PUSH1 0x44 DUP3 ADD MSTORE PUSH1 0x64 SWAP1 REVERT JUMPDEST PUSH1 0x40 MLOAD PUSH3 0x461BCD PUSH1 0xE5 SHL DUP2 MSTORE PUSH1 0x4 DUP2 ADD DUP5 SWAP1 MSTORE PUSH1 0x1A PUSH1 0x24 DUP3 ADD MSTORE PUSH32 0x4964656E7469666965722063616E6E6F7420626520656D707479000000000000 PUSH1 0x44 DUP3 ADD MSTORE PUSH1 0x64 SWAP1 REVERT JUMPDEST CALLVALUE PUSH2 0x1E3 JUMPI PUSH1 0x40 CALLDATASIZE PUSH1 0x3 NOT ADD SLT PUSH2 0x1E3 JUMPI PUSH1 0x1 PUSH1 0x1 PUSH1 0x40 SHL SUB PUSH1 0x4 CALLDATALOAD DUP2 DUP2 GT PUSH2 0x1E3 JUMPI PUSH2 0x2583 SWAP1 CALLDATASIZE SWAP1 PUSH1 0x4 ADD PUSH2 0x2AB7 JUMP JUMPDEST SWAP1 PUSH1 0x24 SWAP2 DUP3 CALLDATALOAD DUP3 DUP2 GT PUSH2 0x1E3 JUMPI PUSH2 0x259E SWAP1 CALLDATASIZE SWAP1 PUSH1 0x4 ADD PUSH2 0x2AB7 JUMP JUMPDEST SWAP1 PUSH2 0x25A7 PUSH2 0x2EB4 JUMP JUMPDEST PUSH2 0x25AF PUSH2 0x2F66 JUMP JUMPDEST PUSH2 0x25BE PUSH1 0xFF PUSH1 0x7 SLOAD AND ISZERO PUSH2 0x2F0C JUMP JUMPDEST PUSH2 0x25C6 PUSH2 0x2FAA JUMP JUMPDEST DUP1 MLOAD ISZERO PUSH2 0x28FB JUMPI PUSH2 0x3E8 DUP1 DUP3 MLOAD GT PUSH2 0x28B7 JUMPI DUP3 MLOAD ISZERO PUSH2 0x2873 JUMPI DUP3 MLOAD GT PUSH2 0x282F JUMPI PUSH1 0x32 PUSH1 0xD SLOAD LT ISZERO PUSH2 0x27EB JUMPI PUSH1 0x40 MLOAD SWAP4 PUSH2 0x25FE DUP6 PUSH2 0x2A45 JUMP JUMPDEST DUP3 DUP6 MSTORE PUSH1 0x20 SWAP5 DUP6 DUP2 ADD TIMESTAMP DUP2 MSTORE PUSH1 0x40 DUP3 ADD SWAP6 PUSH1 0x0 DUP8 MSTORE PUSH1 0x60 DUP4 ADD SWAP4 PUSH1 0x0 DUP6 MSTORE PUSH1 0x40 MLOAD DUP10 DUP2 DUP9 MLOAD PUSH2 0x2630 DUP2 DUP4 DUP6 DUP14 ADD PUSH2 0x2B0D JUMP JUMPDEST DUP2 ADD PUSH1 0x9 DUP2 MSTORE SUB ADD SWAP1 KECCAK256 SWAP4 MLOAD SWAP1 DUP2 MLOAD SWAP3 DUP4 GT PUSH2 0x27D7 JUMPI POP PUSH2 0x2651 DUP5 SLOAD PUSH2 0x2B56 JUMP JUMPDEST PUSH1 0x1F DUP2 GT PUSH2 0x27A7 JUMPI JUMPDEST POP DUP9 SWAP1 PUSH1 0x1F DUP4 GT PUSH1 0x1 EQ PUSH2 0x2716 JUMPI SWAP3 DUP3 PUSH1 0x2 SWAP4 PUSH32 0xB5992AA9568EACC71D59E4909DD6598B92A9412825EFE4598975018EA0918D75 SWAP11 SWAP7 SWAP4 PUSH2 0x26EF SWAP9 SWAP7 PUSH1 0x0 SWAP3 PUSH2 0x270B JUMPI JUMPDEST POP POP DUP2 PUSH1 0x1 SHL SWAP2 PUSH1 0x0 NOT SWAP1 PUSH1 0x3 SHL SHR NOT AND OR DUP3 SSTORE JUMPDEST MLOAD PUSH1 0x1 DUP3 ADD SSTORE SWAP3 MLOAD SWAP3 ADD DUP1 SLOAD SWAP2 MLOAD PUSH1 0x1 PUSH1 0x1 PUSH1 0xA8 SHL SUB NOT SWAP1 SWAP3 AND PUSH1 0xFF SWAP4 ISZERO ISZERO SWAP4 SWAP1 SWAP4 AND SWAP3 SWAP1 SWAP3 OR PUSH1 0x8 SWAP2 SWAP1 SWAP2 SHL PUSH2 0x100 PUSH1 0x1 PUSH1 0xA8 SHL SUB AND OR SWAP1 SSTORE JUMP JUMPDEST PUSH1 0x1 PUSH1 0xD SLOAD ADD PUSH1 0xD SSTORE TIMESTAMP PUSH1 0x6 SSTORE PUSH2 0x21BC PUSH1 0x40 MLOAD SWAP3 DUP4 SWAP3 DUP4 PUSH2 0x3092 JUMP JUMPDEST ADD MLOAD SWAP1 POP DUP13 DUP1 PUSH2 0x269E JUMP JUMPDEST SWAP1 PUSH1 0x1F NOT DUP4 AND SWAP2 DUP6 PUSH1 0x0 MSTORE DUP11 PUSH1 0x0 KECCAK256 SWAP3 PUSH1 0x0 JUMPDEST DUP13 DUP3 DUP3 LT PUSH2 0x2791 JUMPI POP POP SWAP4 PUSH32 0xB5992AA9568EACC71D59E4909DD6598B92A9412825EFE4598975018EA0918D75 SWAP11 SWAP7 SWAP4 PUSH2 0x26EF SWAP9 SWAP7 SWAP4 PUSH1 0x1 SWAP4 DUP4 PUSH1 0x2 SWAP9 LT PUSH2 0x2778 JUMPI JUMPDEST POP POP POP DUP2 SHL ADD DUP3 SSTORE PUSH2 0x26B3 JUMP JUMPDEST ADD MLOAD PUSH1 0x0 NOT PUSH1 0xF8 DUP5 PUSH1 0x3 SHL AND SHR NOT AND SWAP1 SSTORE DUP13 DUP1 DUP1 PUSH2 0x276B JUMP JUMPDEST PUSH1 0x1 DUP6 SWAP7 DUP3 SWAP4 SWAP7 DUP7 ADD MLOAD DUP2 SSTORE ADD SWAP6 ADD SWAP4 ADD PUSH2 0x2729 JUMP JUMPDEST PUSH2 0x27D1 SWAP1 DUP6 PUSH1 0x0 MSTORE DUP11 PUSH1 0x0 KECCAK256 PUSH1 0x1F DUP6 ADD PUSH1 0x5 SHR DUP2 ADD SWAP2 DUP13 DUP7 LT PUSH2 0x706 JUMPI PUSH1 0x1F ADD PUSH1 0x5 SHR ADD SWAP1 PUSH2 0x2F4F JUMP JUMPDEST DUP10 PUSH2 0x265A JUMP JUMPDEST PUSH4 0x4E487B71 PUSH1 0xE0 SHL PUSH1 0x0 SWAP1 DUP2 MSTORE PUSH1 0x41 PUSH1 0x4 MSTORE REVERT JUMPDEST PUSH1 0x40 MLOAD PUSH3 0x461BCD PUSH1 0xE5 SHL DUP2 MSTORE PUSH1 0x20 PUSH1 0x4 DUP3 ADD MSTORE PUSH1 0x1A DUP2 DUP7 ADD MSTORE PUSH32 0x4D6178696D756D20617474726962757465732072656163686564000000000000 PUSH1 0x44 DUP3 ADD MSTORE PUSH1 0x64 SWAP1 REVERT JUMPDEST PUSH1 0x40 MLOAD PUSH3 0x461BCD PUSH1 0xE5 SHL DUP2 MSTORE PUSH1 0x20 PUSH1 0x4 DUP3 ADD MSTORE PUSH1 0x18 DUP2 DUP7 ADD MSTORE PUSH32 0x4174747269627574652076616C756520746F6F206C6F6E670000000000000000 PUSH1 0x44 DUP3 ADD MSTORE PUSH1 0x64 SWAP1 REVERT JUMPDEST PUSH1 0x40 MLOAD PUSH3 0x461BCD PUSH1 0xE5 SHL DUP2 MSTORE PUSH1 0x20 PUSH1 0x4 DUP3 ADD MSTORE PUSH1 0x1F DUP2 DUP8 ADD MSTORE PUSH32 0x4174747269627574652076616C75652063616E6E6F7420626520656D70747900 PUSH1 0x44 DUP3 ADD MSTORE PUSH1 0x64 SWAP1 REVERT JUMPDEST PUSH1 0x40 MLOAD PUSH3 0x461BCD PUSH1 0xE5 SHL DUP2 MSTORE PUSH1 0x20 PUSH1 0x4 DUP3 ADD MSTORE PUSH1 0x17 DUP2 DUP8 ADD MSTORE PUSH32 0x417474726962757465206E616D6520746F6F206C6F6E67000000000000000000 PUSH1 0x44 DUP3 ADD MSTORE PUSH1 0x64 SWAP1 REVERT JUMPDEST PUSH1 0x40 MLOAD PUSH3 0x461BCD PUSH1 0xE5 SHL DUP2 MSTORE PUSH1 0x20 PUSH1 0x4 DUP3 ADD MSTORE PUSH1 0x1E DUP2 DUP7 ADD MSTORE PUSH32 0x417474726962757465206E616D652063616E6E6F7420626520656D7074790000 PUSH1 0x44 DUP3 ADD MSTORE PUSH1 0x64 SWAP1 REVERT JUMPDEST CALLVALUE PUSH2 0x1E3 JUMPI PUSH1 0x20 CALLDATASIZE PUSH1 0x3 NOT ADD SLT PUSH2 0x1E3 JUMPI PUSH1 0x4 CALLDATALOAD PUSH1 0x0 MSTORE PUSH1 0xF PUSH1 0x20 MSTORE PUSH2 0x29BF PUSH1 0x40 PUSH1 0x0 KECCAK256 PUSH2 0x39C PUSH2 0x296F DUP3 PUSH2 0x2CD5 JUMP JUMPDEST SWAP2 PUSH2 0x29E9 PUSH2 0x297F PUSH1 0x1 DUP4 ADD PUSH2 0x2CD5 JUMP JUMPDEST SWAP2 PUSH2 0x29DB PUSH2 0x298F PUSH1 0x2 DUP4 ADD PUSH2 0x2CD5 JUMP JUMPDEST PUSH2 0x29CD PUSH2 0x29AA PUSH1 0x4 PUSH2 0x29A3 PUSH1 0x3 DUP8 ADD PUSH2 0x2CD5 JUMP JUMPDEST SWAP6 ADD PUSH2 0x2CD5 JUMP JUMPDEST SWAP6 PUSH1 0x40 MLOAD SWAP10 DUP11 SWAP10 PUSH1 0xA0 DUP12 MSTORE PUSH1 0xA0 DUP12 ADD SWAP1 PUSH2 0x2D79 JUMP JUMPDEST SWAP1 DUP10 DUP3 SUB PUSH1 0x20 DUP12 ADD MSTORE PUSH2 0x2D79 JUMP JUMPDEST SWAP1 DUP8 DUP3 SUB PUSH1 0x40 DUP10 ADD MSTORE PUSH2 0x2D79 JUMP JUMPDEST SWAP1 DUP6 DUP3 SUB PUSH1 0x60 DUP8 ADD MSTORE PUSH2 0x2D79 JUMP JUMPDEST SWAP1 DUP4 DUP3 SUB PUSH1 0x80 DUP6 ADD MSTORE PUSH2 0x2D79 JUMP JUMPDEST CALLVALUE PUSH2 0x1E3 JUMPI PUSH1 0x20 CALLDATASIZE PUSH1 0x3 NOT ADD SLT PUSH2 0x1E3 JUMPI PUSH1 0x4 CALLDATALOAD PUSH1 0x1 PUSH1 0x1 PUSH1 0x40 SHL SUB DUP2 GT PUSH2 0x1E3 JUMPI PUSH1 0xFF PUSH2 0x2A2F PUSH1 0x20 PUSH2 0x18B1 DUP2 SWAP5 CALLDATASIZE SWAP1 PUSH1 0x4 ADD PUSH2 0x2AB7 JUMP JUMPDEST DUP2 ADD PUSH1 0xB DUP2 MSTORE SUB ADD SWAP1 KECCAK256 SLOAD AND PUSH1 0x40 MLOAD SWAP1 ISZERO ISZERO DUP2 MSTORE RETURN JUMPDEST PUSH1 0x80 DUP2 ADD SWAP1 DUP2 LT PUSH1 0x1 PUSH1 0x1 PUSH1 0x40 SHL SUB DUP3 GT OR PUSH2 0x710 JUMPI PUSH1 0x40 MSTORE JUMP JUMPDEST PUSH1 0xA0 DUP2 ADD SWAP1 DUP2 LT PUSH1 0x1 PUSH1 0x1 PUSH1 0x40 SHL SUB DUP3 GT OR PUSH2 0x710 JUMPI PUSH1 0x40 MSTORE JUMP JUMPDEST PUSH1 0x40 DUP2 ADD SWAP1 DUP2 LT PUSH1 0x1 PUSH1 0x1 PUSH1 0x40 SHL SUB DUP3 GT OR PUSH2 0x710 JUMPI PUSH1 0x40 MSTORE JUMP JUMPDEST SWAP1 PUSH1 0x1F DUP1 NOT SWAP2 ADD AND DUP2 ADD SWAP1 DUP2 LT PUSH1 0x1 PUSH1 0x1 PUSH1 0x40 SHL SUB DUP3 GT OR PUSH2 0x710 JUMPI PUSH1 0x40 MSTORE JUMP JUMPDEST DUP2 PUSH1 0x1F DUP3 ADD SLT ISZERO PUSH2 0x1E3 JUMPI DUP1 CALLDATALOAD SWAP1 PUSH1 0x1 PUSH1 0x1 PUSH1 0x40 SHL SUB DUP3 GT PUSH2 0x710 JUMPI PUSH1 0x40 MLOAD SWAP3 PUSH2 0x2AEB PUSH1 0x1F DUP5 ADD PUSH1 0x1F NOT AND PUSH1 0x20 ADD DUP6 PUSH2 0x2A96 JUMP JUMPDEST DUP3 DUP5 MSTORE PUSH1 0x20 DUP4 DUP4 ADD ADD GT PUSH2 0x1E3 JUMPI DUP2 PUSH1 0x0 SWAP3 PUSH1 0x20 DUP1 SWAP4 ADD DUP4 DUP7 ADD CALLDATACOPY DUP4 ADD ADD MSTORE SWAP1 JUMP JUMPDEST PUSH1 0x0 JUMPDEST DUP4 DUP2 LT PUSH2 0x2B20 JUMPI POP POP PUSH1 0x0 SWAP2 ADD MSTORE JUMP JUMPDEST DUP2 DUP2 ADD MLOAD DUP4 DUP3 ADD MSTORE PUSH1 0x20 ADD PUSH2 0x2B10 JUMP JUMPDEST PUSH1 0x20 SWAP1 PUSH2 0x2B4A SWAP3 DUP3 PUSH1 0x40 MLOAD SWAP5 DUP4 DUP7 DUP1 SWAP6 MLOAD SWAP4 DUP5 SWAP3 ADD PUSH2 0x2B0D JUMP JUMPDEST DUP3 ADD SWAP1 DUP2 MSTORE SUB ADD SWAP1 KECCAK256 SWAP1 JUMP JUMPDEST SWAP1 PUSH1 0x1 DUP3 DUP2 SHR SWAP3 AND DUP1 ISZERO PUSH2 0x2B86 JUMPI JUMPDEST PUSH1 0x20 DUP4 LT EQ PUSH2 0x2B70 JUMPI JUMP JUMPDEST PUSH4 0x4E487B71 PUSH1 0xE0 SHL PUSH1 0x0 MSTORE PUSH1 0x22 PUSH1 0x4 MSTORE PUSH1 0x24 PUSH1 0x0 REVERT JUMPDEST SWAP2 PUSH1 0x7F AND SWAP2 PUSH2 0x2B65 JUMP JUMPDEST PUSH1 0x40 MLOAD SWAP1 PUSH1 0x0 DUP3 PUSH1 0x3 SLOAD SWAP2 PUSH2 0x2BA4 DUP4 PUSH2 0x2B56 JUMP JUMPDEST DUP1 DUP4 MSTORE SWAP3 PUSH1 0x1 SWAP1 DUP2 DUP2 AND SWAP1 DUP2 ISZERO PUSH2 0x2C1A JUMPI POP PUSH1 0x1 EQ PUSH2 0x2BCD JUMPI JUMPDEST POP PUSH2 0x2BCB SWAP3 POP SUB DUP4 PUSH2 0x2A96 JUMP JUMPDEST JUMP JUMPDEST PUSH1 0x3 PUSH1 0x0 SWAP1 DUP2 MSTORE SWAP2 POP PUSH1 0x0 DUP1 MLOAD PUSH1 0x20 PUSH2 0x34D2 DUP4 CODECOPY DUP2 MLOAD SWAP2 MSTORE JUMPDEST DUP5 DUP4 LT PUSH2 0x2BFF JUMPI POP PUSH2 0x2BCB SWAP4 POP POP DUP2 ADD PUSH1 0x20 ADD CODESIZE PUSH2 0x2BBE JUMP JUMPDEST DUP2 SWAP4 POP SWAP1 DUP2 PUSH1 0x20 SWAP3 SLOAD DUP4 DUP6 DUP11 ADD ADD MSTORE ADD SWAP2 ADD SWAP1 SWAP2 DUP6 SWAP3 PUSH2 0x2BE6 JUMP JUMPDEST SWAP1 POP PUSH1 0x20 SWAP3 POP PUSH2 0x2BCB SWAP5 SWAP2 POP PUSH1 0xFF NOT AND DUP3 DUP5 ADD MSTORE ISZERO ISZERO PUSH1 0x5 SHL DUP3 ADD ADD CODESIZE PUSH2 0x2BBE JUMP JUMPDEST PUSH1 0x40 MLOAD SWAP1 PUSH1 0x0 DUP3 PUSH1 0x8 SLOAD SWAP2 PUSH2 0x2C50 DUP4 PUSH2 0x2B56 JUMP JUMPDEST DUP1 DUP4 MSTORE SWAP3 PUSH1 0x1 SWAP1 DUP2 DUP2 AND SWAP1 DUP2 ISZERO PUSH2 0x2C1A JUMPI POP PUSH1 0x1 EQ PUSH2 0x2C76 JUMPI POP PUSH2 0x2BCB SWAP3 POP SUB DUP4 PUSH2 0x2A96 JUMP JUMPDEST PUSH1 0x8 PUSH1 0x0 SWAP1 DUP2 MSTORE SWAP2 POP PUSH32 0xF3F7A9FE364FAAB93B216DA50A3214154F22A0A2B415B23A84C8169E8B636EE3 JUMPDEST DUP5 DUP4 LT PUSH2 0x2CBA JUMPI POP PUSH2 0x2BCB SWAP4 POP POP DUP2 ADD PUSH1 0x20 ADD CODESIZE PUSH2 0x2BBE JUMP JUMPDEST DUP2 SWAP4 POP SWAP1 DUP2 PUSH1 0x20 SWAP3 SLOAD DUP4 DUP6 DUP11 ADD ADD MSTORE ADD SWAP2 ADD SWAP1 SWAP2 DUP6 SWAP3 PUSH2 0x2CA1 JUMP JUMPDEST SWAP1 PUSH1 0x40 MLOAD SWAP2 DUP3 PUSH1 0x0 DUP3 SLOAD SWAP3 PUSH2 0x2CE9 DUP5 PUSH2 0x2B56 JUMP JUMPDEST SWAP1 DUP2 DUP5 MSTORE PUSH1 0x1 SWAP5 DUP6 DUP2 AND SWAP1 DUP2 PUSH1 0x0 EQ PUSH2 0x2D56 JUMPI POP PUSH1 0x1 EQ PUSH2 0x2D13 JUMPI JUMPDEST POP POP PUSH2 0x2BCB SWAP3 POP SUB DUP4 PUSH2 0x2A96 JUMP JUMPDEST SWAP1 SWAP4 SWAP2 POP PUSH1 0x0 MSTORE PUSH1 0x20 SWAP1 DUP2 PUSH1 0x0 KECCAK256 SWAP4 PUSH1 0x0 SWAP2 JUMPDEST DUP2 DUP4 LT PUSH2 0x2D3E JUMPI POP POP PUSH2 0x2BCB SWAP4 POP DUP3 ADD ADD CODESIZE DUP1 PUSH2 0x2D05 JUMP JUMPDEST DUP6 SLOAD DUP9 DUP5 ADD DUP6 ADD MSTORE SWAP5 DUP6 ADD SWAP5 DUP8 SWAP5 POP SWAP2 DUP4 ADD SWAP2 PUSH2 0x2D26 JUMP JUMPDEST SWAP2 POP POP PUSH2 0x2BCB SWAP5 POP PUSH1 0x20 SWAP3 POP PUSH1 0xFF NOT AND DUP3 DUP5 ADD MSTORE ISZERO ISZERO PUSH1 0x5 SHL DUP3 ADD ADD CODESIZE DUP1 PUSH2 0x2D05 JUMP JUMPDEST SWAP1 PUSH1 0x20 SWAP2 PUSH2 0x2D92 DUP2 MLOAD DUP1 SWAP3 DUP2 DUP6 MSTORE DUP6 DUP1 DUP7 ADD SWAP2 ADD PUSH2 0x2B0D JUMP JUMPDEST PUSH1 0x1F ADD PUSH1 0x1F NOT AND ADD ADD SWAP1 JUMP JUMPDEST PUSH1 0x24 CALLDATALOAD SWAP1 PUSH1 0x1 PUSH1 0x1 PUSH1 0xA0 SHL SUB DUP3 AND DUP3 SUB PUSH2 0x1E3 JUMPI JUMP JUMPDEST PUSH1 0x4 CALLDATALOAD SWAP1 PUSH1 0x1 PUSH1 0x1 PUSH1 0xA0 SHL SUB DUP3 AND DUP3 SUB PUSH2 0x1E3 JUMPI JUMP JUMPDEST SWAP1 PUSH1 0x40 PUSH1 0x3 NOT DUP4 ADD SLT PUSH2 0x1E3 JUMPI PUSH1 0x4 CALLDATALOAD PUSH1 0x1 PUSH1 0x1 PUSH1 0xA0 SHL SUB DUP2 AND DUP2 SUB PUSH2 0x1E3 JUMPI SWAP2 PUSH1 0x24 CALLDATALOAD SWAP1 PUSH1 0x1 PUSH1 0x1 PUSH1 0x40 SHL SUB DUP3 GT PUSH2 0x1E3 JUMPI PUSH2 0x2E09 SWAP2 PUSH1 0x4 ADD PUSH2 0x2AB7 JUMP JUMPDEST SWAP1 JUMP JUMPDEST DUP1 SLOAD DUP3 LT ISZERO PUSH2 0x2E28 JUMPI PUSH1 0x0 MSTORE PUSH1 0x6 PUSH1 0x20 PUSH1 0x0 KECCAK256 SWAP2 MUL ADD SWAP1 PUSH1 0x0 SWAP1 JUMP JUMPDEST PUSH4 0x4E487B71 PUSH1 0xE0 SHL PUSH1 0x0 MSTORE PUSH1 0x32 PUSH1 0x4 MSTORE PUSH1 0x24 PUSH1 0x0 REVERT JUMPDEST SWAP3 PUSH2 0x2E59 PUSH2 0x2E09 SWAP8 SWAP6 SWAP3 SWAP7 SWAP4 SWAP7 PUSH1 0xC0 DUP7 MSTORE PUSH1 0xC0 DUP7 ADD SWAP1 PUSH2 0x2D79 JUMP JUMPDEST SWAP6 ISZERO ISZERO PUSH1 0x20 DUP6 ADD MSTORE PUSH1 0x40 DUP5 ADD MSTORE PUSH1 0x60 DUP4 ADD MSTORE ISZERO ISZERO PUSH1 0x80 DUP3 ADD MSTORE PUSH1 0xA0 DUP2 DUP5 SUB SWAP2 ADD MSTORE PUSH2 0x2D79 JUMP JUMPDEST SWAP3 PUSH2 0x2E97 PUSH1 0x60 SWAP4 SWAP7 SWAP6 SWAP3 PUSH1 0x80 DUP7 MSTORE PUSH1 0x80 DUP7 ADD SWAP1 PUSH2 0x2D79 JUMP JUMPDEST PUSH1 0x20 DUP6 ADD SWAP7 SWAP1 SWAP7 MSTORE ISZERO ISZERO PUSH1 0x40 DUP5 ADD MSTORE PUSH1 0x1 PUSH1 0x1 PUSH1 0xA0 SHL SUB AND SWAP2 ADD MSTORE JUMP JUMPDEST PUSH1 0x0 SLOAD PUSH1 0x1 PUSH1 0x1 PUSH1 0xA0 SHL SUB AND CALLER SUB PUSH2 0x2EC8 JUMPI JUMP JUMPDEST PUSH1 0x64 PUSH1 0x40 MLOAD PUSH3 0x461BCD PUSH1 0xE5 SHL DUP2 MSTORE PUSH1 0x20 PUSH1 0x4 DUP3 ADD MSTORE PUSH1 0x20 PUSH1 0x24 DUP3 ADD MSTORE PUSH32 0x4F776E61626C653A2063616C6C6572206973206E6F7420746865206F776E6572 PUSH1 0x44 DUP3 ADD MSTORE REVERT JUMPDEST ISZERO PUSH2 0x2F13 JUMPI JUMP JUMPDEST PUSH1 0x40 MLOAD PUSH3 0x461BCD PUSH1 0xE5 SHL DUP2 MSTORE PUSH1 0x20 PUSH1 0x4 DUP3 ADD MSTORE PUSH1 0x14 PUSH1 0x24 DUP3 ADD MSTORE PUSH20 0x111251081A185CC81899595B881C995D9BDAD959 PUSH1 0x62 SHL PUSH1 0x44 DUP3 ADD MSTORE PUSH1 0x64 SWAP1 REVERT JUMPDEST DUP2 DUP2 LT PUSH2 0x2F5A JUMPI POP POP JUMP JUMPDEST PUSH1 0x0 DUP2 SSTORE PUSH1 0x1 ADD PUSH2 0x2F4F JUMP JUMPDEST PUSH1 0xFF PUSH1 0x2 SLOAD AND PUSH2 0x2F72 JUMPI JUMP JUMPDEST PUSH1 0x40 MLOAD PUSH3 0x461BCD PUSH1 0xE5 SHL DUP2 MSTORE PUSH1 0x20 PUSH1 0x4 DUP3 ADD MSTORE PUSH1 0x10 PUSH1 0x24 DUP3 ADD MSTORE PUSH16 0x14185D5CD8589B194E881C185D5CD959 PUSH1 0x82 SHL PUSH1 0x44 DUP3 ADD MSTORE PUSH1 0x64 SWAP1 REVERT JUMPDEST PUSH1 0x2 PUSH1 0x1 SLOAD EQ PUSH2 0x2FBB JUMPI PUSH1 0x2 PUSH1 0x1 SSTORE JUMP JUMPDEST PUSH1 0x40 MLOAD PUSH3 0x461BCD PUSH1 0xE5 SHL DUP2 MSTORE PUSH1 0x20 PUSH1 0x4 DUP3 ADD MSTORE PUSH1 0x1F PUSH1 0x24 DUP3 ADD MSTORE PUSH32 0x5265656E7472616E637947756172643A207265656E7472616E742063616C6C00 PUSH1 0x44 DUP3 ADD MSTORE PUSH1 0x64 SWAP1 REVERT JUMPDEST PUSH1 0x3 SLOAD PUSH1 0x0 SWAP3 SWAP2 PUSH2 0x3010 DUP3 PUSH2 0x2B56 JUMP JUMPDEST DUP1 DUP3 MSTORE SWAP2 PUSH1 0x1 SWAP1 DUP2 DUP2 AND SWAP1 DUP2 ISZERO PUSH2 0x3075 JUMPI POP PUSH1 0x1 EQ PUSH2 0x302E JUMPI POP POP POP JUMP JUMPDEST SWAP2 SWAP3 SWAP4 POP PUSH1 0x3 PUSH1 0x0 MSTORE PUSH1 0x0 DUP1 MLOAD PUSH1 0x20 PUSH2 0x34D2 DUP4 CODECOPY DUP2 MLOAD SWAP2 MSTORE SWAP2 PUSH1 0x0 SWAP3 JUMPDEST DUP5 DUP5 LT PUSH2 0x305D JUMPI POP POP PUSH1 0x20 SWAP3 POP ADD ADD SWAP1 JUMP JUMPDEST DUP1 SLOAD PUSH1 0x20 DUP6 DUP6 ADD DUP2 ADD SWAP2 SWAP1 SWAP2 MSTORE SWAP1 SWAP4 ADD SWAP3 DUP2 ADD PUSH2 0x304B JUMP JUMPDEST SWAP2 POP POP PUSH1 0x20 SWAP4 SWAP5 POP PUSH1 0xFF SWAP3 SWAP2 SWAP3 NOT AND DUP4 DUP4 ADD MSTORE ISZERO ISZERO PUSH1 0x5 SHL ADD ADD SWAP1 JUMP JUMPDEST SWAP1 SWAP2 PUSH2 0x1D6C PUSH2 0x2E09 SWAP4 PUSH1 0x40 DUP5 MSTORE PUSH1 0x40 DUP5 ADD SWAP1 PUSH2 0x2D79 JUMP JUMPDEST ISZERO PUSH2 0x30B0 JUMPI JUMP JUMPDEST PUSH1 0x40 MLOAD PUSH3 0x461BCD PUSH1 0xE5 SHL DUP2 MSTORE PUSH1 0x20 PUSH1 0x4 DUP3 ADD MSTORE PUSH1 0x18 PUSH1 0x24 DUP3 ADD MSTORE PUSH32 0x41747472696275746520646F6573206E6F742065786973740000000000000000 PUSH1 0x44 DUP3 ADD MSTORE PUSH1 0x64 SWAP1 REVERT JUMPDEST ISZERO PUSH2 0x30FC JUMPI JUMP JUMPDEST PUSH1 0x40 MLOAD PUSH3 0x461BCD PUSH1 0xE5 SHL DUP2 MSTORE PUSH1 0x20 PUSH1 0x4 DUP3 ADD MSTORE PUSH1 0x27 PUSH1 0x24 DUP3 ADD MSTORE PUSH32 0x4E6F7420617574686F72697A656420746F206163636573732074686973206174 PUSH1 0x44 DUP3 ADD MSTORE PUSH7 0x74726962757465 PUSH1 0xC8 SHL PUSH1 0x64 DUP3 ADD MSTORE PUSH1 0x84 SWAP1 REVERT JUMPDEST SWAP2 PUSH2 0x3202 SWAP1 PUSH2 0x31CC PUSH32 0x883D542F167DFC5F47E8BF1532C171025ED0E4C59C1126C7F61749FA21976A45 SWAP4 PUSH2 0x3183 PUSH2 0x2EB4 JUMP JUMPDEST PUSH2 0x318B PUSH2 0x2F66 JUMP JUMPDEST PUSH2 0x319A PUSH1 0xFF PUSH1 0x7 SLOAD AND ISZERO PUSH2 0x2F0C JUMP JUMPDEST PUSH2 0x31A2 PUSH2 0x2FAA JUMP JUMPDEST PUSH1 0x1 PUSH1 0x1 PUSH1 0xA0 SHL SUB AND SWAP5 PUSH2 0x31B7 DUP7 ISZERO ISZERO PUSH2 0x320E JUMP JUMPDEST CALLER PUSH1 0x0 MSTORE PUSH1 0xE PUSH1 0x20 MSTORE PUSH1 0x40 PUSH1 0x0 KECCAK256 SLOAD GT PUSH2 0x324C JUMP JUMPDEST DUP4 PUSH1 0x0 MSTORE PUSH1 0xA PUSH1 0x20 MSTORE PUSH2 0x31E3 PUSH1 0x40 PUSH1 0x0 KECCAK256 DUP3 PUSH2 0x2B30 JUMP JUMPDEST PUSH1 0x1 PUSH1 0xFF NOT DUP3 SLOAD AND OR SWAP1 SSTORE PUSH1 0x40 MLOAD SWAP2 DUP3 SWAP2 PUSH1 0x20 DUP4 MSTORE PUSH1 0x20 DUP4 ADD SWAP1 PUSH2 0x2D79 JUMP JUMPDEST SUB SWAP1 LOG2 PUSH1 0x1 DUP1 SSTORE PUSH1 0x1 SWAP1 JUMP JUMPDEST ISZERO PUSH2 0x3215 JUMPI JUMP JUMPDEST PUSH1 0x40 MLOAD PUSH3 0x461BCD PUSH1 0xE5 SHL DUP2 MSTORE PUSH1 0x20 PUSH1 0x4 DUP3 ADD MSTORE PUSH1 0xF PUSH1 0x24 DUP3 ADD MSTORE PUSH15 0x496E76616C69642061646472657373 PUSH1 0x88 SHL PUSH1 0x44 DUP3 ADD MSTORE PUSH1 0x64 SWAP1 REVERT JUMPDEST ISZERO PUSH2 0x3253 JUMPI JUMP JUMPDEST PUSH1 0x40 MLOAD PUSH3 0x461BCD PUSH1 0xE5 SHL DUP2 MSTORE PUSH1 0x20 PUSH1 0x4 DUP3 ADD MSTORE PUSH1 0x12 PUSH1 0x24 DUP3 ADD MSTORE PUSH18 0x11125108191BD95CC81B9BDD08195E1A5CDD PUSH1 0x72 SHL PUSH1 0x44 DUP3 ADD MSTORE PUSH1 0x64 SWAP1 REVERT JUMPDEST PUSH1 0x1 PUSH1 0x1 PUSH1 0xA0 SHL SUB SWAP1 DUP2 AND PUSH1 0x0 DUP2 DUP2 MSTORE PUSH1 0xE PUSH1 0x20 MSTORE PUSH1 0x40 SWAP1 KECCAK256 SLOAD SWAP1 SWAP5 SWAP4 SWAP2 SWAP3 PUSH2 0x32B6 SWAP2 GT PUSH2 0x324C JUMP JUMPDEST AND DUP1 SWAP3 EQ SWAP2 DUP3 ISZERO PUSH2 0x32C6 JUMPI POP POP SWAP1 JUMP JUMPDEST PUSH1 0xFF SWAP3 POP SWAP1 PUSH2 0x32E2 SWAP2 PUSH1 0x0 MSTORE PUSH1 0xA PUSH1 0x20 MSTORE PUSH1 0x40 PUSH1 0x0 KECCAK256 SWAP1 PUSH2 0x2B30 JUMP JUMPDEST SLOAD AND SWAP1 JUMP JUMPDEST PUSH1 0x40 MLOAD SWAP1 PUSH2 0x32F4 DUP3 PUSH2 0x2A7B JUMP JUMPDEST PUSH1 0x4 DUP3 MSTORE PUSH4 0x6E616D65 PUSH1 0xE0 SHL PUSH1 0x20 DUP4 ADD MSTORE JUMP JUMPDEST PUSH1 0x40 MLOAD SWAP1 PUSH2 0x3314 DUP3 PUSH2 0x2A7B JUMP JUMPDEST PUSH1 0xB DUP3 MSTORE PUSH11 0xC8C2E8CA9ECC84D2E4E8D PUSH1 0xAB SHL PUSH1 0x20 DUP4 ADD MSTORE JUMP JUMPDEST PUSH1 0x40 MLOAD SWAP1 PUSH2 0x333B DUP3 PUSH2 0x2A7B JUMP JUMPDEST PUSH1 0x6 DUP3 MSTORE PUSH6 0x33B2B73232B9 PUSH1 0xD1 SHL PUSH1 0x20 DUP4 ADD MSTORE JUMP JUMPDEST PUSH1 0x40 MLOAD SWAP1 PUSH2 0x335D DUP3 PUSH2 0x2A7B JUMP JUMPDEST PUSH1 0x4 DUP3 MSTORE PUSH4 0x30B23239 PUSH1 0xE1 SHL PUSH1 0x20 DUP4 ADD MSTORE JUMP JUMPDEST PUSH1 0x40 MLOAD SWAP1 PUSH2 0x337D DUP3 PUSH2 0x2A7B JUMP JUMPDEST PUSH1 0x9 DUP3 MSTORE PUSH9 0x3830B7273AB6B132B9 PUSH1 0xB9 SHL PUSH1 0x20 DUP4 ADD MSTORE JUMP JUMPDEST SWAP2 SWAP1 PUSH1 0x1 DUP1 PUSH1 0xA0 SHL SUB DUP4 AND PUSH1 0x0 MSTORE PUSH2 0x33CE PUSH2 0x33C9 DUP4 PUSH1 0x20 SWAP6 PUSH1 0xE DUP8 MSTORE PUSH2 0x33C1 PUSH1 0x40 PUSH1 0x0 KECCAK256 SLOAD DUP7 LT PUSH2 0x324C JUMP JUMPDEST DUP5 CALLER SWAP2 PUSH2 0x328D JUMP JUMPDEST PUSH2 0x30F5 JUMP JUMPDEST PUSH1 0x0 MSTORE PUSH1 0xF DUP3 MSTORE PUSH1 0x40 PUSH1 0x0 KECCAK256 SWAP1 DUP1 MLOAD SWAP1 DUP4 DUP2 ADD SWAP2 DUP3 KECCAK256 PUSH2 0x33EC PUSH2 0x32E7 JUMP JUMPDEST DUP6 DUP2 MLOAD SWAP2 ADD KECCAK256 EQ PUSH2 0x34C5 JUMPI DUP1 MLOAD DUP3 KECCAK256 PUSH2 0x3403 PUSH2 0x3307 JUMP JUMPDEST DUP6 DUP2 MLOAD SWAP2 ADD KECCAK256 EQ PUSH2 0x34B6 JUMPI DUP1 MLOAD DUP3 KECCAK256 PUSH2 0x341A PUSH2 0x332E JUMP JUMPDEST DUP6 DUP2 MLOAD SWAP2 ADD KECCAK256 EQ PUSH2 0x34A7 JUMPI DUP1 MLOAD DUP3 KECCAK256 PUSH2 0x3431 PUSH2 0x3350 JUMP JUMPDEST DUP6 DUP2 MLOAD SWAP2 ADD KECCAK256 EQ PUSH2 0x3498 JUMPI MLOAD SWAP1 KECCAK256 PUSH2 0x3447 PUSH2 0x3370 JUMP JUMPDEST DUP4 DUP2 MLOAD SWAP2 ADD KECCAK256 EQ PUSH2 0x348B JUMPI PUSH1 0x40 MLOAD PUSH3 0x461BCD PUSH1 0xE5 SHL DUP2 MSTORE PUSH1 0x4 DUP2 ADD DUP4 SWAP1 MSTORE PUSH1 0x11 PUSH1 0x24 DUP3 ADD MSTORE PUSH17 0x496E76616C696420617474726962757465 PUSH1 0x78 SHL PUSH1 0x44 DUP3 ADD MSTORE PUSH1 0x64 SWAP1 REVERT JUMPDEST PUSH2 0x2E09 SWAP2 POP PUSH1 0x4 ADD PUSH2 0x2CD5 JUMP JUMPDEST POP POP PUSH2 0x2E09 SWAP2 POP PUSH1 0x3 ADD PUSH2 0x2CD5 JUMP JUMPDEST POP POP PUSH2 0x2E09 SWAP2 POP PUSH1 0x2 ADD PUSH2 0x2CD5 JUMP JUMPDEST POP POP PUSH2 0x2E09 SWAP2 POP PUSH1 0x1 ADD PUSH2 0x2CD5 JUMP JUMPDEST POP POP PUSH2 0x2E09 SWAP2 POP PUSH2 0x2CD5 JUMP INVALID 0xC2 JUMPI GAS 0xE SWAP15 MSIZE EXTCODECOPY STOP 0xF9 MSIZE 0xF8 0xC9 0x2F SLT 0xDB 0x28 PUSH10 0xC3395A3B0502D05E2516 PREVRANDAO PUSH16 0x71F85BA264697066735822122023B23A 0xD2 DUP3 CALLVALUE DUP9 SWAP5 PC MSIZE 0xDF 0xAF SDIV MLOAD 0x2F 0xAA 0xA6 0x24 0xF9 MULMOD 0xDD 0xB3 0xA6 0xD4 0xD1 0xB8 0xCC PUSH14 0x4EF65CDA64736F6C634300081400 CALLER "},"methodIdentifiers":{"MAX_ATTRIBUTES()":"3aa1b5ca","MAX_ATTRIBUTE_LENGTH()":"4b9802f8","MAX_IDENTIFIER_LENGTH()":"f3d310bf","addAttribute(string,string)":"2ba56834","attributes(string)":"9bc3a000","authorizedAccess(address,string)":"8c15f62d","createDID(string)":"3457d3e2","createPANDID(string,string,string,string,string,string)":"bd7a86ca","deactivateDID()":"767bc20e","getAttribute(string)":"e8a51fca","getAttributeCount()":"c93ead1b","getAttributeDetails(string)":"e3725def","getDIDDetails()":"967a455f","getPANAttribute(address,uint256,string)":"bae2b854","getPANDetails(address,uint256)":"6662f482","grantAccess(uint256,address,string)":"a9595ffb","hasAccess(address,uint256,address,string)":"fb99d007","owner()":"8da5cb5b","panDetails(uint256)":"203223bb","pause()":"8456cb59","paused()":"5c975abb","removeAttribute(string)":"37714208","renounceOwnership()":"715018a6","revokeAccess(address,string)":"6a44cac9","revokeDID(string)":"cfe3b347","selfDID()":"e4a94adc","supportedIDTypes(string)":"0b42f3fd","transferOwnership(address)":"f2fde38b","unpause()":"3f4ba83a","updatePANDetails(uint256,string,string,string,string,string)":"cb6bae73","userDIDs(address,uint256)":"6aab3cef","verifyAttribute(string,address)":"45e8846f"}}}}}