{"contracts/IdentityRegistry.sol":{"IdentityRegistry":{"abi":[{"inputs":[],"stateMutability":"nonpayable","type":"constructor"},{"anonymous":false,"inputs":[{"indexed":true,"internalType":"address","name":"user","type":"address"},{"indexed":true,"internalType":"address","name":"serviceProvider","type":"address"}],"name":"AccessGranted","type":"event"},{"anonymous":false,"inputs":[{"indexed":true,"internalType":"address","name":"user","type":"address"},{"indexed":true,"internalType":"address","name":"serviceProvider","type":"address"}],"name":"AccessRevoked","type":"event"},{"anonymous":false,"inputs":[{"indexed":true,"internalType":"address","name":"user","type":"address"},{"indexed":true,"internalType":"string","name":"identifier","type":"string"}],"name":"DIDRegistered","type":"event"},{"anonymous":false,"inputs":[{"indexed":true,"internalType":"address","name":"user","type":"address"},{"indexed":true,"internalType":"string","name":"documentHash","type":"string"}],"name":"DocumentUploaded","type":"event"},{"anonymous":false,"inputs":[{"indexed":true,"internalType":"address","name":"user","type":"address"},{"indexed":true,"internalType":"string","name":"documentHash","type":"string"},{"indexed":true,"internalType":"address","name":"verifier","type":"address"}],"name":"DocumentVerified","type":"event"},{"anonymous":false,"inputs":[{"indexed":false,"internalType":"address","name":"account","type":"address"}],"name":"Paused","type":"event"},{"anonymous":false,"inputs":[{"indexed":true,"internalType":"bytes32","name":"role","type":"bytes32"},{"indexed":true,"internalType":"bytes32","name":"previousAdminRole","type":"bytes32"},{"indexed":true,"internalType":"bytes32","name":"newAdminRole","type":"bytes32"}],"name":"RoleAdminChanged","type":"event"},{"anonymous":false,"inputs":[{"indexed":true,"internalType":"bytes32","name":"role","type":"bytes32"},{"indexed":true,"internalType":"address","name":"account","type":"address"},{"indexed":true,"internalType":"address","name":"sender","type":"address"}],"name":"RoleGranted","type":"event"},{"anonymous":false,"inputs":[{"indexed":true,"internalType":"bytes32","name":"role","type":"bytes32"},{"indexed":true,"internalType":"address","name":"account","type":"address"},{"indexed":true,"internalType":"address","name":"sender","type":"address"}],"name":"RoleRevoked","type":"event"},{"anonymous":false,"inputs":[{"components":[{"internalType":"uint256","name":"verificationFee","type":"uint256"},{"internalType":"uint256","name":"documentExpiryTime","type":"uint256"},{"internalType":"uint256","name":"maxVerificationAttempts","type":"uint256"},{"internalType":"bool","name":"allowMultipleDIDs","type":"bool"}],"indexed":false,"internalType":"struct IdentityRegistry.SystemConfig","name":"config","type":"tuple"}],"name":"SystemConfigUpdated","type":"event"},{"anonymous":false,"inputs":[{"indexed":false,"internalType":"address","name":"account","type":"address"}],"name":"Unpaused","type":"event"},{"anonymous":false,"inputs":[{"indexed":true,"internalType":"address","name":"user","type":"address"},{"indexed":true,"internalType":"string","name":"documentHash","type":"string"},{"indexed":false,"internalType":"string","name":"reason","type":"string"}],"name":"VerificationRejected","type":"event"},{"anonymous":false,"inputs":[{"indexed":true,"internalType":"address","name":"user","type":"address"},{"indexed":true,"internalType":"address","name":"verifier","type":"address"},{"indexed":true,"internalType":"string","name":"documentHash","type":"string"}],"name":"VerificationRequested","type":"event"},{"inputs":[],"name":"ADMIN_ROLE","outputs":[{"internalType":"bytes32","name":"","type":"bytes32"}],"stateMutability":"view","type":"function"},{"inputs":[],"name":"DEFAULT_ADMIN_ROLE","outputs":[{"internalType":"bytes32","name":"","type":"bytes32"}],"stateMutability":"view","type":"function"},{"inputs":[],"name":"SERVICE_PROVIDER_ROLE","outputs":[{"internalType":"bytes32","name":"","type":"bytes32"}],"stateMutability":"view","type":"function"},{"inputs":[],"name":"USER_ROLE","outputs":[{"internalType":"bytes32","name":"","type":"bytes32"}],"stateMutability":"view","type":"function"},{"inputs":[],"name":"VERIFIER_ROLE","outputs":[{"internalType":"bytes32","name":"","type":"bytes32"}],"stateMutability":"view","type":"function"},{"inputs":[{"internalType":"address","name":"user","type":"address"}],"name":"checkAccess","outputs":[{"internalType":"bool","name":"","type":"bool"}],"stateMutability":"view","type":"function"},{"inputs":[],"name":"config","outputs":[{"internalType":"uint256","name":"verificationFee","type":"uint256"},{"internalType":"uint256","name":"documentExpiryTime","type":"uint256"},{"internalType":"uint256","name":"maxVerificationAttempts","type":"uint256"},{"internalType":"bool","name":"allowMultipleDIDs","type":"bool"}],"stateMutability":"view","type":"function"},{"inputs":[{"internalType":"string","name":"","type":"string"}],"name":"documentExists","outputs":[{"internalType":"bool","name":"","type":"bool"}],"stateMutability":"view","type":"function"},{"inputs":[{"internalType":"address","name":"user","type":"address"}],"name":"getDID","outputs":[{"internalType":"string","name":"identifier","type":"string"},{"internalType":"bool","name":"isVerified","type":"bool"},{"internalType":"uint256","name":"createdAt","type":"uint256"},{"internalType":"uint256","name":"lastUpdated","type":"uint256"},{"internalType":"uint256","name":"verificationAttempts","type":"uint256"},{"internalType":"string[]","name":"documentHashes","type":"string[]"}],"stateMutability":"view","type":"function"},{"inputs":[{"internalType":"bytes32","name":"role","type":"bytes32"}],"name":"getRoleAdmin","outputs":[{"internalType":"bytes32","name":"","type":"bytes32"}],"stateMutability":"view","type":"function"},{"inputs":[{"internalType":"string","name":"documentHash","type":"string"}],"name":"getVerificationRequest","outputs":[{"internalType":"address","name":"user","type":"address"},{"internalType":"address","name":"verifier","type":"address"},{"internalType":"uint256","name":"timestamp","type":"uint256"},{"internalType":"bool","name":"isPending","type":"bool"},{"internalType":"string","name":"rejectionReason","type":"string"}],"stateMutability":"view","type":"function"},{"inputs":[{"internalType":"address","name":"user","type":"address"}],"name":"grantAccess","outputs":[],"stateMutability":"nonpayable","type":"function"},{"inputs":[{"internalType":"bytes32","name":"role","type":"bytes32"},{"internalType":"address","name":"account","type":"address"}],"name":"grantRole","outputs":[],"stateMutability":"nonpayable","type":"function"},{"inputs":[{"internalType":"bytes32","name":"role","type":"bytes32"},{"internalType":"address","name":"account","type":"address"}],"name":"hasRole","outputs":[{"internalType":"bool","name":"","type":"bool"}],"stateMutability":"view","type":"function"},{"inputs":[],"name":"pause","outputs":[],"stateMutability":"nonpayable","type":"function"},{"inputs":[],"name":"paused","outputs":[{"internalType":"bool","name":"","type":"bool"}],"stateMutability":"view","type":"function"},{"inputs":[{"internalType":"string","name":"identifier","type":"string"}],"name":"registerDID","outputs":[],"stateMutability":"nonpayable","type":"function"},{"inputs":[{"internalType":"string","name":"documentHash","type":"string"},{"internalType":"string","name":"reason","type":"string"}],"name":"rejectVerification","outputs":[],"stateMutability":"nonpayable","type":"function"},{"inputs":[{"internalType":"bytes32","name":"role","type":"bytes32"},{"internalType":"address","name":"account","type":"address"}],"name":"renounceRole","outputs":[],"stateMutability":"nonpayable","type":"function"},{"inputs":[{"internalType":"address","name":"verifier","type":"address"},{"internalType":"string","name":"documentHash","type":"string"}],"name":"requestVerification","outputs":[],"stateMutability":"nonpayable","type":"function"},{"inputs":[{"internalType":"bytes32","name":"role","type":"bytes32"},{"internalType":"address","name":"account","type":"address"}],"name":"revokeRole","outputs":[],"stateMutability":"nonpayable","type":"function"},{"inputs":[{"internalType":"bytes4","name":"interfaceId","type":"bytes4"}],"name":"supportsInterface","outputs":[{"internalType":"bool","name":"","type":"bool"}],"stateMutability":"view","type":"function"},{"inputs":[],"name":"unpause","outputs":[],"stateMutability":"nonpayable","type":"function"},{"inputs":[{"components":[{"internalType":"uint256","name":"verificationFee","type":"uint256"},{"internalType":"uint256","name":"documentExpiryTime","type":"uint256"},{"internalType":"uint256","name":"maxVerificationAttempts","type":"uint256"},{"internalType":"bool","name":"allowMultipleDIDs","type":"bool"}],"internalType":"struct IdentityRegistry.SystemConfig","name":"_config","type":"tuple"}],"name":"updateSystemConfig","outputs":[],"stateMutability":"nonpayable","type":"function"},{"inputs":[{"internalType":"string","name":"documentHash","type":"string"}],"name":"uploadDocument","outputs":[],"stateMutability":"nonpayable","type":"function"},{"inputs":[{"internalType":"address","name":"","type":"address"}],"name":"userDIDs","outputs":[{"internalType":"string","name":"identifier","type":"string"},{"internalType":"address","name":"owner","type":"address"},{"internalType":"bool","name":"isVerified","type":"bool"},{"internalType":"uint256","name":"createdAt","type":"uint256"},{"internalType":"uint256","name":"lastUpdated","type":"uint256"},{"internalType":"uint256","name":"verificationAttempts","type":"uint256"}],"stateMutability":"view","type":"function"},{"inputs":[{"internalType":"string","name":"","type":"string"}],"name":"verificationRequests","outputs":[{"internalType":"address","name":"user","type":"address"},{"internalType":"address","name":"verifier","type":"address"},{"internalType":"string","name":"documentHash","type":"string"},{"internalType":"uint256","name":"timestamp","type":"uint256"},{"internalType":"bool","name":"isPending","type":"bool"},{"internalType":"string","name":"rejectionReason","type":"string"}],"stateMutability":"view","type":"function"},{"inputs":[{"internalType":"string","name":"documentHash","type":"string"}],"name":"verifyDocument","outputs":[],"stateMutability":"nonpayable","type":"function"}],"evm":{"bytecode":{"linkReferences":{},"object":"60806040523480156200001157600080fd5b506001805460ff191681556002556200002c600033620000a5565b620000587fa49807205ce4d355092ef5a8a18f56e8913cf4a201fbe287825b095693c2177533620000a5565b6040805160808101825267016345785d8a00008082526301e13380602083018190526003938301849052600060609093019290925282556004556005556006805460ff1916905562000146565b6000828152602081815260408083206001600160a01b038516845290915290205460ff1662000142576000828152602081815260408083206001600160a01b03851684529091529020805460ff19166001179055620001013390565b6001600160a01b0316816001600160a01b0316837f2f8788117e7eff1d82e926ec794901d17c78024a50270940304540a733656f0d60405160405180910390a45b5050565b6121a380620001566000396000f3fe608060405234801561001057600080fd5b50600436106101c45760003560e01c806375b238fc116100f9578063a217fddf11610097578063d3be903211610071578063d3be90321461041c578063d547741f14610440578063e7705db614610453578063f64e30b01461046857600080fd5b8063a217fddf146103ee578063b7f5576d146103f6578063beee5eb71461040957600080fd5b80638456cb59116100d35780638456cb591461039b57806391d14854146103a357806397b88547146103b6578063a179d1c2146103db57600080fd5b806375b238fc1461032657806379502c551461033b5780637e0238651461037657600080fd5b80633026785f11610166578063466a014611610140578063466a0146146102e2578063570810e2146102f55780635c975abb146103085780636a7d3cf81461031357600080fd5b80633026785f1461029957806336568abe146102c75780633f4ba83a146102da57600080fd5b80631656e83b116101a25780631656e83b146102295780631bc6ae8a1461023c578063248a9ca3146102635780632f2ff15d1461028657600080fd5b806301ffc9a7146101c95780630ae5e739146101f15780631311916114610206575b600080fd5b6101dc6101d7366004611a3e565b61048d565b60405190151581526020015b60405180910390f35b6102046101ff366004611a84565b6104c4565b005b61021b60008051602061210e83398151915281565b6040519081526020016101e8565b610204610237366004611b42565b6105ad565b61021b7fd8c0b0264fb5d225f4ba2fb92454d9f4f912be4d27b355562e6ae90ce2f5e74b81565b61021b610271366004611ba6565b60009081526020819052604090206001015490565b610204610294366004611bbf565b610775565b6101dc6102a7366004611beb565b805160208183018101805160098252928201919093012091525460ff1681565b6102046102d5366004611bbf565b61079a565b610204610814565b6101dc6102f0366004611a84565b610837565b610204610303366004611beb565b610892565b60015460ff166101dc565b610204610321366004611c28565b6109a8565b61021b60008051602061212e83398151915281565b6003546004546005546006546103549392919060ff1684565b60408051948552602085019390935291830152151560608201526080016101e8565b610389610384366004611a84565b610a46565b6040516101e896959493929190611ce9565b610204610b12565b6101dc6103b1366004611bbf565b610b32565b6103c96103c4366004611beb565b610b5b565b6040516101e896959493929190611d2e565b6102046103e9366004611d87565b610cc1565b61021b600081565b610204610404366004611beb565b610f58565b610204610417366004611beb565b6110f7565b61042f61042a366004611beb565b6112d6565b6040516101e8959493929190611dcb565b61020461044e366004611bbf565b6113d2565b61021b60008051602061214e83398151915281565b61047b610476366004611a84565b6113f7565b6040516101e896959493929190611e11565b60006001600160e01b03198216637965db0b60e01b14806104be57506301ffc9a760e01b6001600160e01b03198316145b92915050565b7fd8c0b0264fb5d225f4ba2fb92454d9f4f912be4d27b355562e6ae90ce2f5e74b6104ee816115c8565b6104f66115d2565b6104fe61161a565b6001600160a01b038216600090815260076020526040902060010154600160a01b900460ff166105695760405162461bcd60e51b8152602060048201526011602482015270155cd95c881b9bdd081d995c9a599a5959607a1b60448201526064015b60405180910390fd5b60405133906001600160a01b038416907f9f520b3bfc56d06f7065d10b4683b3f57ac8895d5026cd176dee95ce1454cb8d90600090a36105a96001600255565b5050565b60008051602061214e8339815191526105c5816115c8565b6105cd6115d2565b6105d561161a565b60006008846040516105e79190611ea1565b908152604051908190036020019020600481015490915060ff1661064d5760405162461bcd60e51b815260206004820152601f60248201527f4e6f2070656e64696e6720766572696669636174696f6e2072657175657374006044820152606401610560565b60018101546001600160a01b031633146106b85760405162461bcd60e51b815260206004820152602660248201527f4e6f7420617574686f72697a656420746f2072656a656374207468697320646f60448201526518dd5b595b9d60d21b6064820152608401610560565b80546001600160a01b0316600090815260076020526040812060048101805491926106e283611ed3565b909155505042600382015560048201805460ff19169055600582016107078582611f6e565b50846040516107169190611ea1565b604051908190038120835490916001600160a01b03909116907f39776e52bd7f6e327398e24997f75c69b2fd05def0e44bd34aba9f50a023c2809061075c90889061202e565b60405180910390a350506107706001600255565b505050565b600082815260208190526040902060010154610790816115c8565b6107708383611671565b6001600160a01b038116331461080a5760405162461bcd60e51b815260206004820152602f60248201527f416363657373436f6e74726f6c3a2063616e206f6e6c792072656e6f756e636560448201526e103937b632b9903337b91039b2b63360891b6064820152608401610560565b6105a982826116f5565b60008051602061212e83398151915261082c816115c8565b61083461175a565b50565b60007fd8c0b0264fb5d225f4ba2fb92454d9f4f912be4d27b355562e6ae90ce2f5e74b610863816115c8565b6001600160a01b038316600090815260076020526040902060010154600160a01b900460ff1691505b50919050565b60008051602061210e8339815191526108aa816115c8565b6108b26115d2565b6108ba61161a565b60065460ff1615806108dc575033600090815260076020526040902060020154155b6109215760405162461bcd60e51b8152602060048201526016602482015275155cd95c88185b1c9958591e481a185cc8184811125160521b6044820152606401610560565b3360009081526007602052604090208061093b8482611f6e565b506001810180546001600160a01b031916331790554260028201819055600382015560405161096b908490611ea1565b6040519081900381209033907fbfab59a7af78dfc896c3096604749fcee2db2e850297de42de5e6369f54bd3fb90600090a3506105a96001600255565b60008051602061212e8339815191526109c0816115c8565b6109c86115d2565b815160038190556020808401805160045560408086018051600555606080880180516006805460ff191691151591909117905583519687529351948601949094525190840152511515908201527fbb636cf7d0069004069f64dc46a53f815f9a95383e12427d24776a8b3e4508029060800160405180910390a15050565b600760205260009081526040902080548190610a6190611eec565b80601f0160208091040260200160405190810160405280929190818152602001828054610a8d90611eec565b8015610ada5780601f10610aaf57610100808354040283529160200191610ada565b820191906000526020600020905b815481529060010190602001808311610abd57829003601f168201915b5050505060018301546002840154600385015460049095015493946001600160a01b03831694600160a01b90930460ff169350909186565b60008051602061212e833981519152610b2a816115c8565b6108346117ac565b6000918252602082815260408084206001600160a01b0393909316845291905290205460ff1690565b8051808201602090810180516008825292820191909301209152805460018201546002830180546001600160a01b03938416949290931692610b9c90611eec565b80601f0160208091040260200160405190810160405280929190818152602001828054610bc890611eec565b8015610c155780601f10610bea57610100808354040283529160200191610c15565b820191906000526020600020905b815481529060010190602001808311610bf857829003601f168201915b50505050600383015460048401546005850180549495929460ff909216935090610c3e90611eec565b80601f0160208091040260200160405190810160405280929190818152602001828054610c6a90611eec565b8015610cb75780601f10610c8c57610100808354040283529160200191610cb7565b820191906000526020600020905b815481529060010190602001808311610c9a57829003601f168201915b5050505050905086565b60008051602061210e833981519152610cd9816115c8565b610ce16115d2565b610ce961161a565b610d0160008051602061214e83398151915284610b32565b610d405760405162461bcd60e51b815260206004820152601060248201526f24b73b30b634b2103b32b934b334b2b960811b6044820152606401610560565b600982604051610d509190611ea1565b9081526040519081900360200190205460ff16610daf5760405162461bcd60e51b815260206004820152601760248201527f446f63756d656e7420646f6573206e6f742065786973740000000000000000006044820152606401610560565b600882604051610dbf9190611ea1565b9081526040519081900360200190206004015460ff1615610e225760405162461bcd60e51b815260206004820152601e60248201527f566572696669636174696f6e20616c72656164792072657175657374656400006044820152606401610560565b336000908152600760205260409020600554600482015410610e905760405162461bcd60e51b815260206004820152602160248201527f4d617820766572696669636174696f6e20617474656d707473207265616368656044820152601960fa1b6064820152608401610560565b6000600884604051610ea29190611ea1565b90815260405190819003602001902080546001600160a01b0319908116331782556001820180546001600160a01b0389169216919091179055905060028101610eeb8582611f6e565b5042600382015560048101805460ff19166001179055604051610f0f908590611ea1565b604051908190038120906001600160a01b0387169033907f137558ce28e758be220ac60770291585795a71bf3184a3465da419e32a1a057190600090a450506107706001600255565b60008051602061210e833981519152610f70816115c8565b610f786115d2565b610f8061161a565b33600090815260076020526040902060020154610fd45760405162461bcd60e51b8152602060048201526012602482015271111251081b9bdd081c9959da5cdd195c995960721b6044820152606401610560565b600982604051610fe49190611ea1565b9081526040519081900360200190205460ff16156110445760405162461bcd60e51b815260206004820152601760248201527f446f63756d656e7420616c7265616479206578697374730000000000000000006044820152606401610560565b336000908152600760209081526040822060058101805460018101825590845291909220016110738482611f6e565b5042600382015560405160019060099061108e908690611ea1565b908152604051908190036020018120805492151560ff19909316929092179091556110ba908490611ea1565b6040519081900381209033907f124f4a6ee6006b9a10fcac9a51b1910a96b2e528b241f3c1b0a5ca12ab86018390600090a3506105a96001600255565b60008051602061214e83398151915261110f816115c8565b6111176115d2565b61111f61161a565b60006008836040516111319190611ea1565b908152604051908190036020019020600481015490915060ff166111975760405162461bcd60e51b815260206004820152601f60248201527f4e6f2070656e64696e6720766572696669636174696f6e2072657175657374006044820152606401610560565b60018101546001600160a01b031633146112025760405162461bcd60e51b815260206004820152602660248201527f4e6f7420617574686f72697a656420746f20766572696679207468697320646f60448201526518dd5b595b9d60d21b6064820152608401610560565b80546001600160a01b03166000908152600760205260409081902090516001906006830190611232908790611ea1565b908152604051908190036020019020805491151560ff1990921691909117905560048101805490600061126483611ed3565b909155505042600382015560048201805460ff19169055604051339061128b908690611ea1565b604051908190038120845490916001600160a01b03909116907f9fc7bb413bea44bff90587a21228ee62faf32ad0c4e603230c62ead4911841b190600090a450506105a96001600255565b600080600080606060006008876040516112f09190611ea1565b90815260405190819003602001902080546001820154600383015460048401546005850180549596506001600160a01b03948516959390941693919260ff9091169190819061133e90611eec565b80601f016020809104026020016040519081016040528092919081815260200182805461136a90611eec565b80156113b75780601f1061138c576101008083540402835291602001916113b7565b820191906000526020600020905b81548152906001019060200180831161139a57829003601f168201915b50505050509050955095509550955095505091939590929450565b6000828152602081905260409020600101546113ed816115c8565b61077083836116f5565b60606000806000806060600060076000896001600160a01b03166001600160a01b031681526020019081526020016000209050806000018160010160149054906101000a900460ff168260020154836003015484600401548560050185805461145f90611eec565b80601f016020809104026020016040519081016040528092919081815260200182805461148b90611eec565b80156114d85780601f106114ad576101008083540402835291602001916114d8565b820191906000526020600020905b8154815290600101906020018083116114bb57829003601f168201915b5050505050955080805480602002602001604051908101604052809291908181526020016000905b828210156115ac57838290600052602060002001805461151f90611eec565b80601f016020809104026020016040519081016040528092919081815260200182805461154b90611eec565b80156115985780601f1061156d57610100808354040283529160200191611598565b820191906000526020600020905b81548152906001019060200180831161157b57829003601f168201915b505050505081526020019060010190611500565b5050505090509650965096509650965096505091939550919395565b61083481336117e7565b60015460ff16156116185760405162461bcd60e51b815260206004820152601060248201526f14185d5cd8589b194e881c185d5cd95960821b6044820152606401610560565b565b600280540361166b5760405162461bcd60e51b815260206004820152601f60248201527f5265656e7472616e637947756172643a207265656e7472616e742063616c6c006044820152606401610560565b60028055565b61167b8282610b32565b6105a9576000828152602081815260408083206001600160a01b03851684529091529020805460ff191660011790556116b13390565b6001600160a01b0316816001600160a01b0316837f2f8788117e7eff1d82e926ec794901d17c78024a50270940304540a733656f0d60405160405180910390a45050565b6116ff8282610b32565b156105a9576000828152602081815260408083206001600160a01b0385168085529252808320805460ff1916905551339285917ff6391f5c32d9c69d2a47ea670b442974b53935d1edc7fd64eb21e047a839171b9190a45050565b611762611840565b6001805460ff191690557f5db9ee0a495bf2e6ff9c91a7834c1ba4fdd244a5e8aa4e537bd38aeae4b073aa335b6040516001600160a01b03909116815260200160405180910390a1565b6117b46115d2565b6001805460ff1916811790557f62e78cea01bee320cd4e420270b5ea74000d11b0c9f74754ebdbfc544b05a2583361178f565b6117f18282610b32565b6105a9576117fe81611889565b61180983602061189b565b60405160200161181a929190612041565b60408051601f198184030181529082905262461bcd60e51b82526105609160040161202e565b60015460ff166116185760405162461bcd60e51b815260206004820152601460248201527314185d5cd8589b194e881b9bdd081c185d5cd95960621b6044820152606401610560565b60606104be6001600160a01b03831660145b606060006118aa8360026120b6565b6118b59060026120cd565b67ffffffffffffffff8111156118cd576118cd611a9f565b6040519080825280601f01601f1916602001820160405280156118f7576020820181803683370190505b509050600360fc1b81600081518110611912576119126120e0565b60200101906001600160f81b031916908160001a905350600f60fb1b81600181518110611941576119416120e0565b60200101906001600160f81b031916908160001a90535060006119658460026120b6565b6119709060016120cd565b90505b60018111156119e8576f181899199a1a9b1b9c1cb0b131b232b360811b85600f16601081106119a4576119a46120e0565b1a60f81b8282815181106119ba576119ba6120e0565b60200101906001600160f81b031916908160001a90535060049490941c936119e1816120f6565b9050611973565b508315611a375760405162461bcd60e51b815260206004820181905260248201527f537472696e67733a20686578206c656e67746820696e73756666696369656e746044820152606401610560565b9392505050565b600060208284031215611a5057600080fd5b81356001600160e01b031981168114611a3757600080fd5b80356001600160a01b0381168114611a7f57600080fd5b919050565b600060208284031215611a9657600080fd5b611a3782611a68565b634e487b7160e01b600052604160045260246000fd5b600082601f830112611ac657600080fd5b813567ffffffffffffffff80821115611ae157611ae1611a9f565b604051601f8301601f19908116603f01168101908282118183101715611b0957611b09611a9f565b81604052838152866020858801011115611b2257600080fd5b836020870160208301376000602085830101528094505050505092915050565b60008060408385031215611b5557600080fd5b823567ffffffffffffffff80821115611b6d57600080fd5b611b7986838701611ab5565b93506020850135915080821115611b8f57600080fd5b50611b9c85828601611ab5565b9150509250929050565b600060208284031215611bb857600080fd5b5035919050565b60008060408385031215611bd257600080fd5b82359150611be260208401611a68565b90509250929050565b600060208284031215611bfd57600080fd5b813567ffffffffffffffff811115611c1457600080fd5b611c2084828501611ab5565b949350505050565b600060808284031215611c3a57600080fd5b6040516080810181811067ffffffffffffffff82111715611c5d57611c5d611a9f565b806040525082358152602083013560208201526040830135604082015260608301358015158114611c8d57600080fd5b60608201529392505050565b60005b83811015611cb4578181015183820152602001611c9c565b50506000910152565b60008151808452611cd5816020860160208601611c99565b601f01601f19169290920160200192915050565b60c081526000611cfc60c0830189611cbd565b6001600160a01b039790971660208301525093151560408501526060840192909252608083015260a090910152919050565b6001600160a01b0387811682528616602082015260c060408201819052600090611d5a90830187611cbd565b856060840152841515608084015282810360a0840152611d7a8185611cbd565b9998505050505050505050565b60008060408385031215611d9a57600080fd5b611da383611a68565b9150602083013567ffffffffffffffff811115611dbf57600080fd5b611b9c85828601611ab5565b6001600160a01b0386811682528516602082015260408101849052821515606082015260a060808201819052600090611e0690830184611cbd565b979650505050505050565b60c081526000611e2460c0830189611cbd565b60208815158185015287604085015286606085015285608085015283820360a08501528185518084528284019150828160051b85010183880160005b83811015611e8e57601f19878403018552611e7c838351611cbd565b94860194925090850190600101611e60565b50909d9c50505050505050505050505050565b60008251611eb3818460208701611c99565b9190910192915050565b634e487b7160e01b600052601160045260246000fd5b600060018201611ee557611ee5611ebd565b5060010190565b600181811c90821680611f0057607f821691505b60208210810361088c57634e487b7160e01b600052602260045260246000fd5b601f82111561077057600081815260208120601f850160051c81016020861015611f475750805b601f850160051c820191505b81811015611f6657828155600101611f53565b505050505050565b815167ffffffffffffffff811115611f8857611f88611a9f565b611f9c81611f968454611eec565b84611f20565b602080601f831160018114611fd15760008415611fb95750858301515b600019600386901b1c1916600185901b178555611f66565b600085815260208120601f198616915b8281101561200057888601518255948401946001909101908401611fe1565b508582101561201e5787850151600019600388901b60f8161c191681555b5050505050600190811b01905550565b602081526000611a376020830184611cbd565b7f416363657373436f6e74726f6c3a206163636f756e7420000000000000000000815260008351612079816017850160208801611c99565b7001034b99036b4b9b9b4b733903937b6329607d1b60179184019182015283516120aa816028840160208801611c99565b01602801949350505050565b80820281158282048414176104be576104be611ebd565b808201808211156104be576104be611ebd565b634e487b7160e01b600052603260045260246000fd5b60008161210557612105611ebd565b50600019019056fe14823911f2da1b49f045a0929a60b8c1f2a7fc8c06c7284ca3e8ab4e193a08c8a49807205ce4d355092ef5a8a18f56e8913cf4a201fbe287825b095693c217750ce23c3e399818cfee81a7ab0880f714e53d7672b08df0fa62f2843416e1ea09a264697066735822122001680c197d730dd6bc20756939d0e73a87792862ff51945e1c010179996dac2f64736f6c63430008130033","opcodes":"PUSH1 0x80 PUSH1 0x40 MSTORE CALLVALUE DUP1 ISZERO PUSH3 0x11 JUMPI PUSH1 0x0 DUP1 REVERT JUMPDEST POP PUSH1 0x1 DUP1 SLOAD PUSH1 0xFF NOT AND DUP2 SSTORE PUSH1 0x2 SSTORE PUSH3 0x2C PUSH1 0x0 CALLER PUSH3 0xA5 JUMP JUMPDEST PUSH3 0x58 PUSH32 0xA49807205CE4D355092EF5A8A18F56E8913CF4A201FBE287825B095693C21775 CALLER PUSH3 0xA5 JUMP JUMPDEST PUSH1 0x40 DUP1 MLOAD PUSH1 0x80 DUP2 ADD DUP3 MSTORE PUSH8 0x16345785D8A0000 DUP1 DUP3 MSTORE PUSH4 0x1E13380 PUSH1 0x20 DUP4 ADD DUP2 SWAP1 MSTORE PUSH1 0x3 SWAP4 DUP4 ADD DUP5 SWAP1 MSTORE PUSH1 0x0 PUSH1 0x60 SWAP1 SWAP4 ADD SWAP3 SWAP1 SWAP3 MSTORE DUP3 SSTORE PUSH1 0x4 SSTORE PUSH1 0x5 SSTORE PUSH1 0x6 DUP1 SLOAD PUSH1 0xFF NOT AND SWAP1 SSTORE PUSH3 0x146 JUMP JUMPDEST PUSH1 0x0 DUP3 DUP2 MSTORE PUSH1 0x20 DUP2 DUP2 MSTORE PUSH1 0x40 DUP1 DUP4 KECCAK256 PUSH1 0x1 PUSH1 0x1 PUSH1 0xA0 SHL SUB DUP6 AND DUP5 MSTORE SWAP1 SWAP2 MSTORE SWAP1 KECCAK256 SLOAD PUSH1 0xFF AND PUSH3 0x142 JUMPI PUSH1 0x0 DUP3 DUP2 MSTORE PUSH1 0x20 DUP2 DUP2 MSTORE PUSH1 0x40 DUP1 DUP4 KECCAK256 PUSH1 0x1 PUSH1 0x1 PUSH1 0xA0 SHL SUB DUP6 AND DUP5 MSTORE SWAP1 SWAP2 MSTORE SWAP1 KECCAK256 DUP1 SLOAD PUSH1 0xFF NOT AND PUSH1 0x1 OR SWAP1 SSTORE PUSH3 0x101 CALLER SWAP1 JUMP JUMPDEST PUSH1 0x1 PUSH1 0x1 PUSH1 0xA0 SHL SUB AND DUP2 PUSH1 0x1 PUSH1 0x1 PUSH1 0xA0 SHL SUB AND DUP4 PUSH32 0x2F8788117E7EFF1D82E926EC794901D17C78024A50270940304540A733656F0D PUSH1 0x40 MLOAD PUSH1 0x40 MLOAD DUP1 SWAP2 SUB SWAP1 LOG4 JUMPDEST POP POP JUMP JUMPDEST PUSH2 0x21A3 DUP1 PUSH3 0x156 PUSH1 0x0 CODECOPY PUSH1 0x0 RETURN INVALID PUSH1 0x80 PUSH1 0x40 MSTORE CALLVALUE DUP1 ISZERO PUSH2 0x10 JUMPI PUSH1 0x0 DUP1 REVERT JUMPDEST POP PUSH1 0x4 CALLDATASIZE LT PUSH2 0x1C4 JUMPI PUSH1 0x0 CALLDATALOAD PUSH1 0xE0 SHR DUP1 PUSH4 0x75B238FC GT PUSH2 0xF9 JUMPI DUP1 PUSH4 0xA217FDDF GT PUSH2 0x97 JUMPI DUP1 PUSH4 0xD3BE9032 GT PUSH2 0x71 JUMPI DUP1 PUSH4 0xD3BE9032 EQ PUSH2 0x41C JUMPI DUP1 PUSH4 0xD547741F EQ PUSH2 0x440 JUMPI DUP1 PUSH4 0xE7705DB6 EQ PUSH2 0x453 JUMPI DUP1 PUSH4 0xF64E30B0 EQ PUSH2 0x468 JUMPI PUSH1 0x0 DUP1 REVERT JUMPDEST DUP1 PUSH4 0xA217FDDF EQ PUSH2 0x3EE JUMPI DUP1 PUSH4 0xB7F5576D EQ PUSH2 0x3F6 JUMPI DUP1 PUSH4 0xBEEE5EB7 EQ PUSH2 0x409 JUMPI PUSH1 0x0 DUP1 REVERT JUMPDEST DUP1 PUSH4 0x8456CB59 GT PUSH2 0xD3 JUMPI DUP1 PUSH4 0x8456CB59 EQ PUSH2 0x39B JUMPI DUP1 PUSH4 0x91D14854 EQ PUSH2 0x3A3 JUMPI DUP1 PUSH4 0x97B88547 EQ PUSH2 0x3B6 JUMPI DUP1 PUSH4 0xA179D1C2 EQ PUSH2 0x3DB JUMPI PUSH1 0x0 DUP1 REVERT JUMPDEST DUP1 PUSH4 0x75B238FC EQ PUSH2 0x326 JUMPI DUP1 PUSH4 0x79502C55 EQ PUSH2 0x33B JUMPI DUP1 PUSH4 0x7E023865 EQ PUSH2 0x376 JUMPI PUSH1 0x0 DUP1 REVERT JUMPDEST DUP1 PUSH4 0x3026785F GT PUSH2 0x166 JUMPI DUP1 PUSH4 0x466A0146 GT PUSH2 0x140 JUMPI DUP1 PUSH4 0x466A0146 EQ PUSH2 0x2E2 JUMPI DUP1 PUSH4 0x570810E2 EQ PUSH2 0x2F5 JUMPI DUP1 PUSH4 0x5C975ABB EQ PUSH2 0x308 JUMPI DUP1 PUSH4 0x6A7D3CF8 EQ PUSH2 0x313 JUMPI PUSH1 0x0 DUP1 REVERT JUMPDEST DUP1 PUSH4 0x3026785F EQ PUSH2 0x299 JUMPI DUP1 PUSH4 0x36568ABE EQ PUSH2 0x2C7 JUMPI DUP1 PUSH4 0x3F4BA83A EQ PUSH2 0x2DA JUMPI PUSH1 0x0 DUP1 REVERT JUMPDEST DUP1 PUSH4 0x1656E83B GT PUSH2 0x1A2 JUMPI DUP1 PUSH4 0x1656E83B EQ PUSH2 0x229 JUMPI DUP1 PUSH4 0x1BC6AE8A EQ PUSH2 0x23C JUMPI DUP1 PUSH4 0x248A9CA3 EQ PUSH2 0x263 JUMPI DUP1 PUSH4 0x2F2FF15D EQ PUSH2 0x286 JUMPI PUSH1 0x0 DUP1 REVERT JUMPDEST DUP1 PUSH4 0x1FFC9A7 EQ PUSH2 0x1C9 JUMPI DUP1 PUSH4 0xAE5E739 EQ PUSH2 0x1F1 JUMPI DUP1 PUSH4 0x13119161 EQ PUSH2 0x206 JUMPI JUMPDEST PUSH1 0x0 DUP1 REVERT JUMPDEST PUSH2 0x1DC PUSH2 0x1D7 CALLDATASIZE PUSH1 0x4 PUSH2 0x1A3E JUMP JUMPDEST PUSH2 0x48D JUMP JUMPDEST PUSH1 0x40 MLOAD SWAP1 ISZERO ISZERO DUP2 MSTORE PUSH1 0x20 ADD JUMPDEST PUSH1 0x40 MLOAD DUP1 SWAP2 SUB SWAP1 RETURN JUMPDEST PUSH2 0x204 PUSH2 0x1FF CALLDATASIZE PUSH1 0x4 PUSH2 0x1A84 JUMP JUMPDEST PUSH2 0x4C4 JUMP JUMPDEST STOP JUMPDEST PUSH2 0x21B PUSH1 0x0 DUP1 MLOAD PUSH1 0x20 PUSH2 0x210E DUP4 CODECOPY DUP2 MLOAD SWAP2 MSTORE DUP2 JUMP JUMPDEST PUSH1 0x40 MLOAD SWAP1 DUP2 MSTORE PUSH1 0x20 ADD PUSH2 0x1E8 JUMP JUMPDEST PUSH2 0x204 PUSH2 0x237 CALLDATASIZE PUSH1 0x4 PUSH2 0x1B42 JUMP JUMPDEST PUSH2 0x5AD JUMP JUMPDEST PUSH2 0x21B PUSH32 0xD8C0B0264FB5D225F4BA2FB92454D9F4F912BE4D27B355562E6AE90CE2F5E74B DUP2 JUMP JUMPDEST PUSH2 0x21B PUSH2 0x271 CALLDATASIZE PUSH1 0x4 PUSH2 0x1BA6 JUMP JUMPDEST PUSH1 0x0 SWAP1 DUP2 MSTORE PUSH1 0x20 DUP2 SWAP1 MSTORE PUSH1 0x40 SWAP1 KECCAK256 PUSH1 0x1 ADD SLOAD SWAP1 JUMP JUMPDEST PUSH2 0x204 PUSH2 0x294 CALLDATASIZE PUSH1 0x4 PUSH2 0x1BBF JUMP JUMPDEST PUSH2 0x775 JUMP JUMPDEST PUSH2 0x1DC PUSH2 0x2A7 CALLDATASIZE PUSH1 0x4 PUSH2 0x1BEB JUMP JUMPDEST DUP1 MLOAD PUSH1 0x20 DUP2 DUP4 ADD DUP2 ADD DUP1 MLOAD PUSH1 0x9 DUP3 MSTORE SWAP3 DUP3 ADD SWAP2 SWAP1 SWAP4 ADD KECCAK256 SWAP2 MSTORE SLOAD PUSH1 0xFF AND DUP2 JUMP JUMPDEST PUSH2 0x204 PUSH2 0x2D5 CALLDATASIZE PUSH1 0x4 PUSH2 0x1BBF JUMP JUMPDEST PUSH2 0x79A JUMP JUMPDEST PUSH2 0x204 PUSH2 0x814 JUMP JUMPDEST PUSH2 0x1DC PUSH2 0x2F0 CALLDATASIZE PUSH1 0x4 PUSH2 0x1A84 JUMP JUMPDEST PUSH2 0x837 JUMP JUMPDEST PUSH2 0x204 PUSH2 0x303 CALLDATASIZE PUSH1 0x4 PUSH2 0x1BEB JUMP JUMPDEST PUSH2 0x892 JUMP JUMPDEST PUSH1 0x1 SLOAD PUSH1 0xFF AND PUSH2 0x1DC JUMP JUMPDEST PUSH2 0x204 PUSH2 0x321 CALLDATASIZE PUSH1 0x4 PUSH2 0x1C28 JUMP JUMPDEST PUSH2 0x9A8 JUMP JUMPDEST PUSH2 0x21B PUSH1 0x0 DUP1 MLOAD PUSH1 0x20 PUSH2 0x212E DUP4 CODECOPY DUP2 MLOAD SWAP2 MSTORE DUP2 JUMP JUMPDEST PUSH1 0x3 SLOAD PUSH1 0x4 SLOAD PUSH1 0x5 SLOAD PUSH1 0x6 SLOAD PUSH2 0x354 SWAP4 SWAP3 SWAP2 SWAP1 PUSH1 0xFF AND DUP5 JUMP JUMPDEST PUSH1 0x40 DUP1 MLOAD SWAP5 DUP6 MSTORE PUSH1 0x20 DUP6 ADD SWAP4 SWAP1 SWAP4 MSTORE SWAP2 DUP4 ADD MSTORE ISZERO ISZERO PUSH1 0x60 DUP3 ADD MSTORE PUSH1 0x80 ADD PUSH2 0x1E8 JUMP JUMPDEST PUSH2 0x389 PUSH2 0x384 CALLDATASIZE PUSH1 0x4 PUSH2 0x1A84 JUMP JUMPDEST PUSH2 0xA46 JUMP JUMPDEST PUSH1 0x40 MLOAD PUSH2 0x1E8 SWAP7 SWAP6 SWAP5 SWAP4 SWAP3 SWAP2 SWAP1 PUSH2 0x1CE9 JUMP JUMPDEST PUSH2 0x204 PUSH2 0xB12 JUMP JUMPDEST PUSH2 0x1DC PUSH2 0x3B1 CALLDATASIZE PUSH1 0x4 PUSH2 0x1BBF JUMP JUMPDEST PUSH2 0xB32 JUMP JUMPDEST PUSH2 0x3C9 PUSH2 0x3C4 CALLDATASIZE PUSH1 0x4 PUSH2 0x1BEB JUMP JUMPDEST PUSH2 0xB5B JUMP JUMPDEST PUSH1 0x40 MLOAD PUSH2 0x1E8 SWAP7 SWAP6 SWAP5 SWAP4 SWAP3 SWAP2 SWAP1 PUSH2 0x1D2E JUMP JUMPDEST PUSH2 0x204 PUSH2 0x3E9 CALLDATASIZE PUSH1 0x4 PUSH2 0x1D87 JUMP JUMPDEST PUSH2 0xCC1 JUMP JUMPDEST PUSH2 0x21B PUSH1 0x0 DUP2 JUMP JUMPDEST PUSH2 0x204 PUSH2 0x404 CALLDATASIZE PUSH1 0x4 PUSH2 0x1BEB JUMP JUMPDEST PUSH2 0xF58 JUMP JUMPDEST PUSH2 0x204 PUSH2 0x417 CALLDATASIZE PUSH1 0x4 PUSH2 0x1BEB JUMP JUMPDEST PUSH2 0x10F7 JUMP JUMPDEST PUSH2 0x42F PUSH2 0x42A CALLDATASIZE PUSH1 0x4 PUSH2 0x1BEB JUMP JUMPDEST PUSH2 0x12D6 JUMP JUMPDEST PUSH1 0x40 MLOAD PUSH2 0x1E8 SWAP6 SWAP5 SWAP4 SWAP3 SWAP2 SWAP1 PUSH2 0x1DCB JUMP JUMPDEST PUSH2 0x204 PUSH2 0x44E CALLDATASIZE PUSH1 0x4 PUSH2 0x1BBF JUMP JUMPDEST PUSH2 0x13D2 JUMP JUMPDEST PUSH2 0x21B PUSH1 0x0 DUP1 MLOAD PUSH1 0x20 PUSH2 0x214E DUP4 CODECOPY DUP2 MLOAD SWAP2 MSTORE DUP2 JUMP JUMPDEST PUSH2 0x47B PUSH2 0x476 CALLDATASIZE PUSH1 0x4 PUSH2 0x1A84 JUMP JUMPDEST PUSH2 0x13F7 JUMP JUMPDEST PUSH1 0x40 MLOAD PUSH2 0x1E8 SWAP7 SWAP6 SWAP5 SWAP4 SWAP3 SWAP2 SWAP1 PUSH2 0x1E11 JUMP JUMPDEST PUSH1 0x0 PUSH1 0x1 PUSH1 0x1 PUSH1 0xE0 SHL SUB NOT DUP3 AND PUSH4 0x7965DB0B PUSH1 0xE0 SHL EQ DUP1 PUSH2 0x4BE JUMPI POP PUSH4 0x1FFC9A7 PUSH1 0xE0 SHL PUSH1 0x1 PUSH1 0x1 PUSH1 0xE0 SHL SUB NOT DUP4 AND EQ JUMPDEST SWAP3 SWAP2 POP POP JUMP JUMPDEST PUSH32 0xD8C0B0264FB5D225F4BA2FB92454D9F4F912BE4D27B355562E6AE90CE2F5E74B PUSH2 0x4EE DUP2 PUSH2 0x15C8 JUMP JUMPDEST PUSH2 0x4F6 PUSH2 0x15D2 JUMP JUMPDEST PUSH2 0x4FE PUSH2 0x161A JUMP JUMPDEST PUSH1 0x1 PUSH1 0x1 PUSH1 0xA0 SHL SUB DUP3 AND PUSH1 0x0 SWAP1 DUP2 MSTORE PUSH1 0x7 PUSH1 0x20 MSTORE PUSH1 0x40 SWAP1 KECCAK256 PUSH1 0x1 ADD SLOAD PUSH1 0x1 PUSH1 0xA0 SHL SWAP1 DIV PUSH1 0xFF AND PUSH2 0x569 JUMPI PUSH1 0x40 MLOAD PUSH3 0x461BCD PUSH1 0xE5 SHL DUP2 MSTORE PUSH1 0x20 PUSH1 0x4 DUP3 ADD MSTORE PUSH1 0x11 PUSH1 0x24 DUP3 ADD MSTORE PUSH17 0x155CD95C881B9BDD081D995C9A599A5959 PUSH1 0x7A SHL PUSH1 0x44 DUP3 ADD MSTORE PUSH1 0x64 ADD JUMPDEST PUSH1 0x40 MLOAD DUP1 SWAP2 SUB SWAP1 REVERT JUMPDEST PUSH1 0x40 MLOAD CALLER SWAP1 PUSH1 0x1 PUSH1 0x1 PUSH1 0xA0 SHL SUB DUP5 AND SWAP1 PUSH32 0x9F520B3BFC56D06F7065D10B4683B3F57AC8895D5026CD176DEE95CE1454CB8D SWAP1 PUSH1 0x0 SWAP1 LOG3 PUSH2 0x5A9 PUSH1 0x1 PUSH1 0x2 SSTORE JUMP JUMPDEST POP POP JUMP JUMPDEST PUSH1 0x0 DUP1 MLOAD PUSH1 0x20 PUSH2 0x214E DUP4 CODECOPY DUP2 MLOAD SWAP2 MSTORE PUSH2 0x5C5 DUP2 PUSH2 0x15C8 JUMP JUMPDEST PUSH2 0x5CD PUSH2 0x15D2 JUMP JUMPDEST PUSH2 0x5D5 PUSH2 0x161A JUMP JUMPDEST PUSH1 0x0 PUSH1 0x8 DUP5 PUSH1 0x40 MLOAD PUSH2 0x5E7 SWAP2 SWAP1 PUSH2 0x1EA1 JUMP JUMPDEST SWAP1 DUP2 MSTORE PUSH1 0x40 MLOAD SWAP1 DUP2 SWAP1 SUB PUSH1 0x20 ADD SWAP1 KECCAK256 PUSH1 0x4 DUP2 ADD SLOAD SWAP1 SWAP2 POP PUSH1 0xFF AND PUSH2 0x64D JUMPI PUSH1 0x40 MLOAD PUSH3 0x461BCD PUSH1 0xE5 SHL DUP2 MSTORE PUSH1 0x20 PUSH1 0x4 DUP3 ADD MSTORE PUSH1 0x1F PUSH1 0x24 DUP3 ADD MSTORE PUSH32 0x4E6F2070656E64696E6720766572696669636174696F6E207265717565737400 PUSH1 0x44 DUP3 ADD MSTORE PUSH1 0x64 ADD PUSH2 0x560 JUMP JUMPDEST PUSH1 0x1 DUP2 ADD SLOAD PUSH1 0x1 PUSH1 0x1 PUSH1 0xA0 SHL SUB AND CALLER EQ PUSH2 0x6B8 JUMPI PUSH1 0x40 MLOAD PUSH3 0x461BCD PUSH1 0xE5 SHL DUP2 MSTORE PUSH1 0x20 PUSH1 0x4 DUP3 ADD MSTORE PUSH1 0x26 PUSH1 0x24 DUP3 ADD MSTORE PUSH32 0x4E6F7420617574686F72697A656420746F2072656A656374207468697320646F PUSH1 0x44 DUP3 ADD MSTORE PUSH6 0x18DD5B595B9D PUSH1 0xD2 SHL PUSH1 0x64 DUP3 ADD MSTORE PUSH1 0x84 ADD PUSH2 0x560 JUMP JUMPDEST DUP1 SLOAD PUSH1 0x1 PUSH1 0x1 PUSH1 0xA0 SHL SUB AND PUSH1 0x0 SWAP1 DUP2 MSTORE PUSH1 0x7 PUSH1 0x20 MSTORE PUSH1 0x40 DUP2 KECCAK256 PUSH1 0x4 DUP2 ADD DUP1 SLOAD SWAP2 SWAP3 PUSH2 0x6E2 DUP4 PUSH2 0x1ED3 JUMP JUMPDEST SWAP1 SWAP2 SSTORE POP POP TIMESTAMP PUSH1 0x3 DUP3 ADD SSTORE PUSH1 0x4 DUP3 ADD DUP1 SLOAD PUSH1 0xFF NOT AND SWAP1 SSTORE PUSH1 0x5 DUP3 ADD PUSH2 0x707 DUP6 DUP3 PUSH2 0x1F6E JUMP JUMPDEST POP DUP5 PUSH1 0x40 MLOAD PUSH2 0x716 SWAP2 SWAP1 PUSH2 0x1EA1 JUMP JUMPDEST PUSH1 0x40 MLOAD SWAP1 DUP2 SWAP1 SUB DUP2 KECCAK256 DUP4 SLOAD SWAP1 SWAP2 PUSH1 0x1 PUSH1 0x1 PUSH1 0xA0 SHL SUB SWAP1 SWAP2 AND SWAP1 PUSH32 0x39776E52BD7F6E327398E24997F75C69B2FD05DEF0E44BD34ABA9F50A023C280 SWAP1 PUSH2 0x75C SWAP1 DUP9 SWAP1 PUSH2 0x202E JUMP JUMPDEST PUSH1 0x40 MLOAD DUP1 SWAP2 SUB SWAP1 LOG3 POP POP PUSH2 0x770 PUSH1 0x1 PUSH1 0x2 SSTORE JUMP JUMPDEST POP POP POP JUMP JUMPDEST PUSH1 0x0 DUP3 DUP2 MSTORE PUSH1 0x20 DUP2 SWAP1 MSTORE PUSH1 0x40 SWAP1 KECCAK256 PUSH1 0x1 ADD SLOAD PUSH2 0x790 DUP2 PUSH2 0x15C8 JUMP JUMPDEST PUSH2 0x770 DUP4 DUP4 PUSH2 0x1671 JUMP JUMPDEST PUSH1 0x1 PUSH1 0x1 PUSH1 0xA0 SHL SUB DUP2 AND CALLER EQ PUSH2 0x80A JUMPI PUSH1 0x40 MLOAD PUSH3 0x461BCD PUSH1 0xE5 SHL DUP2 MSTORE PUSH1 0x20 PUSH1 0x4 DUP3 ADD MSTORE PUSH1 0x2F PUSH1 0x24 DUP3 ADD MSTORE PUSH32 0x416363657373436F6E74726F6C3A2063616E206F6E6C792072656E6F756E6365 PUSH1 0x44 DUP3 ADD MSTORE PUSH15 0x103937B632B9903337B91039B2B633 PUSH1 0x89 SHL PUSH1 0x64 DUP3 ADD MSTORE PUSH1 0x84 ADD PUSH2 0x560 JUMP JUMPDEST PUSH2 0x5A9 DUP3 DUP3 PUSH2 0x16F5 JUMP JUMPDEST PUSH1 0x0 DUP1 MLOAD PUSH1 0x20 PUSH2 0x212E DUP4 CODECOPY DUP2 MLOAD SWAP2 MSTORE PUSH2 0x82C DUP2 PUSH2 0x15C8 JUMP JUMPDEST PUSH2 0x834 PUSH2 0x175A JUMP JUMPDEST POP JUMP JUMPDEST PUSH1 0x0 PUSH32 0xD8C0B0264FB5D225F4BA2FB92454D9F4F912BE4D27B355562E6AE90CE2F5E74B PUSH2 0x863 DUP2 PUSH2 0x15C8 JUMP JUMPDEST PUSH1 0x1 PUSH1 0x1 PUSH1 0xA0 SHL SUB DUP4 AND PUSH1 0x0 SWAP1 DUP2 MSTORE PUSH1 0x7 PUSH1 0x20 MSTORE PUSH1 0x40 SWAP1 KECCAK256 PUSH1 0x1 ADD SLOAD PUSH1 0x1 PUSH1 0xA0 SHL SWAP1 DIV PUSH1 0xFF AND SWAP2 POP JUMPDEST POP SWAP2 SWAP1 POP JUMP JUMPDEST PUSH1 0x0 DUP1 MLOAD PUSH1 0x20 PUSH2 0x210E DUP4 CODECOPY DUP2 MLOAD SWAP2 MSTORE PUSH2 0x8AA DUP2 PUSH2 0x15C8 JUMP JUMPDEST PUSH2 0x8B2 PUSH2 0x15D2 JUMP JUMPDEST PUSH2 0x8BA PUSH2 0x161A JUMP JUMPDEST PUSH1 0x6 SLOAD PUSH1 0xFF AND ISZERO DUP1 PUSH2 0x8DC JUMPI POP CALLER PUSH1 0x0 SWAP1 DUP2 MSTORE PUSH1 0x7 PUSH1 0x20 MSTORE PUSH1 0x40 SWAP1 KECCAK256 PUSH1 0x2 ADD SLOAD ISZERO JUMPDEST PUSH2 0x921 JUMPI PUSH1 0x40 MLOAD PUSH3 0x461BCD PUSH1 0xE5 SHL DUP2 MSTORE PUSH1 0x20 PUSH1 0x4 DUP3 ADD MSTORE PUSH1 0x16 PUSH1 0x24 DUP3 ADD MSTORE PUSH22 0x155CD95C88185B1C9958591E481A185CC81848111251 PUSH1 0x52 SHL PUSH1 0x44 DUP3 ADD MSTORE PUSH1 0x64 ADD PUSH2 0x560 JUMP JUMPDEST CALLER PUSH1 0x0 SWAP1 DUP2 MSTORE PUSH1 0x7 PUSH1 0x20 MSTORE PUSH1 0x40 SWAP1 KECCAK256 DUP1 PUSH2 0x93B DUP5 DUP3 PUSH2 0x1F6E JUMP JUMPDEST POP PUSH1 0x1 DUP2 ADD DUP1 SLOAD PUSH1 0x1 PUSH1 0x1 PUSH1 0xA0 SHL SUB NOT AND CALLER OR SWAP1 SSTORE TIMESTAMP PUSH1 0x2 DUP3 ADD DUP2 SWAP1 SSTORE PUSH1 0x3 DUP3 ADD SSTORE PUSH1 0x40 MLOAD PUSH2 0x96B SWAP1 DUP5 SWAP1 PUSH2 0x1EA1 JUMP JUMPDEST PUSH1 0x40 MLOAD SWAP1 DUP2 SWAP1 SUB DUP2 KECCAK256 SWAP1 CALLER SWAP1 PUSH32 0xBFAB59A7AF78DFC896C3096604749FCEE2DB2E850297DE42DE5E6369F54BD3FB SWAP1 PUSH1 0x0 SWAP1 LOG3 POP PUSH2 0x5A9 PUSH1 0x1 PUSH1 0x2 SSTORE JUMP JUMPDEST PUSH1 0x0 DUP1 MLOAD PUSH1 0x20 PUSH2 0x212E DUP4 CODECOPY DUP2 MLOAD SWAP2 MSTORE PUSH2 0x9C0 DUP2 PUSH2 0x15C8 JUMP JUMPDEST PUSH2 0x9C8 PUSH2 0x15D2 JUMP JUMPDEST DUP2 MLOAD PUSH1 0x3 DUP2 SWAP1 SSTORE PUSH1 0x20 DUP1 DUP5 ADD DUP1 MLOAD PUSH1 0x4 SSTORE PUSH1 0x40 DUP1 DUP7 ADD DUP1 MLOAD PUSH1 0x5 SSTORE PUSH1 0x60 DUP1 DUP9 ADD DUP1 MLOAD PUSH1 0x6 DUP1 SLOAD PUSH1 0xFF NOT AND SWAP2 ISZERO ISZERO SWAP2 SWAP1 SWAP2 OR SWAP1 SSTORE DUP4 MLOAD SWAP7 DUP8 MSTORE SWAP4 MLOAD SWAP5 DUP7 ADD SWAP5 SWAP1 SWAP5 MSTORE MLOAD SWAP1 DUP5 ADD MSTORE MLOAD ISZERO ISZERO SWAP1 DUP3 ADD MSTORE PUSH32 0xBB636CF7D0069004069F64DC46A53F815F9A95383E12427D24776A8B3E450802 SWAP1 PUSH1 0x80 ADD PUSH1 0x40 MLOAD DUP1 SWAP2 SUB SWAP1 LOG1 POP POP JUMP JUMPDEST PUSH1 0x7 PUSH1 0x20 MSTORE PUSH1 0x0 SWAP1 DUP2 MSTORE PUSH1 0x40 SWAP1 KECCAK256 DUP1 SLOAD DUP2 SWAP1 PUSH2 0xA61 SWAP1 PUSH2 0x1EEC JUMP JUMPDEST DUP1 PUSH1 0x1F ADD PUSH1 0x20 DUP1 SWAP2 DIV MUL PUSH1 0x20 ADD PUSH1 0x40 MLOAD SWAP1 DUP2 ADD PUSH1 0x40 MSTORE DUP1 SWAP3 SWAP2 SWAP1 DUP2 DUP2 MSTORE PUSH1 0x20 ADD DUP3 DUP1 SLOAD PUSH2 0xA8D SWAP1 PUSH2 0x1EEC JUMP JUMPDEST DUP1 ISZERO PUSH2 0xADA JUMPI DUP1 PUSH1 0x1F LT PUSH2 0xAAF JUMPI PUSH2 0x100 DUP1 DUP4 SLOAD DIV MUL DUP4 MSTORE SWAP2 PUSH1 0x20 ADD SWAP2 PUSH2 0xADA JUMP JUMPDEST DUP3 ADD SWAP2 SWAP1 PUSH1 0x0 MSTORE PUSH1 0x20 PUSH1 0x0 KECCAK256 SWAP1 JUMPDEST DUP2 SLOAD DUP2 MSTORE SWAP1 PUSH1 0x1 ADD SWAP1 PUSH1 0x20 ADD DUP1 DUP4 GT PUSH2 0xABD JUMPI DUP3 SWAP1 SUB PUSH1 0x1F AND DUP3 ADD SWAP2 JUMPDEST POP POP POP POP PUSH1 0x1 DUP4 ADD SLOAD PUSH1 0x2 DUP5 ADD SLOAD PUSH1 0x3 DUP6 ADD SLOAD PUSH1 0x4 SWAP1 SWAP6 ADD SLOAD SWAP4 SWAP5 PUSH1 0x1 PUSH1 0x1 PUSH1 0xA0 SHL SUB DUP4 AND SWAP5 PUSH1 0x1 PUSH1 0xA0 SHL SWAP1 SWAP4 DIV PUSH1 0xFF AND SWAP4 POP SWAP1 SWAP2 DUP7 JUMP JUMPDEST PUSH1 0x0 DUP1 MLOAD PUSH1 0x20 PUSH2 0x212E DUP4 CODECOPY DUP2 MLOAD SWAP2 MSTORE PUSH2 0xB2A DUP2 PUSH2 0x15C8 JUMP JUMPDEST PUSH2 0x834 PUSH2 0x17AC JUMP JUMPDEST PUSH1 0x0 SWAP2 DUP3 MSTORE PUSH1 0x20 DUP3 DUP2 MSTORE PUSH1 0x40 DUP1 DUP5 KECCAK256 PUSH1 0x1 PUSH1 0x1 PUSH1 0xA0 SHL SUB SWAP4 SWAP1 SWAP4 AND DUP5 MSTORE SWAP2 SWAP1 MSTORE SWAP1 KECCAK256 SLOAD PUSH1 0xFF AND SWAP1 JUMP JUMPDEST DUP1 MLOAD DUP1 DUP3 ADD PUSH1 0x20 SWAP1 DUP2 ADD DUP1 MLOAD PUSH1 0x8 DUP3 MSTORE SWAP3 DUP3 ADD SWAP2 SWAP1 SWAP4 ADD KECCAK256 SWAP2 MSTORE DUP1 SLOAD PUSH1 0x1 DUP3 ADD SLOAD PUSH1 0x2 DUP4 ADD DUP1 SLOAD PUSH1 0x1 PUSH1 0x1 PUSH1 0xA0 SHL SUB SWAP4 DUP5 AND SWAP5 SWAP3 SWAP1 SWAP4 AND SWAP3 PUSH2 0xB9C SWAP1 PUSH2 0x1EEC JUMP JUMPDEST DUP1 PUSH1 0x1F ADD PUSH1 0x20 DUP1 SWAP2 DIV MUL PUSH1 0x20 ADD PUSH1 0x40 MLOAD SWAP1 DUP2 ADD PUSH1 0x40 MSTORE DUP1 SWAP3 SWAP2 SWAP1 DUP2 DUP2 MSTORE PUSH1 0x20 ADD DUP3 DUP1 SLOAD PUSH2 0xBC8 SWAP1 PUSH2 0x1EEC JUMP JUMPDEST DUP1 ISZERO PUSH2 0xC15 JUMPI DUP1 PUSH1 0x1F LT PUSH2 0xBEA JUMPI PUSH2 0x100 DUP1 DUP4 SLOAD DIV MUL DUP4 MSTORE SWAP2 PUSH1 0x20 ADD SWAP2 PUSH2 0xC15 JUMP JUMPDEST DUP3 ADD SWAP2 SWAP1 PUSH1 0x0 MSTORE PUSH1 0x20 PUSH1 0x0 KECCAK256 SWAP1 JUMPDEST DUP2 SLOAD DUP2 MSTORE SWAP1 PUSH1 0x1 ADD SWAP1 PUSH1 0x20 ADD DUP1 DUP4 GT PUSH2 0xBF8 JUMPI DUP3 SWAP1 SUB PUSH1 0x1F AND DUP3 ADD SWAP2 JUMPDEST POP POP POP POP PUSH1 0x3 DUP4 ADD SLOAD PUSH1 0x4 DUP5 ADD SLOAD PUSH1 0x5 DUP6 ADD DUP1 SLOAD SWAP5 SWAP6 SWAP3 SWAP5 PUSH1 0xFF SWAP1 SWAP3 AND SWAP4 POP SWAP1 PUSH2 0xC3E SWAP1 PUSH2 0x1EEC JUMP JUMPDEST DUP1 PUSH1 0x1F ADD PUSH1 0x20 DUP1 SWAP2 DIV MUL PUSH1 0x20 ADD PUSH1 0x40 MLOAD SWAP1 DUP2 ADD PUSH1 0x40 MSTORE DUP1 SWAP3 SWAP2 SWAP1 DUP2 DUP2 MSTORE PUSH1 0x20 ADD DUP3 DUP1 SLOAD PUSH2 0xC6A SWAP1 PUSH2 0x1EEC JUMP JUMPDEST DUP1 ISZERO PUSH2 0xCB7 JUMPI DUP1 PUSH1 0x1F LT PUSH2 0xC8C JUMPI PUSH2 0x100 DUP1 DUP4 SLOAD DIV MUL DUP4 MSTORE SWAP2 PUSH1 0x20 ADD SWAP2 PUSH2 0xCB7 JUMP JUMPDEST DUP3 ADD SWAP2 SWAP1 PUSH1 0x0 MSTORE PUSH1 0x20 PUSH1 0x0 KECCAK256 SWAP1 JUMPDEST DUP2 SLOAD DUP2 MSTORE SWAP1 PUSH1 0x1 ADD SWAP1 PUSH1 0x20 ADD DUP1 DUP4 GT PUSH2 0xC9A JUMPI DUP3 SWAP1 SUB PUSH1 0x1F AND DUP3 ADD SWAP2 JUMPDEST POP POP POP POP POP SWAP1 POP DUP7 JUMP JUMPDEST PUSH1 0x0 DUP1 MLOAD PUSH1 0x20 PUSH2 0x210E DUP4 CODECOPY DUP2 MLOAD SWAP2 MSTORE PUSH2 0xCD9 DUP2 PUSH2 0x15C8 JUMP JUMPDEST PUSH2 0xCE1 PUSH2 0x15D2 JUMP JUMPDEST PUSH2 0xCE9 PUSH2 0x161A JUMP JUMPDEST PUSH2 0xD01 PUSH1 0x0 DUP1 MLOAD PUSH1 0x20 PUSH2 0x214E DUP4 CODECOPY DUP2 MLOAD SWAP2 MSTORE DUP5 PUSH2 0xB32 JUMP JUMPDEST PUSH2 0xD40 JUMPI PUSH1 0x40 MLOAD PUSH3 0x461BCD PUSH1 0xE5 SHL DUP2 MSTORE PUSH1 0x20 PUSH1 0x4 DUP3 ADD MSTORE PUSH1 0x10 PUSH1 0x24 DUP3 ADD MSTORE PUSH16 0x24B73B30B634B2103B32B934B334B2B9 PUSH1 0x81 SHL PUSH1 0x44 DUP3 ADD MSTORE PUSH1 0x64 ADD PUSH2 0x560 JUMP JUMPDEST PUSH1 0x9 DUP3 PUSH1 0x40 MLOAD PUSH2 0xD50 SWAP2 SWAP1 PUSH2 0x1EA1 JUMP JUMPDEST SWAP1 DUP2 MSTORE PUSH1 0x40 MLOAD SWAP1 DUP2 SWAP1 SUB PUSH1 0x20 ADD SWAP1 KECCAK256 SLOAD PUSH1 0xFF AND PUSH2 0xDAF JUMPI PUSH1 0x40 MLOAD PUSH3 0x461BCD PUSH1 0xE5 SHL DUP2 MSTORE PUSH1 0x20 PUSH1 0x4 DUP3 ADD MSTORE PUSH1 0x17 PUSH1 0x24 DUP3 ADD MSTORE PUSH32 0x446F63756D656E7420646F6573206E6F74206578697374000000000000000000 PUSH1 0x44 DUP3 ADD MSTORE PUSH1 0x64 ADD PUSH2 0x560 JUMP JUMPDEST PUSH1 0x8 DUP3 PUSH1 0x40 MLOAD PUSH2 0xDBF SWAP2 SWAP1 PUSH2 0x1EA1 JUMP JUMPDEST SWAP1 DUP2 MSTORE PUSH1 0x40 MLOAD SWAP1 DUP2 SWAP1 SUB PUSH1 0x20 ADD SWAP1 KECCAK256 PUSH1 0x4 ADD SLOAD PUSH1 0xFF AND ISZERO PUSH2 0xE22 JUMPI PUSH1 0x40 MLOAD PUSH3 0x461BCD PUSH1 0xE5 SHL DUP2 MSTORE PUSH1 0x20 PUSH1 0x4 DUP3 ADD MSTORE PUSH1 0x1E PUSH1 0x24 DUP3 ADD MSTORE PUSH32 0x566572696669636174696F6E20616C7265616479207265717565737465640000 PUSH1 0x44 DUP3 ADD MSTORE PUSH1 0x64 ADD PUSH2 0x560 JUMP JUMPDEST CALLER PUSH1 0x0 SWAP1 DUP2 MSTORE PUSH1 0x7 PUSH1 0x20 MSTORE PUSH1 0x40 SWAP1 KECCAK256 PUSH1 0x5 SLOAD PUSH1 0x4 DUP3 ADD SLOAD LT PUSH2 0xE90 JUMPI PUSH1 0x40 MLOAD PUSH3 0x461BCD PUSH1 0xE5 SHL DUP2 MSTORE PUSH1 0x20 PUSH1 0x4 DUP3 ADD MSTORE PUSH1 0x21 PUSH1 0x24 DUP3 ADD MSTORE PUSH32 0x4D617820766572696669636174696F6E20617474656D70747320726561636865 PUSH1 0x44 DUP3 ADD MSTORE PUSH1 0x19 PUSH1 0xFA SHL PUSH1 0x64 DUP3 ADD MSTORE PUSH1 0x84 ADD PUSH2 0x560 JUMP JUMPDEST PUSH1 0x0 PUSH1 0x8 DUP5 PUSH1 0x40 MLOAD PUSH2 0xEA2 SWAP2 SWAP1 PUSH2 0x1EA1 JUMP JUMPDEST SWAP1 DUP2 MSTORE PUSH1 0x40 MLOAD SWAP1 DUP2 SWAP1 SUB PUSH1 0x20 ADD SWAP1 KECCAK256 DUP1 SLOAD PUSH1 0x1 PUSH1 0x1 PUSH1 0xA0 SHL SUB NOT SWAP1 DUP2 AND CALLER OR DUP3 SSTORE PUSH1 0x1 DUP3 ADD DUP1 SLOAD PUSH1 0x1 PUSH1 0x1 PUSH1 0xA0 SHL SUB DUP10 AND SWAP3 AND SWAP2 SWAP1 SWAP2 OR SWAP1 SSTORE SWAP1 POP PUSH1 0x2 DUP2 ADD PUSH2 0xEEB DUP6 DUP3 PUSH2 0x1F6E JUMP JUMPDEST POP TIMESTAMP PUSH1 0x3 DUP3 ADD SSTORE PUSH1 0x4 DUP2 ADD DUP1 SLOAD PUSH1 0xFF NOT AND PUSH1 0x1 OR SWAP1 SSTORE PUSH1 0x40 MLOAD PUSH2 0xF0F SWAP1 DUP6 SWAP1 PUSH2 0x1EA1 JUMP JUMPDEST PUSH1 0x40 MLOAD SWAP1 DUP2 SWAP1 SUB DUP2 KECCAK256 SWAP1 PUSH1 0x1 PUSH1 0x1 PUSH1 0xA0 SHL SUB DUP8 AND SWAP1 CALLER SWAP1 PUSH32 0x137558CE28E758BE220AC60770291585795A71BF3184A3465DA419E32A1A0571 SWAP1 PUSH1 0x0 SWAP1 LOG4 POP POP PUSH2 0x770 PUSH1 0x1 PUSH1 0x2 SSTORE JUMP JUMPDEST PUSH1 0x0 DUP1 MLOAD PUSH1 0x20 PUSH2 0x210E DUP4 CODECOPY DUP2 MLOAD SWAP2 MSTORE PUSH2 0xF70 DUP2 PUSH2 0x15C8 JUMP JUMPDEST PUSH2 0xF78 PUSH2 0x15D2 JUMP JUMPDEST PUSH2 0xF80 PUSH2 0x161A JUMP JUMPDEST CALLER PUSH1 0x0 SWAP1 DUP2 MSTORE PUSH1 0x7 PUSH1 0x20 MSTORE PUSH1 0x40 SWAP1 KECCAK256 PUSH1 0x2 ADD SLOAD PUSH2 0xFD4 JUMPI PUSH1 0x40 MLOAD PUSH3 0x461BCD PUSH1 0xE5 SHL DUP2 MSTORE PUSH1 0x20 PUSH1 0x4 DUP3 ADD MSTORE PUSH1 0x12 PUSH1 0x24 DUP3 ADD MSTORE PUSH18 0x111251081B9BDD081C9959DA5CDD195C9959 PUSH1 0x72 SHL PUSH1 0x44 DUP3 ADD MSTORE PUSH1 0x64 ADD PUSH2 0x560 JUMP JUMPDEST PUSH1 0x9 DUP3 PUSH1 0x40 MLOAD PUSH2 0xFE4 SWAP2 SWAP1 PUSH2 0x1EA1 JUMP JUMPDEST SWAP1 DUP2 MSTORE PUSH1 0x40 MLOAD SWAP1 DUP2 SWAP1 SUB PUSH1 0x20 ADD SWAP1 KECCAK256 SLOAD PUSH1 0xFF AND ISZERO PUSH2 0x1044 JUMPI PUSH1 0x40 MLOAD PUSH3 0x461BCD PUSH1 0xE5 SHL DUP2 MSTORE PUSH1 0x20 PUSH1 0x4 DUP3 ADD MSTORE PUSH1 0x17 PUSH1 0x24 DUP3 ADD MSTORE PUSH32 0x446F63756D656E7420616C726561647920657869737473000000000000000000 PUSH1 0x44 DUP3 ADD MSTORE PUSH1 0x64 ADD PUSH2 0x560 JUMP JUMPDEST CALLER PUSH1 0x0 SWAP1 DUP2 MSTORE PUSH1 0x7 PUSH1 0x20 SWAP1 DUP2 MSTORE PUSH1 0x40 DUP3 KECCAK256 PUSH1 0x5 DUP2 ADD DUP1 SLOAD PUSH1 0x1 DUP2 ADD DUP3 SSTORE SWAP1 DUP5 MSTORE SWAP2 SWAP1 SWAP3 KECCAK256 ADD PUSH2 0x1073 DUP5 DUP3 PUSH2 0x1F6E JUMP JUMPDEST POP TIMESTAMP PUSH1 0x3 DUP3 ADD SSTORE PUSH1 0x40 MLOAD PUSH1 0x1 SWAP1 PUSH1 0x9 SWAP1 PUSH2 0x108E SWAP1 DUP7 SWAP1 PUSH2 0x1EA1 JUMP JUMPDEST SWAP1 DUP2 MSTORE PUSH1 0x40 MLOAD SWAP1 DUP2 SWAP1 SUB PUSH1 0x20 ADD DUP2 KECCAK256 DUP1 SLOAD SWAP3 ISZERO ISZERO PUSH1 0xFF NOT SWAP1 SWAP4 AND SWAP3 SWAP1 SWAP3 OR SWAP1 SWAP2 SSTORE PUSH2 0x10BA SWAP1 DUP5 SWAP1 PUSH2 0x1EA1 JUMP JUMPDEST PUSH1 0x40 MLOAD SWAP1 DUP2 SWAP1 SUB DUP2 KECCAK256 SWAP1 CALLER SWAP1 PUSH32 0x124F4A6EE6006B9A10FCAC9A51B1910A96B2E528B241F3C1B0A5CA12AB860183 SWAP1 PUSH1 0x0 SWAP1 LOG3 POP PUSH2 0x5A9 PUSH1 0x1 PUSH1 0x2 SSTORE JUMP JUMPDEST PUSH1 0x0 DUP1 MLOAD PUSH1 0x20 PUSH2 0x214E DUP4 CODECOPY DUP2 MLOAD SWAP2 MSTORE PUSH2 0x110F DUP2 PUSH2 0x15C8 JUMP JUMPDEST PUSH2 0x1117 PUSH2 0x15D2 JUMP JUMPDEST PUSH2 0x111F PUSH2 0x161A JUMP JUMPDEST PUSH1 0x0 PUSH1 0x8 DUP4 PUSH1 0x40 MLOAD PUSH2 0x1131 SWAP2 SWAP1 PUSH2 0x1EA1 JUMP JUMPDEST SWAP1 DUP2 MSTORE PUSH1 0x40 MLOAD SWAP1 DUP2 SWAP1 SUB PUSH1 0x20 ADD SWAP1 KECCAK256 PUSH1 0x4 DUP2 ADD SLOAD SWAP1 SWAP2 POP PUSH1 0xFF AND PUSH2 0x1197 JUMPI PUSH1 0x40 MLOAD PUSH3 0x461BCD PUSH1 0xE5 SHL DUP2 MSTORE PUSH1 0x20 PUSH1 0x4 DUP3 ADD MSTORE PUSH1 0x1F PUSH1 0x24 DUP3 ADD MSTORE PUSH32 0x4E6F2070656E64696E6720766572696669636174696F6E207265717565737400 PUSH1 0x44 DUP3 ADD MSTORE PUSH1 0x64 ADD PUSH2 0x560 JUMP JUMPDEST PUSH1 0x1 DUP2 ADD SLOAD PUSH1 0x1 PUSH1 0x1 PUSH1 0xA0 SHL SUB AND CALLER EQ PUSH2 0x1202 JUMPI PUSH1 0x40 MLOAD PUSH3 0x461BCD PUSH1 0xE5 SHL DUP2 MSTORE PUSH1 0x20 PUSH1 0x4 DUP3 ADD MSTORE PUSH1 0x26 PUSH1 0x24 DUP3 ADD MSTORE PUSH32 0x4E6F7420617574686F72697A656420746F20766572696679207468697320646F PUSH1 0x44 DUP3 ADD MSTORE PUSH6 0x18DD5B595B9D PUSH1 0xD2 SHL PUSH1 0x64 DUP3 ADD MSTORE PUSH1 0x84 ADD PUSH2 0x560 JUMP JUMPDEST DUP1 SLOAD PUSH1 0x1 PUSH1 0x1 PUSH1 0xA0 SHL SUB AND PUSH1 0x0 SWAP1 DUP2 MSTORE PUSH1 0x7 PUSH1 0x20 MSTORE PUSH1 0x40 SWAP1 DUP2 SWAP1 KECCAK256 SWAP1 MLOAD PUSH1 0x1 SWAP1 PUSH1 0x6 DUP4 ADD SWAP1 PUSH2 0x1232 SWAP1 DUP8 SWAP1 PUSH2 0x1EA1 JUMP JUMPDEST SWAP1 DUP2 MSTORE PUSH1 0x40 MLOAD SWAP1 DUP2 SWAP1 SUB PUSH1 0x20 ADD SWAP1 KECCAK256 DUP1 SLOAD SWAP2 ISZERO ISZERO PUSH1 0xFF NOT SWAP1 SWAP3 AND SWAP2 SWAP1 SWAP2 OR SWAP1 SSTORE PUSH1 0x4 DUP2 ADD DUP1 SLOAD SWAP1 PUSH1 0x0 PUSH2 0x1264 DUP4 PUSH2 0x1ED3 JUMP JUMPDEST SWAP1 SWAP2 SSTORE POP POP TIMESTAMP PUSH1 0x3 DUP3 ADD SSTORE PUSH1 0x4 DUP3 ADD DUP1 SLOAD PUSH1 0xFF NOT AND SWAP1 SSTORE PUSH1 0x40 MLOAD CALLER SWAP1 PUSH2 0x128B SWAP1 DUP7 SWAP1 PUSH2 0x1EA1 JUMP JUMPDEST PUSH1 0x40 MLOAD SWAP1 DUP2 SWAP1 SUB DUP2 KECCAK256 DUP5 SLOAD SWAP1 SWAP2 PUSH1 0x1 PUSH1 0x1 PUSH1 0xA0 SHL SUB SWAP1 SWAP2 AND SWAP1 PUSH32 0x9FC7BB413BEA44BFF90587A21228EE62FAF32AD0C4E603230C62EAD4911841B1 SWAP1 PUSH1 0x0 SWAP1 LOG4 POP POP PUSH2 0x5A9 PUSH1 0x1 PUSH1 0x2 SSTORE JUMP JUMPDEST PUSH1 0x0 DUP1 PUSH1 0x0 DUP1 PUSH1 0x60 PUSH1 0x0 PUSH1 0x8 DUP8 PUSH1 0x40 MLOAD PUSH2 0x12F0 SWAP2 SWAP1 PUSH2 0x1EA1 JUMP JUMPDEST SWAP1 DUP2 MSTORE PUSH1 0x40 MLOAD SWAP1 DUP2 SWAP1 SUB PUSH1 0x20 ADD SWAP1 KECCAK256 DUP1 SLOAD PUSH1 0x1 DUP3 ADD SLOAD PUSH1 0x3 DUP4 ADD SLOAD PUSH1 0x4 DUP5 ADD SLOAD PUSH1 0x5 DUP6 ADD DUP1 SLOAD SWAP6 SWAP7 POP PUSH1 0x1 PUSH1 0x1 PUSH1 0xA0 SHL SUB SWAP5 DUP6 AND SWAP6 SWAP4 SWAP1 SWAP5 AND SWAP4 SWAP2 SWAP3 PUSH1 0xFF SWAP1 SWAP2 AND SWAP2 SWAP1 DUP2 SWAP1 PUSH2 0x133E SWAP1 PUSH2 0x1EEC JUMP JUMPDEST DUP1 PUSH1 0x1F ADD PUSH1 0x20 DUP1 SWAP2 DIV MUL PUSH1 0x20 ADD PUSH1 0x40 MLOAD SWAP1 DUP2 ADD PUSH1 0x40 MSTORE DUP1 SWAP3 SWAP2 SWAP1 DUP2 DUP2 MSTORE PUSH1 0x20 ADD DUP3 DUP1 SLOAD PUSH2 0x136A SWAP1 PUSH2 0x1EEC JUMP JUMPDEST DUP1 ISZERO PUSH2 0x13B7 JUMPI DUP1 PUSH1 0x1F LT PUSH2 0x138C JUMPI PUSH2 0x100 DUP1 DUP4 SLOAD DIV MUL DUP4 MSTORE SWAP2 PUSH1 0x20 ADD SWAP2 PUSH2 0x13B7 JUMP JUMPDEST DUP3 ADD SWAP2 SWAP1 PUSH1 0x0 MSTORE PUSH1 0x20 PUSH1 0x0 KECCAK256 SWAP1 JUMPDEST DUP2 SLOAD DUP2 MSTORE SWAP1 PUSH1 0x1 ADD SWAP1 PUSH1 0x20 ADD DUP1 DUP4 GT PUSH2 0x139A JUMPI DUP3 SWAP1 SUB PUSH1 0x1F AND DUP3 ADD SWAP2 JUMPDEST POP POP POP POP POP SWAP1 POP SWAP6 POP SWAP6 POP SWAP6 POP SWAP6 POP SWAP6 POP POP SWAP2 SWAP4 SWAP6 SWAP1 SWAP3 SWAP5 POP JUMP JUMPDEST PUSH1 0x0 DUP3 DUP2 MSTORE PUSH1 0x20 DUP2 SWAP1 MSTORE PUSH1 0x40 SWAP1 KECCAK256 PUSH1 0x1 ADD SLOAD PUSH2 0x13ED DUP2 PUSH2 0x15C8 JUMP JUMPDEST PUSH2 0x770 DUP4 DUP4 PUSH2 0x16F5 JUMP JUMPDEST PUSH1 0x60 PUSH1 0x0 DUP1 PUSH1 0x0 DUP1 PUSH1 0x60 PUSH1 0x0 PUSH1 0x7 PUSH1 0x0 DUP10 PUSH1 0x1 PUSH1 0x1 PUSH1 0xA0 SHL SUB AND PUSH1 0x1 PUSH1 0x1 PUSH1 0xA0 SHL SUB AND DUP2 MSTORE PUSH1 0x20 ADD SWAP1 DUP2 MSTORE PUSH1 0x20 ADD PUSH1 0x0 KECCAK256 SWAP1 POP DUP1 PUSH1 0x0 ADD DUP2 PUSH1 0x1 ADD PUSH1 0x14 SWAP1 SLOAD SWAP1 PUSH2 0x100 EXP SWAP1 DIV PUSH1 0xFF AND DUP3 PUSH1 0x2 ADD SLOAD DUP4 PUSH1 0x3 ADD SLOAD DUP5 PUSH1 0x4 ADD SLOAD DUP6 PUSH1 0x5 ADD DUP6 DUP1 SLOAD PUSH2 0x145F SWAP1 PUSH2 0x1EEC JUMP JUMPDEST DUP1 PUSH1 0x1F ADD PUSH1 0x20 DUP1 SWAP2 DIV MUL PUSH1 0x20 ADD PUSH1 0x40 MLOAD SWAP1 DUP2 ADD PUSH1 0x40 MSTORE DUP1 SWAP3 SWAP2 SWAP1 DUP2 DUP2 MSTORE PUSH1 0x20 ADD DUP3 DUP1 SLOAD PUSH2 0x148B SWAP1 PUSH2 0x1EEC JUMP JUMPDEST DUP1 ISZERO PUSH2 0x14D8 JUMPI DUP1 PUSH1 0x1F LT PUSH2 0x14AD JUMPI PUSH2 0x100 DUP1 DUP4 SLOAD DIV MUL DUP4 MSTORE SWAP2 PUSH1 0x20 ADD SWAP2 PUSH2 0x14D8 JUMP JUMPDEST DUP3 ADD SWAP2 SWAP1 PUSH1 0x0 MSTORE PUSH1 0x20 PUSH1 0x0 KECCAK256 SWAP1 JUMPDEST DUP2 SLOAD DUP2 MSTORE SWAP1 PUSH1 0x1 ADD SWAP1 PUSH1 0x20 ADD DUP1 DUP4 GT PUSH2 0x14BB JUMPI DUP3 SWAP1 SUB PUSH1 0x1F AND DUP3 ADD SWAP2 JUMPDEST POP POP POP POP POP SWAP6 POP DUP1 DUP1 SLOAD DUP1 PUSH1 0x20 MUL PUSH1 0x20 ADD PUSH1 0x40 MLOAD SWAP1 DUP2 ADD PUSH1 0x40 MSTORE DUP1 SWAP3 SWAP2 SWAP1 DUP2 DUP2 MSTORE PUSH1 0x20 ADD PUSH1 0x0 SWAP1 JUMPDEST DUP3 DUP3 LT ISZERO PUSH2 0x15AC JUMPI DUP4 DUP3 SWAP1 PUSH1 0x0 MSTORE PUSH1 0x20 PUSH1 0x0 KECCAK256 ADD DUP1 SLOAD PUSH2 0x151F SWAP1 PUSH2 0x1EEC JUMP JUMPDEST DUP1 PUSH1 0x1F ADD PUSH1 0x20 DUP1 SWAP2 DIV MUL PUSH1 0x20 ADD PUSH1 0x40 MLOAD SWAP1 DUP2 ADD PUSH1 0x40 MSTORE DUP1 SWAP3 SWAP2 SWAP1 DUP2 DUP2 MSTORE PUSH1 0x20 ADD DUP3 DUP1 SLOAD PUSH2 0x154B SWAP1 PUSH2 0x1EEC JUMP JUMPDEST DUP1 ISZERO PUSH2 0x1598 JUMPI DUP1 PUSH1 0x1F LT PUSH2 0x156D JUMPI PUSH2 0x100 DUP1 DUP4 SLOAD DIV MUL DUP4 MSTORE SWAP2 PUSH1 0x20 ADD SWAP2 PUSH2 0x1598 JUMP JUMPDEST DUP3 ADD SWAP2 SWAP1 PUSH1 0x0 MSTORE PUSH1 0x20 PUSH1 0x0 KECCAK256 SWAP1 JUMPDEST DUP2 SLOAD DUP2 MSTORE SWAP1 PUSH1 0x1 ADD SWAP1 PUSH1 0x20 ADD DUP1 DUP4 GT PUSH2 0x157B JUMPI DUP3 SWAP1 SUB PUSH1 0x1F AND DUP3 ADD SWAP2 JUMPDEST POP POP POP POP POP DUP2 MSTORE PUSH1 0x20 ADD SWAP1 PUSH1 0x1 ADD SWAP1 PUSH2 0x1500 JUMP JUMPDEST POP POP POP POP SWAP1 POP SWAP7 POP SWAP7 POP SWAP7 POP SWAP7 POP SWAP7 POP SWAP7 POP POP SWAP2 SWAP4 SWAP6 POP SWAP2 SWAP4 SWAP6 JUMP JUMPDEST PUSH2 0x834 DUP2 CALLER PUSH2 0x17E7 JUMP JUMPDEST PUSH1 0x1 SLOAD PUSH1 0xFF AND ISZERO PUSH2 0x1618 JUMPI PUSH1 0x40 MLOAD PUSH3 0x461BCD PUSH1 0xE5 SHL DUP2 MSTORE PUSH1 0x20 PUSH1 0x4 DUP3 ADD MSTORE PUSH1 0x10 PUSH1 0x24 DUP3 ADD MSTORE PUSH16 0x14185D5CD8589B194E881C185D5CD959 PUSH1 0x82 SHL PUSH1 0x44 DUP3 ADD MSTORE PUSH1 0x64 ADD PUSH2 0x560 JUMP JUMPDEST JUMP JUMPDEST PUSH1 0x2 DUP1 SLOAD SUB PUSH2 0x166B JUMPI PUSH1 0x40 MLOAD PUSH3 0x461BCD PUSH1 0xE5 SHL DUP2 MSTORE PUSH1 0x20 PUSH1 0x4 DUP3 ADD MSTORE PUSH1 0x1F PUSH1 0x24 DUP3 ADD MSTORE PUSH32 0x5265656E7472616E637947756172643A207265656E7472616E742063616C6C00 PUSH1 0x44 DUP3 ADD MSTORE PUSH1 0x64 ADD PUSH2 0x560 JUMP JUMPDEST PUSH1 0x2 DUP1 SSTORE JUMP JUMPDEST PUSH2 0x167B DUP3 DUP3 PUSH2 0xB32 JUMP JUMPDEST PUSH2 0x5A9 JUMPI PUSH1 0x0 DUP3 DUP2 MSTORE PUSH1 0x20 DUP2 DUP2 MSTORE PUSH1 0x40 DUP1 DUP4 KECCAK256 PUSH1 0x1 PUSH1 0x1 PUSH1 0xA0 SHL SUB DUP6 AND DUP5 MSTORE SWAP1 SWAP2 MSTORE SWAP1 KECCAK256 DUP1 SLOAD PUSH1 0xFF NOT AND PUSH1 0x1 OR SWAP1 SSTORE PUSH2 0x16B1 CALLER SWAP1 JUMP JUMPDEST PUSH1 0x1 PUSH1 0x1 PUSH1 0xA0 SHL SUB AND DUP2 PUSH1 0x1 PUSH1 0x1 PUSH1 0xA0 SHL SUB AND DUP4 PUSH32 0x2F8788117E7EFF1D82E926EC794901D17C78024A50270940304540A733656F0D PUSH1 0x40 MLOAD PUSH1 0x40 MLOAD DUP1 SWAP2 SUB SWAP1 LOG4 POP POP JUMP JUMPDEST PUSH2 0x16FF DUP3 DUP3 PUSH2 0xB32 JUMP JUMPDEST ISZERO PUSH2 0x5A9 JUMPI PUSH1 0x0 DUP3 DUP2 MSTORE PUSH1 0x20 DUP2 DUP2 MSTORE PUSH1 0x40 DUP1 DUP4 KECCAK256 PUSH1 0x1 PUSH1 0x1 PUSH1 0xA0 SHL SUB DUP6 AND DUP1 DUP6 MSTORE SWAP3 MSTORE DUP1 DUP4 KECCAK256 DUP1 SLOAD PUSH1 0xFF NOT AND SWAP1 SSTORE MLOAD CALLER SWAP3 DUP6 SWAP2 PUSH32 0xF6391F5C32D9C69D2A47EA670B442974B53935D1EDC7FD64EB21E047A839171B SWAP2 SWAP1 LOG4 POP POP JUMP JUMPDEST PUSH2 0x1762 PUSH2 0x1840 JUMP JUMPDEST PUSH1 0x1 DUP1 SLOAD PUSH1 0xFF NOT AND SWAP1 SSTORE PUSH32 0x5DB9EE0A495BF2E6FF9C91A7834C1BA4FDD244A5E8AA4E537BD38AEAE4B073AA CALLER JUMPDEST PUSH1 0x40 MLOAD PUSH1 0x1 PUSH1 0x1 PUSH1 0xA0 SHL SUB SWAP1 SWAP2 AND DUP2 MSTORE PUSH1 0x20 ADD PUSH1 0x40 MLOAD DUP1 SWAP2 SUB SWAP1 LOG1 JUMP JUMPDEST PUSH2 0x17B4 PUSH2 0x15D2 JUMP JUMPDEST PUSH1 0x1 DUP1 SLOAD PUSH1 0xFF NOT AND DUP2 OR SWAP1 SSTORE PUSH32 0x62E78CEA01BEE320CD4E420270B5EA74000D11B0C9F74754EBDBFC544B05A258 CALLER PUSH2 0x178F JUMP JUMPDEST PUSH2 0x17F1 DUP3 DUP3 PUSH2 0xB32 JUMP JUMPDEST PUSH2 0x5A9 JUMPI PUSH2 0x17FE DUP2 PUSH2 0x1889 JUMP JUMPDEST PUSH2 0x1809 DUP4 PUSH1 0x20 PUSH2 0x189B JUMP JUMPDEST PUSH1 0x40 MLOAD PUSH1 0x20 ADD PUSH2 0x181A SWAP3 SWAP2 SWAP1 PUSH2 0x2041 JUMP JUMPDEST PUSH1 0x40 DUP1 MLOAD PUSH1 0x1F NOT DUP2 DUP5 SUB ADD DUP2 MSTORE SWAP1 DUP3 SWAP1 MSTORE PUSH3 0x461BCD PUSH1 0xE5 SHL DUP3 MSTORE PUSH2 0x560 SWAP2 PUSH1 0x4 ADD PUSH2 0x202E JUMP JUMPDEST PUSH1 0x1 SLOAD PUSH1 0xFF AND PUSH2 0x1618 JUMPI PUSH1 0x40 MLOAD PUSH3 0x461BCD PUSH1 0xE5 SHL DUP2 MSTORE PUSH1 0x20 PUSH1 0x4 DUP3 ADD MSTORE PUSH1 0x14 PUSH1 0x24 DUP3 ADD MSTORE PUSH20 0x14185D5CD8589B194E881B9BDD081C185D5CD959 PUSH1 0x62 SHL PUSH1 0x44 DUP3 ADD MSTORE PUSH1 0x64 ADD PUSH2 0x560 JUMP JUMPDEST PUSH1 0x60 PUSH2 0x4BE PUSH1 0x1 PUSH1 0x1 PUSH1 0xA0 SHL SUB DUP4 AND PUSH1 0x14 JUMPDEST PUSH1 0x60 PUSH1 0x0 PUSH2 0x18AA DUP4 PUSH1 0x2 PUSH2 0x20B6 JUMP JUMPDEST PUSH2 0x18B5 SWAP1 PUSH1 0x2 PUSH2 0x20CD JUMP JUMPDEST PUSH8 0xFFFFFFFFFFFFFFFF DUP2 GT ISZERO PUSH2 0x18CD JUMPI PUSH2 0x18CD PUSH2 0x1A9F JUMP JUMPDEST PUSH1 0x40 MLOAD SWAP1 DUP1 DUP3 MSTORE DUP1 PUSH1 0x1F ADD PUSH1 0x1F NOT AND PUSH1 0x20 ADD DUP3 ADD PUSH1 0x40 MSTORE DUP1 ISZERO PUSH2 0x18F7 JUMPI PUSH1 0x20 DUP3 ADD DUP2 DUP1 CALLDATASIZE DUP4 CALLDATACOPY ADD SWAP1 POP JUMPDEST POP SWAP1 POP PUSH1 0x3 PUSH1 0xFC SHL DUP2 PUSH1 0x0 DUP2 MLOAD DUP2 LT PUSH2 0x1912 JUMPI PUSH2 0x1912 PUSH2 0x20E0 JUMP JUMPDEST PUSH1 0x20 ADD ADD SWAP1 PUSH1 0x1 PUSH1 0x1 PUSH1 0xF8 SHL SUB NOT AND SWAP1 DUP2 PUSH1 0x0 BYTE SWAP1 MSTORE8 POP PUSH1 0xF PUSH1 0xFB SHL DUP2 PUSH1 0x1 DUP2 MLOAD DUP2 LT PUSH2 0x1941 JUMPI PUSH2 0x1941 PUSH2 0x20E0 JUMP JUMPDEST PUSH1 0x20 ADD ADD SWAP1 PUSH1 0x1 PUSH1 0x1 PUSH1 0xF8 SHL SUB NOT AND SWAP1 DUP2 PUSH1 0x0 BYTE SWAP1 MSTORE8 POP PUSH1 0x0 PUSH2 0x1965 DUP5 PUSH1 0x2 PUSH2 0x20B6 JUMP JUMPDEST PUSH2 0x1970 SWAP1 PUSH1 0x1 PUSH2 0x20CD JUMP JUMPDEST SWAP1 POP JUMPDEST PUSH1 0x1 DUP2 GT ISZERO PUSH2 0x19E8 JUMPI PUSH16 0x181899199A1A9B1B9C1CB0B131B232B3 PUSH1 0x81 SHL DUP6 PUSH1 0xF AND PUSH1 0x10 DUP2 LT PUSH2 0x19A4 JUMPI PUSH2 0x19A4 PUSH2 0x20E0 JUMP JUMPDEST BYTE PUSH1 0xF8 SHL DUP3 DUP3 DUP2 MLOAD DUP2 LT PUSH2 0x19BA JUMPI PUSH2 0x19BA PUSH2 0x20E0 JUMP JUMPDEST PUSH1 0x20 ADD ADD SWAP1 PUSH1 0x1 PUSH1 0x1 PUSH1 0xF8 SHL SUB NOT AND SWAP1 DUP2 PUSH1 0x0 BYTE SWAP1 MSTORE8 POP PUSH1 0x4 SWAP5 SWAP1 SWAP5 SHR SWAP4 PUSH2 0x19E1 DUP2 PUSH2 0x20F6 JUMP JUMPDEST SWAP1 POP PUSH2 0x1973 JUMP JUMPDEST POP DUP4 ISZERO PUSH2 0x1A37 JUMPI PUSH1 0x40 MLOAD PUSH3 0x461BCD PUSH1 0xE5 SHL DUP2 MSTORE PUSH1 0x20 PUSH1 0x4 DUP3 ADD DUP2 SWAP1 MSTORE PUSH1 0x24 DUP3 ADD MSTORE PUSH32 0x537472696E67733A20686578206C656E67746820696E73756666696369656E74 PUSH1 0x44 DUP3 ADD MSTORE PUSH1 0x64 ADD PUSH2 0x560 JUMP JUMPDEST SWAP4 SWAP3 POP POP POP JUMP JUMPDEST PUSH1 0x0 PUSH1 0x20 DUP3 DUP5 SUB SLT ISZERO PUSH2 0x1A50 JUMPI PUSH1 0x0 DUP1 REVERT JUMPDEST DUP2 CALLDATALOAD PUSH1 0x1 PUSH1 0x1 PUSH1 0xE0 SHL SUB NOT DUP2 AND DUP2 EQ PUSH2 0x1A37 JUMPI PUSH1 0x0 DUP1 REVERT JUMPDEST DUP1 CALLDATALOAD PUSH1 0x1 PUSH1 0x1 PUSH1 0xA0 SHL SUB DUP2 AND DUP2 EQ PUSH2 0x1A7F JUMPI PUSH1 0x0 DUP1 REVERT JUMPDEST SWAP2 SWAP1 POP JUMP JUMPDEST PUSH1 0x0 PUSH1 0x20 DUP3 DUP5 SUB SLT ISZERO PUSH2 0x1A96 JUMPI PUSH1 0x0 DUP1 REVERT JUMPDEST PUSH2 0x1A37 DUP3 PUSH2 0x1A68 JUMP JUMPDEST PUSH4 0x4E487B71 PUSH1 0xE0 SHL PUSH1 0x0 MSTORE PUSH1 0x41 PUSH1 0x4 MSTORE PUSH1 0x24 PUSH1 0x0 REVERT JUMPDEST PUSH1 0x0 DUP3 PUSH1 0x1F DUP4 ADD SLT PUSH2 0x1AC6 JUMPI PUSH1 0x0 DUP1 REVERT JUMPDEST DUP2 CALLDATALOAD PUSH8 0xFFFFFFFFFFFFFFFF DUP1 DUP3 GT ISZERO PUSH2 0x1AE1 JUMPI PUSH2 0x1AE1 PUSH2 0x1A9F JUMP JUMPDEST PUSH1 0x40 MLOAD PUSH1 0x1F DUP4 ADD PUSH1 0x1F NOT SWAP1 DUP2 AND PUSH1 0x3F ADD AND DUP2 ADD SWAP1 DUP3 DUP3 GT DUP2 DUP4 LT OR ISZERO PUSH2 0x1B09 JUMPI PUSH2 0x1B09 PUSH2 0x1A9F JUMP JUMPDEST DUP2 PUSH1 0x40 MSTORE DUP4 DUP2 MSTORE DUP7 PUSH1 0x20 DUP6 DUP9 ADD ADD GT ISZERO PUSH2 0x1B22 JUMPI PUSH1 0x0 DUP1 REVERT JUMPDEST DUP4 PUSH1 0x20 DUP8 ADD PUSH1 0x20 DUP4 ADD CALLDATACOPY PUSH1 0x0 PUSH1 0x20 DUP6 DUP4 ADD ADD MSTORE DUP1 SWAP5 POP POP POP POP POP SWAP3 SWAP2 POP POP JUMP JUMPDEST PUSH1 0x0 DUP1 PUSH1 0x40 DUP4 DUP6 SUB SLT ISZERO PUSH2 0x1B55 JUMPI PUSH1 0x0 DUP1 REVERT JUMPDEST DUP3 CALLDATALOAD PUSH8 0xFFFFFFFFFFFFFFFF DUP1 DUP3 GT ISZERO PUSH2 0x1B6D JUMPI PUSH1 0x0 DUP1 REVERT JUMPDEST PUSH2 0x1B79 DUP7 DUP4 DUP8 ADD PUSH2 0x1AB5 JUMP JUMPDEST SWAP4 POP PUSH1 0x20 DUP6 ADD CALLDATALOAD SWAP2 POP DUP1 DUP3 GT ISZERO PUSH2 0x1B8F JUMPI PUSH1 0x0 DUP1 REVERT JUMPDEST POP PUSH2 0x1B9C DUP6 DUP3 DUP7 ADD PUSH2 0x1AB5 JUMP JUMPDEST SWAP2 POP POP SWAP3 POP SWAP3 SWAP1 POP JUMP JUMPDEST PUSH1 0x0 PUSH1 0x20 DUP3 DUP5 SUB SLT ISZERO PUSH2 0x1BB8 JUMPI PUSH1 0x0 DUP1 REVERT JUMPDEST POP CALLDATALOAD SWAP2 SWAP1 POP JUMP JUMPDEST PUSH1 0x0 DUP1 PUSH1 0x40 DUP4 DUP6 SUB SLT ISZERO PUSH2 0x1BD2 JUMPI PUSH1 0x0 DUP1 REVERT JUMPDEST DUP3 CALLDATALOAD SWAP2 POP PUSH2 0x1BE2 PUSH1 0x20 DUP5 ADD PUSH2 0x1A68 JUMP JUMPDEST SWAP1 POP SWAP3 POP SWAP3 SWAP1 POP JUMP JUMPDEST PUSH1 0x0 PUSH1 0x20 DUP3 DUP5 SUB SLT ISZERO PUSH2 0x1BFD JUMPI PUSH1 0x0 DUP1 REVERT JUMPDEST DUP2 CALLDATALOAD PUSH8 0xFFFFFFFFFFFFFFFF DUP2 GT ISZERO PUSH2 0x1C14 JUMPI PUSH1 0x0 DUP1 REVERT JUMPDEST PUSH2 0x1C20 DUP5 DUP3 DUP6 ADD PUSH2 0x1AB5 JUMP JUMPDEST SWAP5 SWAP4 POP POP POP POP JUMP JUMPDEST PUSH1 0x0 PUSH1 0x80 DUP3 DUP5 SUB SLT ISZERO PUSH2 0x1C3A JUMPI PUSH1 0x0 DUP1 REVERT JUMPDEST PUSH1 0x40 MLOAD PUSH1 0x80 DUP2 ADD DUP2 DUP2 LT PUSH8 0xFFFFFFFFFFFFFFFF DUP3 GT OR ISZERO PUSH2 0x1C5D JUMPI PUSH2 0x1C5D PUSH2 0x1A9F JUMP JUMPDEST DUP1 PUSH1 0x40 MSTORE POP DUP3 CALLDATALOAD DUP2 MSTORE PUSH1 0x20 DUP4 ADD CALLDATALOAD PUSH1 0x20 DUP3 ADD MSTORE PUSH1 0x40 DUP4 ADD CALLDATALOAD PUSH1 0x40 DUP3 ADD MSTORE PUSH1 0x60 DUP4 ADD CALLDATALOAD DUP1 ISZERO ISZERO DUP2 EQ PUSH2 0x1C8D JUMPI PUSH1 0x0 DUP1 REVERT JUMPDEST PUSH1 0x60 DUP3 ADD MSTORE SWAP4 SWAP3 POP POP POP JUMP JUMPDEST PUSH1 0x0 JUMPDEST DUP4 DUP2 LT ISZERO PUSH2 0x1CB4 JUMPI DUP2 DUP2 ADD MLOAD DUP4 DUP3 ADD MSTORE PUSH1 0x20 ADD PUSH2 0x1C9C JUMP JUMPDEST POP POP PUSH1 0x0 SWAP2 ADD MSTORE JUMP JUMPDEST PUSH1 0x0 DUP2 MLOAD DUP1 DUP5 MSTORE PUSH2 0x1CD5 DUP2 PUSH1 0x20 DUP7 ADD PUSH1 0x20 DUP7 ADD PUSH2 0x1C99 JUMP JUMPDEST PUSH1 0x1F ADD PUSH1 0x1F NOT AND SWAP3 SWAP1 SWAP3 ADD PUSH1 0x20 ADD SWAP3 SWAP2 POP POP JUMP JUMPDEST PUSH1 0xC0 DUP2 MSTORE PUSH1 0x0 PUSH2 0x1CFC PUSH1 0xC0 DUP4 ADD DUP10 PUSH2 0x1CBD JUMP JUMPDEST PUSH1 0x1 PUSH1 0x1 PUSH1 0xA0 SHL SUB SWAP8 SWAP1 SWAP8 AND PUSH1 0x20 DUP4 ADD MSTORE POP SWAP4 ISZERO ISZERO PUSH1 0x40 DUP6 ADD MSTORE PUSH1 0x60 DUP5 ADD SWAP3 SWAP1 SWAP3 MSTORE PUSH1 0x80 DUP4 ADD MSTORE PUSH1 0xA0 SWAP1 SWAP2 ADD MSTORE SWAP2 SWAP1 POP JUMP JUMPDEST PUSH1 0x1 PUSH1 0x1 PUSH1 0xA0 SHL SUB DUP8 DUP2 AND DUP3 MSTORE DUP7 AND PUSH1 0x20 DUP3 ADD MSTORE PUSH1 0xC0 PUSH1 0x40 DUP3 ADD DUP2 SWAP1 MSTORE PUSH1 0x0 SWAP1 PUSH2 0x1D5A SWAP1 DUP4 ADD DUP8 PUSH2 0x1CBD JUMP JUMPDEST DUP6 PUSH1 0x60 DUP5 ADD MSTORE DUP5 ISZERO ISZERO PUSH1 0x80 DUP5 ADD MSTORE DUP3 DUP2 SUB PUSH1 0xA0 DUP5 ADD MSTORE PUSH2 0x1D7A DUP2 DUP6 PUSH2 0x1CBD JUMP JUMPDEST SWAP10 SWAP9 POP POP POP POP POP POP POP POP POP JUMP JUMPDEST PUSH1 0x0 DUP1 PUSH1 0x40 DUP4 DUP6 SUB SLT ISZERO PUSH2 0x1D9A JUMPI PUSH1 0x0 DUP1 REVERT JUMPDEST PUSH2 0x1DA3 DUP4 PUSH2 0x1A68 JUMP JUMPDEST SWAP2 POP PUSH1 0x20 DUP4 ADD CALLDATALOAD PUSH8 0xFFFFFFFFFFFFFFFF DUP2 GT ISZERO PUSH2 0x1DBF JUMPI PUSH1 0x0 DUP1 REVERT JUMPDEST PUSH2 0x1B9C DUP6 DUP3 DUP7 ADD PUSH2 0x1AB5 JUMP JUMPDEST PUSH1 0x1 PUSH1 0x1 PUSH1 0xA0 SHL SUB DUP7 DUP2 AND DUP3 MSTORE DUP6 AND PUSH1 0x20 DUP3 ADD MSTORE PUSH1 0x40 DUP2 ADD DUP5 SWAP1 MSTORE DUP3 ISZERO ISZERO PUSH1 0x60 DUP3 ADD MSTORE PUSH1 0xA0 PUSH1 0x80 DUP3 ADD DUP2 SWAP1 MSTORE PUSH1 0x0 SWAP1 PUSH2 0x1E06 SWAP1 DUP4 ADD DUP5 PUSH2 0x1CBD JUMP JUMPDEST SWAP8 SWAP7 POP POP POP POP POP POP POP JUMP JUMPDEST PUSH1 0xC0 DUP2 MSTORE PUSH1 0x0 PUSH2 0x1E24 PUSH1 0xC0 DUP4 ADD DUP10 PUSH2 0x1CBD JUMP JUMPDEST PUSH1 0x20 DUP9 ISZERO ISZERO DUP2 DUP6 ADD MSTORE DUP8 PUSH1 0x40 DUP6 ADD MSTORE DUP7 PUSH1 0x60 DUP6 ADD MSTORE DUP6 PUSH1 0x80 DUP6 ADD MSTORE DUP4 DUP3 SUB PUSH1 0xA0 DUP6 ADD MSTORE DUP2 DUP6 MLOAD DUP1 DUP5 MSTORE DUP3 DUP5 ADD SWAP2 POP DUP3 DUP2 PUSH1 0x5 SHL DUP6 ADD ADD DUP4 DUP9 ADD PUSH1 0x0 JUMPDEST DUP4 DUP2 LT ISZERO PUSH2 0x1E8E JUMPI PUSH1 0x1F NOT DUP8 DUP5 SUB ADD DUP6 MSTORE PUSH2 0x1E7C DUP4 DUP4 MLOAD PUSH2 0x1CBD JUMP JUMPDEST SWAP5 DUP7 ADD SWAP5 SWAP3 POP SWAP1 DUP6 ADD SWAP1 PUSH1 0x1 ADD PUSH2 0x1E60 JUMP JUMPDEST POP SWAP1 SWAP14 SWAP13 POP POP POP POP POP POP POP POP POP POP POP POP POP JUMP JUMPDEST PUSH1 0x0 DUP3 MLOAD PUSH2 0x1EB3 DUP2 DUP5 PUSH1 0x20 DUP8 ADD PUSH2 0x1C99 JUMP JUMPDEST SWAP2 SWAP1 SWAP2 ADD SWAP3 SWAP2 POP POP JUMP JUMPDEST PUSH4 0x4E487B71 PUSH1 0xE0 SHL PUSH1 0x0 MSTORE PUSH1 0x11 PUSH1 0x4 MSTORE PUSH1 0x24 PUSH1 0x0 REVERT JUMPDEST PUSH1 0x0 PUSH1 0x1 DUP3 ADD PUSH2 0x1EE5 JUMPI PUSH2 0x1EE5 PUSH2 0x1EBD JUMP JUMPDEST POP PUSH1 0x1 ADD SWAP1 JUMP JUMPDEST PUSH1 0x1 DUP2 DUP2 SHR SWAP1 DUP3 AND DUP1 PUSH2 0x1F00 JUMPI PUSH1 0x7F DUP3 AND SWAP2 POP JUMPDEST PUSH1 0x20 DUP3 LT DUP2 SUB PUSH2 0x88C JUMPI PUSH4 0x4E487B71 PUSH1 0xE0 SHL PUSH1 0x0 MSTORE PUSH1 0x22 PUSH1 0x4 MSTORE PUSH1 0x24 PUSH1 0x0 REVERT JUMPDEST PUSH1 0x1F DUP3 GT ISZERO PUSH2 0x770 JUMPI PUSH1 0x0 DUP2 DUP2 MSTORE PUSH1 0x20 DUP2 KECCAK256 PUSH1 0x1F DUP6 ADD PUSH1 0x5 SHR DUP2 ADD PUSH1 0x20 DUP7 LT ISZERO PUSH2 0x1F47 JUMPI POP DUP1 JUMPDEST PUSH1 0x1F DUP6 ADD PUSH1 0x5 SHR DUP3 ADD SWAP2 POP JUMPDEST DUP2 DUP2 LT ISZERO PUSH2 0x1F66 JUMPI DUP3 DUP2 SSTORE PUSH1 0x1 ADD PUSH2 0x1F53 JUMP JUMPDEST POP POP POP POP POP POP JUMP JUMPDEST DUP2 MLOAD PUSH8 0xFFFFFFFFFFFFFFFF DUP2 GT ISZERO PUSH2 0x1F88 JUMPI PUSH2 0x1F88 PUSH2 0x1A9F JUMP JUMPDEST PUSH2 0x1F9C DUP2 PUSH2 0x1F96 DUP5 SLOAD PUSH2 0x1EEC JUMP JUMPDEST DUP5 PUSH2 0x1F20 JUMP JUMPDEST PUSH1 0x20 DUP1 PUSH1 0x1F DUP4 GT PUSH1 0x1 DUP2 EQ PUSH2 0x1FD1 JUMPI PUSH1 0x0 DUP5 ISZERO PUSH2 0x1FB9 JUMPI POP DUP6 DUP4 ADD MLOAD JUMPDEST PUSH1 0x0 NOT PUSH1 0x3 DUP7 SWAP1 SHL SHR NOT AND PUSH1 0x1 DUP6 SWAP1 SHL OR DUP6 SSTORE PUSH2 0x1F66 JUMP JUMPDEST PUSH1 0x0 DUP6 DUP2 MSTORE PUSH1 0x20 DUP2 KECCAK256 PUSH1 0x1F NOT DUP7 AND SWAP2 JUMPDEST DUP3 DUP2 LT ISZERO PUSH2 0x2000 JUMPI DUP9 DUP7 ADD MLOAD DUP3 SSTORE SWAP5 DUP5 ADD SWAP5 PUSH1 0x1 SWAP1 SWAP2 ADD SWAP1 DUP5 ADD PUSH2 0x1FE1 JUMP JUMPDEST POP DUP6 DUP3 LT ISZERO PUSH2 0x201E JUMPI DUP8 DUP6 ADD MLOAD PUSH1 0x0 NOT PUSH1 0x3 DUP9 SWAP1 SHL PUSH1 0xF8 AND SHR NOT AND DUP2 SSTORE JUMPDEST POP POP POP POP POP PUSH1 0x1 SWAP1 DUP2 SHL ADD SWAP1 SSTORE POP JUMP JUMPDEST PUSH1 0x20 DUP2 MSTORE PUSH1 0x0 PUSH2 0x1A37 PUSH1 0x20 DUP4 ADD DUP5 PUSH2 0x1CBD JUMP JUMPDEST PUSH32 0x416363657373436F6E74726F6C3A206163636F756E7420000000000000000000 DUP2 MSTORE PUSH1 0x0 DUP4 MLOAD PUSH2 0x2079 DUP2 PUSH1 0x17 DUP6 ADD PUSH1 0x20 DUP9 ADD PUSH2 0x1C99 JUMP JUMPDEST PUSH17 0x1034B99036B4B9B9B4B733903937B6329 PUSH1 0x7D SHL PUSH1 0x17 SWAP2 DUP5 ADD SWAP2 DUP3 ADD MSTORE DUP4 MLOAD PUSH2 0x20AA DUP2 PUSH1 0x28 DUP5 ADD PUSH1 0x20 DUP9 ADD PUSH2 0x1C99 JUMP JUMPDEST ADD PUSH1 0x28 ADD SWAP5 SWAP4 POP POP POP POP JUMP JUMPDEST DUP1 DUP3 MUL DUP2 ISZERO DUP3 DUP3 DIV DUP5 EQ OR PUSH2 0x4BE JUMPI PUSH2 0x4BE PUSH2 0x1EBD JUMP JUMPDEST DUP1 DUP3 ADD DUP1 DUP3 GT ISZERO PUSH2 0x4BE JUMPI PUSH2 0x4BE PUSH2 0x1EBD JUMP JUMPDEST PUSH4 0x4E487B71 PUSH1 0xE0 SHL PUSH1 0x0 MSTORE PUSH1 0x32 PUSH1 0x4 MSTORE PUSH1 0x24 PUSH1 0x0 REVERT JUMPDEST PUSH1 0x0 DUP2 PUSH2 0x2105 JUMPI PUSH2 0x2105 PUSH2 0x1EBD JUMP JUMPDEST POP PUSH1 0x0 NOT ADD SWAP1 JUMP INVALID EQ DUP3 CODECOPY GT CALLCODE 0xDA SHL 0x49 CREATE GASLIMIT LOG0 SWAP3 SWAP11 PUSH1 0xB8 0xC1 CALLCODE 0xA7 0xFC DUP13 MOD 0xC7 0x28 0x4C LOG3 0xE8 0xAB 0x4E NOT GASPRICE ADDMOD 0xC8 LOG4 SWAP9 SMOD KECCAK256 0x5C 0xE4 0xD3 SSTORE MULMOD 0x2E CREATE2 0xA8 LOG1 DUP16 JUMP 0xE8 SWAP2 EXTCODECOPY DELEGATECALL LOG2 ADD 0xFB 0xE2 DUP8 DUP3 JUMPDEST MULMOD JUMP SWAP4 0xC2 OR PUSH22 0xCE23C3E399818CFEE81A7AB0880F714E53D7672B08D CREATE STATICCALL PUSH3 0xF28434 AND 0xE1 0xEA MULMOD LOG2 PUSH5 0x6970667358 0x22 SLT KECCAK256 ADD PUSH9 0xC197D730DD6BC2075 PUSH10 0x39D0E73A87792862FF51 SWAP5 0x5E SHR ADD ADD PUSH26 0x996DAC2F64736F6C634300081300330000000000000000000000 "},"methodIdentifiers":{"ADMIN_ROLE()":"75b238fc","DEFAULT_ADMIN_ROLE()":"a217fddf","SERVICE_PROVIDER_ROLE()":"1bc6ae8a","USER_ROLE()":"13119161","VERIFIER_ROLE()":"e7705db6","checkAccess(address)":"466a0146","config()":"79502c55","documentExists(string)":"3026785f","getDID(address)":"f64e30b0","getRoleAdmin(bytes32)":"248a9ca3","getVerificationRequest(string)":"d3be9032","grantAccess(address)":"0ae5e739","grantRole(bytes32,address)":"2f2ff15d","hasRole(bytes32,address)":"91d14854","pause()":"8456cb59","paused()":"5c975abb","registerDID(string)":"570810e2","rejectVerification(string,string)":"1656e83b","renounceRole(bytes32,address)":"36568abe","requestVerification(address,string)":"a179d1c2","revokeRole(bytes32,address)":"d547741f","supportsInterface(bytes4)":"01ffc9a7","unpause()":"3f4ba83a","updateSystemConfig((uint256,uint256,uint256,bool))":"6a7d3cf8","uploadDocument(string)":"b7f5576d","userDIDs(address)":"7e023865","verificationRequests(string)":"97b88547","verifyDocument(string)":"beee5eb7"}}}}}