{
  "_format": "hh-sol-artifact-1",
  "contractName": "PANDID",
  "sourceName": "contracts/PANDID.sol",
  "abi": [
    {
      "anonymous": false,
      "inputs": [
        {
          "indexed": true,
          "internalType": "address",
          "name": "to",
          "type": "address"
        },
        {
          "indexed": false,
          "internalType": "string",
          "name": "attribute",
          "type": "string"
        }
      ],
      "name": "AccessGranted",
      "type": "event"
    },
    {
      "anonymous": false,
      "inputs": [
        {
          "indexed": true,
          "internalType": "address",
          "name": "to",
          "type": "address"
        },
        {
          "indexed": false,
          "internalType": "string",
          "name": "attribute",
          "type": "string"
        }
      ],
      "name": "AccessRevoked",
      "type": "event"
    },
    {
      "anonymous": false,
      "inputs": [
        {
          "indexed": false,
          "internalType": "string",
          "name": "name",
          "type": "string"
        },
        {
          "indexed": false,
          "internalType": "string",
          "name": "value",
          "type": "string"
        }
      ],
      "name": "AttributeAdded",
      "type": "event"
    },
    {
      "anonymous": false,
      "inputs": [
        {
          "indexed": false,
          "internalType": "string",
          "name": "name",
          "type": "string"
        }
      ],
      "name": "AttributeRemoved",
      "type": "event"
    },
    {
      "anonymous": false,
      "inputs": [
        {
          "indexed": false,
          "internalType": "string",
          "name": "name",
          "type": "string"
        },
        {
          "indexed": true,
          "internalType": "address",
          "name": "verifier",
          "type": "address"
        }
      ],
      "name": "AttributeVerified",
      "type": "event"
    },
    {
      "anonymous": false,
      "inputs": [
        {
          "indexed": false,
          "internalType": "string",
          "name": "identifier",
          "type": "string"
        },
        {
          "indexed": true,
          "internalType": "address",
          "name": "owner",
          "type": "address"
        }
      ],
      "name": "DIDCreated",
      "type": "event"
    },
    {
      "anonymous": false,
      "inputs": [
        {
          "indexed": false,
          "internalType": "string",
          "name": "identifier",
          "type": "string"
        }
      ],
      "name": "DIDDeactivated",
      "type": "event"
    },
    {
      "anonymous": false,
      "inputs": [
        {
          "indexed": false,
          "internalType": "string",
          "name": "identifier",
          "type": "string"
        },
        {
          "indexed": false,
          "internalType": "string",
          "name": "reason",
          "type": "string"
        }
      ],
      "name": "DIDRevoked",
      "type": "event"
    },
    {
      "anonymous": false,
      "inputs": [
        {
          "indexed": true,
          "internalType": "address",
          "name": "previousOwner",
          "type": "address"
        },
        {
          "indexed": true,
          "internalType": "address",
          "name": "newOwner",
          "type": "address"
        }
      ],
      "name": "OwnershipTransferred",
      "type": "event"
    },
    {
      "anonymous": false,
      "inputs": [
        {
          "indexed": true,
          "internalType": "address",
          "name": "owner",
          "type": "address"
        },
        {
          "indexed": false,
          "internalType": "string",
          "name": "identifier",
          "type": "string"
        },
        {
          "indexed": false,
          "internalType": "string",
          "name": "panNumber",
          "type": "string"
        }
      ],
      "name": "PANCreated",
      "type": "event"
    },
    {
      "anonymous": false,
      "inputs": [
        {
          "indexed": false,
          "internalType": "address",
          "name": "account",
          "type": "address"
        }
      ],
      "name": "Paused",
      "type": "event"
    },
    {
      "anonymous": false,
      "inputs": [
        {
          "indexed": false,
          "internalType": "address",
          "name": "account",
          "type": "address"
        }
      ],
      "name": "Unpaused",
      "type": "event"
    },
    {
      "inputs": [],
      "name": "MAX_ATTRIBUTES",
      "outputs": [
        {
          "internalType": "uint256",
          "name": "",
          "type": "uint256"
        }
      ],
      "stateMutability": "view",
      "type": "function"
    },
    {
      "inputs": [],
      "name": "MAX_ATTRIBUTE_LENGTH",
      "outputs": [
        {
          "internalType": "uint256",
          "name": "",
          "type": "uint256"
        }
      ],
      "stateMutability": "view",
      "type": "function"
    },
    {
      "inputs": [],
      "name": "MAX_IDENTIFIER_LENGTH",
      "outputs": [
        {
          "internalType": "uint256",
          "name": "",
          "type": "uint256"
        }
      ],
      "stateMutability": "view",
      "type": "function"
    },
    {
      "inputs": [
        {
          "internalType": "string",
          "name": "name",
          "type": "string"
        },
        {
          "internalType": "string",
          "name": "value",
          "type": "string"
        }
      ],
      "name": "addAttribute",
      "outputs": [
        {
          "internalType": "bool",
          "name": "",
          "type": "bool"
        }
      ],
      "stateMutability": "nonpayable",
      "type": "function"
    },
    {
      "inputs": [
        {
          "internalType": "string",
          "name": "",
          "type": "string"
        }
      ],
      "name": "attributes",
      "outputs": [
        {
          "internalType": "string",
          "name": "value",
          "type": "string"
        },
        {
          "internalType": "uint256",
          "name": "timestamp",
          "type": "uint256"
        },
        {
          "internalType": "bool",
          "name": "isVerified",
          "type": "bool"
        },
        {
          "internalType": "address",
          "name": "verifiedBy",
          "type": "address"
        }
      ],
      "stateMutability": "view",
      "type": "function"
    },
    {
      "inputs": [
        {
          "internalType": "address",
          "name": "",
          "type": "address"
        },
        {
          "internalType": "string",
          "name": "",
          "type": "string"
        }
      ],
      "name": "authorizedAccess",
      "outputs": [
        {
          "internalType": "bool",
          "name": "",
          "type": "bool"
        }
      ],
      "stateMutability": "view",
      "type": "function"
    },
    {
      "inputs": [
        {
          "internalType": "string",
          "name": "identifier",
          "type": "string"
        }
      ],
      "name": "createDID",
      "outputs": [
        {
          "internalType": "bool",
          "name": "",
          "type": "bool"
        }
      ],
      "stateMutability": "nonpayable",
      "type": "function"
    },
    {
      "inputs": [
        {
          "internalType": "string",
          "name": "identifier",
          "type": "string"
        },
        {
          "internalType": "string",
          "name": "name",
          "type": "string"
        },
        {
          "internalType": "string",
          "name": "dateOfBirth",
          "type": "string"
        },
        {
          "internalType": "string",
          "name": "gender",
          "type": "string"
        },
        {
          "internalType": "string",
          "name": "addr",
          "type": "string"
        },
        {
          "internalType": "string",
          "name": "panNumber",
          "type": "string"
        }
      ],
      "name": "createPANDID",
      "outputs": [],
      "stateMutability": "nonpayable",
      "type": "function"
    },
    {
      "inputs": [],
      "name": "deactivateDID",
      "outputs": [
        {
          "internalType": "bool",
          "name": "",
          "type": "bool"
        }
      ],
      "stateMutability": "nonpayable",
      "type": "function"
    },
    {
      "inputs": [
        {
          "internalType": "string",
          "name": "name",
          "type": "string"
        }
      ],
      "name": "getAttribute",
      "outputs": [
        {
          "internalType": "string",
          "name": "",
          "type": "string"
        }
      ],
      "stateMutability": "view",
      "type": "function"
    },
    {
      "inputs": [],
      "name": "getAttributeCount",
      "outputs": [
        {
          "internalType": "uint256",
          "name": "",
          "type": "uint256"
        }
      ],
      "stateMutability": "view",
      "type": "function"
    },
    {
      "inputs": [
        {
          "internalType": "string",
          "name": "name",
          "type": "string"
        }
      ],
      "name": "getAttributeDetails",
      "outputs": [
        {
          "internalType": "string",
          "name": "value",
          "type": "string"
        },
        {
          "internalType": "uint256",
          "name": "timestamp",
          "type": "uint256"
        },
        {
          "internalType": "bool",
          "name": "isVerified",
          "type": "bool"
        },
        {
          "internalType": "address",
          "name": "verifiedBy",
          "type": "address"
        }
      ],
      "stateMutability": "view",
      "type": "function"
    },
    {
      "inputs": [],
      "name": "getDIDDetails",
      "outputs": [
        {
          "internalType": "string",
          "name": "identifier",
          "type": "string"
        },
        {
          "internalType": "bool",
          "name": "active",
          "type": "bool"
        },
        {
          "internalType": "uint256",
          "name": "createdAt",
          "type": "uint256"
        },
        {
          "internalType": "uint256",
          "name": "updatedAt",
          "type": "uint256"
        },
        {
          "internalType": "bool",
          "name": "isRevoked",
          "type": "bool"
        },
        {
          "internalType": "string",
          "name": "revocationReason",
          "type": "string"
        }
      ],
      "stateMutability": "view",
      "type": "function"
    },
    {
      "inputs": [
        {
          "internalType": "address",
          "name": "owner",
          "type": "address"
        },
        {
          "internalType": "uint256",
          "name": "didIndex",
          "type": "uint256"
        },
        {
          "internalType": "string",
          "name": "attribute",
          "type": "string"
        }
      ],
      "name": "getPANAttribute",
      "outputs": [
        {
          "internalType": "string",
          "name": "",
          "type": "string"
        }
      ],
      "stateMutability": "view",
      "type": "function"
    },
    {
      "inputs": [
        {
          "internalType": "address",
          "name": "owner",
          "type": "address"
        },
        {
          "internalType": "uint256",
          "name": "didIndex",
          "type": "uint256"
        }
      ],
      "name": "getPANDetails",
      "outputs": [
        {
          "internalType": "string",
          "name": "identifier",
          "type": "string"
        },
        {
          "internalType": "string",
          "name": "name",
          "type": "string"
        },
        {
          "internalType": "string",
          "name": "dateOfBirth",
          "type": "string"
        },
        {
          "internalType": "string",
          "name": "gender",
          "type": "string"
        },
        {
          "internalType": "string",
          "name": "addr",
          "type": "string"
        },
        {
          "internalType": "string",
          "name": "panNumber",
          "type": "string"
        },
        {
          "internalType": "bool",
          "name": "active",
          "type": "bool"
        },
        {
          "internalType": "uint256",
          "name": "createdAt",
          "type": "uint256"
        },
        {
          "internalType": "uint256",
          "name": "updatedAt",
          "type": "uint256"
        }
      ],
      "stateMutability": "view",
      "type": "function"
    },
    {
      "inputs": [
        {
          "internalType": "uint256",
          "name": "didIndex",
          "type": "uint256"
        },
        {
          "internalType": "address",
          "name": "to",
          "type": "address"
        },
        {
          "internalType": "string",
          "name": "attribute",
          "type": "string"
        }
      ],
      "name": "grantAccess",
      "outputs": [
        {
          "internalType": "bool",
          "name": "",
          "type": "bool"
        }
      ],
      "stateMutability": "nonpayable",
      "type": "function"
    },
    {
      "inputs": [
        {
          "internalType": "address",
          "name": "owner",
          "type": "address"
        },
        {
          "internalType": "uint256",
          "name": "didIndex",
          "type": "uint256"
        },
        {
          "internalType": "address",
          "name": "accessor",
          "type": "address"
        },
        {
          "internalType": "string",
          "name": "attribute",
          "type": "string"
        }
      ],
      "name": "hasAccess",
      "outputs": [
        {
          "internalType": "bool",
          "name": "",
          "type": "bool"
        }
      ],
      "stateMutability": "view",
      "type": "function"
    },
    {
      "inputs": [],
      "name": "owner",
      "outputs": [
        {
          "internalType": "address",
          "name": "",
          "type": "address"
        }
      ],
      "stateMutability": "view",
      "type": "function"
    },
    {
      "inputs": [
        {
          "internalType": "uint256",
          "name": "",
          "type": "uint256"
        }
      ],
      "name": "panDetails",
      "outputs": [
        {
          "internalType": "string",
          "name": "name",
          "type": "string"
        },
        {
          "internalType": "string",
          "name": "dateOfBirth",
          "type": "string"
        },
        {
          "internalType": "string",
          "name": "gender",
          "type": "string"
        },
        {
          "internalType": "string",
          "name": "addr",
          "type": "string"
        },
        {
          "internalType": "string",
          "name": "panNumber",
          "type": "string"
        }
      ],
      "stateMutability": "view",
      "type": "function"
    },
    {
      "inputs": [],
      "name": "pause",
      "outputs": [],
      "stateMutability": "nonpayable",
      "type": "function"
    },
    {
      "inputs": [],
      "name": "paused",
      "outputs": [
        {
          "internalType": "bool",
          "name": "",
          "type": "bool"
        }
      ],
      "stateMutability": "view",
      "type": "function"
    },
    {
      "inputs": [
        {
          "internalType": "string",
          "name": "name",
          "type": "string"
        }
      ],
      "name": "removeAttribute",
      "outputs": [
        {
          "internalType": "bool",
          "name": "",
          "type": "bool"
        }
      ],
      "stateMutability": "nonpayable",
      "type": "function"
    },
    {
      "inputs": [],
      "name": "renounceOwnership",
      "outputs": [],
      "stateMutability": "nonpayable",
      "type": "function"
    },
    {
      "inputs": [
        {
          "internalType": "address",
          "name": "from",
          "type": "address"
        },
        {
          "internalType": "string",
          "name": "attribute",
          "type": "string"
        }
      ],
      "name": "revokeAccess",
      "outputs": [
        {
          "internalType": "bool",
          "name": "",
          "type": "bool"
        }
      ],
      "stateMutability": "nonpayable",
      "type": "function"
    },
    {
      "inputs": [
        {
          "internalType": "string",
          "name": "reason",
          "type": "string"
        }
      ],
      "name": "revokeDID",
      "outputs": [
        {
          "internalType": "bool",
          "name": "",
          "type": "bool"
        }
      ],
      "stateMutability": "nonpayable",
      "type": "function"
    },
    {
      "inputs": [],
      "name": "selfDID",
      "outputs": [
        {
          "internalType": "string",
          "name": "identifier",
          "type": "string"
        },
        {
          "internalType": "bool",
          "name": "active",
          "type": "bool"
        },
        {
          "internalType": "uint256",
          "name": "createdAt",
          "type": "uint256"
        },
        {
          "internalType": "uint256",
          "name": "updatedAt",
          "type": "uint256"
        },
        {
          "internalType": "bool",
          "name": "isRevoked",
          "type": "bool"
        },
        {
          "internalType": "string",
          "name": "revocationReason",
          "type": "string"
        }
      ],
      "stateMutability": "view",
      "type": "function"
    },
    {
      "inputs": [
        {
          "internalType": "string",
          "name": "",
          "type": "string"
        }
      ],
      "name": "supportedIDTypes",
      "outputs": [
        {
          "internalType": "bool",
          "name": "",
          "type": "bool"
        }
      ],
      "stateMutability": "view",
      "type": "function"
    },
    {
      "inputs": [
        {
          "internalType": "address",
          "name": "newOwner",
          "type": "address"
        }
      ],
      "name": "transferOwnership",
      "outputs": [],
      "stateMutability": "nonpayable",
      "type": "function"
    },
    {
      "inputs": [],
      "name": "unpause",
      "outputs": [],
      "stateMutability": "nonpayable",
      "type": "function"
    },
    {
      "inputs": [
        {
          "internalType": "uint256",
          "name": "didIndex",
          "type": "uint256"
        },
        {
          "internalType": "string",
          "name": "name",
          "type": "string"
        },
        {
          "internalType": "string",
          "name": "dateOfBirth",
          "type": "string"
        },
        {
          "internalType": "string",
          "name": "gender",
          "type": "string"
        },
        {
          "internalType": "string",
          "name": "addr",
          "type": "string"
        },
        {
          "internalType": "string",
          "name": "panNumber",
          "type": "string"
        }
      ],
      "name": "updatePANDetails",
      "outputs": [],
      "stateMutability": "nonpayable",
      "type": "function"
    },
    {
      "inputs": [
        {
          "internalType": "address",
          "name": "",
          "type": "address"
        },
        {
          "internalType": "uint256",
          "name": "",
          "type": "uint256"
        }
      ],
      "name": "userDIDs",
      "outputs": [
        {
          "internalType": "string",
          "name": "identifier",
          "type": "string"
        },
        {
          "internalType": "bool",
          "name": "active",
          "type": "bool"
        },
        {
          "internalType": "uint256",
          "name": "createdAt",
          "type": "uint256"
        },
        {
          "internalType": "uint256",
          "name": "updatedAt",
          "type": "uint256"
        },
        {
          "internalType": "bool",
          "name": "isRevoked",
          "type": "bool"
        },
        {
          "internalType": "string",
          "name": "revocationReason",
          "type": "string"
        }
      ],
      "stateMutability": "view",
      "type": "function"
    },
    {
      "inputs": [
        {
          "internalType": "string",
          "name": "name",
          "type": "string"
        },
        {
          "internalType": "address",
          "name": "verifier",
          "type": "address"
        }
      ],
      "name": "verifyAttribute",
      "outputs": [
        {
          "internalType": "bool",
          "name": "",
          "type": "bool"
        }
      ],
      "stateMutability": "nonpayable",
      "type": "function"
    }
  ],
  "bytecode": "0x6080806040523461007c5760008054336001600160a01b0319821681178355916001600160a01b03909116907f8be0079c531659141344cd1fd0a4f28419497f9722a3daafe3b4186f6b6457e09080a360018055600160ff1980600254166002554260055542600655600454161760045561352790816100828239f35b600080fdfe6080604052600436101561001257600080fd5b60003560e01c80630b42f3fd146129f7578063203223bb1461293f5780632ba56834146125525780633457d3e21461224d57806337714208146120c05780633aa1b5ca146120a45780633f4ba83a1461201057806345e8846f14611e5a5780634b9802f814611e3d5780635c975abb14611e1a5780636662f48214611c6b5780636a44cac914611bb65780636aab3cef14611b3b578063715018a614611ae2578063767bc20e14611a075780638456cb59146119ad5780638c15f62d1461196e5780638da5cb5b14611945578063967a455f146119025780639bc3a0001461187c578063a9595ffb14611835578063bae2b854146117d8578063bd7a86ca14610dd9578063c93ead1b14610dbb578063cb6bae731461076b578063cfe3b347146104e5578063e3725def1461040a578063e4a94adc146103c5578063e8a51fca146102cd578063f2fde38b14610204578063f3d310bf146101e85763fb99d0071461017c57600080fd5b346101e35760803660031901126101e357610195612db4565b604435906001600160a01b03821682036101e357606435906001600160401b0382116101e3576020926101cf6101d9933690600401612ab7565b916024359061328d565b6040519015158152f35b600080fd5b346101e35760003660031901126101e357602060405160648152f35b346101e35760203660031901126101e35761021d612db4565b610225612eb4565b6001600160a01b0390811690811561027957600054826bffffffffffffffffffffffff60a01b821617600055167f8be0079c531659141344cd1fd0a4f28419497f9722a3daafe3b4186f6b6457e0600080a3005b60405162461bcd60e51b815260206004820152602660248201527f4f776e61626c653a206e6577206f776e657220697320746865207a65726f206160448201526564647265737360d01b6064820152608490fd5b346101e3576020806003193601126101e3576004356001600160401b0381116101e35761037882610305610387933690600401612ab7565b61031460ff6007541615612f0c565b6040519061034961034282519385818186019661033281838a612b0d565b8101600981520301902054612b56565b15156130a9565b6000546001600160a01b0316331480156103a0575b610367906130f5565b604051938492839251928391612b0d565b81016009815203019020612cd5565b9061039c604051928284938452830190612d79565b0390f35b5033600052600a835261036760ff6103bc604060002084612b30565b5416905061035e565b346101e35760003660031901126101e3576103de612b90565b60ff600454169061039c60055460065460ff60075416906103fd612c3c565b9260405196879687612e3e565b346101e3576020806003193601126101e3576004356001600160401b0381116101e35761043b903690600401612ab7565b61044a60ff6007541615612f0c565b61039c6060610490846040516104706103428751928481818b0195610332818389612b0d565b6000546001600160a01b0396908716331480156103a057610367906130f5565b81016009815203019020926040516104a781612a45565b60026104b286612cd5565b958683526001810154809884015201549160ff831615159283604084015260081c16928391015260405194859485612e7f565b346101e3576020806003193601126101e3576001600160401b036004358181116101e357610517903690600401612ab7565b61051f612eb4565b610527612f66565b61053660ff6007541615612f0c565b61053e612faa565b8051156107265760019160ff19908382600754161760075582519081116107105761056a600854612b56565b601f81116106b7575b5084601f821160011461060c5791817ff47a4f2302a3334a22353c5748d420f032e5f784e851777209232d29d169333594926105f394600091610601575b50600019600383901b1c191690861b176008555b6004541660045542600655604051918291604083526105e660408401613000565b9083820388850152612d79565b0390a1808055604051908152f35b9050830151886105b1565b908491601f1982169060086000527ff3f7a9fe364faab93b216da50a3214154f22a0a2b415b23a84c8169e8b636ee39160005b898282106106a15750509183916105f396947ff47a4f2302a3334a22353c5748d420f032e5f784e851777209232d29d169333598969410610688575b5050811b016008556105c5565b85015160001960f88460031b161c19169055888061067b565b838901518555899690940193928301920161063f565b6107009060086000527ff3f7a9fe364faab93b216da50a3214154f22a0a2b415b23a84c8169e8b636ee3601f840160051c810191888510610706575b601f0160051c0190612f4f565b85610573565b90915081906106f3565b634e487b7160e01b600052604160045260246000fd5b60405162461bcd60e51b815260048101849052601a60248201527f5265766f636174696f6e20726561736f6e2072657175697265640000000000006044820152606490fd5b346101e35760c03660031901126101e3576024356001600160401b0381116101e35761079b903690600401612ab7565b6044356001600160401b0381116101e3576107ba903690600401612ab7565b6064356001600160401b0381116101e3576107d9903690600401612ab7565b6084356001600160401b0381116101e3576107f8903690600401612ab7565b9060a4356001600160401b0381116101e357610818903690600401612ab7565b6000546001600160a01b03163303610d82576040519461083786612a60565b85526020850193845260408501918252606085019283526080850152600435600052600f60205260406000209284518051906001600160401b0382116107105781906108838754612b56565b601f8111610d50575b50602090601f8311600114610cea57600092610cdf575b50508160011b916000199060031b1c19161784555b51805160018501916001600160401b0382116107105781906108da8454612b56565b601f8111610cad575b50602090601f8311600114610c4757600092610c3c575b50508160011b916000199060031b1c19161790555b51805160028401916001600160401b0382116107105781906109318454612b56565b601f8111610c0a575b50602090601f8311600114610ba457600092610b99575b50508160011b916000199060031b1c19161790555b518051906001600160401b038211610710576109856003840154612b56565b601f8111610b64575b50602090601f8311600114610aef57918060809492600494600092610ae4575b50508160011b916000199060031b1c19161760038201555b019101519081516001600160401b038111610710576109e58254612b56565b601f8111610ab2575b50602092601f8211600114610a4e5792819293600092610a43575b50508160011b916000199060031b1c19161790555b33600052600e602052610a376004356040600020612e0c565b50600342910155600080f35b015190508380610a09565b601f198216938360005260206000209160005b868110610a9a5750836001959610610a81575b505050811b019055610a1e565b015160001960f88460031b161c19169055838080610a74565b91926020600181928685015181550194019201610a61565b610ade90836000526020600020601f840160051c8101916020851061070657601f0160051c0190612f4f565b836109ee565b0151905086806109ae565b906003840160005260206000209160005b601f1985168110610b4c5750926080949260019260049583601f19811610610b33575b505050811b0160038201556109c6565b015160001960f88460031b161c19169055868080610b23565b91926020600181928685015181550194019201610b00565b610b9390600385016000526020600020601f850160051c8101916020861061070657601f0160051c0190612f4f565b8461098e565b015190508680610951565b6000858152602081209350601f198516905b818110610bf25750908460019594939210610bd9575b505050811b019055610966565b015160001960f88460031b161c19169055868080610bcc565b92936020600181928786015181550195019301610bb6565b610c3690856000526020600020601f850160051c8101916020861061070657601f0160051c0190612f4f565b8761093a565b0151905087806108fa565b6000858152602081209350601f198516905b818110610c955750908460019594939210610c7c575b505050811b01905561090f565b015160001960f88460031b161c19169055878080610c6f565b92936020600181928786015181550195019301610c59565b610cd990856000526020600020601f850160051c8101916020861061070657601f0160051c0190612f4f565b886108e3565b0151905087806108a3565b6000888152602081209350601f198516905b818110610d385750908460019594939210610d1f575b505050811b0184556108b8565b015160001960f88460031b161c19169055878080610d12565b92936020600181928786015181550195019301610cfc565b610d7c90886000526020600020601f850160051c8101916020861061070657601f0160051c0190612f4f565b8861088c565b60405162461bcd60e51b81526020600482015260116024820152702737ba103a3432902224a21037bbb732b960791b6044820152606490fd5b346101e35760003660031901126101e3576020600d54604051908152f35b346101e35760c03660031901126101e3576004356001600160401b0381116101e357610e09903690600401612ab7565b6024356001600160401b0381116101e357610e28903690600401612ab7565b6044356001600160401b0381116101e357610e47903690600401612ab7565b60649182356001600160401b0381116101e357610e68903690600401612ab7565b6084356001600160401b0381116101e357610e87903690600401612ab7565b9060a4356001600160401b0381116101e357610ea7903690600401612ab7565b94610eb0612f66565b610ebf60ff6007541615612f0c565b610ec7612faa565b865115611796578087511161175e5760ff60405160208181610eef8c83815193849201612b0d565b8101600c81520301902054166117205760035490610f0c82612b56565b6116e957508651906001600160401b03821161071057610f2b90612b56565b601f81116116ac575b50806020601f82116001146116395760009161162e575b508160011b916000199060031b1c1916176003555b426005554260065560ff196001816004541617600455600160405160208181610f8f8c83815193849201612b0d565b8101600c81520301902091825416179055604051602081527f44ca9609d2fe597457041d7e98533a969452ef425c10a46d0dd9f074497ea1ba339180610fd8602082018b612d79565b0390a26001805533600052600e6020526040600020549384600019810111611618576040519361100785612a60565b84526020840152604083015260608201528260808201526000198201600052600f602052604060002081518051906001600160401b03821161071057819061104f8454612b56565b601f81116115e6575b50602090601f831160011461157a5760009261156f575b50508160011b916000199060031b1c19161781555b60208201518051906001600160401b0382116107105781906110a96001850154612b56565b601f811161153a575b50602090601f83116001146114c8576000926114bd575b50508160011b916000199060031b1c19161760018201555b60408201518051906001600160401b0382116107105781906111066002850154612b56565b601f8111611488575b50602090601f83116001146114165760009261140b575b50508160011b916000199060031b1c19161760028201555b60608201518051906001600160401b038211610710576111616003840154612b56565b601f81116113d6575b50602090601f831160011461136157918060809492600494600092611356575b50508160011b916000199060031b1c19161760038201555b019101518051906001600160401b038211610710576111c18354612b56565b601f8111611324575b50602090601f83116001146112925792826112739361128296937f5ea42a3a46bfc6d26e587157bf2f67b8935301180b1eeae8da9f363e5f68748f9896600092611287575b50508160011b916000199060031b1c19161790555b61123a61122f6132e7565b336000198401613151565b5061124661122f613307565b5061125261122f61332e565b5061125e61122f613350565b50611267613370565b90339060001901613151565b50604051918291339583613092565b0390a2005b01519050898061120f565b90601f198316918460005260206000209260005b81811061130c57509361128296937f5ea42a3a46bfc6d26e587157bf2f67b8935301180b1eeae8da9f363e5f68748f9896936001938361127398106112f3575b505050811b019055611224565b015160001960f88460031b161c191690558980806112e6565b929360206001819287860151815501950193016112a6565b61135090846000526020600020601f850160051c8101916020861061070657601f0160051c0190612f4f565b866111ca565b01519050898061118a565b906003840160005260206000209160005b601f19851681106113be5750926080949260019260049583601f198116106113a5575b505050811b0160038201556111a2565b015160001960f88460031b161c19169055898080611395565b91926020600181928685015181550194019201611372565b61140590600385016000526020600020601f850160051c8101916020861061070657601f0160051c0190612f4f565b8761116a565b015190508780611126565b9250600284016000526020600020906000935b601f198416851061146d576001945083601f19811610611454575b505050811b01600282015561113e565b015160001960f88460031b161c19169055878080611444565b81810151835560209485019460019093019290910190611429565b6114b790600286016000526020600020601f850160051c8101916020861061070657601f0160051c0190612f4f565b8861110f565b0151905087806110c9565b9250600184016000526020600020906000935b601f198416851061151f576001945083601f19811610611506575b505050811b0160018201556110e1565b015160001960f88460031b161c191690558780806114f6565b818101518355602094850194600190930192909101906114db565b61156990600186016000526020600020601f850160051c8101916020861061070657601f0160051c0190612f4f565b886110b2565b01519050878061106f565b9250836000526020600020906000935b601f19841685106115cb576001945083601f198116106115b2575b505050811b018155611084565b015160001960f88460031b161c191690558780806115a5565b8181015183556020948501946001909301929091019061158a565b61161290856000526020600020601f850160051c8101916020861061070657601f0160051c0190612f4f565b88611058565b634e487b7160e01b600052601160045260246000fd5b905087015188610f4b565b915060036000526000805160206134d28339815191526000925b601f1983168410611694576001935082601f1981161061167b575b5050811b01600355610f60565b89015160001960f88460031b161c19169055888061166e565b89810151825560209384019360019092019101611653565b6116e39060036000526000805160206134d2833981519152601f840160051c8101916020851061070657601f0160051c0190612f4f565b87610f34565b60405162461bcd60e51b815260206004820152601260248201527144494420616c72656164792065786973747360701b6044820152fd5b60405162461bcd60e51b81526020600482015260196024820152784964656e74696669657220616c726561647920696e2075736560381b6044820152fd5b60405162461bcd60e51b81526020600482015260136024820152724964656e74696669657220746f6f206c6f6e6760681b6044820152fd5b60405162461bcd60e51b815260206004820152601a60248201527f4964656e7469666965722063616e6e6f7420626520656d7074790000000000006044820152fd5b346101e35760603660031901126101e3576117f1612db4565b6044356001600160401b0381116101e35761039c91611817611821923690600401612ab7565b9060243590613395565b604051918291602083526020830190612d79565b346101e35760603660031901126101e35761184e612d9e565b6044356001600160401b0381116101e3576020916118736101d9923690600401612ab7565b90600435613151565b346101e35760203660031901126101e3576004356001600160401b0381116101e35760206118b16118c4923690600401612ab7565b8160405193828580945193849201612b0d565b810160098152030190206118d781612cd5565b9061039c6002600183015492015460405193849360ff60018060a01b038460081c1693169185612e7f565b346101e35760003660031901126101e35760ff600754166119238115612f0c565b60ff600454169061039c6005546006549261193c612b90565b936103fd612c3c565b346101e35760003660031901126101e3576000546040516001600160a01b039091168152602090f35b346101e357602060ff6119a161198336612dca565b6001600160a01b039091166000908152600a85526040902090612b30565b54166040519015158152f35b346101e35760003660031901126101e3576119c6612eb4565b6119ce612f66565b600160ff1960025416176002557f62e78cea01bee320cd4e420270b5ea74000d11b0c9f74754ebdbfc544b05a2586020604051338152a1005b346101e35760003660031901126101e357611a20612eb4565b611a28612f66565b611a3760ff6007541615612f0c565b611a3f612faa565b60045460ff811615611a9d5760ff1916600455426006557f4360f12f602ccecefb32480e5314d0d3f57d38db8f52c76d8fdf4c39596c1c286040516020815280611a8b60208201613000565b0390a160018055602060405160018152f35b60405162461bcd60e51b815260206004820152601760248201527f44494420697320616c726561647920696e6163746976650000000000000000006044820152606490fd5b346101e35760003660031901126101e357611afb612eb4565b600080546001600160a01b0319811682556001600160a01b03167f8be0079c531659141344cd1fd0a4f28419497f9722a3daafe3b4186f6b6457e08280a3005b346101e35760403660031901126101e357611b54612db4565b6001600160a01b03166000908152600e602052604090208054602435908110156101e357611b8191612e0c565b50611b8b81612cd5565b61039c60ff6001840154169260028101549060038101546103fd600560ff6004850154169301612cd5565b346101e357611c597f51cbcaaca6ae26944c6280c966a07b04ca5c6766d82ca497ded152579431468d611be836612dca565b9290611bf2612eb4565b611bfa612f66565b611c0960ff6007541615612f0c565b611c11612faa565b6001600160a01b031692611c2684151561320e565b83600052600a602052611c3d604060002082612b30565b60ff198154169055604051918291602083526020830190612d79565b0390a260018055602060405160018152f35b346101e35760403660031901126101e357611c84612db4565b6001600160a01b0381166000818152600e602052604090205460243592611cc191611cb090851061324c565b611cb86132e7565b9084339161328d565b15611dc957600052600e602052611cdc816040600020612e0c565b5090600052600f602052611d6c60406000209160ff600182015416906002810154611db2611d0e600384015493612cd5565b611da4611d1a88612cd5565b97611d96611d2a60018301612cd5565b611d88611d3960028501612cd5565b91611d7a611d556004611d4e60038901612cd5565b9701612cd5565b976040519e8f9e8f92610120808552840190612d79565b916020818403910152612d79565b8c810360408e015290612d79565b908a820360608c0152612d79565b9088820360808a0152612d79565b9086820360a0880152612d79565b92151560c085015260e08401526101008301520390f35b60405162461bcd60e51b8152602060048201526024808201527f4e6f7420617574686f72697a656420746f206163636573732050414e2064657460448201526361696c7360e01b6064820152608490fd5b346101e35760003660031901126101e357602060ff600254166040519015158152f35b346101e35760003660031901126101e35760206040516103e88152f35b346101e35760403660031901126101e3576004356001600160401b0381116101e357611e8a903690600401612ab7565b611e92612d9e565b611e9a612eb4565b611ea2612f66565b611eb160ff6007541615612f0c565b611eb9612faa565b604051918051611ed9610342602095868181870195610332818389612b0d565b6001600160a01b038316928315611fcb5791611f986001611fbb93611f887f1c564f9c63901c7b3617b5a5a8d210f8871f28d4afa53586ed6f670abe7e220a9660026040518b818951611f2d81838a612b0d565b81016009815203019020018460ff1982541617905560026040518b818951611f5681838a612b0d565b600990820190815203019020018054610100600160a81b03191660089290921b610100600160a81b0316919091179055565b6040519283918551928391612b0d565b820191600983528781429403019020015560405191829186835286830190612d79565b0390a26001805560405160018152f35b60405162461bcd60e51b815260048101869052601860248201527f496e76616c6964207665726966696572206164647265737300000000000000006044820152606490fd5b346101e35760003660031901126101e357612029612eb4565b60025460ff8116156120685760ff19166002557f5db9ee0a495bf2e6ff9c91a7834c1ba4fdd244a5e8aa4e537bd38aeae4b073aa6020604051338152a1005b60405162461bcd60e51b815260206004820152601460248201527314185d5cd8589b194e881b9bdd081c185d5cd95960621b6044820152606490fd5b346101e35760003660031901126101e357602060405160328152f35b346101e3576020806003193601126101e3576004356001600160401b0381116101e3576120f1903690600401612ab7565b6120f9612eb4565b612101612f66565b61211060ff6007541615612f0c565b612118612faa565b6000600261214e8460405161213d6103428751928481818b0195610332818389612b0d565b604051809381928851928391612b0d565b810160098152030190206121628154612b56565b80612211575b508260018201550155600d5480156121cc5760001901600d55426006556040518281527f8088db29d4761a957c0a396fa3c5f3f369fbfca4f1a83dae8b4f76a31726246a9181906121bc9085830190612d79565b0390a16001805560405160018152f35b60405162461bcd60e51b815260048101849052601b60248201527f436f756e7465723a2064656372656d656e74206f766572666c6f7700000000006044820152606490fd5b601f811160011461222757508281555b85612168565b8390828252612244601f888420920160051c820160018301612f4f565b81835555612221565b346101e3576020806003193601126101e3576001600160401b036004358181116101e35761227f903690600401612ab7565b90612288612f66565b61229760ff6007541615612f0c565b61229f612faa565b81511561250d5760648251116124d2576040519060ff8351928581818701956122c9818389612b0d565b8101600c81520301902054166124915760039081546122e781612b56565b612457578451918211610710576122fd90612b56565b601f811161241c575b508085601f82116001146123ae576000916123a3575b508160011b9160001990841b1c19161790555b4260055542600655600161235c8460ff199383856004541617600455604051809381928851928391612b0d565b8101600c815203019020918254161790557f44ca9609d2fe597457041d7e98533a969452ef425c10a46d0dd9f074497ea1ba60405183815280611fbb339486830190612d79565b90508401518661231c565b60008481526000805160206134d28339815191529250601f198416905b8882821061240657505090836001949392106123ee575b5050811b01905561232f565b86015160001983861b60f8161c1916905586806123e2565b600184958293958b0151815501940192016123cb565b61245190836000526000805160206134d2833981519152601f840160051c81019188851061070657601f0160051c0190612f4f565b85612306565b60405162461bcd60e51b815260048101879052601260248201527144494420616c72656164792065786973747360701b6044820152606490fd5b60405162461bcd60e51b81526004810185905260196024820152784964656e74696669657220616c726561647920696e2075736560381b6044820152606490fd5b60405162461bcd60e51b81526004810184905260136024820152724964656e74696669657220746f6f206c6f6e6760681b6044820152606490fd5b60405162461bcd60e51b815260048101849052601a60248201527f4964656e7469666965722063616e6e6f7420626520656d7074790000000000006044820152606490fd5b346101e35760403660031901126101e3576001600160401b036004358181116101e357612583903690600401612ab7565b9060249182358281116101e35761259e903690600401612ab7565b906125a7612eb4565b6125af612f66565b6125be60ff6007541615612f0c565b6125c6612faa565b8051156128fb576103e8808251116128b7578251156128735782511161282f576032600d5410156127eb57604051936125fe85612a45565b828552602094858101428152604082019560008752606083019360008552604051898188516126308183858d01612b0d565b8101600981520301902093519081519283116127d757506126518454612b56565b601f81116127a7575b508890601f83116001146127165792826002937fb5992aa9568eacc71d59e4909dd6598b92a9412825efe4598975018ea0918d759a96936126ef989660009261270b575b50508160011b916000199060031b1c19161782555b51600182015592519201805491516001600160a81b031990921660ff931515939093169290921760089190911b610100600160a81b0316179055565b6001600d5401600d55426006556121bc60405192839283613092565b015190508c8061269e565b90601f19831691856000528a6000209260005b8c828210612791575050937fb5992aa9568eacc71d59e4909dd6598b92a9412825efe4598975018ea0918d759a96936126ef9896936001938360029810612778575b505050811b0182556126b3565b015160001960f88460031b161c191690558c808061276b565b6001859682939686015181550195019301612729565b6127d190856000528a600020601f850160051c8101918c861061070657601f0160051c0190612f4f565b8961265a565b634e487b7160e01b60009081526041600452fd5b60405162461bcd60e51b815260206004820152601a818601527f4d6178696d756d206174747269627574657320726561636865640000000000006044820152606490fd5b60405162461bcd60e51b8152602060048201526018818601527f4174747269627574652076616c756520746f6f206c6f6e6700000000000000006044820152606490fd5b60405162461bcd60e51b815260206004820152601f818701527f4174747269627574652076616c75652063616e6e6f7420626520656d707479006044820152606490fd5b60405162461bcd60e51b8152602060048201526017818701527f417474726962757465206e616d6520746f6f206c6f6e670000000000000000006044820152606490fd5b60405162461bcd60e51b815260206004820152601e818601527f417474726962757465206e616d652063616e6e6f7420626520656d70747900006044820152606490fd5b346101e35760203660031901126101e357600435600052600f6020526129bf604060002061039c61296f82612cd5565b916129e961297f60018301612cd5565b916129db61298f60028301612cd5565b6129cd6129aa60046129a360038701612cd5565b9501612cd5565b95604051998a9960a08b5260a08b0190612d79565b9089820360208b0152612d79565b908782036040890152612d79565b908582036060870152612d79565b908382036080850152612d79565b346101e35760203660031901126101e3576004356001600160401b0381116101e35760ff612a2f60206118b181943690600401612ab7565b8101600b81520301902054166040519015158152f35b608081019081106001600160401b0382111761071057604052565b60a081019081106001600160401b0382111761071057604052565b604081019081106001600160401b0382111761071057604052565b90601f801991011681019081106001600160401b0382111761071057604052565b81601f820112156101e3578035906001600160401b0382116107105760405192612aeb601f8401601f191660200185612a96565b828452602083830101116101e357816000926020809301838601378301015290565b60005b838110612b205750506000910152565b8181015183820152602001612b10565b602090612b4a928260405194838680955193849201612b0d565b82019081520301902090565b90600182811c92168015612b86575b6020831014612b7057565b634e487b7160e01b600052602260045260246000fd5b91607f1691612b65565b6040519060008260035491612ba483612b56565b80835292600190818116908115612c1a5750600114612bcd575b50612bcb92500383612a96565b565b6003600090815291506000805160206134d28339815191525b848310612bff5750612bcb935050810160200138612bbe565b81935090816020925483858a01015201910190918592612be6565b905060209250612bcb94915060ff191682840152151560051b82010138612bbe565b6040519060008260085491612c5083612b56565b80835292600190818116908115612c1a5750600114612c765750612bcb92500383612a96565b6008600090815291507ff3f7a9fe364faab93b216da50a3214154f22a0a2b415b23a84c8169e8b636ee35b848310612cba5750612bcb935050810160200138612bbe565b81935090816020925483858a01015201910190918592612ca1565b9060405191826000825492612ce984612b56565b908184526001948581169081600014612d565750600114612d13575b5050612bcb92500383612a96565b9093915060005260209081600020936000915b818310612d3e575050612bcb93508201013880612d05565b85548884018501529485019487945091830191612d26565b915050612bcb94506020925060ff191682840152151560051b8201013880612d05565b90602091612d9281518092818552858086019101612b0d565b601f01601f1916010190565b602435906001600160a01b03821682036101e357565b600435906001600160a01b03821682036101e357565b9060406003198301126101e3576004356001600160a01b03811681036101e35791602435906001600160401b0382116101e357612e0991600401612ab7565b90565b8054821015612e28576000526006602060002091020190600090565b634e487b7160e01b600052603260045260246000fd5b92612e59612e0997959296939660c0865260c0860190612d79565b9515156020850152604084015260608301521515608082015260a0818403910152612d79565b92612e97606093969592608086526080860190612d79565b6020850196909652151560408401526001600160a01b0316910152565b6000546001600160a01b03163303612ec857565b606460405162461bcd60e51b815260206004820152602060248201527f4f776e61626c653a2063616c6c6572206973206e6f7420746865206f776e65726044820152fd5b15612f1357565b60405162461bcd60e51b8152602060048201526014602482015273111251081a185cc81899595b881c995d9bdad95960621b6044820152606490fd5b818110612f5a575050565b60008155600101612f4f565b60ff60025416612f7257565b60405162461bcd60e51b815260206004820152601060248201526f14185d5cd8589b194e881c185d5cd95960821b6044820152606490fd5b600260015414612fbb576002600155565b60405162461bcd60e51b815260206004820152601f60248201527f5265656e7472616e637947756172643a207265656e7472616e742063616c6c006044820152606490fd5b6003546000929161301082612b56565b80825291600190818116908115613075575060011461302e57505050565b9192935060036000526000805160206134d2833981519152916000925b84841061305d57505060209250010190565b8054602085850181019190915290930192810161304b565b915050602093945060ff929192191683830152151560051b010190565b9091611d6c612e0993604084526040840190612d79565b156130b057565b60405162461bcd60e51b815260206004820152601860248201527f41747472696275746520646f6573206e6f7420657869737400000000000000006044820152606490fd5b156130fc57565b60405162461bcd60e51b815260206004820152602760248201527f4e6f7420617574686f72697a656420746f2061636365737320746869732061746044820152667472696275746560c81b6064820152608490fd5b91613202906131cc7f883d542f167dfc5f47e8bf1532c171025ed0e4c59c1126c7f61749fa21976a4593613183612eb4565b61318b612f66565b61319a60ff6007541615612f0c565b6131a2612faa565b6001600160a01b0316946131b786151561320e565b33600052600e6020526040600020541161324c565b83600052600a6020526131e3604060002082612b30565b600160ff19825416179055604051918291602083526020830190612d79565b0390a260018055600190565b1561321557565b60405162461bcd60e51b815260206004820152600f60248201526e496e76616c6964206164647265737360881b6044820152606490fd5b1561325357565b60405162461bcd60e51b815260206004820152601260248201527111125108191bd95cc81b9bdd08195e1a5cdd60721b6044820152606490fd5b6001600160a01b039081166000818152600e602052604090205490949391926132b6911161324c565b168092149182156132c657505090565b60ff9250906132e291600052600a602052604060002090612b30565b541690565b604051906132f482612a7b565b60048252636e616d6560e01b6020830152565b6040519061331482612a7b565b600b82526a0c8c2e8ca9ecc84d2e4e8d60ab1b6020830152565b6040519061333b82612a7b565b600682526533b2b73232b960d11b6020830152565b6040519061335d82612a7b565b600482526330b2323960e11b6020830152565b6040519061337d82612a7b565b60098252683830b7273ab6b132b960b91b6020830152565b919060018060a01b0383166000526133ce6133c983602095600e87526133c1604060002054861061324c565b84339161328d565b6130f5565b600052600f82526040600020908051908381019182206133ec6132e7565b858151910120146134c55780518220613403613307565b858151910120146134b6578051822061341a61332e565b858151910120146134a75780518220613431613350565b8581519101201461349857519020613447613370565b8381519101201461348b5760405162461bcd60e51b8152600481018390526011602482015270496e76616c69642061747472696275746560781b6044820152606490fd5b612e099150600401612cd5565b5050612e099150600301612cd5565b5050612e099150600201612cd5565b5050612e099150600101612cd5565b5050612e099150612cd556fec2575a0e9e593c00f959f8c92f12db2869c3395a3b0502d05e2516446f71f85ba264697066735822122023b23ad2823488945859dfaf05512faaa624f909ddb3a6d4d1b8cc6d4ef65cda64736f6c63430008140033",
  "linkReferences": {},
  "deployedLinkReferences": {}
}