{
  "_format": "hh-sol-artifact-1",
  "contractName": "IdentityRegistry",
  "sourceName": "contracts/IdentityRegistry.sol",
  "abi": [
    {
      "inputs": [],
      "stateMutability": "nonpayable",
      "type": "constructor"
    },
    {
      "anonymous": false,
      "inputs": [
        {
          "indexed": true,
          "internalType": "address",
          "name": "user",
          "type": "address"
        },
        {
          "indexed": true,
          "internalType": "address",
          "name": "serviceProvider",
          "type": "address"
        }
      ],
      "name": "AccessGranted",
      "type": "event"
    },
    {
      "anonymous": false,
      "inputs": [
        {
          "indexed": true,
          "internalType": "address",
          "name": "user",
          "type": "address"
        },
        {
          "indexed": true,
          "internalType": "address",
          "name": "serviceProvider",
          "type": "address"
        }
      ],
      "name": "AccessRevoked",
      "type": "event"
    },
    {
      "anonymous": false,
      "inputs": [
        {
          "indexed": true,
          "internalType": "address",
          "name": "user",
          "type": "address"
        },
        {
          "indexed": true,
          "internalType": "string",
          "name": "identifier",
          "type": "string"
        }
      ],
      "name": "DIDRegistered",
      "type": "event"
    },
    {
      "anonymous": false,
      "inputs": [
        {
          "indexed": true,
          "internalType": "address",
          "name": "user",
          "type": "address"
        },
        {
          "indexed": true,
          "internalType": "string",
          "name": "documentHash",
          "type": "string"
        }
      ],
      "name": "DocumentUploaded",
      "type": "event"
    },
    {
      "anonymous": false,
      "inputs": [
        {
          "indexed": true,
          "internalType": "address",
          "name": "user",
          "type": "address"
        },
        {
          "indexed": true,
          "internalType": "string",
          "name": "documentHash",
          "type": "string"
        },
        {
          "indexed": true,
          "internalType": "address",
          "name": "verifier",
          "type": "address"
        }
      ],
      "name": "DocumentVerified",
      "type": "event"
    },
    {
      "anonymous": false,
      "inputs": [
        {
          "indexed": false,
          "internalType": "address",
          "name": "account",
          "type": "address"
        }
      ],
      "name": "Paused",
      "type": "event"
    },
    {
      "anonymous": false,
      "inputs": [
        {
          "indexed": true,
          "internalType": "bytes32",
          "name": "role",
          "type": "bytes32"
        },
        {
          "indexed": true,
          "internalType": "bytes32",
          "name": "previousAdminRole",
          "type": "bytes32"
        },
        {
          "indexed": true,
          "internalType": "bytes32",
          "name": "newAdminRole",
          "type": "bytes32"
        }
      ],
      "name": "RoleAdminChanged",
      "type": "event"
    },
    {
      "anonymous": false,
      "inputs": [
        {
          "indexed": true,
          "internalType": "bytes32",
          "name": "role",
          "type": "bytes32"
        },
        {
          "indexed": true,
          "internalType": "address",
          "name": "account",
          "type": "address"
        },
        {
          "indexed": true,
          "internalType": "address",
          "name": "sender",
          "type": "address"
        }
      ],
      "name": "RoleGranted",
      "type": "event"
    },
    {
      "anonymous": false,
      "inputs": [
        {
          "indexed": true,
          "internalType": "bytes32",
          "name": "role",
          "type": "bytes32"
        },
        {
          "indexed": true,
          "internalType": "address",
          "name": "account",
          "type": "address"
        },
        {
          "indexed": true,
          "internalType": "address",
          "name": "sender",
          "type": "address"
        }
      ],
      "name": "RoleRevoked",
      "type": "event"
    },
    {
      "anonymous": false,
      "inputs": [
        {
          "components": [
            {
              "internalType": "uint256",
              "name": "verificationFee",
              "type": "uint256"
            },
            {
              "internalType": "uint256",
              "name": "documentExpiryTime",
              "type": "uint256"
            },
            {
              "internalType": "uint256",
              "name": "maxVerificationAttempts",
              "type": "uint256"
            },
            {
              "internalType": "bool",
              "name": "allowMultipleDIDs",
              "type": "bool"
            }
          ],
          "indexed": false,
          "internalType": "struct IdentityRegistry.SystemConfig",
          "name": "config",
          "type": "tuple"
        }
      ],
      "name": "SystemConfigUpdated",
      "type": "event"
    },
    {
      "anonymous": false,
      "inputs": [
        {
          "indexed": false,
          "internalType": "address",
          "name": "account",
          "type": "address"
        }
      ],
      "name": "Unpaused",
      "type": "event"
    },
    {
      "anonymous": false,
      "inputs": [
        {
          "indexed": true,
          "internalType": "address",
          "name": "user",
          "type": "address"
        },
        {
          "indexed": true,
          "internalType": "string",
          "name": "documentHash",
          "type": "string"
        },
        {
          "indexed": false,
          "internalType": "string",
          "name": "reason",
          "type": "string"
        }
      ],
      "name": "VerificationRejected",
      "type": "event"
    },
    {
      "anonymous": false,
      "inputs": [
        {
          "indexed": true,
          "internalType": "address",
          "name": "user",
          "type": "address"
        },
        {
          "indexed": true,
          "internalType": "address",
          "name": "verifier",
          "type": "address"
        },
        {
          "indexed": true,
          "internalType": "string",
          "name": "documentHash",
          "type": "string"
        }
      ],
      "name": "VerificationRequested",
      "type": "event"
    },
    {
      "inputs": [],
      "name": "ADMIN_ROLE",
      "outputs": [
        {
          "internalType": "bytes32",
          "name": "",
          "type": "bytes32"
        }
      ],
      "stateMutability": "view",
      "type": "function"
    },
    {
      "inputs": [],
      "name": "DEFAULT_ADMIN_ROLE",
      "outputs": [
        {
          "internalType": "bytes32",
          "name": "",
          "type": "bytes32"
        }
      ],
      "stateMutability": "view",
      "type": "function"
    },
    {
      "inputs": [],
      "name": "SERVICE_PROVIDER_ROLE",
      "outputs": [
        {
          "internalType": "bytes32",
          "name": "",
          "type": "bytes32"
        }
      ],
      "stateMutability": "view",
      "type": "function"
    },
    {
      "inputs": [],
      "name": "USER_ROLE",
      "outputs": [
        {
          "internalType": "bytes32",
          "name": "",
          "type": "bytes32"
        }
      ],
      "stateMutability": "view",
      "type": "function"
    },
    {
      "inputs": [],
      "name": "VERIFIER_ROLE",
      "outputs": [
        {
          "internalType": "bytes32",
          "name": "",
          "type": "bytes32"
        }
      ],
      "stateMutability": "view",
      "type": "function"
    },
    {
      "inputs": [
        {
          "internalType": "address",
          "name": "user",
          "type": "address"
        }
      ],
      "name": "checkAccess",
      "outputs": [
        {
          "internalType": "bool",
          "name": "",
          "type": "bool"
        }
      ],
      "stateMutability": "view",
      "type": "function"
    },
    {
      "inputs": [],
      "name": "config",
      "outputs": [
        {
          "internalType": "uint256",
          "name": "verificationFee",
          "type": "uint256"
        },
        {
          "internalType": "uint256",
          "name": "documentExpiryTime",
          "type": "uint256"
        },
        {
          "internalType": "uint256",
          "name": "maxVerificationAttempts",
          "type": "uint256"
        },
        {
          "internalType": "bool",
          "name": "allowMultipleDIDs",
          "type": "bool"
        }
      ],
      "stateMutability": "view",
      "type": "function"
    },
    {
      "inputs": [
        {
          "internalType": "string",
          "name": "",
          "type": "string"
        }
      ],
      "name": "documentExists",
      "outputs": [
        {
          "internalType": "bool",
          "name": "",
          "type": "bool"
        }
      ],
      "stateMutability": "view",
      "type": "function"
    },
    {
      "inputs": [
        {
          "internalType": "address",
          "name": "user",
          "type": "address"
        }
      ],
      "name": "getDID",
      "outputs": [
        {
          "internalType": "string",
          "name": "identifier",
          "type": "string"
        },
        {
          "internalType": "bool",
          "name": "isVerified",
          "type": "bool"
        },
        {
          "internalType": "uint256",
          "name": "createdAt",
          "type": "uint256"
        },
        {
          "internalType": "uint256",
          "name": "lastUpdated",
          "type": "uint256"
        },
        {
          "internalType": "uint256",
          "name": "verificationAttempts",
          "type": "uint256"
        },
        {
          "internalType": "string[]",
          "name": "documentHashes",
          "type": "string[]"
        }
      ],
      "stateMutability": "view",
      "type": "function"
    },
    {
      "inputs": [
        {
          "internalType": "bytes32",
          "name": "role",
          "type": "bytes32"
        }
      ],
      "name": "getRoleAdmin",
      "outputs": [
        {
          "internalType": "bytes32",
          "name": "",
          "type": "bytes32"
        }
      ],
      "stateMutability": "view",
      "type": "function"
    },
    {
      "inputs": [
        {
          "internalType": "string",
          "name": "documentHash",
          "type": "string"
        }
      ],
      "name": "getVerificationRequest",
      "outputs": [
        {
          "internalType": "address",
          "name": "user",
          "type": "address"
        },
        {
          "internalType": "address",
          "name": "verifier",
          "type": "address"
        },
        {
          "internalType": "uint256",
          "name": "timestamp",
          "type": "uint256"
        },
        {
          "internalType": "bool",
          "name": "isPending",
          "type": "bool"
        },
        {
          "internalType": "string",
          "name": "rejectionReason",
          "type": "string"
        }
      ],
      "stateMutability": "view",
      "type": "function"
    },
    {
      "inputs": [
        {
          "internalType": "address",
          "name": "user",
          "type": "address"
        }
      ],
      "name": "grantAccess",
      "outputs": [],
      "stateMutability": "nonpayable",
      "type": "function"
    },
    {
      "inputs": [
        {
          "internalType": "bytes32",
          "name": "role",
          "type": "bytes32"
        },
        {
          "internalType": "address",
          "name": "account",
          "type": "address"
        }
      ],
      "name": "grantRole",
      "outputs": [],
      "stateMutability": "nonpayable",
      "type": "function"
    },
    {
      "inputs": [
        {
          "internalType": "bytes32",
          "name": "role",
          "type": "bytes32"
        },
        {
          "internalType": "address",
          "name": "account",
          "type": "address"
        }
      ],
      "name": "hasRole",
      "outputs": [
        {
          "internalType": "bool",
          "name": "",
          "type": "bool"
        }
      ],
      "stateMutability": "view",
      "type": "function"
    },
    {
      "inputs": [],
      "name": "pause",
      "outputs": [],
      "stateMutability": "nonpayable",
      "type": "function"
    },
    {
      "inputs": [],
      "name": "paused",
      "outputs": [
        {
          "internalType": "bool",
          "name": "",
          "type": "bool"
        }
      ],
      "stateMutability": "view",
      "type": "function"
    },
    {
      "inputs": [
        {
          "internalType": "string",
          "name": "identifier",
          "type": "string"
        }
      ],
      "name": "registerDID",
      "outputs": [],
      "stateMutability": "nonpayable",
      "type": "function"
    },
    {
      "inputs": [
        {
          "internalType": "string",
          "name": "documentHash",
          "type": "string"
        },
        {
          "internalType": "string",
          "name": "reason",
          "type": "string"
        }
      ],
      "name": "rejectVerification",
      "outputs": [],
      "stateMutability": "nonpayable",
      "type": "function"
    },
    {
      "inputs": [
        {
          "internalType": "bytes32",
          "name": "role",
          "type": "bytes32"
        },
        {
          "internalType": "address",
          "name": "account",
          "type": "address"
        }
      ],
      "name": "renounceRole",
      "outputs": [],
      "stateMutability": "nonpayable",
      "type": "function"
    },
    {
      "inputs": [
        {
          "internalType": "address",
          "name": "verifier",
          "type": "address"
        },
        {
          "internalType": "string",
          "name": "documentHash",
          "type": "string"
        }
      ],
      "name": "requestVerification",
      "outputs": [],
      "stateMutability": "nonpayable",
      "type": "function"
    },
    {
      "inputs": [
        {
          "internalType": "bytes32",
          "name": "role",
          "type": "bytes32"
        },
        {
          "internalType": "address",
          "name": "account",
          "type": "address"
        }
      ],
      "name": "revokeRole",
      "outputs": [],
      "stateMutability": "nonpayable",
      "type": "function"
    },
    {
      "inputs": [
        {
          "internalType": "bytes4",
          "name": "interfaceId",
          "type": "bytes4"
        }
      ],
      "name": "supportsInterface",
      "outputs": [
        {
          "internalType": "bool",
          "name": "",
          "type": "bool"
        }
      ],
      "stateMutability": "view",
      "type": "function"
    },
    {
      "inputs": [],
      "name": "unpause",
      "outputs": [],
      "stateMutability": "nonpayable",
      "type": "function"
    },
    {
      "inputs": [
        {
          "components": [
            {
              "internalType": "uint256",
              "name": "verificationFee",
              "type": "uint256"
            },
            {
              "internalType": "uint256",
              "name": "documentExpiryTime",
              "type": "uint256"
            },
            {
              "internalType": "uint256",
              "name": "maxVerificationAttempts",
              "type": "uint256"
            },
            {
              "internalType": "bool",
              "name": "allowMultipleDIDs",
              "type": "bool"
            }
          ],
          "internalType": "struct IdentityRegistry.SystemConfig",
          "name": "_config",
          "type": "tuple"
        }
      ],
      "name": "updateSystemConfig",
      "outputs": [],
      "stateMutability": "nonpayable",
      "type": "function"
    },
    {
      "inputs": [
        {
          "internalType": "string",
          "name": "documentHash",
          "type": "string"
        }
      ],
      "name": "uploadDocument",
      "outputs": [],
      "stateMutability": "nonpayable",
      "type": "function"
    },
    {
      "inputs": [
        {
          "internalType": "address",
          "name": "",
          "type": "address"
        }
      ],
      "name": "userDIDs",
      "outputs": [
        {
          "internalType": "string",
          "name": "identifier",
          "type": "string"
        },
        {
          "internalType": "address",
          "name": "owner",
          "type": "address"
        },
        {
          "internalType": "bool",
          "name": "isVerified",
          "type": "bool"
        },
        {
          "internalType": "uint256",
          "name": "createdAt",
          "type": "uint256"
        },
        {
          "internalType": "uint256",
          "name": "lastUpdated",
          "type": "uint256"
        },
        {
          "internalType": "uint256",
          "name": "verificationAttempts",
          "type": "uint256"
        }
      ],
      "stateMutability": "view",
      "type": "function"
    },
    {
      "inputs": [
        {
          "internalType": "string",
          "name": "",
          "type": "string"
        }
      ],
      "name": "verificationRequests",
      "outputs": [
        {
          "internalType": "address",
          "name": "user",
          "type": "address"
        },
        {
          "internalType": "address",
          "name": "verifier",
          "type": "address"
        },
        {
          "internalType": "string",
          "name": "documentHash",
          "type": "string"
        },
        {
          "internalType": "uint256",
          "name": "timestamp",
          "type": "uint256"
        },
        {
          "internalType": "bool",
          "name": "isPending",
          "type": "bool"
        },
        {
          "internalType": "string",
          "name": "rejectionReason",
          "type": "string"
        }
      ],
      "stateMutability": "view",
      "type": "function"
    },
    {
      "inputs": [
        {
          "internalType": "string",
          "name": "documentHash",
          "type": "string"
        }
      ],
      "name": "verifyDocument",
      "outputs": [],
      "stateMutability": "nonpayable",
      "type": "function"
    }
  ],
  "bytecode": "0x60806040523480156200001157600080fd5b506001805460ff191681556002556200002c600033620000a5565b620000587fa49807205ce4d355092ef5a8a18f56e8913cf4a201fbe287825b095693c2177533620000a5565b6040805160808101825267016345785d8a00008082526301e13380602083018190526003938301849052600060609093019290925282556004556005556006805460ff1916905562000146565b6000828152602081815260408083206001600160a01b038516845290915290205460ff1662000142576000828152602081815260408083206001600160a01b03851684529091529020805460ff19166001179055620001013390565b6001600160a01b0316816001600160a01b0316837f2f8788117e7eff1d82e926ec794901d17c78024a50270940304540a733656f0d60405160405180910390a45b5050565b6121a380620001566000396000f3fe608060405234801561001057600080fd5b50600436106101c45760003560e01c806375b238fc116100f9578063a217fddf11610097578063d3be903211610071578063d3be90321461041c578063d547741f14610440578063e7705db614610453578063f64e30b01461046857600080fd5b8063a217fddf146103ee578063b7f5576d146103f6578063beee5eb71461040957600080fd5b80638456cb59116100d35780638456cb591461039b57806391d14854146103a357806397b88547146103b6578063a179d1c2146103db57600080fd5b806375b238fc1461032657806379502c551461033b5780637e0238651461037657600080fd5b80633026785f11610166578063466a014611610140578063466a0146146102e2578063570810e2146102f55780635c975abb146103085780636a7d3cf81461031357600080fd5b80633026785f1461029957806336568abe146102c75780633f4ba83a146102da57600080fd5b80631656e83b116101a25780631656e83b146102295780631bc6ae8a1461023c578063248a9ca3146102635780632f2ff15d1461028657600080fd5b806301ffc9a7146101c95780630ae5e739146101f15780631311916114610206575b600080fd5b6101dc6101d7366004611a3e565b61048d565b60405190151581526020015b60405180910390f35b6102046101ff366004611a84565b6104c4565b005b61021b60008051602061210e83398151915281565b6040519081526020016101e8565b610204610237366004611b42565b6105ad565b61021b7fd8c0b0264fb5d225f4ba2fb92454d9f4f912be4d27b355562e6ae90ce2f5e74b81565b61021b610271366004611ba6565b60009081526020819052604090206001015490565b610204610294366004611bbf565b610775565b6101dc6102a7366004611beb565b805160208183018101805160098252928201919093012091525460ff1681565b6102046102d5366004611bbf565b61079a565b610204610814565b6101dc6102f0366004611a84565b610837565b610204610303366004611beb565b610892565b60015460ff166101dc565b610204610321366004611c28565b6109a8565b61021b60008051602061212e83398151915281565b6003546004546005546006546103549392919060ff1684565b60408051948552602085019390935291830152151560608201526080016101e8565b610389610384366004611a84565b610a46565b6040516101e896959493929190611ce9565b610204610b12565b6101dc6103b1366004611bbf565b610b32565b6103c96103c4366004611beb565b610b5b565b6040516101e896959493929190611d2e565b6102046103e9366004611d87565b610cc1565b61021b600081565b610204610404366004611beb565b610f58565b610204610417366004611beb565b6110f7565b61042f61042a366004611beb565b6112d6565b6040516101e8959493929190611dcb565b61020461044e366004611bbf565b6113d2565b61021b60008051602061214e83398151915281565b61047b610476366004611a84565b6113f7565b6040516101e896959493929190611e11565b60006001600160e01b03198216637965db0b60e01b14806104be57506301ffc9a760e01b6001600160e01b03198316145b92915050565b7fd8c0b0264fb5d225f4ba2fb92454d9f4f912be4d27b355562e6ae90ce2f5e74b6104ee816115c8565b6104f66115d2565b6104fe61161a565b6001600160a01b038216600090815260076020526040902060010154600160a01b900460ff166105695760405162461bcd60e51b8152602060048201526011602482015270155cd95c881b9bdd081d995c9a599a5959607a1b60448201526064015b60405180910390fd5b60405133906001600160a01b038416907f9f520b3bfc56d06f7065d10b4683b3f57ac8895d5026cd176dee95ce1454cb8d90600090a36105a96001600255565b5050565b60008051602061214e8339815191526105c5816115c8565b6105cd6115d2565b6105d561161a565b60006008846040516105e79190611ea1565b908152604051908190036020019020600481015490915060ff1661064d5760405162461bcd60e51b815260206004820152601f60248201527f4e6f2070656e64696e6720766572696669636174696f6e2072657175657374006044820152606401610560565b60018101546001600160a01b031633146106b85760405162461bcd60e51b815260206004820152602660248201527f4e6f7420617574686f72697a656420746f2072656a656374207468697320646f60448201526518dd5b595b9d60d21b6064820152608401610560565b80546001600160a01b0316600090815260076020526040812060048101805491926106e283611ed3565b909155505042600382015560048201805460ff19169055600582016107078582611f6e565b50846040516107169190611ea1565b604051908190038120835490916001600160a01b03909116907f39776e52bd7f6e327398e24997f75c69b2fd05def0e44bd34aba9f50a023c2809061075c90889061202e565b60405180910390a350506107706001600255565b505050565b600082815260208190526040902060010154610790816115c8565b6107708383611671565b6001600160a01b038116331461080a5760405162461bcd60e51b815260206004820152602f60248201527f416363657373436f6e74726f6c3a2063616e206f6e6c792072656e6f756e636560448201526e103937b632b9903337b91039b2b63360891b6064820152608401610560565b6105a982826116f5565b60008051602061212e83398151915261082c816115c8565b61083461175a565b50565b60007fd8c0b0264fb5d225f4ba2fb92454d9f4f912be4d27b355562e6ae90ce2f5e74b610863816115c8565b6001600160a01b038316600090815260076020526040902060010154600160a01b900460ff1691505b50919050565b60008051602061210e8339815191526108aa816115c8565b6108b26115d2565b6108ba61161a565b60065460ff1615806108dc575033600090815260076020526040902060020154155b6109215760405162461bcd60e51b8152602060048201526016602482015275155cd95c88185b1c9958591e481a185cc8184811125160521b6044820152606401610560565b3360009081526007602052604090208061093b8482611f6e565b506001810180546001600160a01b031916331790554260028201819055600382015560405161096b908490611ea1565b6040519081900381209033907fbfab59a7af78dfc896c3096604749fcee2db2e850297de42de5e6369f54bd3fb90600090a3506105a96001600255565b60008051602061212e8339815191526109c0816115c8565b6109c86115d2565b815160038190556020808401805160045560408086018051600555606080880180516006805460ff191691151591909117905583519687529351948601949094525190840152511515908201527fbb636cf7d0069004069f64dc46a53f815f9a95383e12427d24776a8b3e4508029060800160405180910390a15050565b600760205260009081526040902080548190610a6190611eec565b80601f0160208091040260200160405190810160405280929190818152602001828054610a8d90611eec565b8015610ada5780601f10610aaf57610100808354040283529160200191610ada565b820191906000526020600020905b815481529060010190602001808311610abd57829003601f168201915b5050505060018301546002840154600385015460049095015493946001600160a01b03831694600160a01b90930460ff169350909186565b60008051602061212e833981519152610b2a816115c8565b6108346117ac565b6000918252602082815260408084206001600160a01b0393909316845291905290205460ff1690565b8051808201602090810180516008825292820191909301209152805460018201546002830180546001600160a01b03938416949290931692610b9c90611eec565b80601f0160208091040260200160405190810160405280929190818152602001828054610bc890611eec565b8015610c155780601f10610bea57610100808354040283529160200191610c15565b820191906000526020600020905b815481529060010190602001808311610bf857829003601f168201915b50505050600383015460048401546005850180549495929460ff909216935090610c3e90611eec565b80601f0160208091040260200160405190810160405280929190818152602001828054610c6a90611eec565b8015610cb75780601f10610c8c57610100808354040283529160200191610cb7565b820191906000526020600020905b815481529060010190602001808311610c9a57829003601f168201915b5050505050905086565b60008051602061210e833981519152610cd9816115c8565b610ce16115d2565b610ce961161a565b610d0160008051602061214e83398151915284610b32565b610d405760405162461bcd60e51b815260206004820152601060248201526f24b73b30b634b2103b32b934b334b2b960811b6044820152606401610560565b600982604051610d509190611ea1565b9081526040519081900360200190205460ff16610daf5760405162461bcd60e51b815260206004820152601760248201527f446f63756d656e7420646f6573206e6f742065786973740000000000000000006044820152606401610560565b600882604051610dbf9190611ea1565b9081526040519081900360200190206004015460ff1615610e225760405162461bcd60e51b815260206004820152601e60248201527f566572696669636174696f6e20616c72656164792072657175657374656400006044820152606401610560565b336000908152600760205260409020600554600482015410610e905760405162461bcd60e51b815260206004820152602160248201527f4d617820766572696669636174696f6e20617474656d707473207265616368656044820152601960fa1b6064820152608401610560565b6000600884604051610ea29190611ea1565b90815260405190819003602001902080546001600160a01b0319908116331782556001820180546001600160a01b0389169216919091179055905060028101610eeb8582611f6e565b5042600382015560048101805460ff19166001179055604051610f0f908590611ea1565b604051908190038120906001600160a01b0387169033907f137558ce28e758be220ac60770291585795a71bf3184a3465da419e32a1a057190600090a450506107706001600255565b60008051602061210e833981519152610f70816115c8565b610f786115d2565b610f8061161a565b33600090815260076020526040902060020154610fd45760405162461bcd60e51b8152602060048201526012602482015271111251081b9bdd081c9959da5cdd195c995960721b6044820152606401610560565b600982604051610fe49190611ea1565b9081526040519081900360200190205460ff16156110445760405162461bcd60e51b815260206004820152601760248201527f446f63756d656e7420616c7265616479206578697374730000000000000000006044820152606401610560565b336000908152600760209081526040822060058101805460018101825590845291909220016110738482611f6e565b5042600382015560405160019060099061108e908690611ea1565b908152604051908190036020018120805492151560ff19909316929092179091556110ba908490611ea1565b6040519081900381209033907f124f4a6ee6006b9a10fcac9a51b1910a96b2e528b241f3c1b0a5ca12ab86018390600090a3506105a96001600255565b60008051602061214e83398151915261110f816115c8565b6111176115d2565b61111f61161a565b60006008836040516111319190611ea1565b908152604051908190036020019020600481015490915060ff166111975760405162461bcd60e51b815260206004820152601f60248201527f4e6f2070656e64696e6720766572696669636174696f6e2072657175657374006044820152606401610560565b60018101546001600160a01b031633146112025760405162461bcd60e51b815260206004820152602660248201527f4e6f7420617574686f72697a656420746f20766572696679207468697320646f60448201526518dd5b595b9d60d21b6064820152608401610560565b80546001600160a01b03166000908152600760205260409081902090516001906006830190611232908790611ea1565b908152604051908190036020019020805491151560ff1990921691909117905560048101805490600061126483611ed3565b909155505042600382015560048201805460ff19169055604051339061128b908690611ea1565b604051908190038120845490916001600160a01b03909116907f9fc7bb413bea44bff90587a21228ee62faf32ad0c4e603230c62ead4911841b190600090a450506105a96001600255565b600080600080606060006008876040516112f09190611ea1565b90815260405190819003602001902080546001820154600383015460048401546005850180549596506001600160a01b03948516959390941693919260ff9091169190819061133e90611eec565b80601f016020809104026020016040519081016040528092919081815260200182805461136a90611eec565b80156113b75780601f1061138c576101008083540402835291602001916113b7565b820191906000526020600020905b81548152906001019060200180831161139a57829003601f168201915b50505050509050955095509550955095505091939590929450565b6000828152602081905260409020600101546113ed816115c8565b61077083836116f5565b60606000806000806060600060076000896001600160a01b03166001600160a01b031681526020019081526020016000209050806000018160010160149054906101000a900460ff168260020154836003015484600401548560050185805461145f90611eec565b80601f016020809104026020016040519081016040528092919081815260200182805461148b90611eec565b80156114d85780601f106114ad576101008083540402835291602001916114d8565b820191906000526020600020905b8154815290600101906020018083116114bb57829003601f168201915b5050505050955080805480602002602001604051908101604052809291908181526020016000905b828210156115ac57838290600052602060002001805461151f90611eec565b80601f016020809104026020016040519081016040528092919081815260200182805461154b90611eec565b80156115985780601f1061156d57610100808354040283529160200191611598565b820191906000526020600020905b81548152906001019060200180831161157b57829003601f168201915b505050505081526020019060010190611500565b5050505090509650965096509650965096505091939550919395565b61083481336117e7565b60015460ff16156116185760405162461bcd60e51b815260206004820152601060248201526f14185d5cd8589b194e881c185d5cd95960821b6044820152606401610560565b565b600280540361166b5760405162461bcd60e51b815260206004820152601f60248201527f5265656e7472616e637947756172643a207265656e7472616e742063616c6c006044820152606401610560565b60028055565b61167b8282610b32565b6105a9576000828152602081815260408083206001600160a01b03851684529091529020805460ff191660011790556116b13390565b6001600160a01b0316816001600160a01b0316837f2f8788117e7eff1d82e926ec794901d17c78024a50270940304540a733656f0d60405160405180910390a45050565b6116ff8282610b32565b156105a9576000828152602081815260408083206001600160a01b0385168085529252808320805460ff1916905551339285917ff6391f5c32d9c69d2a47ea670b442974b53935d1edc7fd64eb21e047a839171b9190a45050565b611762611840565b6001805460ff191690557f5db9ee0a495bf2e6ff9c91a7834c1ba4fdd244a5e8aa4e537bd38aeae4b073aa335b6040516001600160a01b03909116815260200160405180910390a1565b6117b46115d2565b6001805460ff1916811790557f62e78cea01bee320cd4e420270b5ea74000d11b0c9f74754ebdbfc544b05a2583361178f565b6117f18282610b32565b6105a9576117fe81611889565b61180983602061189b565b60405160200161181a929190612041565b60408051601f198184030181529082905262461bcd60e51b82526105609160040161202e565b60015460ff166116185760405162461bcd60e51b815260206004820152601460248201527314185d5cd8589b194e881b9bdd081c185d5cd95960621b6044820152606401610560565b60606104be6001600160a01b03831660145b606060006118aa8360026120b6565b6118b59060026120cd565b67ffffffffffffffff8111156118cd576118cd611a9f565b6040519080825280601f01601f1916602001820160405280156118f7576020820181803683370190505b509050600360fc1b81600081518110611912576119126120e0565b60200101906001600160f81b031916908160001a905350600f60fb1b81600181518110611941576119416120e0565b60200101906001600160f81b031916908160001a90535060006119658460026120b6565b6119709060016120cd565b90505b60018111156119e8576f181899199a1a9b1b9c1cb0b131b232b360811b85600f16601081106119a4576119a46120e0565b1a60f81b8282815181106119ba576119ba6120e0565b60200101906001600160f81b031916908160001a90535060049490941c936119e1816120f6565b9050611973565b508315611a375760405162461bcd60e51b815260206004820181905260248201527f537472696e67733a20686578206c656e67746820696e73756666696369656e746044820152606401610560565b9392505050565b600060208284031215611a5057600080fd5b81356001600160e01b031981168114611a3757600080fd5b80356001600160a01b0381168114611a7f57600080fd5b919050565b600060208284031215611a9657600080fd5b611a3782611a68565b634e487b7160e01b600052604160045260246000fd5b600082601f830112611ac657600080fd5b813567ffffffffffffffff80821115611ae157611ae1611a9f565b604051601f8301601f19908116603f01168101908282118183101715611b0957611b09611a9f565b81604052838152866020858801011115611b2257600080fd5b836020870160208301376000602085830101528094505050505092915050565b60008060408385031215611b5557600080fd5b823567ffffffffffffffff80821115611b6d57600080fd5b611b7986838701611ab5565b93506020850135915080821115611b8f57600080fd5b50611b9c85828601611ab5565b9150509250929050565b600060208284031215611bb857600080fd5b5035919050565b60008060408385031215611bd257600080fd5b82359150611be260208401611a68565b90509250929050565b600060208284031215611bfd57600080fd5b813567ffffffffffffffff811115611c1457600080fd5b611c2084828501611ab5565b949350505050565b600060808284031215611c3a57600080fd5b6040516080810181811067ffffffffffffffff82111715611c5d57611c5d611a9f565b806040525082358152602083013560208201526040830135604082015260608301358015158114611c8d57600080fd5b60608201529392505050565b60005b83811015611cb4578181015183820152602001611c9c565b50506000910152565b60008151808452611cd5816020860160208601611c99565b601f01601f19169290920160200192915050565b60c081526000611cfc60c0830189611cbd565b6001600160a01b039790971660208301525093151560408501526060840192909252608083015260a090910152919050565b6001600160a01b0387811682528616602082015260c060408201819052600090611d5a90830187611cbd565b856060840152841515608084015282810360a0840152611d7a8185611cbd565b9998505050505050505050565b60008060408385031215611d9a57600080fd5b611da383611a68565b9150602083013567ffffffffffffffff811115611dbf57600080fd5b611b9c85828601611ab5565b6001600160a01b0386811682528516602082015260408101849052821515606082015260a060808201819052600090611e0690830184611cbd565b979650505050505050565b60c081526000611e2460c0830189611cbd565b60208815158185015287604085015286606085015285608085015283820360a08501528185518084528284019150828160051b85010183880160005b83811015611e8e57601f19878403018552611e7c838351611cbd565b94860194925090850190600101611e60565b50909d9c50505050505050505050505050565b60008251611eb3818460208701611c99565b9190910192915050565b634e487b7160e01b600052601160045260246000fd5b600060018201611ee557611ee5611ebd565b5060010190565b600181811c90821680611f0057607f821691505b60208210810361088c57634e487b7160e01b600052602260045260246000fd5b601f82111561077057600081815260208120601f850160051c81016020861015611f475750805b601f850160051c820191505b81811015611f6657828155600101611f53565b505050505050565b815167ffffffffffffffff811115611f8857611f88611a9f565b611f9c81611f968454611eec565b84611f20565b602080601f831160018114611fd15760008415611fb95750858301515b600019600386901b1c1916600185901b178555611f66565b600085815260208120601f198616915b8281101561200057888601518255948401946001909101908401611fe1565b508582101561201e5787850151600019600388901b60f8161c191681555b5050505050600190811b01905550565b602081526000611a376020830184611cbd565b7f416363657373436f6e74726f6c3a206163636f756e7420000000000000000000815260008351612079816017850160208801611c99565b7001034b99036b4b9b9b4b733903937b6329607d1b60179184019182015283516120aa816028840160208801611c99565b01602801949350505050565b80820281158282048414176104be576104be611ebd565b808201808211156104be576104be611ebd565b634e487b7160e01b600052603260045260246000fd5b60008161210557612105611ebd565b50600019019056fe14823911f2da1b49f045a0929a60b8c1f2a7fc8c06c7284ca3e8ab4e193a08c8a49807205ce4d355092ef5a8a18f56e8913cf4a201fbe287825b095693c217750ce23c3e399818cfee81a7ab0880f714e53d7672b08df0fa62f2843416e1ea09a264697066735822122001680c197d730dd6bc20756939d0e73a87792862ff51945e1c010179996dac2f64736f6c63430008130033",
  "linkReferences": {},
  "deployedLinkReferences": {}
}