{
  "_format": "hh-sol-artifact-1",
  "contractName": "DriversLicenseDID",
  "sourceName": "contracts/DriversLicenseDID.sol",
  "abi": [
    {
      "anonymous": false,
      "inputs": [
        {
          "indexed": true,
          "internalType": "address",
          "name": "to",
          "type": "address"
        },
        {
          "indexed": false,
          "internalType": "string",
          "name": "attribute",
          "type": "string"
        }
      ],
      "name": "AccessGranted",
      "type": "event"
    },
    {
      "anonymous": false,
      "inputs": [
        {
          "indexed": true,
          "internalType": "address",
          "name": "to",
          "type": "address"
        },
        {
          "indexed": false,
          "internalType": "string",
          "name": "attribute",
          "type": "string"
        }
      ],
      "name": "AccessRevoked",
      "type": "event"
    },
    {
      "anonymous": false,
      "inputs": [
        {
          "indexed": false,
          "internalType": "string",
          "name": "name",
          "type": "string"
        },
        {
          "indexed": false,
          "internalType": "string",
          "name": "value",
          "type": "string"
        }
      ],
      "name": "AttributeAdded",
      "type": "event"
    },
    {
      "anonymous": false,
      "inputs": [
        {
          "indexed": false,
          "internalType": "string",
          "name": "name",
          "type": "string"
        }
      ],
      "name": "AttributeRemoved",
      "type": "event"
    },
    {
      "anonymous": false,
      "inputs": [
        {
          "indexed": false,
          "internalType": "string",
          "name": "name",
          "type": "string"
        },
        {
          "indexed": true,
          "internalType": "address",
          "name": "verifier",
          "type": "address"
        }
      ],
      "name": "AttributeVerified",
      "type": "event"
    },
    {
      "anonymous": false,
      "inputs": [
        {
          "indexed": false,
          "internalType": "string",
          "name": "identifier",
          "type": "string"
        },
        {
          "indexed": true,
          "internalType": "address",
          "name": "owner",
          "type": "address"
        }
      ],
      "name": "DIDCreated",
      "type": "event"
    },
    {
      "anonymous": false,
      "inputs": [
        {
          "indexed": false,
          "internalType": "string",
          "name": "identifier",
          "type": "string"
        }
      ],
      "name": "DIDDeactivated",
      "type": "event"
    },
    {
      "anonymous": false,
      "inputs": [
        {
          "indexed": false,
          "internalType": "string",
          "name": "identifier",
          "type": "string"
        },
        {
          "indexed": false,
          "internalType": "string",
          "name": "reason",
          "type": "string"
        }
      ],
      "name": "DIDRevoked",
      "type": "event"
    },
    {
      "anonymous": false,
      "inputs": [
        {
          "indexed": true,
          "internalType": "address",
          "name": "owner",
          "type": "address"
        },
        {
          "indexed": false,
          "internalType": "string",
          "name": "identifier",
          "type": "string"
        },
        {
          "indexed": false,
          "internalType": "string",
          "name": "licenseNumber",
          "type": "string"
        }
      ],
      "name": "DriversLicenseCreated",
      "type": "event"
    },
    {
      "anonymous": false,
      "inputs": [
        {
          "indexed": true,
          "internalType": "address",
          "name": "previousOwner",
          "type": "address"
        },
        {
          "indexed": true,
          "internalType": "address",
          "name": "newOwner",
          "type": "address"
        }
      ],
      "name": "OwnershipTransferred",
      "type": "event"
    },
    {
      "anonymous": false,
      "inputs": [
        {
          "indexed": false,
          "internalType": "address",
          "name": "account",
          "type": "address"
        }
      ],
      "name": "Paused",
      "type": "event"
    },
    {
      "anonymous": false,
      "inputs": [
        {
          "indexed": false,
          "internalType": "address",
          "name": "account",
          "type": "address"
        }
      ],
      "name": "Unpaused",
      "type": "event"
    },
    {
      "inputs": [],
      "name": "MAX_ATTRIBUTES",
      "outputs": [
        {
          "internalType": "uint256",
          "name": "",
          "type": "uint256"
        }
      ],
      "stateMutability": "view",
      "type": "function"
    },
    {
      "inputs": [],
      "name": "MAX_ATTRIBUTE_LENGTH",
      "outputs": [
        {
          "internalType": "uint256",
          "name": "",
          "type": "uint256"
        }
      ],
      "stateMutability": "view",
      "type": "function"
    },
    {
      "inputs": [],
      "name": "MAX_IDENTIFIER_LENGTH",
      "outputs": [
        {
          "internalType": "uint256",
          "name": "",
          "type": "uint256"
        }
      ],
      "stateMutability": "view",
      "type": "function"
    },
    {
      "inputs": [
        {
          "internalType": "string",
          "name": "name",
          "type": "string"
        },
        {
          "internalType": "string",
          "name": "value",
          "type": "string"
        }
      ],
      "name": "addAttribute",
      "outputs": [
        {
          "internalType": "bool",
          "name": "",
          "type": "bool"
        }
      ],
      "stateMutability": "nonpayable",
      "type": "function"
    },
    {
      "inputs": [
        {
          "internalType": "string",
          "name": "",
          "type": "string"
        }
      ],
      "name": "attributes",
      "outputs": [
        {
          "internalType": "string",
          "name": "value",
          "type": "string"
        },
        {
          "internalType": "uint256",
          "name": "timestamp",
          "type": "uint256"
        },
        {
          "internalType": "bool",
          "name": "isVerified",
          "type": "bool"
        },
        {
          "internalType": "address",
          "name": "verifiedBy",
          "type": "address"
        }
      ],
      "stateMutability": "view",
      "type": "function"
    },
    {
      "inputs": [
        {
          "internalType": "address",
          "name": "",
          "type": "address"
        },
        {
          "internalType": "string",
          "name": "",
          "type": "string"
        }
      ],
      "name": "authorizedAccess",
      "outputs": [
        {
          "internalType": "bool",
          "name": "",
          "type": "bool"
        }
      ],
      "stateMutability": "view",
      "type": "function"
    },
    {
      "inputs": [
        {
          "internalType": "string",
          "name": "identifier",
          "type": "string"
        }
      ],
      "name": "createDID",
      "outputs": [
        {
          "internalType": "bool",
          "name": "",
          "type": "bool"
        }
      ],
      "stateMutability": "nonpayable",
      "type": "function"
    },
    {
      "inputs": [
        {
          "internalType": "string",
          "name": "identifier",
          "type": "string"
        },
        {
          "internalType": "string",
          "name": "name",
          "type": "string"
        },
        {
          "internalType": "string",
          "name": "dateOfBirth",
          "type": "string"
        },
        {
          "internalType": "string",
          "name": "gender",
          "type": "string"
        },
        {
          "internalType": "string",
          "name": "addr",
          "type": "string"
        },
        {
          "internalType": "string",
          "name": "photoHash",
          "type": "string"
        },
        {
          "internalType": "string",
          "name": "signatureHash",
          "type": "string"
        },
        {
          "internalType": "string",
          "name": "licenseNumber",
          "type": "string"
        },
        {
          "internalType": "string",
          "name": "vehicleClass",
          "type": "string"
        },
        {
          "internalType": "string",
          "name": "issueDate",
          "type": "string"
        },
        {
          "internalType": "string",
          "name": "expiryDate",
          "type": "string"
        },
        {
          "internalType": "string",
          "name": "bloodGroup",
          "type": "string"
        },
        {
          "internalType": "string",
          "name": "emergencyContact",
          "type": "string"
        }
      ],
      "name": "createDriversLicenseDID",
      "outputs": [],
      "stateMutability": "nonpayable",
      "type": "function"
    },
    {
      "inputs": [],
      "name": "deactivateDID",
      "outputs": [
        {
          "internalType": "bool",
          "name": "",
          "type": "bool"
        }
      ],
      "stateMutability": "nonpayable",
      "type": "function"
    },
    {
      "inputs": [
        {
          "internalType": "string",
          "name": "name",
          "type": "string"
        }
      ],
      "name": "getAttribute",
      "outputs": [
        {
          "internalType": "string",
          "name": "",
          "type": "string"
        }
      ],
      "stateMutability": "view",
      "type": "function"
    },
    {
      "inputs": [],
      "name": "getAttributeCount",
      "outputs": [
        {
          "internalType": "uint256",
          "name": "",
          "type": "uint256"
        }
      ],
      "stateMutability": "view",
      "type": "function"
    },
    {
      "inputs": [
        {
          "internalType": "string",
          "name": "name",
          "type": "string"
        }
      ],
      "name": "getAttributeDetails",
      "outputs": [
        {
          "internalType": "string",
          "name": "value",
          "type": "string"
        },
        {
          "internalType": "uint256",
          "name": "timestamp",
          "type": "uint256"
        },
        {
          "internalType": "bool",
          "name": "isVerified",
          "type": "bool"
        },
        {
          "internalType": "address",
          "name": "verifiedBy",
          "type": "address"
        }
      ],
      "stateMutability": "view",
      "type": "function"
    },
    {
      "inputs": [],
      "name": "getDIDDetails",
      "outputs": [
        {
          "internalType": "string",
          "name": "identifier",
          "type": "string"
        },
        {
          "internalType": "bool",
          "name": "active",
          "type": "bool"
        },
        {
          "internalType": "uint256",
          "name": "createdAt",
          "type": "uint256"
        },
        {
          "internalType": "uint256",
          "name": "updatedAt",
          "type": "uint256"
        },
        {
          "internalType": "bool",
          "name": "isRevoked",
          "type": "bool"
        },
        {
          "internalType": "string",
          "name": "revocationReason",
          "type": "string"
        }
      ],
      "stateMutability": "view",
      "type": "function"
    },
    {
      "inputs": [
        {
          "internalType": "address",
          "name": "owner",
          "type": "address"
        },
        {
          "internalType": "uint256",
          "name": "didIndex",
          "type": "uint256"
        },
        {
          "internalType": "string",
          "name": "attribute",
          "type": "string"
        }
      ],
      "name": "getDriversLicenseAttribute",
      "outputs": [
        {
          "internalType": "string",
          "name": "",
          "type": "string"
        }
      ],
      "stateMutability": "view",
      "type": "function"
    },
    {
      "inputs": [
        {
          "internalType": "address",
          "name": "owner",
          "type": "address"
        },
        {
          "internalType": "uint256",
          "name": "didIndex",
          "type": "uint256"
        }
      ],
      "name": "getDriversLicenseDetails",
      "outputs": [
        {
          "internalType": "string",
          "name": "identifier",
          "type": "string"
        },
        {
          "internalType": "string",
          "name": "name",
          "type": "string"
        },
        {
          "internalType": "string",
          "name": "dateOfBirth",
          "type": "string"
        },
        {
          "internalType": "string",
          "name": "gender",
          "type": "string"
        },
        {
          "internalType": "string",
          "name": "addr",
          "type": "string"
        },
        {
          "internalType": "string",
          "name": "photoHash",
          "type": "string"
        },
        {
          "internalType": "string",
          "name": "signatureHash",
          "type": "string"
        },
        {
          "internalType": "string",
          "name": "licenseNumber",
          "type": "string"
        },
        {
          "internalType": "string",
          "name": "vehicleClass",
          "type": "string"
        },
        {
          "internalType": "string",
          "name": "issueDate",
          "type": "string"
        },
        {
          "internalType": "string",
          "name": "expiryDate",
          "type": "string"
        },
        {
          "internalType": "string",
          "name": "bloodGroup",
          "type": "string"
        },
        {
          "internalType": "string",
          "name": "emergencyContact",
          "type": "string"
        },
        {
          "internalType": "bool",
          "name": "active",
          "type": "bool"
        },
        {
          "internalType": "uint256",
          "name": "createdAt",
          "type": "uint256"
        },
        {
          "internalType": "uint256",
          "name": "updatedAt",
          "type": "uint256"
        }
      ],
      "stateMutability": "view",
      "type": "function"
    },
    {
      "inputs": [
        {
          "internalType": "uint256",
          "name": "didIndex",
          "type": "uint256"
        },
        {
          "internalType": "address",
          "name": "to",
          "type": "address"
        },
        {
          "internalType": "string",
          "name": "attribute",
          "type": "string"
        }
      ],
      "name": "grantAccess",
      "outputs": [
        {
          "internalType": "bool",
          "name": "",
          "type": "bool"
        }
      ],
      "stateMutability": "nonpayable",
      "type": "function"
    },
    {
      "inputs": [
        {
          "internalType": "address",
          "name": "owner",
          "type": "address"
        },
        {
          "internalType": "uint256",
          "name": "didIndex",
          "type": "uint256"
        },
        {
          "internalType": "address",
          "name": "accessor",
          "type": "address"
        },
        {
          "internalType": "string",
          "name": "attribute",
          "type": "string"
        }
      ],
      "name": "hasAccess",
      "outputs": [
        {
          "internalType": "bool",
          "name": "",
          "type": "bool"
        }
      ],
      "stateMutability": "view",
      "type": "function"
    },
    {
      "inputs": [
        {
          "internalType": "uint256",
          "name": "",
          "type": "uint256"
        }
      ],
      "name": "licenseDetails",
      "outputs": [
        {
          "internalType": "string",
          "name": "name",
          "type": "string"
        },
        {
          "internalType": "string",
          "name": "dateOfBirth",
          "type": "string"
        },
        {
          "internalType": "string",
          "name": "gender",
          "type": "string"
        },
        {
          "internalType": "string",
          "name": "addr",
          "type": "string"
        },
        {
          "internalType": "string",
          "name": "photoHash",
          "type": "string"
        },
        {
          "internalType": "string",
          "name": "signatureHash",
          "type": "string"
        },
        {
          "internalType": "string",
          "name": "licenseNumber",
          "type": "string"
        },
        {
          "internalType": "string",
          "name": "vehicleClass",
          "type": "string"
        },
        {
          "internalType": "string",
          "name": "issueDate",
          "type": "string"
        },
        {
          "internalType": "string",
          "name": "expiryDate",
          "type": "string"
        },
        {
          "internalType": "string",
          "name": "bloodGroup",
          "type": "string"
        },
        {
          "internalType": "string",
          "name": "emergencyContact",
          "type": "string"
        }
      ],
      "stateMutability": "view",
      "type": "function"
    },
    {
      "inputs": [],
      "name": "owner",
      "outputs": [
        {
          "internalType": "address",
          "name": "",
          "type": "address"
        }
      ],
      "stateMutability": "view",
      "type": "function"
    },
    {
      "inputs": [],
      "name": "pause",
      "outputs": [],
      "stateMutability": "nonpayable",
      "type": "function"
    },
    {
      "inputs": [],
      "name": "paused",
      "outputs": [
        {
          "internalType": "bool",
          "name": "",
          "type": "bool"
        }
      ],
      "stateMutability": "view",
      "type": "function"
    },
    {
      "inputs": [
        {
          "internalType": "string",
          "name": "name",
          "type": "string"
        }
      ],
      "name": "removeAttribute",
      "outputs": [
        {
          "internalType": "bool",
          "name": "",
          "type": "bool"
        }
      ],
      "stateMutability": "nonpayable",
      "type": "function"
    },
    {
      "inputs": [],
      "name": "renounceOwnership",
      "outputs": [],
      "stateMutability": "nonpayable",
      "type": "function"
    },
    {
      "inputs": [
        {
          "internalType": "address",
          "name": "from",
          "type": "address"
        },
        {
          "internalType": "string",
          "name": "attribute",
          "type": "string"
        }
      ],
      "name": "revokeAccess",
      "outputs": [
        {
          "internalType": "bool",
          "name": "",
          "type": "bool"
        }
      ],
      "stateMutability": "nonpayable",
      "type": "function"
    },
    {
      "inputs": [
        {
          "internalType": "string",
          "name": "reason",
          "type": "string"
        }
      ],
      "name": "revokeDID",
      "outputs": [
        {
          "internalType": "bool",
          "name": "",
          "type": "bool"
        }
      ],
      "stateMutability": "nonpayable",
      "type": "function"
    },
    {
      "inputs": [],
      "name": "selfDID",
      "outputs": [
        {
          "internalType": "string",
          "name": "identifier",
          "type": "string"
        },
        {
          "internalType": "bool",
          "name": "active",
          "type": "bool"
        },
        {
          "internalType": "uint256",
          "name": "createdAt",
          "type": "uint256"
        },
        {
          "internalType": "uint256",
          "name": "updatedAt",
          "type": "uint256"
        },
        {
          "internalType": "bool",
          "name": "isRevoked",
          "type": "bool"
        },
        {
          "internalType": "string",
          "name": "revocationReason",
          "type": "string"
        }
      ],
      "stateMutability": "view",
      "type": "function"
    },
    {
      "inputs": [
        {
          "internalType": "string",
          "name": "",
          "type": "string"
        }
      ],
      "name": "supportedIDTypes",
      "outputs": [
        {
          "internalType": "bool",
          "name": "",
          "type": "bool"
        }
      ],
      "stateMutability": "view",
      "type": "function"
    },
    {
      "inputs": [
        {
          "internalType": "address",
          "name": "newOwner",
          "type": "address"
        }
      ],
      "name": "transferOwnership",
      "outputs": [],
      "stateMutability": "nonpayable",
      "type": "function"
    },
    {
      "inputs": [],
      "name": "unpause",
      "outputs": [],
      "stateMutability": "nonpayable",
      "type": "function"
    },
    {
      "inputs": [
        {
          "internalType": "uint256",
          "name": "didIndex",
          "type": "uint256"
        },
        {
          "internalType": "string",
          "name": "name",
          "type": "string"
        },
        {
          "internalType": "string",
          "name": "dateOfBirth",
          "type": "string"
        },
        {
          "internalType": "string",
          "name": "gender",
          "type": "string"
        },
        {
          "internalType": "string",
          "name": "addr",
          "type": "string"
        },
        {
          "internalType": "string",
          "name": "photoHash",
          "type": "string"
        },
        {
          "internalType": "string",
          "name": "signatureHash",
          "type": "string"
        },
        {
          "internalType": "string",
          "name": "licenseNumber",
          "type": "string"
        },
        {
          "internalType": "string",
          "name": "vehicleClass",
          "type": "string"
        },
        {
          "internalType": "string",
          "name": "issueDate",
          "type": "string"
        },
        {
          "internalType": "string",
          "name": "expiryDate",
          "type": "string"
        },
        {
          "internalType": "string",
          "name": "bloodGroup",
          "type": "string"
        },
        {
          "internalType": "string",
          "name": "emergencyContact",
          "type": "string"
        }
      ],
      "name": "updateDriversLicenseDetails",
      "outputs": [],
      "stateMutability": "nonpayable",
      "type": "function"
    },
    {
      "inputs": [
        {
          "internalType": "address",
          "name": "",
          "type": "address"
        },
        {
          "internalType": "uint256",
          "name": "",
          "type": "uint256"
        }
      ],
      "name": "userDIDs",
      "outputs": [
        {
          "internalType": "string",
          "name": "identifier",
          "type": "string"
        },
        {
          "internalType": "bool",
          "name": "active",
          "type": "bool"
        },
        {
          "internalType": "uint256",
          "name": "createdAt",
          "type": "uint256"
        },
        {
          "internalType": "uint256",
          "name": "updatedAt",
          "type": "uint256"
        },
        {
          "internalType": "bool",
          "name": "isRevoked",
          "type": "bool"
        },
        {
          "internalType": "string",
          "name": "revocationReason",
          "type": "string"
        }
      ],
      "stateMutability": "view",
      "type": "function"
    },
    {
      "inputs": [
        {
          "internalType": "string",
          "name": "name",
          "type": "string"
        },
        {
          "internalType": "address",
          "name": "verifier",
          "type": "address"
        }
      ],
      "name": "verifyAttribute",
      "outputs": [
        {
          "internalType": "bool",
          "name": "",
          "type": "bool"
        }
      ],
      "stateMutability": "nonpayable",
      "type": "function"
    }
  ],
  "bytecode": "0x6080806040523461007c5760008054336001600160a01b0319821681178355916001600160a01b03909116907f8be0079c531659141344cd1fd0a4f28419497f9722a3daafe3b4186f6b6457e09080a360018055600160ff198060025416600255426005554260065560045416176004556149c190816100828239f35b600080fdfe60a0604052600436101561001257600080fd5b60003560e01c80630b42f3fd1461399f5780632ba56834146135b25780633457d3e21461357857806337714208146133eb5780633aa1b5ca146133cf5780633f4ba83a1461333b57806345e8846f146131855780634b9802f8146131685780635c975abb146131455780636a44cac9146130905780636aab3cef14613003578063715018a614612faa578063767bc20e14612ecf5780638456cb5914612e755780638c15f62d14612e365780638da5cb5b14612e0d5780638e0495e514612a70578063967a455f14612a155780639bc3a00014612987578063a9595ffb14612940578063c93ead1b14612922578063cfe3b347146126bd578063d1af14cf146117e4578063e3725def146116fa578063e4a94adc14611697578063e57be95a1461067f578063e841382f14610622578063e8a51fca1461051d578063ec031910146102cd578063f2fde38b14610204578063f3d310bf146101e85763fb99d0071461017c57600080fd5b346101e35760803660031901126101e357610195613b15565b604435906001600160a01b03821682036101e357606435906001600160401b0382116101e3576020926101cf6101d9933690600401613a60565b91602435906144ba565b6040519015158152f35b600080fd5b346101e35760003660031901126101e357602060405160648152f35b346101e35760203660031901126101e35761021d613b15565b610225613e35565b6001600160a01b0390811690811561027957600054826bffffffffffffffffffffffff60a01b821617600055167f8be0079c531659141344cd1fd0a4f28419497f9722a3daafe3b4186f6b6457e0600080a3005b60405162461bcd60e51b815260206004820152602660248201527f4f776e61626c653a206e6577206f776e657220697320746865207a65726f206160448201526564647265737360d01b6064820152608490fd5b346101e35760203660031901126101e357600435600052600f6020526040600020604051806102fc8184613d04565b036103079082613a3f565b60405191826103198160018401613d04565b036103249084613a3f565b604051806103358160028501613d04565b036103409082613a3f565b604051806103518160038601613d04565b0361035c9082613a3f565b6040518061036d8160048701613d04565b036103789082613a3f565b604051806103898160058801613d04565b036103949082613a3f565b604051806103a58160068901613d04565b036103b09082613a3f565b60405191826103c28160078a01613d04565b036103cd9084613a3f565b60405193846103df8160088b01613d04565b036103ea9086613a3f565b60405195866103fc8160098c01613d04565b036104079088613a3f565b604051978861041981600a8d01613d04565b03610424908a613a3f565b60405180600b819c019061043791613d04565b03610442908b613a3f565b6040519b8c9b8c6101808091528d0161045a91613d9a565b8c810360208e015261046b91613d9a565b8b810360408d015261047c91613d9a565b8a810360608c015261048d91613d9a565b89810360808b015261049e91613d9a565b88810360a08a01526104af91613d9a565b87810360c08901526104c091613d9a565b86810360e08801526104d191613d9a565b8581036101008701526104e391613d9a565b8481036101208601526104f591613d9a565b83810361014085015261050791613d9a565b82810361016084015261051991613d9a565b0390f35b346101e3576020806003193601126101e357600435906001600160401b0382116101e3576105e96105cc826105596105e2953690600401613a60565b61056860ff60075416156141c9565b6040519061059d61059682519385818186019661058681838a613ab6565b8101600981520301902054613b9f565b15156142e2565b6000546001600160a01b0316331480156105fd575b6105bb9061432e565b604051938492839251928391613ab6565b8101600981520301902060405193848092613d04565b0383613a3f565b610519604051928284938452830190613d9a565b5033600052600a83526105bb60ff610619604060002084613ad9565b541690506105b2565b346101e35760603660031901126101e35761063b613b15565b6044356001600160401b0381116101e3576105199161066161066b923690600401613a60565b90602435906146d9565b604051918291602083526020830190613d9a565b346101e3576101a03660031901126101e3576004356001600160401b0381116101e3576106b0903690600401613a60565b6024356001600160401b0381116101e3576106cf903690600401613a60565b6044356001600160401b0381116101e3576106ee903690600401613a60565b6064356001600160401b0381116101e35761070d903690600401613a60565b916084356001600160401b0381116101e35761072d903690600401613a60565b9260a4356001600160401b0381116101e35761074d903690600401613a60565b9360c4356001600160401b0381116101e35761076d903690600401613a60565b9460e4356001600160401b0381116101e35761078d903690600401613a60565b95610104356001600160401b0381116101e3576107ae903690600401613a60565b610124356001600160401b0381116101e3576107ce903690600401613a60565b91610144356001600160401b0381116101e3576107ef903690600401613a60565b936001600160401b0361016435116101e3576108113661016435600401613a60565b956001600160401b0361018435116101e3576108333661018435600401613a60565b9761083d8d613e8d565b5033600052600e6020526040600020549a8b600019810111611681576040519a6108668c613a08565b8b5260208b015260408a01526060890152608088015260a08701528760c087015260e08601526101008501526101208401526101408301526101608201526000198201600052600f602052604060002081518051906001600160401b038211610eca5781906108d58454613b9f565b601f811161164f575b50602090601f83116001146115e3576000926115d8575b50508160011b916000199060031b1c19161781555b60208201518051906001600160401b038211610eca57819061092f6001850154613b9f565b601f81116115a3575b50602090601f831160011461153157600092611526575b50508160011b916000199060031b1c19161760018201555b60408201518051906001600160401b038211610eca57819061098c6002850154613b9f565b601f81116114f1575b50602090601f831160011461147f57600092611474575b50508160011b916000199060031b1c19161760028201555b60608201518051906001600160401b038211610eca5781906109e96003850154613b9f565b601f811161143f575b50602090601f83116001146113cd576000926113c2575b50508160011b916000199060031b1c19161760038201555b60808201518051906001600160401b038211610eca578190610a466004850154613b9f565b601f811161138d575b50602090601f831160011461131b57600092611310575b50508160011b916000199060031b1c19161760048201555b60a08201518051906001600160401b038211610eca578190610aa36005850154613b9f565b601f81116112db575b50602090601f83116001146112695760009261125e575b50508160011b916000199060031b1c19161760058201555b60c08201518051906001600160401b038211610eca578190610b006006850154613b9f565b601f8111611229575b50602090601f83116001146111b7576000926111ac575b50508160011b916000199060031b1c19161760068201555b60e08201518051906001600160401b038211610eca578190610b5d6007850154613b9f565b601f8111611177575b50602090601f8311600114611105576000926110fa575b50508160011b916000199060031b1c19161760078201555b6101008201518051906001600160401b038211610eca578190610bbb6008850154613b9f565b601f81116110c5575b50602090601f831160011461105357600092611048575b50508160011b916000199060031b1c19161760088201555b6101208201518051906001600160401b038211610eca578190610c196009850154613b9f565b601f8111611013575b50602090601f8311600114610fa157600092610f96575b50508160011b916000199060031b1c19161760098201555b6101408201518051906001600160401b038211610eca57610c75600a840154613b9f565b601f8111610f61575b50602090601f8311600114610eeb5791806101609492600b94600092610ee0575b50508160011b916000199060031b1c191617600a8201555b019101518051906001600160401b038211610eca57610cd68354613b9f565b601f8111610e8d575b50602090601f8311600114610dfb579282610ddc93610deb96937f57421511eb3b79ea2b4cb33755930a1f1d7336ca754892a8ab24443f9ec65c9c9896600092610df0575b50508160011b916000199060031b1c19161790555b610d4f610d44614514565b33600019840161438a565b50610d5b610d44614534565b50610d67610d4461455b565b50610d73610d4461457d565b50610d7f610d4461459d565b50610d8b610d446145c2565b50610d97610d446145eb565b50610da3610d44614614565b50610daf610d4461463c565b50610dbb610d44614661565b50610dc7610d44614687565b50610dd06146ad565b9033906000190161438a565b506040519182913395836142bd565b0390a2005b015190508980610d24565b90601f198316918460005260206000209260005b818110610e75575093610deb96937f57421511eb3b79ea2b4cb33755930a1f1d7336ca754892a8ab24443f9ec65c9c98969360019383610ddc9810610e5c575b505050811b019055610d39565b015160001960f88460031b161c19169055898080610e4f565b92936020600181928786015181550195019301610e0f565b610eba90846000526020600020601f850160051c81019160208610610ec0575b601f0160051c019061420c565b86610cdf565b9091508190610ead565b634e487b7160e01b600052604160045260246000fd5b015190508980610c9f565b90600a840160005260206000209160005b601f1985168110610f495750926101609492600192600b9583601f19811610610f30575b505050811b01600a820155610cb7565b015160001960f88460031b161c19169055898080610f20565b91926020600181928685015181550194019201610efc565b610f9090600a85016000526020600020601f850160051c81019160208610610ec057601f0160051c019061420c565b87610c7e565b015190508780610c39565b9250600984016000526020600020906000935b601f1984168510610ff8576001945083601f19811610610fdf575b505050811b016009820155610c51565b015160001960f88460031b161c19169055878080610fcf565b81810151835560209485019460019093019290910190610fb4565b61104290600986016000526020600020601f850160051c81019160208610610ec057601f0160051c019061420c565b88610c22565b015190508780610bdb565b9250600884016000526020600020906000935b601f19841685106110aa576001945083601f19811610611091575b505050811b016008820155610bf3565b015160001960f88460031b161c19169055878080611081565b81810151835560209485019460019093019290910190611066565b6110f490600886016000526020600020601f850160051c81019160208610610ec057601f0160051c019061420c565b88610bc4565b015190508780610b7d565b9250600784016000526020600020906000935b601f198416851061115c576001945083601f19811610611143575b505050811b016007820155610b95565b015160001960f88460031b161c19169055878080611133565b81810151835560209485019460019093019290910190611118565b6111a690600786016000526020600020601f850160051c81019160208610610ec057601f0160051c019061420c565b88610b66565b015190508780610b20565b9250600684016000526020600020906000935b601f198416851061120e576001945083601f198116106111f5575b505050811b016006820155610b38565b015160001960f88460031b161c191690558780806111e5565b818101518355602094850194600190930192909101906111ca565b61125890600686016000526020600020601f850160051c81019160208610610ec057601f0160051c019061420c565b88610b09565b015190508780610ac3565b9250600584016000526020600020906000935b601f19841685106112c0576001945083601f198116106112a7575b505050811b016005820155610adb565b015160001960f88460031b161c19169055878080611297565b8181015183556020948501946001909301929091019061127c565b61130a90600586016000526020600020601f850160051c81019160208610610ec057601f0160051c019061420c565b88610aac565b015190508780610a66565b9250600484016000526020600020906000935b601f1984168510611372576001945083601f19811610611359575b505050811b016004820155610a7e565b015160001960f88460031b161c19169055878080611349565b8181015183556020948501946001909301929091019061132e565b6113bc90600486016000526020600020601f850160051c81019160208610610ec057601f0160051c019061420c565b88610a4f565b015190508780610a09565b9250600384016000526020600020906000935b601f1984168510611424576001945083601f1981161061140b575b505050811b016003820155610a21565b015160001960f88460031b161c191690558780806113fb565b818101518355602094850194600190930192909101906113e0565b61146e90600386016000526020600020601f850160051c81019160208610610ec057601f0160051c019061420c565b886109f2565b0151905087806109ac565b9250600284016000526020600020906000935b601f19841685106114d6576001945083601f198116106114bd575b505050811b0160028201556109c4565b015160001960f88460031b161c191690558780806114ad565b81810151835560209485019460019093019290910190611492565b61152090600286016000526020600020601f850160051c81019160208610610ec057601f0160051c019061420c565b88610995565b01519050878061094f565b9250600184016000526020600020906000935b601f1984168510611588576001945083601f1981161061156f575b505050811b016001820155610967565b015160001960f88460031b161c1916905587808061155f565b81810151835560209485019460019093019290910190611544565b6115d290600186016000526020600020601f850160051c81019160208610610ec057601f0160051c019061420c565b88610938565b0151905087806108f5565b9250836000526020600020906000935b601f1984168510611634576001945083601f1981161061161b575b505050811b01815561090a565b015160001960f88460031b161c1916905587808061160e565b818101518355602094850194600190930192909101906115f3565b61167b90856000526020600020601f850160051c81019160208610610ec057601f0160051c019061420c565b886108de565b634e487b7160e01b600052601160045260246000fd5b346101e35760003660031901126101e3576040516116bf816116b881613bd9565b0382613a3f565b60ff600454169061051960055460065460ff6007541690604051926116ee846116e781613c7d565b0385613a3f565b60405196879687613dbf565b346101e3576020806003193601126101e3576004356001600160401b0381116101e35761172b903690600401613a60565b61173a60ff60075416156141c9565b6105196060611780846040516117606105968751928481818b0195610586818389613ab6565b6000546001600160a01b0396908716331480156105fd576105bb9061432e565b8101600981520301902092604051611797816139ed565b6002604051956117b2876117ab8184613d04565b0388613a3f565b8683526001810154809884015201549160ff831615159283604084015260081c16928391015260405194859485613e00565b346101e3576101a03660031901126101e3576024356001600160401b0381116101e357611815903690600401613a60565b6044356001600160401b0381116101e357611834903690600401613a60565b6064356001600160401b0381116101e357611853903690600401613a60565b6084356001600160401b0381116101e357611872903690600401613a60565b60a4356001600160401b0381116101e357611891903690600401613a60565b60c4356001600160401b0381116101e3576118b0903690600401613a60565b60e4356001600160401b0381116101e3576118cf903690600401613a60565b610104356001600160401b0381116101e3576118ef903690600401613a60565b91610124356001600160401b0381116101e357611910903690600401613a60565b93610144356001600160401b0381116101e357611931903690600401613a60565b95610164356001600160401b0381116101e357611952903690600401613a60565b97610184356001600160401b0381116101e357611973903690600401613a60565b600054909a906001600160a01b03163303612684576040519b6119958d613a08565b8c5260208c015260408b015260608a0152608089015260a088015260c087015260e0860152610100850152610120840152610140830152610160820152600435600052600f602052604060002081519182516001600160401b038111610eca576119ff8354613b9f565b601f8111612652575b506020601f82116001146125ea57819293946000926125df575b50508160011b916000199060031b1c19161782555b60208101519182516001600160401b038111610eca57611a5a6001830154613b9f565b601f81116125aa575b506020601f821160011461253c5781929394600092612531575b50508160011b916000199060031b1c19161760018201555b60408201519182516001600160401b038111610eca57611ab86002840154613b9f565b601f81116124fc575b506020601f821160011461248e5781929394600092612483575b50508160011b916000199060031b1c19161760028301555b60608101519182516001600160401b038111610eca57611b166003830154613b9f565b601f811161244e575b506020601f82116001146123e057819293946000926123d5575b50508160011b916000199060031b1c19161760038201555b60808201519182516001600160401b038111610eca57611b746004840154613b9f565b601f81116123a0575b506020601f82116001146123325781929394600092612327575b50508160011b916000199060031b1c19161760048301555b60a08101519182516001600160401b038111610eca57611bd26005830154613b9f565b601f81116122f2575b506020601f82116001146122845781929394600092612279575b50508160011b916000199060031b1c19161760058201555b60c08201519182516001600160401b038111610eca57611c306006840154613b9f565b601f8111612244575b506020601f82116001146121d657819293946000926121cb575b50508160011b916000199060031b1c19161760068301555b60e08101519182516001600160401b038111610eca57611c8e6007830154613b9f565b601f8111612196575b506020601f8211600114612128578192939460009261211d575b50508160011b916000199060031b1c19161760078201555b6101008201519182516001600160401b038111610eca57611ced6008840154613b9f565b601f81116120e8575b506020601f821160011461207a578192939460009261206f575b50508160011b916000199060031b1c19161760088301555b6101208101519182516001600160401b038111610eca57611d4c6009830154613b9f565b601f811161203a575b506020601f8211600114611fcc5781929394600092611fc1575b50508160011b916000199060031b1c19161760098201555b6101408201518051906001600160401b038211610eca57611dab600a840154613b9f565b601f8111611f8c575b50602090601f8311600114611f165791806101609492600b94600092611f0b575b50508160011b916000199060031b1c191617600a8201555b019101519081516001600160401b038111610eca57611e0c8254613b9f565b601f8111611ed9575b50602092601f8211600114611e755792819293600092611e6a575b50508160011b916000199060031b1c19161790555b33600052600e602052611e5e6004356040600020613b6d565b50600342910155600080f35b015190508380611e30565b601f198216938360005260206000209160005b868110611ec15750836001959610611ea8575b505050811b019055611e45565b015160001960f88460031b161c19169055838080611e9b565b91926020600181928685015181550194019201611e88565b611f0590836000526020600020601f840160051c81019160208510610ec057601f0160051c019061420c565b83611e15565b015190508680611dd5565b90600a840160005260206000209160005b601f1985168110611f745750926101609492600192600b9583601f19811610611f5b575b505050811b01600a820155611ded565b015160001960f88460031b161c19169055868080611f4b565b91926020600181928685015181550194019201611f27565b611fbb90600a85016000526020600020601f850160051c81019160208610610ec057601f0160051c019061420c565b84611db4565b015190508480611d6f565b6009830160005260206000209060005b601f19841681106120225750600193949583601f19811610612009575b505050811b016009820155611d87565b015160001960f88460031b161c19169055848080611ff9565b9091602060018192858a015181550193019101611fdc565b61206990600984016000526020600020601f840160051c81019160208510610ec057601f0160051c019061420c565b84611d55565b015190508480611d10565b6008840160005260206000209060005b601f19841681106120d05750600193949583601f198116106120b7575b505050811b016008830155611d28565b015160001960f88460031b161c191690558480806120a7565b9091602060018192858a01518155019301910161208a565b61211790600885016000526020600020601f840160051c81019160208510610ec057601f0160051c019061420c565b84611cf6565b015190508480611cb1565b6007830160005260206000209060005b601f198416811061217e5750600193949583601f19811610612165575b505050811b016007820155611cc9565b015160001960f88460031b161c19169055848080612155565b9091602060018192858a015181550193019101612138565b6121c590600784016000526020600020601f840160051c81019160208510610ec057601f0160051c019061420c565b84611c97565b015190508480611c53565b6006840160005260206000209060005b601f198416811061222c5750600193949583601f19811610612213575b505050811b016006830155611c6b565b015160001960f88460031b161c19169055848080612203565b9091602060018192858a0151815501930191016121e6565b61227390600685016000526020600020601f840160051c81019160208510610ec057601f0160051c019061420c565b84611c39565b015190508480611bf5565b6005830160005260206000209060005b601f19841681106122da5750600193949583601f198116106122c1575b505050811b016005820155611c0d565b015160001960f88460031b161c191690558480806122b1565b9091602060018192858a015181550193019101612294565b61232190600584016000526020600020601f840160051c81019160208510610ec057601f0160051c019061420c565b84611bdb565b015190508480611b97565b6004840160005260206000209060005b601f19841681106123885750600193949583601f1981161061236f575b505050811b016004830155611baf565b015160001960f88460031b161c1916905584808061235f565b9091602060018192858a015181550193019101612342565b6123cf90600485016000526020600020601f840160051c81019160208510610ec057601f0160051c019061420c565b84611b7d565b015190508480611b39565b6003830160005260206000209060005b601f19841681106124365750600193949583601f1981161061241d575b505050811b016003820155611b51565b015160001960f88460031b161c1916905584808061240d565b9091602060018192858a0151815501930191016123f0565b61247d90600384016000526020600020601f840160051c81019160208510610ec057601f0160051c019061420c565b84611b1f565b015190508480611adb565b6002840160005260206000209060005b601f19841681106124e45750600193949583601f198116106124cb575b505050811b016002830155611af3565b015160001960f88460031b161c191690558480806124bb565b9091602060018192858a01518155019301910161249e565b61252b90600285016000526020600020601f840160051c81019160208510610ec057601f0160051c019061420c565b84611ac1565b015190508480611a7d565b6001830160005260206000209060005b601f19841681106125925750600193949583601f19811610612579575b505050811b016001820155611a95565b015160001960f88460031b161c19169055848080612569565b9091602060018192858a01518155019301910161254c565b6125d990600184016000526020600020601f840160051c81019160208510610ec057601f0160051c019061420c565b84611a63565b015190508480611a22565b8360005260206000209060005b601f198416811061263a5750600193949583601f19811610612621575b505050811b018255611a37565b015160001960f88460031b161c19169055848080612614565b9091602060018192858a0151815501930191016125f7565b61267e90846000526020600020601f840160051c81019160208510610ec057601f0160051c019061420c565b84611a08565b60405162461bcd60e51b81526020600482015260116024820152702737ba103a3432902224a21037bbb732b960791b6044820152606490fd5b346101e3576020806003193601126101e3576001600160401b036004358181116101e3576126ef903690600401613a60565b6126f7613e35565b6126ff614223565b61270e60ff60075416156141c9565b612716614267565b8051156128dd5760019160ff1990838260075416176007558251908111610eca57612742600854613b9f565b601f811161288f575b5084601f82116001146127e45791817ff47a4f2302a3334a22353c5748d420f032e5f784e851777209232d29d169333594926127cb946000916127d9575b50600019600383901b1c191690861b176008555b6004541660045542600655604051918291604083526127be60408401613bd9565b9083820388850152613d9a565b0390a1808055604051908152f35b905083015188612789565b908491601f1982169060086000527ff3f7a9fe364faab93b216da50a3214154f22a0a2b415b23a84c8169e8b636ee39160005b898282106128795750509183916127cb96947ff47a4f2302a3334a22353c5748d420f032e5f784e851777209232d29d169333598969410612860575b5050811b0160085561279d565b85015160001960f88460031b161c191690558880612853565b8389015185558996909401939283019201612817565b6128d79060086000527ff3f7a9fe364faab93b216da50a3214154f22a0a2b415b23a84c8169e8b636ee3601f840160051c810191888510610ec057601f0160051c019061420c565b8561274b565b60405162461bcd60e51b815260048101849052601a60248201527f5265766f636174696f6e20726561736f6e2072657175697265640000000000006044820152606490fd5b346101e35760003660031901126101e3576020600d54604051908152f35b346101e35760603660031901126101e357612959613aff565b6044356001600160401b0381116101e35760209161297e6101d9923690600401613a60565b9060043561438a565b346101e35760203660031901126101e3576004356001600160401b0381116101e35760206129bc6129cf923690600401613a60565b8160405193828580945193849201613ab6565b81016009815203019020604051906129eb826105e28184613d04565b6105196002600183015492015460405193849360ff60018060a01b038460081c1693169185613e00565b346101e35760003660031901126101e35760ff60075416612a3681156141c9565b60ff60045416906105196005546006549260405193612a5f85612a5881613bd9565b0386613a3f565b604051926116ee846116e781613c7d565b346101e35760403660031901126101e357612a89613b15565b6001600160a01b0381166000818152600e602052604090205460243592612ac691612ab5908510614479565b612abd614514565b908433916144ba565b15612daf57600052600e60205280604060002090612ae391613b6d565b5090600052600f602052604060002090600181015460ff16916002820154908080600385015494604051612b18818093613d04565b03612b239082613a3f565b60405180612b318185613d04565b03612b3c9082613a3f565b60405180612b4d8160018701613d04565b03612b589082613a3f565b60405180612b698160028801613d04565b03612b749082613a3f565b60405180612b858160038901613d04565b03612b909082613a3f565b6040519081612ba28160048a01613d04565b03612bad9083613a3f565b6040519283612bbf8160058b01613d04565b03612bca9085613a3f565b6040519485612bdc8160068c01613d04565b03612be79087613a3f565b6040519687612bf98160078d01613d04565b03612c049089613a3f565b6040519889612c168160088e01613d04565b03612c21908b613a3f565b604051806009819d0190612c3491613d04565b03612c3f908c613a3f565b60405180600a819e0190612c5291613d04565b03612c5d908d613a3f565b60405180809e600b82910190612c7291613d04565b03612c7c91613a3f565b6040518060805261020080915260805101612c9691613d9a565b6080518082039060200152612caa91613d9a565b6080518082039060400152612cbe91613d9a565b6080518082039060600152612cd291613d9a565b6080518082039060800152612ce691613d9a565b6080518082039060a00152612cfa91613d9a565b6080518082039060c00152612d0e91613d9a565b6080518082039060e00152612d2291613d9a565b608051808203906101000152612d3791613d9a565b608051808203906101200152612d4c91613d9a565b608051808203906101400152612d6191613d9a565b608051808203906101600152612d7691613d9a565b608051808203906101800152612d8b91613d9a565b9215156080516101a001526080516101c001526080516101e0015260805180910390f35b60405162461bcd60e51b815260206004820152603060248201527f4e6f7420617574686f72697a656420746f20616363657373204472697665727360448201526f204c6963656e73652064657461696c7360801b6064820152608490fd5b346101e35760003660031901126101e3576000546040516001600160a01b039091168152602090f35b346101e357602060ff612e69612e4b36613b2b565b6001600160a01b039091166000908152600a85526040902090613ad9565b54166040519015158152f35b346101e35760003660031901126101e357612e8e613e35565b612e96614223565b600160ff1960025416176002557f62e78cea01bee320cd4e420270b5ea74000d11b0c9f74754ebdbfc544b05a2586020604051338152a1005b346101e35760003660031901126101e357612ee8613e35565b612ef0614223565b612eff60ff60075416156141c9565b612f07614267565b60045460ff811615612f655760ff1916600455426006557f4360f12f602ccecefb32480e5314d0d3f57d38db8f52c76d8fdf4c39596c1c286040516020815280612f5360208201613bd9565b0390a160018055602060405160018152f35b60405162461bcd60e51b815260206004820152601760248201527f44494420697320616c726561647920696e6163746976650000000000000000006044820152606490fd5b346101e35760003660031901126101e357612fc3613e35565b600080546001600160a01b0319811682556001600160a01b03167f8be0079c531659141344cd1fd0a4f28419497f9722a3daafe3b4186f6b6457e08280a3005b346101e35760403660031901126101e35761301c613b15565b6001600160a01b03166000908152600e602052604090208054602435908110156101e35761304991613b6d565b5060405161305b816116b88185613d04565b610519600560ff6001850154169360028101546003820154906116ee60ff600485015416936116e76040518097819301613d04565b346101e3576131337f51cbcaaca6ae26944c6280c966a07b04ca5c6766d82ca497ded152579431468d6130c236613b2b565b92906130cc613e35565b6130d4614223565b6130e360ff60075416156141c9565b6130eb614267565b6001600160a01b03169261310084151561443b565b83600052600a602052613117604060002082613ad9565b60ff198154169055604051918291602083526020830190613d9a565b0390a260018055602060405160018152f35b346101e35760003660031901126101e357602060ff600254166040519015158152f35b346101e35760003660031901126101e35760206040516103e88152f35b346101e35760403660031901126101e3576004356001600160401b0381116101e3576131b5903690600401613a60565b6131bd613aff565b6131c5613e35565b6131cd614223565b6131dc60ff60075416156141c9565b6131e4614267565b604051918051613204610596602095868181870195610586818389613ab6565b6001600160a01b0383169283156132f657916132c360016132e6936132b37f1c564f9c63901c7b3617b5a5a8d210f8871f28d4afa53586ed6f670abe7e220a9660026040518b81895161325881838a613ab6565b81016009815203019020018460ff1982541617905560026040518b81895161328181838a613ab6565b600990820190815203019020018054610100600160a81b03191660089290921b610100600160a81b0316919091179055565b6040519283918551928391613ab6565b820191600983528781429403019020015560405191829186835286830190613d9a565b0390a26001805560405160018152f35b60405162461bcd60e51b815260048101869052601860248201527f496e76616c6964207665726966696572206164647265737300000000000000006044820152606490fd5b346101e35760003660031901126101e357613354613e35565b60025460ff8116156133935760ff19166002557f5db9ee0a495bf2e6ff9c91a7834c1ba4fdd244a5e8aa4e537bd38aeae4b073aa6020604051338152a1005b60405162461bcd60e51b815260206004820152601460248201527314185d5cd8589b194e881b9bdd081c185d5cd95960621b6044820152606490fd5b346101e35760003660031901126101e357602060405160328152f35b346101e3576020806003193601126101e3576004356001600160401b0381116101e35761341c903690600401613a60565b613424613e35565b61342c614223565b61343b60ff60075416156141c9565b613443614267565b60006002613479846040516134686105968751928481818b0195610586818389613ab6565b604051809381928851928391613ab6565b8101600981520301902061348d8154613b9f565b8061353c575b508260018201550155600d5480156134f75760001901600d55426006556040518281527f8088db29d4761a957c0a396fa3c5f3f369fbfca4f1a83dae8b4f76a31726246a9181906134e79085830190613d9a565b0390a16001805560405160018152f35b60405162461bcd60e51b815260048101849052601b60248201527f436f756e7465723a2064656372656d656e74206f766572666c6f7700000000006044820152606490fd5b601f811160011461355257508281555b85613493565b839082825261356f601f888420920160051c82016001830161420c565b8183555561354c565b346101e35760203660031901126101e3576004356001600160401b0381116101e3576101d96135ad6020923690600401613a60565b613e8d565b346101e35760403660031901126101e3576001600160401b036004358181116101e3576135e3903690600401613a60565b9060249182358281116101e3576135fe903690600401613a60565b90613607613e35565b61360f614223565b61361e60ff60075416156141c9565b613626614267565b80511561395b576103e880825111613917578251156138d35782511161388f576032600d54101561384b576040519361365e856139ed565b828552602094858101428152604082019560008752606083019360008552604051898188516136908183858d01613ab6565b81016009815203019020935190815192831161383757506136b18454613b9f565b601f8111613807575b508890601f83116001146137765792826002937fb5992aa9568eacc71d59e4909dd6598b92a9412825efe4598975018ea0918d759a969361374f989660009261376b575b50508160011b916000199060031b1c19161782555b51600182015592519201805491516001600160a81b031990921660ff931515939093169290921760089190911b610100600160a81b0316179055565b6001600d5401600d55426006556134e7604051928392836142bd565b015190508c806136fe565b90601f19831691856000528a6000209260005b8c8282106137f1575050937fb5992aa9568eacc71d59e4909dd6598b92a9412825efe4598975018ea0918d759a969361374f98969360019383600298106137d8575b505050811b018255613713565b015160001960f88460031b161c191690558c80806137cb565b6001859682939686015181550195019301613789565b61383190856000528a600020601f850160051c8101918c8610610ec057601f0160051c019061420c565b896136ba565b634e487b7160e01b60009081526041600452fd5b60405162461bcd60e51b815260206004820152601a818601527f4d6178696d756d206174747269627574657320726561636865640000000000006044820152606490fd5b60405162461bcd60e51b8152602060048201526018818601527f4174747269627574652076616c756520746f6f206c6f6e6700000000000000006044820152606490fd5b60405162461bcd60e51b815260206004820152601f818701527f4174747269627574652076616c75652063616e6e6f7420626520656d707479006044820152606490fd5b60405162461bcd60e51b8152602060048201526017818701527f417474726962757465206e616d6520746f6f206c6f6e670000000000000000006044820152606490fd5b60405162461bcd60e51b815260206004820152601e818601527f417474726962757465206e616d652063616e6e6f7420626520656d70747900006044820152606490fd5b346101e35760203660031901126101e3576004356001600160401b0381116101e35760ff6139d760206129bc81943690600401613a60565b8101600b81520301902054166040519015158152f35b608081019081106001600160401b03821117610eca57604052565b61018081019081106001600160401b03821117610eca57604052565b604081019081106001600160401b03821117610eca57604052565b90601f801991011681019081106001600160401b03821117610eca57604052565b81601f820112156101e3578035906001600160401b038211610eca5760405192613a94601f8401601f191660200185613a3f565b828452602083830101116101e357816000926020809301838601378301015290565b60005b838110613ac95750506000910152565b8181015183820152602001613ab9565b602090613af3928260405194838680955193849201613ab6565b82019081520301902090565b602435906001600160a01b03821682036101e357565b600435906001600160a01b03821682036101e357565b9060406003198301126101e3576004356001600160a01b03811681036101e35791602435906001600160401b0382116101e357613b6a91600401613a60565b90565b8054821015613b89576000526006602060002091020190600090565b634e487b7160e01b600052603260045260246000fd5b90600182811c92168015613bcf575b6020831014613bb957565b634e487b7160e01b600052602260045260246000fd5b91607f1691613bae565b60035460009291613be982613b9f565b80825291600190818116908115613c605750600114613c0757505050565b9192935060036000527fc2575a0e9e593c00f959f8c92f12db2869c3395a3b0502d05e2516446f71f85b916000925b848410613c4857505060209250010190565b80546020858501810191909152909301928101613c36565b915050602093945060ff929192191683830152151560051b010190565b60085460009291613c8d82613b9f565b80825291600190818116908115613c605750600114613cab57505050565b9192935060086000527ff3f7a9fe364faab93b216da50a3214154f22a0a2b415b23a84c8169e8b636ee3916000925b848410613cec57505060209250010190565b80546020858501810191909152909301928101613cda565b9060009291805491613d1583613b9f565b918282526001938481169081600014613d775750600114613d37575b50505050565b90919394506000526020928360002092846000945b838610613d63575050505001019038808080613d31565b805485870183015294019385908201613d4c565b9294505050602093945060ff191683830152151560051b01019038808080613d31565b90602091613db381518092818552858086019101613ab6565b601f01601f1916010190565b92613dda613b6a97959296939660c0865260c0860190613d9a565b9515156020850152604084015260608301521515608082015260a0818403910152613d9a565b92613e18606093969592608086526080860190613d9a565b6020850196909652151560408401526001600160a01b0316910152565b6000546001600160a01b03163303613e4957565b606460405162461bcd60e51b815260206004820152602060248201527f4f776e61626c653a2063616c6c6572206973206e6f7420746865206f776e65726044820152fd5b613e95614223565b613ea460ff60075416156141c9565b613eac614267565b8051156141845760648151116141495760405190805160ff602093848181860194613ed8818388613ab6565b8101600c81520301902054166141045760038054613ef581613b9f565b6140ca578351906001600160401b038211610eca57613f1390613b9f565b601f811161407d575b5084601f8211600114613fd6579181613fbf94927f44ca9609d2fe597457041d7e98533a969452ef425c10a46d0dd9f074497ea1ba9694600091613fcb575b508160011b9160001990841b1c19161790555b42600555426006556001613f9b8660ff199383856004541617600455604051809381928851928391613ab6565b8101600c815203019020918254161790556040519182918583523395830190613d9a565b0390a260018055600190565b905084015138613f5b565b601f19821690836000527fc2575a0e9e593c00f959f8c92f12db2869c3395a3b0502d05e2516446f71f85b9160005b88828210614067575050927f44ca9609d2fe597457041d7e98533a969452ef425c10a46d0dd9f074497ea1ba96949260019282613fbf98961061404f575b5050811b019055613f6e565b86015160001983861b60f8161c191690553880614043565b600184958293958b015181550194019201614005565b6140c490836000527fc2575a0e9e593c00f959f8c92f12db2869c3395a3b0502d05e2516446f71f85b601f840160051c810191888510610ec057601f0160051c019061420c565b38613f1c565b60405162461bcd60e51b815260048101869052601260248201527144494420616c72656164792065786973747360701b6044820152606490fd5b60405162461bcd60e51b815260048101849052601960248201527f4964656e74696669657220616c726561647920696e20757365000000000000006044820152606490fd5b60405162461bcd60e51b81526020600482015260136024820152724964656e74696669657220746f6f206c6f6e6760681b6044820152606490fd5b60405162461bcd60e51b815260206004820152601a60248201527f4964656e7469666965722063616e6e6f7420626520656d7074790000000000006044820152606490fd5b156141d057565b60405162461bcd60e51b8152602060048201526014602482015273111251081a185cc81899595b881c995d9bdad95960621b6044820152606490fd5b818110614217575050565b6000815560010161420c565b60ff6002541661422f57565b60405162461bcd60e51b815260206004820152601060248201526f14185d5cd8589b194e881c185d5cd95960821b6044820152606490fd5b600260015414614278576002600155565b60405162461bcd60e51b815260206004820152601f60248201527f5265656e7472616e637947756172643a207265656e7472616e742063616c6c006044820152606490fd5b90916142d4613b6a93604084526040840190613d9a565b916020818403910152613d9a565b156142e957565b60405162461bcd60e51b815260206004820152601860248201527f41747472696275746520646f6573206e6f7420657869737400000000000000006044820152606490fd5b1561433557565b60405162461bcd60e51b815260206004820152602760248201527f4e6f7420617574686f72697a656420746f2061636365737320746869732061746044820152667472696275746560c81b6064820152608490fd5b91613fbf906144057f883d542f167dfc5f47e8bf1532c171025ed0e4c59c1126c7f61749fa21976a45936143bc613e35565b6143c4614223565b6143d360ff60075416156141c9565b6143db614267565b6001600160a01b0316946143f086151561443b565b33600052600e60205260406000205411614479565b83600052600a60205261441c604060002082613ad9565b600160ff19825416179055604051918291602083526020830190613d9a565b1561444257565b60405162461bcd60e51b815260206004820152600f60248201526e496e76616c6964206164647265737360881b6044820152606490fd5b1561448057565b60405162461bcd60e51b815260206004820152601260248201527111125108191bd95cc81b9bdd08195e1a5cdd60721b6044820152606490fd5b6001600160a01b039081166000818152600e602052604090205490949391926144e39111614479565b168092149182156144f357505090565b60ff92509061450f91600052600a602052604060002090613ad9565b541690565b6040519061452182613a24565b60048252636e616d6560e01b6020830152565b6040519061454182613a24565b600b82526a0c8c2e8ca9ecc84d2e4e8d60ab1b6020830152565b6040519061456882613a24565b600682526533b2b73232b960d11b6020830152565b6040519061458a82613a24565b600482526330b2323960e11b6020830152565b604051906145aa82613a24565b60098252680e0d0dee8de90c2e6d60bb1b6020830152565b604051906145cf82613a24565b600d82526c0e6d2cedcc2e8eae4ca90c2e6d609b1b6020830152565b604051906145f882613a24565b600d82526c3634b1b2b739b2a73ab6b132b960991b6020830152565b6040519061462182613a24565b600c82526b76656869636c65436c61737360a01b6020830152565b6040519061464982613a24565b600982526869737375654461746560b81b6020830152565b6040519061466e82613a24565b600a8252696578706972794461746560b01b6020830152565b6040519061469482613a24565b600a8252690626c6f6f6447726f75760b41b6020830152565b604051906146ba82613a24565b601082526f195b595c99d95b98de50dbdb9d1858dd60821b6020830152565b909160018060a01b038216600052602092600e845261471461470f8360409561470787600020548610614479565b8433916144ba565b61432e565b600052600f83528160002090805190848101918220614731614514565b868151910120146149765780518220614748614534565b8681519101201461495e578051822061475f61455b565b86815191012014614946578051822061477661457d565b8681519101201461492e578051822061478d61459d565b8681519101201461491657805182206147a46145c2565b868151910120146148fe57805182206147bb6145eb565b868151910120146148e657805182206147d2614614565b868151910120146148ce57805182206147e961463c565b868151910120146148b65780518220614800614661565b8681519101201461489e5780518220614817614687565b868151910120146148865751902061482d6146ad565b8481519101201461487057815162461bcd60e51b8152600481018490526011602482015270496e76616c69642061747472696275746560781b6044820152606490fd5b600b92506116b8613b6a92518094819301613d04565b5050600a92506116b8613b6a92518094819301613d04565b5050600992506116b8613b6a92518094819301613d04565b5050600892506116b8613b6a92518094819301613d04565b5050600792506116b8613b6a92518094819301613d04565b5050600692506116b8613b6a92518094819301613d04565b5050600592506116b8613b6a92518094819301613d04565b5050600492506116b8613b6a92518094819301613d04565b5050600392506116b8613b6a92518094819301613d04565b5050600292506116b8613b6a92518094819301613d04565b5050600192506116b8613b6a92518094819301613d04565b50506116b89250613b6a915192838092613d0456fea2646970667358221220242f50576927a7c7d826ffb1cab741f277188110fae701c0ef95662d2206f46664736f6c63430008140033",
  "linkReferences": {},
  "deployedLinkReferences": {}
}