{
  "_format": "hh-sol-artifact-1",
  "contractName": "BaseIdentity",
  "sourceName": "contracts/BaseIdentity.sol",
  "abi": [
    {
      "inputs": [],
      "stateMutability": "nonpayable",
      "type": "constructor"
    },
    {
      "anonymous": false,
      "inputs": [
        {
          "indexed": false,
          "internalType": "address",
          "name": "account",
          "type": "address"
        }
      ],
      "name": "Paused",
      "type": "event"
    },
    {
      "anonymous": false,
      "inputs": [
        {
          "indexed": true,
          "internalType": "bytes32",
          "name": "role",
          "type": "bytes32"
        },
        {
          "indexed": true,
          "internalType": "bytes32",
          "name": "previousAdminRole",
          "type": "bytes32"
        },
        {
          "indexed": true,
          "internalType": "bytes32",
          "name": "newAdminRole",
          "type": "bytes32"
        }
      ],
      "name": "RoleAdminChanged",
      "type": "event"
    },
    {
      "anonymous": false,
      "inputs": [
        {
          "indexed": true,
          "internalType": "bytes32",
          "name": "role",
          "type": "bytes32"
        },
        {
          "indexed": true,
          "internalType": "address",
          "name": "account",
          "type": "address"
        },
        {
          "indexed": true,
          "internalType": "address",
          "name": "sender",
          "type": "address"
        }
      ],
      "name": "RoleGranted",
      "type": "event"
    },
    {
      "anonymous": false,
      "inputs": [
        {
          "indexed": true,
          "internalType": "bytes32",
          "name": "role",
          "type": "bytes32"
        },
        {
          "indexed": true,
          "internalType": "address",
          "name": "account",
          "type": "address"
        },
        {
          "indexed": true,
          "internalType": "address",
          "name": "sender",
          "type": "address"
        }
      ],
      "name": "RoleRevoked",
      "type": "event"
    },
    {
      "anonymous": false,
      "inputs": [
        {
          "components": [
            {
              "internalType": "uint256",
              "name": "verificationFee",
              "type": "uint256"
            },
            {
              "internalType": "uint256",
              "name": "documentExpiryTime",
              "type": "uint256"
            },
            {
              "internalType": "uint256",
              "name": "maxVerificationAttempts",
              "type": "uint256"
            },
            {
              "internalType": "bool",
              "name": "allowMultipleDIDs",
              "type": "bool"
            }
          ],
          "indexed": false,
          "internalType": "struct BaseIdentity.SystemConfig",
          "name": "config",
          "type": "tuple"
        }
      ],
      "name": "SystemConfigUpdated",
      "type": "event"
    },
    {
      "anonymous": false,
      "inputs": [
        {
          "indexed": false,
          "internalType": "address",
          "name": "account",
          "type": "address"
        }
      ],
      "name": "Unpaused",
      "type": "event"
    },
    {
      "inputs": [],
      "name": "ADMIN_ROLE",
      "outputs": [
        {
          "internalType": "bytes32",
          "name": "",
          "type": "bytes32"
        }
      ],
      "stateMutability": "view",
      "type": "function"
    },
    {
      "inputs": [],
      "name": "DEFAULT_ADMIN_ROLE",
      "outputs": [
        {
          "internalType": "bytes32",
          "name": "",
          "type": "bytes32"
        }
      ],
      "stateMutability": "view",
      "type": "function"
    },
    {
      "inputs": [],
      "name": "SERVICE_PROVIDER_ROLE",
      "outputs": [
        {
          "internalType": "bytes32",
          "name": "",
          "type": "bytes32"
        }
      ],
      "stateMutability": "view",
      "type": "function"
    },
    {
      "inputs": [],
      "name": "USER_ROLE",
      "outputs": [
        {
          "internalType": "bytes32",
          "name": "",
          "type": "bytes32"
        }
      ],
      "stateMutability": "view",
      "type": "function"
    },
    {
      "inputs": [],
      "name": "VERIFIER_ROLE",
      "outputs": [
        {
          "internalType": "bytes32",
          "name": "",
          "type": "bytes32"
        }
      ],
      "stateMutability": "view",
      "type": "function"
    },
    {
      "inputs": [],
      "name": "config",
      "outputs": [
        {
          "internalType": "uint256",
          "name": "verificationFee",
          "type": "uint256"
        },
        {
          "internalType": "uint256",
          "name": "documentExpiryTime",
          "type": "uint256"
        },
        {
          "internalType": "uint256",
          "name": "maxVerificationAttempts",
          "type": "uint256"
        },
        {
          "internalType": "bool",
          "name": "allowMultipleDIDs",
          "type": "bool"
        }
      ],
      "stateMutability": "view",
      "type": "function"
    },
    {
      "inputs": [
        {
          "internalType": "bytes32",
          "name": "role",
          "type": "bytes32"
        }
      ],
      "name": "getRoleAdmin",
      "outputs": [
        {
          "internalType": "bytes32",
          "name": "",
          "type": "bytes32"
        }
      ],
      "stateMutability": "view",
      "type": "function"
    },
    {
      "inputs": [
        {
          "internalType": "bytes32",
          "name": "role",
          "type": "bytes32"
        },
        {
          "internalType": "address",
          "name": "account",
          "type": "address"
        }
      ],
      "name": "grantRole",
      "outputs": [],
      "stateMutability": "nonpayable",
      "type": "function"
    },
    {
      "inputs": [
        {
          "internalType": "bytes32",
          "name": "role",
          "type": "bytes32"
        },
        {
          "internalType": "address",
          "name": "account",
          "type": "address"
        }
      ],
      "name": "hasRole",
      "outputs": [
        {
          "internalType": "bool",
          "name": "",
          "type": "bool"
        }
      ],
      "stateMutability": "view",
      "type": "function"
    },
    {
      "inputs": [],
      "name": "paused",
      "outputs": [
        {
          "internalType": "bool",
          "name": "",
          "type": "bool"
        }
      ],
      "stateMutability": "view",
      "type": "function"
    },
    {
      "inputs": [
        {
          "internalType": "bytes32",
          "name": "role",
          "type": "bytes32"
        },
        {
          "internalType": "address",
          "name": "account",
          "type": "address"
        }
      ],
      "name": "renounceRole",
      "outputs": [],
      "stateMutability": "nonpayable",
      "type": "function"
    },
    {
      "inputs": [
        {
          "internalType": "bytes32",
          "name": "role",
          "type": "bytes32"
        },
        {
          "internalType": "address",
          "name": "account",
          "type": "address"
        }
      ],
      "name": "revokeRole",
      "outputs": [],
      "stateMutability": "nonpayable",
      "type": "function"
    },
    {
      "inputs": [
        {
          "internalType": "bytes4",
          "name": "interfaceId",
          "type": "bytes4"
        }
      ],
      "name": "supportsInterface",
      "outputs": [
        {
          "internalType": "bool",
          "name": "",
          "type": "bool"
        }
      ],
      "stateMutability": "view",
      "type": "function"
    },
    {
      "inputs": [
        {
          "components": [
            {
              "internalType": "uint256",
              "name": "verificationFee",
              "type": "uint256"
            },
            {
              "internalType": "uint256",
              "name": "documentExpiryTime",
              "type": "uint256"
            },
            {
              "internalType": "uint256",
              "name": "maxVerificationAttempts",
              "type": "uint256"
            },
            {
              "internalType": "bool",
              "name": "allowMultipleDIDs",
              "type": "bool"
            }
          ],
          "internalType": "struct BaseIdentity.SystemConfig",
          "name": "_config",
          "type": "tuple"
        }
      ],
      "name": "updateSystemConfig",
      "outputs": [],
      "stateMutability": "nonpayable",
      "type": "function"
    }
  ],
  "bytecode": "0x608060405234801561001057600080fd5b506001805460ff19168155600255610029600033610058565b6100537fa49807205ce4d355092ef5a8a18f56e8913cf4a201fbe287825b095693c2177533610058565b6100f7565b6000828152602081815260408083206001600160a01b038516845290915290205460ff166100f3576000828152602081815260408083206001600160a01b03851684529091529020805460ff191660011790556100b23390565b6001600160a01b0316816001600160a01b0316837f2f8788117e7eff1d82e926ec794901d17c78024a50270940304540a733656f0d60405160405180910390a45b5050565b610a44806101066000396000f3fe608060405234801561001057600080fd5b50600436106100ea5760003560e01c80636a7d3cf81161008c57806391d148541161006657806391d148541461023e578063a217fddf14610251578063d547741f14610259578063e7705db61461026c57600080fd5b80636a7d3cf8146101c957806375b238fc146101dc57806379502c551461020357600080fd5b8063248a9ca3116100c8578063248a9ca3146101735780632f2ff15d1461019657806336568abe146101ab5780635c975abb146101be57600080fd5b806301ffc9a7146100ef57806313119161146101175780631bc6ae8a1461014c575b600080fd5b6101026100fd3660046107c1565b610293565b60405190151581526020015b60405180910390f35b61013e7f14823911f2da1b49f045a0929a60b8c1f2a7fc8c06c7284ca3e8ab4e193a08c881565b60405190815260200161010e565b61013e7fd8c0b0264fb5d225f4ba2fb92454d9f4f912be4d27b355562e6ae90ce2f5e74b81565b61013e6101813660046107eb565b60009081526020819052604090206001015490565b6101a96101a4366004610804565b6102ca565b005b6101a96101b9366004610804565b6102f4565b60015460ff16610102565b6101a96101d7366004610856565b610377565b61013e7fa49807205ce4d355092ef5a8a18f56e8913cf4a201fbe287825b095693c2177581565b60035460045460055460065461021c9392919060ff1684565b604080519485526020850193909352918301521515606082015260800161010e565b61010261024c366004610804565b610427565b61013e600081565b6101a9610267366004610804565b610450565b61013e7f0ce23c3e399818cfee81a7ab0880f714e53d7672b08df0fa62f2843416e1ea0981565b60006001600160e01b03198216637965db0b60e01b14806102c457506301ffc9a760e01b6001600160e01b03198316145b92915050565b6000828152602081905260409020600101546102e581610475565b6102ef8383610482565b505050565b6001600160a01b03811633146103695760405162461bcd60e51b815260206004820152602f60248201527f416363657373436f6e74726f6c3a2063616e206f6e6c792072656e6f756e636560448201526e103937b632b9903337b91039b2b63360891b60648201526084015b60405180910390fd5b6103738282610506565b5050565b7fa49807205ce4d355092ef5a8a18f56e8913cf4a201fbe287825b095693c217756103a181610475565b6103a961056b565b815160038190556020808401805160045560408086018051600555606080880180516006805460ff191691151591909117905583519687529351948601949094525190840152511515908201527fbb636cf7d0069004069f64dc46a53f815f9a95383e12427d24776a8b3e4508029060800160405180910390a15050565b6000918252602082815260408084206001600160a01b0393909316845291905290205460ff1690565b60008281526020819052604090206001015461046b81610475565b6102ef8383610506565b61047f81336105b3565b50565b61048c8282610427565b610373576000828152602081815260408083206001600160a01b03851684529091529020805460ff191660011790556104c23390565b6001600160a01b0316816001600160a01b0316837f2f8788117e7eff1d82e926ec794901d17c78024a50270940304540a733656f0d60405160405180910390a45050565b6105108282610427565b15610373576000828152602081815260408083206001600160a01b0385168085529252808320805460ff1916905551339285917ff6391f5c32d9c69d2a47ea670b442974b53935d1edc7fd64eb21e047a839171b9190a45050565b60015460ff16156105b15760405162461bcd60e51b815260206004820152601060248201526f14185d5cd8589b194e881c185d5cd95960821b6044820152606401610360565b565b6105bd8282610427565b610373576105ca8161060c565b6105d583602061061e565b6040516020016105e69291906108f9565b60408051601f198184030181529082905262461bcd60e51b82526103609160040161096e565b60606102c46001600160a01b03831660145b6060600061062d8360026109b7565b6106389060026109ce565b67ffffffffffffffff81111561065057610650610840565b6040519080825280601f01601f19166020018201604052801561067a576020820181803683370190505b509050600360fc1b81600081518110610695576106956109e1565b60200101906001600160f81b031916908160001a905350600f60fb1b816001815181106106c4576106c46109e1565b60200101906001600160f81b031916908160001a90535060006106e88460026109b7565b6106f39060016109ce565b90505b600181111561076b576f181899199a1a9b1b9c1cb0b131b232b360811b85600f1660108110610727576107276109e1565b1a60f81b82828151811061073d5761073d6109e1565b60200101906001600160f81b031916908160001a90535060049490941c93610764816109f7565b90506106f6565b5083156107ba5760405162461bcd60e51b815260206004820181905260248201527f537472696e67733a20686578206c656e67746820696e73756666696369656e746044820152606401610360565b9392505050565b6000602082840312156107d357600080fd5b81356001600160e01b0319811681146107ba57600080fd5b6000602082840312156107fd57600080fd5b5035919050565b6000806040838503121561081757600080fd5b8235915060208301356001600160a01b038116811461083557600080fd5b809150509250929050565b634e487b7160e01b600052604160045260246000fd5b60006080828403121561086857600080fd5b6040516080810181811067ffffffffffffffff8211171561089957634e487b7160e01b600052604160045260246000fd5b8060405250823581526020830135602082015260408301356040820152606083013580151581146108c957600080fd5b60608201529392505050565b60005b838110156108f05781810151838201526020016108d8565b50506000910152565b7f416363657373436f6e74726f6c3a206163636f756e74200000000000000000008152600083516109318160178501602088016108d5565b7001034b99036b4b9b9b4b733903937b6329607d1b60179184019182015283516109628160288401602088016108d5565b01602801949350505050565b602081526000825180602084015261098d8160408501602087016108d5565b601f01601f19169190910160400192915050565b634e487b7160e01b600052601160045260246000fd5b80820281158282048414176102c4576102c46109a1565b808201808211156102c4576102c46109a1565b634e487b7160e01b600052603260045260246000fd5b600081610a0657610a066109a1565b50600019019056fea264697066735822122089316cae88364f0d5b1df3248c8d95eedf74ff3cf70b4ff80720a7cc5a33ffff64736f6c63430008130033",
  "linkReferences": {},
  "deployedLinkReferences": {}
}