{
  "_format": "hh-sol-artifact-1",
  "contractName": "BaseDID",
  "sourceName": "contracts/BaseDID.sol",
  "abi": [
    {
      "inputs": [],
      "stateMutability": "nonpayable",
      "type": "constructor"
    },
    {
      "anonymous": false,
      "inputs": [
        {
          "indexed": true,
          "internalType": "address",
          "name": "to",
          "type": "address"
        },
        {
          "indexed": false,
          "internalType": "string",
          "name": "attribute",
          "type": "string"
        }
      ],
      "name": "AccessGranted",
      "type": "event"
    },
    {
      "anonymous": false,
      "inputs": [
        {
          "indexed": true,
          "internalType": "address",
          "name": "to",
          "type": "address"
        },
        {
          "indexed": false,
          "internalType": "string",
          "name": "attribute",
          "type": "string"
        }
      ],
      "name": "AccessRevoked",
      "type": "event"
    },
    {
      "anonymous": false,
      "inputs": [
        {
          "indexed": false,
          "internalType": "string",
          "name": "name",
          "type": "string"
        },
        {
          "indexed": false,
          "internalType": "string",
          "name": "value",
          "type": "string"
        }
      ],
      "name": "AttributeAdded",
      "type": "event"
    },
    {
      "anonymous": false,
      "inputs": [
        {
          "indexed": false,
          "internalType": "string",
          "name": "name",
          "type": "string"
        }
      ],
      "name": "AttributeRemoved",
      "type": "event"
    },
    {
      "anonymous": false,
      "inputs": [
        {
          "indexed": false,
          "internalType": "string",
          "name": "name",
          "type": "string"
        },
        {
          "indexed": true,
          "internalType": "address",
          "name": "verifier",
          "type": "address"
        }
      ],
      "name": "AttributeVerified",
      "type": "event"
    },
    {
      "anonymous": false,
      "inputs": [
        {
          "indexed": false,
          "internalType": "string",
          "name": "identifier",
          "type": "string"
        },
        {
          "indexed": true,
          "internalType": "address",
          "name": "owner",
          "type": "address"
        }
      ],
      "name": "DIDCreated",
      "type": "event"
    },
    {
      "anonymous": false,
      "inputs": [
        {
          "indexed": false,
          "internalType": "string",
          "name": "identifier",
          "type": "string"
        }
      ],
      "name": "DIDDeactivated",
      "type": "event"
    },
    {
      "anonymous": false,
      "inputs": [
        {
          "indexed": false,
          "internalType": "string",
          "name": "identifier",
          "type": "string"
        },
        {
          "indexed": false,
          "internalType": "string",
          "name": "reason",
          "type": "string"
        }
      ],
      "name": "DIDRevoked",
      "type": "event"
    },
    {
      "anonymous": false,
      "inputs": [
        {
          "indexed": true,
          "internalType": "address",
          "name": "previousOwner",
          "type": "address"
        },
        {
          "indexed": true,
          "internalType": "address",
          "name": "newOwner",
          "type": "address"
        }
      ],
      "name": "OwnershipTransferred",
      "type": "event"
    },
    {
      "anonymous": false,
      "inputs": [
        {
          "indexed": false,
          "internalType": "address",
          "name": "account",
          "type": "address"
        }
      ],
      "name": "Paused",
      "type": "event"
    },
    {
      "anonymous": false,
      "inputs": [
        {
          "indexed": false,
          "internalType": "address",
          "name": "account",
          "type": "address"
        }
      ],
      "name": "Unpaused",
      "type": "event"
    },
    {
      "inputs": [],
      "name": "MAX_ATTRIBUTES",
      "outputs": [
        {
          "internalType": "uint256",
          "name": "",
          "type": "uint256"
        }
      ],
      "stateMutability": "view",
      "type": "function"
    },
    {
      "inputs": [],
      "name": "MAX_ATTRIBUTE_LENGTH",
      "outputs": [
        {
          "internalType": "uint256",
          "name": "",
          "type": "uint256"
        }
      ],
      "stateMutability": "view",
      "type": "function"
    },
    {
      "inputs": [],
      "name": "MAX_IDENTIFIER_LENGTH",
      "outputs": [
        {
          "internalType": "uint256",
          "name": "",
          "type": "uint256"
        }
      ],
      "stateMutability": "view",
      "type": "function"
    },
    {
      "inputs": [
        {
          "internalType": "string",
          "name": "name",
          "type": "string"
        },
        {
          "internalType": "string",
          "name": "value",
          "type": "string"
        }
      ],
      "name": "addAttribute",
      "outputs": [
        {
          "internalType": "bool",
          "name": "",
          "type": "bool"
        }
      ],
      "stateMutability": "nonpayable",
      "type": "function"
    },
    {
      "inputs": [
        {
          "internalType": "string",
          "name": "",
          "type": "string"
        }
      ],
      "name": "attributes",
      "outputs": [
        {
          "internalType": "string",
          "name": "value",
          "type": "string"
        },
        {
          "internalType": "uint256",
          "name": "timestamp",
          "type": "uint256"
        },
        {
          "internalType": "bool",
          "name": "isVerified",
          "type": "bool"
        },
        {
          "internalType": "address",
          "name": "verifiedBy",
          "type": "address"
        }
      ],
      "stateMutability": "view",
      "type": "function"
    },
    {
      "inputs": [
        {
          "internalType": "address",
          "name": "",
          "type": "address"
        },
        {
          "internalType": "string",
          "name": "",
          "type": "string"
        }
      ],
      "name": "authorizedAccess",
      "outputs": [
        {
          "internalType": "bool",
          "name": "",
          "type": "bool"
        }
      ],
      "stateMutability": "view",
      "type": "function"
    },
    {
      "inputs": [
        {
          "internalType": "string",
          "name": "identifier",
          "type": "string"
        }
      ],
      "name": "createDID",
      "outputs": [
        {
          "internalType": "bool",
          "name": "",
          "type": "bool"
        }
      ],
      "stateMutability": "nonpayable",
      "type": "function"
    },
    {
      "inputs": [],
      "name": "deactivateDID",
      "outputs": [
        {
          "internalType": "bool",
          "name": "",
          "type": "bool"
        }
      ],
      "stateMutability": "nonpayable",
      "type": "function"
    },
    {
      "inputs": [
        {
          "internalType": "string",
          "name": "name",
          "type": "string"
        }
      ],
      "name": "getAttribute",
      "outputs": [
        {
          "internalType": "string",
          "name": "",
          "type": "string"
        }
      ],
      "stateMutability": "view",
      "type": "function"
    },
    {
      "inputs": [],
      "name": "getAttributeCount",
      "outputs": [
        {
          "internalType": "uint256",
          "name": "",
          "type": "uint256"
        }
      ],
      "stateMutability": "view",
      "type": "function"
    },
    {
      "inputs": [
        {
          "internalType": "string",
          "name": "name",
          "type": "string"
        }
      ],
      "name": "getAttributeDetails",
      "outputs": [
        {
          "internalType": "string",
          "name": "value",
          "type": "string"
        },
        {
          "internalType": "uint256",
          "name": "timestamp",
          "type": "uint256"
        },
        {
          "internalType": "bool",
          "name": "isVerified",
          "type": "bool"
        },
        {
          "internalType": "address",
          "name": "verifiedBy",
          "type": "address"
        }
      ],
      "stateMutability": "view",
      "type": "function"
    },
    {
      "inputs": [],
      "name": "getDIDDetails",
      "outputs": [
        {
          "internalType": "string",
          "name": "identifier",
          "type": "string"
        },
        {
          "internalType": "bool",
          "name": "active",
          "type": "bool"
        },
        {
          "internalType": "uint256",
          "name": "createdAt",
          "type": "uint256"
        },
        {
          "internalType": "uint256",
          "name": "updatedAt",
          "type": "uint256"
        },
        {
          "internalType": "bool",
          "name": "isRevoked",
          "type": "bool"
        },
        {
          "internalType": "string",
          "name": "revocationReason",
          "type": "string"
        }
      ],
      "stateMutability": "view",
      "type": "function"
    },
    {
      "inputs": [
        {
          "internalType": "uint256",
          "name": "didIndex",
          "type": "uint256"
        },
        {
          "internalType": "address",
          "name": "to",
          "type": "address"
        },
        {
          "internalType": "string",
          "name": "attribute",
          "type": "string"
        }
      ],
      "name": "grantAccess",
      "outputs": [
        {
          "internalType": "bool",
          "name": "",
          "type": "bool"
        }
      ],
      "stateMutability": "nonpayable",
      "type": "function"
    },
    {
      "inputs": [
        {
          "internalType": "address",
          "name": "owner",
          "type": "address"
        },
        {
          "internalType": "uint256",
          "name": "didIndex",
          "type": "uint256"
        },
        {
          "internalType": "address",
          "name": "accessor",
          "type": "address"
        },
        {
          "internalType": "string",
          "name": "attribute",
          "type": "string"
        }
      ],
      "name": "hasAccess",
      "outputs": [
        {
          "internalType": "bool",
          "name": "",
          "type": "bool"
        }
      ],
      "stateMutability": "view",
      "type": "function"
    },
    {
      "inputs": [],
      "name": "owner",
      "outputs": [
        {
          "internalType": "address",
          "name": "",
          "type": "address"
        }
      ],
      "stateMutability": "view",
      "type": "function"
    },
    {
      "inputs": [],
      "name": "pause",
      "outputs": [],
      "stateMutability": "nonpayable",
      "type": "function"
    },
    {
      "inputs": [],
      "name": "paused",
      "outputs": [
        {
          "internalType": "bool",
          "name": "",
          "type": "bool"
        }
      ],
      "stateMutability": "view",
      "type": "function"
    },
    {
      "inputs": [
        {
          "internalType": "string",
          "name": "name",
          "type": "string"
        }
      ],
      "name": "removeAttribute",
      "outputs": [
        {
          "internalType": "bool",
          "name": "",
          "type": "bool"
        }
      ],
      "stateMutability": "nonpayable",
      "type": "function"
    },
    {
      "inputs": [],
      "name": "renounceOwnership",
      "outputs": [],
      "stateMutability": "nonpayable",
      "type": "function"
    },
    {
      "inputs": [
        {
          "internalType": "address",
          "name": "from",
          "type": "address"
        },
        {
          "internalType": "string",
          "name": "attribute",
          "type": "string"
        }
      ],
      "name": "revokeAccess",
      "outputs": [
        {
          "internalType": "bool",
          "name": "",
          "type": "bool"
        }
      ],
      "stateMutability": "nonpayable",
      "type": "function"
    },
    {
      "inputs": [
        {
          "internalType": "string",
          "name": "reason",
          "type": "string"
        }
      ],
      "name": "revokeDID",
      "outputs": [
        {
          "internalType": "bool",
          "name": "",
          "type": "bool"
        }
      ],
      "stateMutability": "nonpayable",
      "type": "function"
    },
    {
      "inputs": [],
      "name": "selfDID",
      "outputs": [
        {
          "internalType": "string",
          "name": "identifier",
          "type": "string"
        },
        {
          "internalType": "bool",
          "name": "active",
          "type": "bool"
        },
        {
          "internalType": "uint256",
          "name": "createdAt",
          "type": "uint256"
        },
        {
          "internalType": "uint256",
          "name": "updatedAt",
          "type": "uint256"
        },
        {
          "internalType": "bool",
          "name": "isRevoked",
          "type": "bool"
        },
        {
          "internalType": "string",
          "name": "revocationReason",
          "type": "string"
        }
      ],
      "stateMutability": "view",
      "type": "function"
    },
    {
      "inputs": [
        {
          "internalType": "string",
          "name": "",
          "type": "string"
        }
      ],
      "name": "supportedIDTypes",
      "outputs": [
        {
          "internalType": "bool",
          "name": "",
          "type": "bool"
        }
      ],
      "stateMutability": "view",
      "type": "function"
    },
    {
      "inputs": [
        {
          "internalType": "address",
          "name": "newOwner",
          "type": "address"
        }
      ],
      "name": "transferOwnership",
      "outputs": [],
      "stateMutability": "nonpayable",
      "type": "function"
    },
    {
      "inputs": [],
      "name": "unpause",
      "outputs": [],
      "stateMutability": "nonpayable",
      "type": "function"
    },
    {
      "inputs": [
        {
          "internalType": "address",
          "name": "",
          "type": "address"
        },
        {
          "internalType": "uint256",
          "name": "",
          "type": "uint256"
        }
      ],
      "name": "userDIDs",
      "outputs": [
        {
          "internalType": "string",
          "name": "identifier",
          "type": "string"
        },
        {
          "internalType": "bool",
          "name": "active",
          "type": "bool"
        },
        {
          "internalType": "uint256",
          "name": "createdAt",
          "type": "uint256"
        },
        {
          "internalType": "uint256",
          "name": "updatedAt",
          "type": "uint256"
        },
        {
          "internalType": "bool",
          "name": "isRevoked",
          "type": "bool"
        },
        {
          "internalType": "string",
          "name": "revocationReason",
          "type": "string"
        }
      ],
      "stateMutability": "view",
      "type": "function"
    },
    {
      "inputs": [
        {
          "internalType": "string",
          "name": "name",
          "type": "string"
        },
        {
          "internalType": "address",
          "name": "verifier",
          "type": "address"
        }
      ],
      "name": "verifyAttribute",
      "outputs": [
        {
          "internalType": "bool",
          "name": "",
          "type": "bool"
        }
      ],
      "stateMutability": "nonpayable",
      "type": "function"
    }
  ],
  "bytecode": "0x6080806040523461007c5760008054336001600160a01b0319821681178355916001600160a01b03909116907f8be0079c531659141344cd1fd0a4f28419497f9722a3daafe3b4186f6b6457e09080a360018055600160ff19806002541660025542600555426006556004541617600455611f2590816100828239f35b600080fdfe60406080815260048036101561001457600080fd5b600091823560e01c80630b42f3fd146118215780632ba56834146114255780633457d3e2146110e85780633771420814610f705780633aa1b5ca14610f545780633f4ba83a14610ebe57806345e8846f14610d1a5780634b9802f814610cfd5780635c975abb14610cd95780636a44cac914610c475780636aab3cef14610bba578063715018a614610b60578063767bc20e14610a895780638456cb5914610a2e5780638c15f62d146109f15780638da5cb5b146109c9578063967a455f146109705780639bc3a000146108e0578063a9595ffb146107f0578063c93ead1b146107d1578063cfe3b34714610558578063e3725def1461043f578063e4a94adc146103e3578063e8a51fca146102db578063f2fde38b14610218578063f3d310bf146101f85763fb99d0071461014957600080fd5b346101f45760803660031901126101f45761016261198e565b6001600160a01b0360443581811694908590036101f0576064356001600160401b0381116101ec579161019c8692602098943691016118d4565b9316808352600e87526101b58584205460243510611eae565b149384156101c9575b505050519015158152f35b8152600a855282902091925060ff916101e191611952565b5416903880806101be565b8680fd5b8580fd5b8280fd5b8382346102145781600319360112610214576020905160648152f35b5080fd5b5090346101f45760203660031901126101f45761023361198e565b9061023c611c7c565b6001600160a01b0391821692831561028957505082546001600160a01b0319811683178455167f8be0079c531659141344cd1fd0a4f28419497f9722a3daafe3b4186f6b6457e08380a380f35b906020608492519162461bcd60e51b8352820152602660248201527f4f776e61626c653a206e6577206f776e657220697320746865207a65726f206160448201526564647265737360d01b6064820152fd5b50346101f457602091826003193601126103df5780356001600160401b0381116103db5761038d846103a29661031b6103b896956103a9953691016118d4565b61032a60ff6007541615611cd4565b61037d86519261036161035a84519587818188019861034a81838c61192f565b81016009815203019020546119e6565b1515611dc8565b8760018060a01b0382541633149182156103bc575b5050611e14565b855193849283925192839161192f565b81016009815203019020825195868092611b4b565b03856118b3565b51928284938452830190611be1565b0390f35b338152600a87522060ff91506103d29084611952565b54168738610376565b8480fd5b8380fd5b50913461043c578060031936011261043c57506103b860ff83519261040b846103a281611a20565b54169260055460065460ff60075416918351936104328561042b81611ac4565b03866118b3565b5196879687611c06565b80fd5b50823461043c57602092836003193601126102145780356001600160401b0381116101f457916104da8561047b6060946103b8963691016118d4565b61048a60ff6007541615611cd4565b8651906104a761035a82519385818186019661034a81838a61192f565b84546001600160a01b03956104ca9187163314908a908215610539575050611e14565b875193849283925192839161192f565b810160098152030190209380516104f081611882565b600282519661050a886105038184611b4b565b03896118b3565b8783526001810154809984015201549260ff8416151593848484015260081c1693849101525194859485611c47565b338152600a87522060ff915061054f9084611952565b5416898c610376565b50346101f4576020928360031936011261043c576001600160401b039280358481116101f45761058b90369083016118d4565b91610594611c7c565b61059c611d2e565b6105ab60ff6007541615611cd4565b6105b3611d72565b82511561078e5760019460ff199186836007541617600755845191821161077b576105df6008546119e6565b601f8111610723575b508790601f831160011461067b5791807ff47a4f2302a3334a22353c5748d420f032e5f784e851777209232d29d1693335969492610664969491610670575b50600019600383901b1c191690881b176008555b8154169055426006558351918291858352610657868401611a20565b9083820389850152611be1565b0390a181805551908152f35b905084015138610627565b879291601f198316600883527ff3f7a9fe364faab93b216da50a3214154f22a0a2b415b23a84c8169e8b636ee3925b8b82821061070d5750509183917ff47a4f2302a3334a22353c5748d420f032e5f784e851777209232d29d1693335989694610664989694106106f4575b5050811b0160085561063b565b86015160001960f88460031b161c1916905538806106e7565b838a015185558b969094019392830192016106aa565b61076b90600883527ff3f7a9fe364faab93b216da50a3214154f22a0a2b415b23a84c8169e8b636ee3601f850160051c8101918b8610610771575b601f0160051c0190611d17565b386105e8565b909150819061075e565b634e487b7160e01b815260418452602490fd5b835162461bcd60e51b8152808301879052601a60248201527f5265766f636174696f6e20726561736f6e2072657175697265640000000000006044820152606490fd5b838234610214578160031936011261021457602090600d549051908152f35b5090346101f45760603660031901126101f45761080b611978565b6044356001600160401b0381116103db577f883d542f167dfc5f47e8bf1532c171025ed0e4c59c1126c7f61749fa21976a45916108b6856020976108a86108586108d29636908a016118d4565b94610861611c7c565b610869611d2e565b61087860ff6007541615611cd4565b610880611d72565b6001600160a01b031697610895891515611e70565b338352600e8b5283832054903510611eae565b868152600a89522082611952565b805460ff19166001179055845186815291829187830190611be1565b0390a2600180555160018152f35b50913461043c57602036600319011261043c578135906001600160401b03821161043c5750610917610929926020923691016118d4565b8184519382858094519384920161192f565b810160098152030190206103b8825192610947846103a28186611b4b565b600183015460029093015490519384936001600160a01b03600884901c169260ff169185611c47565b50913461043c578060031936011261043c57506103b860ff8060075416926109988415611cd4565b541692600554926006548251946109b9866109b281611a20565b03876118b3565b8351936104328561042b81611ac4565b838234610214578160031936011261021457905490516001600160a01b039091168152602090f35b8382346102145760ff610a2360209383610a0a366119a4565b6001600160a01b039091168352600a8752912090611952565b541690519015158152f35b83823461021457816003193601126102145760207f62e78cea01bee320cd4e420270b5ea74000d11b0c9f74754ebdbfc544b05a25891610a6c611c7c565b610a74611d2e565b600160ff19600254161760025551338152a180f35b50913461043c578060031936011261043c5750610aa4611c7c565b610aac611d2e565b610abb60ff6007541615611cd4565b610ac3611d72565b805460ff811615610b1d5760ff19169055426006558051602080825291907f4360f12f602ccecefb32480e5314d0d3f57d38db8f52c76d8fdf4c39596c1c289080610b0f818601611a20565b0390a1600180555160018152f35b506020606492519162461bcd60e51b8352820152601760248201527f44494420697320616c726561647920696e6163746976650000000000000000006044820152fd5b833461043c578060031936011261043c57610b79611c7c565b80546001600160a01b03198116825581906001600160a01b03167f8be0079c531659141344cd1fd0a4f28419497f9722a3daafe3b4186f6b6457e08280a380f35b50913461043c578260031936011261043c57610bd461198e565b6001600160a01b03168152600e6020528281208054602435929190831015610214579160066020836103b8956005955220910201845193610c198561042b8185611b4b565b60ff6001830154169560028301549061043260ff600386015494860154169461042b83518098819301611b4b565b838234610214576020917f51cbcaaca6ae26944c6280c966a07b04ca5c6766d82ca497ded152579431468d6108d283610cc0610c82366119a4565b9290610c8c611c7c565b610c94611d2e565b610ca360ff6007541615611cd4565b610cab611d72565b6001600160a01b0316956108a8871515611e70565b805460ff19169055845186815291829187830190611be1565b83823461021457816003193601126102145760209060ff6002541690519015158152f35b838234610214578160031936011261021457602090516103e88152f35b50823461043c578160031936011261043c578235906001600160401b03821161043c5750610d4b90369084016118d4565b91610d54611978565b92610d5d611c7c565b610d65611d2e565b610d7460ff6007541615611cd4565b610d7c611d72565b825193815190610d9c61035a60209788818188019661034a81838a61192f565b6001600160a01b038116938415610e7b575091610e5960016108d293610e4a7f1c564f9c63901c7b3617b5a5a8d210f8871f28d4afa53586ed6f670abe7e220a9660028a518c818951610df081838a61192f565b81016009815203019020018460ff1982541617905560028a518c818951610e1881838a61192f565b600990820190815203019020018054610100600160a81b03191660089290921b610100600160a81b0316919091179055565b8751928391855192839161192f565b8201916009835288814294030190200155845191829187835287830190611be1565b855162461bcd60e51b8152908101879052601860248201527f496e76616c6964207665726966696572206164647265737300000000000000006044820152606490fd5b5090346101f457826003193601126101f457610ed8611c7c565b6002549060ff821615610f1a575060ff1916600255513381527f5db9ee0a495bf2e6ff9c91a7834c1ba4fdd244a5e8aa4e537bd38aeae4b073aa90602090a180f35b606490602084519162461bcd60e51b8352820152601460248201527314185d5cd8589b194e881b9bdd081c185d5cd95960621b6044820152fd5b8382346102145781600319360112610214576020905160328152f35b50823461043c57602092836003193601126102145780356001600160401b0381116101f457610fa290369083016118d4565b91610fab611c7c565b610fb3611d2e565b610fc260ff6007541615611cd4565b610fca611d72565b6002610ffc868651610fec61035a8851928481818c019561034a81838961192f565b875180938192895192839161192f565b810160098152030190208261101182546119e6565b806110ae575b5060018201550155600d5490811561106b575060001901600d554260065581518381527f8088db29d4761a957c0a396fa3c5f3f369fbfca4f1a83dae8b4f76a31726246a918190610b0f9086830190611be1565b835162461bcd60e51b8152908101859052601b60248201527f436f756e7465723a2064656372656d656e74206f766572666c6f7700000000006044820152606490fd5b601f81116001146110c4575081555b8288611017565b8282526110df601f8a8420920160051c820160018301611d17565b818355556110bd565b50823461043c5760209283600319360112610214576001600160401b0381358181116103df5761111b90369084016118d4565b92611124611d2e565b61113360ff6007541615611cd4565b61113b611d72565b8351156113e25760648451116113a95784519160ff85519388818189019661116481838a61192f565b8101600c8152030190205416611366576003918254611182816119e6565b61132e57865192831161131b579061119d89959493926119e6565b601f81116112cf575b508490601f831160011461124c57918060019694926111fb969491611241575b5060001982841b1c191690861b1790555b426005554260065560ff19948486825416179055865180938192885192839161192f565b8101600c815203019020918254161790557f44ca9609d2fe597457041d7e98533a969452ef425c10a46d0dd9f074497ea1ba8251848152806108d2339487830190611be1565b90508801518b6111c6565b90601f1983168483527fc2575a0e9e593c00f959f8c92f12db2869c3395a3b0502d05e2516446f71f85b925b8181106112b857509260019694928792826111fb9896106112a0575b5050811b0190556111d7565b8a015160001983861b60f8161c191690558b80611294565b91928760018192868d015181550194019201611278565b611315908483527fc2575a0e9e593c00f959f8c92f12db2869c3395a3b0502d05e2516446f71f85b601f850160051c81019188861061077157601f0160051c0190611d17565b896111a6565b634e487b7160e01b825260418652602482fd5b875162461bcd60e51b81528087018a9052601260248201527144494420616c72656164792065786973747360701b6044820152606490fd5b855162461bcd60e51b8152808501889052601960248201527f4964656e74696669657220616c726561647920696e20757365000000000000006044820152606490fd5b845162461bcd60e51b815280840187905260136024820152724964656e74696669657220746f6f206c6f6e6760681b6044820152606490fd5b845162461bcd60e51b8152808401879052601a60248201527f4964656e7469666965722063616e6e6f7420626520656d7074790000000000006044820152606490fd5b5090346101f457816003193601126101f4576001600160401b039080358281116103db5761145690369083016118d4565b9160249081358181116101ec5761147090369085016118d4565b92611479611c7c565b611481611d2e565b61149060ff6007541615611cd4565b611498611d72565b8451156117df576103e88086511161179d5784511561175b57845111611719576032600d5410156116d7579085918251916114d283611882565b85835260209889840192428452858501968288526115048c8b8160608a019a878c52519382858094519384920161192f565b8101600981520301902095519182519485116116c657505061152685546119e6565b8b601f8211611698575b50508a91601f841160011461160357946115cd94847fb5992aa9568eacc71d59e4909dd6598b92a9412825efe4598975018ea0918d759b9995610b0f99956002956115eb9d9a926115f8575b50508160011b916000199060031b1c19161782555b51600182015592519201805491516001600160a81b031990921660ff931515939093169290921760089190911b610100600160a81b0316179055565b6001600d5401600d5542600655855193849387855287850190611be1565b9083820388850152611be1565b01519050388061157c565b9190601f1984168684528c8420935b8d82821061168257505094600185610b0f99956002956115eb9d9a957fb5992aa9568eacc71d59e4909dd6598b92a9412825efe4598975018ea0918d759f9d996115cd9b10611669575b505050811b018255611591565b015160001960f88460031b161c1916905538808061165c565b6001859682939686015181550195019301611612565b8684528084206116bf92601f870160051c820192871061077157601f0160051c0190611d17565b388b611530565b634e487b7160e01b84526041905282fd5b606490601a84602089519362461bcd60e51b85528401528201527f4d6178696d756d206174747269627574657320726561636865640000000000006044820152fd5b606490601884602089519362461bcd60e51b85528401528201527f4174747269627574652076616c756520746f6f206c6f6e6700000000000000006044820152fd5b865162461bcd60e51b8152602081840152601f818601527f4174747269627574652076616c75652063616e6e6f7420626520656d707479006044820152606490fd5b865162461bcd60e51b81526020818401526017818601527f417474726962757465206e616d6520746f6f206c6f6e670000000000000000006044820152606490fd5b606490601e84602089519362461bcd60e51b85528401528201527f417474726962757465206e616d652063616e6e6f7420626520656d70747900006044820152fd5b50823461043c57602036600319011261043c578235906001600160401b03821161043c575061186d602061185b819560ff943691016118d4565b8185519382858094519384920161192f565b8101600b815203019020541690519015158152f35b608081019081106001600160401b0382111761189d57604052565b634e487b7160e01b600052604160045260246000fd5b90601f801991011681019081106001600160401b0382111761189d57604052565b81601f8201121561192a578035906001600160401b03821161189d5760405192611908601f8401601f1916602001856118b3565b8284526020838301011161192a57816000926020809301838601378301015290565b600080fd5b60005b8381106119425750506000910152565b8181015183820152602001611932565b60209061196c92826040519483868095519384920161192f565b82019081520301902090565b602435906001600160a01b038216820361192a57565b600435906001600160a01b038216820361192a57565b90604060031983011261192a576004356001600160a01b038116810361192a5791602435906001600160401b03821161192a576119e3916004016118d4565b90565b90600182811c92168015611a16575b6020831014611a0057565b634e487b7160e01b600052602260045260246000fd5b91607f16916119f5565b60035460009291611a30826119e6565b80825291600190818116908115611aa75750600114611a4e57505050565b9192935060036000527fc2575a0e9e593c00f959f8c92f12db2869c3395a3b0502d05e2516446f71f85b916000925b848410611a8f57505060209250010190565b80546020858501810191909152909301928101611a7d565b915050602093945060ff929192191683830152151560051b010190565b60085460009291611ad4826119e6565b80825291600190818116908115611aa75750600114611af257505050565b9192935060086000527ff3f7a9fe364faab93b216da50a3214154f22a0a2b415b23a84c8169e8b636ee3916000925b848410611b3357505060209250010190565b80546020858501810191909152909301928101611b21565b9060009291805491611b5c836119e6565b918282526001938481169081600014611bbe5750600114611b7e575b50505050565b90919394506000526020928360002092846000945b838610611baa575050505001019038808080611b78565b805485870183015294019385908201611b93565b9294505050602093945060ff191683830152151560051b01019038808080611b78565b90602091611bfa8151809281855285808601910161192f565b601f01601f1916010190565b92611c216119e397959296939660c0865260c0860190611be1565b9515156020850152604084015260608301521515608082015260a0818403910152611be1565b92611c5f606093969592608086526080860190611be1565b6020850196909652151560408401526001600160a01b0316910152565b6000546001600160a01b03163303611c9057565b606460405162461bcd60e51b815260206004820152602060248201527f4f776e61626c653a2063616c6c6572206973206e6f7420746865206f776e65726044820152fd5b15611cdb57565b60405162461bcd60e51b8152602060048201526014602482015273111251081a185cc81899595b881c995d9bdad95960621b6044820152606490fd5b818110611d22575050565b60008155600101611d17565b60ff60025416611d3a57565b60405162461bcd60e51b815260206004820152601060248201526f14185d5cd8589b194e881c185d5cd95960821b6044820152606490fd5b600260015414611d83576002600155565b60405162461bcd60e51b815260206004820152601f60248201527f5265656e7472616e637947756172643a207265656e7472616e742063616c6c006044820152606490fd5b15611dcf57565b60405162461bcd60e51b815260206004820152601860248201527f41747472696275746520646f6573206e6f7420657869737400000000000000006044820152606490fd5b15611e1b57565b60405162461bcd60e51b815260206004820152602760248201527f4e6f7420617574686f72697a656420746f2061636365737320746869732061746044820152667472696275746560c81b6064820152608490fd5b15611e7757565b60405162461bcd60e51b815260206004820152600f60248201526e496e76616c6964206164647265737360881b6044820152606490fd5b15611eb557565b60405162461bcd60e51b815260206004820152601260248201527111125108191bd95cc81b9bdd08195e1a5cdd60721b6044820152606490fdfea26469706673582212201b193a00645cb02a94c0448c829cfee4f57d32ecbaf39743017f262fff3b535264736f6c63430008140033",
  "linkReferences": {},
  "deployedLinkReferences": {}
}