{
  "_format": "hh-sol-artifact-1",
  "contractName": "IPFSDocumentManager",
  "sourceName": "contracts/IPFSDocumentManager.sol",
  "abi": [
    {
      "inputs": [],
      "stateMutability": "nonpayable",
      "type": "constructor"
    },
    {
      "anonymous": false,
      "inputs": [
        {
          "indexed": true,
          "internalType": "string",
          "name": "documentType",
          "type": "string"
        }
      ],
      "name": "DocumentTypeAdded",
      "type": "event"
    },
    {
      "anonymous": false,
      "inputs": [
        {
          "indexed": true,
          "internalType": "string",
          "name": "documentType",
          "type": "string"
        }
      ],
      "name": "DocumentTypeRemoved",
      "type": "event"
    },
    {
      "anonymous": false,
      "inputs": [
        {
          "indexed": true,
          "internalType": "address",
          "name": "user",
          "type": "address"
        },
        {
          "indexed": true,
          "internalType": "string",
          "name": "ipfsHash",
          "type": "string"
        },
        {
          "indexed": false,
          "internalType": "string",
          "name": "documentType",
          "type": "string"
        }
      ],
      "name": "DocumentUploaded",
      "type": "event"
    },
    {
      "anonymous": false,
      "inputs": [
        {
          "indexed": true,
          "internalType": "string",
          "name": "ipfsHash",
          "type": "string"
        },
        {
          "indexed": true,
          "internalType": "address",
          "name": "verifier",
          "type": "address"
        }
      ],
      "name": "DocumentVerified",
      "type": "event"
    },
    {
      "anonymous": false,
      "inputs": [
        {
          "indexed": false,
          "internalType": "address",
          "name": "account",
          "type": "address"
        }
      ],
      "name": "Paused",
      "type": "event"
    },
    {
      "anonymous": false,
      "inputs": [
        {
          "indexed": true,
          "internalType": "bytes32",
          "name": "role",
          "type": "bytes32"
        },
        {
          "indexed": true,
          "internalType": "bytes32",
          "name": "previousAdminRole",
          "type": "bytes32"
        },
        {
          "indexed": true,
          "internalType": "bytes32",
          "name": "newAdminRole",
          "type": "bytes32"
        }
      ],
      "name": "RoleAdminChanged",
      "type": "event"
    },
    {
      "anonymous": false,
      "inputs": [
        {
          "indexed": true,
          "internalType": "bytes32",
          "name": "role",
          "type": "bytes32"
        },
        {
          "indexed": true,
          "internalType": "address",
          "name": "account",
          "type": "address"
        },
        {
          "indexed": true,
          "internalType": "address",
          "name": "sender",
          "type": "address"
        }
      ],
      "name": "RoleGranted",
      "type": "event"
    },
    {
      "anonymous": false,
      "inputs": [
        {
          "indexed": true,
          "internalType": "bytes32",
          "name": "role",
          "type": "bytes32"
        },
        {
          "indexed": true,
          "internalType": "address",
          "name": "account",
          "type": "address"
        },
        {
          "indexed": true,
          "internalType": "address",
          "name": "sender",
          "type": "address"
        }
      ],
      "name": "RoleRevoked",
      "type": "event"
    },
    {
      "anonymous": false,
      "inputs": [
        {
          "indexed": false,
          "internalType": "address",
          "name": "account",
          "type": "address"
        }
      ],
      "name": "Unpaused",
      "type": "event"
    },
    {
      "inputs": [],
      "name": "ADMIN_ROLE",
      "outputs": [
        {
          "internalType": "bytes32",
          "name": "",
          "type": "bytes32"
        }
      ],
      "stateMutability": "view",
      "type": "function"
    },
    {
      "inputs": [],
      "name": "DEFAULT_ADMIN_ROLE",
      "outputs": [
        {
          "internalType": "bytes32",
          "name": "",
          "type": "bytes32"
        }
      ],
      "stateMutability": "view",
      "type": "function"
    },
    {
      "inputs": [],
      "name": "SERVICE_PROVIDER_ROLE",
      "outputs": [
        {
          "internalType": "bytes32",
          "name": "",
          "type": "bytes32"
        }
      ],
      "stateMutability": "view",
      "type": "function"
    },
    {
      "inputs": [],
      "name": "USER_ROLE",
      "outputs": [
        {
          "internalType": "bytes32",
          "name": "",
          "type": "bytes32"
        }
      ],
      "stateMutability": "view",
      "type": "function"
    },
    {
      "inputs": [],
      "name": "VERIFIER_ROLE",
      "outputs": [
        {
          "internalType": "bytes32",
          "name": "",
          "type": "bytes32"
        }
      ],
      "stateMutability": "view",
      "type": "function"
    },
    {
      "inputs": [
        {
          "internalType": "string",
          "name": "documentType",
          "type": "string"
        }
      ],
      "name": "addDocumentType",
      "outputs": [],
      "stateMutability": "nonpayable",
      "type": "function"
    },
    {
      "inputs": [
        {
          "internalType": "string",
          "name": "",
          "type": "string"
        }
      ],
      "name": "documentTypes",
      "outputs": [
        {
          "internalType": "bool",
          "name": "",
          "type": "bool"
        }
      ],
      "stateMutability": "view",
      "type": "function"
    },
    {
      "inputs": [
        {
          "internalType": "string",
          "name": "",
          "type": "string"
        }
      ],
      "name": "documents",
      "outputs": [
        {
          "internalType": "string",
          "name": "ipfsHash",
          "type": "string"
        },
        {
          "internalType": "string",
          "name": "documentType",
          "type": "string"
        },
        {
          "internalType": "uint256",
          "name": "uploadTimestamp",
          "type": "uint256"
        },
        {
          "internalType": "uint256",
          "name": "expiryTimestamp",
          "type": "uint256"
        },
        {
          "internalType": "bool",
          "name": "isActive",
          "type": "bool"
        },
        {
          "internalType": "address",
          "name": "uploadedBy",
          "type": "address"
        }
      ],
      "stateMutability": "view",
      "type": "function"
    },
    {
      "inputs": [
        {
          "internalType": "string",
          "name": "ipfsHash",
          "type": "string"
        }
      ],
      "name": "getDocument",
      "outputs": [
        {
          "internalType": "string",
          "name": "documentType",
          "type": "string"
        },
        {
          "internalType": "uint256",
          "name": "uploadTimestamp",
          "type": "uint256"
        },
        {
          "internalType": "uint256",
          "name": "expiryTimestamp",
          "type": "uint256"
        },
        {
          "internalType": "bool",
          "name": "isActive",
          "type": "bool"
        },
        {
          "internalType": "address",
          "name": "uploadedBy",
          "type": "address"
        },
        {
          "internalType": "string[]",
          "name": "verificationHashes",
          "type": "string[]"
        }
      ],
      "stateMutability": "view",
      "type": "function"
    },
    {
      "inputs": [
        {
          "internalType": "bytes32",
          "name": "role",
          "type": "bytes32"
        }
      ],
      "name": "getRoleAdmin",
      "outputs": [
        {
          "internalType": "bytes32",
          "name": "",
          "type": "bytes32"
        }
      ],
      "stateMutability": "view",
      "type": "function"
    },
    {
      "inputs": [
        {
          "internalType": "address",
          "name": "user",
          "type": "address"
        }
      ],
      "name": "getUserDocuments",
      "outputs": [
        {
          "internalType": "string[]",
          "name": "",
          "type": "string[]"
        }
      ],
      "stateMutability": "view",
      "type": "function"
    },
    {
      "inputs": [
        {
          "internalType": "bytes32",
          "name": "role",
          "type": "bytes32"
        },
        {
          "internalType": "address",
          "name": "account",
          "type": "address"
        }
      ],
      "name": "grantRole",
      "outputs": [],
      "stateMutability": "nonpayable",
      "type": "function"
    },
    {
      "inputs": [
        {
          "internalType": "bytes32",
          "name": "role",
          "type": "bytes32"
        },
        {
          "internalType": "address",
          "name": "account",
          "type": "address"
        }
      ],
      "name": "hasRole",
      "outputs": [
        {
          "internalType": "bool",
          "name": "",
          "type": "bool"
        }
      ],
      "stateMutability": "view",
      "type": "function"
    },
    {
      "inputs": [
        {
          "internalType": "string",
          "name": "documentType",
          "type": "string"
        }
      ],
      "name": "isDocumentTypeValid",
      "outputs": [
        {
          "internalType": "bool",
          "name": "",
          "type": "bool"
        }
      ],
      "stateMutability": "view",
      "type": "function"
    },
    {
      "inputs": [],
      "name": "pause",
      "outputs": [],
      "stateMutability": "nonpayable",
      "type": "function"
    },
    {
      "inputs": [],
      "name": "paused",
      "outputs": [
        {
          "internalType": "bool",
          "name": "",
          "type": "bool"
        }
      ],
      "stateMutability": "view",
      "type": "function"
    },
    {
      "inputs": [
        {
          "internalType": "string",
          "name": "documentType",
          "type": "string"
        }
      ],
      "name": "removeDocumentType",
      "outputs": [],
      "stateMutability": "nonpayable",
      "type": "function"
    },
    {
      "inputs": [
        {
          "internalType": "bytes32",
          "name": "role",
          "type": "bytes32"
        },
        {
          "internalType": "address",
          "name": "account",
          "type": "address"
        }
      ],
      "name": "renounceRole",
      "outputs": [],
      "stateMutability": "nonpayable",
      "type": "function"
    },
    {
      "inputs": [
        {
          "internalType": "bytes32",
          "name": "role",
          "type": "bytes32"
        },
        {
          "internalType": "address",
          "name": "account",
          "type": "address"
        }
      ],
      "name": "revokeRole",
      "outputs": [],
      "stateMutability": "nonpayable",
      "type": "function"
    },
    {
      "inputs": [
        {
          "internalType": "bytes4",
          "name": "interfaceId",
          "type": "bytes4"
        }
      ],
      "name": "supportsInterface",
      "outputs": [
        {
          "internalType": "bool",
          "name": "",
          "type": "bool"
        }
      ],
      "stateMutability": "view",
      "type": "function"
    },
    {
      "inputs": [],
      "name": "unpause",
      "outputs": [],
      "stateMutability": "nonpayable",
      "type": "function"
    },
    {
      "inputs": [
        {
          "internalType": "string",
          "name": "ipfsHash",
          "type": "string"
        },
        {
          "internalType": "string",
          "name": "documentType",
          "type": "string"
        },
        {
          "internalType": "uint256",
          "name": "expiryTimestamp",
          "type": "uint256"
        }
      ],
      "name": "uploadDocument",
      "outputs": [],
      "stateMutability": "nonpayable",
      "type": "function"
    },
    {
      "inputs": [
        {
          "internalType": "address",
          "name": "",
          "type": "address"
        },
        {
          "internalType": "uint256",
          "name": "",
          "type": "uint256"
        }
      ],
      "name": "userDocuments",
      "outputs": [
        {
          "internalType": "string",
          "name": "",
          "type": "string"
        }
      ],
      "stateMutability": "view",
      "type": "function"
    },
    {
      "inputs": [
        {
          "internalType": "string",
          "name": "ipfsHash",
          "type": "string"
        },
        {
          "internalType": "string",
          "name": "verificationHash",
          "type": "string"
        }
      ],
      "name": "verifyDocument",
      "outputs": [],
      "stateMutability": "nonpayable",
      "type": "function"
    }
  ],
  "bytecode": "0x60806040523480156200001157600080fd5b506001805460ff191681556002556200002c6000336200011d565b620000587fa49807205ce4d355092ef5a8a18f56e8913cf4a201fbe287825b095693c21775336200011d565b6001600560405162000077906620a0a22420a0a960c91b815260070190565b90815260408051918290036020018220805493151560ff19948516179055622820a760e91b825260056003830181905281519283900360230183208054851660019081179091556e44524956494e475f4c4943454e534560881b8452600f8401829052825193849003602f018420805486168217905567141054d4d413d49560c21b845260088401919091529051918290036028019091208054909216179055620001be565b6000828152602081815260408083206001600160a01b038516845290915290205460ff16620001ba576000828152602081815260408083206001600160a01b03851684529091529020805460ff19166001179055620001793390565b6001600160a01b0316816001600160a01b0316837f2f8788117e7eff1d82e926ec794901d17c78024a50270940304540a733656f0d60405160405180910390a45b5050565b611bb180620001ce6000396000f3fe608060405234801561001057600080fd5b50600436106101585760003560e01c80637ccb6a64116100c3578063a217fddf1161007c578063a217fddf1461033b578063a39d446614610343578063a4ca650b14610356578063b3dd697b14610369578063d547741f1461038e578063e7705db6146103a157600080fd5b80637ccb6a64146102b55780638456cb59146102da57806384e7dd54146102e25780638606a78b146102f557806390a4b1621461030857806391d148541461032857600080fd5b806336568abe1161011557806336568abe1461022c5780633f4ba83a1461023f578063577a1b92146102475780635c975abb146102675780635d5449011461027257806375b238fc146102a057600080fd5b806301ffc9a71461015d57806313119161146101855780631bc6ae8a146101ba578063248a9ca3146101e15780632f2ff15d146102045780632f6aeff014610219575b600080fd5b61017061016b36600461151e565b6103c8565b60405190151581526020015b60405180910390f35b6101ac7f14823911f2da1b49f045a0929a60b8c1f2a7fc8c06c7284ca3e8ab4e193a08c881565b60405190815260200161017c565b6101ac7fd8c0b0264fb5d225f4ba2fb92454d9f4f912be4d27b355562e6ae90ce2f5e74b81565b6101ac6101ef366004611548565b60009081526020819052604090206001015490565b61021761021236600461157d565b6103ff565b005b61021761022736600461164c565b610429565b61021761023a36600461157d565b61068d565b61021761070b565b61025a6102553660046116b9565b61072e565b60405161017c9190611733565b60015460ff16610170565b610170610280366004611746565b805160208183018101805160058252928201919093012091525460ff1681565b6101ac600080516020611b5c83398151915281565b6102c86102c3366004611746565b6107e7565b60405161017c969594939291906117d8565b6102176109b9565b6102176102f0366004611746565b6109d9565b610170610303366004611746565b610adb565b61031b61031636600461182f565b610b06565b60405161017c919061184a565b61017061033636600461157d565b610bf5565b6101ac600081565b610217610351366004611746565b610c1e565b61021761036436600461185d565b610d1f565b61037c610377366004611746565b610f25565b60405161017c969594939291906118c1565b61021761039c36600461157d565b611083565b6101ac7f0ce23c3e399818cfee81a7ab0880f714e53d7672b08df0fa62f2843416e1ea0981565b60006001600160e01b03198216637965db0b60e01b14806103f957506301ffc9a760e01b6001600160e01b03198316145b92915050565b60008281526020819052604090206001015461041a816110a8565b61042483836110b2565b505050565b7f14823911f2da1b49f045a0929a60b8c1f2a7fc8c06c7284ca3e8ab4e193a08c8610453816110a8565b61045b611136565b61046361117e565b6005836040516104739190611915565b9081526040519081900360200190205460ff166104cf5760405162461bcd60e51b8152602060048201526015602482015274496e76616c696420646f63756d656e74207479706560581b60448201526064015b60405180910390fd5b42821161051e5760405162461bcd60e51b815260206004820152601860248201527f496e76616c6964206578706972792074696d657374616d70000000000000000060448201526064016104c6565b60038460405161052e9190611915565b90815260200160405180910390206002015460001461058f5760405162461bcd60e51b815260206004820152601760248201527f446f63756d656e7420616c72656164792065786973747300000000000000000060448201526064016104c6565b60006003856040516105a19190611915565b9081526040519081900360200190209050806105bd86826119b9565b50600181016105cc85826119b9565b50426002820155600381018390556004808201805460016001600160a81b03199091166101003390810291909117821790925560009182526020928352604082208054918201815582529190200161062486826119b9565b50846040516106339190611915565b6040518091039020336001600160a01b03167f63630f357f7a0fe7466b2c369dab72c6b5e951f8e9c0de24fa8f4ee1d10c62d9866040516106749190611733565b60405180910390a3506106876001600255565b50505050565b6001600160a01b03811633146106fd5760405162461bcd60e51b815260206004820152602f60248201527f416363657373436f6e74726f6c3a2063616e206f6e6c792072656e6f756e636560448201526e103937b632b9903337b91039b2b63360891b60648201526084016104c6565b61070782826111d5565b5050565b600080516020611b5c833981519152610723816110a8565b61072b61123a565b50565b6004602052816000526040600020818154811061074a57600080fd5b9060005260206000200160009150915050805461076690611931565b80601f016020809104026020016040519081016040528092919081815260200182805461079290611931565b80156107df5780601f106107b4576101008083540402835291602001916107df565b820191906000526020600020905b8154815290600101906020018083116107c257829003601f168201915b505050505081565b6060600080600080606060006003886040516108039190611915565b9081526040519081900360200190206002810154600382015460048301546001840180549495509360ff8216916001600160a01b0361010090910416906005870190869061085090611931565b80601f016020809104026020016040519081016040528092919081815260200182805461087c90611931565b80156108c95780601f1061089e576101008083540402835291602001916108c9565b820191906000526020600020905b8154815290600101906020018083116108ac57829003601f168201915b5050505050955080805480602002602001604051908101604052809291908181526020016000905b8282101561099d57838290600052602060002001805461091090611931565b80601f016020809104026020016040519081016040528092919081815260200182805461093c90611931565b80156109895780601f1061095e57610100808354040283529160200191610989565b820191906000526020600020905b81548152906001019060200180831161096c57829003601f168201915b5050505050815260200190600101906108f1565b5050505090509650965096509650965096505091939550919395565b600080516020611b5c8339815191526109d1816110a8565b61072b61128c565b600080516020611b5c8339815191526109f1816110a8565b6109f9611136565b600582604051610a099190611915565b9081526040519081900360200190205460ff1615610a695760405162461bcd60e51b815260206004820152601c60248201527f446f63756d656e74207479706520616c7265616479206578697374730000000060448201526064016104c6565b6001600583604051610a7b9190611915565b908152604051908190036020018120805492151560ff1990931692909217909155610aa7908390611915565b604051908190038120907fb0480310ab2f6bdfc00017ba0ffce93e6c709df250781a1a50a13c76ea9bee8d90600090a25050565b6000600582604051610aed9190611915565b9081526040519081900360200190205460ff1692915050565b6001600160a01b0381166000908152600460209081526040808320805482518185028101850190935280835260609492939192909184015b82821015610bea578382906000526020600020018054610b5d90611931565b80601f0160208091040260200160405190810160405280929190818152602001828054610b8990611931565b8015610bd65780601f10610bab57610100808354040283529160200191610bd6565b820191906000526020600020905b815481529060010190602001808311610bb957829003601f168201915b505050505081526020019060010190610b3e565b505050509050919050565b6000918252602082815260408084206001600160a01b0393909316845291905290205460ff1690565b600080516020611b5c833981519152610c36816110a8565b610c3e611136565b600582604051610c4e9190611915565b9081526040519081900360200190205460ff16610cad5760405162461bcd60e51b815260206004820152601c60248201527f446f63756d656e74207479706520646f6573206e6f742065786973740000000060448201526064016104c6565b6000600583604051610cbf9190611915565b908152604051908190036020018120805492151560ff1990931692909217909155610ceb908390611915565b604051908190038120907f9158f255881462d83b435e10cc53690661f073077c501a67267f6cb9ab008a0f90600090a25050565b7f0ce23c3e399818cfee81a7ab0880f714e53d7672b08df0fa62f2843416e1ea09610d49816110a8565b610d51611136565b610d5961117e565b6000600384604051610d6b9190611915565b90815260200160405180910390206002015411610dca5760405162461bcd60e51b815260206004820152601760248201527f446f63756d656e7420646f6573206e6f7420657869737400000000000000000060448201526064016104c6565b600383604051610dda9190611915565b9081526040519081900360200190206004015460ff16610e355760405162461bcd60e51b8152602060048201526016602482015275446f63756d656e74206973206e6f742061637469766560501b60448201526064016104c6565b600383604051610e459190611915565b9081526020016040518091039020600301544210610e9c5760405162461bcd60e51b8152602060048201526014602482015273111bd8dd5b595b9d081a185cc8195e1c1a5c995960621b60448201526064016104c6565b600383604051610eac9190611915565b908152604051602091819003820190206005018054600181018255600091825291902001610eda83826119b9565b506040513390610eeb908590611915565b604051908190038120907fa3ed58de70b03ad29a8cb3c5b2f97edebb0a3d68dde6c08b566b22f0288a85dd90600090a36104246001600255565b8051602081830181018051600382529282019190930120915280548190610f4b90611931565b80601f0160208091040260200160405190810160405280929190818152602001828054610f7790611931565b8015610fc45780601f10610f9957610100808354040283529160200191610fc4565b820191906000526020600020905b815481529060010190602001808311610fa757829003601f168201915b505050505090806001018054610fd990611931565b80601f016020809104026020016040519081016040528092919081815260200182805461100590611931565b80156110525780601f1061102757610100808354040283529160200191611052565b820191906000526020600020905b81548152906001019060200180831161103557829003601f168201915b50505050600283015460038401546004909401549293909290915060ff81169061010090046001600160a01b031686565b60008281526020819052604090206001015461109e816110a8565b61042483836111d5565b61072b81336112c7565b6110bc8282610bf5565b610707576000828152602081815260408083206001600160a01b03851684529091529020805460ff191660011790556110f23390565b6001600160a01b0316816001600160a01b0316837f2f8788117e7eff1d82e926ec794901d17c78024a50270940304540a733656f0d60405160405180910390a45050565b60015460ff161561117c5760405162461bcd60e51b815260206004820152601060248201526f14185d5cd8589b194e881c185d5cd95960821b60448201526064016104c6565b565b60028054036111cf5760405162461bcd60e51b815260206004820152601f60248201527f5265656e7472616e637947756172643a207265656e7472616e742063616c6c0060448201526064016104c6565b60028055565b6111df8282610bf5565b15610707576000828152602081815260408083206001600160a01b0385168085529252808320805460ff1916905551339285917ff6391f5c32d9c69d2a47ea670b442974b53935d1edc7fd64eb21e047a839171b9190a45050565b611242611320565b6001805460ff191690557f5db9ee0a495bf2e6ff9c91a7834c1ba4fdd244a5e8aa4e537bd38aeae4b073aa335b6040516001600160a01b03909116815260200160405180910390a1565b611294611136565b6001805460ff1916811790557f62e78cea01bee320cd4e420270b5ea74000d11b0c9f74754ebdbfc544b05a2583361126f565b6112d18282610bf5565b610707576112de81611369565b6112e983602061137b565b6040516020016112fa929190611a79565b60408051601f198184030181529082905262461bcd60e51b82526104c691600401611733565b60015460ff1661117c5760405162461bcd60e51b815260206004820152601460248201527314185d5cd8589b194e881b9bdd081c185d5cd95960621b60448201526064016104c6565b60606103f96001600160a01b03831660145b6060600061138a836002611b04565b611395906002611b1b565b67ffffffffffffffff8111156113ad576113ad6115a9565b6040519080825280601f01601f1916602001820160405280156113d7576020820181803683370190505b509050600360fc1b816000815181106113f2576113f2611b2e565b60200101906001600160f81b031916908160001a905350600f60fb1b8160018151811061142157611421611b2e565b60200101906001600160f81b031916908160001a9053506000611445846002611b04565b611450906001611b1b565b90505b60018111156114c8576f181899199a1a9b1b9c1cb0b131b232b360811b85600f166010811061148457611484611b2e565b1a60f81b82828151811061149a5761149a611b2e565b60200101906001600160f81b031916908160001a90535060049490941c936114c181611b44565b9050611453565b5083156115175760405162461bcd60e51b815260206004820181905260248201527f537472696e67733a20686578206c656e67746820696e73756666696369656e7460448201526064016104c6565b9392505050565b60006020828403121561153057600080fd5b81356001600160e01b03198116811461151757600080fd5b60006020828403121561155a57600080fd5b5035919050565b80356001600160a01b038116811461157857600080fd5b919050565b6000806040838503121561159057600080fd5b823591506115a060208401611561565b90509250929050565b634e487b7160e01b600052604160045260246000fd5b600082601f8301126115d057600080fd5b813567ffffffffffffffff808211156115eb576115eb6115a9565b604051601f8301601f19908116603f01168101908282118183101715611613576116136115a9565b8160405283815286602085880101111561162c57600080fd5b836020870160208301376000602085830101528094505050505092915050565b60008060006060848603121561166157600080fd5b833567ffffffffffffffff8082111561167957600080fd5b611685878388016115bf565b9450602086013591508082111561169b57600080fd5b506116a8868287016115bf565b925050604084013590509250925092565b600080604083850312156116cc57600080fd5b6116d583611561565b946020939093013593505050565b60005b838110156116fe5781810151838201526020016116e6565b50506000910152565b6000815180845261171f8160208601602086016116e3565b601f01601f19169290920160200192915050565b6020815260006115176020830184611707565b60006020828403121561175857600080fd5b813567ffffffffffffffff81111561176f57600080fd5b61177b848285016115bf565b949350505050565b600081518084526020808501808196508360051b8101915082860160005b858110156117cb5782840389526117b9848351611707565b988501989350908401906001016117a1565b5091979650505050505050565b60c0815260006117eb60c0830189611707565b602083018890526040830187905285151560608401526001600160a01b038516608084015282810360a08401526118228185611783565b9998505050505050505050565b60006020828403121561184157600080fd5b61151782611561565b6020815260006115176020830184611783565b6000806040838503121561187057600080fd5b823567ffffffffffffffff8082111561188857600080fd5b611894868387016115bf565b935060208501359150808211156118aa57600080fd5b506118b7858286016115bf565b9150509250929050565b60c0815260006118d460c0830189611707565b82810360208401526118e68189611707565b60408401979097525050606081019390935290151560808301526001600160a01b031660a09091015292915050565b600082516119278184602087016116e3565b9190910192915050565b600181811c9082168061194557607f821691505b60208210810361196557634e487b7160e01b600052602260045260246000fd5b50919050565b601f82111561042457600081815260208120601f850160051c810160208610156119925750805b601f850160051c820191505b818110156119b15782815560010161199e565b505050505050565b815167ffffffffffffffff8111156119d3576119d36115a9565b6119e7816119e18454611931565b8461196b565b602080601f831160018114611a1c5760008415611a045750858301515b600019600386901b1c1916600185901b1785556119b1565b600085815260208120601f198616915b82811015611a4b57888601518255948401946001909101908401611a2c565b5085821015611a695787850151600019600388901b60f8161c191681555b5050505050600190811b01905550565b7f416363657373436f6e74726f6c3a206163636f756e7420000000000000000000815260008351611ab18160178501602088016116e3565b7001034b99036b4b9b9b4b733903937b6329607d1b6017918401918201528351611ae28160288401602088016116e3565b01602801949350505050565b634e487b7160e01b600052601160045260246000fd5b80820281158282048414176103f9576103f9611aee565b808201808211156103f9576103f9611aee565b634e487b7160e01b600052603260045260246000fd5b600081611b5357611b53611aee565b50600019019056fea49807205ce4d355092ef5a8a18f56e8913cf4a201fbe287825b095693c21775a2646970667358221220bdaf1865b032d4b94d0009d9031c86bd3373891e98b9cb3e328956480ac3c5f264736f6c63430008130033",
  "linkReferences": {},
  "deployedLinkReferences": {}
}